{
	"contracts/testContractAlbum.sol": {
		"Album": {
			"abi": [
				{
					"inputs": [],
					"stateMutability": "nonpayable",
					"type": "constructor"
				},
				{
					"anonymous": false,
					"inputs": [
						{
							"indexed": false,
							"internalType": "string",
							"name": "albumEvent_Description",
							"type": "string"
						},
						{
							"indexed": false,
							"internalType": "string",
							"name": "albumEvent_Artist",
							"type": "string"
						},
						{
							"indexed": false,
							"internalType": "string",
							"name": "albumEvent_albumTitle",
							"type": "string"
						},
						{
							"indexed": false,
							"internalType": "uint256",
							"name": "albumEvent_tracks",
							"type": "uint256"
						}
					],
					"name": "albumEvent",
					"type": "event"
				},
				{
					"anonymous": false,
					"inputs": [
						{
							"indexed": false,
							"internalType": "string",
							"name": "_Dexcription",
							"type": "string"
						}
					],
					"name": "errorEvent",
					"type": "event"
				},
				{
					"inputs": [
						{
							"internalType": "uint256",
							"name": "",
							"type": "uint256"
						}
					],
					"name": "album",
					"outputs": [
						{
							"internalType": "uint256",
							"name": "id",
							"type": "uint256"
						},
						{
							"internalType": "string",
							"name": "artist",
							"type": "string"
						},
						{
							"internalType": "string",
							"name": "albumTitle",
							"type": "string"
						},
						{
							"internalType": "uint256",
							"name": "tracks",
							"type": "uint256"
						}
					],
					"stateMutability": "view",
					"type": "function"
				},
				{
					"inputs": [],
					"name": "contractAuthor",
					"outputs": [
						{
							"internalType": "string",
							"name": "",
							"type": "string"
						}
					],
					"stateMutability": "view",
					"type": "function"
				},
				{
					"inputs": [],
					"name": "currentAlbum",
					"outputs": [
						{
							"internalType": "uint256",
							"name": "id",
							"type": "uint256"
						},
						{
							"internalType": "string",
							"name": "artist",
							"type": "string"
						},
						{
							"internalType": "string",
							"name": "albumTitle",
							"type": "string"
						},
						{
							"internalType": "uint256",
							"name": "tracks",
							"type": "uint256"
						}
					],
					"stateMutability": "view",
					"type": "function"
				},
				{
					"inputs": [],
					"name": "getCurrentAlbum",
					"outputs": [
						{
							"internalType": "string",
							"name": "",
							"type": "string"
						},
						{
							"internalType": "string",
							"name": "",
							"type": "string"
						},
						{
							"internalType": "uint256",
							"name": "",
							"type": "uint256"
						}
					],
					"stateMutability": "view",
					"type": "function"
				},
				{
					"inputs": [],
					"name": "getUsersFavouriteAlbum",
					"outputs": [
						{
							"internalType": "string",
							"name": "",
							"type": "string"
						},
						{
							"internalType": "string",
							"name": "",
							"type": "string"
						},
						{
							"internalType": "uint256",
							"name": "",
							"type": "uint256"
						}
					],
					"stateMutability": "view",
					"type": "function"
				},
				{
					"inputs": [
						{
							"internalType": "string",
							"name": "_artist",
							"type": "string"
						},
						{
							"internalType": "string",
							"name": "_albumTitle",
							"type": "string"
						},
						{
							"internalType": "uint256",
							"name": "_tracks",
							"type": "uint256"
						}
					],
					"name": "setAlbum",
					"outputs": [],
					"stateMutability": "nonpayable",
					"type": "function"
				},
				{
					"inputs": [
						{
							"internalType": "string",
							"name": "_artist",
							"type": "string"
						},
						{
							"internalType": "string",
							"name": "_albumTitle",
							"type": "string"
						},
						{
							"internalType": "uint256",
							"name": "_tracks",
							"type": "uint256"
						}
					],
					"name": "setUsersFavouriteAlbum",
					"outputs": [],
					"stateMutability": "nonpayable",
					"type": "function"
				},
				{
					"inputs": [
						{
							"internalType": "address",
							"name": "",
							"type": "address"
						}
					],
					"name": "userAlbums",
					"outputs": [
						{
							"internalType": "uint256",
							"name": "id",
							"type": "uint256"
						},
						{
							"internalType": "string",
							"name": "artist",
							"type": "string"
						},
						{
							"internalType": "string",
							"name": "albumTitle",
							"type": "string"
						},
						{
							"internalType": "uint256",
							"name": "tracks",
							"type": "uint256"
						}
					],
					"stateMutability": "view",
					"type": "function"
				}
			],
			"devdoc": {
				"kind": "dev",
				"methods": {},
				"version": 1
			},
			"evm": {
				"assembly": "    /* \"contracts/testContractAlbum.sol\":66:3737  contract Album{... */\n  mstore(0x40, 0x80)\n    /* \"contracts/testContractAlbum.sol\":632:908  constructor(){... */\n  callvalue\n  dup1\n  iszero\n  tag_1\n  jumpi\n  0x00\n  dup1\n  revert\ntag_1:\n  pop\n    /* \"contracts/testContractAlbum.sol\":753:758  owner */\n  0x06\n    /* \"contracts/testContractAlbum.sol\":753:771  owner = msg.sender */\n  dup1\n  sload\n  not(sub(shl(0xa0, 0x01), 0x01))\n  and\n    /* \"contracts/testContractAlbum.sol\":761:771  msg.sender */\n  caller\n    /* \"contracts/testContractAlbum.sol\":753:771  owner = msg.sender */\n  or\n  swap1\n  sstore\n    /* \"contracts/testContractAlbum.sol\":784:815  currentAlbum.artist = 'Nirvana' */\n  0x40\n  dup1\n  mload\n  dup1\n  dup3\n  add\n  swap1\n  swap2\n  mstore\n  0x07\n  dup2\n  mstore\n  shl(0xc8, 0x4e697276616e61)\n  0x20\n  dup3\n  add\n  mstore\n    /* \"contracts/testContractAlbum.sol\":784:803  currentAlbum.artist */\n  0x02\n  swap1\n    /* \"contracts/testContractAlbum.sol\":784:815  currentAlbum.artist = 'Nirvana' */\n  tag_4\n  swap1\n    /* \"contracts/testContractAlbum.sol\":784:803  currentAlbum.artist */\n  dup3\n    /* \"contracts/testContractAlbum.sol\":784:815  currentAlbum.artist = 'Nirvana' */\n  tag_5\n  jump\t// in\ntag_4:\n  pop\n    /* \"contracts/testContractAlbum.sol\":826:863  currentAlbum.albumTitle = 'NeverMind' */\n  0x40\n  dup1\n  mload\n  dup1\n  dup3\n  add\n  swap1\n  swap2\n  mstore\n  0x09\n  dup2\n  mstore\n  shl(0xba, 0x13995d995c935a5b99)\n  0x20\n  dup3\n  add\n  mstore\n    /* \"contracts/testContractAlbum.sol\":826:849  currentAlbum.albumTitle */\n  0x03\n  swap1\n    /* \"contracts/testContractAlbum.sol\":826:863  currentAlbum.albumTitle = 'NeverMind' */\n  tag_6\n  swap1\n    /* \"contracts/testContractAlbum.sol\":826:849  currentAlbum.albumTitle */\n  dup3\n    /* \"contracts/testContractAlbum.sol\":826:863  currentAlbum.albumTitle = 'NeverMind' */\n  tag_5\n  jump\t// in\ntag_6:\n  pop\n    /* \"contracts/testContractAlbum.sol\":896:898  10 */\n  0x0a\n    /* \"contracts/testContractAlbum.sol\":874:893  currentAlbum.tracks */\n  0x04\n    /* \"contracts/testContractAlbum.sol\":874:898  currentAlbum.tracks = 10 */\n  sstore\n    /* \"contracts/testContractAlbum.sol\":66:3737  contract Album{... */\n  jump(tag_13)\n    /* \"#utility.yul\":14:141   */\ntag_8:\n    /* \"#utility.yul\":75:85   */\n  0x4e487b71\n    /* \"#utility.yul\":70:73   */\n  0xe0\n    /* \"#utility.yul\":66:86   */\n  shl\n    /* \"#utility.yul\":63:64   */\n  0x00\n    /* \"#utility.yul\":56:87   */\n  mstore\n    /* \"#utility.yul\":106:110   */\n  0x41\n    /* \"#utility.yul\":103:104   */\n  0x04\n    /* \"#utility.yul\":96:111   */\n  mstore\n    /* \"#utility.yul\":130:134   */\n  0x24\n    /* \"#utility.yul\":127:128   */\n  0x00\n    /* \"#utility.yul\":120:135   */\n  revert\n    /* \"#utility.yul\":146:526   */\ntag_9:\n    /* \"#utility.yul\":225:226   */\n  0x01\n    /* \"#utility.yul\":221:233   */\n  dup2\n  dup2\n  shr\n  swap1\n    /* \"#utility.yul\":268:280   */\n  dup3\n  and\n  dup1\n    /* \"#utility.yul\":289:350   */\n  tag_16\n  jumpi\n    /* \"#utility.yul\":343:347   */\n  0x7f\n    /* \"#utility.yul\":335:341   */\n  dup3\n    /* \"#utility.yul\":331:348   */\n  and\n    /* \"#utility.yul\":321:348   */\n  swap2\n  pop\n    /* \"#utility.yul\":289:350   */\ntag_16:\n    /* \"#utility.yul\":396:398   */\n  0x20\n    /* \"#utility.yul\":388:394   */\n  dup3\n    /* \"#utility.yul\":385:399   */\n  lt\n    /* \"#utility.yul\":365:383   */\n  dup2\n    /* \"#utility.yul\":362:400   */\n  sub\n    /* \"#utility.yul\":359:520   */\n  tag_17\n  jumpi\n    /* \"#utility.yul\":442:452   */\n  0x4e487b71\n    /* \"#utility.yul\":437:440   */\n  0xe0\n    /* \"#utility.yul\":433:453   */\n  shl\n    /* \"#utility.yul\":430:431   */\n  0x00\n    /* \"#utility.yul\":423:454   */\n  mstore\n    /* \"#utility.yul\":477:481   */\n  0x22\n    /* \"#utility.yul\":474:475   */\n  0x04\n    /* \"#utility.yul\":467:482   */\n  mstore\n    /* \"#utility.yul\":505:509   */\n  0x24\n    /* \"#utility.yul\":502:503   */\n  0x00\n    /* \"#utility.yul\":495:510   */\n  revert\n    /* \"#utility.yul\":359:520   */\ntag_17:\n  pop\n    /* \"#utility.yul\":146:526   */\n  swap2\n  swap1\n  pop\n  jump\t// out\n    /* \"#utility.yul\":657:1202   */\ntag_11:\n    /* \"#utility.yul\":759:761   */\n  0x1f\n    /* \"#utility.yul\":754:757   */\n  dup3\n    /* \"#utility.yul\":751:762   */\n  gt\n    /* \"#utility.yul\":748:1196   */\n  iszero\n  tag_20\n  jumpi\n    /* \"#utility.yul\":795:796   */\n  0x00\n    /* \"#utility.yul\":820:825   */\n  dup2\n    /* \"#utility.yul\":816:818   */\n  dup2\n    /* \"#utility.yul\":809:826   */\n  mstore\n    /* \"#utility.yul\":865:869   */\n  0x20\n    /* \"#utility.yul\":861:863   */\n  dup2\n    /* \"#utility.yul\":851:870   */\n  keccak256\n    /* \"#utility.yul\":935:937   */\n  0x1f\n    /* \"#utility.yul\":923:933   */\n  dup6\n    /* \"#utility.yul\":919:938   */\n  add\n    /* \"#utility.yul\":916:917   */\n  0x05\n    /* \"#utility.yul\":912:939   */\n  shr\n    /* \"#utility.yul\":906:910   */\n  dup2\n    /* \"#utility.yul\":902:940   */\n  add\n    /* \"#utility.yul\":971:975   */\n  0x20\n    /* \"#utility.yul\":959:969   */\n  dup7\n    /* \"#utility.yul\":956:976   */\n  lt\n    /* \"#utility.yul\":953:1000   */\n  iszero\n  tag_21\n  jumpi\n  pop\n    /* \"#utility.yul\":994:998   */\n  dup1\n    /* \"#utility.yul\":953:1000   */\ntag_21:\n    /* \"#utility.yul\":1049:1051   */\n  0x1f\n    /* \"#utility.yul\":1044:1047   */\n  dup6\n    /* \"#utility.yul\":1040:1052   */\n  add\n    /* \"#utility.yul\":1037:1038   */\n  0x05\n    /* \"#utility.yul\":1033:1053   */\n  shr\n    /* \"#utility.yul\":1027:1031   */\n  dup3\n    /* \"#utility.yul\":1023:1054   */\n  add\n    /* \"#utility.yul\":1013:1054   */\n  swap2\n  pop\n    /* \"#utility.yul\":1104:1186   */\ntag_22:\n    /* \"#utility.yul\":1122:1124   */\n  dup2\n    /* \"#utility.yul\":1115:1120   */\n  dup2\n    /* \"#utility.yul\":1112:1125   */\n  lt\n    /* \"#utility.yul\":1104:1186   */\n  iszero\n  tag_24\n  jumpi\n    /* \"#utility.yul\":1167:1184   */\n  dup3\n  dup2\n  sstore\n    /* \"#utility.yul\":1148:1149   */\n  0x01\n    /* \"#utility.yul\":1137:1150   */\n  add\n    /* \"#utility.yul\":1104:1186   */\n  jump(tag_22)\ntag_24:\n    /* \"#utility.yul\":1108:1111   */\n  pop\n  pop\n  pop\n    /* \"#utility.yul\":748:1196   */\ntag_20:\n    /* \"#utility.yul\":657:1202   */\n  pop\n  pop\n  pop\n  jump\t// out\n    /* \"#utility.yul\":1378:2730   */\ntag_5:\n    /* \"#utility.yul\":1498:1508   */\n  dup2\n  mload\n  sub(shl(0x40, 0x01), 0x01)\n    /* \"#utility.yul\":1520:1550   */\n  dup2\n  gt\n    /* \"#utility.yul\":1517:1573   */\n  iszero\n  tag_28\n  jumpi\n    /* \"#utility.yul\":1553:1571   */\n  tag_28\n  tag_8\n  jump\t// in\ntag_28:\n    /* \"#utility.yul\":1582:1679   */\n  tag_29\n    /* \"#utility.yul\":1672:1678   */\n  dup2\n    /* \"#utility.yul\":1632:1670   */\n  tag_30\n    /* \"#utility.yul\":1664:1668   */\n  dup5\n    /* \"#utility.yul\":1658:1669   */\n  sload\n    /* \"#utility.yul\":1632:1670   */\n  tag_9\n  jump\t// in\ntag_30:\n    /* \"#utility.yul\":1626:1630   */\n  dup5\n    /* \"#utility.yul\":1582:1679   */\n  tag_11\n  jump\t// in\ntag_29:\n    /* \"#utility.yul\":1734:1738   */\n  0x20\n  dup1\n    /* \"#utility.yul\":1798:1800   */\n  0x1f\n    /* \"#utility.yul\":1787:1801   */\n  dup4\n  gt\n    /* \"#utility.yul\":1815:1816   */\n  0x01\n    /* \"#utility.yul\":1810:2473   */\n  dup2\n  eq\n  tag_32\n  jumpi\n    /* \"#utility.yul\":2517:2518   */\n  0x00\n    /* \"#utility.yul\":2534:2540   */\n  dup5\n    /* \"#utility.yul\":2531:2620   */\n  iszero\n  tag_33\n  jumpi\n  pop\n    /* \"#utility.yul\":2586:2605   */\n  dup6\n  dup4\n  add\n    /* \"#utility.yul\":2580:2606   */\n  mload\n    /* \"#utility.yul\":2531:2620   */\ntag_33:\n  not(0x00)\n    /* \"#utility.yul\":1335:1336   */\n  0x03\n    /* \"#utility.yul\":1331:1342   */\n  dup7\n  swap1\n  shl\n    /* \"#utility.yul\":1327:1351   */\n  shr\n    /* \"#utility.yul\":1323:1352   */\n  not\n    /* \"#utility.yul\":1313:1353   */\n  and\n    /* \"#utility.yul\":1359:1360   */\n  0x01\n    /* \"#utility.yul\":1355:1366   */\n  dup6\n  swap1\n  shl\n    /* \"#utility.yul\":1310:1367   */\n  or\n    /* \"#utility.yul\":2633:2714   */\n  dup6\n  sstore\n    /* \"#utility.yul\":1780:2724   */\n  jump(tag_24)\n    /* \"#utility.yul\":1810:2473   */\ntag_32:\n    /* \"#utility.yul\":604:605   */\n  0x00\n    /* \"#utility.yul\":597:611   */\n  dup6\n  dup2\n  mstore\n    /* \"#utility.yul\":641:645   */\n  0x20\n    /* \"#utility.yul\":628:646   */\n  dup2\n  keccak256\n  not(0x1f)\n    /* \"#utility.yul\":1846:1866   */\n  dup7\n  and\n  swap2\n    /* \"#utility.yul\":1964:2200   */\ntag_36:\n    /* \"#utility.yul\":1978:1985   */\n  dup3\n    /* \"#utility.yul\":1975:1976   */\n  dup2\n    /* \"#utility.yul\":1972:1986   */\n  lt\n    /* \"#utility.yul\":1964:2200   */\n  iszero\n  tag_38\n  jumpi\n    /* \"#utility.yul\":2067:2086   */\n  dup9\n  dup7\n  add\n    /* \"#utility.yul\":2061:2087   */\n  mload\n    /* \"#utility.yul\":2046:2088   */\n  dup3\n  sstore\n    /* \"#utility.yul\":2159:2186   */\n  swap5\n  dup5\n  add\n  swap5\n    /* \"#utility.yul\":2127:2128   */\n  0x01\n    /* \"#utility.yul\":2115:2129   */\n  swap1\n  swap2\n  add\n  swap1\n    /* \"#utility.yul\":1994:2013   */\n  dup5\n  add\n    /* \"#utility.yul\":1964:2200   */\n  jump(tag_36)\ntag_38:\n    /* \"#utility.yul\":1968:1971   */\n  pop\n    /* \"#utility.yul\":2228:2234   */\n  dup6\n    /* \"#utility.yul\":2219:2226   */\n  dup3\n    /* \"#utility.yul\":2216:2235   */\n  lt\n    /* \"#utility.yul\":2213:2414   */\n  iszero\n  tag_39\n  jumpi\n    /* \"#utility.yul\":2289:2308   */\n  dup8\n  dup6\n  add\n    /* \"#utility.yul\":2283:2309   */\n  mload\n  not(0x00)\n    /* \"#utility.yul\":2372:2373   */\n  0x03\n    /* \"#utility.yul\":2368:2382   */\n  dup9\n  swap1\n  shl\n    /* \"#utility.yul\":2384:2387   */\n  0xf8\n    /* \"#utility.yul\":2364:2388   */\n  and\n    /* \"#utility.yul\":2360:2397   */\n  shr\n    /* \"#utility.yul\":2356:2398   */\n  not\n    /* \"#utility.yul\":2341:2399   */\n  and\n    /* \"#utility.yul\":2326:2400   */\n  dup2\n  sstore\n    /* \"#utility.yul\":2213:2414   */\ntag_39:\n  pop\n  pop\n  pop\n  pop\n  pop\n    /* \"#utility.yul\":2460:2461   */\n  0x01\n    /* \"#utility.yul\":2444:2458   */\n  swap1\n  dup2\n  shl\n    /* \"#utility.yul\":2440:2462   */\n  add\n    /* \"#utility.yul\":2427:2463   */\n  swap1\n  sstore\n  pop\n    /* \"#utility.yul\":1378:2730   */\n  jump\t// out\ntag_13:\n    /* \"contracts/testContractAlbum.sol\":66:3737  contract Album{... */\n  dataSize(sub_0)\n  dup1\n  dataOffset(sub_0)\n  0x00\n  codecopy\n  0x00\n  return\nstop\n\nsub_0: assembly {\n        /* \"contracts/testContractAlbum.sol\":66:3737  contract Album{... */\n      mstore(0x40, 0x80)\n      callvalue\n      dup1\n      iszero\n      tag_1\n      jumpi\n      0x00\n      dup1\n      revert\n    tag_1:\n      pop\n      jumpi(tag_2, lt(calldatasize, 0x04))\n      shr(0xe0, calldataload(0x00))\n      dup1\n      0x88152315\n      gt\n      tag_11\n      jumpi\n      dup1\n      0x88152315\n      eq\n      tag_7\n      jumpi\n      dup1\n      0x8a48ca41\n      eq\n      tag_8\n      jumpi\n      dup1\n      0xa680719f\n      eq\n      tag_9\n      jumpi\n      dup1\n      0xe89e6a00\n      eq\n      tag_10\n      jumpi\n      0x00\n      dup1\n      revert\n    tag_11:\n      dup1\n      0x1a78f5d0\n      eq\n      tag_3\n      jumpi\n      dup1\n      0x275e643b\n      eq\n      tag_4\n      jumpi\n      dup1\n      0x734e1ac3\n      eq\n      tag_5\n      jumpi\n      dup1\n      0x86394b18\n      eq\n      tag_6\n      jumpi\n    tag_2:\n      0x00\n      dup1\n      revert\n        /* \"contracts/testContractAlbum.sol\":1283:1454  function getCurrentAlbum() public view returns (string memory,string memory,uint){... */\n    tag_3:\n      tag_12\n      tag_13\n      jump\t// in\n    tag_12:\n      mload(0x40)\n      tag_14\n      swap4\n      swap3\n      swap2\n      swap1\n      tag_15\n      jump\t// in\n    tag_14:\n      mload(0x40)\n      dup1\n      swap2\n      sub\n      swap1\n      return\n        /* \"contracts/testContractAlbum.sol\":2016:2382  function setUsersFavouriteAlbum(string memory _artist, string memory _albumTitle, uint _tracks) public{... */\n    tag_4:\n      tag_16\n      tag_17\n      calldatasize\n      0x04\n      tag_18\n      jump\t// in\n    tag_17:\n      tag_19\n      jump\t// in\n    tag_16:\n      stop\n        /* \"contracts/testContractAlbum.sol\":361:418  string public constant contractAuthor = 'Zeakis Michalis' */\n    tag_5:\n      tag_20\n      mload(0x40)\n      dup1\n      0x40\n      add\n      0x40\n      mstore\n      dup1\n      0x0f\n      dup2\n      mstore\n      0x20\n      add\n      shl(0x88, 0x5a65616b6973204d696368616c6973)\n      dup2\n      mstore\n      pop\n      dup2\n      jump\n    tag_20:\n      mload(0x40)\n      tag_14\n      swap2\n      swap1\n      tag_23\n      jump\t// in\n        /* \"contracts/testContractAlbum.sol\":1797:2008  function getUsersFavouriteAlbum() public view returns(string memory, string memory, uint){... */\n    tag_6:\n      tag_12\n      tag_25\n      jump\t// in\n        /* \"contracts/testContractAlbum.sol\":303:352  mapping (address => musicAlbum) public userAlbums */\n    tag_7:\n      tag_27\n      tag_28\n      calldatasize\n      0x04\n      tag_29\n      jump\t// in\n    tag_28:\n      tag_30\n      jump\t// in\n    tag_27:\n      mload(0x40)\n      tag_14\n      swap5\n      swap4\n      swap3\n      swap2\n      swap1\n      tag_32\n      jump\t// in\n        /* \"contracts/testContractAlbum.sol\":1462:1787  function setAlbum(string memory _artist, string memory _albumTitle, uint _tracks) public {... */\n    tag_8:\n      tag_16\n      tag_34\n      calldatasize\n      0x04\n      tag_18\n      jump\t// in\n    tag_34:\n      tag_35\n      jump\t// in\n        /* \"contracts/testContractAlbum.sol\":266:296  musicAlbum public currentAlbum */\n    tag_9:\n      tag_27\n      tag_37\n      jump\t// in\n        /* \"contracts/testContractAlbum.sol\":216:257  mapping (uint => musicAlbum) public album */\n    tag_10:\n      tag_27\n      tag_40\n      calldatasize\n      0x04\n      tag_41\n      jump\t// in\n    tag_40:\n      tag_42\n      jump\t// in\n        /* \"contracts/testContractAlbum.sol\":1283:1454  function getCurrentAlbum() public view returns (string memory,string memory,uint){... */\n    tag_13:\n        /* \"contracts/testContractAlbum.sol\":1331:1344  string memory */\n      0x60\n        /* \"contracts/testContractAlbum.sol\":1345:1358  string memory */\n      dup1\n        /* \"contracts/testContractAlbum.sol\":1359:1363  uint */\n      0x00\n        /* \"contracts/testContractAlbum.sol\":1382:1394  currentAlbum */\n      0x01\n        /* \"contracts/testContractAlbum.sol\":1382:1401  currentAlbum.artist */\n      dup1\n      add\n        /* \"contracts/testContractAlbum.sol\":1402:1414  currentAlbum */\n      0x01\n        /* \"contracts/testContractAlbum.sol\":1402:1425  currentAlbum.albumTitle */\n      0x02\n      add\n        /* \"contracts/testContractAlbum.sol\":1426:1438  currentAlbum */\n      0x01\n        /* \"contracts/testContractAlbum.sol\":1426:1445  currentAlbum.tracks */\n      0x03\n      add\n      sload\n        /* \"contracts/testContractAlbum.sol\":1375:1446  return(currentAlbum.artist,currentAlbum.albumTitle,currentAlbum.tracks) */\n      dup3\n      dup1\n      sload\n      tag_45\n      swap1\n      tag_46\n      jump\t// in\n    tag_45:\n      dup1\n      0x1f\n      add\n      0x20\n      dup1\n      swap2\n      div\n      mul\n      0x20\n      add\n      mload(0x40)\n      swap1\n      dup2\n      add\n      0x40\n      mstore\n      dup1\n      swap3\n      swap2\n      swap1\n      dup2\n      dup2\n      mstore\n      0x20\n      add\n      dup3\n      dup1\n      sload\n      tag_47\n      swap1\n      tag_46\n      jump\t// in\n    tag_47:\n      dup1\n      iszero\n      tag_48\n      jumpi\n      dup1\n      0x1f\n      lt\n      tag_49\n      jumpi\n      0x0100\n      dup1\n      dup4\n      sload\n      div\n      mul\n      dup4\n      mstore\n      swap2\n      0x20\n      add\n      swap2\n      jump(tag_48)\n    tag_49:\n      dup3\n      add\n      swap2\n      swap1\n      0x00\n      mstore\n      keccak256(0x00, 0x20)\n      swap1\n    tag_50:\n      dup2\n      sload\n      dup2\n      mstore\n      swap1\n      0x01\n      add\n      swap1\n      0x20\n      add\n      dup1\n      dup4\n      gt\n      tag_50\n      jumpi\n      dup3\n      swap1\n      sub\n      0x1f\n      and\n      dup3\n      add\n      swap2\n    tag_48:\n      pop\n      pop\n      pop\n      pop\n      pop\n      swap3\n      pop\n      dup2\n      dup1\n      sload\n      tag_51\n      swap1\n      tag_46\n      jump\t// in\n    tag_51:\n      dup1\n      0x1f\n      add\n      0x20\n      dup1\n      swap2\n      div\n      mul\n      0x20\n      add\n      mload(0x40)\n      swap1\n      dup2\n      add\n      0x40\n      mstore\n      dup1\n      swap3\n      swap2\n      swap1\n      dup2\n      dup2\n      mstore\n      0x20\n      add\n      dup3\n      dup1\n      sload\n      tag_52\n      swap1\n      tag_46\n      jump\t// in\n    tag_52:\n      dup1\n      iszero\n      tag_53\n      jumpi\n      dup1\n      0x1f\n      lt\n      tag_54\n      jumpi\n      0x0100\n      dup1\n      dup4\n      sload\n      div\n      mul\n      dup4\n      mstore\n      swap2\n      0x20\n      add\n      swap2\n      jump(tag_53)\n    tag_54:\n      dup3\n      add\n      swap2\n      swap1\n      0x00\n      mstore\n      keccak256(0x00, 0x20)\n      swap1\n    tag_55:\n      dup2\n      sload\n      dup2\n      mstore\n      swap1\n      0x01\n      add\n      swap1\n      0x20\n      add\n      dup1\n      dup4\n      gt\n      tag_55\n      jumpi\n      dup3\n      swap1\n      sub\n      0x1f\n      and\n      dup3\n      add\n      swap2\n    tag_53:\n      pop\n      pop\n      pop\n      pop\n      pop\n      swap2\n      pop\n      swap3\n      pop\n      swap3\n      pop\n      swap3\n      pop\n        /* \"contracts/testContractAlbum.sol\":1283:1454  function getCurrentAlbum() public view returns (string memory,string memory,uint){... */\n      swap1\n      swap2\n      swap3\n      jump\t// out\n        /* \"contracts/testContractAlbum.sol\":2016:2382  function setUsersFavouriteAlbum(string memory _artist, string memory _albumTitle, uint _tracks) public{... */\n    tag_19:\n        /* \"contracts/testContractAlbum.sol\":2140:2150  msg.sender */\n      caller\n        /* \"contracts/testContractAlbum.sol\":2129:2151  userAlbums[msg.sender] */\n      0x00\n      swap1\n      dup2\n      mstore\n        /* \"contracts/testContractAlbum.sol\":2129:2139  userAlbums */\n      0x05\n        /* \"contracts/testContractAlbum.sol\":2129:2151  userAlbums[msg.sender] */\n      0x20\n      mstore\n      0x40\n      swap1\n      keccak256\n        /* \"contracts/testContractAlbum.sol\":2129:2158  userAlbums[msg.sender].artist */\n      0x01\n      add\n        /* \"contracts/testContractAlbum.sol\":2129:2168  userAlbums[msg.sender].artist = _artist */\n      tag_57\n        /* \"contracts/testContractAlbum.sol\":2161:2168  _artist */\n      dup5\n        /* \"contracts/testContractAlbum.sol\":2129:2158  userAlbums[msg.sender].artist */\n      dup3\n        /* \"contracts/testContractAlbum.sol\":2129:2168  userAlbums[msg.sender].artist = _artist */\n      tag_58\n      jump\t// in\n    tag_57:\n      pop\n        /* \"contracts/testContractAlbum.sol\":2190:2200  msg.sender */\n      caller\n        /* \"contracts/testContractAlbum.sol\":2179:2201  userAlbums[msg.sender] */\n      0x00\n      swap1\n      dup2\n      mstore\n        /* \"contracts/testContractAlbum.sol\":2179:2189  userAlbums */\n      0x05\n        /* \"contracts/testContractAlbum.sol\":2179:2201  userAlbums[msg.sender] */\n      0x20\n      mstore\n      0x40\n      swap1\n      keccak256\n        /* \"contracts/testContractAlbum.sol\":2179:2212  userAlbums[msg.sender].albumTitle */\n      0x02\n      add\n        /* \"contracts/testContractAlbum.sol\":2179:2226  userAlbums[msg.sender].albumTitle = _albumTitle */\n      tag_59\n        /* \"contracts/testContractAlbum.sol\":2215:2226  _albumTitle */\n      dup4\n        /* \"contracts/testContractAlbum.sol\":2179:2212  userAlbums[msg.sender].albumTitle */\n      dup3\n        /* \"contracts/testContractAlbum.sol\":2179:2226  userAlbums[msg.sender].albumTitle = _albumTitle */\n      tag_58\n      jump\t// in\n    tag_59:\n      pop\n        /* \"contracts/testContractAlbum.sol\":2248:2258  msg.sender */\n      caller\n        /* \"contracts/testContractAlbum.sol\":2237:2259  userAlbums[msg.sender] */\n      0x00\n      swap1\n      dup2\n      mstore\n        /* \"contracts/testContractAlbum.sol\":2237:2247  userAlbums */\n      0x05\n        /* \"contracts/testContractAlbum.sol\":2237:2259  userAlbums[msg.sender] */\n      0x20\n      mstore\n      0x40\n      swap1\n      dup2\n      swap1\n      keccak256\n        /* \"contracts/testContractAlbum.sol\":2237:2266  userAlbums[msg.sender].tracks */\n      0x03\n      add\n        /* \"contracts/testContractAlbum.sol\":2237:2276  userAlbums[msg.sender].tracks = _tracks */\n      dup3\n      swap1\n      sstore\n        /* \"contracts/testContractAlbum.sol\":2294:2374  albumEvent(\"You have ipdated your favourite album\", _artist,_albumTitle,_tracks) */\n      mload\n      0xb38c0081894a7afb9f5994a4a62f2a6ae817bdc9b22ad5709fbf3bdf280af1bc\n      swap1\n      tag_60\n      swap1\n        /* \"contracts/testContractAlbum.sol\":2346:2353  _artist */\n      dup6\n      swap1\n        /* \"contracts/testContractAlbum.sol\":2354:2365  _albumTitle */\n      dup6\n      swap1\n        /* \"contracts/testContractAlbum.sol\":2269:2276  _tracks */\n      dup6\n      swap1\n        /* \"contracts/testContractAlbum.sol\":2294:2374  albumEvent(\"You have ipdated your favourite album\", _artist,_albumTitle,_tracks) */\n      tag_61\n      jump\t// in\n    tag_60:\n      mload(0x40)\n      dup1\n      swap2\n      sub\n      swap1\n      log1\n        /* \"contracts/testContractAlbum.sol\":2016:2382  function setUsersFavouriteAlbum(string memory _artist, string memory _albumTitle, uint _tracks) public{... */\n      pop\n      pop\n      pop\n      jump\t// out\n        /* \"contracts/testContractAlbum.sol\":1797:2008  function getUsersFavouriteAlbum() public view returns(string memory, string memory, uint){... */\n    tag_25:\n        /* \"contracts/testContractAlbum.sol\":1915:1925  msg.sender */\n      caller\n        /* \"contracts/testContractAlbum.sol\":1881:1885  uint */\n      0x00\n        /* \"contracts/testContractAlbum.sol\":1904:1926  userAlbums[msg.sender] */\n      swap1\n      dup2\n      mstore\n        /* \"contracts/testContractAlbum.sol\":1904:1914  userAlbums */\n      0x05\n        /* \"contracts/testContractAlbum.sol\":1904:1926  userAlbums[msg.sender] */\n      0x20\n      mstore\n      0x40\n      dup2\n      keccak256\n        /* \"contracts/testContractAlbum.sol\":1970:1999  userAlbums[msg.sender].tracks */\n      0x03\n      dup2\n      add\n      sload\n        /* \"contracts/testContractAlbum.sol\":1904:1933  userAlbums[msg.sender].artist */\n      0x01\n      dup3\n      add\n        /* \"contracts/testContractAlbum.sol\":1897:2000  return(userAlbums[msg.sender].artist, userAlbums[msg.sender].albumTitle, userAlbums[msg.sender].tracks) */\n      dup1\n      sload\n        /* \"contracts/testContractAlbum.sol\":1851:1864  string memory */\n      0x60\n      swap5\n      dup6\n      swap5\n        /* \"contracts/testContractAlbum.sol\":1881:1885  uint */\n      swap1\n      swap4\n        /* \"contracts/testContractAlbum.sol\":1935:1968  userAlbums[msg.sender].albumTitle */\n      0x02\n      swap1\n      swap2\n      add\n      swap2\n        /* \"contracts/testContractAlbum.sol\":1904:1933  userAlbums[msg.sender].artist */\n      dup4\n      swap1\n        /* \"contracts/testContractAlbum.sol\":1897:2000  return(userAlbums[msg.sender].artist, userAlbums[msg.sender].albumTitle, userAlbums[msg.sender].tracks) */\n      tag_45\n      swap1\n      tag_46\n      jump\t// in\n        /* \"contracts/testContractAlbum.sol\":303:352  mapping (address => musicAlbum) public userAlbums */\n    tag_30:\n      mstore(0x20, 0x05)\n      0x00\n      swap1\n      dup2\n      mstore\n      0x40\n      swap1\n      keccak256\n      dup1\n      sload\n      0x01\n      dup3\n      add\n      dup1\n      sload\n      swap2\n      swap3\n      swap2\n      tag_73\n      swap1\n      tag_46\n      jump\t// in\n    tag_73:\n      dup1\n      0x1f\n      add\n      0x20\n      dup1\n      swap2\n      div\n      mul\n      0x20\n      add\n      mload(0x40)\n      swap1\n      dup2\n      add\n      0x40\n      mstore\n      dup1\n      swap3\n      swap2\n      swap1\n      dup2\n      dup2\n      mstore\n      0x20\n      add\n      dup3\n      dup1\n      sload\n      tag_74\n      swap1\n      tag_46\n      jump\t// in\n    tag_74:\n      dup1\n      iszero\n      tag_75\n      jumpi\n      dup1\n      0x1f\n      lt\n      tag_76\n      jumpi\n      0x0100\n      dup1\n      dup4\n      sload\n      div\n      mul\n      dup4\n      mstore\n      swap2\n      0x20\n      add\n      swap2\n      jump(tag_75)\n    tag_76:\n      dup3\n      add\n      swap2\n      swap1\n      0x00\n      mstore\n      keccak256(0x00, 0x20)\n      swap1\n    tag_77:\n      dup2\n      sload\n      dup2\n      mstore\n      swap1\n      0x01\n      add\n      swap1\n      0x20\n      add\n      dup1\n      dup4\n      gt\n      tag_77\n      jumpi\n      dup3\n      swap1\n      sub\n      0x1f\n      and\n      dup3\n      add\n      swap2\n    tag_75:\n      pop\n      pop\n      pop\n      pop\n      pop\n      swap1\n      dup1\n      0x02\n      add\n      dup1\n      sload\n      tag_78\n      swap1\n      tag_46\n      jump\t// in\n    tag_78:\n      dup1\n      0x1f\n      add\n      0x20\n      dup1\n      swap2\n      div\n      mul\n      0x20\n      add\n      mload(0x40)\n      swap1\n      dup2\n      add\n      0x40\n      mstore\n      dup1\n      swap3\n      swap2\n      swap1\n      dup2\n      dup2\n      mstore\n      0x20\n      add\n      dup3\n      dup1\n      sload\n      tag_79\n      swap1\n      tag_46\n      jump\t// in\n    tag_79:\n      dup1\n      iszero\n      tag_80\n      jumpi\n      dup1\n      0x1f\n      lt\n      tag_81\n      jumpi\n      0x0100\n      dup1\n      dup4\n      sload\n      div\n      mul\n      dup4\n      mstore\n      swap2\n      0x20\n      add\n      swap2\n      jump(tag_80)\n    tag_81:\n      dup3\n      add\n      swap2\n      swap1\n      0x00\n      mstore\n      keccak256(0x00, 0x20)\n      swap1\n    tag_82:\n      dup2\n      sload\n      dup2\n      mstore\n      swap1\n      0x01\n      add\n      swap1\n      0x20\n      add\n      dup1\n      dup4\n      gt\n      tag_82\n      jumpi\n      dup3\n      swap1\n      sub\n      0x1f\n      and\n      dup3\n      add\n      swap2\n    tag_80:\n      pop\n      pop\n      pop\n      pop\n      pop\n      swap1\n      dup1\n      0x03\n      add\n      sload\n      swap1\n      pop\n      dup5\n      jump\t// out\n        /* \"contracts/testContractAlbum.sol\":1462:1787  function setAlbum(string memory _artist, string memory _albumTitle, uint _tracks) public {... */\n    tag_35:\n        /* \"contracts/testContractAlbum.sol\":1562:1581  currentAlbum.artist */\n      0x02\n        /* \"contracts/testContractAlbum.sol\":1562:1591  currentAlbum.artist = _artist */\n      tag_84\n        /* \"contracts/testContractAlbum.sol\":1584:1591  _artist */\n      dup5\n        /* \"contracts/testContractAlbum.sol\":1562:1581  currentAlbum.artist */\n      dup3\n        /* \"contracts/testContractAlbum.sol\":1562:1591  currentAlbum.artist = _artist */\n      tag_58\n      jump\t// in\n    tag_84:\n      pop\n        /* \"contracts/testContractAlbum.sol\":1602:1625  currentAlbum.albumTitle */\n      0x03\n        /* \"contracts/testContractAlbum.sol\":1602:1639  currentAlbum.albumTitle = _albumTitle */\n      tag_85\n        /* \"contracts/testContractAlbum.sol\":1628:1639  _albumTitle */\n      dup4\n        /* \"contracts/testContractAlbum.sol\":1602:1625  currentAlbum.albumTitle */\n      dup3\n        /* \"contracts/testContractAlbum.sol\":1602:1639  currentAlbum.albumTitle = _albumTitle */\n      tag_58\n      jump\t// in\n    tag_85:\n      pop\n        /* \"contracts/testContractAlbum.sol\":1650:1669  currentAlbum.tracks */\n      0x04\n        /* \"contracts/testContractAlbum.sol\":1650:1679  currentAlbum.tracks = _tracks */\n      dup2\n      swap1\n      sstore\n        /* \"contracts/testContractAlbum.sol\":1697:1779  albumEvent(\"The current album info has been updated\", _artist,_albumTitle,_tracks) */\n      mload(0x40)\n      0xb38c0081894a7afb9f5994a4a62f2a6ae817bdc9b22ad5709fbf3bdf280af1bc\n      swap1\n      tag_60\n      swap1\n        /* \"contracts/testContractAlbum.sol\":1751:1758  _artist */\n      dup6\n      swap1\n        /* \"contracts/testContractAlbum.sol\":1759:1770  _albumTitle */\n      dup6\n      swap1\n        /* \"contracts/testContractAlbum.sol\":1672:1679  _tracks */\n      dup6\n      swap1\n        /* \"contracts/testContractAlbum.sol\":1697:1779  albumEvent(\"The current album info has been updated\", _artist,_albumTitle,_tracks) */\n      tag_87\n      jump\t// in\n        /* \"contracts/testContractAlbum.sol\":266:296  musicAlbum public currentAlbum */\n    tag_37:\n      0x01\n      dup1\n      sload\n      0x02\n      dup1\n      sload\n      swap2\n      swap3\n      swap2\n      tag_73\n      swap1\n      tag_46\n      jump\t// in\n        /* \"contracts/testContractAlbum.sol\":216:257  mapping (uint => musicAlbum) public album */\n    tag_42:\n      0x00\n      0x20\n      dup2\n      swap1\n      mstore\n      swap1\n      dup2\n      mstore\n      0x40\n      swap1\n      keccak256\n      dup1\n      sload\n      0x01\n      dup3\n      add\n      dup1\n      sload\n      swap2\n      swap3\n      swap2\n      tag_73\n      swap1\n      tag_46\n      jump\t// in\n        /* \"#utility.yul\":14:437   */\n    tag_108:\n        /* \"#utility.yul\":56:59   */\n      0x00\n        /* \"#utility.yul\":94:99   */\n      dup2\n        /* \"#utility.yul\":88:100   */\n      mload\n        /* \"#utility.yul\":121:127   */\n      dup1\n        /* \"#utility.yul\":116:119   */\n      dup5\n        /* \"#utility.yul\":109:128   */\n      mstore\n        /* \"#utility.yul\":146:147   */\n      0x00\n        /* \"#utility.yul\":156:318   */\n    tag_116:\n        /* \"#utility.yul\":170:176   */\n      dup2\n        /* \"#utility.yul\":167:168   */\n      dup2\n        /* \"#utility.yul\":164:177   */\n      lt\n        /* \"#utility.yul\":156:318   */\n      iszero\n      tag_118\n      jumpi\n        /* \"#utility.yul\":232:236   */\n      0x20\n        /* \"#utility.yul\":288:301   */\n      dup2\n      dup6\n      add\n        /* \"#utility.yul\":284:306   */\n      dup2\n      add\n        /* \"#utility.yul\":278:307   */\n      mload\n        /* \"#utility.yul\":260:271   */\n      dup7\n      dup4\n      add\n        /* \"#utility.yul\":256:276   */\n      dup3\n      add\n        /* \"#utility.yul\":249:308   */\n      mstore\n        /* \"#utility.yul\":185:197   */\n      add\n        /* \"#utility.yul\":156:318   */\n      jump(tag_116)\n    tag_118:\n        /* \"#utility.yul\":160:163   */\n      pop\n        /* \"#utility.yul\":363:364   */\n      0x00\n        /* \"#utility.yul\":356:360   */\n      0x20\n        /* \"#utility.yul\":347:353   */\n      dup3\n        /* \"#utility.yul\":342:345   */\n      dup7\n        /* \"#utility.yul\":338:354   */\n      add\n        /* \"#utility.yul\":334:361   */\n      add\n        /* \"#utility.yul\":327:365   */\n      mstore\n        /* \"#utility.yul\":426:430   */\n      0x20\n        /* \"#utility.yul\":419:421   */\n      0x1f\n        /* \"#utility.yul\":415:422   */\n      not\n        /* \"#utility.yul\":410:412   */\n      0x1f\n        /* \"#utility.yul\":402:408   */\n      dup4\n        /* \"#utility.yul\":398:413   */\n      add\n        /* \"#utility.yul\":394:423   */\n      and\n        /* \"#utility.yul\":389:392   */\n      dup6\n        /* \"#utility.yul\":385:424   */\n      add\n        /* \"#utility.yul\":381:431   */\n      add\n        /* \"#utility.yul\":374:431   */\n      swap2\n      pop\n      pop\n        /* \"#utility.yul\":14:437   */\n      swap3\n      swap2\n      pop\n      pop\n      jump\t// out\n        /* \"#utility.yul\":442:896   */\n    tag_15:\n        /* \"#utility.yul\":667:669   */\n      0x60\n        /* \"#utility.yul\":656:665   */\n      dup2\n        /* \"#utility.yul\":649:670   */\n      mstore\n        /* \"#utility.yul\":630:634   */\n      0x00\n        /* \"#utility.yul\":693:738   */\n      tag_120\n        /* \"#utility.yul\":734:736   */\n      0x60\n        /* \"#utility.yul\":723:732   */\n      dup4\n        /* \"#utility.yul\":719:737   */\n      add\n        /* \"#utility.yul\":711:717   */\n      dup7\n        /* \"#utility.yul\":693:738   */\n      tag_108\n      jump\t// in\n    tag_120:\n        /* \"#utility.yul\":786:795   */\n      dup3\n        /* \"#utility.yul\":778:784   */\n      dup2\n        /* \"#utility.yul\":774:796   */\n      sub\n        /* \"#utility.yul\":769:771   */\n      0x20\n        /* \"#utility.yul\":758:767   */\n      dup5\n        /* \"#utility.yul\":754:772   */\n      add\n        /* \"#utility.yul\":747:797   */\n      mstore\n        /* \"#utility.yul\":814:847   */\n      tag_121\n        /* \"#utility.yul\":840:846   */\n      dup2\n        /* \"#utility.yul\":832:838   */\n      dup7\n        /* \"#utility.yul\":814:847   */\n      tag_108\n      jump\t// in\n    tag_121:\n        /* \"#utility.yul\":806:847   */\n      swap2\n      pop\n      pop\n        /* \"#utility.yul\":883:889   */\n      dup3\n        /* \"#utility.yul\":878:880   */\n      0x40\n        /* \"#utility.yul\":867:876   */\n      dup4\n        /* \"#utility.yul\":863:881   */\n      add\n        /* \"#utility.yul\":856:890   */\n      mstore\n        /* \"#utility.yul\":442:896   */\n      swap5\n      swap4\n      pop\n      pop\n      pop\n      pop\n      jump\t// out\n        /* \"#utility.yul\":901:1028   */\n    tag_109:\n        /* \"#utility.yul\":962:972   */\n      0x4e487b71\n        /* \"#utility.yul\":957:960   */\n      0xe0\n        /* \"#utility.yul\":953:973   */\n      shl\n        /* \"#utility.yul\":950:951   */\n      0x00\n        /* \"#utility.yul\":943:974   */\n      mstore\n        /* \"#utility.yul\":993:997   */\n      0x41\n        /* \"#utility.yul\":990:991   */\n      0x04\n        /* \"#utility.yul\":983:998   */\n      mstore\n        /* \"#utility.yul\":1017:1021   */\n      0x24\n        /* \"#utility.yul\":1014:1015   */\n      0x00\n        /* \"#utility.yul\":1007:1022   */\n      revert\n        /* \"#utility.yul\":1033:1752   */\n    tag_110:\n        /* \"#utility.yul\":1076:1081   */\n      0x00\n        /* \"#utility.yul\":1129:1132   */\n      dup3\n        /* \"#utility.yul\":1122:1126   */\n      0x1f\n        /* \"#utility.yul\":1114:1120   */\n      dup4\n        /* \"#utility.yul\":1110:1127   */\n      add\n        /* \"#utility.yul\":1106:1133   */\n      slt\n        /* \"#utility.yul\":1096:1151   */\n      tag_124\n      jumpi\n        /* \"#utility.yul\":1147:1148   */\n      0x00\n        /* \"#utility.yul\":1144:1145   */\n      dup1\n        /* \"#utility.yul\":1137:1149   */\n      revert\n        /* \"#utility.yul\":1096:1151   */\n    tag_124:\n        /* \"#utility.yul\":1183:1189   */\n      dup2\n        /* \"#utility.yul\":1170:1190   */\n      calldataload\n        /* \"#utility.yul\":1209:1227   */\n      0xffffffffffffffff\n        /* \"#utility.yul\":1246:1248   */\n      dup1\n        /* \"#utility.yul\":1242:1244   */\n      dup3\n        /* \"#utility.yul\":1239:1249   */\n      gt\n        /* \"#utility.yul\":1236:1272   */\n      iszero\n      tag_126\n      jumpi\n        /* \"#utility.yul\":1252:1270   */\n      tag_126\n      tag_109\n      jump\t// in\n    tag_126:\n        /* \"#utility.yul\":1327:1329   */\n      0x40\n        /* \"#utility.yul\":1321:1330   */\n      mload\n        /* \"#utility.yul\":1295:1297   */\n      0x1f\n        /* \"#utility.yul\":1381:1394   */\n      dup4\n      add\n      not(0x1f)\n        /* \"#utility.yul\":1377:1399   */\n      swap1\n      dup2\n      and\n        /* \"#utility.yul\":1401:1403   */\n      0x3f\n        /* \"#utility.yul\":1373:1404   */\n      add\n        /* \"#utility.yul\":1369:1409   */\n      and\n        /* \"#utility.yul\":1357:1410   */\n      dup2\n      add\n      swap1\n        /* \"#utility.yul\":1425:1443   */\n      dup3\n      dup3\n      gt\n        /* \"#utility.yul\":1445:1467   */\n      dup2\n      dup4\n      lt\n        /* \"#utility.yul\":1422:1468   */\n      or\n        /* \"#utility.yul\":1419:1491   */\n      iszero\n      tag_128\n      jumpi\n        /* \"#utility.yul\":1471:1489   */\n      tag_128\n      tag_109\n      jump\t// in\n    tag_128:\n        /* \"#utility.yul\":1511:1521   */\n      dup2\n        /* \"#utility.yul\":1507:1509   */\n      0x40\n        /* \"#utility.yul\":1500:1522   */\n      mstore\n        /* \"#utility.yul\":1546:1548   */\n      dup4\n        /* \"#utility.yul\":1538:1544   */\n      dup2\n        /* \"#utility.yul\":1531:1549   */\n      mstore\n        /* \"#utility.yul\":1592:1595   */\n      dup7\n        /* \"#utility.yul\":1585:1589   */\n      0x20\n        /* \"#utility.yul\":1580:1582   */\n      dup6\n        /* \"#utility.yul\":1572:1578   */\n      dup9\n        /* \"#utility.yul\":1568:1583   */\n      add\n        /* \"#utility.yul\":1564:1590   */\n      add\n        /* \"#utility.yul\":1561:1596   */\n      gt\n        /* \"#utility.yul\":1558:1613   */\n      iszero\n      tag_129\n      jumpi\n        /* \"#utility.yul\":1609:1610   */\n      0x00\n        /* \"#utility.yul\":1606:1607   */\n      dup1\n        /* \"#utility.yul\":1599:1611   */\n      revert\n        /* \"#utility.yul\":1558:1613   */\n    tag_129:\n        /* \"#utility.yul\":1673:1675   */\n      dup4\n        /* \"#utility.yul\":1666:1670   */\n      0x20\n        /* \"#utility.yul\":1658:1664   */\n      dup8\n        /* \"#utility.yul\":1654:1671   */\n      add\n        /* \"#utility.yul\":1647:1651   */\n      0x20\n        /* \"#utility.yul\":1639:1645   */\n      dup4\n        /* \"#utility.yul\":1635:1652   */\n      add\n        /* \"#utility.yul\":1622:1676   */\n      calldatacopy\n        /* \"#utility.yul\":1720:1721   */\n      0x00\n        /* \"#utility.yul\":1713:1717   */\n      0x20\n        /* \"#utility.yul\":1708:1710   */\n      dup6\n        /* \"#utility.yul\":1700:1706   */\n      dup4\n        /* \"#utility.yul\":1696:1711   */\n      add\n        /* \"#utility.yul\":1692:1718   */\n      add\n        /* \"#utility.yul\":1685:1722   */\n      mstore\n        /* \"#utility.yul\":1740:1746   */\n      dup1\n        /* \"#utility.yul\":1731:1746   */\n      swap5\n      pop\n      pop\n      pop\n      pop\n      pop\n        /* \"#utility.yul\":1033:1752   */\n      swap3\n      swap2\n      pop\n      pop\n      jump\t// out\n        /* \"#utility.yul\":1757:2368   */\n    tag_18:\n        /* \"#utility.yul\":1854:1860   */\n      0x00\n        /* \"#utility.yul\":1862:1868   */\n      dup1\n        /* \"#utility.yul\":1870:1876   */\n      0x00\n        /* \"#utility.yul\":1923:1925   */\n      0x60\n        /* \"#utility.yul\":1911:1920   */\n      dup5\n        /* \"#utility.yul\":1902:1909   */\n      dup7\n        /* \"#utility.yul\":1898:1921   */\n      sub\n        /* \"#utility.yul\":1894:1926   */\n      slt\n        /* \"#utility.yul\":1891:1943   */\n      iszero\n      tag_131\n      jumpi\n        /* \"#utility.yul\":1939:1940   */\n      0x00\n        /* \"#utility.yul\":1936:1937   */\n      dup1\n        /* \"#utility.yul\":1929:1941   */\n      revert\n        /* \"#utility.yul\":1891:1943   */\n    tag_131:\n        /* \"#utility.yul\":1979:1988   */\n      dup4\n        /* \"#utility.yul\":1966:1989   */\n      calldataload\n        /* \"#utility.yul\":2008:2026   */\n      0xffffffffffffffff\n        /* \"#utility.yul\":2049:2051   */\n      dup1\n        /* \"#utility.yul\":2041:2047   */\n      dup3\n        /* \"#utility.yul\":2038:2052   */\n      gt\n        /* \"#utility.yul\":2035:2069   */\n      iszero\n      tag_132\n      jumpi\n        /* \"#utility.yul\":2065:2066   */\n      0x00\n        /* \"#utility.yul\":2062:2063   */\n      dup1\n        /* \"#utility.yul\":2055:2067   */\n      revert\n        /* \"#utility.yul\":2035:2069   */\n    tag_132:\n        /* \"#utility.yul\":2088:2138   */\n      tag_133\n        /* \"#utility.yul\":2130:2137   */\n      dup8\n        /* \"#utility.yul\":2121:2127   */\n      dup4\n        /* \"#utility.yul\":2110:2119   */\n      dup9\n        /* \"#utility.yul\":2106:2128   */\n      add\n        /* \"#utility.yul\":2088:2138   */\n      tag_110\n      jump\t// in\n    tag_133:\n        /* \"#utility.yul\":2078:2138   */\n      swap5\n      pop\n        /* \"#utility.yul\":2191:2193   */\n      0x20\n        /* \"#utility.yul\":2180:2189   */\n      dup7\n        /* \"#utility.yul\":2176:2194   */\n      add\n        /* \"#utility.yul\":2163:2195   */\n      calldataload\n        /* \"#utility.yul\":2147:2195   */\n      swap2\n      pop\n        /* \"#utility.yul\":2220:2222   */\n      dup1\n        /* \"#utility.yul\":2210:2218   */\n      dup3\n        /* \"#utility.yul\":2207:2223   */\n      gt\n        /* \"#utility.yul\":2204:2240   */\n      iszero\n      tag_134\n      jumpi\n        /* \"#utility.yul\":2236:2237   */\n      0x00\n        /* \"#utility.yul\":2233:2234   */\n      dup1\n        /* \"#utility.yul\":2226:2238   */\n      revert\n        /* \"#utility.yul\":2204:2240   */\n    tag_134:\n      pop\n        /* \"#utility.yul\":2259:2311   */\n      tag_135\n        /* \"#utility.yul\":2303:2310   */\n      dup7\n        /* \"#utility.yul\":2292:2300   */\n      dup3\n        /* \"#utility.yul\":2281:2290   */\n      dup8\n        /* \"#utility.yul\":2277:2301   */\n      add\n        /* \"#utility.yul\":2259:2311   */\n      tag_110\n      jump\t// in\n    tag_135:\n        /* \"#utility.yul\":2249:2311   */\n      swap3\n      pop\n      pop\n        /* \"#utility.yul\":2358:2360   */\n      0x40\n        /* \"#utility.yul\":2347:2356   */\n      dup5\n        /* \"#utility.yul\":2343:2361   */\n      add\n        /* \"#utility.yul\":2330:2362   */\n      calldataload\n        /* \"#utility.yul\":2320:2362   */\n      swap1\n      pop\n        /* \"#utility.yul\":1757:2368   */\n      swap3\n      pop\n      swap3\n      pop\n      swap3\n      jump\t// out\n        /* \"#utility.yul\":2373:2593   */\n    tag_23:\n        /* \"#utility.yul\":2522:2524   */\n      0x20\n        /* \"#utility.yul\":2511:2520   */\n      dup2\n        /* \"#utility.yul\":2504:2525   */\n      mstore\n        /* \"#utility.yul\":2485:2489   */\n      0x00\n        /* \"#utility.yul\":2542:2587   */\n      tag_137\n        /* \"#utility.yul\":2583:2585   */\n      0x20\n        /* \"#utility.yul\":2572:2581   */\n      dup4\n        /* \"#utility.yul\":2568:2586   */\n      add\n        /* \"#utility.yul\":2560:2566   */\n      dup5\n        /* \"#utility.yul\":2542:2587   */\n      tag_108\n      jump\t// in\n    tag_137:\n        /* \"#utility.yul\":2534:2587   */\n      swap4\n        /* \"#utility.yul\":2373:2593   */\n      swap3\n      pop\n      pop\n      pop\n      jump\t// out\n        /* \"#utility.yul\":2598:2884   */\n    tag_29:\n        /* \"#utility.yul\":2657:2663   */\n      0x00\n        /* \"#utility.yul\":2710:2712   */\n      0x20\n        /* \"#utility.yul\":2698:2707   */\n      dup3\n        /* \"#utility.yul\":2689:2696   */\n      dup5\n        /* \"#utility.yul\":2685:2708   */\n      sub\n        /* \"#utility.yul\":2681:2713   */\n      slt\n        /* \"#utility.yul\":2678:2730   */\n      iszero\n      tag_139\n      jumpi\n        /* \"#utility.yul\":2726:2727   */\n      0x00\n        /* \"#utility.yul\":2723:2724   */\n      dup1\n        /* \"#utility.yul\":2716:2728   */\n      revert\n        /* \"#utility.yul\":2678:2730   */\n    tag_139:\n        /* \"#utility.yul\":2752:2775   */\n      dup2\n      calldataload\n      sub(shl(0xa0, 0x01), 0x01)\n        /* \"#utility.yul\":2804:2835   */\n      dup2\n      and\n        /* \"#utility.yul\":2794:2836   */\n      dup2\n      eq\n        /* \"#utility.yul\":2784:2854   */\n      tag_137\n      jumpi\n        /* \"#utility.yul\":2850:2851   */\n      0x00\n        /* \"#utility.yul\":2847:2848   */\n      dup1\n        /* \"#utility.yul\":2840:2852   */\n      revert\n        /* \"#utility.yul\":2889:3416   */\n    tag_32:\n        /* \"#utility.yul\":3142:3148   */\n      dup5\n        /* \"#utility.yul\":3131:3140   */\n      dup2\n        /* \"#utility.yul\":3124:3149   */\n      mstore\n        /* \"#utility.yul\":3185:3188   */\n      0x80\n        /* \"#utility.yul\":3180:3182   */\n      0x20\n        /* \"#utility.yul\":3169:3178   */\n      dup3\n        /* \"#utility.yul\":3165:3183   */\n      add\n        /* \"#utility.yul\":3158:3189   */\n      mstore\n        /* \"#utility.yul\":3105:3109   */\n      0x00\n        /* \"#utility.yul\":3212:3258   */\n      tag_142\n        /* \"#utility.yul\":3253:3256   */\n      0x80\n        /* \"#utility.yul\":3242:3251   */\n      dup4\n        /* \"#utility.yul\":3238:3257   */\n      add\n        /* \"#utility.yul\":3230:3236   */\n      dup7\n        /* \"#utility.yul\":3212:3258   */\n      tag_108\n      jump\t// in\n    tag_142:\n        /* \"#utility.yul\":3306:3315   */\n      dup3\n        /* \"#utility.yul\":3298:3304   */\n      dup2\n        /* \"#utility.yul\":3294:3316   */\n      sub\n        /* \"#utility.yul\":3289:3291   */\n      0x40\n        /* \"#utility.yul\":3278:3287   */\n      dup5\n        /* \"#utility.yul\":3274:3292   */\n      add\n        /* \"#utility.yul\":3267:3317   */\n      mstore\n        /* \"#utility.yul\":3334:3367   */\n      tag_143\n        /* \"#utility.yul\":3360:3366   */\n      dup2\n        /* \"#utility.yul\":3352:3358   */\n      dup7\n        /* \"#utility.yul\":3334:3367   */\n      tag_108\n      jump\t// in\n    tag_143:\n        /* \"#utility.yul\":3326:3367   */\n      swap2\n      pop\n      pop\n        /* \"#utility.yul\":3403:3409   */\n      dup3\n        /* \"#utility.yul\":3398:3400   */\n      0x60\n        /* \"#utility.yul\":3387:3396   */\n      dup4\n        /* \"#utility.yul\":3383:3401   */\n      add\n        /* \"#utility.yul\":3376:3410   */\n      mstore\n        /* \"#utility.yul\":2889:3416   */\n      swap6\n      swap5\n      pop\n      pop\n      pop\n      pop\n      pop\n      jump\t// out\n        /* \"#utility.yul\":3421:3601   */\n    tag_41:\n        /* \"#utility.yul\":3480:3486   */\n      0x00\n        /* \"#utility.yul\":3533:3535   */\n      0x20\n        /* \"#utility.yul\":3521:3530   */\n      dup3\n        /* \"#utility.yul\":3512:3519   */\n      dup5\n        /* \"#utility.yul\":3508:3531   */\n      sub\n        /* \"#utility.yul\":3504:3536   */\n      slt\n        /* \"#utility.yul\":3501:3553   */\n      iszero\n      tag_145\n      jumpi\n        /* \"#utility.yul\":3549:3550   */\n      0x00\n        /* \"#utility.yul\":3546:3547   */\n      dup1\n        /* \"#utility.yul\":3539:3551   */\n      revert\n        /* \"#utility.yul\":3501:3553   */\n    tag_145:\n      pop\n        /* \"#utility.yul\":3572:3595   */\n      calldataload\n      swap2\n        /* \"#utility.yul\":3421:3601   */\n      swap1\n      pop\n      jump\t// out\n        /* \"#utility.yul\":3606:3986   */\n    tag_46:\n        /* \"#utility.yul\":3685:3686   */\n      0x01\n        /* \"#utility.yul\":3681:3693   */\n      dup2\n      dup2\n      shr\n      swap1\n        /* \"#utility.yul\":3728:3740   */\n      dup3\n      and\n      dup1\n        /* \"#utility.yul\":3749:3810   */\n      tag_147\n      jumpi\n        /* \"#utility.yul\":3803:3807   */\n      0x7f\n        /* \"#utility.yul\":3795:3801   */\n      dup3\n        /* \"#utility.yul\":3791:3808   */\n      and\n        /* \"#utility.yul\":3781:3808   */\n      swap2\n      pop\n        /* \"#utility.yul\":3749:3810   */\n    tag_147:\n        /* \"#utility.yul\":3856:3858   */\n      0x20\n        /* \"#utility.yul\":3848:3854   */\n      dup3\n        /* \"#utility.yul\":3845:3859   */\n      lt\n        /* \"#utility.yul\":3825:3843   */\n      dup2\n        /* \"#utility.yul\":3822:3860   */\n      sub\n        /* \"#utility.yul\":3819:3980   */\n      tag_148\n      jumpi\n        /* \"#utility.yul\":3902:3912   */\n      0x4e487b71\n        /* \"#utility.yul\":3897:3900   */\n      0xe0\n        /* \"#utility.yul\":3893:3913   */\n      shl\n        /* \"#utility.yul\":3890:3891   */\n      0x00\n        /* \"#utility.yul\":3883:3914   */\n      mstore\n        /* \"#utility.yul\":3937:3941   */\n      0x22\n        /* \"#utility.yul\":3934:3935   */\n      0x04\n        /* \"#utility.yul\":3927:3942   */\n      mstore\n        /* \"#utility.yul\":3965:3969   */\n      0x24\n        /* \"#utility.yul\":3962:3963   */\n      0x00\n        /* \"#utility.yul\":3955:3970   */\n      revert\n        /* \"#utility.yul\":3819:3980   */\n    tag_148:\n      pop\n        /* \"#utility.yul\":3606:3986   */\n      swap2\n      swap1\n      pop\n      jump\t// out\n        /* \"#utility.yul\":4117:4662   */\n    tag_112:\n        /* \"#utility.yul\":4219:4221   */\n      0x1f\n        /* \"#utility.yul\":4214:4217   */\n      dup3\n        /* \"#utility.yul\":4211:4222   */\n      gt\n        /* \"#utility.yul\":4208:4656   */\n      iszero\n      tag_151\n      jumpi\n        /* \"#utility.yul\":4255:4256   */\n      0x00\n        /* \"#utility.yul\":4280:4285   */\n      dup2\n        /* \"#utility.yul\":4276:4278   */\n      dup2\n        /* \"#utility.yul\":4269:4286   */\n      mstore\n        /* \"#utility.yul\":4325:4329   */\n      0x20\n        /* \"#utility.yul\":4321:4323   */\n      dup2\n        /* \"#utility.yul\":4311:4330   */\n      keccak256\n        /* \"#utility.yul\":4395:4397   */\n      0x1f\n        /* \"#utility.yul\":4383:4393   */\n      dup6\n        /* \"#utility.yul\":4379:4398   */\n      add\n        /* \"#utility.yul\":4376:4377   */\n      0x05\n        /* \"#utility.yul\":4372:4399   */\n      shr\n        /* \"#utility.yul\":4366:4370   */\n      dup2\n        /* \"#utility.yul\":4362:4400   */\n      add\n        /* \"#utility.yul\":4431:4435   */\n      0x20\n        /* \"#utility.yul\":4419:4429   */\n      dup7\n        /* \"#utility.yul\":4416:4436   */\n      lt\n        /* \"#utility.yul\":4413:4460   */\n      iszero\n      tag_152\n      jumpi\n      pop\n        /* \"#utility.yul\":4454:4458   */\n      dup1\n        /* \"#utility.yul\":4413:4460   */\n    tag_152:\n        /* \"#utility.yul\":4509:4511   */\n      0x1f\n        /* \"#utility.yul\":4504:4507   */\n      dup6\n        /* \"#utility.yul\":4500:4512   */\n      add\n        /* \"#utility.yul\":4497:4498   */\n      0x05\n        /* \"#utility.yul\":4493:4513   */\n      shr\n        /* \"#utility.yul\":4487:4491   */\n      dup3\n        /* \"#utility.yul\":4483:4514   */\n      add\n        /* \"#utility.yul\":4473:4514   */\n      swap2\n      pop\n        /* \"#utility.yul\":4564:4646   */\n    tag_153:\n        /* \"#utility.yul\":4582:4584   */\n      dup2\n        /* \"#utility.yul\":4575:4580   */\n      dup2\n        /* \"#utility.yul\":4572:4585   */\n      lt\n        /* \"#utility.yul\":4564:4646   */\n      iszero\n      tag_155\n      jumpi\n        /* \"#utility.yul\":4627:4644   */\n      dup3\n      dup2\n      sstore\n        /* \"#utility.yul\":4608:4609   */\n      0x01\n        /* \"#utility.yul\":4597:4610   */\n      add\n        /* \"#utility.yul\":4564:4646   */\n      jump(tag_153)\n    tag_155:\n        /* \"#utility.yul\":4568:4571   */\n      pop\n      pop\n      pop\n        /* \"#utility.yul\":4208:4656   */\n    tag_151:\n        /* \"#utility.yul\":4117:4662   */\n      pop\n      pop\n      pop\n      jump\t// out\n        /* \"#utility.yul\":4838:6190   */\n    tag_58:\n        /* \"#utility.yul\":4964:4967   */\n      dup2\n        /* \"#utility.yul\":4958:4968   */\n      mload\n        /* \"#utility.yul\":4991:5009   */\n      0xffffffffffffffff\n        /* \"#utility.yul\":4983:4989   */\n      dup2\n        /* \"#utility.yul\":4980:5010   */\n      gt\n        /* \"#utility.yul\":4977:5033   */\n      iszero\n      tag_159\n      jumpi\n        /* \"#utility.yul\":5013:5031   */\n      tag_159\n      tag_109\n      jump\t// in\n    tag_159:\n        /* \"#utility.yul\":5042:5139   */\n      tag_160\n        /* \"#utility.yul\":5132:5138   */\n      dup2\n        /* \"#utility.yul\":5092:5130   */\n      tag_161\n        /* \"#utility.yul\":5124:5128   */\n      dup5\n        /* \"#utility.yul\":5118:5129   */\n      sload\n        /* \"#utility.yul\":5092:5130   */\n      tag_46\n      jump\t// in\n    tag_161:\n        /* \"#utility.yul\":5086:5090   */\n      dup5\n        /* \"#utility.yul\":5042:5139   */\n      tag_112\n      jump\t// in\n    tag_160:\n        /* \"#utility.yul\":5194:5198   */\n      0x20\n      dup1\n        /* \"#utility.yul\":5258:5260   */\n      0x1f\n        /* \"#utility.yul\":5247:5261   */\n      dup4\n      gt\n        /* \"#utility.yul\":5275:5276   */\n      0x01\n        /* \"#utility.yul\":5270:5933   */\n      dup2\n      eq\n      tag_163\n      jumpi\n        /* \"#utility.yul\":5977:5978   */\n      0x00\n        /* \"#utility.yul\":5994:6000   */\n      dup5\n        /* \"#utility.yul\":5991:6080   */\n      iszero\n      tag_164\n      jumpi\n      pop\n        /* \"#utility.yul\":6046:6065   */\n      dup6\n      dup4\n      add\n        /* \"#utility.yul\":6040:6066   */\n      mload\n        /* \"#utility.yul\":5991:6080   */\n    tag_164:\n      not(0x00)\n        /* \"#utility.yul\":4795:4796   */\n      0x03\n        /* \"#utility.yul\":4791:4802   */\n      dup7\n      swap1\n      shl\n        /* \"#utility.yul\":4787:4811   */\n      shr\n        /* \"#utility.yul\":4783:4812   */\n      not\n        /* \"#utility.yul\":4773:4813   */\n      and\n        /* \"#utility.yul\":4819:4820   */\n      0x01\n        /* \"#utility.yul\":4815:4826   */\n      dup6\n      swap1\n      shl\n        /* \"#utility.yul\":4770:4827   */\n      or\n        /* \"#utility.yul\":6093:6174   */\n      dup6\n      sstore\n        /* \"#utility.yul\":5240:6184   */\n      jump(tag_155)\n        /* \"#utility.yul\":5270:5933   */\n    tag_163:\n        /* \"#utility.yul\":4064:4065   */\n      0x00\n        /* \"#utility.yul\":4057:4071   */\n      dup6\n      dup2\n      mstore\n        /* \"#utility.yul\":4101:4105   */\n      0x20\n        /* \"#utility.yul\":4088:4106   */\n      dup2\n      keccak256\n      not(0x1f)\n        /* \"#utility.yul\":5306:5326   */\n      dup7\n      and\n      swap2\n        /* \"#utility.yul\":5424:5660   */\n    tag_167:\n        /* \"#utility.yul\":5438:5445   */\n      dup3\n        /* \"#utility.yul\":5435:5436   */\n      dup2\n        /* \"#utility.yul\":5432:5446   */\n      lt\n        /* \"#utility.yul\":5424:5660   */\n      iszero\n      tag_169\n      jumpi\n        /* \"#utility.yul\":5527:5546   */\n      dup9\n      dup7\n      add\n        /* \"#utility.yul\":5521:5547   */\n      mload\n        /* \"#utility.yul\":5506:5548   */\n      dup3\n      sstore\n        /* \"#utility.yul\":5619:5646   */\n      swap5\n      dup5\n      add\n      swap5\n        /* \"#utility.yul\":5587:5588   */\n      0x01\n        /* \"#utility.yul\":5575:5589   */\n      swap1\n      swap2\n      add\n      swap1\n        /* \"#utility.yul\":5454:5473   */\n      dup5\n      add\n        /* \"#utility.yul\":5424:5660   */\n      jump(tag_167)\n    tag_169:\n        /* \"#utility.yul\":5428:5431   */\n      pop\n        /* \"#utility.yul\":5688:5694   */\n      dup6\n        /* \"#utility.yul\":5679:5686   */\n      dup3\n        /* \"#utility.yul\":5676:5695   */\n      lt\n        /* \"#utility.yul\":5673:5874   */\n      iszero\n      tag_170\n      jumpi\n        /* \"#utility.yul\":5749:5768   */\n      dup8\n      dup6\n      add\n        /* \"#utility.yul\":5743:5769   */\n      mload\n      not(0x00)\n        /* \"#utility.yul\":5832:5833   */\n      0x03\n        /* \"#utility.yul\":5828:5842   */\n      dup9\n      swap1\n      shl\n        /* \"#utility.yul\":5844:5847   */\n      0xf8\n        /* \"#utility.yul\":5824:5848   */\n      and\n        /* \"#utility.yul\":5820:5857   */\n      shr\n        /* \"#utility.yul\":5816:5858   */\n      not\n        /* \"#utility.yul\":5801:5859   */\n      and\n        /* \"#utility.yul\":5786:5860   */\n      dup2\n      sstore\n        /* \"#utility.yul\":5673:5874   */\n    tag_170:\n      pop\n      pop\n      pop\n      pop\n      pop\n        /* \"#utility.yul\":5920:5921   */\n      0x01\n        /* \"#utility.yul\":5904:5918   */\n      swap1\n      dup2\n      shl\n        /* \"#utility.yul\":5900:5922   */\n      add\n        /* \"#utility.yul\":5887:5923   */\n      swap1\n      sstore\n      pop\n        /* \"#utility.yul\":4838:6190   */\n      jump\t// out\n        /* \"#utility.yul\":6195:6951   */\n    tag_61:\n        /* \"#utility.yul\":6521:6524   */\n      0x80\n        /* \"#utility.yul\":6510:6519   */\n      dup2\n        /* \"#utility.yul\":6503:6525   */\n      mstore\n        /* \"#utility.yul\":6562:6564   */\n      0x25\n        /* \"#utility.yul\":6556:6559   */\n      0x80\n        /* \"#utility.yul\":6545:6554   */\n      dup3\n        /* \"#utility.yul\":6541:6560   */\n      add\n        /* \"#utility.yul\":6534:6565   */\n      mstore\n        /* \"#utility.yul\":6602:6636   */\n      0x596f752068617665206970646174656420796f7572206661766f757269746520\n        /* \"#utility.yul\":6596:6599   */\n      0xa0\n        /* \"#utility.yul\":6585:6594   */\n      dup3\n        /* \"#utility.yul\":6581:6600   */\n      add\n        /* \"#utility.yul\":6574:6637   */\n      mstore\n      shl(0xd8, 0x616c62756d)\n        /* \"#utility.yul\":6668:6671   */\n      0xc0\n        /* \"#utility.yul\":6657:6666   */\n      dup3\n        /* \"#utility.yul\":6653:6672   */\n      add\n        /* \"#utility.yul\":6646:6682   */\n      mstore\n        /* \"#utility.yul\":6720:6723   */\n      0xe0\n        /* \"#utility.yul\":6713:6717   */\n      0x20\n        /* \"#utility.yul\":6702:6711   */\n      dup3\n        /* \"#utility.yul\":6698:6718   */\n      add\n        /* \"#utility.yul\":6691:6724   */\n      mstore\n        /* \"#utility.yul\":6484:6488   */\n      0x00\n        /* \"#utility.yul\":6747:6793   */\n      tag_172\n        /* \"#utility.yul\":6788:6791   */\n      0xe0\n        /* \"#utility.yul\":6777:6786   */\n      dup4\n        /* \"#utility.yul\":6773:6792   */\n      add\n        /* \"#utility.yul\":6765:6771   */\n      dup7\n        /* \"#utility.yul\":6747:6793   */\n      tag_108\n      jump\t// in\n    tag_172:\n        /* \"#utility.yul\":6841:6850   */\n      dup3\n        /* \"#utility.yul\":6833:6839   */\n      dup2\n        /* \"#utility.yul\":6829:6851   */\n      sub\n        /* \"#utility.yul\":6824:6826   */\n      0x40\n        /* \"#utility.yul\":6813:6822   */\n      dup5\n        /* \"#utility.yul\":6809:6827   */\n      add\n        /* \"#utility.yul\":6802:6852   */\n      mstore\n        /* \"#utility.yul\":6869:6902   */\n      tag_173\n        /* \"#utility.yul\":6895:6901   */\n      dup2\n        /* \"#utility.yul\":6887:6893   */\n      dup7\n        /* \"#utility.yul\":6869:6902   */\n      tag_108\n      jump\t// in\n    tag_173:\n        /* \"#utility.yul\":6861:6902   */\n      swap2\n      pop\n      pop\n        /* \"#utility.yul\":6938:6944   */\n      dup3\n        /* \"#utility.yul\":6933:6935   */\n      0x60\n        /* \"#utility.yul\":6922:6931   */\n      dup4\n        /* \"#utility.yul\":6918:6936   */\n      add\n        /* \"#utility.yul\":6911:6945   */\n      mstore\n        /* \"#utility.yul\":6195:6951   */\n      swap5\n      swap4\n      pop\n      pop\n      pop\n      pop\n      jump\t// out\n        /* \"#utility.yul\":6956:7714   */\n    tag_87:\n        /* \"#utility.yul\":7282:7285   */\n      0x80\n        /* \"#utility.yul\":7271:7280   */\n      dup2\n        /* \"#utility.yul\":7264:7286   */\n      mstore\n        /* \"#utility.yul\":7323:7325   */\n      0x27\n        /* \"#utility.yul\":7317:7320   */\n      0x80\n        /* \"#utility.yul\":7306:7315   */\n      dup3\n        /* \"#utility.yul\":7302:7321   */\n      add\n        /* \"#utility.yul\":7295:7326   */\n      mstore\n        /* \"#utility.yul\":7363:7397   */\n      0x5468652063757272656e7420616c62756d20696e666f20686173206265656e20\n        /* \"#utility.yul\":7357:7360   */\n      0xa0\n        /* \"#utility.yul\":7346:7355   */\n      dup3\n        /* \"#utility.yul\":7342:7361   */\n      add\n        /* \"#utility.yul\":7335:7398   */\n      mstore\n      shl(0xca, 0x1d5c19185d1959)\n        /* \"#utility.yul\":7429:7432   */\n      0xc0\n        /* \"#utility.yul\":7418:7427   */\n      dup3\n        /* \"#utility.yul\":7414:7433   */\n      add\n        /* \"#utility.yul\":7407:7445   */\n      mstore\n        /* \"#utility.yul\":7483:7486   */\n      0xe0\n        /* \"#utility.yul\":7476:7480   */\n      0x20\n        /* \"#utility.yul\":7465:7474   */\n      dup3\n        /* \"#utility.yul\":7461:7481   */\n      add\n        /* \"#utility.yul\":7454:7487   */\n      mstore\n        /* \"#utility.yul\":7245:7249   */\n      0x00\n        /* \"#utility.yul\":7510:7556   */\n      tag_172\n        /* \"#utility.yul\":7551:7554   */\n      0xe0\n        /* \"#utility.yul\":7540:7549   */\n      dup4\n        /* \"#utility.yul\":7536:7555   */\n      add\n        /* \"#utility.yul\":7528:7534   */\n      dup7\n        /* \"#utility.yul\":7510:7556   */\n      tag_108\n      jump\t// in\n\n    auxdata: 0xa2646970667358221220bd6c7cf72088721b4789717da28ac69ca83587c22aa448dfebba3032523681b764736f6c63430008130033\n}\n",
				"bytecode": {
					"linkReferences": {},
					"object": "608060405234801561001057600080fd5b50600680546001600160a01b031916331790556040805180820190915260078152664e697276616e6160c81b602082015260029061004e9082610126565b5060408051808201909152600981526813995d995c935a5b9960ba1b602082015260039061007c9082610126565b50600a6004556101e5565b634e487b7160e01b600052604160045260246000fd5b600181811c908216806100b157607f821691505b6020821081036100d157634e487b7160e01b600052602260045260246000fd5b50919050565b601f82111561012157600081815260208120601f850160051c810160208610156100fe5750805b601f850160051c820191505b8181101561011d5782815560010161010a565b5050505b505050565b81516001600160401b0381111561013f5761013f610087565b6101538161014d845461009d565b846100d7565b602080601f83116001811461018857600084156101705750858301515b600019600386901b1c1916600185901b17855561011d565b600085815260208120601f198616915b828110156101b757888601518255948401946001909101908401610198565b50858210156101d55787850151600019600388901b60f8161c191681555b5050505050600190811b01905550565b610984806101f46000396000f3fe608060405234801561001057600080fd5b50600436106100885760003560e01c8063881523151161005b57806388152315146101055780638a48ca4114610128578063a680719f1461013b578063e89e6a001461014357600080fd5b80631a78f5d01461008d578063275e643b146100ad578063734e1ac3146100c257806386394b18146100fd575b600080fd5b610095610156565b6040516100a493929190610557565b60405180910390f35b6100c06100bb366004610630565b61028d565b005b6100f06040518060400160405280600f81526020016e5a65616b6973204d696368616c697360881b81525081565b6040516100a4919061069d565b61009561031d565b6101186101133660046106b7565b61034f565b6040516100a494939291906106e0565b6100c0610136366004610630565b610488565b6101186104db565b61011861015136600461071d565b6104ef565b606080600060018001600160020160016003015482805461017690610736565b80601f01602080910402602001604051908101604052809291908181526020018280546101a290610736565b80156101ef5780601f106101c4576101008083540402835291602001916101ef565b820191906000526020600020905b8154815290600101906020018083116101d257829003601f168201915b5050505050925081805461020290610736565b80601f016020809104026020016040519081016040528092919081815260200182805461022e90610736565b801561027b5780601f106102505761010080835404028352916020019161027b565b820191906000526020600020905b81548152906001019060200180831161025e57829003601f168201915b50505050509150925092509250909192565b3360009081526005602052604090206001016102a984826107bf565b503360009081526005602052604090206002016102c683826107bf565b503360009081526005602052604090819020600301829055517fb38c0081894a7afb9f5994a4a62f2a6ae817bdc9b22ad5709fbf3bdf280af1bc906103109085908590859061087f565b60405180910390a1505050565b336000908152600560205260408120600381015460018201805460609485949093600290910191839061017690610736565b6005602052600090815260409020805460018201805491929161037190610736565b80601f016020809104026020016040519081016040528092919081815260200182805461039d90610736565b80156103ea5780601f106103bf576101008083540402835291602001916103ea565b820191906000526020600020905b8154815290600101906020018083116103cd57829003601f168201915b5050505050908060020180546103ff90610736565b80601f016020809104026020016040519081016040528092919081815260200182805461042b90610736565b80156104785780601f1061044d57610100808354040283529160200191610478565b820191906000526020600020905b81548152906001019060200180831161045b57829003601f168201915b5050505050908060030154905084565b600261049484826107bf565b5060036104a183826107bf565b5060048190556040517fb38c0081894a7afb9f5994a4a62f2a6ae817bdc9b22ad5709fbf3bdf280af1bc90610310908590859085906108f7565b600180546002805491929161037190610736565b6000602081905290815260409020805460018201805491929161037190610736565b6000815180845260005b818110156105375760208185018101518683018201520161051b565b506000602082860101526020601f19601f83011685010191505092915050565b60608152600061056a6060830186610511565b828103602084015261057c8186610511565b915050826040830152949350505050565b634e487b7160e01b600052604160045260246000fd5b600082601f8301126105b457600080fd5b813567ffffffffffffffff808211156105cf576105cf61058d565b604051601f8301601f19908116603f011681019082821181831017156105f7576105f761058d565b8160405283815286602085880101111561061057600080fd5b836020870160208301376000602085830101528094505050505092915050565b60008060006060848603121561064557600080fd5b833567ffffffffffffffff8082111561065d57600080fd5b610669878388016105a3565b9450602086013591508082111561067f57600080fd5b5061068c868287016105a3565b925050604084013590509250925092565b6020815260006106b06020830184610511565b9392505050565b6000602082840312156106c957600080fd5b81356001600160a01b03811681146106b057600080fd5b8481526080602082015260006106f96080830186610511565b828103604084015261070b8186610511565b91505082606083015295945050505050565b60006020828403121561072f57600080fd5b5035919050565b600181811c9082168061074a57607f821691505b60208210810361076a57634e487b7160e01b600052602260045260246000fd5b50919050565b601f8211156107ba57600081815260208120601f850160051c810160208610156107975750805b601f850160051c820191505b818110156107b6578281556001016107a3565b5050505b505050565b815167ffffffffffffffff8111156107d9576107d961058d565b6107ed816107e78454610736565b84610770565b602080601f831160018114610822576000841561080a5750858301515b600019600386901b1c1916600185901b1785556107b6565b600085815260208120601f198616915b8281101561085157888601518255948401946001909101908401610832565b508582101561086f5787850151600019600388901b60f8161c191681555b5050505050600190811b01905550565b60808152602560808201527f596f752068617665206970646174656420796f7572206661766f75726974652060a082015264616c62756d60d81b60c082015260e0602082015260006108d460e0830186610511565b82810360408401526108e68186610511565b915050826060830152949350505050565b60808152602760808201527f5468652063757272656e7420616c62756d20696e666f20686173206265656e2060a0820152661d5c19185d195960ca1b60c082015260e0602082015260006108d460e083018661051156fea2646970667358221220bd6c7cf72088721b4789717da28ac69ca83587c22aa448dfebba3032523681b764736f6c63430008130033",
					"opcodes": "PUSH1 0x80 PUSH1 0x40 MSTORE CALLVALUE DUP1 ISZERO PUSH2 0x10 JUMPI PUSH1 0x0 DUP1 REVERT JUMPDEST POP PUSH1 0x6 DUP1 SLOAD PUSH1 0x1 PUSH1 0x1 PUSH1 0xA0 SHL SUB NOT AND CALLER OR SWAP1 SSTORE PUSH1 0x40 DUP1 MLOAD DUP1 DUP3 ADD SWAP1 SWAP2 MSTORE PUSH1 0x7 DUP2 MSTORE PUSH7 0x4E697276616E61 PUSH1 0xC8 SHL PUSH1 0x20 DUP3 ADD MSTORE PUSH1 0x2 SWAP1 PUSH2 0x4E SWAP1 DUP3 PUSH2 0x126 JUMP JUMPDEST POP PUSH1 0x40 DUP1 MLOAD DUP1 DUP3 ADD SWAP1 SWAP2 MSTORE PUSH1 0x9 DUP2 MSTORE PUSH9 0x13995D995C935A5B99 PUSH1 0xBA SHL PUSH1 0x20 DUP3 ADD MSTORE PUSH1 0x3 SWAP1 PUSH2 0x7C SWAP1 DUP3 PUSH2 0x126 JUMP JUMPDEST POP PUSH1 0xA PUSH1 0x4 SSTORE PUSH2 0x1E5 JUMP JUMPDEST PUSH4 0x4E487B71 PUSH1 0xE0 SHL PUSH1 0x0 MSTORE PUSH1 0x41 PUSH1 0x4 MSTORE PUSH1 0x24 PUSH1 0x0 REVERT JUMPDEST PUSH1 0x1 DUP2 DUP2 SHR SWAP1 DUP3 AND DUP1 PUSH2 0xB1 JUMPI PUSH1 0x7F DUP3 AND SWAP2 POP JUMPDEST PUSH1 0x20 DUP3 LT DUP2 SUB PUSH2 0xD1 JUMPI PUSH4 0x4E487B71 PUSH1 0xE0 SHL PUSH1 0x0 MSTORE PUSH1 0x22 PUSH1 0x4 MSTORE PUSH1 0x24 PUSH1 0x0 REVERT JUMPDEST POP SWAP2 SWAP1 POP JUMP JUMPDEST PUSH1 0x1F DUP3 GT ISZERO PUSH2 0x121 JUMPI PUSH1 0x0 DUP2 DUP2 MSTORE PUSH1 0x20 DUP2 KECCAK256 PUSH1 0x1F DUP6 ADD PUSH1 0x5 SHR DUP2 ADD PUSH1 0x20 DUP7 LT ISZERO PUSH2 0xFE JUMPI POP DUP1 JUMPDEST PUSH1 0x1F DUP6 ADD PUSH1 0x5 SHR DUP3 ADD SWAP2 POP JUMPDEST DUP2 DUP2 LT ISZERO PUSH2 0x11D JUMPI DUP3 DUP2 SSTORE PUSH1 0x1 ADD PUSH2 0x10A JUMP JUMPDEST POP POP POP JUMPDEST POP POP POP JUMP JUMPDEST DUP2 MLOAD PUSH1 0x1 PUSH1 0x1 PUSH1 0x40 SHL SUB DUP2 GT ISZERO PUSH2 0x13F JUMPI PUSH2 0x13F PUSH2 0x87 JUMP JUMPDEST PUSH2 0x153 DUP2 PUSH2 0x14D DUP5 SLOAD PUSH2 0x9D JUMP JUMPDEST DUP5 PUSH2 0xD7 JUMP JUMPDEST PUSH1 0x20 DUP1 PUSH1 0x1F DUP4 GT PUSH1 0x1 DUP2 EQ PUSH2 0x188 JUMPI PUSH1 0x0 DUP5 ISZERO PUSH2 0x170 JUMPI POP DUP6 DUP4 ADD MLOAD JUMPDEST PUSH1 0x0 NOT PUSH1 0x3 DUP7 SWAP1 SHL SHR NOT AND PUSH1 0x1 DUP6 SWAP1 SHL OR DUP6 SSTORE PUSH2 0x11D JUMP JUMPDEST PUSH1 0x0 DUP6 DUP2 MSTORE PUSH1 0x20 DUP2 KECCAK256 PUSH1 0x1F NOT DUP7 AND SWAP2 JUMPDEST DUP3 DUP2 LT ISZERO PUSH2 0x1B7 JUMPI DUP9 DUP7 ADD MLOAD DUP3 SSTORE SWAP5 DUP5 ADD SWAP5 PUSH1 0x1 SWAP1 SWAP2 ADD SWAP1 DUP5 ADD PUSH2 0x198 JUMP JUMPDEST POP DUP6 DUP3 LT ISZERO PUSH2 0x1D5 JUMPI DUP8 DUP6 ADD MLOAD PUSH1 0x0 NOT PUSH1 0x3 DUP9 SWAP1 SHL PUSH1 0xF8 AND SHR NOT AND DUP2 SSTORE JUMPDEST POP POP POP POP POP PUSH1 0x1 SWAP1 DUP2 SHL ADD SWAP1 SSTORE POP JUMP JUMPDEST PUSH2 0x984 DUP1 PUSH2 0x1F4 PUSH1 0x0 CODECOPY PUSH1 0x0 RETURN INVALID PUSH1 0x80 PUSH1 0x40 MSTORE CALLVALUE DUP1 ISZERO PUSH2 0x10 JUMPI PUSH1 0x0 DUP1 REVERT JUMPDEST POP PUSH1 0x4 CALLDATASIZE LT PUSH2 0x88 JUMPI PUSH1 0x0 CALLDATALOAD PUSH1 0xE0 SHR DUP1 PUSH4 0x88152315 GT PUSH2 0x5B JUMPI DUP1 PUSH4 0x88152315 EQ PUSH2 0x105 JUMPI DUP1 PUSH4 0x8A48CA41 EQ PUSH2 0x128 JUMPI DUP1 PUSH4 0xA680719F EQ PUSH2 0x13B JUMPI DUP1 PUSH4 0xE89E6A00 EQ PUSH2 0x143 JUMPI PUSH1 0x0 DUP1 REVERT JUMPDEST DUP1 PUSH4 0x1A78F5D0 EQ PUSH2 0x8D JUMPI DUP1 PUSH4 0x275E643B EQ PUSH2 0xAD JUMPI DUP1 PUSH4 0x734E1AC3 EQ PUSH2 0xC2 JUMPI DUP1 PUSH4 0x86394B18 EQ PUSH2 0xFD JUMPI JUMPDEST PUSH1 0x0 DUP1 REVERT JUMPDEST PUSH2 0x95 PUSH2 0x156 JUMP JUMPDEST PUSH1 0x40 MLOAD PUSH2 0xA4 SWAP4 SWAP3 SWAP2 SWAP1 PUSH2 0x557 JUMP JUMPDEST PUSH1 0x40 MLOAD DUP1 SWAP2 SUB SWAP1 RETURN JUMPDEST PUSH2 0xC0 PUSH2 0xBB CALLDATASIZE PUSH1 0x4 PUSH2 0x630 JUMP JUMPDEST PUSH2 0x28D JUMP JUMPDEST STOP JUMPDEST PUSH2 0xF0 PUSH1 0x40 MLOAD DUP1 PUSH1 0x40 ADD PUSH1 0x40 MSTORE DUP1 PUSH1 0xF DUP2 MSTORE PUSH1 0x20 ADD PUSH15 0x5A65616B6973204D696368616C6973 PUSH1 0x88 SHL DUP2 MSTORE POP DUP2 JUMP JUMPDEST PUSH1 0x40 MLOAD PUSH2 0xA4 SWAP2 SWAP1 PUSH2 0x69D JUMP JUMPDEST PUSH2 0x95 PUSH2 0x31D JUMP JUMPDEST PUSH2 0x118 PUSH2 0x113 CALLDATASIZE PUSH1 0x4 PUSH2 0x6B7 JUMP JUMPDEST PUSH2 0x34F JUMP JUMPDEST PUSH1 0x40 MLOAD PUSH2 0xA4 SWAP5 SWAP4 SWAP3 SWAP2 SWAP1 PUSH2 0x6E0 JUMP JUMPDEST PUSH2 0xC0 PUSH2 0x136 CALLDATASIZE PUSH1 0x4 PUSH2 0x630 JUMP JUMPDEST PUSH2 0x488 JUMP JUMPDEST PUSH2 0x118 PUSH2 0x4DB JUMP JUMPDEST PUSH2 0x118 PUSH2 0x151 CALLDATASIZE PUSH1 0x4 PUSH2 0x71D JUMP JUMPDEST PUSH2 0x4EF JUMP JUMPDEST PUSH1 0x60 DUP1 PUSH1 0x0 PUSH1 0x1 DUP1 ADD PUSH1 0x1 PUSH1 0x2 ADD PUSH1 0x1 PUSH1 0x3 ADD SLOAD DUP3 DUP1 SLOAD PUSH2 0x176 SWAP1 PUSH2 0x736 JUMP JUMPDEST DUP1 PUSH1 0x1F ADD PUSH1 0x20 DUP1 SWAP2 DIV MUL PUSH1 0x20 ADD PUSH1 0x40 MLOAD SWAP1 DUP2 ADD PUSH1 0x40 MSTORE DUP1 SWAP3 SWAP2 SWAP1 DUP2 DUP2 MSTORE PUSH1 0x20 ADD DUP3 DUP1 SLOAD PUSH2 0x1A2 SWAP1 PUSH2 0x736 JUMP JUMPDEST DUP1 ISZERO PUSH2 0x1EF JUMPI DUP1 PUSH1 0x1F LT PUSH2 0x1C4 JUMPI PUSH2 0x100 DUP1 DUP4 SLOAD DIV MUL DUP4 MSTORE SWAP2 PUSH1 0x20 ADD SWAP2 PUSH2 0x1EF JUMP JUMPDEST DUP3 ADD SWAP2 SWAP1 PUSH1 0x0 MSTORE PUSH1 0x20 PUSH1 0x0 KECCAK256 SWAP1 JUMPDEST DUP2 SLOAD DUP2 MSTORE SWAP1 PUSH1 0x1 ADD SWAP1 PUSH1 0x20 ADD DUP1 DUP4 GT PUSH2 0x1D2 JUMPI DUP3 SWAP1 SUB PUSH1 0x1F AND DUP3 ADD SWAP2 JUMPDEST POP POP POP POP POP SWAP3 POP DUP2 DUP1 SLOAD PUSH2 0x202 SWAP1 PUSH2 0x736 JUMP JUMPDEST DUP1 PUSH1 0x1F ADD PUSH1 0x20 DUP1 SWAP2 DIV MUL PUSH1 0x20 ADD PUSH1 0x40 MLOAD SWAP1 DUP2 ADD PUSH1 0x40 MSTORE DUP1 SWAP3 SWAP2 SWAP1 DUP2 DUP2 MSTORE PUSH1 0x20 ADD DUP3 DUP1 SLOAD PUSH2 0x22E SWAP1 PUSH2 0x736 JUMP JUMPDEST DUP1 ISZERO PUSH2 0x27B JUMPI DUP1 PUSH1 0x1F LT PUSH2 0x250 JUMPI PUSH2 0x100 DUP1 DUP4 SLOAD DIV MUL DUP4 MSTORE SWAP2 PUSH1 0x20 ADD SWAP2 PUSH2 0x27B JUMP JUMPDEST DUP3 ADD SWAP2 SWAP1 PUSH1 0x0 MSTORE PUSH1 0x20 PUSH1 0x0 KECCAK256 SWAP1 JUMPDEST DUP2 SLOAD DUP2 MSTORE SWAP1 PUSH1 0x1 ADD SWAP1 PUSH1 0x20 ADD DUP1 DUP4 GT PUSH2 0x25E JUMPI DUP3 SWAP1 SUB PUSH1 0x1F AND DUP3 ADD SWAP2 JUMPDEST POP POP POP POP POP SWAP2 POP SWAP3 POP SWAP3 POP SWAP3 POP SWAP1 SWAP2 SWAP3 JUMP JUMPDEST CALLER PUSH1 0x0 SWAP1 DUP2 MSTORE PUSH1 0x5 PUSH1 0x20 MSTORE PUSH1 0x40 SWAP1 KECCAK256 PUSH1 0x1 ADD PUSH2 0x2A9 DUP5 DUP3 PUSH2 0x7BF JUMP JUMPDEST POP CALLER PUSH1 0x0 SWAP1 DUP2 MSTORE PUSH1 0x5 PUSH1 0x20 MSTORE PUSH1 0x40 SWAP1 KECCAK256 PUSH1 0x2 ADD PUSH2 0x2C6 DUP4 DUP3 PUSH2 0x7BF JUMP JUMPDEST POP CALLER PUSH1 0x0 SWAP1 DUP2 MSTORE PUSH1 0x5 PUSH1 0x20 MSTORE PUSH1 0x40 SWAP1 DUP2 SWAP1 KECCAK256 PUSH1 0x3 ADD DUP3 SWAP1 SSTORE MLOAD PUSH32 0xB38C0081894A7AFB9F5994A4A62F2A6AE817BDC9B22AD5709FBF3BDF280AF1BC SWAP1 PUSH2 0x310 SWAP1 DUP6 SWAP1 DUP6 SWAP1 DUP6 SWAP1 PUSH2 0x87F JUMP JUMPDEST PUSH1 0x40 MLOAD DUP1 SWAP2 SUB SWAP1 LOG1 POP POP POP JUMP JUMPDEST CALLER PUSH1 0x0 SWAP1 DUP2 MSTORE PUSH1 0x5 PUSH1 0x20 MSTORE PUSH1 0x40 DUP2 KECCAK256 PUSH1 0x3 DUP2 ADD SLOAD PUSH1 0x1 DUP3 ADD DUP1 SLOAD PUSH1 0x60 SWAP5 DUP6 SWAP5 SWAP1 SWAP4 PUSH1 0x2 SWAP1 SWAP2 ADD SWAP2 DUP4 SWAP1 PUSH2 0x176 SWAP1 PUSH2 0x736 JUMP JUMPDEST PUSH1 0x5 PUSH1 0x20 MSTORE PUSH1 0x0 SWAP1 DUP2 MSTORE PUSH1 0x40 SWAP1 KECCAK256 DUP1 SLOAD PUSH1 0x1 DUP3 ADD DUP1 SLOAD SWAP2 SWAP3 SWAP2 PUSH2 0x371 SWAP1 PUSH2 0x736 JUMP JUMPDEST DUP1 PUSH1 0x1F ADD PUSH1 0x20 DUP1 SWAP2 DIV MUL PUSH1 0x20 ADD PUSH1 0x40 MLOAD SWAP1 DUP2 ADD PUSH1 0x40 MSTORE DUP1 SWAP3 SWAP2 SWAP1 DUP2 DUP2 MSTORE PUSH1 0x20 ADD DUP3 DUP1 SLOAD PUSH2 0x39D SWAP1 PUSH2 0x736 JUMP JUMPDEST DUP1 ISZERO PUSH2 0x3EA JUMPI DUP1 PUSH1 0x1F LT PUSH2 0x3BF JUMPI PUSH2 0x100 DUP1 DUP4 SLOAD DIV MUL DUP4 MSTORE SWAP2 PUSH1 0x20 ADD SWAP2 PUSH2 0x3EA JUMP JUMPDEST DUP3 ADD SWAP2 SWAP1 PUSH1 0x0 MSTORE PUSH1 0x20 PUSH1 0x0 KECCAK256 SWAP1 JUMPDEST DUP2 SLOAD DUP2 MSTORE SWAP1 PUSH1 0x1 ADD SWAP1 PUSH1 0x20 ADD DUP1 DUP4 GT PUSH2 0x3CD JUMPI DUP3 SWAP1 SUB PUSH1 0x1F AND DUP3 ADD SWAP2 JUMPDEST POP POP POP POP POP SWAP1 DUP1 PUSH1 0x2 ADD DUP1 SLOAD PUSH2 0x3FF SWAP1 PUSH2 0x736 JUMP JUMPDEST DUP1 PUSH1 0x1F ADD PUSH1 0x20 DUP1 SWAP2 DIV MUL PUSH1 0x20 ADD PUSH1 0x40 MLOAD SWAP1 DUP2 ADD PUSH1 0x40 MSTORE DUP1 SWAP3 SWAP2 SWAP1 DUP2 DUP2 MSTORE PUSH1 0x20 ADD DUP3 DUP1 SLOAD PUSH2 0x42B SWAP1 PUSH2 0x736 JUMP JUMPDEST DUP1 ISZERO PUSH2 0x478 JUMPI DUP1 PUSH1 0x1F LT PUSH2 0x44D JUMPI PUSH2 0x100 DUP1 DUP4 SLOAD DIV MUL DUP4 MSTORE SWAP2 PUSH1 0x20 ADD SWAP2 PUSH2 0x478 JUMP JUMPDEST DUP3 ADD SWAP2 SWAP1 PUSH1 0x0 MSTORE PUSH1 0x20 PUSH1 0x0 KECCAK256 SWAP1 JUMPDEST DUP2 SLOAD DUP2 MSTORE SWAP1 PUSH1 0x1 ADD SWAP1 PUSH1 0x20 ADD DUP1 DUP4 GT PUSH2 0x45B JUMPI DUP3 SWAP1 SUB PUSH1 0x1F AND DUP3 ADD SWAP2 JUMPDEST POP POP POP POP POP SWAP1 DUP1 PUSH1 0x3 ADD SLOAD SWAP1 POP DUP5 JUMP JUMPDEST PUSH1 0x2 PUSH2 0x494 DUP5 DUP3 PUSH2 0x7BF JUMP JUMPDEST POP PUSH1 0x3 PUSH2 0x4A1 DUP4 DUP3 PUSH2 0x7BF JUMP JUMPDEST POP PUSH1 0x4 DUP2 SWAP1 SSTORE PUSH1 0x40 MLOAD PUSH32 0xB38C0081894A7AFB9F5994A4A62F2A6AE817BDC9B22AD5709FBF3BDF280AF1BC SWAP1 PUSH2 0x310 SWAP1 DUP6 SWAP1 DUP6 SWAP1 DUP6 SWAP1 PUSH2 0x8F7 JUMP JUMPDEST PUSH1 0x1 DUP1 SLOAD PUSH1 0x2 DUP1 SLOAD SWAP2 SWAP3 SWAP2 PUSH2 0x371 SWAP1 PUSH2 0x736 JUMP JUMPDEST PUSH1 0x0 PUSH1 0x20 DUP2 SWAP1 MSTORE SWAP1 DUP2 MSTORE PUSH1 0x40 SWAP1 KECCAK256 DUP1 SLOAD PUSH1 0x1 DUP3 ADD DUP1 SLOAD SWAP2 SWAP3 SWAP2 PUSH2 0x371 SWAP1 PUSH2 0x736 JUMP JUMPDEST PUSH1 0x0 DUP2 MLOAD DUP1 DUP5 MSTORE PUSH1 0x0 JUMPDEST DUP2 DUP2 LT ISZERO PUSH2 0x537 JUMPI PUSH1 0x20 DUP2 DUP6 ADD DUP2 ADD MLOAD DUP7 DUP4 ADD DUP3 ADD MSTORE ADD PUSH2 0x51B JUMP JUMPDEST POP PUSH1 0x0 PUSH1 0x20 DUP3 DUP7 ADD ADD MSTORE PUSH1 0x20 PUSH1 0x1F NOT PUSH1 0x1F DUP4 ADD AND DUP6 ADD ADD SWAP2 POP POP SWAP3 SWAP2 POP POP JUMP JUMPDEST PUSH1 0x60 DUP2 MSTORE PUSH1 0x0 PUSH2 0x56A PUSH1 0x60 DUP4 ADD DUP7 PUSH2 0x511 JUMP JUMPDEST DUP3 DUP2 SUB PUSH1 0x20 DUP5 ADD MSTORE PUSH2 0x57C DUP2 DUP7 PUSH2 0x511 JUMP JUMPDEST SWAP2 POP POP DUP3 PUSH1 0x40 DUP4 ADD MSTORE SWAP5 SWAP4 POP POP POP POP JUMP JUMPDEST PUSH4 0x4E487B71 PUSH1 0xE0 SHL PUSH1 0x0 MSTORE PUSH1 0x41 PUSH1 0x4 MSTORE PUSH1 0x24 PUSH1 0x0 REVERT JUMPDEST PUSH1 0x0 DUP3 PUSH1 0x1F DUP4 ADD SLT PUSH2 0x5B4 JUMPI PUSH1 0x0 DUP1 REVERT JUMPDEST DUP2 CALLDATALOAD PUSH8 0xFFFFFFFFFFFFFFFF DUP1 DUP3 GT ISZERO PUSH2 0x5CF JUMPI PUSH2 0x5CF PUSH2 0x58D JUMP JUMPDEST PUSH1 0x40 MLOAD PUSH1 0x1F DUP4 ADD PUSH1 0x1F NOT SWAP1 DUP2 AND PUSH1 0x3F ADD AND DUP2 ADD SWAP1 DUP3 DUP3 GT DUP2 DUP4 LT OR ISZERO PUSH2 0x5F7 JUMPI PUSH2 0x5F7 PUSH2 0x58D JUMP JUMPDEST DUP2 PUSH1 0x40 MSTORE DUP4 DUP2 MSTORE DUP7 PUSH1 0x20 DUP6 DUP9 ADD ADD GT ISZERO PUSH2 0x610 JUMPI PUSH1 0x0 DUP1 REVERT JUMPDEST DUP4 PUSH1 0x20 DUP8 ADD PUSH1 0x20 DUP4 ADD CALLDATACOPY PUSH1 0x0 PUSH1 0x20 DUP6 DUP4 ADD ADD MSTORE DUP1 SWAP5 POP POP POP POP POP SWAP3 SWAP2 POP POP JUMP JUMPDEST PUSH1 0x0 DUP1 PUSH1 0x0 PUSH1 0x60 DUP5 DUP7 SUB SLT ISZERO PUSH2 0x645 JUMPI PUSH1 0x0 DUP1 REVERT JUMPDEST DUP4 CALLDATALOAD PUSH8 0xFFFFFFFFFFFFFFFF DUP1 DUP3 GT ISZERO PUSH2 0x65D JUMPI PUSH1 0x0 DUP1 REVERT JUMPDEST PUSH2 0x669 DUP8 DUP4 DUP9 ADD PUSH2 0x5A3 JUMP JUMPDEST SWAP5 POP PUSH1 0x20 DUP7 ADD CALLDATALOAD SWAP2 POP DUP1 DUP3 GT ISZERO PUSH2 0x67F JUMPI PUSH1 0x0 DUP1 REVERT JUMPDEST POP PUSH2 0x68C DUP7 DUP3 DUP8 ADD PUSH2 0x5A3 JUMP JUMPDEST SWAP3 POP POP PUSH1 0x40 DUP5 ADD CALLDATALOAD SWAP1 POP SWAP3 POP SWAP3 POP SWAP3 JUMP JUMPDEST PUSH1 0x20 DUP2 MSTORE PUSH1 0x0 PUSH2 0x6B0 PUSH1 0x20 DUP4 ADD DUP5 PUSH2 0x511 JUMP JUMPDEST SWAP4 SWAP3 POP POP POP JUMP JUMPDEST PUSH1 0x0 PUSH1 0x20 DUP3 DUP5 SUB SLT ISZERO PUSH2 0x6C9 JUMPI PUSH1 0x0 DUP1 REVERT JUMPDEST DUP2 CALLDATALOAD PUSH1 0x1 PUSH1 0x1 PUSH1 0xA0 SHL SUB DUP2 AND DUP2 EQ PUSH2 0x6B0 JUMPI PUSH1 0x0 DUP1 REVERT JUMPDEST DUP5 DUP2 MSTORE PUSH1 0x80 PUSH1 0x20 DUP3 ADD MSTORE PUSH1 0x0 PUSH2 0x6F9 PUSH1 0x80 DUP4 ADD DUP7 PUSH2 0x511 JUMP JUMPDEST DUP3 DUP2 SUB PUSH1 0x40 DUP5 ADD MSTORE PUSH2 0x70B DUP2 DUP7 PUSH2 0x511 JUMP JUMPDEST SWAP2 POP POP DUP3 PUSH1 0x60 DUP4 ADD MSTORE SWAP6 SWAP5 POP POP POP POP POP JUMP JUMPDEST PUSH1 0x0 PUSH1 0x20 DUP3 DUP5 SUB SLT ISZERO PUSH2 0x72F JUMPI PUSH1 0x0 DUP1 REVERT JUMPDEST POP CALLDATALOAD SWAP2 SWAP1 POP JUMP JUMPDEST PUSH1 0x1 DUP2 DUP2 SHR SWAP1 DUP3 AND DUP1 PUSH2 0x74A JUMPI PUSH1 0x7F DUP3 AND SWAP2 POP JUMPDEST PUSH1 0x20 DUP3 LT DUP2 SUB PUSH2 0x76A JUMPI PUSH4 0x4E487B71 PUSH1 0xE0 SHL PUSH1 0x0 MSTORE PUSH1 0x22 PUSH1 0x4 MSTORE PUSH1 0x24 PUSH1 0x0 REVERT JUMPDEST POP SWAP2 SWAP1 POP JUMP JUMPDEST PUSH1 0x1F DUP3 GT ISZERO PUSH2 0x7BA JUMPI PUSH1 0x0 DUP2 DUP2 MSTORE PUSH1 0x20 DUP2 KECCAK256 PUSH1 0x1F DUP6 ADD PUSH1 0x5 SHR DUP2 ADD PUSH1 0x20 DUP7 LT ISZERO PUSH2 0x797 JUMPI POP DUP1 JUMPDEST PUSH1 0x1F DUP6 ADD PUSH1 0x5 SHR DUP3 ADD SWAP2 POP JUMPDEST DUP2 DUP2 LT ISZERO PUSH2 0x7B6 JUMPI DUP3 DUP2 SSTORE PUSH1 0x1 ADD PUSH2 0x7A3 JUMP JUMPDEST POP POP POP JUMPDEST POP POP POP JUMP JUMPDEST DUP2 MLOAD PUSH8 0xFFFFFFFFFFFFFFFF DUP2 GT ISZERO PUSH2 0x7D9 JUMPI PUSH2 0x7D9 PUSH2 0x58D JUMP JUMPDEST PUSH2 0x7ED DUP2 PUSH2 0x7E7 DUP5 SLOAD PUSH2 0x736 JUMP JUMPDEST DUP5 PUSH2 0x770 JUMP JUMPDEST PUSH1 0x20 DUP1 PUSH1 0x1F DUP4 GT PUSH1 0x1 DUP2 EQ PUSH2 0x822 JUMPI PUSH1 0x0 DUP5 ISZERO PUSH2 0x80A JUMPI POP DUP6 DUP4 ADD MLOAD JUMPDEST PUSH1 0x0 NOT PUSH1 0x3 DUP7 SWAP1 SHL SHR NOT AND PUSH1 0x1 DUP6 SWAP1 SHL OR DUP6 SSTORE PUSH2 0x7B6 JUMP JUMPDEST PUSH1 0x0 DUP6 DUP2 MSTORE PUSH1 0x20 DUP2 KECCAK256 PUSH1 0x1F NOT DUP7 AND SWAP2 JUMPDEST DUP3 DUP2 LT ISZERO PUSH2 0x851 JUMPI DUP9 DUP7 ADD MLOAD DUP3 SSTORE SWAP5 DUP5 ADD SWAP5 PUSH1 0x1 SWAP1 SWAP2 ADD SWAP1 DUP5 ADD PUSH2 0x832 JUMP JUMPDEST POP DUP6 DUP3 LT ISZERO PUSH2 0x86F JUMPI DUP8 DUP6 ADD MLOAD PUSH1 0x0 NOT PUSH1 0x3 DUP9 SWAP1 SHL PUSH1 0xF8 AND SHR NOT AND DUP2 SSTORE JUMPDEST POP POP POP POP POP PUSH1 0x1 SWAP1 DUP2 SHL ADD SWAP1 SSTORE POP JUMP JUMPDEST PUSH1 0x80 DUP2 MSTORE PUSH1 0x25 PUSH1 0x80 DUP3 ADD MSTORE PUSH32 0x596F752068617665206970646174656420796F7572206661766F757269746520 PUSH1 0xA0 DUP3 ADD MSTORE PUSH5 0x616C62756D PUSH1 0xD8 SHL PUSH1 0xC0 DUP3 ADD MSTORE PUSH1 0xE0 PUSH1 0x20 DUP3 ADD MSTORE PUSH1 0x0 PUSH2 0x8D4 PUSH1 0xE0 DUP4 ADD DUP7 PUSH2 0x511 JUMP JUMPDEST DUP3 DUP2 SUB PUSH1 0x40 DUP5 ADD MSTORE PUSH2 0x8E6 DUP2 DUP7 PUSH2 0x511 JUMP JUMPDEST SWAP2 POP POP DUP3 PUSH1 0x60 DUP4 ADD MSTORE SWAP5 SWAP4 POP POP POP POP JUMP JUMPDEST PUSH1 0x80 DUP2 MSTORE PUSH1 0x27 PUSH1 0x80 DUP3 ADD MSTORE PUSH32 0x5468652063757272656E7420616C62756D20696E666F20686173206265656E20 PUSH1 0xA0 DUP3 ADD MSTORE PUSH7 0x1D5C19185D1959 PUSH1 0xCA SHL PUSH1 0xC0 DUP3 ADD MSTORE PUSH1 0xE0 PUSH1 0x20 DUP3 ADD MSTORE PUSH1 0x0 PUSH2 0x8D4 PUSH1 0xE0 DUP4 ADD DUP7 PUSH2 0x511 JUMP INVALID LOG2 PUSH5 0x6970667358 0x22 SLT KECCAK256 0xBD PUSH13 0x7CF72088721B4789717DA28AC6 SWAP13 0xA8 CALLDATALOAD DUP8 0xC2 0x2A LOG4 BASEFEE 0xDF 0xEB 0xBA ADDRESS ORIGIN MSTORE CALLDATASIZE DUP2 0xB7 PUSH5 0x736F6C6343 STOP ADDMOD SGT STOP CALLER "
				},
				"gasEstimates": {
					"creation": {
						"codeDepositCost": "487200",
						"executionCost": "infinite",
						"totalCost": "infinite"
					},
					"external": {
						"album(uint256)": "infinite",
						"contractAuthor()": "infinite",
						"currentAlbum()": "infinite",
						"getCurrentAlbum()": "infinite",
						"getUsersFavouriteAlbum()": "infinite",
						"setAlbum(string,string,uint256)": "infinite",
						"setUsersFavouriteAlbum(string,string,uint256)": "infinite",
						"userAlbums(address)": "infinite"
					}
				},
				"methodIdentifiers": {
					"album(uint256)": "e89e6a00",
					"contractAuthor()": "734e1ac3",
					"currentAlbum()": "a680719f",
					"getCurrentAlbum()": "1a78f5d0",
					"getUsersFavouriteAlbum()": "86394b18",
					"setAlbum(string,string,uint256)": "8a48ca41",
					"setUsersFavouriteAlbum(string,string,uint256)": "275e643b",
					"userAlbums(address)": "88152315"
				}
			},
			"storageLayout": {
				"storage": [
					{
						"astId": 15,
						"contract": "contracts/testContractAlbum.sol:Album",
						"label": "album",
						"offset": 0,
						"slot": "0",
						"type": "t_mapping(t_uint256,t_struct(musicAlbum)10_storage)"
					},
					{
						"astId": 18,
						"contract": "contracts/testContractAlbum.sol:Album",
						"label": "currentAlbum",
						"offset": 0,
						"slot": "1",
						"type": "t_struct(musicAlbum)10_storage"
					},
					{
						"astId": 23,
						"contract": "contracts/testContractAlbum.sol:Album",
						"label": "userAlbums",
						"offset": 0,
						"slot": "5",
						"type": "t_mapping(t_address,t_struct(musicAlbum)10_storage)"
					},
					{
						"astId": 28,
						"contract": "contracts/testContractAlbum.sol:Album",
						"label": "owner",
						"offset": 0,
						"slot": "6",
						"type": "t_address"
					}
				],
				"types": {
					"t_address": {
						"encoding": "inplace",
						"label": "address",
						"numberOfBytes": "20"
					},
					"t_mapping(t_address,t_struct(musicAlbum)10_storage)": {
						"encoding": "mapping",
						"key": "t_address",
						"label": "mapping(address => struct Album.musicAlbum)",
						"numberOfBytes": "32",
						"value": "t_struct(musicAlbum)10_storage"
					},
					"t_mapping(t_uint256,t_struct(musicAlbum)10_storage)": {
						"encoding": "mapping",
						"key": "t_uint256",
						"label": "mapping(uint256 => struct Album.musicAlbum)",
						"numberOfBytes": "32",
						"value": "t_struct(musicAlbum)10_storage"
					},
					"t_string_storage": {
						"encoding": "bytes",
						"label": "string",
						"numberOfBytes": "32"
					},
					"t_struct(musicAlbum)10_storage": {
						"encoding": "inplace",
						"label": "struct Album.musicAlbum",
						"members": [
							{
								"astId": 3,
								"contract": "contracts/testContractAlbum.sol:Album",
								"label": "id",
								"offset": 0,
								"slot": "0",
								"type": "t_uint256"
							},
							{
								"astId": 5,
								"contract": "contracts/testContractAlbum.sol:Album",
								"label": "artist",
								"offset": 0,
								"slot": "1",
								"type": "t_string_storage"
							},
							{
								"astId": 7,
								"contract": "contracts/testContractAlbum.sol:Album",
								"label": "albumTitle",
								"offset": 0,
								"slot": "2",
								"type": "t_string_storage"
							},
							{
								"astId": 9,
								"contract": "contracts/testContractAlbum.sol:Album",
								"label": "tracks",
								"offset": 0,
								"slot": "3",
								"type": "t_uint256"
							}
						],
						"numberOfBytes": "128"
					},
					"t_uint256": {
						"encoding": "inplace",
						"label": "uint256",
						"numberOfBytes": "32"
					}
				}
			},
			"userdoc": {
				"kind": "user",
				"methods": {},
				"version": 1
			}
		}
	}
}