{
	"contracts/Main.sol": {
		"Main": {
			"abi": [
				{
					"inputs": [],
					"stateMutability": "nonpayable",
					"type": "constructor"
				},
				{
					"anonymous": false,
					"inputs": [
						{
							"indexed": false,
							"internalType": "string",
							"name": "description",
							"type": "string"
						},
						{
							"indexed": false,
							"internalType": "uint256",
							"name": "id",
							"type": "uint256"
						},
						{
							"indexed": false,
							"internalType": "string",
							"name": "name",
							"type": "string"
						},
						{
							"indexed": false,
							"internalType": "enum Main.EntityType",
							"name": "entityType",
							"type": "uint8"
						}
					],
					"name": "EntityAdded",
					"type": "event"
				},
				{
					"anonymous": false,
					"inputs": [
						{
							"indexed": false,
							"internalType": "string",
							"name": "description",
							"type": "string"
						},
						{
							"indexed": false,
							"internalType": "uint256",
							"name": "id",
							"type": "uint256"
						},
						{
							"indexed": false,
							"internalType": "string",
							"name": "name",
							"type": "string"
						},
						{
							"indexed": false,
							"internalType": "enum Main.EntityType",
							"name": "entityType",
							"type": "uint8"
						}
					],
					"name": "EntityDeleted",
					"type": "event"
				},
				{
					"anonymous": false,
					"inputs": [
						{
							"indexed": false,
							"internalType": "string",
							"name": "description",
							"type": "string"
						},
						{
							"indexed": false,
							"internalType": "address",
							"name": "currentOwner",
							"type": "address"
						},
						{
							"indexed": false,
							"internalType": "address",
							"name": "newOwner",
							"type": "address"
						}
					],
					"name": "OwnerChanged",
					"type": "event"
				},
				{
					"anonymous": false,
					"inputs": [
						{
							"indexed": false,
							"internalType": "string",
							"name": "description",
							"type": "string"
						},
						{
							"indexed": true,
							"internalType": "address",
							"name": "userAddress",
							"type": "address"
						},
						{
							"indexed": false,
							"internalType": "string",
							"name": "name",
							"type": "string"
						},
						{
							"indexed": false,
							"internalType": "string",
							"name": "role",
							"type": "string"
						}
					],
					"name": "UserAdded",
					"type": "event"
				},
				{
					"anonymous": false,
					"inputs": [
						{
							"indexed": false,
							"internalType": "string",
							"name": "description",
							"type": "string"
						},
						{
							"indexed": true,
							"internalType": "address",
							"name": "userAddress",
							"type": "address"
						},
						{
							"indexed": false,
							"internalType": "string",
							"name": "name",
							"type": "string"
						},
						{
							"indexed": false,
							"internalType": "string",
							"name": "role",
							"type": "string"
						}
					],
					"name": "UserDeleted",
					"type": "event"
				},
				{
					"inputs": [
						{
							"internalType": "uint256",
							"name": "entityId",
							"type": "uint256"
						},
						{
							"internalType": "string",
							"name": "name",
							"type": "string"
						},
						{
							"internalType": "enum Main.EntityType",
							"name": "entityType",
							"type": "uint8"
						}
					],
					"name": "addEntity",
					"outputs": [],
					"stateMutability": "nonpayable",
					"type": "function"
				},
				{
					"inputs": [
						{
							"internalType": "address",
							"name": "_userAddress",
							"type": "address"
						},
						{
							"internalType": "string",
							"name": "_name",
							"type": "string"
						},
						{
							"internalType": "enum Main.Role",
							"name": "_role",
							"type": "uint8"
						}
					],
					"name": "addUser",
					"outputs": [],
					"stateMutability": "nonpayable",
					"type": "function"
				},
				{
					"inputs": [
						{
							"internalType": "address",
							"name": "newOwner",
							"type": "address"
						}
					],
					"name": "changeOwner",
					"outputs": [],
					"stateMutability": "nonpayable",
					"type": "function"
				},
				{
					"inputs": [],
					"name": "contractAuthor",
					"outputs": [
						{
							"internalType": "string",
							"name": "",
							"type": "string"
						}
					],
					"stateMutability": "view",
					"type": "function"
				},
				{
					"inputs": [
						{
							"internalType": "uint256",
							"name": "entityId",
							"type": "uint256"
						}
					],
					"name": "deleteEntity",
					"outputs": [],
					"stateMutability": "nonpayable",
					"type": "function"
				},
				{
					"inputs": [
						{
							"internalType": "address",
							"name": "_userAddress",
							"type": "address"
						}
					],
					"name": "deleteUser",
					"outputs": [],
					"stateMutability": "nonpayable",
					"type": "function"
				},
				{
					"inputs": [
						{
							"internalType": "uint256",
							"name": "",
							"type": "uint256"
						}
					],
					"name": "entities",
					"outputs": [
						{
							"internalType": "string",
							"name": "name",
							"type": "string"
						},
						{
							"internalType": "enum Main.EntityType",
							"name": "entityType",
							"type": "uint8"
						}
					],
					"stateMutability": "view",
					"type": "function"
				},
				{
					"inputs": [],
					"name": "getAllUsers",
					"outputs": [
						{
							"components": [
								{
									"internalType": "string",
									"name": "name",
									"type": "string"
								},
								{
									"internalType": "enum Main.Role",
									"name": "role",
									"type": "uint8"
								}
							],
							"internalType": "struct Main.User[]",
							"name": "",
							"type": "tuple[]"
						}
					],
					"stateMutability": "view",
					"type": "function"
				},
				{
					"inputs": [
						{
							"internalType": "enum Main.EntityType",
							"name": "entityType",
							"type": "uint8"
						}
					],
					"name": "getEntitiesByType",
					"outputs": [
						{
							"internalType": "uint256[]",
							"name": "",
							"type": "uint256[]"
						}
					],
					"stateMutability": "view",
					"type": "function"
				},
				{
					"inputs": [
						{
							"internalType": "uint256",
							"name": "entityId",
							"type": "uint256"
						}
					],
					"name": "getEntityById",
					"outputs": [
						{
							"internalType": "string",
							"name": "name",
							"type": "string"
						},
						{
							"internalType": "enum Main.EntityType",
							"name": "entityType",
							"type": "uint8"
						}
					],
					"stateMutability": "view",
					"type": "function"
				},
				{
					"inputs": [
						{
							"internalType": "string",
							"name": "name",
							"type": "string"
						}
					],
					"name": "getEntityByName",
					"outputs": [
						{
							"internalType": "uint256",
							"name": "entityId",
							"type": "uint256"
						},
						{
							"internalType": "enum Main.EntityType",
							"name": "entityType",
							"type": "uint8"
						}
					],
					"stateMutability": "view",
					"type": "function"
				},
				{
					"inputs": [
						{
							"internalType": "address",
							"name": "_userAddress",
							"type": "address"
						}
					],
					"name": "getUserByAddress",
					"outputs": [
						{
							"components": [
								{
									"internalType": "string",
									"name": "name",
									"type": "string"
								},
								{
									"internalType": "enum Main.Role",
									"name": "role",
									"type": "uint8"
								}
							],
							"internalType": "struct Main.User",
							"name": "",
							"type": "tuple"
						}
					],
					"stateMutability": "view",
					"type": "function"
				},
				{
					"inputs": [],
					"name": "owner",
					"outputs": [
						{
							"internalType": "address",
							"name": "",
							"type": "address"
						}
					],
					"stateMutability": "view",
					"type": "function"
				},
				{
					"inputs": [
						{
							"internalType": "address",
							"name": "_userAddress",
							"type": "address"
						},
						{
							"internalType": "enum Main.Role",
							"name": "_role",
							"type": "uint8"
						}
					],
					"name": "setUserRole",
					"outputs": [],
					"stateMutability": "nonpayable",
					"type": "function"
				},
				{
					"inputs": [
						{
							"internalType": "uint256",
							"name": "",
							"type": "uint256"
						}
					],
					"name": "userAddresses",
					"outputs": [
						{
							"internalType": "address",
							"name": "",
							"type": "address"
						}
					],
					"stateMutability": "view",
					"type": "function"
				},
				{
					"inputs": [
						{
							"internalType": "address",
							"name": "",
							"type": "address"
						}
					],
					"name": "users",
					"outputs": [
						{
							"internalType": "string",
							"name": "name",
							"type": "string"
						},
						{
							"internalType": "enum Main.Role",
							"name": "role",
							"type": "uint8"
						}
					],
					"stateMutability": "view",
					"type": "function"
				}
			],
			"devdoc": {
				"kind": "dev",
				"methods": {},
				"version": 1
			},
			"evm": {
				"assembly": "    /* \"contracts/Main.sol\":66:9238  contract Main{... */\n  mstore(0x40, 0x80)\n    /* \"contracts/Main.sol\":150:191  string public contractAuthor = 'MGT TEAM' */\n  mload(0x40)\n  dup1\n  0x40\n  add\n  0x40\n  mstore\n  dup1\n  0x08\n  dup2\n  mstore\n  0x20\n  add\n  0x4d4754205445414d000000000000000000000000000000000000000000000000\n  dup2\n  mstore\n  pop\n  0x01\n  swap1\n  dup2\n  tag_1\n  swap2\n  swap1\n  tag_2\n  jump\t// in\ntag_1:\n  pop\n    /* \"contracts/Main.sol\":2788:3052  constructor(){... */\n  callvalue\n  dup1\n  iszero\n  tag_3\n  jumpi\n  0x00\n  dup1\n  revert\ntag_3:\n  pop\n    /* \"contracts/Main.sol\":2820:2830  msg.sender */\n  caller\n    /* \"contracts/Main.sol\":2812:2817  owner */\n  0x00\n  dup1\n    /* \"contracts/Main.sol\":2812:2830  owner = msg.sender */\n  0x0100\n  exp\n  dup2\n  sload\n  dup2\n  0xffffffffffffffffffffffffffffffffffffffff\n  mul\n  not\n  and\n  swap1\n  dup4\n  0xffffffffffffffffffffffffffffffffffffffff\n  and\n  mul\n  or\n  swap1\n  sstore\n  pop\n    /* \"contracts/Main.sol\":2948:2979  User(contractAuthor,Role.Admin) */\n  mload(0x40)\n  dup1\n  0x40\n  add\n  0x40\n  mstore\n  dup1\n    /* \"contracts/Main.sol\":2953:2967  contractAuthor */\n  0x01\n    /* \"contracts/Main.sol\":2948:2979  User(contractAuthor,Role.Admin) */\n  dup1\n  sload\n  tag_6\n  swap1\n  tag_7\n  jump\t// in\ntag_6:\n  dup1\n  0x1f\n  add\n  0x20\n  dup1\n  swap2\n  div\n  mul\n  0x20\n  add\n  mload(0x40)\n  swap1\n  dup2\n  add\n  0x40\n  mstore\n  dup1\n  swap3\n  swap2\n  swap1\n  dup2\n  dup2\n  mstore\n  0x20\n  add\n  dup3\n  dup1\n  sload\n  tag_8\n  swap1\n  tag_7\n  jump\t// in\ntag_8:\n  dup1\n  iszero\n  tag_9\n  jumpi\n  dup1\n  0x1f\n  lt\n  tag_10\n  jumpi\n  0x0100\n  dup1\n  dup4\n  sload\n  div\n  mul\n  dup4\n  mstore\n  swap2\n  0x20\n  add\n  swap2\n  jump(tag_9)\ntag_10:\n  dup3\n  add\n  swap2\n  swap1\n  0x00\n  mstore\n  keccak256(0x00, 0x20)\n  swap1\ntag_11:\n  dup2\n  sload\n  dup2\n  mstore\n  swap1\n  0x01\n  add\n  swap1\n  0x20\n  add\n  dup1\n  dup4\n  gt\n  tag_11\n  jumpi\n  dup3\n  swap1\n  sub\n  0x1f\n  and\n  dup3\n  add\n  swap2\ntag_9:\n  pop\n  pop\n  pop\n  pop\n  pop\n  dup2\n  mstore\n  0x20\n  add\n    /* \"contracts/Main.sol\":2968:2978  Role.Admin */\n  0x01\n    /* \"contracts/Main.sol\":2948:2979  User(contractAuthor,Role.Admin) */\n  0x04\n  dup2\n  gt\n  iszero\n  tag_12\n  jumpi\n  tag_13\n  tag_14\n  jump\t// in\ntag_13:\ntag_12:\n  dup2\n  mstore\n  pop\n    /* \"contracts/Main.sol\":2933:2938  users */\n  0x02\n    /* \"contracts/Main.sol\":2933:2945  users[owner] */\n  0x00\n    /* \"contracts/Main.sol\":2939:2944  owner */\n  dup1\n  0x00\n  swap1\n  sload\n  swap1\n  0x0100\n  exp\n  swap1\n  div\n  0xffffffffffffffffffffffffffffffffffffffff\n  and\n    /* \"contracts/Main.sol\":2933:2945  users[owner] */\n  0xffffffffffffffffffffffffffffffffffffffff\n  and\n  0xffffffffffffffffffffffffffffffffffffffff\n  and\n  dup2\n  mstore\n  0x20\n  add\n  swap1\n  dup2\n  mstore\n  0x20\n  add\n  0x00\n  keccak256\n    /* \"contracts/Main.sol\":2933:2979  users[owner] = User(contractAuthor,Role.Admin) */\n  0x00\n  dup3\n  add\n  mload\n  dup2\n  0x00\n  add\n  swap1\n  dup2\n  tag_15\n  swap2\n  swap1\n  tag_2\n  jump\t// in\ntag_15:\n  pop\n  0x20\n  dup3\n  add\n  mload\n  dup2\n  0x01\n  add\n  exp(0x0100, 0x00)\n  dup2\n  sload\n  dup2\n  0xff\n  mul\n  not\n  and\n  swap1\n  dup4\n  0x04\n  dup2\n  gt\n  iszero\n  tag_16\n  jumpi\n  tag_17\n  tag_14\n  jump\t// in\ntag_17:\ntag_16:\n  mul\n  or\n  swap1\n  sstore\n  pop\n  swap1\n  pop\n  pop\n    /* \"contracts/Main.sol\":2990:3003  userAddresses */\n  0x03\n    /* \"contracts/Main.sol\":3009:3014  owner */\n  0x00\n  dup1\n  sload\n  swap1\n  0x0100\n  exp\n  swap1\n  div\n  0xffffffffffffffffffffffffffffffffffffffff\n  and\n    /* \"contracts/Main.sol\":2990:3015  userAddresses.push(owner) */\n  swap1\n  dup1\n  0x01\n  dup2\n  sload\n  add\n  dup1\n  dup3\n  sstore\n  dup1\n  swap2\n  pop\n  pop\n  0x01\n  swap1\n  sub\n  swap1\n  0x00\n  mstore\n  keccak256(0x00, 0x20)\n  add\n  0x00\n  swap1\n  swap2\n  swap1\n  swap2\n  swap1\n  swap2\n  0x0100\n  exp\n  dup2\n  sload\n  dup2\n  0xffffffffffffffffffffffffffffffffffffffff\n  mul\n  not\n  and\n  swap1\n  dup4\n  0xffffffffffffffffffffffffffffffffffffffff\n  and\n  mul\n  or\n  swap1\n  sstore\n  pop\n    /* \"contracts/Main.sol\":66:9238  contract Main{... */\n  jump(tag_19)\n    /* \"#utility.yul\":7:106   */\ntag_20:\n    /* \"#utility.yul\":59:65   */\n  0x00\n    /* \"#utility.yul\":93:98   */\n  dup2\n    /* \"#utility.yul\":87:99   */\n  mload\n    /* \"#utility.yul\":77:99   */\n  swap1\n  pop\n    /* \"#utility.yul\":7:106   */\n  swap2\n  swap1\n  pop\n  jump\t// out\n    /* \"#utility.yul\":112:292   */\ntag_21:\n    /* \"#utility.yul\":160:237   */\n  0x4e487b7100000000000000000000000000000000000000000000000000000000\n    /* \"#utility.yul\":157:158   */\n  0x00\n    /* \"#utility.yul\":150:238   */\n  mstore\n    /* \"#utility.yul\":257:261   */\n  0x41\n    /* \"#utility.yul\":254:255   */\n  0x04\n    /* \"#utility.yul\":247:262   */\n  mstore\n    /* \"#utility.yul\":281:285   */\n  0x24\n    /* \"#utility.yul\":278:279   */\n  0x00\n    /* \"#utility.yul\":271:286   */\n  revert\n    /* \"#utility.yul\":298:478   */\ntag_22:\n    /* \"#utility.yul\":346:423   */\n  0x4e487b7100000000000000000000000000000000000000000000000000000000\n    /* \"#utility.yul\":343:344   */\n  0x00\n    /* \"#utility.yul\":336:424   */\n  mstore\n    /* \"#utility.yul\":443:447   */\n  0x22\n    /* \"#utility.yul\":440:441   */\n  0x04\n    /* \"#utility.yul\":433:448   */\n  mstore\n    /* \"#utility.yul\":467:471   */\n  0x24\n    /* \"#utility.yul\":464:465   */\n  0x00\n    /* \"#utility.yul\":457:472   */\n  revert\n    /* \"#utility.yul\":484:804   */\ntag_7:\n    /* \"#utility.yul\":528:534   */\n  0x00\n    /* \"#utility.yul\":565:566   */\n  0x02\n    /* \"#utility.yul\":559:563   */\n  dup3\n    /* \"#utility.yul\":555:567   */\n  div\n    /* \"#utility.yul\":545:567   */\n  swap1\n  pop\n    /* \"#utility.yul\":612:613   */\n  0x01\n    /* \"#utility.yul\":606:610   */\n  dup3\n    /* \"#utility.yul\":602:614   */\n  and\n    /* \"#utility.yul\":633:651   */\n  dup1\n    /* \"#utility.yul\":623:704   */\n  tag_44\n  jumpi\n    /* \"#utility.yul\":689:693   */\n  0x7f\n    /* \"#utility.yul\":681:687   */\n  dup3\n    /* \"#utility.yul\":677:694   */\n  and\n    /* \"#utility.yul\":667:694   */\n  swap2\n  pop\n    /* \"#utility.yul\":623:704   */\ntag_44:\n    /* \"#utility.yul\":751:753   */\n  0x20\n    /* \"#utility.yul\":743:749   */\n  dup3\n    /* \"#utility.yul\":740:754   */\n  lt\n    /* \"#utility.yul\":720:738   */\n  dup2\n    /* \"#utility.yul\":717:755   */\n  sub\n    /* \"#utility.yul\":714:798   */\n  tag_45\n  jumpi\n    /* \"#utility.yul\":770:788   */\n  tag_46\n  tag_22\n  jump\t// in\ntag_46:\n    /* \"#utility.yul\":714:798   */\ntag_45:\n    /* \"#utility.yul\":535:804   */\n  pop\n    /* \"#utility.yul\":484:804   */\n  swap2\n  swap1\n  pop\n  jump\t// out\n    /* \"#utility.yul\":810:951   */\ntag_23:\n    /* \"#utility.yul\":859:863   */\n  0x00\n    /* \"#utility.yul\":882:885   */\n  dup2\n    /* \"#utility.yul\":874:885   */\n  swap1\n  pop\n    /* \"#utility.yul\":905:908   */\n  dup2\n    /* \"#utility.yul\":902:903   */\n  0x00\n    /* \"#utility.yul\":895:909   */\n  mstore\n    /* \"#utility.yul\":939:943   */\n  0x20\n    /* \"#utility.yul\":936:937   */\n  0x00\n    /* \"#utility.yul\":926:944   */\n  keccak256\n    /* \"#utility.yul\":918:944   */\n  swap1\n  pop\n    /* \"#utility.yul\":810:951   */\n  swap2\n  swap1\n  pop\n  jump\t// out\n    /* \"#utility.yul\":957:1050   */\ntag_24:\n    /* \"#utility.yul\":994:1000   */\n  0x00\n    /* \"#utility.yul\":1041:1043   */\n  0x20\n    /* \"#utility.yul\":1036:1038   */\n  0x1f\n    /* \"#utility.yul\":1029:1034   */\n  dup4\n    /* \"#utility.yul\":1025:1039   */\n  add\n    /* \"#utility.yul\":1021:1044   */\n  div\n    /* \"#utility.yul\":1011:1044   */\n  swap1\n  pop\n    /* \"#utility.yul\":957:1050   */\n  swap2\n  swap1\n  pop\n  jump\t// out\n    /* \"#utility.yul\":1056:1163   */\ntag_25:\n    /* \"#utility.yul\":1100:1108   */\n  0x00\n    /* \"#utility.yul\":1150:1155   */\n  dup3\n    /* \"#utility.yul\":1144:1148   */\n  dup3\n    /* \"#utility.yul\":1140:1156   */\n  shl\n    /* \"#utility.yul\":1119:1156   */\n  swap1\n  pop\n    /* \"#utility.yul\":1056:1163   */\n  swap3\n  swap2\n  pop\n  pop\n  jump\t// out\n    /* \"#utility.yul\":1169:1562   */\ntag_26:\n    /* \"#utility.yul\":1238:1244   */\n  0x00\n    /* \"#utility.yul\":1288:1289   */\n  0x08\n    /* \"#utility.yul\":1276:1286   */\n  dup4\n    /* \"#utility.yul\":1272:1290   */\n  mul\n    /* \"#utility.yul\":1311:1408   */\n  tag_51\n    /* \"#utility.yul\":1341:1407   */\n  0xffffffffffffffffffffffffffffffffffffffffffffffffffffffffffffffff\n    /* \"#utility.yul\":1330:1339   */\n  dup3\n    /* \"#utility.yul\":1311:1408   */\n  tag_25\n  jump\t// in\ntag_51:\n    /* \"#utility.yul\":1429:1468   */\n  tag_52\n    /* \"#utility.yul\":1459:1467   */\n  dup7\n    /* \"#utility.yul\":1448:1457   */\n  dup4\n    /* \"#utility.yul\":1429:1468   */\n  tag_25\n  jump\t// in\ntag_52:\n    /* \"#utility.yul\":1417:1468   */\n  swap6\n  pop\n    /* \"#utility.yul\":1501:1505   */\n  dup1\n    /* \"#utility.yul\":1497:1506   */\n  not\n    /* \"#utility.yul\":1490:1495   */\n  dup5\n    /* \"#utility.yul\":1486:1507   */\n  and\n    /* \"#utility.yul\":1477:1507   */\n  swap4\n  pop\n    /* \"#utility.yul\":1550:1554   */\n  dup1\n    /* \"#utility.yul\":1540:1548   */\n  dup7\n    /* \"#utility.yul\":1536:1555   */\n  and\n    /* \"#utility.yul\":1529:1534   */\n  dup5\n    /* \"#utility.yul\":1526:1556   */\n  or\n    /* \"#utility.yul\":1516:1556   */\n  swap3\n  pop\n    /* \"#utility.yul\":1245:1562   */\n  pop\n  pop\n    /* \"#utility.yul\":1169:1562   */\n  swap4\n  swap3\n  pop\n  pop\n  pop\n  jump\t// out\n    /* \"#utility.yul\":1568:1645   */\ntag_27:\n    /* \"#utility.yul\":1605:1612   */\n  0x00\n    /* \"#utility.yul\":1634:1639   */\n  dup2\n    /* \"#utility.yul\":1623:1639   */\n  swap1\n  pop\n    /* \"#utility.yul\":1568:1645   */\n  swap2\n  swap1\n  pop\n  jump\t// out\n    /* \"#utility.yul\":1651:1711   */\ntag_28:\n    /* \"#utility.yul\":1679:1682   */\n  0x00\n    /* \"#utility.yul\":1700:1705   */\n  dup2\n    /* \"#utility.yul\":1693:1705   */\n  swap1\n  pop\n    /* \"#utility.yul\":1651:1711   */\n  swap2\n  swap1\n  pop\n  jump\t// out\n    /* \"#utility.yul\":1717:1859   */\ntag_29:\n    /* \"#utility.yul\":1767:1776   */\n  0x00\n    /* \"#utility.yul\":1800:1853   */\n  tag_56\n    /* \"#utility.yul\":1818:1852   */\n  tag_57\n    /* \"#utility.yul\":1827:1851   */\n  tag_58\n    /* \"#utility.yul\":1845:1850   */\n  dup5\n    /* \"#utility.yul\":1827:1851   */\n  tag_27\n  jump\t// in\ntag_58:\n    /* \"#utility.yul\":1818:1852   */\n  tag_28\n  jump\t// in\ntag_57:\n    /* \"#utility.yul\":1800:1853   */\n  tag_27\n  jump\t// in\ntag_56:\n    /* \"#utility.yul\":1787:1853   */\n  swap1\n  pop\n    /* \"#utility.yul\":1717:1859   */\n  swap2\n  swap1\n  pop\n  jump\t// out\n    /* \"#utility.yul\":1865:1940   */\ntag_30:\n    /* \"#utility.yul\":1908:1911   */\n  0x00\n    /* \"#utility.yul\":1929:1934   */\n  dup2\n    /* \"#utility.yul\":1922:1934   */\n  swap1\n  pop\n    /* \"#utility.yul\":1865:1940   */\n  swap2\n  swap1\n  pop\n  jump\t// out\n    /* \"#utility.yul\":1946:2215   */\ntag_31:\n    /* \"#utility.yul\":2056:2095   */\n  tag_61\n    /* \"#utility.yul\":2087:2094   */\n  dup4\n    /* \"#utility.yul\":2056:2095   */\n  tag_29\n  jump\t// in\ntag_61:\n    /* \"#utility.yul\":2117:2208   */\n  tag_62\n    /* \"#utility.yul\":2166:2207   */\n  tag_63\n    /* \"#utility.yul\":2190:2206   */\n  dup3\n    /* \"#utility.yul\":2166:2207   */\n  tag_30\n  jump\t// in\ntag_63:\n    /* \"#utility.yul\":2158:2164   */\n  dup5\n    /* \"#utility.yul\":2151:2155   */\n  dup5\n    /* \"#utility.yul\":2145:2156   */\n  sload\n    /* \"#utility.yul\":2117:2208   */\n  tag_26\n  jump\t// in\ntag_62:\n    /* \"#utility.yul\":2111:2115   */\n  dup3\n    /* \"#utility.yul\":2104:2209   */\n  sstore\n    /* \"#utility.yul\":2022:2215   */\n  pop\n    /* \"#utility.yul\":1946:2215   */\n  pop\n  pop\n  pop\n  jump\t// out\n    /* \"#utility.yul\":2221:2294   */\ntag_32:\n    /* \"#utility.yul\":2266:2269   */\n  0x00\n    /* \"#utility.yul\":2221:2294   */\n  swap1\n  jump\t// out\n    /* \"#utility.yul\":2300:2489   */\ntag_33:\n    /* \"#utility.yul\":2377:2409   */\n  tag_66\n  tag_32\n  jump\t// in\ntag_66:\n    /* \"#utility.yul\":2418:2483   */\n  tag_67\n    /* \"#utility.yul\":2476:2482   */\n  dup2\n    /* \"#utility.yul\":2468:2474   */\n  dup5\n    /* \"#utility.yul\":2462:2466   */\n  dup5\n    /* \"#utility.yul\":2418:2483   */\n  tag_31\n  jump\t// in\ntag_67:\n    /* \"#utility.yul\":2353:2489   */\n  pop\n    /* \"#utility.yul\":2300:2489   */\n  pop\n  pop\n  jump\t// out\n    /* \"#utility.yul\":2495:2681   */\ntag_34:\n    /* \"#utility.yul\":2555:2675   */\ntag_69:\n    /* \"#utility.yul\":2572:2575   */\n  dup2\n    /* \"#utility.yul\":2565:2570   */\n  dup2\n    /* \"#utility.yul\":2562:2576   */\n  lt\n    /* \"#utility.yul\":2555:2675   */\n  iszero\n  tag_71\n  jumpi\n    /* \"#utility.yul\":2626:2665   */\n  tag_72\n    /* \"#utility.yul\":2663:2664   */\n  0x00\n    /* \"#utility.yul\":2656:2661   */\n  dup3\n    /* \"#utility.yul\":2626:2665   */\n  tag_33\n  jump\t// in\ntag_72:\n    /* \"#utility.yul\":2599:2600   */\n  0x01\n    /* \"#utility.yul\":2592:2597   */\n  dup2\n    /* \"#utility.yul\":2588:2601   */\n  add\n    /* \"#utility.yul\":2579:2601   */\n  swap1\n  pop\n    /* \"#utility.yul\":2555:2675   */\n  jump(tag_69)\ntag_71:\n    /* \"#utility.yul\":2495:2681   */\n  pop\n  pop\n  jump\t// out\n    /* \"#utility.yul\":2687:3230   */\ntag_35:\n    /* \"#utility.yul\":2788:2790   */\n  0x1f\n    /* \"#utility.yul\":2783:2786   */\n  dup3\n    /* \"#utility.yul\":2780:2791   */\n  gt\n    /* \"#utility.yul\":2777:3223   */\n  iszero\n  tag_74\n  jumpi\n    /* \"#utility.yul\":2822:2860   */\n  tag_75\n    /* \"#utility.yul\":2854:2859   */\n  dup2\n    /* \"#utility.yul\":2822:2860   */\n  tag_23\n  jump\t// in\ntag_75:\n    /* \"#utility.yul\":2906:2935   */\n  tag_76\n    /* \"#utility.yul\":2924:2934   */\n  dup5\n    /* \"#utility.yul\":2906:2935   */\n  tag_24\n  jump\t// in\ntag_76:\n    /* \"#utility.yul\":2896:2904   */\n  dup2\n    /* \"#utility.yul\":2892:2936   */\n  add\n    /* \"#utility.yul\":3089:3091   */\n  0x20\n    /* \"#utility.yul\":3077:3087   */\n  dup6\n    /* \"#utility.yul\":3074:3092   */\n  lt\n    /* \"#utility.yul\":3071:3120   */\n  iszero\n  tag_77\n  jumpi\n    /* \"#utility.yul\":3110:3118   */\n  dup2\n    /* \"#utility.yul\":3095:3118   */\n  swap1\n  pop\n    /* \"#utility.yul\":3071:3120   */\ntag_77:\n    /* \"#utility.yul\":3133:3213   */\n  tag_78\n    /* \"#utility.yul\":3189:3211   */\n  tag_79\n    /* \"#utility.yul\":3207:3210   */\n  dup6\n    /* \"#utility.yul\":3189:3211   */\n  tag_24\n  jump\t// in\ntag_79:\n    /* \"#utility.yul\":3179:3187   */\n  dup4\n    /* \"#utility.yul\":3175:3212   */\n  add\n    /* \"#utility.yul\":3162:3173   */\n  dup3\n    /* \"#utility.yul\":3133:3213   */\n  tag_34\n  jump\t// in\ntag_78:\n    /* \"#utility.yul\":2792:3223   */\n  pop\n  pop\n    /* \"#utility.yul\":2777:3223   */\ntag_74:\n    /* \"#utility.yul\":2687:3230   */\n  pop\n  pop\n  pop\n  jump\t// out\n    /* \"#utility.yul\":3236:3353   */\ntag_36:\n    /* \"#utility.yul\":3290:3298   */\n  0x00\n    /* \"#utility.yul\":3340:3345   */\n  dup3\n    /* \"#utility.yul\":3334:3338   */\n  dup3\n    /* \"#utility.yul\":3330:3346   */\n  shr\n    /* \"#utility.yul\":3309:3346   */\n  swap1\n  pop\n    /* \"#utility.yul\":3236:3353   */\n  swap3\n  swap2\n  pop\n  pop\n  jump\t// out\n    /* \"#utility.yul\":3359:3528   */\ntag_37:\n    /* \"#utility.yul\":3403:3409   */\n  0x00\n    /* \"#utility.yul\":3436:3487   */\n  tag_82\n    /* \"#utility.yul\":3484:3485   */\n  0x00\n    /* \"#utility.yul\":3480:3486   */\n  not\n    /* \"#utility.yul\":3472:3477   */\n  dup5\n    /* \"#utility.yul\":3469:3470   */\n  0x08\n    /* \"#utility.yul\":3465:3478   */\n  mul\n    /* \"#utility.yul\":3436:3487   */\n  tag_36\n  jump\t// in\ntag_82:\n    /* \"#utility.yul\":3432:3488   */\n  not\n    /* \"#utility.yul\":3517:3521   */\n  dup1\n    /* \"#utility.yul\":3511:3515   */\n  dup4\n    /* \"#utility.yul\":3507:3522   */\n  and\n    /* \"#utility.yul\":3497:3522   */\n  swap2\n  pop\n    /* \"#utility.yul\":3410:3528   */\n  pop\n    /* \"#utility.yul\":3359:3528   */\n  swap3\n  swap2\n  pop\n  pop\n  jump\t// out\n    /* \"#utility.yul\":3533:3828   */\ntag_38:\n    /* \"#utility.yul\":3609:3613   */\n  0x00\n    /* \"#utility.yul\":3755:3784   */\n  tag_84\n    /* \"#utility.yul\":3780:3783   */\n  dup4\n    /* \"#utility.yul\":3774:3778   */\n  dup4\n    /* \"#utility.yul\":3755:3784   */\n  tag_37\n  jump\t// in\ntag_84:\n    /* \"#utility.yul\":3747:3784   */\n  swap2\n  pop\n    /* \"#utility.yul\":3817:3820   */\n  dup3\n    /* \"#utility.yul\":3814:3815   */\n  0x02\n    /* \"#utility.yul\":3810:3821   */\n  mul\n    /* \"#utility.yul\":3804:3808   */\n  dup3\n    /* \"#utility.yul\":3801:3822   */\n  or\n    /* \"#utility.yul\":3793:3822   */\n  swap1\n  pop\n    /* \"#utility.yul\":3533:3828   */\n  swap3\n  swap2\n  pop\n  pop\n  jump\t// out\n    /* \"#utility.yul\":3833:5228   */\ntag_2:\n    /* \"#utility.yul\":3950:3987   */\n  tag_86\n    /* \"#utility.yul\":3983:3986   */\n  dup3\n    /* \"#utility.yul\":3950:3987   */\n  tag_20\n  jump\t// in\ntag_86:\n    /* \"#utility.yul\":4052:4070   */\n  0xffffffffffffffff\n    /* \"#utility.yul\":4044:4050   */\n  dup2\n    /* \"#utility.yul\":4041:4071   */\n  gt\n    /* \"#utility.yul\":4038:4094   */\n  iszero\n  tag_87\n  jumpi\n    /* \"#utility.yul\":4074:4092   */\n  tag_88\n  tag_21\n  jump\t// in\ntag_88:\n    /* \"#utility.yul\":4038:4094   */\ntag_87:\n    /* \"#utility.yul\":4118:4156   */\n  tag_89\n    /* \"#utility.yul\":4150:4154   */\n  dup3\n    /* \"#utility.yul\":4144:4155   */\n  sload\n    /* \"#utility.yul\":4118:4156   */\n  tag_7\n  jump\t// in\ntag_89:\n    /* \"#utility.yul\":4203:4270   */\n  tag_90\n    /* \"#utility.yul\":4263:4269   */\n  dup3\n    /* \"#utility.yul\":4255:4261   */\n  dup3\n    /* \"#utility.yul\":4249:4253   */\n  dup6\n    /* \"#utility.yul\":4203:4270   */\n  tag_35\n  jump\t// in\ntag_90:\n    /* \"#utility.yul\":4297:4298   */\n  0x00\n    /* \"#utility.yul\":4321:4325   */\n  0x20\n    /* \"#utility.yul\":4308:4325   */\n  swap1\n  pop\n    /* \"#utility.yul\":4353:4355   */\n  0x1f\n    /* \"#utility.yul\":4345:4351   */\n  dup4\n    /* \"#utility.yul\":4342:4356   */\n  gt\n    /* \"#utility.yul\":4370:4371   */\n  0x01\n    /* \"#utility.yul\":4365:4983   */\n  dup2\n  eq\n  tag_92\n  jumpi\n    /* \"#utility.yul\":5027:5028   */\n  0x00\n    /* \"#utility.yul\":5044:5050   */\n  dup5\n    /* \"#utility.yul\":5041:5118   */\n  iszero\n  tag_93\n  jumpi\n    /* \"#utility.yul\":5093:5102   */\n  dup3\n    /* \"#utility.yul\":5088:5091   */\n  dup8\n    /* \"#utility.yul\":5084:5103   */\n  add\n    /* \"#utility.yul\":5078:5104   */\n  mload\n    /* \"#utility.yul\":5069:5104   */\n  swap1\n  pop\n    /* \"#utility.yul\":5041:5118   */\ntag_93:\n    /* \"#utility.yul\":5144:5211   */\n  tag_94\n    /* \"#utility.yul\":5204:5210   */\n  dup6\n    /* \"#utility.yul\":5197:5202   */\n  dup3\n    /* \"#utility.yul\":5144:5211   */\n  tag_38\n  jump\t// in\ntag_94:\n    /* \"#utility.yul\":5138:5142   */\n  dup7\n    /* \"#utility.yul\":5131:5212   */\n  sstore\n    /* \"#utility.yul\":5000:5222   */\n  pop\n    /* \"#utility.yul\":4335:5222   */\n  jump(tag_91)\n    /* \"#utility.yul\":4365:4983   */\ntag_92:\n    /* \"#utility.yul\":4417:4421   */\n  0x1f\n    /* \"#utility.yul\":4413:4422   */\n  not\n    /* \"#utility.yul\":4405:4411   */\n  dup5\n    /* \"#utility.yul\":4401:4423   */\n  and\n    /* \"#utility.yul\":4451:4488   */\n  tag_95\n    /* \"#utility.yul\":4483:4487   */\n  dup7\n    /* \"#utility.yul\":4451:4488   */\n  tag_23\n  jump\t// in\ntag_95:\n    /* \"#utility.yul\":4510:4511   */\n  0x00\n    /* \"#utility.yul\":4524:4732   */\ntag_96:\n    /* \"#utility.yul\":4538:4545   */\n  dup3\n    /* \"#utility.yul\":4535:4536   */\n  dup2\n    /* \"#utility.yul\":4532:4546   */\n  lt\n    /* \"#utility.yul\":4524:4732   */\n  iszero\n  tag_98\n  jumpi\n    /* \"#utility.yul\":4617:4626   */\n  dup5\n    /* \"#utility.yul\":4612:4615   */\n  dup10\n    /* \"#utility.yul\":4608:4627   */\n  add\n    /* \"#utility.yul\":4602:4628   */\n  mload\n    /* \"#utility.yul\":4594:4600   */\n  dup3\n    /* \"#utility.yul\":4587:4629   */\n  sstore\n    /* \"#utility.yul\":4668:4669   */\n  0x01\n    /* \"#utility.yul\":4660:4666   */\n  dup3\n    /* \"#utility.yul\":4656:4670   */\n  add\n    /* \"#utility.yul\":4646:4670   */\n  swap2\n  pop\n    /* \"#utility.yul\":4715:4717   */\n  0x20\n    /* \"#utility.yul\":4704:4713   */\n  dup6\n    /* \"#utility.yul\":4700:4718   */\n  add\n    /* \"#utility.yul\":4687:4718   */\n  swap5\n  pop\n    /* \"#utility.yul\":4561:4565   */\n  0x20\n    /* \"#utility.yul\":4558:4559   */\n  dup2\n    /* \"#utility.yul\":4554:4566   */\n  add\n    /* \"#utility.yul\":4549:4566   */\n  swap1\n  pop\n    /* \"#utility.yul\":4524:4732   */\n  jump(tag_96)\ntag_98:\n    /* \"#utility.yul\":4760:4766   */\n  dup7\n    /* \"#utility.yul\":4751:4758   */\n  dup4\n    /* \"#utility.yul\":4748:4767   */\n  lt\n    /* \"#utility.yul\":4745:4924   */\n  iszero\n  tag_99\n  jumpi\n    /* \"#utility.yul\":4818:4827   */\n  dup5\n    /* \"#utility.yul\":4813:4816   */\n  dup10\n    /* \"#utility.yul\":4809:4828   */\n  add\n    /* \"#utility.yul\":4803:4829   */\n  mload\n    /* \"#utility.yul\":4861:4909   */\n  tag_100\n    /* \"#utility.yul\":4903:4907   */\n  0x1f\n    /* \"#utility.yul\":4895:4901   */\n  dup10\n    /* \"#utility.yul\":4891:4908   */\n  and\n    /* \"#utility.yul\":4880:4889   */\n  dup3\n    /* \"#utility.yul\":4861:4909   */\n  tag_37\n  jump\t// in\ntag_100:\n    /* \"#utility.yul\":4853:4859   */\n  dup4\n    /* \"#utility.yul\":4846:4910   */\n  sstore\n    /* \"#utility.yul\":4768:4924   */\n  pop\n    /* \"#utility.yul\":4745:4924   */\ntag_99:\n    /* \"#utility.yul\":4970:4971   */\n  0x01\n    /* \"#utility.yul\":4966:4967   */\n  0x02\n    /* \"#utility.yul\":4958:4964   */\n  dup9\n    /* \"#utility.yul\":4954:4968   */\n  mul\n    /* \"#utility.yul\":4950:4972   */\n  add\n    /* \"#utility.yul\":4944:4948   */\n  dup9\n    /* \"#utility.yul\":4937:4973   */\n  sstore\n    /* \"#utility.yul\":4372:4983   */\n  pop\n  pop\n  pop\n    /* \"#utility.yul\":4335:5222   */\ntag_91:\n  pop\n    /* \"#utility.yul\":3925:5228   */\n  pop\n  pop\n  pop\n    /* \"#utility.yul\":3833:5228   */\n  pop\n  pop\n  jump\t// out\n    /* \"#utility.yul\":5234:5414   */\ntag_14:\n    /* \"#utility.yul\":5282:5359   */\n  0x4e487b7100000000000000000000000000000000000000000000000000000000\n    /* \"#utility.yul\":5279:5280   */\n  0x00\n    /* \"#utility.yul\":5272:5360   */\n  mstore\n    /* \"#utility.yul\":5379:5383   */\n  0x21\n    /* \"#utility.yul\":5376:5377   */\n  0x04\n    /* \"#utility.yul\":5369:5384   */\n  mstore\n    /* \"#utility.yul\":5403:5407   */\n  0x24\n    /* \"#utility.yul\":5400:5401   */\n  0x00\n    /* \"#utility.yul\":5393:5408   */\n  revert\n    /* \"contracts/Main.sol\":66:9238  contract Main{... */\ntag_19:\n  dataSize(sub_0)\n  dup1\n  dataOffset(sub_0)\n  0x00\n  codecopy\n  0x00\n  return\nstop\n\nsub_0: assembly {\n        /* \"contracts/Main.sol\":66:9238  contract Main{... */\n      mstore(0x40, 0x80)\n      callvalue\n      dup1\n      iszero\n      tag_1\n      jumpi\n      0x00\n      dup1\n      revert\n    tag_1:\n      pop\n      jumpi(tag_2, lt(calldatasize, 0x04))\n      shr(0xe0, calldataload(0x00))\n      dup1\n      0x734e1ac3\n      gt\n      tag_19\n      jumpi\n      dup1\n      0xc6fbae04\n      gt\n      tag_20\n      jumpi\n      dup1\n      0xc6fbae04\n      eq\n      tag_15\n      jumpi\n      dup1\n      0xcb9e2755\n      eq\n      tag_16\n      jumpi\n      dup1\n      0xe2842d79\n      eq\n      tag_17\n      jumpi\n      dup1\n      0xf61af8ab\n      eq\n      tag_18\n      jumpi\n      jump(tag_2)\n    tag_20:\n      dup1\n      0x734e1ac3\n      eq\n      tag_11\n      jumpi\n      dup1\n      0x8da5cb5b\n      eq\n      tag_12\n      jumpi\n      dup1\n      0xa6f9dae1\n      eq\n      tag_13\n      jumpi\n      dup1\n      0xa87430ba\n      eq\n      tag_14\n      jumpi\n      jump(tag_2)\n    tag_19:\n      dup1\n      0x502c9bd5\n      gt\n      tag_21\n      jumpi\n      dup1\n      0x502c9bd5\n      eq\n      tag_7\n      jumpi\n      dup1\n      0x5c60f226\n      eq\n      tag_8\n      jumpi\n      dup1\n      0x6331883b\n      eq\n      tag_9\n      jumpi\n      dup1\n      0x69c212f6\n      eq\n      tag_10\n      jumpi\n      jump(tag_2)\n    tag_21:\n      dup1\n      0x03a69611\n      eq\n      tag_3\n      jumpi\n      dup1\n      0x32c227a9\n      eq\n      tag_4\n      jumpi\n      dup1\n      0x3e88a4e2\n      eq\n      tag_5\n      jumpi\n      dup1\n      0x40d26854\n      eq\n      tag_6\n      jumpi\n    tag_2:\n      0x00\n      dup1\n      revert\n        /* \"contracts/Main.sol\":5634:5882  function setUserRole (address _userAddress, Role _role) public onlyRole(Role.Admin){... */\n    tag_3:\n      tag_22\n      0x04\n      dup1\n      calldatasize\n      sub\n      dup2\n      add\n      swap1\n      tag_23\n      swap2\n      swap1\n      tag_24\n      jump\t// in\n    tag_23:\n      tag_25\n      jump\t// in\n    tag_22:\n      stop\n        /* \"contracts/Main.sol\":8152:8541  function getEntityById(uint entityId) public view returns (string memory name, EntityType entityType) {... */\n    tag_4:\n      tag_26\n      0x04\n      dup1\n      calldatasize\n      sub\n      dup2\n      add\n      swap1\n      tag_27\n      swap2\n      swap1\n      tag_28\n      jump\t// in\n    tag_27:\n      tag_29\n      jump\t// in\n    tag_26:\n      mload(0x40)\n      tag_30\n      swap3\n      swap2\n      swap1\n      tag_31\n      jump\t// in\n    tag_30:\n      mload(0x40)\n      dup1\n      swap2\n      sub\n      swap1\n      return\n        /* \"contracts/Main.sol\":8592:8975  function getEntityByName(string memory name) public view returns (uint entityId, EntityType entityType) {... */\n    tag_5:\n      tag_32\n      0x04\n      dup1\n      calldatasize\n      sub\n      dup2\n      add\n      swap1\n      tag_33\n      swap2\n      swap1\n      tag_34\n      jump\t// in\n    tag_33:\n      tag_35\n      jump\t// in\n    tag_32:\n      mload(0x40)\n      tag_36\n      swap3\n      swap2\n      swap1\n      tag_37\n      jump\t// in\n    tag_36:\n      mload(0x40)\n      dup1\n      swap2\n      sub\n      swap1\n      return\n        /* \"contracts/Main.sol\":4373:4789  function addUser (address _userAddress, string memory _name, Role _role) public onlyRole(Role.Admin){... */\n    tag_6:\n      tag_38\n      0x04\n      dup1\n      calldatasize\n      sub\n      dup2\n      add\n      swap1\n      tag_39\n      swap2\n      swap1\n      tag_40\n      jump\t// in\n    tag_39:\n      tag_41\n      jump\t// in\n    tag_38:\n      stop\n        /* \"contracts/Main.sol\":2001:2031  address[] public userAddresses */\n    tag_7:\n      tag_42\n      0x04\n      dup1\n      calldatasize\n      sub\n      dup2\n      add\n      swap1\n      tag_43\n      swap2\n      swap1\n      tag_28\n      jump\t// in\n    tag_43:\n      tag_44\n      jump\t// in\n    tag_42:\n      mload(0x40)\n      tag_45\n      swap2\n      swap1\n      tag_46\n      jump\t// in\n    tag_45:\n      mload(0x40)\n      dup1\n      swap2\n      sub\n      swap1\n      return\n        /* \"contracts/Main.sol\":4816:5596  function deleteUser(address _userAddress) public onlyRole(Role.Admin){... */\n    tag_8:\n      tag_47\n      0x04\n      dup1\n      calldatasize\n      sub\n      dup2\n      add\n      swap1\n      tag_48\n      swap2\n      swap1\n      tag_49\n      jump\t// in\n    tag_48:\n      tag_50\n      jump\t// in\n    tag_47:\n      stop\n        /* \"contracts/Main.sol\":2080:2119  mapping(uint => Entity) public entities */\n    tag_9:\n      tag_51\n      0x04\n      dup1\n      calldatasize\n      sub\n      dup2\n      add\n      swap1\n      tag_52\n      swap2\n      swap1\n      tag_28\n      jump\t// in\n    tag_52:\n      tag_53\n      jump\t// in\n    tag_51:\n      mload(0x40)\n      tag_54\n      swap3\n      swap2\n      swap1\n      tag_31\n      jump\t// in\n    tag_54:\n      mload(0x40)\n      dup1\n      swap2\n      sub\n      swap1\n      return\n        /* \"contracts/Main.sol\":6180:6372  function getUserByAddress(address _userAddress) public view returns (User memory) {... */\n    tag_10:\n      tag_55\n      0x04\n      dup1\n      calldatasize\n      sub\n      dup2\n      add\n      swap1\n      tag_56\n      swap2\n      swap1\n      tag_49\n      jump\t// in\n    tag_56:\n      tag_57\n      jump\t// in\n    tag_55:\n      mload(0x40)\n      tag_58\n      swap2\n      swap1\n      tag_59\n      jump\t// in\n    tag_58:\n      mload(0x40)\n      dup1\n      swap2\n      sub\n      swap1\n      return\n        /* \"contracts/Main.sol\":150:191  string public contractAuthor = 'MGT TEAM' */\n    tag_11:\n      tag_60\n      tag_61\n      jump\t// in\n    tag_60:\n      mload(0x40)\n      tag_62\n      swap2\n      swap1\n      tag_63\n      jump\t// in\n    tag_62:\n      mload(0x40)\n      dup1\n      swap2\n      sub\n      swap1\n      return\n        /* \"contracts/Main.sol\":123:143  address public owner */\n    tag_12:\n      tag_64\n      tag_65\n      jump\t// in\n    tag_64:\n      mload(0x40)\n      tag_66\n      swap2\n      swap1\n      tag_46\n      jump\t// in\n    tag_66:\n      mload(0x40)\n      dup1\n      swap2\n      sub\n      swap1\n      return\n        /* \"contracts/Main.sol\":4078:4312  function changeOwner(address newOwner) public onlyOwner {... */\n    tag_13:\n      tag_67\n      0x04\n      dup1\n      calldatasize\n      sub\n      dup2\n      add\n      swap1\n      tag_68\n      swap2\n      swap1\n      tag_49\n      jump\t// in\n    tag_68:\n      tag_69\n      jump\t// in\n    tag_67:\n      stop\n        /* \"contracts/Main.sol\":1957:1994  mapping(address => User) public users */\n    tag_14:\n      tag_70\n      0x04\n      dup1\n      calldatasize\n      sub\n      dup2\n      add\n      swap1\n      tag_71\n      swap2\n      swap1\n      tag_49\n      jump\t// in\n    tag_71:\n      tag_72\n      jump\t// in\n    tag_70:\n      mload(0x40)\n      tag_73\n      swap3\n      swap2\n      swap1\n      tag_74\n      jump\t// in\n    tag_73:\n      mload(0x40)\n      dup1\n      swap2\n      sub\n      swap1\n      return\n        /* \"contracts/Main.sol\":6409:7098  function addEntity(uint entityId, string memory name, EntityType entityType) public onlyRole(Role.Admin){... */\n    tag_15:\n      tag_75\n      0x04\n      dup1\n      calldatasize\n      sub\n      dup2\n      add\n      swap1\n      tag_76\n      swap2\n      swap1\n      tag_77\n      jump\t// in\n    tag_76:\n      tag_78\n      jump\t// in\n    tag_75:\n      stop\n        /* \"contracts/Main.sol\":7145:8104  function deleteEntity(uint entityId) public onlyRole(Role.Admin) {... */\n    tag_16:\n      tag_79\n      0x04\n      dup1\n      calldatasize\n      sub\n      dup2\n      add\n      swap1\n      tag_80\n      swap2\n      swap1\n      tag_28\n      jump\t// in\n    tag_80:\n      tag_81\n      jump\t// in\n    tag_79:\n      stop\n        /* \"contracts/Main.sol\":5890:6172  function getAllUsers() public view returns (User[] memory){... */\n    tag_17:\n      tag_82\n      tag_83\n      jump\t// in\n    tag_82:\n      mload(0x40)\n      tag_84\n      swap2\n      swap1\n      tag_85\n      jump\t// in\n    tag_84:\n      mload(0x40)\n      dup1\n      swap2\n      sub\n      swap1\n      return\n        /* \"contracts/Main.sol\":9043:9181  function getEntitiesByType(EntityType entityType) public view returns (uint[] memory) {... */\n    tag_18:\n      tag_86\n      0x04\n      dup1\n      calldatasize\n      sub\n      dup2\n      add\n      swap1\n      tag_87\n      swap2\n      swap1\n      tag_88\n      jump\t// in\n    tag_87:\n      tag_89\n      jump\t// in\n    tag_86:\n      mload(0x40)\n      tag_90\n      swap2\n      swap1\n      tag_91\n      jump\t// in\n    tag_90:\n      mload(0x40)\n      dup1\n      swap2\n      sub\n      swap1\n      return\n        /* \"contracts/Main.sol\":5634:5882  function setUserRole (address _userAddress, Role _role) public onlyRole(Role.Admin){... */\n    tag_25:\n        /* \"contracts/Main.sol\":5706:5716  Role.Admin */\n      0x01\n        /* \"contracts/Main.sol\":2704:2709  _role */\n      dup1\n        /* \"contracts/Main.sol\":2678:2709  users[msg.sender].role == _role */\n      0x04\n      dup2\n      gt\n      iszero\n      tag_93\n      jumpi\n      tag_94\n      tag_95\n      jump\t// in\n    tag_94:\n    tag_93:\n        /* \"contracts/Main.sol\":2678:2683  users */\n      0x02\n        /* \"contracts/Main.sol\":2678:2695  users[msg.sender] */\n      0x00\n        /* \"contracts/Main.sol\":2684:2694  msg.sender */\n      caller\n        /* \"contracts/Main.sol\":2678:2695  users[msg.sender] */\n      0xffffffffffffffffffffffffffffffffffffffff\n      and\n      0xffffffffffffffffffffffffffffffffffffffff\n      and\n      dup2\n      mstore\n      0x20\n      add\n      swap1\n      dup2\n      mstore\n      0x20\n      add\n      0x00\n      keccak256\n        /* \"contracts/Main.sol\":2678:2700  users[msg.sender].role */\n      0x01\n      add\n      0x00\n      swap1\n      sload\n      swap1\n      0x0100\n      exp\n      swap1\n      div\n      0xff\n      and\n        /* \"contracts/Main.sol\":2678:2709  users[msg.sender].role == _role */\n      0x04\n      dup2\n      gt\n      iszero\n      tag_96\n      jumpi\n      tag_97\n      tag_95\n      jump\t// in\n    tag_97:\n    tag_96:\n      eq\n        /* \"contracts/Main.sol\":2670:2743  require(users[msg.sender].role == _role, \"Access denied: incorrect role\") */\n      tag_98\n      jumpi\n      mload(0x40)\n      0x08c379a000000000000000000000000000000000000000000000000000000000\n      dup2\n      mstore\n      0x04\n      add\n      tag_99\n      swap1\n      tag_100\n      jump\t// in\n    tag_99:\n      mload(0x40)\n      dup1\n      swap2\n      sub\n      swap1\n      revert\n    tag_98:\n        /* \"contracts/Main.sol\":5809:5810  0 */\n      0x00\n        /* \"contracts/Main.sol\":5785:5811  _userAddress != address(0) */\n      0xffffffffffffffffffffffffffffffffffffffff\n      and\n        /* \"contracts/Main.sol\":5785:5797  _userAddress */\n      dup4\n        /* \"contracts/Main.sol\":5785:5811  _userAddress != address(0) */\n      0xffffffffffffffffffffffffffffffffffffffff\n      and\n      sub\n        /* \"contracts/Main.sol\":5777:5831  require(_userAddress != address(0), \"Invalid address\") */\n      tag_102\n      jumpi\n      mload(0x40)\n      0x08c379a000000000000000000000000000000000000000000000000000000000\n      dup2\n      mstore\n      0x04\n      add\n      tag_103\n      swap1\n      tag_104\n      jump\t// in\n    tag_103:\n      mload(0x40)\n      dup1\n      swap2\n      sub\n      swap1\n      revert\n    tag_102:\n        /* \"contracts/Main.sol\":5869:5874  _role */\n      dup2\n        /* \"contracts/Main.sol\":5842:5847  users */\n      0x02\n        /* \"contracts/Main.sol\":5842:5861  users[_userAddress] */\n      0x00\n        /* \"contracts/Main.sol\":5848:5860  _userAddress */\n      dup6\n        /* \"contracts/Main.sol\":5842:5861  users[_userAddress] */\n      0xffffffffffffffffffffffffffffffffffffffff\n      and\n      0xffffffffffffffffffffffffffffffffffffffff\n      and\n      dup2\n      mstore\n      0x20\n      add\n      swap1\n      dup2\n      mstore\n      0x20\n      add\n      0x00\n      keccak256\n        /* \"contracts/Main.sol\":5842:5866  users[_userAddress].role */\n      0x01\n      add\n      0x00\n        /* \"contracts/Main.sol\":5842:5874  users[_userAddress].role = _role */\n      0x0100\n      exp\n      dup2\n      sload\n      dup2\n      0xff\n      mul\n      not\n      and\n      swap1\n      dup4\n      0x04\n      dup2\n      gt\n      iszero\n      tag_105\n      jumpi\n      tag_106\n      tag_95\n      jump\t// in\n    tag_106:\n    tag_105:\n      mul\n      or\n      swap1\n      sstore\n      pop\n        /* \"contracts/Main.sol\":5634:5882  function setUserRole (address _userAddress, Role _role) public onlyRole(Role.Admin){... */\n      pop\n      pop\n      pop\n      jump\t// out\n        /* \"contracts/Main.sol\":8152:8541  function getEntityById(uint entityId) public view returns (string memory name, EntityType entityType) {... */\n    tag_29:\n        /* \"contracts/Main.sol\":8211:8229  string memory name */\n      0x60\n        /* \"contracts/Main.sol\":8231:8252  EntityType entityType */\n      0x00\n        /* \"contracts/Main.sol\":8353:8354  0 */\n      dup1\n        /* \"contracts/Main.sol\":8318:8326  entities */\n      0x04\n        /* \"contracts/Main.sol\":8318:8336  entities[entityId] */\n      0x00\n        /* \"contracts/Main.sol\":8327:8335  entityId */\n      dup6\n        /* \"contracts/Main.sol\":8318:8336  entities[entityId] */\n      dup2\n      mstore\n      0x20\n      add\n      swap1\n      dup2\n      mstore\n      0x20\n      add\n      0x00\n      keccak256\n        /* \"contracts/Main.sol\":8318:8341  entities[entityId].name */\n      0x00\n      add\n        /* \"contracts/Main.sol\":8312:8349  bytes(entities[entityId].name).length */\n      dup1\n      sload\n      tag_108\n      swap1\n      tag_109\n      jump\t// in\n    tag_108:\n      swap1\n      pop\n        /* \"contracts/Main.sol\":8312:8354  bytes(entities[entityId].name).length != 0 */\n      sub\n        /* \"contracts/Main.sol\":8304:8380  require(bytes(entities[entityId].name).length != 0, \"Entity does not exist\") */\n      tag_110\n      jumpi\n      mload(0x40)\n      0x08c379a000000000000000000000000000000000000000000000000000000000\n      dup2\n      mstore\n      0x04\n      add\n      tag_111\n      swap1\n      tag_112\n      jump\t// in\n    tag_111:\n      mload(0x40)\n      dup1\n      swap2\n      sub\n      swap1\n      revert\n    tag_110:\n        /* \"contracts/Main.sol\":8441:8462  Entity storage entity */\n      0x00\n        /* \"contracts/Main.sol\":8465:8473  entities */\n      0x04\n        /* \"contracts/Main.sol\":8465:8483  entities[entityId] */\n      0x00\n        /* \"contracts/Main.sol\":8474:8482  entityId */\n      dup6\n        /* \"contracts/Main.sol\":8465:8483  entities[entityId] */\n      dup2\n      mstore\n      0x20\n      add\n      swap1\n      dup2\n      mstore\n      0x20\n      add\n      0x00\n      keccak256\n        /* \"contracts/Main.sol\":8441:8483  Entity storage entity = entities[entityId] */\n      swap1\n      pop\n        /* \"contracts/Main.sol\":8502:8508  entity */\n      dup1\n        /* \"contracts/Main.sol\":8502:8513  entity.name */\n      0x00\n      add\n        /* \"contracts/Main.sol\":8515:8521  entity */\n      dup2\n        /* \"contracts/Main.sol\":8515:8532  entity.entityType */\n      0x01\n      add\n      0x00\n      swap1\n      sload\n      swap1\n      0x0100\n      exp\n      swap1\n      div\n      0xff\n      and\n        /* \"contracts/Main.sol\":8494:8533  return (entity.name, entity.entityType) */\n      dup2\n      dup1\n      sload\n      tag_113\n      swap1\n      tag_109\n      jump\t// in\n    tag_113:\n      dup1\n      0x1f\n      add\n      0x20\n      dup1\n      swap2\n      div\n      mul\n      0x20\n      add\n      mload(0x40)\n      swap1\n      dup2\n      add\n      0x40\n      mstore\n      dup1\n      swap3\n      swap2\n      swap1\n      dup2\n      dup2\n      mstore\n      0x20\n      add\n      dup3\n      dup1\n      sload\n      tag_114\n      swap1\n      tag_109\n      jump\t// in\n    tag_114:\n      dup1\n      iszero\n      tag_115\n      jumpi\n      dup1\n      0x1f\n      lt\n      tag_116\n      jumpi\n      0x0100\n      dup1\n      dup4\n      sload\n      div\n      mul\n      dup4\n      mstore\n      swap2\n      0x20\n      add\n      swap2\n      jump(tag_115)\n    tag_116:\n      dup3\n      add\n      swap2\n      swap1\n      0x00\n      mstore\n      keccak256(0x00, 0x20)\n      swap1\n    tag_117:\n      dup2\n      sload\n      dup2\n      mstore\n      swap1\n      0x01\n      add\n      swap1\n      0x20\n      add\n      dup1\n      dup4\n      gt\n      tag_117\n      jumpi\n      dup3\n      swap1\n      sub\n      0x1f\n      and\n      dup3\n      add\n      swap2\n    tag_115:\n      pop\n      pop\n      pop\n      pop\n      pop\n      swap2\n      pop\n      swap3\n      pop\n      swap3\n      pop\n      pop\n        /* \"contracts/Main.sol\":8152:8541  function getEntityById(uint entityId) public view returns (string memory name, EntityType entityType) {... */\n      swap2\n      pop\n      swap2\n      jump\t// out\n        /* \"contracts/Main.sol\":8592:8975  function getEntityByName(string memory name) public view returns (uint entityId, EntityType entityType) {... */\n    tag_35:\n        /* \"contracts/Main.sol\":8658:8671  uint entityId */\n      0x00\n        /* \"contracts/Main.sol\":8673:8694  EntityType entityType */\n      dup1\n        /* \"contracts/Main.sol\":8772:8773  0 */\n      0x00\n        /* \"contracts/Main.sol\":8754:8762  nameToId */\n      0x05\n        /* \"contracts/Main.sol\":8763:8767  name */\n      dup5\n        /* \"contracts/Main.sol\":8754:8768  nameToId[name] */\n      mload(0x40)\n      tag_119\n      swap2\n      swap1\n      tag_120\n      jump\t// in\n    tag_119:\n      swap1\n      dup2\n      mstore\n      0x20\n      add\n      mload(0x40)\n      dup1\n      swap2\n      sub\n      swap1\n      keccak256\n      sload\n        /* \"contracts/Main.sol\":8754:8773  nameToId[name] != 0 */\n      sub\n        /* \"contracts/Main.sol\":8746:8799  require(nameToId[name] != 0, \"Entity does not exist\") */\n      tag_121\n      jumpi\n      mload(0x40)\n      0x08c379a000000000000000000000000000000000000000000000000000000000\n      dup2\n      mstore\n      0x04\n      add\n      tag_122\n      swap1\n      tag_112\n      jump\t// in\n    tag_122:\n      mload(0x40)\n      dup1\n      swap2\n      sub\n      swap1\n      revert\n    tag_121:\n        /* \"contracts/Main.sol\":8853:8861  nameToId */\n      0x05\n        /* \"contracts/Main.sol\":8862:8866  name */\n      dup4\n        /* \"contracts/Main.sol\":8853:8867  nameToId[name] */\n      mload(0x40)\n      tag_123\n      swap2\n      swap1\n      tag_120\n      jump\t// in\n    tag_123:\n      swap1\n      dup2\n      mstore\n      0x20\n      add\n      mload(0x40)\n      dup1\n      swap2\n      sub\n      swap1\n      keccak256\n      sload\n        /* \"contracts/Main.sol\":8842:8867  entityId = nameToId[name] */\n      swap2\n      pop\n        /* \"contracts/Main.sol\":8878:8899  Entity storage entity */\n      0x00\n        /* \"contracts/Main.sol\":8902:8910  entities */\n      0x04\n        /* \"contracts/Main.sol\":8902:8920  entities[entityId] */\n      0x00\n        /* \"contracts/Main.sol\":8911:8919  entityId */\n      dup5\n        /* \"contracts/Main.sol\":8902:8920  entities[entityId] */\n      dup2\n      mstore\n      0x20\n      add\n      swap1\n      dup2\n      mstore\n      0x20\n      add\n      0x00\n      keccak256\n        /* \"contracts/Main.sol\":8878:8920  Entity storage entity = entities[entityId] */\n      swap1\n      pop\n        /* \"contracts/Main.sol\":8939:8947  entityId */\n      dup3\n        /* \"contracts/Main.sol\":8949:8955  entity */\n      dup2\n        /* \"contracts/Main.sol\":8949:8966  entity.entityType */\n      0x01\n      add\n      0x00\n      swap1\n      sload\n      swap1\n      0x0100\n      exp\n      swap1\n      div\n      0xff\n      and\n        /* \"contracts/Main.sol\":8931:8967  return (entityId, entity.entityType) */\n      swap3\n      pop\n      swap3\n      pop\n      pop\n        /* \"contracts/Main.sol\":8592:8975  function getEntityByName(string memory name) public view returns (uint entityId, EntityType entityType) {... */\n      swap2\n      pop\n      swap2\n      jump\t// out\n        /* \"contracts/Main.sol\":4373:4789  function addUser (address _userAddress, string memory _name, Role _role) public onlyRole(Role.Admin){... */\n    tag_41:\n        /* \"contracts/Main.sol\":4462:4472  Role.Admin */\n      0x01\n        /* \"contracts/Main.sol\":2704:2709  _role */\n      dup1\n        /* \"contracts/Main.sol\":2678:2709  users[msg.sender].role == _role */\n      0x04\n      dup2\n      gt\n      iszero\n      tag_125\n      jumpi\n      tag_126\n      tag_95\n      jump\t// in\n    tag_126:\n    tag_125:\n        /* \"contracts/Main.sol\":2678:2683  users */\n      0x02\n        /* \"contracts/Main.sol\":2678:2695  users[msg.sender] */\n      0x00\n        /* \"contracts/Main.sol\":2684:2694  msg.sender */\n      caller\n        /* \"contracts/Main.sol\":2678:2695  users[msg.sender] */\n      0xffffffffffffffffffffffffffffffffffffffff\n      and\n      0xffffffffffffffffffffffffffffffffffffffff\n      and\n      dup2\n      mstore\n      0x20\n      add\n      swap1\n      dup2\n      mstore\n      0x20\n      add\n      0x00\n      keccak256\n        /* \"contracts/Main.sol\":2678:2700  users[msg.sender].role */\n      0x01\n      add\n      0x00\n      swap1\n      sload\n      swap1\n      0x0100\n      exp\n      swap1\n      div\n      0xff\n      and\n        /* \"contracts/Main.sol\":2678:2709  users[msg.sender].role == _role */\n      0x04\n      dup2\n      gt\n      iszero\n      tag_127\n      jumpi\n      tag_128\n      tag_95\n      jump\t// in\n    tag_128:\n    tag_127:\n      eq\n        /* \"contracts/Main.sol\":2670:2743  require(users[msg.sender].role == _role, \"Access denied: incorrect role\") */\n      tag_129\n      jumpi\n      mload(0x40)\n      0x08c379a000000000000000000000000000000000000000000000000000000000\n      dup2\n      mstore\n      0x04\n      add\n      tag_130\n      swap1\n      tag_100\n      jump\t// in\n    tag_130:\n      mload(0x40)\n      dup1\n      swap2\n      sub\n      swap1\n      revert\n    tag_129:\n        /* \"contracts/Main.sol\":4516:4517  0 */\n      0x00\n        /* \"contracts/Main.sol\":4492:4518  _userAddress != address(0) */\n      0xffffffffffffffffffffffffffffffffffffffff\n      and\n        /* \"contracts/Main.sol\":4492:4504  _userAddress */\n      dup5\n        /* \"contracts/Main.sol\":4492:4518  _userAddress != address(0) */\n      0xffffffffffffffffffffffffffffffffffffffff\n      and\n      sub\n        /* \"contracts/Main.sol\":4484:4539  require(_userAddress != address(0), \"Invalid address!\") */\n      tag_132\n      jumpi\n      mload(0x40)\n      0x08c379a000000000000000000000000000000000000000000000000000000000\n      dup2\n      mstore\n      0x04\n      add\n      tag_133\n      swap1\n      tag_134\n      jump\t// in\n    tag_133:\n      mload(0x40)\n      dup1\n      swap2\n      sub\n      swap1\n      revert\n    tag_132:\n        /* \"contracts/Main.sol\":4572:4589  User(_name,_role) */\n      mload(0x40)\n      dup1\n      0x40\n      add\n      0x40\n      mstore\n      dup1\n        /* \"contracts/Main.sol\":4577:4582  _name */\n      dup5\n        /* \"contracts/Main.sol\":4572:4589  User(_name,_role) */\n      dup2\n      mstore\n      0x20\n      add\n        /* \"contracts/Main.sol\":4583:4588  _role */\n      dup4\n        /* \"contracts/Main.sol\":4572:4589  User(_name,_role) */\n      0x04\n      dup2\n      gt\n      iszero\n      tag_135\n      jumpi\n      tag_136\n      tag_95\n      jump\t// in\n    tag_136:\n    tag_135:\n      dup2\n      mstore\n      pop\n        /* \"contracts/Main.sol\":4550:4555  users */\n      0x02\n        /* \"contracts/Main.sol\":4550:4569  users[_userAddress] */\n      0x00\n        /* \"contracts/Main.sol\":4556:4568  _userAddress */\n      dup7\n        /* \"contracts/Main.sol\":4550:4569  users[_userAddress] */\n      0xffffffffffffffffffffffffffffffffffffffff\n      and\n      0xffffffffffffffffffffffffffffffffffffffff\n      and\n      dup2\n      mstore\n      0x20\n      add\n      swap1\n      dup2\n      mstore\n      0x20\n      add\n      0x00\n      keccak256\n        /* \"contracts/Main.sol\":4550:4589  users[_userAddress] = User(_name,_role) */\n      0x00\n      dup3\n      add\n      mload\n      dup2\n      0x00\n      add\n      swap1\n      dup2\n      tag_137\n      swap2\n      swap1\n      tag_138\n      jump\t// in\n    tag_137:\n      pop\n      0x20\n      dup3\n      add\n      mload\n      dup2\n      0x01\n      add\n      exp(0x0100, 0x00)\n      dup2\n      sload\n      dup2\n      0xff\n      mul\n      not\n      and\n      swap1\n      dup4\n      0x04\n      dup2\n      gt\n      iszero\n      tag_139\n      jumpi\n      tag_140\n      tag_95\n      jump\t// in\n    tag_140:\n    tag_139:\n      mul\n      or\n      swap1\n      sstore\n      pop\n      swap1\n      pop\n      pop\n        /* \"contracts/Main.sol\":4600:4613  userAddresses */\n      0x03\n        /* \"contracts/Main.sol\":4619:4631  _userAddress */\n      dup5\n        /* \"contracts/Main.sol\":4600:4632  userAddresses.push(_userAddress) */\n      swap1\n      dup1\n      0x01\n      dup2\n      sload\n      add\n      dup1\n      dup3\n      sstore\n      dup1\n      swap2\n      pop\n      pop\n      0x01\n      swap1\n      sub\n      swap1\n      0x00\n      mstore\n      keccak256(0x00, 0x20)\n      add\n      0x00\n      swap1\n      swap2\n      swap1\n      swap2\n      swap1\n      swap2\n      0x0100\n      exp\n      dup2\n      sload\n      dup2\n      0xffffffffffffffffffffffffffffffffffffffff\n      mul\n      not\n      and\n      swap1\n      dup4\n      0xffffffffffffffffffffffffffffffffffffffff\n      and\n      mul\n      or\n      swap1\n      sstore\n      pop\n        /* \"contracts/Main.sol\":4643:4669  string memory current_role */\n      0x00\n        /* \"contracts/Main.sol\":4672:4691  roleToString(_role) */\n      tag_142\n        /* \"contracts/Main.sol\":4685:4690  _role */\n      dup4\n        /* \"contracts/Main.sol\":4672:4684  roleToString */\n      tag_143\n        /* \"contracts/Main.sol\":4672:4691  roleToString(_role) */\n      jump\t// in\n    tag_142:\n        /* \"contracts/Main.sol\":4643:4691  string memory current_role = roleToString(_role) */\n      swap1\n      pop\n        /* \"contracts/Main.sol\":4747:4759  _userAddress */\n      dup5\n        /* \"contracts/Main.sol\":4709:4781  UserAdded(\"User added successfully!\", _userAddress, _name, current_role) */\n      0xffffffffffffffffffffffffffffffffffffffff\n      and\n      0xc2b801d81f6e22509f9eed15df60b144df9483674ff7a983aa3d2c378e7ae5f0\n        /* \"contracts/Main.sol\":4761:4766  _name */\n      dup6\n        /* \"contracts/Main.sol\":4768:4780  current_role */\n      dup4\n        /* \"contracts/Main.sol\":4709:4781  UserAdded(\"User added successfully!\", _userAddress, _name, current_role) */\n      mload(0x40)\n      tag_144\n      swap3\n      swap2\n      swap1\n      tag_145\n      jump\t// in\n    tag_144:\n      mload(0x40)\n      dup1\n      swap2\n      sub\n      swap1\n      log2\n        /* \"contracts/Main.sol\":4473:4789  {... */\n      pop\n        /* \"contracts/Main.sol\":4373:4789  function addUser (address _userAddress, string memory _name, Role _role) public onlyRole(Role.Admin){... */\n      pop\n      pop\n      pop\n      pop\n      jump\t// out\n        /* \"contracts/Main.sol\":2001:2031  address[] public userAddresses */\n    tag_44:\n      0x03\n      dup2\n      dup2\n      sload\n      dup2\n      lt\n      tag_146\n      jumpi\n      0x00\n      dup1\n      revert\n    tag_146:\n      swap1\n      0x00\n      mstore\n      keccak256(0x00, 0x20)\n      add\n      0x00\n      swap2\n      pop\n      sload\n      swap1\n      0x0100\n      exp\n      swap1\n      div\n      0xffffffffffffffffffffffffffffffffffffffff\n      and\n      dup2\n      jump\t// out\n        /* \"contracts/Main.sol\":4816:5596  function deleteUser(address _userAddress) public onlyRole(Role.Admin){... */\n    tag_50:\n        /* \"contracts/Main.sol\":4874:4884  Role.Admin */\n      0x01\n        /* \"contracts/Main.sol\":2704:2709  _role */\n      dup1\n        /* \"contracts/Main.sol\":2678:2709  users[msg.sender].role == _role */\n      0x04\n      dup2\n      gt\n      iszero\n      tag_149\n      jumpi\n      tag_150\n      tag_95\n      jump\t// in\n    tag_150:\n    tag_149:\n        /* \"contracts/Main.sol\":2678:2683  users */\n      0x02\n        /* \"contracts/Main.sol\":2678:2695  users[msg.sender] */\n      0x00\n        /* \"contracts/Main.sol\":2684:2694  msg.sender */\n      caller\n        /* \"contracts/Main.sol\":2678:2695  users[msg.sender] */\n      0xffffffffffffffffffffffffffffffffffffffff\n      and\n      0xffffffffffffffffffffffffffffffffffffffff\n      and\n      dup2\n      mstore\n      0x20\n      add\n      swap1\n      dup2\n      mstore\n      0x20\n      add\n      0x00\n      keccak256\n        /* \"contracts/Main.sol\":2678:2700  users[msg.sender].role */\n      0x01\n      add\n      0x00\n      swap1\n      sload\n      swap1\n      0x0100\n      exp\n      swap1\n      div\n      0xff\n      and\n        /* \"contracts/Main.sol\":2678:2709  users[msg.sender].role == _role */\n      0x04\n      dup2\n      gt\n      iszero\n      tag_151\n      jumpi\n      tag_152\n      tag_95\n      jump\t// in\n    tag_152:\n    tag_151:\n      eq\n        /* \"contracts/Main.sol\":2670:2743  require(users[msg.sender].role == _role, \"Access denied: incorrect role\") */\n      tag_153\n      jumpi\n      mload(0x40)\n      0x08c379a000000000000000000000000000000000000000000000000000000000\n      dup2\n      mstore\n      0x04\n      add\n      tag_154\n      swap1\n      tag_100\n      jump\t// in\n    tag_154:\n      mload(0x40)\n      dup1\n      swap2\n      sub\n      swap1\n      revert\n    tag_153:\n        /* \"contracts/Main.sol\":4928:4929  0 */\n      0x00\n        /* \"contracts/Main.sol\":4904:4930  _userAddress != address(0) */\n      0xffffffffffffffffffffffffffffffffffffffff\n      and\n        /* \"contracts/Main.sol\":4904:4916  _userAddress */\n      dup3\n        /* \"contracts/Main.sol\":4904:4930  _userAddress != address(0) */\n      0xffffffffffffffffffffffffffffffffffffffff\n      and\n      sub\n        /* \"contracts/Main.sol\":4896:4951  require(_userAddress != address(0), \"Invalid address!\") */\n      tag_156\n      jumpi\n      mload(0x40)\n      0x08c379a000000000000000000000000000000000000000000000000000000000\n      dup2\n      mstore\n      0x04\n      add\n      tag_157\n      swap1\n      tag_134\n      jump\t// in\n    tag_157:\n      mload(0x40)\n      dup1\n      swap2\n      sub\n      swap1\n      revert\n    tag_156:\n        /* \"contracts/Main.sol\":4962:4980  string memory name */\n      0x00\n        /* \"contracts/Main.sol\":4983:4988  users */\n      0x02\n        /* \"contracts/Main.sol\":4983:5002  users[_userAddress] */\n      0x00\n        /* \"contracts/Main.sol\":4989:5001  _userAddress */\n      dup5\n        /* \"contracts/Main.sol\":4983:5002  users[_userAddress] */\n      0xffffffffffffffffffffffffffffffffffffffff\n      and\n      0xffffffffffffffffffffffffffffffffffffffff\n      and\n      dup2\n      mstore\n      0x20\n      add\n      swap1\n      dup2\n      mstore\n      0x20\n      add\n      0x00\n      keccak256\n        /* \"contracts/Main.sol\":4983:5007  users[_userAddress].name */\n      0x00\n      add\n        /* \"contracts/Main.sol\":4962:5007  string memory name = users[_userAddress].name */\n      dup1\n      sload\n      tag_158\n      swap1\n      tag_109\n      jump\t// in\n    tag_158:\n      dup1\n      0x1f\n      add\n      0x20\n      dup1\n      swap2\n      div\n      mul\n      0x20\n      add\n      mload(0x40)\n      swap1\n      dup2\n      add\n      0x40\n      mstore\n      dup1\n      swap3\n      swap2\n      swap1\n      dup2\n      dup2\n      mstore\n      0x20\n      add\n      dup3\n      dup1\n      sload\n      tag_159\n      swap1\n      tag_109\n      jump\t// in\n    tag_159:\n      dup1\n      iszero\n      tag_160\n      jumpi\n      dup1\n      0x1f\n      lt\n      tag_161\n      jumpi\n      0x0100\n      dup1\n      dup4\n      sload\n      div\n      mul\n      dup4\n      mstore\n      swap2\n      0x20\n      add\n      swap2\n      jump(tag_160)\n    tag_161:\n      dup3\n      add\n      swap2\n      swap1\n      0x00\n      mstore\n      keccak256(0x00, 0x20)\n      swap1\n    tag_162:\n      dup2\n      sload\n      dup2\n      mstore\n      swap1\n      0x01\n      add\n      swap1\n      0x20\n      add\n      dup1\n      dup4\n      gt\n      tag_162\n      jumpi\n      dup3\n      swap1\n      sub\n      0x1f\n      and\n      dup3\n      add\n      swap2\n    tag_160:\n      pop\n      pop\n      pop\n      pop\n      pop\n      swap1\n      pop\n        /* \"contracts/Main.sol\":5018:5044  string memory current_role */\n      0x00\n        /* \"contracts/Main.sol\":5047:5085  roleToString(users[_userAddress].role) */\n      tag_163\n        /* \"contracts/Main.sol\":5060:5065  users */\n      0x02\n        /* \"contracts/Main.sol\":5060:5079  users[_userAddress] */\n      0x00\n        /* \"contracts/Main.sol\":5066:5078  _userAddress */\n      dup7\n        /* \"contracts/Main.sol\":5060:5079  users[_userAddress] */\n      0xffffffffffffffffffffffffffffffffffffffff\n      and\n      0xffffffffffffffffffffffffffffffffffffffff\n      and\n      dup2\n      mstore\n      0x20\n      add\n      swap1\n      dup2\n      mstore\n      0x20\n      add\n      0x00\n      keccak256\n        /* \"contracts/Main.sol\":5060:5084  users[_userAddress].role */\n      0x01\n      add\n      0x00\n      swap1\n      sload\n      swap1\n      0x0100\n      exp\n      swap1\n      div\n      0xff\n      and\n        /* \"contracts/Main.sol\":5047:5059  roleToString */\n      tag_143\n        /* \"contracts/Main.sol\":5047:5085  roleToString(users[_userAddress].role) */\n      jump\t// in\n    tag_163:\n        /* \"contracts/Main.sol\":5018:5085  string memory current_role = roleToString(users[_userAddress].role) */\n      swap1\n      pop\n        /* \"contracts/Main.sol\":5141:5146  users */\n      0x02\n        /* \"contracts/Main.sol\":5141:5160  users[_userAddress] */\n      0x00\n        /* \"contracts/Main.sol\":5147:5159  _userAddress */\n      dup6\n        /* \"contracts/Main.sol\":5141:5160  users[_userAddress] */\n      0xffffffffffffffffffffffffffffffffffffffff\n      and\n      0xffffffffffffffffffffffffffffffffffffffff\n      and\n      dup2\n      mstore\n      0x20\n      add\n      swap1\n      dup2\n      mstore\n      0x20\n      add\n      0x00\n      keccak256\n      0x00\n        /* \"contracts/Main.sol\":5134:5160  delete users[_userAddress] */\n      dup1\n      dup3\n      add\n      0x00\n      tag_164\n      swap2\n      swap1\n      tag_165\n      jump\t// in\n    tag_164:\n      0x01\n      dup3\n      add\n      exp(0x0100, 0x00)\n      dup2\n      sload\n      swap1\n      0xff\n      mul\n      not\n      and\n      swap1\n      sstore\n      pop\n      pop\n        /* \"contracts/Main.sol\":5234:5240  uint i */\n      0x00\n        /* \"contracts/Main.sol\":5229:5496  for (uint i = 0; i < userAddresses.length; i++) {... */\n    tag_166:\n        /* \"contracts/Main.sol\":5250:5263  userAddresses */\n      0x03\n        /* \"contracts/Main.sol\":5250:5270  userAddresses.length */\n      dup1\n      sload\n      swap1\n      pop\n        /* \"contracts/Main.sol\":5246:5247  i */\n      dup2\n        /* \"contracts/Main.sol\":5246:5270  i < userAddresses.length */\n      lt\n        /* \"contracts/Main.sol\":5229:5496  for (uint i = 0; i < userAddresses.length; i++) {... */\n      iszero\n      tag_167\n      jumpi\n        /* \"contracts/Main.sol\":5316:5328  _userAddress */\n      dup5\n        /* \"contracts/Main.sol\":5296:5328  userAddresses[i] == _userAddress */\n      0xffffffffffffffffffffffffffffffffffffffff\n      and\n        /* \"contracts/Main.sol\":5296:5309  userAddresses */\n      0x03\n        /* \"contracts/Main.sol\":5310:5311  i */\n      dup3\n        /* \"contracts/Main.sol\":5296:5312  userAddresses[i] */\n      dup2\n      sload\n      dup2\n      lt\n      tag_169\n      jumpi\n      tag_170\n      tag_171\n      jump\t// in\n    tag_170:\n    tag_169:\n      swap1\n      0x00\n      mstore\n      keccak256(0x00, 0x20)\n      add\n      0x00\n      swap1\n      sload\n      swap1\n      0x0100\n      exp\n      swap1\n      div\n      0xffffffffffffffffffffffffffffffffffffffff\n      and\n        /* \"contracts/Main.sol\":5296:5328  userAddresses[i] == _userAddress */\n      0xffffffffffffffffffffffffffffffffffffffff\n      and\n      sub\n        /* \"contracts/Main.sol\":5292:5485  if (userAddresses[i] == _userAddress) {... */\n      tag_173\n      jumpi\n        /* \"contracts/Main.sol\":5368:5381  userAddresses */\n      0x03\n        /* \"contracts/Main.sol\":5405:5406  1 */\n      0x01\n        /* \"contracts/Main.sol\":5382:5395  userAddresses */\n      0x03\n        /* \"contracts/Main.sol\":5382:5402  userAddresses.length */\n      dup1\n      sload\n      swap1\n      pop\n        /* \"contracts/Main.sol\":5382:5406  userAddresses.length - 1 */\n      tag_174\n      swap2\n      swap1\n      tag_175\n      jump\t// in\n    tag_174:\n        /* \"contracts/Main.sol\":5368:5407  userAddresses[userAddresses.length - 1] */\n      dup2\n      sload\n      dup2\n      lt\n      tag_176\n      jumpi\n      tag_177\n      tag_171\n      jump\t// in\n    tag_177:\n    tag_176:\n      swap1\n      0x00\n      mstore\n      keccak256(0x00, 0x20)\n      add\n      0x00\n      swap1\n      sload\n      swap1\n      0x0100\n      exp\n      swap1\n      div\n      0xffffffffffffffffffffffffffffffffffffffff\n      and\n        /* \"contracts/Main.sol\":5349:5362  userAddresses */\n      0x03\n        /* \"contracts/Main.sol\":5363:5364  i */\n      dup3\n        /* \"contracts/Main.sol\":5349:5365  userAddresses[i] */\n      dup2\n      sload\n      dup2\n      lt\n      tag_179\n      jumpi\n      tag_180\n      tag_171\n      jump\t// in\n    tag_180:\n    tag_179:\n      swap1\n      0x00\n      mstore\n      keccak256(0x00, 0x20)\n      add\n      0x00\n        /* \"contracts/Main.sol\":5349:5407  userAddresses[i] = userAddresses[userAddresses.length - 1] */\n      0x0100\n      exp\n      dup2\n      sload\n      dup2\n      0xffffffffffffffffffffffffffffffffffffffff\n      mul\n      not\n      and\n      swap1\n      dup4\n      0xffffffffffffffffffffffffffffffffffffffff\n      and\n      mul\n      or\n      swap1\n      sstore\n      pop\n        /* \"contracts/Main.sol\":5426:5439  userAddresses */\n      0x03\n        /* \"contracts/Main.sol\":5426:5445  userAddresses.pop() */\n      dup1\n      sload\n      dup1\n      tag_182\n      jumpi\n      tag_183\n      tag_184\n      jump\t// in\n    tag_183:\n    tag_182:\n      0x01\n      swap1\n      sub\n      dup2\n      dup2\n      swap1\n      0x00\n      mstore\n      keccak256(0x00, 0x20)\n      add\n      exp(0x0100, 0x00)\n      dup2\n      sload\n      swap1\n      0xffffffffffffffffffffffffffffffffffffffff\n      mul\n      not\n      and\n      swap1\n      sstore\n      swap1\n      sstore\n        /* \"contracts/Main.sol\":5464:5469  break */\n      jump(tag_167)\n        /* \"contracts/Main.sol\":5292:5485  if (userAddresses[i] == _userAddress) {... */\n    tag_173:\n        /* \"contracts/Main.sol\":5272:5275  i++ */\n      dup1\n      dup1\n      tag_186\n      swap1\n      tag_187\n      jump\t// in\n    tag_186:\n      swap2\n      pop\n      pop\n        /* \"contracts/Main.sol\":5229:5496  for (uint i = 0; i < userAddresses.length; i++) {... */\n      jump(tag_166)\n    tag_167:\n      pop\n        /* \"contracts/Main.sol\":5555:5567  _userAddress */\n      dup4\n        /* \"contracts/Main.sol\":5513:5588  UserDeleted(\"User deleted successfully!\", _userAddress, name, current_role) */\n      0xffffffffffffffffffffffffffffffffffffffff\n      and\n      0xc15d693267c3b1d5b865044ab75f608276dc7369a471245e8f087042c9236c08\n        /* \"contracts/Main.sol\":5569:5573  name */\n      dup4\n        /* \"contracts/Main.sol\":5575:5587  current_role */\n      dup4\n        /* \"contracts/Main.sol\":5513:5588  UserDeleted(\"User deleted successfully!\", _userAddress, name, current_role) */\n      mload(0x40)\n      tag_188\n      swap3\n      swap2\n      swap1\n      tag_189\n      jump\t// in\n    tag_188:\n      mload(0x40)\n      dup1\n      swap2\n      sub\n      swap1\n      log2\n        /* \"contracts/Main.sol\":4885:5596  {... */\n      pop\n      pop\n        /* \"contracts/Main.sol\":4816:5596  function deleteUser(address _userAddress) public onlyRole(Role.Admin){... */\n      pop\n      pop\n      jump\t// out\n        /* \"contracts/Main.sol\":2080:2119  mapping(uint => Entity) public entities */\n    tag_53:\n      mstore(0x20, 0x04)\n      dup1\n      0x00\n      mstore\n      keccak256(0x00, 0x40)\n      0x00\n      swap2\n      pop\n      swap1\n      pop\n      dup1\n      0x00\n      add\n      dup1\n      sload\n      tag_190\n      swap1\n      tag_109\n      jump\t// in\n    tag_190:\n      dup1\n      0x1f\n      add\n      0x20\n      dup1\n      swap2\n      div\n      mul\n      0x20\n      add\n      mload(0x40)\n      swap1\n      dup2\n      add\n      0x40\n      mstore\n      dup1\n      swap3\n      swap2\n      swap1\n      dup2\n      dup2\n      mstore\n      0x20\n      add\n      dup3\n      dup1\n      sload\n      tag_191\n      swap1\n      tag_109\n      jump\t// in\n    tag_191:\n      dup1\n      iszero\n      tag_192\n      jumpi\n      dup1\n      0x1f\n      lt\n      tag_193\n      jumpi\n      0x0100\n      dup1\n      dup4\n      sload\n      div\n      mul\n      dup4\n      mstore\n      swap2\n      0x20\n      add\n      swap2\n      jump(tag_192)\n    tag_193:\n      dup3\n      add\n      swap2\n      swap1\n      0x00\n      mstore\n      keccak256(0x00, 0x20)\n      swap1\n    tag_194:\n      dup2\n      sload\n      dup2\n      mstore\n      swap1\n      0x01\n      add\n      swap1\n      0x20\n      add\n      dup1\n      dup4\n      gt\n      tag_194\n      jumpi\n      dup3\n      swap1\n      sub\n      0x1f\n      and\n      dup3\n      add\n      swap2\n    tag_192:\n      pop\n      pop\n      pop\n      pop\n      pop\n      swap1\n      dup1\n      0x01\n      add\n      0x00\n      swap1\n      sload\n      swap1\n      0x0100\n      exp\n      swap1\n      div\n      0xff\n      and\n      swap1\n      pop\n      dup3\n      jump\t// out\n        /* \"contracts/Main.sol\":6180:6372  function getUserByAddress(address _userAddress) public view returns (User memory) {... */\n    tag_57:\n        /* \"contracts/Main.sol\":6249:6260  User memory */\n      tag_195\n      tag_196\n      jump\t// in\n    tag_195:\n        /* \"contracts/Main.sol\":6305:6306  0 */\n      0x00\n        /* \"contracts/Main.sol\":6281:6307  _userAddress != address(0) */\n      0xffffffffffffffffffffffffffffffffffffffff\n      and\n        /* \"contracts/Main.sol\":6281:6293  _userAddress */\n      dup3\n        /* \"contracts/Main.sol\":6281:6307  _userAddress != address(0) */\n      0xffffffffffffffffffffffffffffffffffffffff\n      and\n      sub\n        /* \"contracts/Main.sol\":6273:6327  require(_userAddress != address(0), \"Invalid address\") */\n      tag_198\n      jumpi\n      mload(0x40)\n      0x08c379a000000000000000000000000000000000000000000000000000000000\n      dup2\n      mstore\n      0x04\n      add\n      tag_199\n      swap1\n      tag_104\n      jump\t// in\n    tag_199:\n      mload(0x40)\n      dup1\n      swap2\n      sub\n      swap1\n      revert\n    tag_198:\n        /* \"contracts/Main.sol\":6345:6350  users */\n      0x02\n        /* \"contracts/Main.sol\":6345:6364  users[_userAddress] */\n      0x00\n        /* \"contracts/Main.sol\":6351:6363  _userAddress */\n      dup4\n        /* \"contracts/Main.sol\":6345:6364  users[_userAddress] */\n      0xffffffffffffffffffffffffffffffffffffffff\n      and\n      0xffffffffffffffffffffffffffffffffffffffff\n      and\n      dup2\n      mstore\n      0x20\n      add\n      swap1\n      dup2\n      mstore\n      0x20\n      add\n      0x00\n      keccak256\n        /* \"contracts/Main.sol\":6338:6364  return users[_userAddress] */\n      mload(0x40)\n      dup1\n      0x40\n      add\n      0x40\n      mstore\n      swap1\n      dup2\n      0x00\n      dup3\n      add\n      dup1\n      sload\n      tag_200\n      swap1\n      tag_109\n      jump\t// in\n    tag_200:\n      dup1\n      0x1f\n      add\n      0x20\n      dup1\n      swap2\n      div\n      mul\n      0x20\n      add\n      mload(0x40)\n      swap1\n      dup2\n      add\n      0x40\n      mstore\n      dup1\n      swap3\n      swap2\n      swap1\n      dup2\n      dup2\n      mstore\n      0x20\n      add\n      dup3\n      dup1\n      sload\n      tag_201\n      swap1\n      tag_109\n      jump\t// in\n    tag_201:\n      dup1\n      iszero\n      tag_202\n      jumpi\n      dup1\n      0x1f\n      lt\n      tag_203\n      jumpi\n      0x0100\n      dup1\n      dup4\n      sload\n      div\n      mul\n      dup4\n      mstore\n      swap2\n      0x20\n      add\n      swap2\n      jump(tag_202)\n    tag_203:\n      dup3\n      add\n      swap2\n      swap1\n      0x00\n      mstore\n      keccak256(0x00, 0x20)\n      swap1\n    tag_204:\n      dup2\n      sload\n      dup2\n      mstore\n      swap1\n      0x01\n      add\n      swap1\n      0x20\n      add\n      dup1\n      dup4\n      gt\n      tag_204\n      jumpi\n      dup3\n      swap1\n      sub\n      0x1f\n      and\n      dup3\n      add\n      swap2\n    tag_202:\n      pop\n      pop\n      pop\n      pop\n      pop\n      dup2\n      mstore\n      0x20\n      add\n      0x01\n      dup3\n      add\n      0x00\n      swap1\n      sload\n      swap1\n      0x0100\n      exp\n      swap1\n      div\n      0xff\n      and\n      0x04\n      dup2\n      gt\n      iszero\n      tag_205\n      jumpi\n      tag_206\n      tag_95\n      jump\t// in\n    tag_206:\n    tag_205:\n      0x04\n      dup2\n      gt\n      iszero\n      tag_207\n      jumpi\n      tag_208\n      tag_95\n      jump\t// in\n    tag_208:\n    tag_207:\n      dup2\n      mstore\n      pop\n      pop\n      swap1\n      pop\n        /* \"contracts/Main.sol\":6180:6372  function getUserByAddress(address _userAddress) public view returns (User memory) {... */\n      swap2\n      swap1\n      pop\n      jump\t// out\n        /* \"contracts/Main.sol\":150:191  string public contractAuthor = 'MGT TEAM' */\n    tag_61:\n      0x01\n      dup1\n      sload\n      tag_209\n      swap1\n      tag_109\n      jump\t// in\n    tag_209:\n      dup1\n      0x1f\n      add\n      0x20\n      dup1\n      swap2\n      div\n      mul\n      0x20\n      add\n      mload(0x40)\n      swap1\n      dup2\n      add\n      0x40\n      mstore\n      dup1\n      swap3\n      swap2\n      swap1\n      dup2\n      dup2\n      mstore\n      0x20\n      add\n      dup3\n      dup1\n      sload\n      tag_210\n      swap1\n      tag_109\n      jump\t// in\n    tag_210:\n      dup1\n      iszero\n      tag_211\n      jumpi\n      dup1\n      0x1f\n      lt\n      tag_212\n      jumpi\n      0x0100\n      dup1\n      dup4\n      sload\n      div\n      mul\n      dup4\n      mstore\n      swap2\n      0x20\n      add\n      swap2\n      jump(tag_211)\n    tag_212:\n      dup3\n      add\n      swap2\n      swap1\n      0x00\n      mstore\n      keccak256(0x00, 0x20)\n      swap1\n    tag_213:\n      dup2\n      sload\n      dup2\n      mstore\n      swap1\n      0x01\n      add\n      swap1\n      0x20\n      add\n      dup1\n      dup4\n      gt\n      tag_213\n      jumpi\n      dup3\n      swap1\n      sub\n      0x1f\n      and\n      dup3\n      add\n      swap2\n    tag_211:\n      pop\n      pop\n      pop\n      pop\n      pop\n      dup2\n      jump\t// out\n        /* \"contracts/Main.sol\":123:143  address public owner */\n    tag_65:\n      0x00\n      dup1\n      sload\n      swap1\n      0x0100\n      exp\n      swap1\n      div\n      0xffffffffffffffffffffffffffffffffffffffff\n      and\n      dup2\n      jump\t// out\n        /* \"contracts/Main.sol\":4078:4312  function changeOwner(address newOwner) public onlyOwner {... */\n    tag_69:\n        /* \"contracts/Main.sol\":2480:2485  owner */\n      0x00\n      dup1\n      sload\n      swap1\n      0x0100\n      exp\n      swap1\n      div\n      0xffffffffffffffffffffffffffffffffffffffff\n      and\n        /* \"contracts/Main.sol\":2466:2485  msg.sender == owner */\n      0xffffffffffffffffffffffffffffffffffffffff\n      and\n        /* \"contracts/Main.sol\":2466:2476  msg.sender */\n      caller\n        /* \"contracts/Main.sol\":2466:2485  msg.sender == owner */\n      0xffffffffffffffffffffffffffffffffffffffff\n      and\n      eq\n        /* \"contracts/Main.sol\":2458:2532  require(msg.sender == owner, \"Only contract owner can call this function\") */\n      tag_215\n      jumpi\n      mload(0x40)\n      0x08c379a000000000000000000000000000000000000000000000000000000000\n      dup2\n      mstore\n      0x04\n      add\n      tag_216\n      swap1\n      tag_217\n      jump\t// in\n    tag_216:\n      mload(0x40)\n      dup1\n      swap2\n      sub\n      swap1\n      revert\n    tag_215:\n        /* \"contracts/Main.sol\":4173:4174  0 */\n      0x00\n        /* \"contracts/Main.sol\":4153:4175  newOwner != address(0) */\n      0xffffffffffffffffffffffffffffffffffffffff\n      and\n        /* \"contracts/Main.sol\":4153:4161  newOwner */\n      dup2\n        /* \"contracts/Main.sol\":4153:4175  newOwner != address(0) */\n      0xffffffffffffffffffffffffffffffffffffffff\n      and\n      sub\n        /* \"contracts/Main.sol\":4145:4196  require(newOwner != address(0), \"Invalid address!\") */\n      tag_219\n      jumpi\n      mload(0x40)\n      0x08c379a000000000000000000000000000000000000000000000000000000000\n      dup2\n      mstore\n      0x04\n      add\n      tag_220\n      swap1\n      tag_134\n      jump\t// in\n    tag_220:\n      mload(0x40)\n      dup1\n      swap2\n      sub\n      swap1\n      revert\n    tag_219:\n        /* \"contracts/Main.sol\":4215:4223  newOwner */\n      dup1\n        /* \"contracts/Main.sol\":4207:4212  owner */\n      0x00\n      dup1\n        /* \"contracts/Main.sol\":4207:4223  owner = newOwner */\n      0x0100\n      exp\n      dup2\n      sload\n      dup2\n      0xffffffffffffffffffffffffffffffffffffffff\n      mul\n      not\n      and\n      swap1\n      dup4\n      0xffffffffffffffffffffffffffffffffffffffff\n      and\n      mul\n      or\n      swap1\n      sstore\n      pop\n        /* \"contracts/Main.sol\":4239:4304  OwnerChanged(\"Owner changed successfully!\", msg.sender, newOwner) */\n      0xf86060286164733a3b0bae3ba4b62f85dc6020ba2ee440318bf5b6be6d0d93a8\n        /* \"contracts/Main.sol\":4283:4293  msg.sender */\n      caller\n        /* \"contracts/Main.sol\":4295:4303  newOwner */\n      dup3\n        /* \"contracts/Main.sol\":4239:4304  OwnerChanged(\"Owner changed successfully!\", msg.sender, newOwner) */\n      mload(0x40)\n      tag_221\n      swap3\n      swap2\n      swap1\n      tag_222\n      jump\t// in\n    tag_221:\n      mload(0x40)\n      dup1\n      swap2\n      sub\n      swap1\n      log1\n        /* \"contracts/Main.sol\":4078:4312  function changeOwner(address newOwner) public onlyOwner {... */\n      pop\n      jump\t// out\n        /* \"contracts/Main.sol\":1957:1994  mapping(address => User) public users */\n    tag_72:\n      mstore(0x20, 0x02)\n      dup1\n      0x00\n      mstore\n      keccak256(0x00, 0x40)\n      0x00\n      swap2\n      pop\n      swap1\n      pop\n      dup1\n      0x00\n      add\n      dup1\n      sload\n      tag_223\n      swap1\n      tag_109\n      jump\t// in\n    tag_223:\n      dup1\n      0x1f\n      add\n      0x20\n      dup1\n      swap2\n      div\n      mul\n      0x20\n      add\n      mload(0x40)\n      swap1\n      dup2\n      add\n      0x40\n      mstore\n      dup1\n      swap3\n      swap2\n      swap1\n      dup2\n      dup2\n      mstore\n      0x20\n      add\n      dup3\n      dup1\n      sload\n      tag_224\n      swap1\n      tag_109\n      jump\t// in\n    tag_224:\n      dup1\n      iszero\n      tag_225\n      jumpi\n      dup1\n      0x1f\n      lt\n      tag_226\n      jumpi\n      0x0100\n      dup1\n      dup4\n      sload\n      div\n      mul\n      dup4\n      mstore\n      swap2\n      0x20\n      add\n      swap2\n      jump(tag_225)\n    tag_226:\n      dup3\n      add\n      swap2\n      swap1\n      0x00\n      mstore\n      keccak256(0x00, 0x20)\n      swap1\n    tag_227:\n      dup2\n      sload\n      dup2\n      mstore\n      swap1\n      0x01\n      add\n      swap1\n      0x20\n      add\n      dup1\n      dup4\n      gt\n      tag_227\n      jumpi\n      dup3\n      swap1\n      sub\n      0x1f\n      and\n      dup3\n      add\n      swap2\n    tag_225:\n      pop\n      pop\n      pop\n      pop\n      pop\n      swap1\n      dup1\n      0x01\n      add\n      0x00\n      swap1\n      sload\n      swap1\n      0x0100\n      exp\n      swap1\n      div\n      0xff\n      and\n      swap1\n      pop\n      dup3\n      jump\t// out\n        /* \"contracts/Main.sol\":6409:7098  function addEntity(uint entityId, string memory name, EntityType entityType) public onlyRole(Role.Admin){... */\n    tag_78:\n        /* \"contracts/Main.sol\":6502:6512  Role.Admin */\n      0x01\n        /* \"contracts/Main.sol\":2704:2709  _role */\n      dup1\n        /* \"contracts/Main.sol\":2678:2709  users[msg.sender].role == _role */\n      0x04\n      dup2\n      gt\n      iszero\n      tag_229\n      jumpi\n      tag_230\n      tag_95\n      jump\t// in\n    tag_230:\n    tag_229:\n        /* \"contracts/Main.sol\":2678:2683  users */\n      0x02\n        /* \"contracts/Main.sol\":2678:2695  users[msg.sender] */\n      0x00\n        /* \"contracts/Main.sol\":2684:2694  msg.sender */\n      caller\n        /* \"contracts/Main.sol\":2678:2695  users[msg.sender] */\n      0xffffffffffffffffffffffffffffffffffffffff\n      and\n      0xffffffffffffffffffffffffffffffffffffffff\n      and\n      dup2\n      mstore\n      0x20\n      add\n      swap1\n      dup2\n      mstore\n      0x20\n      add\n      0x00\n      keccak256\n        /* \"contracts/Main.sol\":2678:2700  users[msg.sender].role */\n      0x01\n      add\n      0x00\n      swap1\n      sload\n      swap1\n      0x0100\n      exp\n      swap1\n      div\n      0xff\n      and\n        /* \"contracts/Main.sol\":2678:2709  users[msg.sender].role == _role */\n      0x04\n      dup2\n      gt\n      iszero\n      tag_231\n      jumpi\n      tag_232\n      tag_95\n      jump\t// in\n    tag_232:\n    tag_231:\n      eq\n        /* \"contracts/Main.sol\":2670:2743  require(users[msg.sender].role == _role, \"Access denied: incorrect role\") */\n      tag_233\n      jumpi\n      mload(0x40)\n      0x08c379a000000000000000000000000000000000000000000000000000000000\n      dup2\n      mstore\n      0x04\n      add\n      tag_234\n      swap1\n      tag_100\n      jump\t// in\n    tag_234:\n      mload(0x40)\n      dup1\n      swap2\n      sub\n      swap1\n      revert\n    tag_233:\n        /* \"contracts/Main.sol\":6623:6624  0 */\n      0x00\n        /* \"contracts/Main.sol\":6588:6596  entities */\n      0x04\n        /* \"contracts/Main.sol\":6588:6606  entities[entityId] */\n      0x00\n        /* \"contracts/Main.sol\":6597:6605  entityId */\n      dup7\n        /* \"contracts/Main.sol\":6588:6606  entities[entityId] */\n      dup2\n      mstore\n      0x20\n      add\n      swap1\n      dup2\n      mstore\n      0x20\n      add\n      0x00\n      keccak256\n        /* \"contracts/Main.sol\":6588:6611  entities[entityId].name */\n      0x00\n      add\n        /* \"contracts/Main.sol\":6582:6619  bytes(entities[entityId].name).length */\n      dup1\n      sload\n      tag_236\n      swap1\n      tag_109\n      jump\t// in\n    tag_236:\n      swap1\n      pop\n        /* \"contracts/Main.sol\":6582:6624  bytes(entities[entityId].name).length == 0 */\n      eq\n        /* \"contracts/Main.sol\":6574:6653  require(bytes(entities[entityId].name).length == 0, \"Entity ID already exists\") */\n      tag_237\n      jumpi\n      mload(0x40)\n      0x08c379a000000000000000000000000000000000000000000000000000000000\n      dup2\n      mstore\n      0x04\n      add\n      tag_238\n      swap1\n      tag_239\n      jump\t// in\n    tag_238:\n      mload(0x40)\n      dup1\n      swap2\n      sub\n      swap1\n      revert\n    tag_237:\n        /* \"contracts/Main.sol\":6742:6743  0 */\n      0x00\n        /* \"contracts/Main.sol\":6724:6732  nameToId */\n      0x05\n        /* \"contracts/Main.sol\":6733:6737  name */\n      dup5\n        /* \"contracts/Main.sol\":6724:6738  nameToId[name] */\n      mload(0x40)\n      tag_240\n      swap2\n      swap1\n      tag_120\n      jump\t// in\n    tag_240:\n      swap1\n      dup2\n      mstore\n      0x20\n      add\n      mload(0x40)\n      dup1\n      swap2\n      sub\n      swap1\n      keccak256\n      sload\n        /* \"contracts/Main.sol\":6724:6743  nameToId[name] == 0 */\n      eq\n        /* \"contracts/Main.sol\":6716:6774  require(nameToId[name] == 0, \"Entity name already exists\") */\n      tag_241\n      jumpi\n      mload(0x40)\n      0x08c379a000000000000000000000000000000000000000000000000000000000\n      dup2\n      mstore\n      0x04\n      add\n      tag_242\n      swap1\n      tag_243\n      jump\t// in\n    tag_242:\n      mload(0x40)\n      dup1\n      swap2\n      sub\n      swap1\n      revert\n    tag_241:\n        /* \"contracts/Main.sol\":6851:6875  Entity(name, entityType) */\n      mload(0x40)\n      dup1\n      0x40\n      add\n      0x40\n      mstore\n      dup1\n        /* \"contracts/Main.sol\":6858:6862  name */\n      dup5\n        /* \"contracts/Main.sol\":6851:6875  Entity(name, entityType) */\n      dup2\n      mstore\n      0x20\n      add\n        /* \"contracts/Main.sol\":6864:6874  entityType */\n      dup4\n        /* \"contracts/Main.sol\":6851:6875  Entity(name, entityType) */\n      0x04\n      dup2\n      gt\n      iszero\n      tag_244\n      jumpi\n      tag_245\n      tag_95\n      jump\t// in\n    tag_245:\n    tag_244:\n      dup2\n      mstore\n      pop\n        /* \"contracts/Main.sol\":6830:6838  entities */\n      0x04\n        /* \"contracts/Main.sol\":6830:6848  entities[entityId] */\n      0x00\n        /* \"contracts/Main.sol\":6839:6847  entityId */\n      dup7\n        /* \"contracts/Main.sol\":6830:6848  entities[entityId] */\n      dup2\n      mstore\n      0x20\n      add\n      swap1\n      dup2\n      mstore\n      0x20\n      add\n      0x00\n      keccak256\n        /* \"contracts/Main.sol\":6830:6875  entities[entityId] = Entity(name, entityType) */\n      0x00\n      dup3\n      add\n      mload\n      dup2\n      0x00\n      add\n      swap1\n      dup2\n      tag_246\n      swap2\n      swap1\n      tag_138\n      jump\t// in\n    tag_246:\n      pop\n      0x20\n      dup3\n      add\n      mload\n      dup2\n      0x01\n      add\n      exp(0x0100, 0x00)\n      dup2\n      sload\n      dup2\n      0xff\n      mul\n      not\n      and\n      swap1\n      dup4\n      0x04\n      dup2\n      gt\n      iszero\n      tag_247\n      jumpi\n      tag_248\n      tag_95\n      jump\t// in\n    tag_248:\n    tag_247:\n      mul\n      or\n      swap1\n      sstore\n      pop\n      swap1\n      pop\n      pop\n        /* \"contracts/Main.sol\":6903:6911  entityId */\n      dup4\n        /* \"contracts/Main.sol\":6886:6894  nameToId */\n      0x05\n        /* \"contracts/Main.sol\":6895:6899  name */\n      dup5\n        /* \"contracts/Main.sol\":6886:6900  nameToId[name] */\n      mload(0x40)\n      tag_249\n      swap2\n      swap1\n      tag_120\n      jump\t// in\n    tag_249:\n      swap1\n      dup2\n      mstore\n      0x20\n      add\n      mload(0x40)\n      dup1\n      swap2\n      sub\n      swap1\n      keccak256\n        /* \"contracts/Main.sol\":6886:6911  nameToId[name] = entityId */\n      dup2\n      swap1\n      sstore\n      pop\n        /* \"contracts/Main.sol\":6922:6936  entitiesByType */\n      0x06\n        /* \"contracts/Main.sol\":6922:6948  entitiesByType[entityType] */\n      0x00\n        /* \"contracts/Main.sol\":6937:6947  entityType */\n      dup4\n        /* \"contracts/Main.sol\":6922:6948  entitiesByType[entityType] */\n      0x04\n      dup2\n      gt\n      iszero\n      tag_250\n      jumpi\n      tag_251\n      tag_95\n      jump\t// in\n    tag_251:\n    tag_250:\n      0x04\n      dup2\n      gt\n      iszero\n      tag_252\n      jumpi\n      tag_253\n      tag_95\n      jump\t// in\n    tag_253:\n    tag_252:\n      dup2\n      mstore\n      0x20\n      add\n      swap1\n      dup2\n      mstore\n      0x20\n      add\n      0x00\n      keccak256\n        /* \"contracts/Main.sol\":6954:6962  entityId */\n      dup5\n        /* \"contracts/Main.sol\":6922:6963  entitiesByType[entityType].push(entityId) */\n      swap1\n      dup1\n      0x01\n      dup2\n      sload\n      add\n      dup1\n      dup3\n      sstore\n      dup1\n      swap2\n      pop\n      pop\n      0x01\n      swap1\n      sub\n      swap1\n      0x00\n      mstore\n      keccak256(0x00, 0x20)\n      add\n      0x00\n      swap1\n      swap2\n      swap1\n      swap2\n      swap1\n      swap2\n      pop\n      sstore\n        /* \"contracts/Main.sol\":7030:7090  EntityAdded(\"New entity added!\", entityId, name, entityType) */\n      0x1b13b2e6e7d75cf356e012ed8fb81d10647941596af1f62bb4a6e267f7db605d\n        /* \"contracts/Main.sol\":7063:7071  entityId */\n      dup5\n        /* \"contracts/Main.sol\":7073:7077  name */\n      dup5\n        /* \"contracts/Main.sol\":7079:7089  entityType */\n      dup5\n        /* \"contracts/Main.sol\":7030:7090  EntityAdded(\"New entity added!\", entityId, name, entityType) */\n      mload(0x40)\n      tag_255\n      swap4\n      swap3\n      swap2\n      swap1\n      tag_256\n      jump\t// in\n    tag_255:\n      mload(0x40)\n      dup1\n      swap2\n      sub\n      swap1\n      log1\n        /* \"contracts/Main.sol\":6409:7098  function addEntity(uint entityId, string memory name, EntityType entityType) public onlyRole(Role.Admin){... */\n      pop\n      pop\n      pop\n      pop\n      jump\t// out\n        /* \"contracts/Main.sol\":7145:8104  function deleteEntity(uint entityId) public onlyRole(Role.Admin) {... */\n    tag_81:\n        /* \"contracts/Main.sol\":7198:7208  Role.Admin */\n      0x01\n        /* \"contracts/Main.sol\":2704:2709  _role */\n      dup1\n        /* \"contracts/Main.sol\":2678:2709  users[msg.sender].role == _role */\n      0x04\n      dup2\n      gt\n      iszero\n      tag_258\n      jumpi\n      tag_259\n      tag_95\n      jump\t// in\n    tag_259:\n    tag_258:\n        /* \"contracts/Main.sol\":2678:2683  users */\n      0x02\n        /* \"contracts/Main.sol\":2678:2695  users[msg.sender] */\n      0x00\n        /* \"contracts/Main.sol\":2684:2694  msg.sender */\n      caller\n        /* \"contracts/Main.sol\":2678:2695  users[msg.sender] */\n      0xffffffffffffffffffffffffffffffffffffffff\n      and\n      0xffffffffffffffffffffffffffffffffffffffff\n      and\n      dup2\n      mstore\n      0x20\n      add\n      swap1\n      dup2\n      mstore\n      0x20\n      add\n      0x00\n      keccak256\n        /* \"contracts/Main.sol\":2678:2700  users[msg.sender].role */\n      0x01\n      add\n      0x00\n      swap1\n      sload\n      swap1\n      0x0100\n      exp\n      swap1\n      div\n      0xff\n      and\n        /* \"contracts/Main.sol\":2678:2709  users[msg.sender].role == _role */\n      0x04\n      dup2\n      gt\n      iszero\n      tag_260\n      jumpi\n      tag_261\n      tag_95\n      jump\t// in\n    tag_261:\n    tag_260:\n      eq\n        /* \"contracts/Main.sol\":2670:2743  require(users[msg.sender].role == _role, \"Access denied: incorrect role\") */\n      tag_262\n      jumpi\n      mload(0x40)\n      0x08c379a000000000000000000000000000000000000000000000000000000000\n      dup2\n      mstore\n      0x04\n      add\n      tag_263\n      swap1\n      tag_100\n      jump\t// in\n    tag_263:\n      mload(0x40)\n      dup1\n      swap2\n      sub\n      swap1\n      revert\n    tag_262:\n        /* \"contracts/Main.sol\":7309:7310  0 */\n      0x00\n        /* \"contracts/Main.sol\":7274:7282  entities */\n      0x04\n        /* \"contracts/Main.sol\":7274:7292  entities[entityId] */\n      0x00\n        /* \"contracts/Main.sol\":7283:7291  entityId */\n      dup5\n        /* \"contracts/Main.sol\":7274:7292  entities[entityId] */\n      dup2\n      mstore\n      0x20\n      add\n      swap1\n      dup2\n      mstore\n      0x20\n      add\n      0x00\n      keccak256\n        /* \"contracts/Main.sol\":7274:7297  entities[entityId].name */\n      0x00\n      add\n        /* \"contracts/Main.sol\":7268:7305  bytes(entities[entityId].name).length */\n      dup1\n      sload\n      tag_265\n      swap1\n      tag_109\n      jump\t// in\n    tag_265:\n      swap1\n      pop\n        /* \"contracts/Main.sol\":7268:7310  bytes(entities[entityId].name).length != 0 */\n      sub\n        /* \"contracts/Main.sol\":7260:7336  require(bytes(entities[entityId].name).length != 0, \"Entity does not exist\") */\n      tag_266\n      jumpi\n      mload(0x40)\n      0x08c379a000000000000000000000000000000000000000000000000000000000\n      dup2\n      mstore\n      0x04\n      add\n      tag_267\n      swap1\n      tag_112\n      jump\t// in\n    tag_267:\n      mload(0x40)\n      dup1\n      swap2\n      sub\n      swap1\n      revert\n    tag_266:\n        /* \"contracts/Main.sol\":7405:7429  string memory entityName */\n      0x00\n        /* \"contracts/Main.sol\":7432:7440  entities */\n      0x04\n        /* \"contracts/Main.sol\":7432:7450  entities[entityId] */\n      0x00\n        /* \"contracts/Main.sol\":7441:7449  entityId */\n      dup5\n        /* \"contracts/Main.sol\":7432:7450  entities[entityId] */\n      dup2\n      mstore\n      0x20\n      add\n      swap1\n      dup2\n      mstore\n      0x20\n      add\n      0x00\n      keccak256\n        /* \"contracts/Main.sol\":7432:7455  entities[entityId].name */\n      0x00\n      add\n        /* \"contracts/Main.sol\":7405:7455  string memory entityName = entities[entityId].name */\n      dup1\n      sload\n      tag_268\n      swap1\n      tag_109\n      jump\t// in\n    tag_268:\n      dup1\n      0x1f\n      add\n      0x20\n      dup1\n      swap2\n      div\n      mul\n      0x20\n      add\n      mload(0x40)\n      swap1\n      dup2\n      add\n      0x40\n      mstore\n      dup1\n      swap3\n      swap2\n      swap1\n      dup2\n      dup2\n      mstore\n      0x20\n      add\n      dup3\n      dup1\n      sload\n      tag_269\n      swap1\n      tag_109\n      jump\t// in\n    tag_269:\n      dup1\n      iszero\n      tag_270\n      jumpi\n      dup1\n      0x1f\n      lt\n      tag_271\n      jumpi\n      0x0100\n      dup1\n      dup4\n      sload\n      div\n      mul\n      dup4\n      mstore\n      swap2\n      0x20\n      add\n      swap2\n      jump(tag_270)\n    tag_271:\n      dup3\n      add\n      swap2\n      swap1\n      0x00\n      mstore\n      keccak256(0x00, 0x20)\n      swap1\n    tag_272:\n      dup2\n      sload\n      dup2\n      mstore\n      swap1\n      0x01\n      add\n      swap1\n      0x20\n      add\n      dup1\n      dup4\n      gt\n      tag_272\n      jumpi\n      dup3\n      swap1\n      sub\n      0x1f\n      and\n      dup3\n      add\n      swap2\n    tag_270:\n      pop\n      pop\n      pop\n      pop\n      pop\n      swap1\n      pop\n        /* \"contracts/Main.sol\":7466:7487  EntityType entityType */\n      0x00\n        /* \"contracts/Main.sol\":7490:7498  entities */\n      0x04\n        /* \"contracts/Main.sol\":7490:7508  entities[entityId] */\n      0x00\n        /* \"contracts/Main.sol\":7499:7507  entityId */\n      dup6\n        /* \"contracts/Main.sol\":7490:7508  entities[entityId] */\n      dup2\n      mstore\n      0x20\n      add\n      swap1\n      dup2\n      mstore\n      0x20\n      add\n      0x00\n      keccak256\n        /* \"contracts/Main.sol\":7490:7519  entities[entityId].entityType */\n      0x01\n      add\n      0x00\n      swap1\n      sload\n      swap1\n      0x0100\n      exp\n      swap1\n      div\n      0xff\n      and\n        /* \"contracts/Main.sol\":7466:7519  EntityType entityType = entities[entityId].entityType */\n      swap1\n      pop\n        /* \"contracts/Main.sol\":7539:7547  entities */\n      0x04\n        /* \"contracts/Main.sol\":7539:7557  entities[entityId] */\n      0x00\n        /* \"contracts/Main.sol\":7548:7556  entityId */\n      dup6\n        /* \"contracts/Main.sol\":7539:7557  entities[entityId] */\n      dup2\n      mstore\n      0x20\n      add\n      swap1\n      dup2\n      mstore\n      0x20\n      add\n      0x00\n      keccak256\n      0x00\n        /* \"contracts/Main.sol\":7532:7557  delete entities[entityId] */\n      dup1\n      dup3\n      add\n      0x00\n      tag_273\n      swap2\n      swap1\n      tag_165\n      jump\t// in\n    tag_273:\n      0x01\n      dup3\n      add\n      exp(0x0100, 0x00)\n      dup2\n      sload\n      swap1\n      0xff\n      mul\n      not\n      and\n      swap1\n      sstore\n      pop\n      pop\n        /* \"contracts/Main.sol\":7575:7583  nameToId */\n      0x05\n        /* \"contracts/Main.sol\":7584:7594  entityName */\n      dup3\n        /* \"contracts/Main.sol\":7575:7595  nameToId[entityName] */\n      mload(0x40)\n      tag_274\n      swap2\n      swap1\n      tag_120\n      jump\t// in\n    tag_274:\n      swap1\n      dup2\n      mstore\n      0x20\n      add\n      mload(0x40)\n      dup1\n      swap2\n      sub\n      swap1\n      keccak256\n        /* \"contracts/Main.sol\":7568:7595  delete nameToId[entityName] */\n      0x00\n      swap1\n      sstore\n        /* \"contracts/Main.sol\":7671:7689  uint[] storage ids */\n      0x00\n        /* \"contracts/Main.sol\":7692:7706  entitiesByType */\n      0x06\n        /* \"contracts/Main.sol\":7692:7718  entitiesByType[entityType] */\n      0x00\n        /* \"contracts/Main.sol\":7707:7717  entityType */\n      dup4\n        /* \"contracts/Main.sol\":7692:7718  entitiesByType[entityType] */\n      0x04\n      dup2\n      gt\n      iszero\n      tag_275\n      jumpi\n      tag_276\n      tag_95\n      jump\t// in\n    tag_276:\n    tag_275:\n      0x04\n      dup2\n      gt\n      iszero\n      tag_277\n      jumpi\n      tag_278\n      tag_95\n      jump\t// in\n    tag_278:\n    tag_277:\n      dup2\n      mstore\n      0x20\n      add\n      swap1\n      dup2\n      mstore\n      0x20\n      add\n      0x00\n      keccak256\n        /* \"contracts/Main.sol\":7671:7718  uint[] storage ids = entitiesByType[entityType] */\n      swap1\n      pop\n        /* \"contracts/Main.sol\":7734:7740  uint i */\n      0x00\n        /* \"contracts/Main.sol\":7729:7932  for (uint i = 0; i < ids.length; i++) {... */\n    tag_279:\n        /* \"contracts/Main.sol\":7750:7753  ids */\n      dup2\n        /* \"contracts/Main.sol\":7750:7760  ids.length */\n      dup1\n      sload\n      swap1\n      pop\n        /* \"contracts/Main.sol\":7746:7747  i */\n      dup2\n        /* \"contracts/Main.sol\":7746:7760  i < ids.length */\n      lt\n        /* \"contracts/Main.sol\":7729:7932  for (uint i = 0; i < ids.length; i++) {... */\n      iszero\n      tag_280\n      jumpi\n        /* \"contracts/Main.sol\":7796:7804  entityId */\n      dup6\n        /* \"contracts/Main.sol\":7786:7789  ids */\n      dup3\n        /* \"contracts/Main.sol\":7790:7791  i */\n      dup3\n        /* \"contracts/Main.sol\":7786:7792  ids[i] */\n      dup2\n      sload\n      dup2\n      lt\n      tag_282\n      jumpi\n      tag_283\n      tag_171\n      jump\t// in\n    tag_283:\n    tag_282:\n      swap1\n      0x00\n      mstore\n      keccak256(0x00, 0x20)\n      add\n      sload\n        /* \"contracts/Main.sol\":7786:7804  ids[i] == entityId */\n      sub\n        /* \"contracts/Main.sol\":7782:7921  if (ids[i] == entityId) {... */\n      tag_285\n      jumpi\n        /* \"contracts/Main.sol\":7834:7837  ids */\n      dup2\n        /* \"contracts/Main.sol\":7851:7852  1 */\n      0x01\n        /* \"contracts/Main.sol\":7838:7841  ids */\n      dup4\n        /* \"contracts/Main.sol\":7838:7848  ids.length */\n      dup1\n      sload\n      swap1\n      pop\n        /* \"contracts/Main.sol\":7838:7852  ids.length - 1 */\n      tag_286\n      swap2\n      swap1\n      tag_175\n      jump\t// in\n    tag_286:\n        /* \"contracts/Main.sol\":7834:7853  ids[ids.length - 1] */\n      dup2\n      sload\n      dup2\n      lt\n      tag_287\n      jumpi\n      tag_288\n      tag_171\n      jump\t// in\n    tag_288:\n    tag_287:\n      swap1\n      0x00\n      mstore\n      keccak256(0x00, 0x20)\n      add\n      sload\n        /* \"contracts/Main.sol\":7825:7828  ids */\n      dup3\n        /* \"contracts/Main.sol\":7829:7830  i */\n      dup3\n        /* \"contracts/Main.sol\":7825:7831  ids[i] */\n      dup2\n      sload\n      dup2\n      lt\n      tag_290\n      jumpi\n      tag_291\n      tag_171\n      jump\t// in\n    tag_291:\n    tag_290:\n      swap1\n      0x00\n      mstore\n      keccak256(0x00, 0x20)\n      add\n        /* \"contracts/Main.sol\":7825:7853  ids[i] = ids[ids.length - 1] */\n      dup2\n      swap1\n      sstore\n      pop\n        /* \"contracts/Main.sol\":7872:7875  ids */\n      dup2\n        /* \"contracts/Main.sol\":7872:7881  ids.pop() */\n      dup1\n      sload\n      dup1\n      tag_293\n      jumpi\n      tag_294\n      tag_184\n      jump\t// in\n    tag_294:\n    tag_293:\n      0x01\n      swap1\n      sub\n      dup2\n      dup2\n      swap1\n      0x00\n      mstore\n      keccak256(0x00, 0x20)\n      add\n      0x00\n      swap1\n      sstore\n      swap1\n      sstore\n        /* \"contracts/Main.sol\":7900:7905  break */\n      jump(tag_280)\n        /* \"contracts/Main.sol\":7782:7921  if (ids[i] == entityId) {... */\n    tag_285:\n        /* \"contracts/Main.sol\":7762:7765  i++ */\n      dup1\n      dup1\n      tag_296\n      swap1\n      tag_187\n      jump\t// in\n    tag_296:\n      swap2\n      pop\n      pop\n        /* \"contracts/Main.sol\":7729:7932  for (uint i = 0; i < ids.length; i++) {... */\n      jump(tag_279)\n    tag_280:\n      pop\n        /* \"contracts/Main.sol\":7998:8096  EntityDeleted(\"Entity deleted successfully!\", entityId, entityName, entities[entityId].entityType) */\n      0x30799cf041cfd96e1cc339abd723266998268fa616dc26e8fbf976739e8c21d9\n        /* \"contracts/Main.sol\":8044:8052  entityId */\n      dup6\n        /* \"contracts/Main.sol\":8054:8064  entityName */\n      dup5\n        /* \"contracts/Main.sol\":8066:8074  entities */\n      0x04\n        /* \"contracts/Main.sol\":8066:8084  entities[entityId] */\n      0x00\n        /* \"contracts/Main.sol\":8075:8083  entityId */\n      dup10\n        /* \"contracts/Main.sol\":8066:8084  entities[entityId] */\n      dup2\n      mstore\n      0x20\n      add\n      swap1\n      dup2\n      mstore\n      0x20\n      add\n      0x00\n      keccak256\n        /* \"contracts/Main.sol\":8066:8095  entities[entityId].entityType */\n      0x01\n      add\n      0x00\n      swap1\n      sload\n      swap1\n      0x0100\n      exp\n      swap1\n      div\n      0xff\n      and\n        /* \"contracts/Main.sol\":7998:8096  EntityDeleted(\"Entity deleted successfully!\", entityId, entityName, entities[entityId].entityType) */\n      mload(0x40)\n      tag_297\n      swap4\n      swap3\n      swap2\n      swap1\n      tag_298\n      jump\t// in\n    tag_297:\n      mload(0x40)\n      dup1\n      swap2\n      sub\n      swap1\n      log1\n        /* \"contracts/Main.sol\":7210:8104  {... */\n      pop\n      pop\n      pop\n        /* \"contracts/Main.sol\":7145:8104  function deleteEntity(uint entityId) public onlyRole(Role.Admin) {... */\n      pop\n      pop\n      jump\t// out\n        /* \"contracts/Main.sol\":5890:6172  function getAllUsers() public view returns (User[] memory){... */\n    tag_83:\n        /* \"contracts/Main.sol\":5934:5947  User[] memory */\n      0x60\n        /* \"contracts/Main.sol\":5959:5981  User[] memory allUsers */\n      0x00\n        /* \"contracts/Main.sol\":5995:6008  userAddresses */\n      0x03\n        /* \"contracts/Main.sol\":5995:6015  userAddresses.length */\n      dup1\n      sload\n      swap1\n      pop\n        /* \"contracts/Main.sol\":5984:6016  new User[](userAddresses.length) */\n      0xffffffffffffffff\n      dup2\n      gt\n      iszero\n      tag_300\n      jumpi\n      tag_301\n      tag_302\n      jump\t// in\n    tag_301:\n    tag_300:\n      mload(0x40)\n      swap1\n      dup1\n      dup3\n      mstore\n      dup1\n      0x20\n      mul\n      0x20\n      add\n      dup3\n      add\n      0x40\n      mstore\n      dup1\n      iszero\n      tag_303\n      jumpi\n      dup2\n      0x20\n      add\n    tag_304:\n      tag_305\n      tag_196\n      jump\t// in\n    tag_305:\n      dup2\n      mstore\n      0x20\n      add\n      swap1\n      0x01\n      swap1\n      sub\n      swap1\n      dup2\n      tag_304\n      jumpi\n      swap1\n      pop\n    tag_303:\n      pop\n        /* \"contracts/Main.sol\":5959:6016  User[] memory allUsers = new User[](userAddresses.length) */\n      swap1\n      pop\n        /* \"contracts/Main.sol\":6032:6038  uint i */\n      0x00\n        /* \"contracts/Main.sol\":6027:6139  for (uint i = 0; i < userAddresses.length; i++) {... */\n    tag_306:\n        /* \"contracts/Main.sol\":6048:6061  userAddresses */\n      0x03\n        /* \"contracts/Main.sol\":6048:6068  userAddresses.length */\n      dup1\n      sload\n      swap1\n      pop\n        /* \"contracts/Main.sol\":6044:6045  i */\n      dup2\n        /* \"contracts/Main.sol\":6044:6068  i < userAddresses.length */\n      lt\n        /* \"contracts/Main.sol\":6027:6139  for (uint i = 0; i < userAddresses.length; i++) {... */\n      iszero\n      tag_307\n      jumpi\n        /* \"contracts/Main.sol\":6104:6109  users */\n      0x02\n        /* \"contracts/Main.sol\":6104:6127  users[userAddresses[i]] */\n      0x00\n        /* \"contracts/Main.sol\":6110:6123  userAddresses */\n      0x03\n        /* \"contracts/Main.sol\":6124:6125  i */\n      dup4\n        /* \"contracts/Main.sol\":6110:6126  userAddresses[i] */\n      dup2\n      sload\n      dup2\n      lt\n      tag_309\n      jumpi\n      tag_310\n      tag_171\n      jump\t// in\n    tag_310:\n    tag_309:\n      swap1\n      0x00\n      mstore\n      keccak256(0x00, 0x20)\n      add\n      0x00\n      swap1\n      sload\n      swap1\n      0x0100\n      exp\n      swap1\n      div\n      0xffffffffffffffffffffffffffffffffffffffff\n      and\n        /* \"contracts/Main.sol\":6104:6127  users[userAddresses[i]] */\n      0xffffffffffffffffffffffffffffffffffffffff\n      and\n      0xffffffffffffffffffffffffffffffffffffffff\n      and\n      dup2\n      mstore\n      0x20\n      add\n      swap1\n      dup2\n      mstore\n      0x20\n      add\n      0x00\n      keccak256\n        /* \"contracts/Main.sol\":6090:6127  allUsers[i] = users[userAddresses[i]] */\n      mload(0x40)\n      dup1\n      0x40\n      add\n      0x40\n      mstore\n      swap1\n      dup2\n      0x00\n      dup3\n      add\n      dup1\n      sload\n      tag_312\n      swap1\n      tag_109\n      jump\t// in\n    tag_312:\n      dup1\n      0x1f\n      add\n      0x20\n      dup1\n      swap2\n      div\n      mul\n      0x20\n      add\n      mload(0x40)\n      swap1\n      dup2\n      add\n      0x40\n      mstore\n      dup1\n      swap3\n      swap2\n      swap1\n      dup2\n      dup2\n      mstore\n      0x20\n      add\n      dup3\n      dup1\n      sload\n      tag_313\n      swap1\n      tag_109\n      jump\t// in\n    tag_313:\n      dup1\n      iszero\n      tag_314\n      jumpi\n      dup1\n      0x1f\n      lt\n      tag_315\n      jumpi\n      0x0100\n      dup1\n      dup4\n      sload\n      div\n      mul\n      dup4\n      mstore\n      swap2\n      0x20\n      add\n      swap2\n      jump(tag_314)\n    tag_315:\n      dup3\n      add\n      swap2\n      swap1\n      0x00\n      mstore\n      keccak256(0x00, 0x20)\n      swap1\n    tag_316:\n      dup2\n      sload\n      dup2\n      mstore\n      swap1\n      0x01\n      add\n      swap1\n      0x20\n      add\n      dup1\n      dup4\n      gt\n      tag_316\n      jumpi\n      dup3\n      swap1\n      sub\n      0x1f\n      and\n      dup3\n      add\n      swap2\n    tag_314:\n      pop\n      pop\n      pop\n      pop\n      pop\n      dup2\n      mstore\n      0x20\n      add\n      0x01\n      dup3\n      add\n      0x00\n      swap1\n      sload\n      swap1\n      0x0100\n      exp\n      swap1\n      div\n      0xff\n      and\n      0x04\n      dup2\n      gt\n      iszero\n      tag_317\n      jumpi\n      tag_318\n      tag_95\n      jump\t// in\n    tag_318:\n    tag_317:\n      0x04\n      dup2\n      gt\n      iszero\n      tag_319\n      jumpi\n      tag_320\n      tag_95\n      jump\t// in\n    tag_320:\n    tag_319:\n      dup2\n      mstore\n      pop\n      pop\n        /* \"contracts/Main.sol\":6090:6098  allUsers */\n      dup3\n        /* \"contracts/Main.sol\":6099:6100  i */\n      dup3\n        /* \"contracts/Main.sol\":6090:6101  allUsers[i] */\n      dup2\n      mload\n      dup2\n      lt\n      tag_321\n      jumpi\n      tag_322\n      tag_171\n      jump\t// in\n    tag_322:\n    tag_321:\n      0x20\n      mul\n      0x20\n      add\n      add\n        /* \"contracts/Main.sol\":6090:6127  allUsers[i] = users[userAddresses[i]] */\n      dup2\n      swap1\n      mstore\n      pop\n        /* \"contracts/Main.sol\":6070:6073  i++ */\n      dup1\n      dup1\n      tag_323\n      swap1\n      tag_187\n      jump\t// in\n    tag_323:\n      swap2\n      pop\n      pop\n        /* \"contracts/Main.sol\":6027:6139  for (uint i = 0; i < userAddresses.length; i++) {... */\n      jump(tag_306)\n    tag_307:\n      pop\n        /* \"contracts/Main.sol\":6156:6164  allUsers */\n      dup1\n        /* \"contracts/Main.sol\":6149:6164  return allUsers */\n      swap2\n      pop\n      pop\n        /* \"contracts/Main.sol\":5890:6172  function getAllUsers() public view returns (User[] memory){... */\n      swap1\n      jump\t// out\n        /* \"contracts/Main.sol\":9043:9181  function getEntitiesByType(EntityType entityType) public view returns (uint[] memory) {... */\n    tag_89:\n        /* \"contracts/Main.sol\":9114:9127  uint[] memory */\n      0x60\n        /* \"contracts/Main.sol\":9147:9161  entitiesByType */\n      0x06\n        /* \"contracts/Main.sol\":9147:9173  entitiesByType[entityType] */\n      0x00\n        /* \"contracts/Main.sol\":9162:9172  entityType */\n      dup4\n        /* \"contracts/Main.sol\":9147:9173  entitiesByType[entityType] */\n      0x04\n      dup2\n      gt\n      iszero\n      tag_325\n      jumpi\n      tag_326\n      tag_95\n      jump\t// in\n    tag_326:\n    tag_325:\n      0x04\n      dup2\n      gt\n      iszero\n      tag_327\n      jumpi\n      tag_328\n      tag_95\n      jump\t// in\n    tag_328:\n    tag_327:\n      dup2\n      mstore\n      0x20\n      add\n      swap1\n      dup2\n      mstore\n      0x20\n      add\n      0x00\n      keccak256\n        /* \"contracts/Main.sol\":9140:9173  return entitiesByType[entityType] */\n      dup1\n      sload\n      dup1\n      0x20\n      mul\n      0x20\n      add\n      mload(0x40)\n      swap1\n      dup2\n      add\n      0x40\n      mstore\n      dup1\n      swap3\n      swap2\n      swap1\n      dup2\n      dup2\n      mstore\n      0x20\n      add\n      dup3\n      dup1\n      sload\n      dup1\n      iszero\n      tag_329\n      jumpi\n      0x20\n      mul\n      dup3\n      add\n      swap2\n      swap1\n      0x00\n      mstore\n      keccak256(0x00, 0x20)\n      swap1\n    tag_330:\n      dup2\n      sload\n      dup2\n      mstore\n      0x20\n      add\n      swap1\n      0x01\n      add\n      swap1\n      dup1\n      dup4\n      gt\n      tag_330\n      jumpi\n    tag_329:\n      pop\n      pop\n      pop\n      pop\n      pop\n      swap1\n      pop\n        /* \"contracts/Main.sol\":9043:9181  function getEntitiesByType(EntityType entityType) public view returns (uint[] memory) {... */\n      swap2\n      swap1\n      pop\n      jump\t// out\n        /* \"contracts/Main.sol\":3108:3509  function roleToString(Role _role) internal pure returns (string memory) {... */\n    tag_143:\n        /* \"contracts/Main.sol\":3165:3178  string memory */\n      0x60\n        /* \"contracts/Main.sol\":3204:3213  Role.None */\n      0x00\n        /* \"contracts/Main.sol\":3195:3213  _role == Role.None */\n      0x04\n      dup2\n      gt\n      iszero\n      tag_332\n      jumpi\n      tag_333\n      tag_95\n      jump\t// in\n    tag_333:\n    tag_332:\n        /* \"contracts/Main.sol\":3195:3200  _role */\n      dup3\n        /* \"contracts/Main.sol\":3195:3213  _role == Role.None */\n      0x04\n      dup2\n      gt\n      iszero\n      tag_334\n      jumpi\n      tag_335\n      tag_95\n      jump\t// in\n    tag_335:\n    tag_334:\n      sub\n        /* \"contracts/Main.sol\":3191:3228  if (_role == Role.None) return \"None\" */\n      tag_336\n      jumpi\n        /* \"contracts/Main.sol\":3215:3228  return \"None\" */\n      mload(0x40)\n      dup1\n      0x40\n      add\n      0x40\n      mstore\n      dup1\n      0x04\n      dup2\n      mstore\n      0x20\n      add\n      0x4e6f6e6500000000000000000000000000000000000000000000000000000000\n      dup2\n      mstore\n      pop\n      swap1\n      pop\n      jump(tag_331)\n        /* \"contracts/Main.sol\":3191:3228  if (_role == Role.None) return \"None\" */\n    tag_336:\n        /* \"contracts/Main.sol\":3252:3262  Role.Admin */\n      0x01\n        /* \"contracts/Main.sol\":3243:3262  _role == Role.Admin */\n      0x04\n      dup2\n      gt\n      iszero\n      tag_337\n      jumpi\n      tag_338\n      tag_95\n      jump\t// in\n    tag_338:\n    tag_337:\n        /* \"contracts/Main.sol\":3243:3248  _role */\n      dup3\n        /* \"contracts/Main.sol\":3243:3262  _role == Role.Admin */\n      0x04\n      dup2\n      gt\n      iszero\n      tag_339\n      jumpi\n      tag_340\n      tag_95\n      jump\t// in\n    tag_340:\n    tag_339:\n      sub\n        /* \"contracts/Main.sol\":3239:3278  if (_role == Role.Admin) return \"Admin\" */\n      tag_341\n      jumpi\n        /* \"contracts/Main.sol\":3264:3278  return \"Admin\" */\n      mload(0x40)\n      dup1\n      0x40\n      add\n      0x40\n      mstore\n      dup1\n      0x05\n      dup2\n      mstore\n      0x20\n      add\n      0x41646d696e000000000000000000000000000000000000000000000000000000\n      dup2\n      mstore\n      pop\n      swap1\n      pop\n      jump(tag_331)\n        /* \"contracts/Main.sol\":3239:3278  if (_role == Role.Admin) return \"Admin\" */\n    tag_341:\n        /* \"contracts/Main.sol\":3302:3315  Role.Supplier */\n      0x02\n        /* \"contracts/Main.sol\":3293:3315  _role == Role.Supplier */\n      0x04\n      dup2\n      gt\n      iszero\n      tag_342\n      jumpi\n      tag_343\n      tag_95\n      jump\t// in\n    tag_343:\n    tag_342:\n        /* \"contracts/Main.sol\":3293:3298  _role */\n      dup3\n        /* \"contracts/Main.sol\":3293:3315  _role == Role.Supplier */\n      0x04\n      dup2\n      gt\n      iszero\n      tag_344\n      jumpi\n      tag_345\n      tag_95\n      jump\t// in\n    tag_345:\n    tag_344:\n      sub\n        /* \"contracts/Main.sol\":3289:3334  if (_role == Role.Supplier) return \"Supplier\" */\n      tag_346\n      jumpi\n        /* \"contracts/Main.sol\":3317:3334  return \"Supplier\" */\n      mload(0x40)\n      dup1\n      0x40\n      add\n      0x40\n      mstore\n      dup1\n      0x08\n      dup2\n      mstore\n      0x20\n      add\n      0x537570706c696572000000000000000000000000000000000000000000000000\n      dup2\n      mstore\n      pop\n      swap1\n      pop\n      jump(tag_331)\n        /* \"contracts/Main.sol\":3289:3334  if (_role == Role.Supplier) return \"Supplier\" */\n    tag_346:\n        /* \"contracts/Main.sol\":3358:3383  Role.DistributionEmployee */\n      0x03\n        /* \"contracts/Main.sol\":3349:3383  _role == Role.DistributionEmployee */\n      0x04\n      dup2\n      gt\n      iszero\n      tag_347\n      jumpi\n      tag_348\n      tag_95\n      jump\t// in\n    tag_348:\n    tag_347:\n        /* \"contracts/Main.sol\":3349:3354  _role */\n      dup3\n        /* \"contracts/Main.sol\":3349:3383  _role == Role.DistributionEmployee */\n      0x04\n      dup2\n      gt\n      iszero\n      tag_349\n      jumpi\n      tag_350\n      tag_95\n      jump\t// in\n    tag_350:\n    tag_349:\n      sub\n        /* \"contracts/Main.sol\":3345:3414  if (_role == Role.DistributionEmployee) return \"DistributionEmployee\" */\n      tag_351\n      jumpi\n        /* \"contracts/Main.sol\":3385:3414  return \"DistributionEmployee\" */\n      mload(0x40)\n      dup1\n      0x40\n      add\n      0x40\n      mstore\n      dup1\n      0x14\n      dup2\n      mstore\n      0x20\n      add\n      0x446973747269627574696f6e456d706c6f796565000000000000000000000000\n      dup2\n      mstore\n      pop\n      swap1\n      pop\n      jump(tag_331)\n        /* \"contracts/Main.sol\":3345:3414  if (_role == Role.DistributionEmployee) return \"DistributionEmployee\" */\n    tag_351:\n        /* \"contracts/Main.sol\":3438:3450  Role.Auditor */\n      0x04\n        /* \"contracts/Main.sol\":3429:3450  _role == Role.Auditor */\n      dup1\n      dup2\n      gt\n      iszero\n      tag_352\n      jumpi\n      tag_353\n      tag_95\n      jump\t// in\n    tag_353:\n    tag_352:\n        /* \"contracts/Main.sol\":3429:3434  _role */\n      dup3\n        /* \"contracts/Main.sol\":3429:3450  _role == Role.Auditor */\n      0x04\n      dup2\n      gt\n      iszero\n      tag_354\n      jumpi\n      tag_355\n      tag_95\n      jump\t// in\n    tag_355:\n    tag_354:\n      sub\n        /* \"contracts/Main.sol\":3425:3468  if (_role == Role.Auditor) return \"Auditor\" */\n      tag_356\n      jumpi\n        /* \"contracts/Main.sol\":3452:3468  return \"Auditor\" */\n      mload(0x40)\n      dup1\n      0x40\n      add\n      0x40\n      mstore\n      dup1\n      0x07\n      dup2\n      mstore\n      0x20\n      add\n      0x41756469746f7200000000000000000000000000000000000000000000000000\n      dup2\n      mstore\n      pop\n      swap1\n      pop\n      jump(tag_331)\n        /* \"contracts/Main.sol\":3425:3468  if (_role == Role.Auditor) return \"Auditor\" */\n    tag_356:\n        /* \"contracts/Main.sol\":3479:3501  revert(\"Invalid Role\") */\n      mload(0x40)\n      0x08c379a000000000000000000000000000000000000000000000000000000000\n      dup2\n      mstore\n      0x04\n      add\n      tag_357\n      swap1\n      tag_358\n      jump\t// in\n    tag_357:\n      mload(0x40)\n      dup1\n      swap2\n      sub\n      swap1\n      revert\n        /* \"contracts/Main.sol\":3108:3509  function roleToString(Role _role) internal pure returns (string memory) {... */\n    tag_331:\n      swap2\n      swap1\n      pop\n      jump\t// out\n    tag_165:\n      pop\n      dup1\n      sload\n      tag_359\n      swap1\n      tag_109\n      jump\t// in\n    tag_359:\n      0x00\n      dup3\n      sstore\n      dup1\n      0x1f\n      lt\n      tag_361\n      jumpi\n      pop\n      jump(tag_360)\n    tag_361:\n      0x1f\n      add\n      0x20\n      swap1\n      div\n      swap1\n      0x00\n      mstore\n      keccak256(0x00, 0x20)\n      swap1\n      dup2\n      add\n      swap1\n      tag_362\n      swap2\n      swap1\n      tag_363\n      jump\t// in\n    tag_362:\n    tag_360:\n      pop\n      jump\t// out\n    tag_196:\n      mload(0x40)\n      dup1\n      0x40\n      add\n      0x40\n      mstore\n      dup1\n      0x60\n      dup2\n      mstore\n      0x20\n      add\n      0x00\n      0x04\n      dup2\n      gt\n      iszero\n      tag_364\n      jumpi\n      tag_365\n      tag_95\n      jump\t// in\n    tag_365:\n    tag_364:\n      dup2\n      mstore\n      pop\n      swap1\n      jump\t// out\n    tag_363:\n    tag_366:\n      dup1\n      dup3\n      gt\n      iszero\n      tag_367\n      jumpi\n      0x00\n      dup2\n      0x00\n      swap1\n      sstore\n      pop\n      0x01\n      add\n      jump(tag_366)\n    tag_367:\n      pop\n      swap1\n      jump\t// out\n        /* \"#utility.yul\":7:82   */\n    tag_368:\n        /* \"#utility.yul\":40:46   */\n      0x00\n        /* \"#utility.yul\":73:75   */\n      0x40\n        /* \"#utility.yul\":67:76   */\n      mload\n        /* \"#utility.yul\":57:76   */\n      swap1\n      pop\n        /* \"#utility.yul\":7:82   */\n      swap1\n      jump\t// out\n        /* \"#utility.yul\":88:205   */\n    tag_369:\n        /* \"#utility.yul\":197:198   */\n      0x00\n        /* \"#utility.yul\":194:195   */\n      dup1\n        /* \"#utility.yul\":187:199   */\n      revert\n        /* \"#utility.yul\":211:328   */\n    tag_370:\n        /* \"#utility.yul\":320:321   */\n      0x00\n        /* \"#utility.yul\":317:318   */\n      dup1\n        /* \"#utility.yul\":310:322   */\n      revert\n        /* \"#utility.yul\":334:460   */\n    tag_371:\n        /* \"#utility.yul\":371:378   */\n      0x00\n        /* \"#utility.yul\":411:453   */\n      0xffffffffffffffffffffffffffffffffffffffff\n        /* \"#utility.yul\":404:409   */\n      dup3\n        /* \"#utility.yul\":400:454   */\n      and\n        /* \"#utility.yul\":389:454   */\n      swap1\n      pop\n        /* \"#utility.yul\":334:460   */\n      swap2\n      swap1\n      pop\n      jump\t// out\n        /* \"#utility.yul\":466:562   */\n    tag_372:\n        /* \"#utility.yul\":503:510   */\n      0x00\n        /* \"#utility.yul\":532:556   */\n      tag_474\n        /* \"#utility.yul\":550:555   */\n      dup3\n        /* \"#utility.yul\":532:556   */\n      tag_371\n      jump\t// in\n    tag_474:\n        /* \"#utility.yul\":521:556   */\n      swap1\n      pop\n        /* \"#utility.yul\":466:562   */\n      swap2\n      swap1\n      pop\n      jump\t// out\n        /* \"#utility.yul\":568:690   */\n    tag_373:\n        /* \"#utility.yul\":641:665   */\n      tag_476\n        /* \"#utility.yul\":659:664   */\n      dup2\n        /* \"#utility.yul\":641:665   */\n      tag_372\n      jump\t// in\n    tag_476:\n        /* \"#utility.yul\":634:639   */\n      dup2\n        /* \"#utility.yul\":631:666   */\n      eq\n        /* \"#utility.yul\":621:684   */\n      tag_477\n      jumpi\n        /* \"#utility.yul\":680:681   */\n      0x00\n        /* \"#utility.yul\":677:678   */\n      dup1\n        /* \"#utility.yul\":670:682   */\n      revert\n        /* \"#utility.yul\":621:684   */\n    tag_477:\n        /* \"#utility.yul\":568:690   */\n      pop\n      jump\t// out\n        /* \"#utility.yul\":696:835   */\n    tag_374:\n        /* \"#utility.yul\":742:747   */\n      0x00\n        /* \"#utility.yul\":780:786   */\n      dup2\n        /* \"#utility.yul\":767:787   */\n      calldataload\n        /* \"#utility.yul\":758:787   */\n      swap1\n      pop\n        /* \"#utility.yul\":796:829   */\n      tag_479\n        /* \"#utility.yul\":823:828   */\n      dup2\n        /* \"#utility.yul\":796:829   */\n      tag_373\n      jump\t// in\n    tag_479:\n        /* \"#utility.yul\":696:835   */\n      swap3\n      swap2\n      pop\n      pop\n      jump\t// out\n        /* \"#utility.yul\":841:947   */\n    tag_375:\n        /* \"#utility.yul\":921:922   */\n      0x05\n        /* \"#utility.yul\":914:919   */\n      dup2\n        /* \"#utility.yul\":911:923   */\n      lt\n        /* \"#utility.yul\":901:941   */\n      tag_481\n      jumpi\n        /* \"#utility.yul\":937:938   */\n      0x00\n        /* \"#utility.yul\":934:935   */\n      dup1\n        /* \"#utility.yul\":927:939   */\n      revert\n        /* \"#utility.yul\":901:941   */\n    tag_481:\n        /* \"#utility.yul\":841:947   */\n      pop\n      jump\t// out\n        /* \"#utility.yul\":953:1106   */\n    tag_376:\n        /* \"#utility.yul\":1006:1011   */\n      0x00\n        /* \"#utility.yul\":1044:1050   */\n      dup2\n        /* \"#utility.yul\":1031:1051   */\n      calldataload\n        /* \"#utility.yul\":1022:1051   */\n      swap1\n      pop\n        /* \"#utility.yul\":1060:1100   */\n      tag_483\n        /* \"#utility.yul\":1094:1099   */\n      dup2\n        /* \"#utility.yul\":1060:1100   */\n      tag_375\n      jump\t// in\n    tag_483:\n        /* \"#utility.yul\":953:1106   */\n      swap3\n      swap2\n      pop\n      pop\n      jump\t// out\n        /* \"#utility.yul\":1112:1600   */\n    tag_24:\n        /* \"#utility.yul\":1187:1193   */\n      0x00\n        /* \"#utility.yul\":1195:1201   */\n      dup1\n        /* \"#utility.yul\":1244:1246   */\n      0x40\n        /* \"#utility.yul\":1232:1241   */\n      dup4\n        /* \"#utility.yul\":1223:1230   */\n      dup6\n        /* \"#utility.yul\":1219:1242   */\n      sub\n        /* \"#utility.yul\":1215:1247   */\n      slt\n        /* \"#utility.yul\":1212:1331   */\n      iszero\n      tag_485\n      jumpi\n        /* \"#utility.yul\":1250:1329   */\n      tag_486\n      tag_369\n      jump\t// in\n    tag_486:\n        /* \"#utility.yul\":1212:1331   */\n    tag_485:\n        /* \"#utility.yul\":1370:1371   */\n      0x00\n        /* \"#utility.yul\":1395:1448   */\n      tag_487\n        /* \"#utility.yul\":1440:1447   */\n      dup6\n        /* \"#utility.yul\":1431:1437   */\n      dup3\n        /* \"#utility.yul\":1420:1429   */\n      dup7\n        /* \"#utility.yul\":1416:1438   */\n      add\n        /* \"#utility.yul\":1395:1448   */\n      tag_374\n      jump\t// in\n    tag_487:\n        /* \"#utility.yul\":1385:1448   */\n      swap3\n      pop\n        /* \"#utility.yul\":1341:1458   */\n      pop\n        /* \"#utility.yul\":1497:1499   */\n      0x20\n        /* \"#utility.yul\":1523:1583   */\n      tag_488\n        /* \"#utility.yul\":1575:1582   */\n      dup6\n        /* \"#utility.yul\":1566:1572   */\n      dup3\n        /* \"#utility.yul\":1555:1564   */\n      dup7\n        /* \"#utility.yul\":1551:1573   */\n      add\n        /* \"#utility.yul\":1523:1583   */\n      tag_376\n      jump\t// in\n    tag_488:\n        /* \"#utility.yul\":1513:1583   */\n      swap2\n      pop\n        /* \"#utility.yul\":1468:1593   */\n      pop\n        /* \"#utility.yul\":1112:1600   */\n      swap3\n      pop\n      swap3\n      swap1\n      pop\n      jump\t// out\n        /* \"#utility.yul\":1606:1683   */\n    tag_377:\n        /* \"#utility.yul\":1643:1650   */\n      0x00\n        /* \"#utility.yul\":1672:1677   */\n      dup2\n        /* \"#utility.yul\":1661:1677   */\n      swap1\n      pop\n        /* \"#utility.yul\":1606:1683   */\n      swap2\n      swap1\n      pop\n      jump\t// out\n        /* \"#utility.yul\":1689:1811   */\n    tag_378:\n        /* \"#utility.yul\":1762:1786   */\n      tag_491\n        /* \"#utility.yul\":1780:1785   */\n      dup2\n        /* \"#utility.yul\":1762:1786   */\n      tag_377\n      jump\t// in\n    tag_491:\n        /* \"#utility.yul\":1755:1760   */\n      dup2\n        /* \"#utility.yul\":1752:1787   */\n      eq\n        /* \"#utility.yul\":1742:1805   */\n      tag_492\n      jumpi\n        /* \"#utility.yul\":1801:1802   */\n      0x00\n        /* \"#utility.yul\":1798:1799   */\n      dup1\n        /* \"#utility.yul\":1791:1803   */\n      revert\n        /* \"#utility.yul\":1742:1805   */\n    tag_492:\n        /* \"#utility.yul\":1689:1811   */\n      pop\n      jump\t// out\n        /* \"#utility.yul\":1817:1956   */\n    tag_379:\n        /* \"#utility.yul\":1863:1868   */\n      0x00\n        /* \"#utility.yul\":1901:1907   */\n      dup2\n        /* \"#utility.yul\":1888:1908   */\n      calldataload\n        /* \"#utility.yul\":1879:1908   */\n      swap1\n      pop\n        /* \"#utility.yul\":1917:1950   */\n      tag_494\n        /* \"#utility.yul\":1944:1949   */\n      dup2\n        /* \"#utility.yul\":1917:1950   */\n      tag_378\n      jump\t// in\n    tag_494:\n        /* \"#utility.yul\":1817:1956   */\n      swap3\n      swap2\n      pop\n      pop\n      jump\t// out\n        /* \"#utility.yul\":1962:2291   */\n    tag_28:\n        /* \"#utility.yul\":2021:2027   */\n      0x00\n        /* \"#utility.yul\":2070:2072   */\n      0x20\n        /* \"#utility.yul\":2058:2067   */\n      dup3\n        /* \"#utility.yul\":2049:2056   */\n      dup5\n        /* \"#utility.yul\":2045:2068   */\n      sub\n        /* \"#utility.yul\":2041:2073   */\n      slt\n        /* \"#utility.yul\":2038:2157   */\n      iszero\n      tag_496\n      jumpi\n        /* \"#utility.yul\":2076:2155   */\n      tag_497\n      tag_369\n      jump\t// in\n    tag_497:\n        /* \"#utility.yul\":2038:2157   */\n    tag_496:\n        /* \"#utility.yul\":2196:2197   */\n      0x00\n        /* \"#utility.yul\":2221:2274   */\n      tag_498\n        /* \"#utility.yul\":2266:2273   */\n      dup5\n        /* \"#utility.yul\":2257:2263   */\n      dup3\n        /* \"#utility.yul\":2246:2255   */\n      dup6\n        /* \"#utility.yul\":2242:2264   */\n      add\n        /* \"#utility.yul\":2221:2274   */\n      tag_379\n      jump\t// in\n    tag_498:\n        /* \"#utility.yul\":2211:2274   */\n      swap2\n      pop\n        /* \"#utility.yul\":2167:2284   */\n      pop\n        /* \"#utility.yul\":1962:2291   */\n      swap3\n      swap2\n      pop\n      pop\n      jump\t// out\n        /* \"#utility.yul\":2297:2396   */\n    tag_380:\n        /* \"#utility.yul\":2349:2355   */\n      0x00\n        /* \"#utility.yul\":2383:2388   */\n      dup2\n        /* \"#utility.yul\":2377:2389   */\n      mload\n        /* \"#utility.yul\":2367:2389   */\n      swap1\n      pop\n        /* \"#utility.yul\":2297:2396   */\n      swap2\n      swap1\n      pop\n      jump\t// out\n        /* \"#utility.yul\":2402:2571   */\n    tag_381:\n        /* \"#utility.yul\":2486:2497   */\n      0x00\n        /* \"#utility.yul\":2520:2526   */\n      dup3\n        /* \"#utility.yul\":2515:2518   */\n      dup3\n        /* \"#utility.yul\":2508:2527   */\n      mstore\n        /* \"#utility.yul\":2560:2564   */\n      0x20\n        /* \"#utility.yul\":2555:2558   */\n      dup3\n        /* \"#utility.yul\":2551:2565   */\n      add\n        /* \"#utility.yul\":2536:2565   */\n      swap1\n      pop\n        /* \"#utility.yul\":2402:2571   */\n      swap3\n      swap2\n      pop\n      pop\n      jump\t// out\n        /* \"#utility.yul\":2577:2823   */\n    tag_382:\n        /* \"#utility.yul\":2658:2659   */\n      0x00\n        /* \"#utility.yul\":2668:2781   */\n    tag_502:\n        /* \"#utility.yul\":2682:2688   */\n      dup4\n        /* \"#utility.yul\":2679:2680   */\n      dup2\n        /* \"#utility.yul\":2676:2689   */\n      lt\n        /* \"#utility.yul\":2668:2781   */\n      iszero\n      tag_504\n      jumpi\n        /* \"#utility.yul\":2767:2768   */\n      dup1\n        /* \"#utility.yul\":2762:2765   */\n      dup3\n        /* \"#utility.yul\":2758:2769   */\n      add\n        /* \"#utility.yul\":2752:2770   */\n      mload\n        /* \"#utility.yul\":2748:2749   */\n      dup2\n        /* \"#utility.yul\":2743:2746   */\n      dup5\n        /* \"#utility.yul\":2739:2750   */\n      add\n        /* \"#utility.yul\":2732:2771   */\n      mstore\n        /* \"#utility.yul\":2704:2706   */\n      0x20\n        /* \"#utility.yul\":2701:2702   */\n      dup2\n        /* \"#utility.yul\":2697:2707   */\n      add\n        /* \"#utility.yul\":2692:2707   */\n      swap1\n      pop\n        /* \"#utility.yul\":2668:2781   */\n      jump(tag_502)\n    tag_504:\n        /* \"#utility.yul\":2815:2816   */\n      0x00\n        /* \"#utility.yul\":2806:2812   */\n      dup5\n        /* \"#utility.yul\":2801:2804   */\n      dup5\n        /* \"#utility.yul\":2797:2813   */\n      add\n        /* \"#utility.yul\":2790:2817   */\n      mstore\n        /* \"#utility.yul\":2639:2823   */\n      pop\n        /* \"#utility.yul\":2577:2823   */\n      pop\n      pop\n      pop\n      jump\t// out\n        /* \"#utility.yul\":2829:2931   */\n    tag_383:\n        /* \"#utility.yul\":2870:2876   */\n      0x00\n        /* \"#utility.yul\":2921:2923   */\n      0x1f\n        /* \"#utility.yul\":2917:2924   */\n      not\n        /* \"#utility.yul\":2912:2914   */\n      0x1f\n        /* \"#utility.yul\":2905:2910   */\n      dup4\n        /* \"#utility.yul\":2901:2915   */\n      add\n        /* \"#utility.yul\":2897:2925   */\n      and\n        /* \"#utility.yul\":2887:2925   */\n      swap1\n      pop\n        /* \"#utility.yul\":2829:2931   */\n      swap2\n      swap1\n      pop\n      jump\t// out\n        /* \"#utility.yul\":2937:3314   */\n    tag_384:\n        /* \"#utility.yul\":3025:3028   */\n      0x00\n        /* \"#utility.yul\":3053:3092   */\n      tag_507\n        /* \"#utility.yul\":3086:3091   */\n      dup3\n        /* \"#utility.yul\":3053:3092   */\n      tag_380\n      jump\t// in\n    tag_507:\n        /* \"#utility.yul\":3108:3179   */\n      tag_508\n        /* \"#utility.yul\":3172:3178   */\n      dup2\n        /* \"#utility.yul\":3167:3170   */\n      dup6\n        /* \"#utility.yul\":3108:3179   */\n      tag_381\n      jump\t// in\n    tag_508:\n        /* \"#utility.yul\":3101:3179   */\n      swap4\n      pop\n        /* \"#utility.yul\":3188:3253   */\n      tag_509\n        /* \"#utility.yul\":3246:3252   */\n      dup2\n        /* \"#utility.yul\":3241:3244   */\n      dup6\n        /* \"#utility.yul\":3234:3238   */\n      0x20\n        /* \"#utility.yul\":3227:3232   */\n      dup7\n        /* \"#utility.yul\":3223:3239   */\n      add\n        /* \"#utility.yul\":3188:3253   */\n      tag_382\n      jump\t// in\n    tag_509:\n        /* \"#utility.yul\":3278:3307   */\n      tag_510\n        /* \"#utility.yul\":3300:3306   */\n      dup2\n        /* \"#utility.yul\":3278:3307   */\n      tag_383\n      jump\t// in\n    tag_510:\n        /* \"#utility.yul\":3273:3276   */\n      dup5\n        /* \"#utility.yul\":3269:3308   */\n      add\n        /* \"#utility.yul\":3262:3308   */\n      swap2\n      pop\n        /* \"#utility.yul\":3029:3314   */\n      pop\n        /* \"#utility.yul\":2937:3314   */\n      swap3\n      swap2\n      pop\n      pop\n      jump\t// out\n        /* \"#utility.yul\":3320:3500   */\n    tag_95:\n        /* \"#utility.yul\":3368:3445   */\n      0x4e487b7100000000000000000000000000000000000000000000000000000000\n        /* \"#utility.yul\":3365:3366   */\n      0x00\n        /* \"#utility.yul\":3358:3446   */\n      mstore\n        /* \"#utility.yul\":3465:3469   */\n      0x21\n        /* \"#utility.yul\":3462:3463   */\n      0x04\n        /* \"#utility.yul\":3455:3470   */\n      mstore\n        /* \"#utility.yul\":3489:3493   */\n      0x24\n        /* \"#utility.yul\":3486:3487   */\n      0x00\n        /* \"#utility.yul\":3479:3494   */\n      revert\n        /* \"#utility.yul\":3506:3624   */\n    tag_385:\n        /* \"#utility.yul\":3592:3593   */\n      0x05\n        /* \"#utility.yul\":3585:3590   */\n      dup2\n        /* \"#utility.yul\":3582:3594   */\n      lt\n        /* \"#utility.yul\":3572:3618   */\n      tag_513\n      jumpi\n        /* \"#utility.yul\":3598:3616   */\n      tag_514\n      tag_95\n      jump\t// in\n    tag_514:\n        /* \"#utility.yul\":3572:3618   */\n    tag_513:\n        /* \"#utility.yul\":3506:3624   */\n      pop\n      jump\t// out\n        /* \"#utility.yul\":3630:3767   */\n    tag_386:\n        /* \"#utility.yul\":3680:3687   */\n      0x00\n        /* \"#utility.yul\":3709:3714   */\n      dup2\n        /* \"#utility.yul\":3698:3714   */\n      swap1\n      pop\n        /* \"#utility.yul\":3715:3761   */\n      tag_516\n        /* \"#utility.yul\":3755:3760   */\n      dup3\n        /* \"#utility.yul\":3715:3761   */\n      tag_385\n      jump\t// in\n    tag_516:\n        /* \"#utility.yul\":3630:3767   */\n      swap2\n      swap1\n      pop\n      jump\t// out\n        /* \"#utility.yul\":3773:3910   */\n    tag_387:\n        /* \"#utility.yul\":3834:3843   */\n      0x00\n        /* \"#utility.yul\":3867:3904   */\n      tag_518\n        /* \"#utility.yul\":3898:3903   */\n      dup3\n        /* \"#utility.yul\":3867:3904   */\n      tag_386\n      jump\t// in\n    tag_518:\n        /* \"#utility.yul\":3854:3904   */\n      swap1\n      pop\n        /* \"#utility.yul\":3773:3910   */\n      swap2\n      swap1\n      pop\n      jump\t// out\n        /* \"#utility.yul\":3916:4069   */\n    tag_388:\n        /* \"#utility.yul\":4014:4062   */\n      tag_520\n        /* \"#utility.yul\":4056:4061   */\n      dup2\n        /* \"#utility.yul\":4014:4062   */\n      tag_387\n      jump\t// in\n    tag_520:\n        /* \"#utility.yul\":4009:4012   */\n      dup3\n        /* \"#utility.yul\":4002:4063   */\n      mstore\n        /* \"#utility.yul\":3916:4069   */\n      pop\n      pop\n      jump\t// out\n        /* \"#utility.yul\":4075:4520   */\n    tag_31:\n        /* \"#utility.yul\":4227:4231   */\n      0x00\n        /* \"#utility.yul\":4265:4267   */\n      0x40\n        /* \"#utility.yul\":4254:4263   */\n      dup3\n        /* \"#utility.yul\":4250:4268   */\n      add\n        /* \"#utility.yul\":4242:4268   */\n      swap1\n      pop\n        /* \"#utility.yul\":4314:4323   */\n      dup2\n        /* \"#utility.yul\":4308:4312   */\n      dup2\n        /* \"#utility.yul\":4304:4324   */\n      sub\n        /* \"#utility.yul\":4300:4301   */\n      0x00\n        /* \"#utility.yul\":4289:4298   */\n      dup4\n        /* \"#utility.yul\":4285:4302   */\n      add\n        /* \"#utility.yul\":4278:4325   */\n      mstore\n        /* \"#utility.yul\":4342:4420   */\n      tag_522\n        /* \"#utility.yul\":4415:4419   */\n      dup2\n        /* \"#utility.yul\":4406:4412   */\n      dup6\n        /* \"#utility.yul\":4342:4420   */\n      tag_384\n      jump\t// in\n    tag_522:\n        /* \"#utility.yul\":4334:4420   */\n      swap1\n      pop\n        /* \"#utility.yul\":4430:4513   */\n      tag_523\n        /* \"#utility.yul\":4509:4511   */\n      0x20\n        /* \"#utility.yul\":4498:4507   */\n      dup4\n        /* \"#utility.yul\":4494:4512   */\n      add\n        /* \"#utility.yul\":4485:4491   */\n      dup5\n        /* \"#utility.yul\":4430:4513   */\n      tag_388\n      jump\t// in\n    tag_523:\n        /* \"#utility.yul\":4075:4520   */\n      swap4\n      swap3\n      pop\n      pop\n      pop\n      jump\t// out\n        /* \"#utility.yul\":4526:4643   */\n    tag_389:\n        /* \"#utility.yul\":4635:4636   */\n      0x00\n        /* \"#utility.yul\":4632:4633   */\n      dup1\n        /* \"#utility.yul\":4625:4637   */\n      revert\n        /* \"#utility.yul\":4649:4766   */\n    tag_390:\n        /* \"#utility.yul\":4758:4759   */\n      0x00\n        /* \"#utility.yul\":4755:4756   */\n      dup1\n        /* \"#utility.yul\":4748:4760   */\n      revert\n        /* \"#utility.yul\":4772:4952   */\n    tag_302:\n        /* \"#utility.yul\":4820:4897   */\n      0x4e487b7100000000000000000000000000000000000000000000000000000000\n        /* \"#utility.yul\":4817:4818   */\n      0x00\n        /* \"#utility.yul\":4810:4898   */\n      mstore\n        /* \"#utility.yul\":4917:4921   */\n      0x41\n        /* \"#utility.yul\":4914:4915   */\n      0x04\n        /* \"#utility.yul\":4907:4922   */\n      mstore\n        /* \"#utility.yul\":4941:4945   */\n      0x24\n        /* \"#utility.yul\":4938:4939   */\n      0x00\n        /* \"#utility.yul\":4931:4946   */\n      revert\n        /* \"#utility.yul\":4958:5239   */\n    tag_391:\n        /* \"#utility.yul\":5041:5068   */\n      tag_528\n        /* \"#utility.yul\":5063:5067   */\n      dup3\n        /* \"#utility.yul\":5041:5068   */\n      tag_383\n      jump\t// in\n    tag_528:\n        /* \"#utility.yul\":5033:5039   */\n      dup2\n        /* \"#utility.yul\":5029:5069   */\n      add\n        /* \"#utility.yul\":5171:5177   */\n      dup2\n        /* \"#utility.yul\":5159:5169   */\n      dup2\n        /* \"#utility.yul\":5156:5178   */\n      lt\n        /* \"#utility.yul\":5135:5153   */\n      0xffffffffffffffff\n        /* \"#utility.yul\":5123:5133   */\n      dup3\n        /* \"#utility.yul\":5120:5154   */\n      gt\n        /* \"#utility.yul\":5117:5179   */\n      or\n        /* \"#utility.yul\":5114:5202   */\n      iszero\n      tag_529\n      jumpi\n        /* \"#utility.yul\":5182:5200   */\n      tag_530\n      tag_302\n      jump\t// in\n    tag_530:\n        /* \"#utility.yul\":5114:5202   */\n    tag_529:\n        /* \"#utility.yul\":5222:5232   */\n      dup1\n        /* \"#utility.yul\":5218:5220   */\n      0x40\n        /* \"#utility.yul\":5211:5233   */\n      mstore\n        /* \"#utility.yul\":5001:5239   */\n      pop\n        /* \"#utility.yul\":4958:5239   */\n      pop\n      pop\n      jump\t// out\n        /* \"#utility.yul\":5245:5374   */\n    tag_392:\n        /* \"#utility.yul\":5279:5285   */\n      0x00\n        /* \"#utility.yul\":5306:5326   */\n      tag_532\n      tag_368\n      jump\t// in\n    tag_532:\n        /* \"#utility.yul\":5296:5326   */\n      swap1\n      pop\n        /* \"#utility.yul\":5335:5368   */\n      tag_533\n        /* \"#utility.yul\":5363:5367   */\n      dup3\n        /* \"#utility.yul\":5355:5361   */\n      dup3\n        /* \"#utility.yul\":5335:5368   */\n      tag_391\n      jump\t// in\n    tag_533:\n        /* \"#utility.yul\":5245:5374   */\n      swap2\n      swap1\n      pop\n      jump\t// out\n        /* \"#utility.yul\":5380:5688   */\n    tag_393:\n        /* \"#utility.yul\":5442:5446   */\n      0x00\n        /* \"#utility.yul\":5532:5550   */\n      0xffffffffffffffff\n        /* \"#utility.yul\":5524:5530   */\n      dup3\n        /* \"#utility.yul\":5521:5551   */\n      gt\n        /* \"#utility.yul\":5518:5574   */\n      iszero\n      tag_535\n      jumpi\n        /* \"#utility.yul\":5554:5572   */\n      tag_536\n      tag_302\n      jump\t// in\n    tag_536:\n        /* \"#utility.yul\":5518:5574   */\n    tag_535:\n        /* \"#utility.yul\":5592:5621   */\n      tag_537\n        /* \"#utility.yul\":5614:5620   */\n      dup3\n        /* \"#utility.yul\":5592:5621   */\n      tag_383\n      jump\t// in\n    tag_537:\n        /* \"#utility.yul\":5584:5621   */\n      swap1\n      pop\n        /* \"#utility.yul\":5676:5680   */\n      0x20\n        /* \"#utility.yul\":5670:5674   */\n      dup2\n        /* \"#utility.yul\":5666:5681   */\n      add\n        /* \"#utility.yul\":5658:5681   */\n      swap1\n      pop\n        /* \"#utility.yul\":5380:5688   */\n      swap2\n      swap1\n      pop\n      jump\t// out\n        /* \"#utility.yul\":5694:5840   */\n    tag_394:\n        /* \"#utility.yul\":5791:5797   */\n      dup3\n        /* \"#utility.yul\":5786:5789   */\n      dup2\n        /* \"#utility.yul\":5781:5784   */\n      dup4\n        /* \"#utility.yul\":5768:5798   */\n      calldatacopy\n        /* \"#utility.yul\":5832:5833   */\n      0x00\n        /* \"#utility.yul\":5823:5829   */\n      dup4\n        /* \"#utility.yul\":5818:5821   */\n      dup4\n        /* \"#utility.yul\":5814:5830   */\n      add\n        /* \"#utility.yul\":5807:5834   */\n      mstore\n        /* \"#utility.yul\":5694:5840   */\n      pop\n      pop\n      pop\n      jump\t// out\n        /* \"#utility.yul\":5846:6271   */\n    tag_395:\n        /* \"#utility.yul\":5924:5929   */\n      0x00\n        /* \"#utility.yul\":5949:6015   */\n      tag_540\n        /* \"#utility.yul\":5965:6014   */\n      tag_541\n        /* \"#utility.yul\":6007:6013   */\n      dup5\n        /* \"#utility.yul\":5965:6014   */\n      tag_393\n      jump\t// in\n    tag_541:\n        /* \"#utility.yul\":5949:6015   */\n      tag_392\n      jump\t// in\n    tag_540:\n        /* \"#utility.yul\":5940:6015   */\n      swap1\n      pop\n        /* \"#utility.yul\":6038:6044   */\n      dup3\n        /* \"#utility.yul\":6031:6036   */\n      dup2\n        /* \"#utility.yul\":6024:6045   */\n      mstore\n        /* \"#utility.yul\":6076:6080   */\n      0x20\n        /* \"#utility.yul\":6069:6074   */\n      dup2\n        /* \"#utility.yul\":6065:6081   */\n      add\n        /* \"#utility.yul\":6114:6117   */\n      dup5\n        /* \"#utility.yul\":6105:6111   */\n      dup5\n        /* \"#utility.yul\":6100:6103   */\n      dup5\n        /* \"#utility.yul\":6096:6112   */\n      add\n        /* \"#utility.yul\":6093:6118   */\n      gt\n        /* \"#utility.yul\":6090:6202   */\n      iszero\n      tag_542\n      jumpi\n        /* \"#utility.yul\":6121:6200   */\n      tag_543\n      tag_390\n      jump\t// in\n    tag_543:\n        /* \"#utility.yul\":6090:6202   */\n    tag_542:\n        /* \"#utility.yul\":6211:6265   */\n      tag_544\n        /* \"#utility.yul\":6258:6264   */\n      dup5\n        /* \"#utility.yul\":6253:6256   */\n      dup3\n        /* \"#utility.yul\":6248:6251   */\n      dup6\n        /* \"#utility.yul\":6211:6265   */\n      tag_394\n      jump\t// in\n    tag_544:\n        /* \"#utility.yul\":5930:6271   */\n      pop\n        /* \"#utility.yul\":5846:6271   */\n      swap4\n      swap3\n      pop\n      pop\n      pop\n      jump\t// out\n        /* \"#utility.yul\":6291:6631   */\n    tag_396:\n        /* \"#utility.yul\":6347:6352   */\n      0x00\n        /* \"#utility.yul\":6396:6399   */\n      dup3\n        /* \"#utility.yul\":6389:6393   */\n      0x1f\n        /* \"#utility.yul\":6381:6387   */\n      dup4\n        /* \"#utility.yul\":6377:6394   */\n      add\n        /* \"#utility.yul\":6373:6400   */\n      slt\n        /* \"#utility.yul\":6363:6485   */\n      tag_546\n      jumpi\n        /* \"#utility.yul\":6404:6483   */\n      tag_547\n      tag_389\n      jump\t// in\n    tag_547:\n        /* \"#utility.yul\":6363:6485   */\n    tag_546:\n        /* \"#utility.yul\":6521:6527   */\n      dup2\n        /* \"#utility.yul\":6508:6528   */\n      calldataload\n        /* \"#utility.yul\":6546:6625   */\n      tag_548\n        /* \"#utility.yul\":6621:6624   */\n      dup5\n        /* \"#utility.yul\":6613:6619   */\n      dup3\n        /* \"#utility.yul\":6606:6610   */\n      0x20\n        /* \"#utility.yul\":6598:6604   */\n      dup7\n        /* \"#utility.yul\":6594:6611   */\n      add\n        /* \"#utility.yul\":6546:6625   */\n      tag_395\n      jump\t// in\n    tag_548:\n        /* \"#utility.yul\":6537:6625   */\n      swap2\n      pop\n        /* \"#utility.yul\":6353:6631   */\n      pop\n        /* \"#utility.yul\":6291:6631   */\n      swap3\n      swap2\n      pop\n      pop\n      jump\t// out\n        /* \"#utility.yul\":6637:7146   */\n    tag_34:\n        /* \"#utility.yul\":6706:6712   */\n      0x00\n        /* \"#utility.yul\":6755:6757   */\n      0x20\n        /* \"#utility.yul\":6743:6752   */\n      dup3\n        /* \"#utility.yul\":6734:6741   */\n      dup5\n        /* \"#utility.yul\":6730:6753   */\n      sub\n        /* \"#utility.yul\":6726:6758   */\n      slt\n        /* \"#utility.yul\":6723:6842   */\n      iszero\n      tag_550\n      jumpi\n        /* \"#utility.yul\":6761:6840   */\n      tag_551\n      tag_369\n      jump\t// in\n    tag_551:\n        /* \"#utility.yul\":6723:6842   */\n    tag_550:\n        /* \"#utility.yul\":6909:6910   */\n      0x00\n        /* \"#utility.yul\":6898:6907   */\n      dup3\n        /* \"#utility.yul\":6894:6911   */\n      add\n        /* \"#utility.yul\":6881:6912   */\n      calldataload\n        /* \"#utility.yul\":6939:6957   */\n      0xffffffffffffffff\n        /* \"#utility.yul\":6931:6937   */\n      dup2\n        /* \"#utility.yul\":6928:6958   */\n      gt\n        /* \"#utility.yul\":6925:7042   */\n      iszero\n      tag_552\n      jumpi\n        /* \"#utility.yul\":6961:7040   */\n      tag_553\n      tag_370\n      jump\t// in\n    tag_553:\n        /* \"#utility.yul\":6925:7042   */\n    tag_552:\n        /* \"#utility.yul\":7066:7129   */\n      tag_554\n        /* \"#utility.yul\":7121:7128   */\n      dup5\n        /* \"#utility.yul\":7112:7118   */\n      dup3\n        /* \"#utility.yul\":7101:7110   */\n      dup6\n        /* \"#utility.yul\":7097:7119   */\n      add\n        /* \"#utility.yul\":7066:7129   */\n      tag_396\n      jump\t// in\n    tag_554:\n        /* \"#utility.yul\":7056:7129   */\n      swap2\n      pop\n        /* \"#utility.yul\":6852:7139   */\n      pop\n        /* \"#utility.yul\":6637:7146   */\n      swap3\n      swap2\n      pop\n      pop\n      jump\t// out\n        /* \"#utility.yul\":7152:7270   */\n    tag_397:\n        /* \"#utility.yul\":7239:7263   */\n      tag_556\n        /* \"#utility.yul\":7257:7262   */\n      dup2\n        /* \"#utility.yul\":7239:7263   */\n      tag_377\n      jump\t// in\n    tag_556:\n        /* \"#utility.yul\":7234:7237   */\n      dup3\n        /* \"#utility.yul\":7227:7264   */\n      mstore\n        /* \"#utility.yul\":7152:7270   */\n      pop\n      pop\n      jump\t// out\n        /* \"#utility.yul\":7276:7630   */\n    tag_37:\n        /* \"#utility.yul\":7408:7412   */\n      0x00\n        /* \"#utility.yul\":7446:7448   */\n      0x40\n        /* \"#utility.yul\":7435:7444   */\n      dup3\n        /* \"#utility.yul\":7431:7449   */\n      add\n        /* \"#utility.yul\":7423:7449   */\n      swap1\n      pop\n        /* \"#utility.yul\":7459:7530   */\n      tag_558\n        /* \"#utility.yul\":7527:7528   */\n      0x00\n        /* \"#utility.yul\":7516:7525   */\n      dup4\n        /* \"#utility.yul\":7512:7529   */\n      add\n        /* \"#utility.yul\":7503:7509   */\n      dup6\n        /* \"#utility.yul\":7459:7530   */\n      tag_397\n      jump\t// in\n    tag_558:\n        /* \"#utility.yul\":7540:7623   */\n      tag_559\n        /* \"#utility.yul\":7619:7621   */\n      0x20\n        /* \"#utility.yul\":7608:7617   */\n      dup4\n        /* \"#utility.yul\":7604:7622   */\n      add\n        /* \"#utility.yul\":7595:7601   */\n      dup5\n        /* \"#utility.yul\":7540:7623   */\n      tag_388\n      jump\t// in\n    tag_559:\n        /* \"#utility.yul\":7276:7630   */\n      swap4\n      swap3\n      pop\n      pop\n      pop\n      jump\t// out\n        /* \"#utility.yul\":7636:8449   */\n    tag_40:\n        /* \"#utility.yul\":7730:7736   */\n      0x00\n        /* \"#utility.yul\":7738:7744   */\n      dup1\n        /* \"#utility.yul\":7746:7752   */\n      0x00\n        /* \"#utility.yul\":7795:7797   */\n      0x60\n        /* \"#utility.yul\":7783:7792   */\n      dup5\n        /* \"#utility.yul\":7774:7781   */\n      dup7\n        /* \"#utility.yul\":7770:7793   */\n      sub\n        /* \"#utility.yul\":7766:7798   */\n      slt\n        /* \"#utility.yul\":7763:7882   */\n      iszero\n      tag_561\n      jumpi\n        /* \"#utility.yul\":7801:7880   */\n      tag_562\n      tag_369\n      jump\t// in\n    tag_562:\n        /* \"#utility.yul\":7763:7882   */\n    tag_561:\n        /* \"#utility.yul\":7921:7922   */\n      0x00\n        /* \"#utility.yul\":7946:7999   */\n      tag_563\n        /* \"#utility.yul\":7991:7998   */\n      dup7\n        /* \"#utility.yul\":7982:7988   */\n      dup3\n        /* \"#utility.yul\":7971:7980   */\n      dup8\n        /* \"#utility.yul\":7967:7989   */\n      add\n        /* \"#utility.yul\":7946:7999   */\n      tag_374\n      jump\t// in\n    tag_563:\n        /* \"#utility.yul\":7936:7999   */\n      swap4\n      pop\n        /* \"#utility.yul\":7892:8009   */\n      pop\n        /* \"#utility.yul\":8076:8078   */\n      0x20\n        /* \"#utility.yul\":8065:8074   */\n      dup5\n        /* \"#utility.yul\":8061:8079   */\n      add\n        /* \"#utility.yul\":8048:8080   */\n      calldataload\n        /* \"#utility.yul\":8107:8125   */\n      0xffffffffffffffff\n        /* \"#utility.yul\":8099:8105   */\n      dup2\n        /* \"#utility.yul\":8096:8126   */\n      gt\n        /* \"#utility.yul\":8093:8210   */\n      iszero\n      tag_564\n      jumpi\n        /* \"#utility.yul\":8129:8208   */\n      tag_565\n      tag_370\n      jump\t// in\n    tag_565:\n        /* \"#utility.yul\":8093:8210   */\n    tag_564:\n        /* \"#utility.yul\":8234:8297   */\n      tag_566\n        /* \"#utility.yul\":8289:8296   */\n      dup7\n        /* \"#utility.yul\":8280:8286   */\n      dup3\n        /* \"#utility.yul\":8269:8278   */\n      dup8\n        /* \"#utility.yul\":8265:8287   */\n      add\n        /* \"#utility.yul\":8234:8297   */\n      tag_396\n      jump\t// in\n    tag_566:\n        /* \"#utility.yul\":8224:8297   */\n      swap3\n      pop\n        /* \"#utility.yul\":8019:8307   */\n      pop\n        /* \"#utility.yul\":8346:8348   */\n      0x40\n        /* \"#utility.yul\":8372:8432   */\n      tag_567\n        /* \"#utility.yul\":8424:8431   */\n      dup7\n        /* \"#utility.yul\":8415:8421   */\n      dup3\n        /* \"#utility.yul\":8404:8413   */\n      dup8\n        /* \"#utility.yul\":8400:8422   */\n      add\n        /* \"#utility.yul\":8372:8432   */\n      tag_376\n      jump\t// in\n    tag_567:\n        /* \"#utility.yul\":8362:8432   */\n      swap2\n      pop\n        /* \"#utility.yul\":8317:8442   */\n      pop\n        /* \"#utility.yul\":7636:8449   */\n      swap3\n      pop\n      swap3\n      pop\n      swap3\n      jump\t// out\n        /* \"#utility.yul\":8455:8573   */\n    tag_398:\n        /* \"#utility.yul\":8542:8566   */\n      tag_569\n        /* \"#utility.yul\":8560:8565   */\n      dup2\n        /* \"#utility.yul\":8542:8566   */\n      tag_372\n      jump\t// in\n    tag_569:\n        /* \"#utility.yul\":8537:8540   */\n      dup3\n        /* \"#utility.yul\":8530:8567   */\n      mstore\n        /* \"#utility.yul\":8455:8573   */\n      pop\n      pop\n      jump\t// out\n        /* \"#utility.yul\":8579:8801   */\n    tag_46:\n        /* \"#utility.yul\":8672:8676   */\n      0x00\n        /* \"#utility.yul\":8710:8712   */\n      0x20\n        /* \"#utility.yul\":8699:8708   */\n      dup3\n        /* \"#utility.yul\":8695:8713   */\n      add\n        /* \"#utility.yul\":8687:8713   */\n      swap1\n      pop\n        /* \"#utility.yul\":8723:8794   */\n      tag_571\n        /* \"#utility.yul\":8791:8792   */\n      0x00\n        /* \"#utility.yul\":8780:8789   */\n      dup4\n        /* \"#utility.yul\":8776:8793   */\n      add\n        /* \"#utility.yul\":8767:8773   */\n      dup5\n        /* \"#utility.yul\":8723:8794   */\n      tag_398\n      jump\t// in\n    tag_571:\n        /* \"#utility.yul\":8579:8801   */\n      swap3\n      swap2\n      pop\n      pop\n      jump\t// out\n        /* \"#utility.yul\":8807:9136   */\n    tag_49:\n        /* \"#utility.yul\":8866:8872   */\n      0x00\n        /* \"#utility.yul\":8915:8917   */\n      0x20\n        /* \"#utility.yul\":8903:8912   */\n      dup3\n        /* \"#utility.yul\":8894:8901   */\n      dup5\n        /* \"#utility.yul\":8890:8913   */\n      sub\n        /* \"#utility.yul\":8886:8918   */\n      slt\n        /* \"#utility.yul\":8883:9002   */\n      iszero\n      tag_573\n      jumpi\n        /* \"#utility.yul\":8921:9000   */\n      tag_574\n      tag_369\n      jump\t// in\n    tag_574:\n        /* \"#utility.yul\":8883:9002   */\n    tag_573:\n        /* \"#utility.yul\":9041:9042   */\n      0x00\n        /* \"#utility.yul\":9066:9119   */\n      tag_575\n        /* \"#utility.yul\":9111:9118   */\n      dup5\n        /* \"#utility.yul\":9102:9108   */\n      dup3\n        /* \"#utility.yul\":9091:9100   */\n      dup6\n        /* \"#utility.yul\":9087:9109   */\n      add\n        /* \"#utility.yul\":9066:9119   */\n      tag_374\n      jump\t// in\n    tag_575:\n        /* \"#utility.yul\":9056:9119   */\n      swap2\n      pop\n        /* \"#utility.yul\":9012:9129   */\n      pop\n        /* \"#utility.yul\":8807:9136   */\n      swap3\n      swap2\n      pop\n      pop\n      jump\t// out\n        /* \"#utility.yul\":9142:9301   */\n    tag_399:\n        /* \"#utility.yul\":9216:9227   */\n      0x00\n        /* \"#utility.yul\":9250:9256   */\n      dup3\n        /* \"#utility.yul\":9245:9248   */\n      dup3\n        /* \"#utility.yul\":9238:9257   */\n      mstore\n        /* \"#utility.yul\":9290:9294   */\n      0x20\n        /* \"#utility.yul\":9285:9288   */\n      dup3\n        /* \"#utility.yul\":9281:9295   */\n      add\n        /* \"#utility.yul\":9266:9295   */\n      swap1\n      pop\n        /* \"#utility.yul\":9142:9301   */\n      swap3\n      swap2\n      pop\n      pop\n      jump\t// out\n        /* \"#utility.yul\":9307:9664   */\n    tag_400:\n        /* \"#utility.yul\":9385:9388   */\n      0x00\n        /* \"#utility.yul\":9413:9452   */\n      tag_578\n        /* \"#utility.yul\":9446:9451   */\n      dup3\n        /* \"#utility.yul\":9413:9452   */\n      tag_380\n      jump\t// in\n    tag_578:\n        /* \"#utility.yul\":9468:9529   */\n      tag_579\n        /* \"#utility.yul\":9522:9528   */\n      dup2\n        /* \"#utility.yul\":9517:9520   */\n      dup6\n        /* \"#utility.yul\":9468:9529   */\n      tag_399\n      jump\t// in\n    tag_579:\n        /* \"#utility.yul\":9461:9529   */\n      swap4\n      pop\n        /* \"#utility.yul\":9538:9603   */\n      tag_580\n        /* \"#utility.yul\":9596:9602   */\n      dup2\n        /* \"#utility.yul\":9591:9594   */\n      dup6\n        /* \"#utility.yul\":9584:9588   */\n      0x20\n        /* \"#utility.yul\":9577:9582   */\n      dup7\n        /* \"#utility.yul\":9573:9589   */\n      add\n        /* \"#utility.yul\":9538:9603   */\n      tag_382\n      jump\t// in\n    tag_580:\n        /* \"#utility.yul\":9628:9657   */\n      tag_581\n        /* \"#utility.yul\":9650:9656   */\n      dup2\n        /* \"#utility.yul\":9628:9657   */\n      tag_383\n      jump\t// in\n    tag_581:\n        /* \"#utility.yul\":9623:9626   */\n      dup5\n        /* \"#utility.yul\":9619:9658   */\n      add\n        /* \"#utility.yul\":9612:9658   */\n      swap2\n      pop\n        /* \"#utility.yul\":9389:9664   */\n      pop\n        /* \"#utility.yul\":9307:9664   */\n      swap3\n      swap2\n      pop\n      pop\n      jump\t// out\n        /* \"#utility.yul\":9670:9782   */\n    tag_401:\n        /* \"#utility.yul\":9750:9751   */\n      0x05\n        /* \"#utility.yul\":9743:9748   */\n      dup2\n        /* \"#utility.yul\":9740:9752   */\n      lt\n        /* \"#utility.yul\":9730:9776   */\n      tag_583\n      jumpi\n        /* \"#utility.yul\":9756:9774   */\n      tag_584\n      tag_95\n      jump\t// in\n    tag_584:\n        /* \"#utility.yul\":9730:9776   */\n    tag_583:\n        /* \"#utility.yul\":9670:9782   */\n      pop\n      jump\t// out\n        /* \"#utility.yul\":9788:9913   */\n    tag_402:\n        /* \"#utility.yul\":9832:9839   */\n      0x00\n        /* \"#utility.yul\":9861:9866   */\n      dup2\n        /* \"#utility.yul\":9850:9866   */\n      swap1\n      pop\n        /* \"#utility.yul\":9867:9907   */\n      tag_586\n        /* \"#utility.yul\":9901:9906   */\n      dup3\n        /* \"#utility.yul\":9867:9907   */\n      tag_401\n      jump\t// in\n    tag_586:\n        /* \"#utility.yul\":9788:9913   */\n      swap2\n      swap1\n      pop\n      jump\t// out\n        /* \"#utility.yul\":9919:10044   */\n    tag_403:\n        /* \"#utility.yul\":9974:9983   */\n      0x00\n        /* \"#utility.yul\":10007:10038   */\n      tag_588\n        /* \"#utility.yul\":10032:10037   */\n      dup3\n        /* \"#utility.yul\":10007:10038   */\n      tag_402\n      jump\t// in\n    tag_588:\n        /* \"#utility.yul\":9994:10038   */\n      swap1\n      pop\n        /* \"#utility.yul\":9919:10044   */\n      swap2\n      swap1\n      pop\n      jump\t// out\n        /* \"#utility.yul\":10050:10181   */\n    tag_404:\n        /* \"#utility.yul\":10132:10174   */\n      tag_590\n        /* \"#utility.yul\":10168:10173   */\n      dup2\n        /* \"#utility.yul\":10132:10174   */\n      tag_403\n      jump\t// in\n    tag_590:\n        /* \"#utility.yul\":10127:10130   */\n      dup3\n        /* \"#utility.yul\":10120:10175   */\n      mstore\n        /* \"#utility.yul\":10050:10181   */\n      pop\n      pop\n      jump\t// out\n        /* \"#utility.yul\":10231:10832   */\n    tag_405:\n        /* \"#utility.yul\":10340:10343   */\n      0x00\n        /* \"#utility.yul\":10376:10380   */\n      0x40\n        /* \"#utility.yul\":10371:10374   */\n      dup4\n        /* \"#utility.yul\":10367:10381   */\n      add\n        /* \"#utility.yul\":10463:10467   */\n      0x00\n        /* \"#utility.yul\":10456:10461   */\n      dup4\n        /* \"#utility.yul\":10452:10468   */\n      add\n        /* \"#utility.yul\":10446:10469   */\n      mload\n        /* \"#utility.yul\":10516:10519   */\n      dup5\n        /* \"#utility.yul\":10510:10514   */\n      dup3\n        /* \"#utility.yul\":10506:10520   */\n      sub\n        /* \"#utility.yul\":10499:10503   */\n      0x00\n        /* \"#utility.yul\":10494:10497   */\n      dup7\n        /* \"#utility.yul\":10490:10504   */\n      add\n        /* \"#utility.yul\":10483:10521   */\n      mstore\n        /* \"#utility.yul\":10542:10615   */\n      tag_592\n        /* \"#utility.yul\":10610:10614   */\n      dup3\n        /* \"#utility.yul\":10596:10608   */\n      dup3\n        /* \"#utility.yul\":10542:10615   */\n      tag_400\n      jump\t// in\n    tag_592:\n        /* \"#utility.yul\":10534:10615   */\n      swap2\n      pop\n        /* \"#utility.yul\":10391:10626   */\n      pop\n        /* \"#utility.yul\":10708:10712   */\n      0x20\n        /* \"#utility.yul\":10701:10706   */\n      dup4\n        /* \"#utility.yul\":10697:10713   */\n      add\n        /* \"#utility.yul\":10691:10714   */\n      mload\n        /* \"#utility.yul\":10727:10795   */\n      tag_593\n        /* \"#utility.yul\":10789:10793   */\n      0x20\n        /* \"#utility.yul\":10784:10787   */\n      dup7\n        /* \"#utility.yul\":10780:10794   */\n      add\n        /* \"#utility.yul\":10766:10778   */\n      dup3\n        /* \"#utility.yul\":10727:10795   */\n      tag_404\n      jump\t// in\n    tag_593:\n        /* \"#utility.yul\":10636:10805   */\n      pop\n        /* \"#utility.yul\":10822:10826   */\n      dup1\n        /* \"#utility.yul\":10815:10826   */\n      swap2\n      pop\n        /* \"#utility.yul\":10345:10832   */\n      pop\n        /* \"#utility.yul\":10231:10832   */\n      swap3\n      swap2\n      pop\n      pop\n      jump\t// out\n        /* \"#utility.yul\":10838:11191   */\n    tag_59:\n        /* \"#utility.yul\":10971:10975   */\n      0x00\n        /* \"#utility.yul\":11009:11011   */\n      0x20\n        /* \"#utility.yul\":10998:11007   */\n      dup3\n        /* \"#utility.yul\":10994:11012   */\n      add\n        /* \"#utility.yul\":10986:11012   */\n      swap1\n      pop\n        /* \"#utility.yul\":11058:11067   */\n      dup2\n        /* \"#utility.yul\":11052:11056   */\n      dup2\n        /* \"#utility.yul\":11048:11068   */\n      sub\n        /* \"#utility.yul\":11044:11045   */\n      0x00\n        /* \"#utility.yul\":11033:11042   */\n      dup4\n        /* \"#utility.yul\":11029:11046   */\n      add\n        /* \"#utility.yul\":11022:11069   */\n      mstore\n        /* \"#utility.yul\":11086:11184   */\n      tag_595\n        /* \"#utility.yul\":11179:11183   */\n      dup2\n        /* \"#utility.yul\":11170:11176   */\n      dup5\n        /* \"#utility.yul\":11086:11184   */\n      tag_405\n      jump\t// in\n    tag_595:\n        /* \"#utility.yul\":11078:11184   */\n      swap1\n      pop\n        /* \"#utility.yul\":10838:11191   */\n      swap3\n      swap2\n      pop\n      pop\n      jump\t// out\n        /* \"#utility.yul\":11197:11510   */\n    tag_63:\n        /* \"#utility.yul\":11310:11314   */\n      0x00\n        /* \"#utility.yul\":11348:11350   */\n      0x20\n        /* \"#utility.yul\":11337:11346   */\n      dup3\n        /* \"#utility.yul\":11333:11351   */\n      add\n        /* \"#utility.yul\":11325:11351   */\n      swap1\n      pop\n        /* \"#utility.yul\":11397:11406   */\n      dup2\n        /* \"#utility.yul\":11391:11395   */\n      dup2\n        /* \"#utility.yul\":11387:11407   */\n      sub\n        /* \"#utility.yul\":11383:11384   */\n      0x00\n        /* \"#utility.yul\":11372:11381   */\n      dup4\n        /* \"#utility.yul\":11368:11385   */\n      add\n        /* \"#utility.yul\":11361:11408   */\n      mstore\n        /* \"#utility.yul\":11425:11503   */\n      tag_597\n        /* \"#utility.yul\":11498:11502   */\n      dup2\n        /* \"#utility.yul\":11489:11495   */\n      dup5\n        /* \"#utility.yul\":11425:11503   */\n      tag_384\n      jump\t// in\n    tag_597:\n        /* \"#utility.yul\":11417:11503   */\n      swap1\n      pop\n        /* \"#utility.yul\":11197:11510   */\n      swap3\n      swap2\n      pop\n      pop\n      jump\t// out\n        /* \"#utility.yul\":11516:11657   */\n    tag_406:\n        /* \"#utility.yul\":11608:11650   */\n      tag_599\n        /* \"#utility.yul\":11644:11649   */\n      dup2\n        /* \"#utility.yul\":11608:11650   */\n      tag_403\n      jump\t// in\n    tag_599:\n        /* \"#utility.yul\":11603:11606   */\n      dup3\n        /* \"#utility.yul\":11596:11651   */\n      mstore\n        /* \"#utility.yul\":11516:11657   */\n      pop\n      pop\n      jump\t// out\n        /* \"#utility.yul\":11663:12096   */\n    tag_74:\n        /* \"#utility.yul\":11809:11813   */\n      0x00\n        /* \"#utility.yul\":11847:11849   */\n      0x40\n        /* \"#utility.yul\":11836:11845   */\n      dup3\n        /* \"#utility.yul\":11832:11850   */\n      add\n        /* \"#utility.yul\":11824:11850   */\n      swap1\n      pop\n        /* \"#utility.yul\":11896:11905   */\n      dup2\n        /* \"#utility.yul\":11890:11894   */\n      dup2\n        /* \"#utility.yul\":11886:11906   */\n      sub\n        /* \"#utility.yul\":11882:11883   */\n      0x00\n        /* \"#utility.yul\":11871:11880   */\n      dup4\n        /* \"#utility.yul\":11867:11884   */\n      add\n        /* \"#utility.yul\":11860:11907   */\n      mstore\n        /* \"#utility.yul\":11924:12002   */\n      tag_601\n        /* \"#utility.yul\":11997:12001   */\n      dup2\n        /* \"#utility.yul\":11988:11994   */\n      dup6\n        /* \"#utility.yul\":11924:12002   */\n      tag_384\n      jump\t// in\n    tag_601:\n        /* \"#utility.yul\":11916:12002   */\n      swap1\n      pop\n        /* \"#utility.yul\":12012:12089   */\n      tag_602\n        /* \"#utility.yul\":12085:12087   */\n      0x20\n        /* \"#utility.yul\":12074:12083   */\n      dup4\n        /* \"#utility.yul\":12070:12088   */\n      add\n        /* \"#utility.yul\":12061:12067   */\n      dup5\n        /* \"#utility.yul\":12012:12089   */\n      tag_406\n      jump\t// in\n    tag_602:\n        /* \"#utility.yul\":11663:12096   */\n      swap4\n      swap3\n      pop\n      pop\n      pop\n      jump\t// out\n        /* \"#utility.yul\":12102:12214   */\n    tag_407:\n        /* \"#utility.yul\":12188:12189   */\n      0x05\n        /* \"#utility.yul\":12181:12186   */\n      dup2\n        /* \"#utility.yul\":12178:12190   */\n      lt\n        /* \"#utility.yul\":12168:12208   */\n      tag_604\n      jumpi\n        /* \"#utility.yul\":12204:12205   */\n      0x00\n        /* \"#utility.yul\":12201:12202   */\n      dup1\n        /* \"#utility.yul\":12194:12206   */\n      revert\n        /* \"#utility.yul\":12168:12208   */\n    tag_604:\n        /* \"#utility.yul\":12102:12214   */\n      pop\n      jump\t// out\n        /* \"#utility.yul\":12220:12385   */\n    tag_408:\n        /* \"#utility.yul\":12279:12284   */\n      0x00\n        /* \"#utility.yul\":12317:12323   */\n      dup2\n        /* \"#utility.yul\":12304:12324   */\n      calldataload\n        /* \"#utility.yul\":12295:12324   */\n      swap1\n      pop\n        /* \"#utility.yul\":12333:12379   */\n      tag_606\n        /* \"#utility.yul\":12373:12378   */\n      dup2\n        /* \"#utility.yul\":12333:12379   */\n      tag_407\n      jump\t// in\n    tag_606:\n        /* \"#utility.yul\":12220:12385   */\n      swap3\n      swap2\n      pop\n      pop\n      jump\t// out\n        /* \"#utility.yul\":12391:13216   */\n    tag_77:\n        /* \"#utility.yul\":12491:12497   */\n      0x00\n        /* \"#utility.yul\":12499:12505   */\n      dup1\n        /* \"#utility.yul\":12507:12513   */\n      0x00\n        /* \"#utility.yul\":12556:12558   */\n      0x60\n        /* \"#utility.yul\":12544:12553   */\n      dup5\n        /* \"#utility.yul\":12535:12542   */\n      dup7\n        /* \"#utility.yul\":12531:12554   */\n      sub\n        /* \"#utility.yul\":12527:12559   */\n      slt\n        /* \"#utility.yul\":12524:12643   */\n      iszero\n      tag_608\n      jumpi\n        /* \"#utility.yul\":12562:12641   */\n      tag_609\n      tag_369\n      jump\t// in\n    tag_609:\n        /* \"#utility.yul\":12524:12643   */\n    tag_608:\n        /* \"#utility.yul\":12682:12683   */\n      0x00\n        /* \"#utility.yul\":12707:12760   */\n      tag_610\n        /* \"#utility.yul\":12752:12759   */\n      dup7\n        /* \"#utility.yul\":12743:12749   */\n      dup3\n        /* \"#utility.yul\":12732:12741   */\n      dup8\n        /* \"#utility.yul\":12728:12750   */\n      add\n        /* \"#utility.yul\":12707:12760   */\n      tag_379\n      jump\t// in\n    tag_610:\n        /* \"#utility.yul\":12697:12760   */\n      swap4\n      pop\n        /* \"#utility.yul\":12653:12770   */\n      pop\n        /* \"#utility.yul\":12837:12839   */\n      0x20\n        /* \"#utility.yul\":12826:12835   */\n      dup5\n        /* \"#utility.yul\":12822:12840   */\n      add\n        /* \"#utility.yul\":12809:12841   */\n      calldataload\n        /* \"#utility.yul\":12868:12886   */\n      0xffffffffffffffff\n        /* \"#utility.yul\":12860:12866   */\n      dup2\n        /* \"#utility.yul\":12857:12887   */\n      gt\n        /* \"#utility.yul\":12854:12971   */\n      iszero\n      tag_611\n      jumpi\n        /* \"#utility.yul\":12890:12969   */\n      tag_612\n      tag_370\n      jump\t// in\n    tag_612:\n        /* \"#utility.yul\":12854:12971   */\n    tag_611:\n        /* \"#utility.yul\":12995:13058   */\n      tag_613\n        /* \"#utility.yul\":13050:13057   */\n      dup7\n        /* \"#utility.yul\":13041:13047   */\n      dup3\n        /* \"#utility.yul\":13030:13039   */\n      dup8\n        /* \"#utility.yul\":13026:13048   */\n      add\n        /* \"#utility.yul\":12995:13058   */\n      tag_396\n      jump\t// in\n    tag_613:\n        /* \"#utility.yul\":12985:13058   */\n      swap3\n      pop\n        /* \"#utility.yul\":12780:13068   */\n      pop\n        /* \"#utility.yul\":13107:13109   */\n      0x40\n        /* \"#utility.yul\":13133:13199   */\n      tag_614\n        /* \"#utility.yul\":13191:13198   */\n      dup7\n        /* \"#utility.yul\":13182:13188   */\n      dup3\n        /* \"#utility.yul\":13171:13180   */\n      dup8\n        /* \"#utility.yul\":13167:13189   */\n      add\n        /* \"#utility.yul\":13133:13199   */\n      tag_408\n      jump\t// in\n    tag_614:\n        /* \"#utility.yul\":13123:13199   */\n      swap2\n      pop\n        /* \"#utility.yul\":13078:13209   */\n      pop\n        /* \"#utility.yul\":12391:13216   */\n      swap3\n      pop\n      swap3\n      pop\n      swap3\n      jump\t// out\n        /* \"#utility.yul\":13222:13356   */\n    tag_409:\n        /* \"#utility.yul\":13309:13315   */\n      0x00\n        /* \"#utility.yul\":13343:13348   */\n      dup2\n        /* \"#utility.yul\":13337:13349   */\n      mload\n        /* \"#utility.yul\":13327:13349   */\n      swap1\n      pop\n        /* \"#utility.yul\":13222:13356   */\n      swap2\n      swap1\n      pop\n      jump\t// out\n        /* \"#utility.yul\":13362:13566   */\n    tag_410:\n        /* \"#utility.yul\":13481:13492   */\n      0x00\n        /* \"#utility.yul\":13515:13521   */\n      dup3\n        /* \"#utility.yul\":13510:13513   */\n      dup3\n        /* \"#utility.yul\":13503:13522   */\n      mstore\n        /* \"#utility.yul\":13555:13559   */\n      0x20\n        /* \"#utility.yul\":13550:13553   */\n      dup3\n        /* \"#utility.yul\":13546:13560   */\n      add\n        /* \"#utility.yul\":13531:13560   */\n      swap1\n      pop\n        /* \"#utility.yul\":13362:13566   */\n      swap3\n      swap2\n      pop\n      pop\n      jump\t// out\n        /* \"#utility.yul\":13572:13724   */\n    tag_411:\n        /* \"#utility.yul\":13659:13663   */\n      0x00\n        /* \"#utility.yul\":13682:13685   */\n      dup2\n        /* \"#utility.yul\":13674:13685   */\n      swap1\n      pop\n        /* \"#utility.yul\":13712:13716   */\n      0x20\n        /* \"#utility.yul\":13707:13710   */\n      dup3\n        /* \"#utility.yul\":13703:13717   */\n      add\n        /* \"#utility.yul\":13695:13717   */\n      swap1\n      pop\n        /* \"#utility.yul\":13572:13724   */\n      swap2\n      swap1\n      pop\n      jump\t// out\n        /* \"#utility.yul\":13774:14365   */\n    tag_412:\n        /* \"#utility.yul\":13873:13876   */\n      0x00\n        /* \"#utility.yul\":13909:13913   */\n      0x40\n        /* \"#utility.yul\":13904:13907   */\n      dup4\n        /* \"#utility.yul\":13900:13914   */\n      add\n        /* \"#utility.yul\":13996:14000   */\n      0x00\n        /* \"#utility.yul\":13989:13994   */\n      dup4\n        /* \"#utility.yul\":13985:14001   */\n      add\n        /* \"#utility.yul\":13979:14002   */\n      mload\n        /* \"#utility.yul\":14049:14052   */\n      dup5\n        /* \"#utility.yul\":14043:14047   */\n      dup3\n        /* \"#utility.yul\":14039:14053   */\n      sub\n        /* \"#utility.yul\":14032:14036   */\n      0x00\n        /* \"#utility.yul\":14027:14030   */\n      dup7\n        /* \"#utility.yul\":14023:14037   */\n      add\n        /* \"#utility.yul\":14016:14054   */\n      mstore\n        /* \"#utility.yul\":14075:14148   */\n      tag_619\n        /* \"#utility.yul\":14143:14147   */\n      dup3\n        /* \"#utility.yul\":14129:14141   */\n      dup3\n        /* \"#utility.yul\":14075:14148   */\n      tag_400\n      jump\t// in\n    tag_619:\n        /* \"#utility.yul\":14067:14148   */\n      swap2\n      pop\n        /* \"#utility.yul\":13924:14159   */\n      pop\n        /* \"#utility.yul\":14241:14245   */\n      0x20\n        /* \"#utility.yul\":14234:14239   */\n      dup4\n        /* \"#utility.yul\":14230:14246   */\n      add\n        /* \"#utility.yul\":14224:14247   */\n      mload\n        /* \"#utility.yul\":14260:14328   */\n      tag_620\n        /* \"#utility.yul\":14322:14326   */\n      0x20\n        /* \"#utility.yul\":14317:14320   */\n      dup7\n        /* \"#utility.yul\":14313:14327   */\n      add\n        /* \"#utility.yul\":14299:14311   */\n      dup3\n        /* \"#utility.yul\":14260:14328   */\n      tag_404\n      jump\t// in\n    tag_620:\n        /* \"#utility.yul\":14169:14338   */\n      pop\n        /* \"#utility.yul\":14355:14359   */\n      dup1\n        /* \"#utility.yul\":14348:14359   */\n      swap2\n      pop\n        /* \"#utility.yul\":13878:14365   */\n      pop\n        /* \"#utility.yul\":13774:14365   */\n      swap3\n      swap2\n      pop\n      pop\n      jump\t// out\n        /* \"#utility.yul\":14371:14607   */\n    tag_413:\n        /* \"#utility.yul\":14480:14490   */\n      0x00\n        /* \"#utility.yul\":14515:14601   */\n      tag_622\n        /* \"#utility.yul\":14597:14600   */\n      dup4\n        /* \"#utility.yul\":14589:14595   */\n      dup4\n        /* \"#utility.yul\":14515:14601   */\n      tag_412\n      jump\t// in\n    tag_622:\n        /* \"#utility.yul\":14501:14601   */\n      swap1\n      pop\n        /* \"#utility.yul\":14371:14607   */\n      swap3\n      swap2\n      pop\n      pop\n      jump\t// out\n        /* \"#utility.yul\":14613:14746   */\n    tag_414:\n        /* \"#utility.yul\":14703:14707   */\n      0x00\n        /* \"#utility.yul\":14735:14739   */\n      0x20\n        /* \"#utility.yul\":14730:14733   */\n      dup3\n        /* \"#utility.yul\":14726:14740   */\n      add\n        /* \"#utility.yul\":14718:14740   */\n      swap1\n      pop\n        /* \"#utility.yul\":14613:14746   */\n      swap2\n      swap1\n      pop\n      jump\t// out\n        /* \"#utility.yul\":14800:15871   */\n    tag_415:\n        /* \"#utility.yul\":14959:14962   */\n      0x00\n        /* \"#utility.yul\":14988:15062   */\n      tag_625\n        /* \"#utility.yul\":15056:15061   */\n      dup3\n        /* \"#utility.yul\":14988:15062   */\n      tag_409\n      jump\t// in\n    tag_625:\n        /* \"#utility.yul\":15078:15184   */\n      tag_626\n        /* \"#utility.yul\":15177:15183   */\n      dup2\n        /* \"#utility.yul\":15172:15175   */\n      dup6\n        /* \"#utility.yul\":15078:15184   */\n      tag_410\n      jump\t// in\n    tag_626:\n        /* \"#utility.yul\":15071:15184   */\n      swap4\n      pop\n        /* \"#utility.yul\":15210:15213   */\n      dup4\n        /* \"#utility.yul\":15255:15259   */\n      0x20\n        /* \"#utility.yul\":15247:15253   */\n      dup3\n        /* \"#utility.yul\":15243:15260   */\n      mul\n        /* \"#utility.yul\":15238:15241   */\n      dup6\n        /* \"#utility.yul\":15234:15261   */\n      add\n        /* \"#utility.yul\":15285:15361   */\n      tag_627\n        /* \"#utility.yul\":15355:15360   */\n      dup6\n        /* \"#utility.yul\":15285:15361   */\n      tag_411\n      jump\t// in\n    tag_627:\n        /* \"#utility.yul\":15384:15391   */\n      dup1\n        /* \"#utility.yul\":15415:15416   */\n      0x00\n        /* \"#utility.yul\":15400:15826   */\n    tag_628:\n        /* \"#utility.yul\":15425:15431   */\n      dup6\n        /* \"#utility.yul\":15422:15423   */\n      dup2\n        /* \"#utility.yul\":15419:15432   */\n      lt\n        /* \"#utility.yul\":15400:15826   */\n      iszero\n      tag_630\n      jumpi\n        /* \"#utility.yul\":15496:15505   */\n      dup5\n        /* \"#utility.yul\":15490:15494   */\n      dup5\n        /* \"#utility.yul\":15486:15506   */\n      sub\n        /* \"#utility.yul\":15481:15484   */\n      dup10\n        /* \"#utility.yul\":15474:15507   */\n      mstore\n        /* \"#utility.yul\":15547:15553   */\n      dup2\n        /* \"#utility.yul\":15541:15554   */\n      mload\n        /* \"#utility.yul\":15575:15679   */\n      tag_631\n        /* \"#utility.yul\":15674:15678   */\n      dup6\n        /* \"#utility.yul\":15659:15672   */\n      dup3\n        /* \"#utility.yul\":15575:15679   */\n      tag_413\n      jump\t// in\n    tag_631:\n        /* \"#utility.yul\":15567:15679   */\n      swap5\n      pop\n        /* \"#utility.yul\":15702:15782   */\n      tag_632\n        /* \"#utility.yul\":15775:15781   */\n      dup4\n        /* \"#utility.yul\":15702:15782   */\n      tag_414\n      jump\t// in\n    tag_632:\n        /* \"#utility.yul\":15692:15782   */\n      swap3\n      pop\n        /* \"#utility.yul\":15811:15815   */\n      0x20\n        /* \"#utility.yul\":15806:15809   */\n      dup11\n        /* \"#utility.yul\":15802:15816   */\n      add\n        /* \"#utility.yul\":15795:15816   */\n      swap10\n      pop\n        /* \"#utility.yul\":15460:15826   */\n      pop\n        /* \"#utility.yul\":15447:15448   */\n      0x01\n        /* \"#utility.yul\":15444:15445   */\n      dup2\n        /* \"#utility.yul\":15440:15449   */\n      add\n        /* \"#utility.yul\":15435:15449   */\n      swap1\n      pop\n        /* \"#utility.yul\":15400:15826   */\n      jump(tag_628)\n    tag_630:\n        /* \"#utility.yul\":15404:15418   */\n      pop\n        /* \"#utility.yul\":15842:15846   */\n      dup3\n        /* \"#utility.yul\":15835:15846   */\n      swap8\n      pop\n        /* \"#utility.yul\":15862:15865   */\n      dup8\n        /* \"#utility.yul\":15855:15865   */\n      swap6\n      pop\n        /* \"#utility.yul\":14964:15871   */\n      pop\n      pop\n      pop\n      pop\n      pop\n        /* \"#utility.yul\":14800:15871   */\n      swap3\n      swap2\n      pop\n      pop\n      jump\t// out\n        /* \"#utility.yul\":15877:16330   */\n    tag_85:\n        /* \"#utility.yul\":16060:16064   */\n      0x00\n        /* \"#utility.yul\":16098:16100   */\n      0x20\n        /* \"#utility.yul\":16087:16096   */\n      dup3\n        /* \"#utility.yul\":16083:16101   */\n      add\n        /* \"#utility.yul\":16075:16101   */\n      swap1\n      pop\n        /* \"#utility.yul\":16147:16156   */\n      dup2\n        /* \"#utility.yul\":16141:16145   */\n      dup2\n        /* \"#utility.yul\":16137:16157   */\n      sub\n        /* \"#utility.yul\":16133:16134   */\n      0x00\n        /* \"#utility.yul\":16122:16131   */\n      dup4\n        /* \"#utility.yul\":16118:16135   */\n      add\n        /* \"#utility.yul\":16111:16158   */\n      mstore\n        /* \"#utility.yul\":16175:16323   */\n      tag_634\n        /* \"#utility.yul\":16318:16322   */\n      dup2\n        /* \"#utility.yul\":16309:16315   */\n      dup5\n        /* \"#utility.yul\":16175:16323   */\n      tag_415\n      jump\t// in\n    tag_634:\n        /* \"#utility.yul\":16167:16323   */\n      swap1\n      pop\n        /* \"#utility.yul\":15877:16330   */\n      swap3\n      swap2\n      pop\n      pop\n      jump\t// out\n        /* \"#utility.yul\":16336:16691   */\n    tag_88:\n        /* \"#utility.yul\":16408:16414   */\n      0x00\n        /* \"#utility.yul\":16457:16459   */\n      0x20\n        /* \"#utility.yul\":16445:16454   */\n      dup3\n        /* \"#utility.yul\":16436:16443   */\n      dup5\n        /* \"#utility.yul\":16432:16455   */\n      sub\n        /* \"#utility.yul\":16428:16460   */\n      slt\n        /* \"#utility.yul\":16425:16544   */\n      iszero\n      tag_636\n      jumpi\n        /* \"#utility.yul\":16463:16542   */\n      tag_637\n      tag_369\n      jump\t// in\n    tag_637:\n        /* \"#utility.yul\":16425:16544   */\n    tag_636:\n        /* \"#utility.yul\":16583:16584   */\n      0x00\n        /* \"#utility.yul\":16608:16674   */\n      tag_638\n        /* \"#utility.yul\":16666:16673   */\n      dup5\n        /* \"#utility.yul\":16657:16663   */\n      dup3\n        /* \"#utility.yul\":16646:16655   */\n      dup6\n        /* \"#utility.yul\":16642:16664   */\n      add\n        /* \"#utility.yul\":16608:16674   */\n      tag_408\n      jump\t// in\n    tag_638:\n        /* \"#utility.yul\":16598:16674   */\n      swap2\n      pop\n        /* \"#utility.yul\":16554:16684   */\n      pop\n        /* \"#utility.yul\":16336:16691   */\n      swap3\n      swap2\n      pop\n      pop\n      jump\t// out\n        /* \"#utility.yul\":16697:16811   */\n    tag_416:\n        /* \"#utility.yul\":16764:16770   */\n      0x00\n        /* \"#utility.yul\":16798:16803   */\n      dup2\n        /* \"#utility.yul\":16792:16804   */\n      mload\n        /* \"#utility.yul\":16782:16804   */\n      swap1\n      pop\n        /* \"#utility.yul\":16697:16811   */\n      swap2\n      swap1\n      pop\n      jump\t// out\n        /* \"#utility.yul\":16817:17001   */\n    tag_417:\n        /* \"#utility.yul\":16916:16927   */\n      0x00\n        /* \"#utility.yul\":16950:16956   */\n      dup3\n        /* \"#utility.yul\":16945:16948   */\n      dup3\n        /* \"#utility.yul\":16938:16957   */\n      mstore\n        /* \"#utility.yul\":16990:16994   */\n      0x20\n        /* \"#utility.yul\":16985:16988   */\n      dup3\n        /* \"#utility.yul\":16981:16995   */\n      add\n        /* \"#utility.yul\":16966:16995   */\n      swap1\n      pop\n        /* \"#utility.yul\":16817:17001   */\n      swap3\n      swap2\n      pop\n      pop\n      jump\t// out\n        /* \"#utility.yul\":17007:17139   */\n    tag_418:\n        /* \"#utility.yul\":17074:17078   */\n      0x00\n        /* \"#utility.yul\":17097:17100   */\n      dup2\n        /* \"#utility.yul\":17089:17100   */\n      swap1\n      pop\n        /* \"#utility.yul\":17127:17131   */\n      0x20\n        /* \"#utility.yul\":17122:17125   */\n      dup3\n        /* \"#utility.yul\":17118:17132   */\n      add\n        /* \"#utility.yul\":17110:17132   */\n      swap1\n      pop\n        /* \"#utility.yul\":17007:17139   */\n      swap2\n      swap1\n      pop\n      jump\t// out\n        /* \"#utility.yul\":17145:17253   */\n    tag_419:\n        /* \"#utility.yul\":17222:17246   */\n      tag_643\n        /* \"#utility.yul\":17240:17245   */\n      dup2\n        /* \"#utility.yul\":17222:17246   */\n      tag_377\n      jump\t// in\n    tag_643:\n        /* \"#utility.yul\":17217:17220   */\n      dup3\n        /* \"#utility.yul\":17210:17247   */\n      mstore\n        /* \"#utility.yul\":17145:17253   */\n      pop\n      pop\n      jump\t// out\n        /* \"#utility.yul\":17259:17438   */\n    tag_420:\n        /* \"#utility.yul\":17328:17338   */\n      0x00\n        /* \"#utility.yul\":17349:17395   */\n      tag_645\n        /* \"#utility.yul\":17391:17394   */\n      dup4\n        /* \"#utility.yul\":17383:17389   */\n      dup4\n        /* \"#utility.yul\":17349:17395   */\n      tag_419\n      jump\t// in\n    tag_645:\n        /* \"#utility.yul\":17427:17431   */\n      0x20\n        /* \"#utility.yul\":17422:17425   */\n      dup4\n        /* \"#utility.yul\":17418:17432   */\n      add\n        /* \"#utility.yul\":17404:17432   */\n      swap1\n      pop\n        /* \"#utility.yul\":17259:17438   */\n      swap3\n      swap2\n      pop\n      pop\n      jump\t// out\n        /* \"#utility.yul\":17444:17557   */\n    tag_421:\n        /* \"#utility.yul\":17514:17518   */\n      0x00\n        /* \"#utility.yul\":17546:17550   */\n      0x20\n        /* \"#utility.yul\":17541:17544   */\n      dup3\n        /* \"#utility.yul\":17537:17551   */\n      add\n        /* \"#utility.yul\":17529:17551   */\n      swap1\n      pop\n        /* \"#utility.yul\":17444:17557   */\n      swap2\n      swap1\n      pop\n      jump\t// out\n        /* \"#utility.yul\":17593:18325   */\n    tag_422:\n        /* \"#utility.yul\":17712:17715   */\n      0x00\n        /* \"#utility.yul\":17741:17795   */\n      tag_648\n        /* \"#utility.yul\":17789:17794   */\n      dup3\n        /* \"#utility.yul\":17741:17795   */\n      tag_416\n      jump\t// in\n    tag_648:\n        /* \"#utility.yul\":17811:17897   */\n      tag_649\n        /* \"#utility.yul\":17890:17896   */\n      dup2\n        /* \"#utility.yul\":17885:17888   */\n      dup6\n        /* \"#utility.yul\":17811:17897   */\n      tag_417\n      jump\t// in\n    tag_649:\n        /* \"#utility.yul\":17804:17897   */\n      swap4\n      pop\n        /* \"#utility.yul\":17921:17977   */\n      tag_650\n        /* \"#utility.yul\":17971:17976   */\n      dup4\n        /* \"#utility.yul\":17921:17977   */\n      tag_418\n      jump\t// in\n    tag_650:\n        /* \"#utility.yul\":18000:18007   */\n      dup1\n        /* \"#utility.yul\":18031:18032   */\n      0x00\n        /* \"#utility.yul\":18016:18300   */\n    tag_651:\n        /* \"#utility.yul\":18041:18047   */\n      dup4\n        /* \"#utility.yul\":18038:18039   */\n      dup2\n        /* \"#utility.yul\":18035:18048   */\n      lt\n        /* \"#utility.yul\":18016:18300   */\n      iszero\n      tag_653\n      jumpi\n        /* \"#utility.yul\":18117:18123   */\n      dup2\n        /* \"#utility.yul\":18111:18124   */\n      mload\n        /* \"#utility.yul\":18144:18207   */\n      tag_654\n        /* \"#utility.yul\":18203:18206   */\n      dup9\n        /* \"#utility.yul\":18188:18201   */\n      dup3\n        /* \"#utility.yul\":18144:18207   */\n      tag_420\n      jump\t// in\n    tag_654:\n        /* \"#utility.yul\":18137:18207   */\n      swap8\n      pop\n        /* \"#utility.yul\":18230:18290   */\n      tag_655\n        /* \"#utility.yul\":18283:18289   */\n      dup4\n        /* \"#utility.yul\":18230:18290   */\n      tag_421\n      jump\t// in\n    tag_655:\n        /* \"#utility.yul\":18220:18290   */\n      swap3\n      pop\n        /* \"#utility.yul\":18076:18300   */\n      pop\n        /* \"#utility.yul\":18063:18064   */\n      0x01\n        /* \"#utility.yul\":18060:18061   */\n      dup2\n        /* \"#utility.yul\":18056:18065   */\n      add\n        /* \"#utility.yul\":18051:18065   */\n      swap1\n      pop\n        /* \"#utility.yul\":18016:18300   */\n      jump(tag_651)\n    tag_653:\n        /* \"#utility.yul\":18020:18034   */\n      pop\n        /* \"#utility.yul\":18316:18319   */\n      dup6\n        /* \"#utility.yul\":18309:18319   */\n      swap4\n      pop\n        /* \"#utility.yul\":17717:18325   */\n      pop\n      pop\n      pop\n        /* \"#utility.yul\":17593:18325   */\n      swap3\n      swap2\n      pop\n      pop\n      jump\t// out\n        /* \"#utility.yul\":18331:18704   */\n    tag_91:\n        /* \"#utility.yul\":18474:18478   */\n      0x00\n        /* \"#utility.yul\":18512:18514   */\n      0x20\n        /* \"#utility.yul\":18501:18510   */\n      dup3\n        /* \"#utility.yul\":18497:18515   */\n      add\n        /* \"#utility.yul\":18489:18515   */\n      swap1\n      pop\n        /* \"#utility.yul\":18561:18570   */\n      dup2\n        /* \"#utility.yul\":18555:18559   */\n      dup2\n        /* \"#utility.yul\":18551:18571   */\n      sub\n        /* \"#utility.yul\":18547:18548   */\n      0x00\n        /* \"#utility.yul\":18536:18545   */\n      dup4\n        /* \"#utility.yul\":18532:18549   */\n      add\n        /* \"#utility.yul\":18525:18572   */\n      mstore\n        /* \"#utility.yul\":18589:18697   */\n      tag_657\n        /* \"#utility.yul\":18692:18696   */\n      dup2\n        /* \"#utility.yul\":18683:18689   */\n      dup5\n        /* \"#utility.yul\":18589:18697   */\n      tag_422\n      jump\t// in\n    tag_657:\n        /* \"#utility.yul\":18581:18697   */\n      swap1\n      pop\n        /* \"#utility.yul\":18331:18704   */\n      swap3\n      swap2\n      pop\n      pop\n      jump\t// out\n        /* \"#utility.yul\":18710:18889   */\n    tag_423:\n        /* \"#utility.yul\":18850:18881   */\n      0x4163636573732064656e6965643a20696e636f727265637420726f6c65000000\n        /* \"#utility.yul\":18846:18847   */\n      0x00\n        /* \"#utility.yul\":18838:18844   */\n      dup3\n        /* \"#utility.yul\":18834:18848   */\n      add\n        /* \"#utility.yul\":18827:18882   */\n      mstore\n        /* \"#utility.yul\":18710:18889   */\n      pop\n      jump\t// out\n        /* \"#utility.yul\":18895:19261   */\n    tag_424:\n        /* \"#utility.yul\":19037:19040   */\n      0x00\n        /* \"#utility.yul\":19058:19125   */\n      tag_660\n        /* \"#utility.yul\":19122:19124   */\n      0x1d\n        /* \"#utility.yul\":19117:19120   */\n      dup4\n        /* \"#utility.yul\":19058:19125   */\n      tag_381\n      jump\t// in\n    tag_660:\n        /* \"#utility.yul\":19051:19125   */\n      swap2\n      pop\n        /* \"#utility.yul\":19134:19227   */\n      tag_661\n        /* \"#utility.yul\":19223:19226   */\n      dup3\n        /* \"#utility.yul\":19134:19227   */\n      tag_423\n      jump\t// in\n    tag_661:\n        /* \"#utility.yul\":19252:19254   */\n      0x20\n        /* \"#utility.yul\":19247:19250   */\n      dup3\n        /* \"#utility.yul\":19243:19255   */\n      add\n        /* \"#utility.yul\":19236:19255   */\n      swap1\n      pop\n        /* \"#utility.yul\":18895:19261   */\n      swap2\n      swap1\n      pop\n      jump\t// out\n        /* \"#utility.yul\":19267:19686   */\n    tag_100:\n        /* \"#utility.yul\":19433:19437   */\n      0x00\n        /* \"#utility.yul\":19471:19473   */\n      0x20\n        /* \"#utility.yul\":19460:19469   */\n      dup3\n        /* \"#utility.yul\":19456:19474   */\n      add\n        /* \"#utility.yul\":19448:19474   */\n      swap1\n      pop\n        /* \"#utility.yul\":19520:19529   */\n      dup2\n        /* \"#utility.yul\":19514:19518   */\n      dup2\n        /* \"#utility.yul\":19510:19530   */\n      sub\n        /* \"#utility.yul\":19506:19507   */\n      0x00\n        /* \"#utility.yul\":19495:19504   */\n      dup4\n        /* \"#utility.yul\":19491:19508   */\n      add\n        /* \"#utility.yul\":19484:19531   */\n      mstore\n        /* \"#utility.yul\":19548:19679   */\n      tag_663\n        /* \"#utility.yul\":19674:19678   */\n      dup2\n        /* \"#utility.yul\":19548:19679   */\n      tag_424\n      jump\t// in\n    tag_663:\n        /* \"#utility.yul\":19540:19679   */\n      swap1\n      pop\n        /* \"#utility.yul\":19267:19686   */\n      swap2\n      swap1\n      pop\n      jump\t// out\n        /* \"#utility.yul\":19692:19857   */\n    tag_425:\n        /* \"#utility.yul\":19832:19849   */\n      0x496e76616c696420616464726573730000000000000000000000000000000000\n        /* \"#utility.yul\":19828:19829   */\n      0x00\n        /* \"#utility.yul\":19820:19826   */\n      dup3\n        /* \"#utility.yul\":19816:19830   */\n      add\n        /* \"#utility.yul\":19809:19850   */\n      mstore\n        /* \"#utility.yul\":19692:19857   */\n      pop\n      jump\t// out\n        /* \"#utility.yul\":19863:20229   */\n    tag_426:\n        /* \"#utility.yul\":20005:20008   */\n      0x00\n        /* \"#utility.yul\":20026:20093   */\n      tag_666\n        /* \"#utility.yul\":20090:20092   */\n      0x0f\n        /* \"#utility.yul\":20085:20088   */\n      dup4\n        /* \"#utility.yul\":20026:20093   */\n      tag_381\n      jump\t// in\n    tag_666:\n        /* \"#utility.yul\":20019:20093   */\n      swap2\n      pop\n        /* \"#utility.yul\":20102:20195   */\n      tag_667\n        /* \"#utility.yul\":20191:20194   */\n      dup3\n        /* \"#utility.yul\":20102:20195   */\n      tag_425\n      jump\t// in\n    tag_667:\n        /* \"#utility.yul\":20220:20222   */\n      0x20\n        /* \"#utility.yul\":20215:20218   */\n      dup3\n        /* \"#utility.yul\":20211:20223   */\n      add\n        /* \"#utility.yul\":20204:20223   */\n      swap1\n      pop\n        /* \"#utility.yul\":19863:20229   */\n      swap2\n      swap1\n      pop\n      jump\t// out\n        /* \"#utility.yul\":20235:20654   */\n    tag_104:\n        /* \"#utility.yul\":20401:20405   */\n      0x00\n        /* \"#utility.yul\":20439:20441   */\n      0x20\n        /* \"#utility.yul\":20428:20437   */\n      dup3\n        /* \"#utility.yul\":20424:20442   */\n      add\n        /* \"#utility.yul\":20416:20442   */\n      swap1\n      pop\n        /* \"#utility.yul\":20488:20497   */\n      dup2\n        /* \"#utility.yul\":20482:20486   */\n      dup2\n        /* \"#utility.yul\":20478:20498   */\n      sub\n        /* \"#utility.yul\":20474:20475   */\n      0x00\n        /* \"#utility.yul\":20463:20472   */\n      dup4\n        /* \"#utility.yul\":20459:20476   */\n      add\n        /* \"#utility.yul\":20452:20499   */\n      mstore\n        /* \"#utility.yul\":20516:20647   */\n      tag_669\n        /* \"#utility.yul\":20642:20646   */\n      dup2\n        /* \"#utility.yul\":20516:20647   */\n      tag_426\n      jump\t// in\n    tag_669:\n        /* \"#utility.yul\":20508:20647   */\n      swap1\n      pop\n        /* \"#utility.yul\":20235:20654   */\n      swap2\n      swap1\n      pop\n      jump\t// out\n        /* \"#utility.yul\":20660:20840   */\n    tag_427:\n        /* \"#utility.yul\":20708:20785   */\n      0x4e487b7100000000000000000000000000000000000000000000000000000000\n        /* \"#utility.yul\":20705:20706   */\n      0x00\n        /* \"#utility.yul\":20698:20786   */\n      mstore\n        /* \"#utility.yul\":20805:20809   */\n      0x22\n        /* \"#utility.yul\":20802:20803   */\n      0x04\n        /* \"#utility.yul\":20795:20810   */\n      mstore\n        /* \"#utility.yul\":20829:20833   */\n      0x24\n        /* \"#utility.yul\":20826:20827   */\n      0x00\n        /* \"#utility.yul\":20819:20834   */\n      revert\n        /* \"#utility.yul\":20846:21166   */\n    tag_109:\n        /* \"#utility.yul\":20890:20896   */\n      0x00\n        /* \"#utility.yul\":20927:20928   */\n      0x02\n        /* \"#utility.yul\":20921:20925   */\n      dup3\n        /* \"#utility.yul\":20917:20929   */\n      div\n        /* \"#utility.yul\":20907:20929   */\n      swap1\n      pop\n        /* \"#utility.yul\":20974:20975   */\n      0x01\n        /* \"#utility.yul\":20968:20972   */\n      dup3\n        /* \"#utility.yul\":20964:20976   */\n      and\n        /* \"#utility.yul\":20995:21013   */\n      dup1\n        /* \"#utility.yul\":20985:21066   */\n      tag_672\n      jumpi\n        /* \"#utility.yul\":21051:21055   */\n      0x7f\n        /* \"#utility.yul\":21043:21049   */\n      dup3\n        /* \"#utility.yul\":21039:21056   */\n      and\n        /* \"#utility.yul\":21029:21056   */\n      swap2\n      pop\n        /* \"#utility.yul\":20985:21066   */\n    tag_672:\n        /* \"#utility.yul\":21113:21115   */\n      0x20\n        /* \"#utility.yul\":21105:21111   */\n      dup3\n        /* \"#utility.yul\":21102:21116   */\n      lt\n        /* \"#utility.yul\":21082:21100   */\n      dup2\n        /* \"#utility.yul\":21079:21117   */\n      sub\n        /* \"#utility.yul\":21076:21160   */\n      tag_673\n      jumpi\n        /* \"#utility.yul\":21132:21150   */\n      tag_674\n      tag_427\n      jump\t// in\n    tag_674:\n        /* \"#utility.yul\":21076:21160   */\n    tag_673:\n        /* \"#utility.yul\":20897:21166   */\n      pop\n        /* \"#utility.yul\":20846:21166   */\n      swap2\n      swap1\n      pop\n      jump\t// out\n        /* \"#utility.yul\":21172:21343   */\n    tag_428:\n        /* \"#utility.yul\":21312:21335   */\n      0x456e7469747920646f6573206e6f742065786973740000000000000000000000\n        /* \"#utility.yul\":21308:21309   */\n      0x00\n        /* \"#utility.yul\":21300:21306   */\n      dup3\n        /* \"#utility.yul\":21296:21310   */\n      add\n        /* \"#utility.yul\":21289:21336   */\n      mstore\n        /* \"#utility.yul\":21172:21343   */\n      pop\n      jump\t// out\n        /* \"#utility.yul\":21349:21715   */\n    tag_429:\n        /* \"#utility.yul\":21491:21494   */\n      0x00\n        /* \"#utility.yul\":21512:21579   */\n      tag_677\n        /* \"#utility.yul\":21576:21578   */\n      0x15\n        /* \"#utility.yul\":21571:21574   */\n      dup4\n        /* \"#utility.yul\":21512:21579   */\n      tag_381\n      jump\t// in\n    tag_677:\n        /* \"#utility.yul\":21505:21579   */\n      swap2\n      pop\n        /* \"#utility.yul\":21588:21681   */\n      tag_678\n        /* \"#utility.yul\":21677:21680   */\n      dup3\n        /* \"#utility.yul\":21588:21681   */\n      tag_428\n      jump\t// in\n    tag_678:\n        /* \"#utility.yul\":21706:21708   */\n      0x20\n        /* \"#utility.yul\":21701:21704   */\n      dup3\n        /* \"#utility.yul\":21697:21709   */\n      add\n        /* \"#utility.yul\":21690:21709   */\n      swap1\n      pop\n        /* \"#utility.yul\":21349:21715   */\n      swap2\n      swap1\n      pop\n      jump\t// out\n        /* \"#utility.yul\":21721:22140   */\n    tag_112:\n        /* \"#utility.yul\":21887:21891   */\n      0x00\n        /* \"#utility.yul\":21925:21927   */\n      0x20\n        /* \"#utility.yul\":21914:21923   */\n      dup3\n        /* \"#utility.yul\":21910:21928   */\n      add\n        /* \"#utility.yul\":21902:21928   */\n      swap1\n      pop\n        /* \"#utility.yul\":21974:21983   */\n      dup2\n        /* \"#utility.yul\":21968:21972   */\n      dup2\n        /* \"#utility.yul\":21964:21984   */\n      sub\n        /* \"#utility.yul\":21960:21961   */\n      0x00\n        /* \"#utility.yul\":21949:21958   */\n      dup4\n        /* \"#utility.yul\":21945:21962   */\n      add\n        /* \"#utility.yul\":21938:21985   */\n      mstore\n        /* \"#utility.yul\":22002:22133   */\n      tag_680\n        /* \"#utility.yul\":22128:22132   */\n      dup2\n        /* \"#utility.yul\":22002:22133   */\n      tag_429\n      jump\t// in\n    tag_680:\n        /* \"#utility.yul\":21994:22133   */\n      swap1\n      pop\n        /* \"#utility.yul\":21721:22140   */\n      swap2\n      swap1\n      pop\n      jump\t// out\n        /* \"#utility.yul\":22146:22294   */\n    tag_430:\n        /* \"#utility.yul\":22248:22259   */\n      0x00\n        /* \"#utility.yul\":22285:22288   */\n      dup2\n        /* \"#utility.yul\":22270:22288   */\n      swap1\n      pop\n        /* \"#utility.yul\":22146:22294   */\n      swap3\n      swap2\n      pop\n      pop\n      jump\t// out\n        /* \"#utility.yul\":22300:22690   */\n    tag_431:\n        /* \"#utility.yul\":22406:22409   */\n      0x00\n        /* \"#utility.yul\":22434:22473   */\n      tag_683\n        /* \"#utility.yul\":22467:22472   */\n      dup3\n        /* \"#utility.yul\":22434:22473   */\n      tag_380\n      jump\t// in\n    tag_683:\n        /* \"#utility.yul\":22489:22578   */\n      tag_684\n        /* \"#utility.yul\":22571:22577   */\n      dup2\n        /* \"#utility.yul\":22566:22569   */\n      dup6\n        /* \"#utility.yul\":22489:22578   */\n      tag_430\n      jump\t// in\n    tag_684:\n        /* \"#utility.yul\":22482:22578   */\n      swap4\n      pop\n        /* \"#utility.yul\":22587:22652   */\n      tag_685\n        /* \"#utility.yul\":22645:22651   */\n      dup2\n        /* \"#utility.yul\":22640:22643   */\n      dup6\n        /* \"#utility.yul\":22633:22637   */\n      0x20\n        /* \"#utility.yul\":22626:22631   */\n      dup7\n        /* \"#utility.yul\":22622:22638   */\n      add\n        /* \"#utility.yul\":22587:22652   */\n      tag_382\n      jump\t// in\n    tag_685:\n        /* \"#utility.yul\":22677:22683   */\n      dup1\n        /* \"#utility.yul\":22672:22675   */\n      dup5\n        /* \"#utility.yul\":22668:22684   */\n      add\n        /* \"#utility.yul\":22661:22684   */\n      swap2\n      pop\n        /* \"#utility.yul\":22410:22690   */\n      pop\n        /* \"#utility.yul\":22300:22690   */\n      swap3\n      swap2\n      pop\n      pop\n      jump\t// out\n        /* \"#utility.yul\":22696:22971   */\n    tag_120:\n        /* \"#utility.yul\":22828:22831   */\n      0x00\n        /* \"#utility.yul\":22850:22945   */\n      tag_687\n        /* \"#utility.yul\":22941:22944   */\n      dup3\n        /* \"#utility.yul\":22932:22938   */\n      dup5\n        /* \"#utility.yul\":22850:22945   */\n      tag_431\n      jump\t// in\n    tag_687:\n        /* \"#utility.yul\":22843:22945   */\n      swap2\n      pop\n        /* \"#utility.yul\":22962:22965   */\n      dup2\n        /* \"#utility.yul\":22955:22965   */\n      swap1\n      pop\n        /* \"#utility.yul\":22696:22971   */\n      swap3\n      swap2\n      pop\n      pop\n      jump\t// out\n        /* \"#utility.yul\":22977:23143   */\n    tag_432:\n        /* \"#utility.yul\":23117:23135   */\n      0x496e76616c696420616464726573732100000000000000000000000000000000\n        /* \"#utility.yul\":23113:23114   */\n      0x00\n        /* \"#utility.yul\":23105:23111   */\n      dup3\n        /* \"#utility.yul\":23101:23115   */\n      add\n        /* \"#utility.yul\":23094:23136   */\n      mstore\n        /* \"#utility.yul\":22977:23143   */\n      pop\n      jump\t// out\n        /* \"#utility.yul\":23149:23515   */\n    tag_433:\n        /* \"#utility.yul\":23291:23294   */\n      0x00\n        /* \"#utility.yul\":23312:23379   */\n      tag_690\n        /* \"#utility.yul\":23376:23378   */\n      0x10\n        /* \"#utility.yul\":23371:23374   */\n      dup4\n        /* \"#utility.yul\":23312:23379   */\n      tag_381\n      jump\t// in\n    tag_690:\n        /* \"#utility.yul\":23305:23379   */\n      swap2\n      pop\n        /* \"#utility.yul\":23388:23481   */\n      tag_691\n        /* \"#utility.yul\":23477:23480   */\n      dup3\n        /* \"#utility.yul\":23388:23481   */\n      tag_432\n      jump\t// in\n    tag_691:\n        /* \"#utility.yul\":23506:23508   */\n      0x20\n        /* \"#utility.yul\":23501:23504   */\n      dup3\n        /* \"#utility.yul\":23497:23509   */\n      add\n        /* \"#utility.yul\":23490:23509   */\n      swap1\n      pop\n        /* \"#utility.yul\":23149:23515   */\n      swap2\n      swap1\n      pop\n      jump\t// out\n        /* \"#utility.yul\":23521:23940   */\n    tag_134:\n        /* \"#utility.yul\":23687:23691   */\n      0x00\n        /* \"#utility.yul\":23725:23727   */\n      0x20\n        /* \"#utility.yul\":23714:23723   */\n      dup3\n        /* \"#utility.yul\":23710:23728   */\n      add\n        /* \"#utility.yul\":23702:23728   */\n      swap1\n      pop\n        /* \"#utility.yul\":23774:23783   */\n      dup2\n        /* \"#utility.yul\":23768:23772   */\n      dup2\n        /* \"#utility.yul\":23764:23784   */\n      sub\n        /* \"#utility.yul\":23760:23761   */\n      0x00\n        /* \"#utility.yul\":23749:23758   */\n      dup4\n        /* \"#utility.yul\":23745:23762   */\n      add\n        /* \"#utility.yul\":23738:23785   */\n      mstore\n        /* \"#utility.yul\":23802:23933   */\n      tag_693\n        /* \"#utility.yul\":23928:23932   */\n      dup2\n        /* \"#utility.yul\":23802:23933   */\n      tag_433\n      jump\t// in\n    tag_693:\n        /* \"#utility.yul\":23794:23933   */\n      swap1\n      pop\n        /* \"#utility.yul\":23521:23940   */\n      swap2\n      swap1\n      pop\n      jump\t// out\n        /* \"#utility.yul\":23946:24087   */\n    tag_434:\n        /* \"#utility.yul\":23995:23999   */\n      0x00\n        /* \"#utility.yul\":24018:24021   */\n      dup2\n        /* \"#utility.yul\":24010:24021   */\n      swap1\n      pop\n        /* \"#utility.yul\":24041:24044   */\n      dup2\n        /* \"#utility.yul\":24038:24039   */\n      0x00\n        /* \"#utility.yul\":24031:24045   */\n      mstore\n        /* \"#utility.yul\":24075:24079   */\n      0x20\n        /* \"#utility.yul\":24072:24073   */\n      0x00\n        /* \"#utility.yul\":24062:24080   */\n      keccak256\n        /* \"#utility.yul\":24054:24080   */\n      swap1\n      pop\n        /* \"#utility.yul\":23946:24087   */\n      swap2\n      swap1\n      pop\n      jump\t// out\n        /* \"#utility.yul\":24093:24186   */\n    tag_435:\n        /* \"#utility.yul\":24130:24136   */\n      0x00\n        /* \"#utility.yul\":24177:24179   */\n      0x20\n        /* \"#utility.yul\":24172:24174   */\n      0x1f\n        /* \"#utility.yul\":24165:24170   */\n      dup4\n        /* \"#utility.yul\":24161:24175   */\n      add\n        /* \"#utility.yul\":24157:24180   */\n      div\n        /* \"#utility.yul\":24147:24180   */\n      swap1\n      pop\n        /* \"#utility.yul\":24093:24186   */\n      swap2\n      swap1\n      pop\n      jump\t// out\n        /* \"#utility.yul\":24192:24299   */\n    tag_436:\n        /* \"#utility.yul\":24236:24244   */\n      0x00\n        /* \"#utility.yul\":24286:24291   */\n      dup3\n        /* \"#utility.yul\":24280:24284   */\n      dup3\n        /* \"#utility.yul\":24276:24292   */\n      shl\n        /* \"#utility.yul\":24255:24292   */\n      swap1\n      pop\n        /* \"#utility.yul\":24192:24299   */\n      swap3\n      swap2\n      pop\n      pop\n      jump\t// out\n        /* \"#utility.yul\":24305:24698   */\n    tag_437:\n        /* \"#utility.yul\":24374:24380   */\n      0x00\n        /* \"#utility.yul\":24424:24425   */\n      0x08\n        /* \"#utility.yul\":24412:24422   */\n      dup4\n        /* \"#utility.yul\":24408:24426   */\n      mul\n        /* \"#utility.yul\":24447:24544   */\n      tag_698\n        /* \"#utility.yul\":24477:24543   */\n      0xffffffffffffffffffffffffffffffffffffffffffffffffffffffffffffffff\n        /* \"#utility.yul\":24466:24475   */\n      dup3\n        /* \"#utility.yul\":24447:24544   */\n      tag_436\n      jump\t// in\n    tag_698:\n        /* \"#utility.yul\":24565:24604   */\n      tag_699\n        /* \"#utility.yul\":24595:24603   */\n      dup7\n        /* \"#utility.yul\":24584:24593   */\n      dup4\n        /* \"#utility.yul\":24565:24604   */\n      tag_436\n      jump\t// in\n    tag_699:\n        /* \"#utility.yul\":24553:24604   */\n      swap6\n      pop\n        /* \"#utility.yul\":24637:24641   */\n      dup1\n        /* \"#utility.yul\":24633:24642   */\n      not\n        /* \"#utility.yul\":24626:24631   */\n      dup5\n        /* \"#utility.yul\":24622:24643   */\n      and\n        /* \"#utility.yul\":24613:24643   */\n      swap4\n      pop\n        /* \"#utility.yul\":24686:24690   */\n      dup1\n        /* \"#utility.yul\":24676:24684   */\n      dup7\n        /* \"#utility.yul\":24672:24691   */\n      and\n        /* \"#utility.yul\":24665:24670   */\n      dup5\n        /* \"#utility.yul\":24662:24692   */\n      or\n        /* \"#utility.yul\":24652:24692   */\n      swap3\n      pop\n        /* \"#utility.yul\":24381:24698   */\n      pop\n      pop\n        /* \"#utility.yul\":24305:24698   */\n      swap4\n      swap3\n      pop\n      pop\n      pop\n      jump\t// out\n        /* \"#utility.yul\":24704:24764   */\n    tag_438:\n        /* \"#utility.yul\":24732:24735   */\n      0x00\n        /* \"#utility.yul\":24753:24758   */\n      dup2\n        /* \"#utility.yul\":24746:24758   */\n      swap1\n      pop\n        /* \"#utility.yul\":24704:24764   */\n      swap2\n      swap1\n      pop\n      jump\t// out\n        /* \"#utility.yul\":24770:24912   */\n    tag_439:\n        /* \"#utility.yul\":24820:24829   */\n      0x00\n        /* \"#utility.yul\":24853:24906   */\n      tag_702\n        /* \"#utility.yul\":24871:24905   */\n      tag_703\n        /* \"#utility.yul\":24880:24904   */\n      tag_704\n        /* \"#utility.yul\":24898:24903   */\n      dup5\n        /* \"#utility.yul\":24880:24904   */\n      tag_377\n      jump\t// in\n    tag_704:\n        /* \"#utility.yul\":24871:24905   */\n      tag_438\n      jump\t// in\n    tag_703:\n        /* \"#utility.yul\":24853:24906   */\n      tag_377\n      jump\t// in\n    tag_702:\n        /* \"#utility.yul\":24840:24906   */\n      swap1\n      pop\n        /* \"#utility.yul\":24770:24912   */\n      swap2\n      swap1\n      pop\n      jump\t// out\n        /* \"#utility.yul\":24918:24993   */\n    tag_440:\n        /* \"#utility.yul\":24961:24964   */\n      0x00\n        /* \"#utility.yul\":24982:24987   */\n      dup2\n        /* \"#utility.yul\":24975:24987   */\n      swap1\n      pop\n        /* \"#utility.yul\":24918:24993   */\n      swap2\n      swap1\n      pop\n      jump\t// out\n        /* \"#utility.yul\":24999:25268   */\n    tag_441:\n        /* \"#utility.yul\":25109:25148   */\n      tag_707\n        /* \"#utility.yul\":25140:25147   */\n      dup4\n        /* \"#utility.yul\":25109:25148   */\n      tag_439\n      jump\t// in\n    tag_707:\n        /* \"#utility.yul\":25170:25261   */\n      tag_708\n        /* \"#utility.yul\":25219:25260   */\n      tag_709\n        /* \"#utility.yul\":25243:25259   */\n      dup3\n        /* \"#utility.yul\":25219:25260   */\n      tag_440\n      jump\t// in\n    tag_709:\n        /* \"#utility.yul\":25211:25217   */\n      dup5\n        /* \"#utility.yul\":25204:25208   */\n      dup5\n        /* \"#utility.yul\":25198:25209   */\n      sload\n        /* \"#utility.yul\":25170:25261   */\n      tag_437\n      jump\t// in\n    tag_708:\n        /* \"#utility.yul\":25164:25168   */\n      dup3\n        /* \"#utility.yul\":25157:25262   */\n      sstore\n        /* \"#utility.yul\":25075:25268   */\n      pop\n        /* \"#utility.yul\":24999:25268   */\n      pop\n      pop\n      pop\n      jump\t// out\n        /* \"#utility.yul\":25274:25347   */\n    tag_442:\n        /* \"#utility.yul\":25319:25322   */\n      0x00\n        /* \"#utility.yul\":25274:25347   */\n      swap1\n      jump\t// out\n        /* \"#utility.yul\":25353:25542   */\n    tag_443:\n        /* \"#utility.yul\":25430:25462   */\n      tag_712\n      tag_442\n      jump\t// in\n    tag_712:\n        /* \"#utility.yul\":25471:25536   */\n      tag_713\n        /* \"#utility.yul\":25529:25535   */\n      dup2\n        /* \"#utility.yul\":25521:25527   */\n      dup5\n        /* \"#utility.yul\":25515:25519   */\n      dup5\n        /* \"#utility.yul\":25471:25536   */\n      tag_441\n      jump\t// in\n    tag_713:\n        /* \"#utility.yul\":25406:25542   */\n      pop\n        /* \"#utility.yul\":25353:25542   */\n      pop\n      pop\n      jump\t// out\n        /* \"#utility.yul\":25548:25734   */\n    tag_444:\n        /* \"#utility.yul\":25608:25728   */\n    tag_715:\n        /* \"#utility.yul\":25625:25628   */\n      dup2\n        /* \"#utility.yul\":25618:25623   */\n      dup2\n        /* \"#utility.yul\":25615:25629   */\n      lt\n        /* \"#utility.yul\":25608:25728   */\n      iszero\n      tag_717\n      jumpi\n        /* \"#utility.yul\":25679:25718   */\n      tag_718\n        /* \"#utility.yul\":25716:25717   */\n      0x00\n        /* \"#utility.yul\":25709:25714   */\n      dup3\n        /* \"#utility.yul\":25679:25718   */\n      tag_443\n      jump\t// in\n    tag_718:\n        /* \"#utility.yul\":25652:25653   */\n      0x01\n        /* \"#utility.yul\":25645:25650   */\n      dup2\n        /* \"#utility.yul\":25641:25654   */\n      add\n        /* \"#utility.yul\":25632:25654   */\n      swap1\n      pop\n        /* \"#utility.yul\":25608:25728   */\n      jump(tag_715)\n    tag_717:\n        /* \"#utility.yul\":25548:25734   */\n      pop\n      pop\n      jump\t// out\n        /* \"#utility.yul\":25740:26283   */\n    tag_445:\n        /* \"#utility.yul\":25841:25843   */\n      0x1f\n        /* \"#utility.yul\":25836:25839   */\n      dup3\n        /* \"#utility.yul\":25833:25844   */\n      gt\n        /* \"#utility.yul\":25830:26276   */\n      iszero\n      tag_720\n      jumpi\n        /* \"#utility.yul\":25875:25913   */\n      tag_721\n        /* \"#utility.yul\":25907:25912   */\n      dup2\n        /* \"#utility.yul\":25875:25913   */\n      tag_434\n      jump\t// in\n    tag_721:\n        /* \"#utility.yul\":25959:25988   */\n      tag_722\n        /* \"#utility.yul\":25977:25987   */\n      dup5\n        /* \"#utility.yul\":25959:25988   */\n      tag_435\n      jump\t// in\n    tag_722:\n        /* \"#utility.yul\":25949:25957   */\n      dup2\n        /* \"#utility.yul\":25945:25989   */\n      add\n        /* \"#utility.yul\":26142:26144   */\n      0x20\n        /* \"#utility.yul\":26130:26140   */\n      dup6\n        /* \"#utility.yul\":26127:26145   */\n      lt\n        /* \"#utility.yul\":26124:26173   */\n      iszero\n      tag_723\n      jumpi\n        /* \"#utility.yul\":26163:26171   */\n      dup2\n        /* \"#utility.yul\":26148:26171   */\n      swap1\n      pop\n        /* \"#utility.yul\":26124:26173   */\n    tag_723:\n        /* \"#utility.yul\":26186:26266   */\n      tag_724\n        /* \"#utility.yul\":26242:26264   */\n      tag_725\n        /* \"#utility.yul\":26260:26263   */\n      dup6\n        /* \"#utility.yul\":26242:26264   */\n      tag_435\n      jump\t// in\n    tag_725:\n        /* \"#utility.yul\":26232:26240   */\n      dup4\n        /* \"#utility.yul\":26228:26265   */\n      add\n        /* \"#utility.yul\":26215:26226   */\n      dup3\n        /* \"#utility.yul\":26186:26266   */\n      tag_444\n      jump\t// in\n    tag_724:\n        /* \"#utility.yul\":25845:26276   */\n      pop\n      pop\n        /* \"#utility.yul\":25830:26276   */\n    tag_720:\n        /* \"#utility.yul\":25740:26283   */\n      pop\n      pop\n      pop\n      jump\t// out\n        /* \"#utility.yul\":26289:26406   */\n    tag_446:\n        /* \"#utility.yul\":26343:26351   */\n      0x00\n        /* \"#utility.yul\":26393:26398   */\n      dup3\n        /* \"#utility.yul\":26387:26391   */\n      dup3\n        /* \"#utility.yul\":26383:26399   */\n      shr\n        /* \"#utility.yul\":26362:26399   */\n      swap1\n      pop\n        /* \"#utility.yul\":26289:26406   */\n      swap3\n      swap2\n      pop\n      pop\n      jump\t// out\n        /* \"#utility.yul\":26412:26581   */\n    tag_447:\n        /* \"#utility.yul\":26456:26462   */\n      0x00\n        /* \"#utility.yul\":26489:26540   */\n      tag_728\n        /* \"#utility.yul\":26537:26538   */\n      0x00\n        /* \"#utility.yul\":26533:26539   */\n      not\n        /* \"#utility.yul\":26525:26530   */\n      dup5\n        /* \"#utility.yul\":26522:26523   */\n      0x08\n        /* \"#utility.yul\":26518:26531   */\n      mul\n        /* \"#utility.yul\":26489:26540   */\n      tag_446\n      jump\t// in\n    tag_728:\n        /* \"#utility.yul\":26485:26541   */\n      not\n        /* \"#utility.yul\":26570:26574   */\n      dup1\n        /* \"#utility.yul\":26564:26568   */\n      dup4\n        /* \"#utility.yul\":26560:26575   */\n      and\n        /* \"#utility.yul\":26550:26575   */\n      swap2\n      pop\n        /* \"#utility.yul\":26463:26581   */\n      pop\n        /* \"#utility.yul\":26412:26581   */\n      swap3\n      swap2\n      pop\n      pop\n      jump\t// out\n        /* \"#utility.yul\":26586:26881   */\n    tag_448:\n        /* \"#utility.yul\":26662:26666   */\n      0x00\n        /* \"#utility.yul\":26808:26837   */\n      tag_730\n        /* \"#utility.yul\":26833:26836   */\n      dup4\n        /* \"#utility.yul\":26827:26831   */\n      dup4\n        /* \"#utility.yul\":26808:26837   */\n      tag_447\n      jump\t// in\n    tag_730:\n        /* \"#utility.yul\":26800:26837   */\n      swap2\n      pop\n        /* \"#utility.yul\":26870:26873   */\n      dup3\n        /* \"#utility.yul\":26867:26868   */\n      0x02\n        /* \"#utility.yul\":26863:26874   */\n      mul\n        /* \"#utility.yul\":26857:26861   */\n      dup3\n        /* \"#utility.yul\":26854:26875   */\n      or\n        /* \"#utility.yul\":26846:26875   */\n      swap1\n      pop\n        /* \"#utility.yul\":26586:26881   */\n      swap3\n      swap2\n      pop\n      pop\n      jump\t// out\n        /* \"#utility.yul\":26886:28281   */\n    tag_138:\n        /* \"#utility.yul\":27003:27040   */\n      tag_732\n        /* \"#utility.yul\":27036:27039   */\n      dup3\n        /* \"#utility.yul\":27003:27040   */\n      tag_380\n      jump\t// in\n    tag_732:\n        /* \"#utility.yul\":27105:27123   */\n      0xffffffffffffffff\n        /* \"#utility.yul\":27097:27103   */\n      dup2\n        /* \"#utility.yul\":27094:27124   */\n      gt\n        /* \"#utility.yul\":27091:27147   */\n      iszero\n      tag_733\n      jumpi\n        /* \"#utility.yul\":27127:27145   */\n      tag_734\n      tag_302\n      jump\t// in\n    tag_734:\n        /* \"#utility.yul\":27091:27147   */\n    tag_733:\n        /* \"#utility.yul\":27171:27209   */\n      tag_735\n        /* \"#utility.yul\":27203:27207   */\n      dup3\n        /* \"#utility.yul\":27197:27208   */\n      sload\n        /* \"#utility.yul\":27171:27209   */\n      tag_109\n      jump\t// in\n    tag_735:\n        /* \"#utility.yul\":27256:27323   */\n      tag_736\n        /* \"#utility.yul\":27316:27322   */\n      dup3\n        /* \"#utility.yul\":27308:27314   */\n      dup3\n        /* \"#utility.yul\":27302:27306   */\n      dup6\n        /* \"#utility.yul\":27256:27323   */\n      tag_445\n      jump\t// in\n    tag_736:\n        /* \"#utility.yul\":27350:27351   */\n      0x00\n        /* \"#utility.yul\":27374:27378   */\n      0x20\n        /* \"#utility.yul\":27361:27378   */\n      swap1\n      pop\n        /* \"#utility.yul\":27406:27408   */\n      0x1f\n        /* \"#utility.yul\":27398:27404   */\n      dup4\n        /* \"#utility.yul\":27395:27409   */\n      gt\n        /* \"#utility.yul\":27423:27424   */\n      0x01\n        /* \"#utility.yul\":27418:28036   */\n      dup2\n      eq\n      tag_738\n      jumpi\n        /* \"#utility.yul\":28080:28081   */\n      0x00\n        /* \"#utility.yul\":28097:28103   */\n      dup5\n        /* \"#utility.yul\":28094:28171   */\n      iszero\n      tag_739\n      jumpi\n        /* \"#utility.yul\":28146:28155   */\n      dup3\n        /* \"#utility.yul\":28141:28144   */\n      dup8\n        /* \"#utility.yul\":28137:28156   */\n      add\n        /* \"#utility.yul\":28131:28157   */\n      mload\n        /* \"#utility.yul\":28122:28157   */\n      swap1\n      pop\n        /* \"#utility.yul\":28094:28171   */\n    tag_739:\n        /* \"#utility.yul\":28197:28264   */\n      tag_740\n        /* \"#utility.yul\":28257:28263   */\n      dup6\n        /* \"#utility.yul\":28250:28255   */\n      dup3\n        /* \"#utility.yul\":28197:28264   */\n      tag_448\n      jump\t// in\n    tag_740:\n        /* \"#utility.yul\":28191:28195   */\n      dup7\n        /* \"#utility.yul\":28184:28265   */\n      sstore\n        /* \"#utility.yul\":28053:28275   */\n      pop\n        /* \"#utility.yul\":27388:28275   */\n      jump(tag_737)\n        /* \"#utility.yul\":27418:28036   */\n    tag_738:\n        /* \"#utility.yul\":27470:27474   */\n      0x1f\n        /* \"#utility.yul\":27466:27475   */\n      not\n        /* \"#utility.yul\":27458:27464   */\n      dup5\n        /* \"#utility.yul\":27454:27476   */\n      and\n        /* \"#utility.yul\":27504:27541   */\n      tag_741\n        /* \"#utility.yul\":27536:27540   */\n      dup7\n        /* \"#utility.yul\":27504:27541   */\n      tag_434\n      jump\t// in\n    tag_741:\n        /* \"#utility.yul\":27563:27564   */\n      0x00\n        /* \"#utility.yul\":27577:27785   */\n    tag_742:\n        /* \"#utility.yul\":27591:27598   */\n      dup3\n        /* \"#utility.yul\":27588:27589   */\n      dup2\n        /* \"#utility.yul\":27585:27599   */\n      lt\n        /* \"#utility.yul\":27577:27785   */\n      iszero\n      tag_744\n      jumpi\n        /* \"#utility.yul\":27670:27679   */\n      dup5\n        /* \"#utility.yul\":27665:27668   */\n      dup10\n        /* \"#utility.yul\":27661:27680   */\n      add\n        /* \"#utility.yul\":27655:27681   */\n      mload\n        /* \"#utility.yul\":27647:27653   */\n      dup3\n        /* \"#utility.yul\":27640:27682   */\n      sstore\n        /* \"#utility.yul\":27721:27722   */\n      0x01\n        /* \"#utility.yul\":27713:27719   */\n      dup3\n        /* \"#utility.yul\":27709:27723   */\n      add\n        /* \"#utility.yul\":27699:27723   */\n      swap2\n      pop\n        /* \"#utility.yul\":27768:27770   */\n      0x20\n        /* \"#utility.yul\":27757:27766   */\n      dup6\n        /* \"#utility.yul\":27753:27771   */\n      add\n        /* \"#utility.yul\":27740:27771   */\n      swap5\n      pop\n        /* \"#utility.yul\":27614:27618   */\n      0x20\n        /* \"#utility.yul\":27611:27612   */\n      dup2\n        /* \"#utility.yul\":27607:27619   */\n      add\n        /* \"#utility.yul\":27602:27619   */\n      swap1\n      pop\n        /* \"#utility.yul\":27577:27785   */\n      jump(tag_742)\n    tag_744:\n        /* \"#utility.yul\":27813:27819   */\n      dup7\n        /* \"#utility.yul\":27804:27811   */\n      dup4\n        /* \"#utility.yul\":27801:27820   */\n      lt\n        /* \"#utility.yul\":27798:27977   */\n      iszero\n      tag_745\n      jumpi\n        /* \"#utility.yul\":27871:27880   */\n      dup5\n        /* \"#utility.yul\":27866:27869   */\n      dup10\n        /* \"#utility.yul\":27862:27881   */\n      add\n        /* \"#utility.yul\":27856:27882   */\n      mload\n        /* \"#utility.yul\":27914:27962   */\n      tag_746\n        /* \"#utility.yul\":27956:27960   */\n      0x1f\n        /* \"#utility.yul\":27948:27954   */\n      dup10\n        /* \"#utility.yul\":27944:27961   */\n      and\n        /* \"#utility.yul\":27933:27942   */\n      dup3\n        /* \"#utility.yul\":27914:27962   */\n      tag_447\n      jump\t// in\n    tag_746:\n        /* \"#utility.yul\":27906:27912   */\n      dup4\n        /* \"#utility.yul\":27899:27963   */\n      sstore\n        /* \"#utility.yul\":27821:27977   */\n      pop\n        /* \"#utility.yul\":27798:27977   */\n    tag_745:\n        /* \"#utility.yul\":28023:28024   */\n      0x01\n        /* \"#utility.yul\":28019:28020   */\n      0x02\n        /* \"#utility.yul\":28011:28017   */\n      dup9\n        /* \"#utility.yul\":28007:28021   */\n      mul\n        /* \"#utility.yul\":28003:28025   */\n      add\n        /* \"#utility.yul\":27997:28001   */\n      dup9\n        /* \"#utility.yul\":27990:28026   */\n      sstore\n        /* \"#utility.yul\":27425:28036   */\n      pop\n      pop\n      pop\n        /* \"#utility.yul\":27388:28275   */\n    tag_737:\n      pop\n        /* \"#utility.yul\":26978:28281   */\n      pop\n      pop\n      pop\n        /* \"#utility.yul\":26886:28281   */\n      pop\n      pop\n      jump\t// out\n        /* \"#utility.yul\":28287:28461   */\n    tag_449:\n        /* \"#utility.yul\":28427:28453   */\n      0x55736572206164646564207375636365737366756c6c79210000000000000000\n        /* \"#utility.yul\":28423:28424   */\n      0x00\n        /* \"#utility.yul\":28415:28421   */\n      dup3\n        /* \"#utility.yul\":28411:28425   */\n      add\n        /* \"#utility.yul\":28404:28454   */\n      mstore\n        /* \"#utility.yul\":28287:28461   */\n      pop\n      jump\t// out\n        /* \"#utility.yul\":28467:28833   */\n    tag_450:\n        /* \"#utility.yul\":28609:28612   */\n      0x00\n        /* \"#utility.yul\":28630:28697   */\n      tag_749\n        /* \"#utility.yul\":28694:28696   */\n      0x18\n        /* \"#utility.yul\":28689:28692   */\n      dup4\n        /* \"#utility.yul\":28630:28697   */\n      tag_381\n      jump\t// in\n    tag_749:\n        /* \"#utility.yul\":28623:28697   */\n      swap2\n      pop\n        /* \"#utility.yul\":28706:28799   */\n      tag_750\n        /* \"#utility.yul\":28795:28798   */\n      dup3\n        /* \"#utility.yul\":28706:28799   */\n      tag_449\n      jump\t// in\n    tag_750:\n        /* \"#utility.yul\":28824:28826   */\n      0x20\n        /* \"#utility.yul\":28819:28822   */\n      dup3\n        /* \"#utility.yul\":28815:28827   */\n      add\n        /* \"#utility.yul\":28808:28827   */\n      swap1\n      pop\n        /* \"#utility.yul\":28467:28833   */\n      swap2\n      swap1\n      pop\n      jump\t// out\n        /* \"#utility.yul\":28839:29660   */\n    tag_145:\n        /* \"#utility.yul\":29101:29105   */\n      0x00\n        /* \"#utility.yul\":29139:29141   */\n      0x60\n        /* \"#utility.yul\":29128:29137   */\n      dup3\n        /* \"#utility.yul\":29124:29142   */\n      add\n        /* \"#utility.yul\":29116:29142   */\n      swap1\n      pop\n        /* \"#utility.yul\":29188:29197   */\n      dup2\n        /* \"#utility.yul\":29182:29186   */\n      dup2\n        /* \"#utility.yul\":29178:29198   */\n      sub\n        /* \"#utility.yul\":29174:29175   */\n      0x00\n        /* \"#utility.yul\":29163:29172   */\n      dup4\n        /* \"#utility.yul\":29159:29176   */\n      add\n        /* \"#utility.yul\":29152:29199   */\n      mstore\n        /* \"#utility.yul\":29216:29347   */\n      tag_752\n        /* \"#utility.yul\":29342:29346   */\n      dup2\n        /* \"#utility.yul\":29216:29347   */\n      tag_450\n      jump\t// in\n    tag_752:\n        /* \"#utility.yul\":29208:29347   */\n      swap1\n      pop\n        /* \"#utility.yul\":29394:29403   */\n      dup2\n        /* \"#utility.yul\":29388:29392   */\n      dup2\n        /* \"#utility.yul\":29384:29404   */\n      sub\n        /* \"#utility.yul\":29379:29381   */\n      0x20\n        /* \"#utility.yul\":29368:29377   */\n      dup4\n        /* \"#utility.yul\":29364:29382   */\n      add\n        /* \"#utility.yul\":29357:29405   */\n      mstore\n        /* \"#utility.yul\":29422:29500   */\n      tag_753\n        /* \"#utility.yul\":29495:29499   */\n      dup2\n        /* \"#utility.yul\":29486:29492   */\n      dup6\n        /* \"#utility.yul\":29422:29500   */\n      tag_384\n      jump\t// in\n    tag_753:\n        /* \"#utility.yul\":29414:29500   */\n      swap1\n      pop\n        /* \"#utility.yul\":29547:29556   */\n      dup2\n        /* \"#utility.yul\":29541:29545   */\n      dup2\n        /* \"#utility.yul\":29537:29557   */\n      sub\n        /* \"#utility.yul\":29532:29534   */\n      0x40\n        /* \"#utility.yul\":29521:29530   */\n      dup4\n        /* \"#utility.yul\":29517:29535   */\n      add\n        /* \"#utility.yul\":29510:29558   */\n      mstore\n        /* \"#utility.yul\":29575:29653   */\n      tag_754\n        /* \"#utility.yul\":29648:29652   */\n      dup2\n        /* \"#utility.yul\":29639:29645   */\n      dup5\n        /* \"#utility.yul\":29575:29653   */\n      tag_384\n      jump\t// in\n    tag_754:\n        /* \"#utility.yul\":29567:29653   */\n      swap1\n      pop\n        /* \"#utility.yul\":28839:29660   */\n      swap4\n      swap3\n      pop\n      pop\n      pop\n      jump\t// out\n        /* \"#utility.yul\":29666:29846   */\n    tag_171:\n        /* \"#utility.yul\":29714:29791   */\n      0x4e487b7100000000000000000000000000000000000000000000000000000000\n        /* \"#utility.yul\":29711:29712   */\n      0x00\n        /* \"#utility.yul\":29704:29792   */\n      mstore\n        /* \"#utility.yul\":29811:29815   */\n      0x32\n        /* \"#utility.yul\":29808:29809   */\n      0x04\n        /* \"#utility.yul\":29801:29816   */\n      mstore\n        /* \"#utility.yul\":29835:29839   */\n      0x24\n        /* \"#utility.yul\":29832:29833   */\n      0x00\n        /* \"#utility.yul\":29825:29840   */\n      revert\n        /* \"#utility.yul\":29852:30032   */\n    tag_451:\n        /* \"#utility.yul\":29900:29977   */\n      0x4e487b7100000000000000000000000000000000000000000000000000000000\n        /* \"#utility.yul\":29897:29898   */\n      0x00\n        /* \"#utility.yul\":29890:29978   */\n      mstore\n        /* \"#utility.yul\":29997:30001   */\n      0x11\n        /* \"#utility.yul\":29994:29995   */\n      0x04\n        /* \"#utility.yul\":29987:30002   */\n      mstore\n        /* \"#utility.yul\":30021:30025   */\n      0x24\n        /* \"#utility.yul\":30018:30019   */\n      0x00\n        /* \"#utility.yul\":30011:30026   */\n      revert\n        /* \"#utility.yul\":30038:30232   */\n    tag_175:\n        /* \"#utility.yul\":30078:30082   */\n      0x00\n        /* \"#utility.yul\":30098:30118   */\n      tag_758\n        /* \"#utility.yul\":30116:30117   */\n      dup3\n        /* \"#utility.yul\":30098:30118   */\n      tag_377\n      jump\t// in\n    tag_758:\n        /* \"#utility.yul\":30093:30118   */\n      swap2\n      pop\n        /* \"#utility.yul\":30132:30152   */\n      tag_759\n        /* \"#utility.yul\":30150:30151   */\n      dup4\n        /* \"#utility.yul\":30132:30152   */\n      tag_377\n      jump\t// in\n    tag_759:\n        /* \"#utility.yul\":30127:30152   */\n      swap3\n      pop\n        /* \"#utility.yul\":30176:30177   */\n      dup3\n        /* \"#utility.yul\":30173:30174   */\n      dup3\n        /* \"#utility.yul\":30169:30178   */\n      sub\n        /* \"#utility.yul\":30161:30178   */\n      swap1\n      pop\n        /* \"#utility.yul\":30200:30201   */\n      dup2\n        /* \"#utility.yul\":30194:30198   */\n      dup2\n        /* \"#utility.yul\":30191:30202   */\n      gt\n        /* \"#utility.yul\":30188:30225   */\n      iszero\n      tag_760\n      jumpi\n        /* \"#utility.yul\":30205:30223   */\n      tag_761\n      tag_451\n      jump\t// in\n    tag_761:\n        /* \"#utility.yul\":30188:30225   */\n    tag_760:\n        /* \"#utility.yul\":30038:30232   */\n      swap3\n      swap2\n      pop\n      pop\n      jump\t// out\n        /* \"#utility.yul\":30238:30418   */\n    tag_184:\n        /* \"#utility.yul\":30286:30363   */\n      0x4e487b7100000000000000000000000000000000000000000000000000000000\n        /* \"#utility.yul\":30283:30284   */\n      0x00\n        /* \"#utility.yul\":30276:30364   */\n      mstore\n        /* \"#utility.yul\":30383:30387   */\n      0x31\n        /* \"#utility.yul\":30380:30381   */\n      0x04\n        /* \"#utility.yul\":30373:30388   */\n      mstore\n        /* \"#utility.yul\":30407:30411   */\n      0x24\n        /* \"#utility.yul\":30404:30405   */\n      0x00\n        /* \"#utility.yul\":30397:30412   */\n      revert\n        /* \"#utility.yul\":30424:30657   */\n    tag_187:\n        /* \"#utility.yul\":30463:30466   */\n      0x00\n        /* \"#utility.yul\":30486:30510   */\n      tag_764\n        /* \"#utility.yul\":30504:30509   */\n      dup3\n        /* \"#utility.yul\":30486:30510   */\n      tag_377\n      jump\t// in\n    tag_764:\n        /* \"#utility.yul\":30477:30510   */\n      swap2\n      pop\n        /* \"#utility.yul\":30532:30598   */\n      0xffffffffffffffffffffffffffffffffffffffffffffffffffffffffffffffff\n        /* \"#utility.yul\":30525:30530   */\n      dup3\n        /* \"#utility.yul\":30522:30599   */\n      sub\n        /* \"#utility.yul\":30519:30622   */\n      tag_765\n      jumpi\n        /* \"#utility.yul\":30602:30620   */\n      tag_766\n      tag_451\n      jump\t// in\n    tag_766:\n        /* \"#utility.yul\":30519:30622   */\n    tag_765:\n        /* \"#utility.yul\":30649:30650   */\n      0x01\n        /* \"#utility.yul\":30642:30647   */\n      dup3\n        /* \"#utility.yul\":30638:30651   */\n      add\n        /* \"#utility.yul\":30631:30651   */\n      swap1\n      pop\n        /* \"#utility.yul\":30424:30657   */\n      swap2\n      swap1\n      pop\n      jump\t// out\n        /* \"#utility.yul\":30663:30839   */\n    tag_452:\n        /* \"#utility.yul\":30803:30831   */\n      0x557365722064656c65746564207375636365737366756c6c7921000000000000\n        /* \"#utility.yul\":30799:30800   */\n      0x00\n        /* \"#utility.yul\":30791:30797   */\n      dup3\n        /* \"#utility.yul\":30787:30801   */\n      add\n        /* \"#utility.yul\":30780:30832   */\n      mstore\n        /* \"#utility.yul\":30663:30839   */\n      pop\n      jump\t// out\n        /* \"#utility.yul\":30845:31211   */\n    tag_453:\n        /* \"#utility.yul\":30987:30990   */\n      0x00\n        /* \"#utility.yul\":31008:31075   */\n      tag_769\n        /* \"#utility.yul\":31072:31074   */\n      0x1a\n        /* \"#utility.yul\":31067:31070   */\n      dup4\n        /* \"#utility.yul\":31008:31075   */\n      tag_381\n      jump\t// in\n    tag_769:\n        /* \"#utility.yul\":31001:31075   */\n      swap2\n      pop\n        /* \"#utility.yul\":31084:31177   */\n      tag_770\n        /* \"#utility.yul\":31173:31176   */\n      dup3\n        /* \"#utility.yul\":31084:31177   */\n      tag_452\n      jump\t// in\n    tag_770:\n        /* \"#utility.yul\":31202:31204   */\n      0x20\n        /* \"#utility.yul\":31197:31200   */\n      dup3\n        /* \"#utility.yul\":31193:31205   */\n      add\n        /* \"#utility.yul\":31186:31205   */\n      swap1\n      pop\n        /* \"#utility.yul\":30845:31211   */\n      swap2\n      swap1\n      pop\n      jump\t// out\n        /* \"#utility.yul\":31217:32038   */\n    tag_189:\n        /* \"#utility.yul\":31479:31483   */\n      0x00\n        /* \"#utility.yul\":31517:31519   */\n      0x60\n        /* \"#utility.yul\":31506:31515   */\n      dup3\n        /* \"#utility.yul\":31502:31520   */\n      add\n        /* \"#utility.yul\":31494:31520   */\n      swap1\n      pop\n        /* \"#utility.yul\":31566:31575   */\n      dup2\n        /* \"#utility.yul\":31560:31564   */\n      dup2\n        /* \"#utility.yul\":31556:31576   */\n      sub\n        /* \"#utility.yul\":31552:31553   */\n      0x00\n        /* \"#utility.yul\":31541:31550   */\n      dup4\n        /* \"#utility.yul\":31537:31554   */\n      add\n        /* \"#utility.yul\":31530:31577   */\n      mstore\n        /* \"#utility.yul\":31594:31725   */\n      tag_772\n        /* \"#utility.yul\":31720:31724   */\n      dup2\n        /* \"#utility.yul\":31594:31725   */\n      tag_453\n      jump\t// in\n    tag_772:\n        /* \"#utility.yul\":31586:31725   */\n      swap1\n      pop\n        /* \"#utility.yul\":31772:31781   */\n      dup2\n        /* \"#utility.yul\":31766:31770   */\n      dup2\n        /* \"#utility.yul\":31762:31782   */\n      sub\n        /* \"#utility.yul\":31757:31759   */\n      0x20\n        /* \"#utility.yul\":31746:31755   */\n      dup4\n        /* \"#utility.yul\":31742:31760   */\n      add\n        /* \"#utility.yul\":31735:31783   */\n      mstore\n        /* \"#utility.yul\":31800:31878   */\n      tag_773\n        /* \"#utility.yul\":31873:31877   */\n      dup2\n        /* \"#utility.yul\":31864:31870   */\n      dup6\n        /* \"#utility.yul\":31800:31878   */\n      tag_384\n      jump\t// in\n    tag_773:\n        /* \"#utility.yul\":31792:31878   */\n      swap1\n      pop\n        /* \"#utility.yul\":31925:31934   */\n      dup2\n        /* \"#utility.yul\":31919:31923   */\n      dup2\n        /* \"#utility.yul\":31915:31935   */\n      sub\n        /* \"#utility.yul\":31910:31912   */\n      0x40\n        /* \"#utility.yul\":31899:31908   */\n      dup4\n        /* \"#utility.yul\":31895:31913   */\n      add\n        /* \"#utility.yul\":31888:31936   */\n      mstore\n        /* \"#utility.yul\":31953:32031   */\n      tag_774\n        /* \"#utility.yul\":32026:32030   */\n      dup2\n        /* \"#utility.yul\":32017:32023   */\n      dup5\n        /* \"#utility.yul\":31953:32031   */\n      tag_384\n      jump\t// in\n    tag_774:\n        /* \"#utility.yul\":31945:32031   */\n      swap1\n      pop\n        /* \"#utility.yul\":31217:32038   */\n      swap4\n      swap3\n      pop\n      pop\n      pop\n      jump\t// out\n        /* \"#utility.yul\":32044:32273   */\n    tag_454:\n        /* \"#utility.yul\":32184:32218   */\n      0x4f6e6c7920636f6e7472616374206f776e65722063616e2063616c6c20746869\n        /* \"#utility.yul\":32180:32181   */\n      0x00\n        /* \"#utility.yul\":32172:32178   */\n      dup3\n        /* \"#utility.yul\":32168:32182   */\n      add\n        /* \"#utility.yul\":32161:32219   */\n      mstore\n        /* \"#utility.yul\":32253:32265   */\n      0x732066756e6374696f6e00000000000000000000000000000000000000000000\n        /* \"#utility.yul\":32248:32250   */\n      0x20\n        /* \"#utility.yul\":32240:32246   */\n      dup3\n        /* \"#utility.yul\":32236:32251   */\n      add\n        /* \"#utility.yul\":32229:32266   */\n      mstore\n        /* \"#utility.yul\":32044:32273   */\n      pop\n      jump\t// out\n        /* \"#utility.yul\":32279:32645   */\n    tag_455:\n        /* \"#utility.yul\":32421:32424   */\n      0x00\n        /* \"#utility.yul\":32442:32509   */\n      tag_777\n        /* \"#utility.yul\":32506:32508   */\n      0x2a\n        /* \"#utility.yul\":32501:32504   */\n      dup4\n        /* \"#utility.yul\":32442:32509   */\n      tag_381\n      jump\t// in\n    tag_777:\n        /* \"#utility.yul\":32435:32509   */\n      swap2\n      pop\n        /* \"#utility.yul\":32518:32611   */\n      tag_778\n        /* \"#utility.yul\":32607:32610   */\n      dup3\n        /* \"#utility.yul\":32518:32611   */\n      tag_454\n      jump\t// in\n    tag_778:\n        /* \"#utility.yul\":32636:32638   */\n      0x40\n        /* \"#utility.yul\":32631:32634   */\n      dup3\n        /* \"#utility.yul\":32627:32639   */\n      add\n        /* \"#utility.yul\":32620:32639   */\n      swap1\n      pop\n        /* \"#utility.yul\":32279:32645   */\n      swap2\n      swap1\n      pop\n      jump\t// out\n        /* \"#utility.yul\":32651:33070   */\n    tag_217:\n        /* \"#utility.yul\":32817:32821   */\n      0x00\n        /* \"#utility.yul\":32855:32857   */\n      0x20\n        /* \"#utility.yul\":32844:32853   */\n      dup3\n        /* \"#utility.yul\":32840:32858   */\n      add\n        /* \"#utility.yul\":32832:32858   */\n      swap1\n      pop\n        /* \"#utility.yul\":32904:32913   */\n      dup2\n        /* \"#utility.yul\":32898:32902   */\n      dup2\n        /* \"#utility.yul\":32894:32914   */\n      sub\n        /* \"#utility.yul\":32890:32891   */\n      0x00\n        /* \"#utility.yul\":32879:32888   */\n      dup4\n        /* \"#utility.yul\":32875:32892   */\n      add\n        /* \"#utility.yul\":32868:32915   */\n      mstore\n        /* \"#utility.yul\":32932:33063   */\n      tag_780\n        /* \"#utility.yul\":33058:33062   */\n      dup2\n        /* \"#utility.yul\":32932:33063   */\n      tag_455\n      jump\t// in\n    tag_780:\n        /* \"#utility.yul\":32924:33063   */\n      swap1\n      pop\n        /* \"#utility.yul\":32651:33070   */\n      swap2\n      swap1\n      pop\n      jump\t// out\n        /* \"#utility.yul\":33076:33253   */\n    tag_456:\n        /* \"#utility.yul\":33216:33245   */\n      0x4f776e6572206368616e676564207375636365737366756c6c79210000000000\n        /* \"#utility.yul\":33212:33213   */\n      0x00\n        /* \"#utility.yul\":33204:33210   */\n      dup3\n        /* \"#utility.yul\":33200:33214   */\n      add\n        /* \"#utility.yul\":33193:33246   */\n      mstore\n        /* \"#utility.yul\":33076:33253   */\n      pop\n      jump\t// out\n        /* \"#utility.yul\":33259:33625   */\n    tag_457:\n        /* \"#utility.yul\":33401:33404   */\n      0x00\n        /* \"#utility.yul\":33422:33489   */\n      tag_783\n        /* \"#utility.yul\":33486:33488   */\n      0x1b\n        /* \"#utility.yul\":33481:33484   */\n      dup4\n        /* \"#utility.yul\":33422:33489   */\n      tag_381\n      jump\t// in\n    tag_783:\n        /* \"#utility.yul\":33415:33489   */\n      swap2\n      pop\n        /* \"#utility.yul\":33498:33591   */\n      tag_784\n        /* \"#utility.yul\":33587:33590   */\n      dup3\n        /* \"#utility.yul\":33498:33591   */\n      tag_456\n      jump\t// in\n    tag_784:\n        /* \"#utility.yul\":33616:33618   */\n      0x20\n        /* \"#utility.yul\":33611:33614   */\n      dup3\n        /* \"#utility.yul\":33607:33619   */\n      add\n        /* \"#utility.yul\":33600:33619   */\n      swap1\n      pop\n        /* \"#utility.yul\":33259:33625   */\n      swap2\n      swap1\n      pop\n      jump\t// out\n        /* \"#utility.yul\":33631:34270   */\n    tag_222:\n        /* \"#utility.yul\":33853:33857   */\n      0x00\n        /* \"#utility.yul\":33891:33893   */\n      0x60\n        /* \"#utility.yul\":33880:33889   */\n      dup3\n        /* \"#utility.yul\":33876:33894   */\n      add\n        /* \"#utility.yul\":33868:33894   */\n      swap1\n      pop\n        /* \"#utility.yul\":33940:33949   */\n      dup2\n        /* \"#utility.yul\":33934:33938   */\n      dup2\n        /* \"#utility.yul\":33930:33950   */\n      sub\n        /* \"#utility.yul\":33926:33927   */\n      0x00\n        /* \"#utility.yul\":33915:33924   */\n      dup4\n        /* \"#utility.yul\":33911:33928   */\n      add\n        /* \"#utility.yul\":33904:33951   */\n      mstore\n        /* \"#utility.yul\":33968:34099   */\n      tag_786\n        /* \"#utility.yul\":34094:34098   */\n      dup2\n        /* \"#utility.yul\":33968:34099   */\n      tag_457\n      jump\t// in\n    tag_786:\n        /* \"#utility.yul\":33960:34099   */\n      swap1\n      pop\n        /* \"#utility.yul\":34109:34181   */\n      tag_787\n        /* \"#utility.yul\":34177:34179   */\n      0x20\n        /* \"#utility.yul\":34166:34175   */\n      dup4\n        /* \"#utility.yul\":34162:34180   */\n      add\n        /* \"#utility.yul\":34153:34159   */\n      dup6\n        /* \"#utility.yul\":34109:34181   */\n      tag_398\n      jump\t// in\n    tag_787:\n        /* \"#utility.yul\":34191:34263   */\n      tag_788\n        /* \"#utility.yul\":34259:34261   */\n      0x40\n        /* \"#utility.yul\":34248:34257   */\n      dup4\n        /* \"#utility.yul\":34244:34262   */\n      add\n        /* \"#utility.yul\":34235:34241   */\n      dup5\n        /* \"#utility.yul\":34191:34263   */\n      tag_398\n      jump\t// in\n    tag_788:\n        /* \"#utility.yul\":33631:34270   */\n      swap4\n      swap3\n      pop\n      pop\n      pop\n      jump\t// out\n        /* \"#utility.yul\":34276:34450   */\n    tag_458:\n        /* \"#utility.yul\":34416:34442   */\n      0x456e7469747920494420616c7265616479206578697374730000000000000000\n        /* \"#utility.yul\":34412:34413   */\n      0x00\n        /* \"#utility.yul\":34404:34410   */\n      dup3\n        /* \"#utility.yul\":34400:34414   */\n      add\n        /* \"#utility.yul\":34393:34443   */\n      mstore\n        /* \"#utility.yul\":34276:34450   */\n      pop\n      jump\t// out\n        /* \"#utility.yul\":34456:34822   */\n    tag_459:\n        /* \"#utility.yul\":34598:34601   */\n      0x00\n        /* \"#utility.yul\":34619:34686   */\n      tag_791\n        /* \"#utility.yul\":34683:34685   */\n      0x18\n        /* \"#utility.yul\":34678:34681   */\n      dup4\n        /* \"#utility.yul\":34619:34686   */\n      tag_381\n      jump\t// in\n    tag_791:\n        /* \"#utility.yul\":34612:34686   */\n      swap2\n      pop\n        /* \"#utility.yul\":34695:34788   */\n      tag_792\n        /* \"#utility.yul\":34784:34787   */\n      dup3\n        /* \"#utility.yul\":34695:34788   */\n      tag_458\n      jump\t// in\n    tag_792:\n        /* \"#utility.yul\":34813:34815   */\n      0x20\n        /* \"#utility.yul\":34808:34811   */\n      dup3\n        /* \"#utility.yul\":34804:34816   */\n      add\n        /* \"#utility.yul\":34797:34816   */\n      swap1\n      pop\n        /* \"#utility.yul\":34456:34822   */\n      swap2\n      swap1\n      pop\n      jump\t// out\n        /* \"#utility.yul\":34828:35247   */\n    tag_239:\n        /* \"#utility.yul\":34994:34998   */\n      0x00\n        /* \"#utility.yul\":35032:35034   */\n      0x20\n        /* \"#utility.yul\":35021:35030   */\n      dup3\n        /* \"#utility.yul\":35017:35035   */\n      add\n        /* \"#utility.yul\":35009:35035   */\n      swap1\n      pop\n        /* \"#utility.yul\":35081:35090   */\n      dup2\n        /* \"#utility.yul\":35075:35079   */\n      dup2\n        /* \"#utility.yul\":35071:35091   */\n      sub\n        /* \"#utility.yul\":35067:35068   */\n      0x00\n        /* \"#utility.yul\":35056:35065   */\n      dup4\n        /* \"#utility.yul\":35052:35069   */\n      add\n        /* \"#utility.yul\":35045:35092   */\n      mstore\n        /* \"#utility.yul\":35109:35240   */\n      tag_794\n        /* \"#utility.yul\":35235:35239   */\n      dup2\n        /* \"#utility.yul\":35109:35240   */\n      tag_459\n      jump\t// in\n    tag_794:\n        /* \"#utility.yul\":35101:35240   */\n      swap1\n      pop\n        /* \"#utility.yul\":34828:35247   */\n      swap2\n      swap1\n      pop\n      jump\t// out\n        /* \"#utility.yul\":35253:35429   */\n    tag_460:\n        /* \"#utility.yul\":35393:35421   */\n      0x456e74697479206e616d6520616c726561647920657869737473000000000000\n        /* \"#utility.yul\":35389:35390   */\n      0x00\n        /* \"#utility.yul\":35381:35387   */\n      dup3\n        /* \"#utility.yul\":35377:35391   */\n      add\n        /* \"#utility.yul\":35370:35422   */\n      mstore\n        /* \"#utility.yul\":35253:35429   */\n      pop\n      jump\t// out\n        /* \"#utility.yul\":35435:35801   */\n    tag_461:\n        /* \"#utility.yul\":35577:35580   */\n      0x00\n        /* \"#utility.yul\":35598:35665   */\n      tag_797\n        /* \"#utility.yul\":35662:35664   */\n      0x1a\n        /* \"#utility.yul\":35657:35660   */\n      dup4\n        /* \"#utility.yul\":35598:35665   */\n      tag_381\n      jump\t// in\n    tag_797:\n        /* \"#utility.yul\":35591:35665   */\n      swap2\n      pop\n        /* \"#utility.yul\":35674:35767   */\n      tag_798\n        /* \"#utility.yul\":35763:35766   */\n      dup3\n        /* \"#utility.yul\":35674:35767   */\n      tag_460\n      jump\t// in\n    tag_798:\n        /* \"#utility.yul\":35792:35794   */\n      0x20\n        /* \"#utility.yul\":35787:35790   */\n      dup3\n        /* \"#utility.yul\":35783:35795   */\n      add\n        /* \"#utility.yul\":35776:35795   */\n      swap1\n      pop\n        /* \"#utility.yul\":35435:35801   */\n      swap2\n      swap1\n      pop\n      jump\t// out\n        /* \"#utility.yul\":35807:36226   */\n    tag_243:\n        /* \"#utility.yul\":35973:35977   */\n      0x00\n        /* \"#utility.yul\":36011:36013   */\n      0x20\n        /* \"#utility.yul\":36000:36009   */\n      dup3\n        /* \"#utility.yul\":35996:36014   */\n      add\n        /* \"#utility.yul\":35988:36014   */\n      swap1\n      pop\n        /* \"#utility.yul\":36060:36069   */\n      dup2\n        /* \"#utility.yul\":36054:36058   */\n      dup2\n        /* \"#utility.yul\":36050:36070   */\n      sub\n        /* \"#utility.yul\":36046:36047   */\n      0x00\n        /* \"#utility.yul\":36035:36044   */\n      dup4\n        /* \"#utility.yul\":36031:36048   */\n      add\n        /* \"#utility.yul\":36024:36071   */\n      mstore\n        /* \"#utility.yul\":36088:36219   */\n      tag_800\n        /* \"#utility.yul\":36214:36218   */\n      dup2\n        /* \"#utility.yul\":36088:36219   */\n      tag_461\n      jump\t// in\n    tag_800:\n        /* \"#utility.yul\":36080:36219   */\n      swap1\n      pop\n        /* \"#utility.yul\":35807:36226   */\n      swap2\n      swap1\n      pop\n      jump\t// out\n        /* \"#utility.yul\":36232:36399   */\n    tag_462:\n        /* \"#utility.yul\":36372:36391   */\n      0x4e657720656e7469747920616464656421000000000000000000000000000000\n        /* \"#utility.yul\":36368:36369   */\n      0x00\n        /* \"#utility.yul\":36360:36366   */\n      dup3\n        /* \"#utility.yul\":36356:36370   */\n      add\n        /* \"#utility.yul\":36349:36392   */\n      mstore\n        /* \"#utility.yul\":36232:36399   */\n      pop\n      jump\t// out\n        /* \"#utility.yul\":36405:36771   */\n    tag_463:\n        /* \"#utility.yul\":36547:36550   */\n      0x00\n        /* \"#utility.yul\":36568:36635   */\n      tag_803\n        /* \"#utility.yul\":36632:36634   */\n      0x11\n        /* \"#utility.yul\":36627:36630   */\n      dup4\n        /* \"#utility.yul\":36568:36635   */\n      tag_381\n      jump\t// in\n    tag_803:\n        /* \"#utility.yul\":36561:36635   */\n      swap2\n      pop\n        /* \"#utility.yul\":36644:36737   */\n      tag_804\n        /* \"#utility.yul\":36733:36736   */\n      dup3\n        /* \"#utility.yul\":36644:36737   */\n      tag_462\n      jump\t// in\n    tag_804:\n        /* \"#utility.yul\":36762:36764   */\n      0x20\n        /* \"#utility.yul\":36757:36760   */\n      dup3\n        /* \"#utility.yul\":36753:36765   */\n      add\n        /* \"#utility.yul\":36746:36765   */\n      swap1\n      pop\n        /* \"#utility.yul\":36405:36771   */\n      swap2\n      swap1\n      pop\n      jump\t// out\n        /* \"#utility.yul\":36777:37640   */\n    tag_256:\n        /* \"#utility.yul\":37058:37062   */\n      0x00\n        /* \"#utility.yul\":37096:37099   */\n      0x80\n        /* \"#utility.yul\":37085:37094   */\n      dup3\n        /* \"#utility.yul\":37081:37100   */\n      add\n        /* \"#utility.yul\":37073:37100   */\n      swap1\n      pop\n        /* \"#utility.yul\":37146:37155   */\n      dup2\n        /* \"#utility.yul\":37140:37144   */\n      dup2\n        /* \"#utility.yul\":37136:37156   */\n      sub\n        /* \"#utility.yul\":37132:37133   */\n      0x00\n        /* \"#utility.yul\":37121:37130   */\n      dup4\n        /* \"#utility.yul\":37117:37134   */\n      add\n        /* \"#utility.yul\":37110:37157   */\n      mstore\n        /* \"#utility.yul\":37174:37305   */\n      tag_806\n        /* \"#utility.yul\":37300:37304   */\n      dup2\n        /* \"#utility.yul\":37174:37305   */\n      tag_463\n      jump\t// in\n    tag_806:\n        /* \"#utility.yul\":37166:37305   */\n      swap1\n      pop\n        /* \"#utility.yul\":37315:37387   */\n      tag_807\n        /* \"#utility.yul\":37383:37385   */\n      0x20\n        /* \"#utility.yul\":37372:37381   */\n      dup4\n        /* \"#utility.yul\":37368:37386   */\n      add\n        /* \"#utility.yul\":37359:37365   */\n      dup7\n        /* \"#utility.yul\":37315:37387   */\n      tag_397\n      jump\t// in\n    tag_807:\n        /* \"#utility.yul\":37434:37443   */\n      dup2\n        /* \"#utility.yul\":37428:37432   */\n      dup2\n        /* \"#utility.yul\":37424:37444   */\n      sub\n        /* \"#utility.yul\":37419:37421   */\n      0x40\n        /* \"#utility.yul\":37408:37417   */\n      dup4\n        /* \"#utility.yul\":37404:37422   */\n      add\n        /* \"#utility.yul\":37397:37445   */\n      mstore\n        /* \"#utility.yul\":37462:37540   */\n      tag_808\n        /* \"#utility.yul\":37535:37539   */\n      dup2\n        /* \"#utility.yul\":37526:37532   */\n      dup6\n        /* \"#utility.yul\":37462:37540   */\n      tag_384\n      jump\t// in\n    tag_808:\n        /* \"#utility.yul\":37454:37540   */\n      swap1\n      pop\n        /* \"#utility.yul\":37550:37633   */\n      tag_809\n        /* \"#utility.yul\":37629:37631   */\n      0x60\n        /* \"#utility.yul\":37618:37627   */\n      dup4\n        /* \"#utility.yul\":37614:37632   */\n      add\n        /* \"#utility.yul\":37605:37611   */\n      dup5\n        /* \"#utility.yul\":37550:37633   */\n      tag_388\n      jump\t// in\n    tag_809:\n        /* \"#utility.yul\":36777:37640   */\n      swap5\n      swap4\n      pop\n      pop\n      pop\n      pop\n      jump\t// out\n        /* \"#utility.yul\":37646:37824   */\n    tag_464:\n        /* \"#utility.yul\":37786:37816   */\n      0x456e746974792064656c65746564207375636365737366756c6c792100000000\n        /* \"#utility.yul\":37782:37783   */\n      0x00\n        /* \"#utility.yul\":37774:37780   */\n      dup3\n        /* \"#utility.yul\":37770:37784   */\n      add\n        /* \"#utility.yul\":37763:37817   */\n      mstore\n        /* \"#utility.yul\":37646:37824   */\n      pop\n      jump\t// out\n        /* \"#utility.yul\":37830:38196   */\n    tag_465:\n        /* \"#utility.yul\":37972:37975   */\n      0x00\n        /* \"#utility.yul\":37993:38060   */\n      tag_812\n        /* \"#utility.yul\":38057:38059   */\n      0x1c\n        /* \"#utility.yul\":38052:38055   */\n      dup4\n        /* \"#utility.yul\":37993:38060   */\n      tag_381\n      jump\t// in\n    tag_812:\n        /* \"#utility.yul\":37986:38060   */\n      swap2\n      pop\n        /* \"#utility.yul\":38069:38162   */\n      tag_813\n        /* \"#utility.yul\":38158:38161   */\n      dup3\n        /* \"#utility.yul\":38069:38162   */\n      tag_464\n      jump\t// in\n    tag_813:\n        /* \"#utility.yul\":38187:38189   */\n      0x20\n        /* \"#utility.yul\":38182:38185   */\n      dup3\n        /* \"#utility.yul\":38178:38190   */\n      add\n        /* \"#utility.yul\":38171:38190   */\n      swap1\n      pop\n        /* \"#utility.yul\":37830:38196   */\n      swap2\n      swap1\n      pop\n      jump\t// out\n        /* \"#utility.yul\":38202:39065   */\n    tag_298:\n        /* \"#utility.yul\":38483:38487   */\n      0x00\n        /* \"#utility.yul\":38521:38524   */\n      0x80\n        /* \"#utility.yul\":38510:38519   */\n      dup3\n        /* \"#utility.yul\":38506:38525   */\n      add\n        /* \"#utility.yul\":38498:38525   */\n      swap1\n      pop\n        /* \"#utility.yul\":38571:38580   */\n      dup2\n        /* \"#utility.yul\":38565:38569   */\n      dup2\n        /* \"#utility.yul\":38561:38581   */\n      sub\n        /* \"#utility.yul\":38557:38558   */\n      0x00\n        /* \"#utility.yul\":38546:38555   */\n      dup4\n        /* \"#utility.yul\":38542:38559   */\n      add\n        /* \"#utility.yul\":38535:38582   */\n      mstore\n        /* \"#utility.yul\":38599:38730   */\n      tag_815\n        /* \"#utility.yul\":38725:38729   */\n      dup2\n        /* \"#utility.yul\":38599:38730   */\n      tag_465\n      jump\t// in\n    tag_815:\n        /* \"#utility.yul\":38591:38730   */\n      swap1\n      pop\n        /* \"#utility.yul\":38740:38812   */\n      tag_816\n        /* \"#utility.yul\":38808:38810   */\n      0x20\n        /* \"#utility.yul\":38797:38806   */\n      dup4\n        /* \"#utility.yul\":38793:38811   */\n      add\n        /* \"#utility.yul\":38784:38790   */\n      dup7\n        /* \"#utility.yul\":38740:38812   */\n      tag_397\n      jump\t// in\n    tag_816:\n        /* \"#utility.yul\":38859:38868   */\n      dup2\n        /* \"#utility.yul\":38853:38857   */\n      dup2\n        /* \"#utility.yul\":38849:38869   */\n      sub\n        /* \"#utility.yul\":38844:38846   */\n      0x40\n        /* \"#utility.yul\":38833:38842   */\n      dup4\n        /* \"#utility.yul\":38829:38847   */\n      add\n        /* \"#utility.yul\":38822:38870   */\n      mstore\n        /* \"#utility.yul\":38887:38965   */\n      tag_817\n        /* \"#utility.yul\":38960:38964   */\n      dup2\n        /* \"#utility.yul\":38951:38957   */\n      dup6\n        /* \"#utility.yul\":38887:38965   */\n      tag_384\n      jump\t// in\n    tag_817:\n        /* \"#utility.yul\":38879:38965   */\n      swap1\n      pop\n        /* \"#utility.yul\":38975:39058   */\n      tag_818\n        /* \"#utility.yul\":39054:39056   */\n      0x60\n        /* \"#utility.yul\":39043:39052   */\n      dup4\n        /* \"#utility.yul\":39039:39057   */\n      add\n        /* \"#utility.yul\":39030:39036   */\n      dup5\n        /* \"#utility.yul\":38975:39058   */\n      tag_388\n      jump\t// in\n    tag_818:\n        /* \"#utility.yul\":38202:39065   */\n      swap5\n      swap4\n      pop\n      pop\n      pop\n      pop\n      jump\t// out\n        /* \"#utility.yul\":39071:39233   */\n    tag_466:\n        /* \"#utility.yul\":39211:39225   */\n      0x496e76616c696420526f6c650000000000000000000000000000000000000000\n        /* \"#utility.yul\":39207:39208   */\n      0x00\n        /* \"#utility.yul\":39199:39205   */\n      dup3\n        /* \"#utility.yul\":39195:39209   */\n      add\n        /* \"#utility.yul\":39188:39226   */\n      mstore\n        /* \"#utility.yul\":39071:39233   */\n      pop\n      jump\t// out\n        /* \"#utility.yul\":39239:39605   */\n    tag_467:\n        /* \"#utility.yul\":39381:39384   */\n      0x00\n        /* \"#utility.yul\":39402:39469   */\n      tag_821\n        /* \"#utility.yul\":39466:39468   */\n      0x0c\n        /* \"#utility.yul\":39461:39464   */\n      dup4\n        /* \"#utility.yul\":39402:39469   */\n      tag_381\n      jump\t// in\n    tag_821:\n        /* \"#utility.yul\":39395:39469   */\n      swap2\n      pop\n        /* \"#utility.yul\":39478:39571   */\n      tag_822\n        /* \"#utility.yul\":39567:39570   */\n      dup3\n        /* \"#utility.yul\":39478:39571   */\n      tag_466\n      jump\t// in\n    tag_822:\n        /* \"#utility.yul\":39596:39598   */\n      0x20\n        /* \"#utility.yul\":39591:39594   */\n      dup3\n        /* \"#utility.yul\":39587:39599   */\n      add\n        /* \"#utility.yul\":39580:39599   */\n      swap1\n      pop\n        /* \"#utility.yul\":39239:39605   */\n      swap2\n      swap1\n      pop\n      jump\t// out\n        /* \"#utility.yul\":39611:40030   */\n    tag_358:\n        /* \"#utility.yul\":39777:39781   */\n      0x00\n        /* \"#utility.yul\":39815:39817   */\n      0x20\n        /* \"#utility.yul\":39804:39813   */\n      dup3\n        /* \"#utility.yul\":39800:39818   */\n      add\n        /* \"#utility.yul\":39792:39818   */\n      swap1\n      pop\n        /* \"#utility.yul\":39864:39873   */\n      dup2\n        /* \"#utility.yul\":39858:39862   */\n      dup2\n        /* \"#utility.yul\":39854:39874   */\n      sub\n        /* \"#utility.yul\":39850:39851   */\n      0x00\n        /* \"#utility.yul\":39839:39848   */\n      dup4\n        /* \"#utility.yul\":39835:39852   */\n      add\n        /* \"#utility.yul\":39828:39875   */\n      mstore\n        /* \"#utility.yul\":39892:40023   */\n      tag_824\n        /* \"#utility.yul\":40018:40022   */\n      dup2\n        /* \"#utility.yul\":39892:40023   */\n      tag_467\n      jump\t// in\n    tag_824:\n        /* \"#utility.yul\":39884:40023   */\n      swap1\n      pop\n        /* \"#utility.yul\":39611:40030   */\n      swap2\n      swap1\n      pop\n      jump\t// out\n\n    auxdata: 0xa264697066735822122028cfce4792ed9b348a373649464fc5cefac1d6e233ec924fed32fd76a989c56764736f6c63430008130033\n}\n",
				"bytecode": {
					"linkReferences": {},
					"object": "60806040526040518060400160405280600881526020017f4d4754205445414d000000000000000000000000000000000000000000000000815250600190816200004a919062000507565b503480156200005857600080fd5b50336000806101000a81548173ffffffffffffffffffffffffffffffffffffffff021916908373ffffffffffffffffffffffffffffffffffffffff160217905550604051806040016040528060018054620000b390620002f6565b80601f0160208091040260200160405190810160405280929190818152602001828054620000e190620002f6565b8015620001325780601f10620001065761010080835404028352916020019162000132565b820191906000526020600020905b8154815290600101906020018083116200011457829003601f168201915b5050505050815260200160016004811115620001535762000152620005ee565b5b815250600260008060009054906101000a900473ffffffffffffffffffffffffffffffffffffffff1673ffffffffffffffffffffffffffffffffffffffff1673ffffffffffffffffffffffffffffffffffffffff1681526020019081526020016000206000820151816000019081620001cd919062000507565b5060208201518160010160006101000a81548160ff02191690836004811115620001fc57620001fb620005ee565b5b0217905550905050600360008054906101000a900473ffffffffffffffffffffffffffffffffffffffff169080600181540180825580915050600190039060005260206000200160009091909190916101000a81548173ffffffffffffffffffffffffffffffffffffffff021916908373ffffffffffffffffffffffffffffffffffffffff1602179055506200061d565b600081519050919050565b7f4e487b7100000000000000000000000000000000000000000000000000000000600052604160045260246000fd5b7f4e487b7100000000000000000000000000000000000000000000000000000000600052602260045260246000fd5b600060028204905060018216806200030f57607f821691505b602082108103620003255762000324620002c7565b5b50919050565b60008190508160005260206000209050919050565b60006020601f8301049050919050565b600082821b905092915050565b6000600883026200038f7fffffffffffffffffffffffffffffffffffffffffffffffffffffffffffffffff8262000350565b6200039b868362000350565b95508019841693508086168417925050509392505050565b6000819050919050565b6000819050919050565b6000620003e8620003e2620003dc84620003b3565b620003bd565b620003b3565b9050919050565b6000819050919050565b6200040483620003c7565b6200041c6200041382620003ef565b8484546200035d565b825550505050565b600090565b6200043362000424565b62000440818484620003f9565b505050565b5b8181101562000468576200045c60008262000429565b60018101905062000446565b5050565b601f821115620004b75762000481816200032b565b6200048c8462000340565b810160208510156200049c578190505b620004b4620004ab8562000340565b83018262000445565b50505b505050565b600082821c905092915050565b6000620004dc60001984600802620004bc565b1980831691505092915050565b6000620004f78383620004c9565b9150826002028217905092915050565b62000512826200028d565b67ffffffffffffffff8111156200052e576200052d62000298565b5b6200053a8254620002f6565b620005478282856200046c565b600060209050601f8311600181146200057f57600084156200056a578287015190505b620005768582620004e9565b865550620005e6565b601f1984166200058f866200032b565b60005b82811015620005b95784890151825560018201915060208501945060208101905062000592565b86831015620005d95784890151620005d5601f891682620004c9565b8355505b6001600288020188555050505b505050505050565b7f4e487b7100000000000000000000000000000000000000000000000000000000600052602160045260246000fd5b61332a806200062d6000396000f3fe608060405234801561001057600080fd5b50600436106101005760003560e01c8063734e1ac311610097578063c6fbae0411610066578063c6fbae04146102d5578063cb9e2755146102f1578063e2842d791461030d578063f61af8ab1461032b57610100565b8063734e1ac31461024c5780638da5cb5b1461026a578063a6f9dae114610288578063a87430ba146102a457610100565b8063502c9bd5116100d3578063502c9bd51461019f5780635c60f226146101cf5780636331883b146101eb57806369c212f61461021c57610100565b806303a696111461010557806332c227a9146101215780633e88a4e21461015257806340d2685414610183575b600080fd5b61011f600480360381019061011a9190611fdc565b61035b565b005b61013b60048036038101906101369190612052565b6104f0565b604051610149929190612186565b60405180910390f35b61016c600480360381019061016791906122eb565b61061b565b60405161017a929190612343565b60405180910390f35b61019d6004803603810190610198919061236c565b6106d4565b005b6101b960048036038101906101b49190612052565b610970565b6040516101c691906123ea565b60405180910390f35b6101e960048036038101906101e49190612405565b6109af565b005b61020560048036038101906102009190612052565b610e49565b604051610213929190612186565b60405180910390f35b61023660048036038101906102319190612405565b610f02565b6040516102439190612501565b60405180910390f35b610254611097565b6040516102619190612523565b60405180910390f35b610272611125565b60405161027f91906123ea565b60405180910390f35b6102a2600480360381019061029d9190612405565b611149565b005b6102be60048036038101906102b99190612405565b6112c2565b6040516102cc929190612554565b60405180910390f35b6102ef60048036038101906102ea91906125a9565b61137b565b005b61030b60048036038101906103069190612052565b61163d565b005b6103156119e2565b6040516103229190612717565b60405180910390f35b61034560048036038101906103409190612739565b611bdf565b6040516103529190612824565b60405180910390f35b60018060048111156103705761036f61210f565b5b600260003373ffffffffffffffffffffffffffffffffffffffff1673ffffffffffffffffffffffffffffffffffffffff16815260200190815260200160002060010160009054906101000a900460ff1660048111156103d2576103d161210f565b5b14610412576040517f08c379a000000000000000000000000000000000000000000000000000000000815260040161040990612892565b60405180910390fd5b600073ffffffffffffffffffffffffffffffffffffffff168373ffffffffffffffffffffffffffffffffffffffff1603610481576040517f08c379a0000000000000000000000000000000000000000000000000000000008152600401610478906128fe565b60405180910390fd5b81600260008573ffffffffffffffffffffffffffffffffffffffff1673ffffffffffffffffffffffffffffffffffffffff16815260200190815260200160002060010160006101000a81548160ff021916908360048111156104e6576104e561210f565b5b0217905550505050565b60606000806004600085815260200190815260200160002060000180546105169061294d565b905003610558576040517f08c379a000000000000000000000000000000000000000000000000000000000815260040161054f906129ca565b60405180910390fd5b6000600460008581526020019081526020016000209050806000018160010160009054906101000a900460ff168180546105919061294d565b80601f01602080910402602001604051908101604052809291908181526020018280546105bd9061294d565b801561060a5780601f106105df5761010080835404028352916020019161060a565b820191906000526020600020905b8154815290600101906020018083116105ed57829003601f168201915b505050505091509250925050915091565b60008060006005846040516106309190612a26565b9081526020016040518091039020540361067f576040517f08c379a0000000000000000000000000000000000000000000000000000000008152600401610676906129ca565b60405180910390fd5b60058360405161068f9190612a26565b90815260200160405180910390205491506000600460008481526020019081526020016000209050828160010160009054906101000a900460ff169250925050915091565b60018060048111156106e9576106e861210f565b5b600260003373ffffffffffffffffffffffffffffffffffffffff1673ffffffffffffffffffffffffffffffffffffffff16815260200190815260200160002060010160009054906101000a900460ff16600481111561074b5761074a61210f565b5b1461078b576040517f08c379a000000000000000000000000000000000000000000000000000000000815260040161078290612892565b60405180910390fd5b600073ffffffffffffffffffffffffffffffffffffffff168473ffffffffffffffffffffffffffffffffffffffff16036107fa576040517f08c379a00000000000000000000000000000000000000000000000000000000081526004016107f190612a89565b60405180910390fd5b604051806040016040528084815260200183600481111561081e5761081d61210f565b5b815250600260008673ffffffffffffffffffffffffffffffffffffffff1673ffffffffffffffffffffffffffffffffffffffff16815260200190815260200160002060008201518160000190816108759190612c55565b5060208201518160010160006101000a81548160ff021916908360048111156108a1576108a061210f565b5b02179055509050506003849080600181540180825580915050600190039060005260206000200160009091909190916101000a81548173ffffffffffffffffffffffffffffffffffffffff021916908373ffffffffffffffffffffffffffffffffffffffff160217905550600061091783611c6e565b90508473ffffffffffffffffffffffffffffffffffffffff167fc2b801d81f6e22509f9eed15df60b144df9483674ff7a983aa3d2c378e7ae5f08583604051610961929190612d73565b60405180910390a25050505050565b6003818154811061098057600080fd5b906000526020600020016000915054906101000a900473ffffffffffffffffffffffffffffffffffffffff1681565b60018060048111156109c4576109c361210f565b5b600260003373ffffffffffffffffffffffffffffffffffffffff1673ffffffffffffffffffffffffffffffffffffffff16815260200190815260200160002060010160009054906101000a900460ff166004811115610a2657610a2561210f565b5b14610a66576040517f08c379a0000000000000000000000000000000000000000000000000000000008152600401610a5d90612892565b60405180910390fd5b600073ffffffffffffffffffffffffffffffffffffffff168273ffffffffffffffffffffffffffffffffffffffff1603610ad5576040517f08c379a0000000000000000000000000000000000000000000000000000000008152600401610acc90612a89565b60405180910390fd5b6000600260008473ffffffffffffffffffffffffffffffffffffffff1673ffffffffffffffffffffffffffffffffffffffff1681526020019081526020016000206000018054610b249061294d565b80601f0160208091040260200160405190810160405280929190818152602001828054610b509061294d565b8015610b9d5780601f10610b7257610100808354040283529160200191610b9d565b820191906000526020600020905b815481529060010190602001808311610b8057829003601f168201915b505050505090506000610bfe600260008673ffffffffffffffffffffffffffffffffffffffff1673ffffffffffffffffffffffffffffffffffffffff16815260200190815260200160002060010160009054906101000a900460ff16611c6e565b9050600260008573ffffffffffffffffffffffffffffffffffffffff1673ffffffffffffffffffffffffffffffffffffffff16815260200190815260200160002060008082016000610c509190611ebc565b6001820160006101000a81549060ff0219169055505060005b600380549050811015610df2578473ffffffffffffffffffffffffffffffffffffffff1660038281548110610ca157610ca0612dbd565b5b9060005260206000200160009054906101000a900473ffffffffffffffffffffffffffffffffffffffff1673ffffffffffffffffffffffffffffffffffffffff1603610ddf5760036001600380549050610cfb9190612e1b565b81548110610d0c57610d0b612dbd565b5b9060005260206000200160009054906101000a900473ffffffffffffffffffffffffffffffffffffffff1660038281548110610d4b57610d4a612dbd565b5b9060005260206000200160006101000a81548173ffffffffffffffffffffffffffffffffffffffff021916908373ffffffffffffffffffffffffffffffffffffffff1602179055506003805480610da557610da4612e4f565b5b6001900381819060005260206000200160006101000a81549073ffffffffffffffffffffffffffffffffffffffff02191690559055610df2565b8080610dea90612e7e565b915050610c69565b508373ffffffffffffffffffffffffffffffffffffffff167fc15d693267c3b1d5b865044ab75f608276dc7369a471245e8f087042c9236c088383604051610e3b929190612f12565b60405180910390a250505050565b6004602052806000526040600020600091509050806000018054610e6c9061294d565b80601f0160208091040260200160405190810160405280929190818152602001828054610e989061294d565b8015610ee55780601f10610eba57610100808354040283529160200191610ee5565b820191906000526020600020905b815481529060010190602001808311610ec857829003601f168201915b5050505050908060010160009054906101000a900460ff16905082565b610f0a611efc565b600073ffffffffffffffffffffffffffffffffffffffff168273ffffffffffffffffffffffffffffffffffffffff1603610f79576040517f08c379a0000000000000000000000000000000000000000000000000000000008152600401610f70906128fe565b60405180910390fd5b600260008373ffffffffffffffffffffffffffffffffffffffff1673ffffffffffffffffffffffffffffffffffffffff168152602001908152602001600020604051806040016040529081600082018054610fd39061294d565b80601f0160208091040260200160405190810160405280929190818152602001828054610fff9061294d565b801561104c5780601f106110215761010080835404028352916020019161104c565b820191906000526020600020905b81548152906001019060200180831161102f57829003601f168201915b505050505081526020016001820160009054906101000a900460ff16600481111561107a5761107961210f565b5b600481111561108c5761108b61210f565b5b815250509050919050565b600180546110a49061294d565b80601f01602080910402602001604051908101604052809291908181526020018280546110d09061294d565b801561111d5780601f106110f25761010080835404028352916020019161111d565b820191906000526020600020905b81548152906001019060200180831161110057829003601f168201915b505050505081565b60008054906101000a900473ffffffffffffffffffffffffffffffffffffffff1681565b60008054906101000a900473ffffffffffffffffffffffffffffffffffffffff1673ffffffffffffffffffffffffffffffffffffffff163373ffffffffffffffffffffffffffffffffffffffff16146111d7576040517f08c379a00000000000000000000000000000000000000000000000000000000081526004016111ce90612fce565b60405180910390fd5b600073ffffffffffffffffffffffffffffffffffffffff168173ffffffffffffffffffffffffffffffffffffffff1603611246576040517f08c379a000000000000000000000000000000000000000000000000000000000815260040161123d90612a89565b60405180910390fd5b806000806101000a81548173ffffffffffffffffffffffffffffffffffffffff021916908373ffffffffffffffffffffffffffffffffffffffff1602179055507ff86060286164733a3b0bae3ba4b62f85dc6020ba2ee440318bf5b6be6d0d93a833826040516112b792919061303a565b60405180910390a150565b60026020528060005260406000206000915090508060000180546112e59061294d565b80601f01602080910402602001604051908101604052809291908181526020018280546113119061294d565b801561135e5780601f106113335761010080835404028352916020019161135e565b820191906000526020600020905b81548152906001019060200180831161134157829003601f168201915b5050505050908060010160009054906101000a900460ff16905082565b60018060048111156113905761138f61210f565b5b600260003373ffffffffffffffffffffffffffffffffffffffff1673ffffffffffffffffffffffffffffffffffffffff16815260200190815260200160002060010160009054906101000a900460ff1660048111156113f2576113f161210f565b5b14611432576040517f08c379a000000000000000000000000000000000000000000000000000000000815260040161142990612892565b60405180910390fd5b60006004600086815260200190815260200160002060000180546114559061294d565b905014611497576040517f08c379a000000000000000000000000000000000000000000000000000000000815260040161148e906130c2565b60405180910390fd5b60006005846040516114a99190612a26565b908152602001604051809103902054146114f8576040517f08c379a00000000000000000000000000000000000000000000000000000000081526004016114ef9061312e565b60405180910390fd5b604051806040016040528084815260200183600481111561151c5761151b61210f565b5b8152506004600086815260200190815260200160002060008201518160000190816115479190612c55565b5060208201518160010160006101000a81548160ff021916908360048111156115735761157261210f565b5b02179055509050508360058460405161158c9190612a26565b908152602001604051809103902081905550600660008360048111156115b5576115b461210f565b5b60048111156115c7576115c661210f565b5b81526020019081526020016000208490806001815401808255809150506001900390600052602060002001600090919091909150557f1b13b2e6e7d75cf356e012ed8fb81d10647941596af1f62bb4a6e267f7db605d84848460405161162f9392919061319a565b60405180910390a150505050565b60018060048111156116525761165161210f565b5b600260003373ffffffffffffffffffffffffffffffffffffffff1673ffffffffffffffffffffffffffffffffffffffff16815260200190815260200160002060010160009054906101000a900460ff1660048111156116b4576116b361210f565b5b146116f4576040517f08c379a00000000000000000000000000000000000000000000000000000000081526004016116eb90612892565b60405180910390fd5b60006004600084815260200190815260200160002060000180546117179061294d565b905003611759576040517f08c379a0000000000000000000000000000000000000000000000000000000008152600401611750906129ca565b60405180910390fd5b600060046000848152602001908152602001600020600001805461177c9061294d565b80601f01602080910402602001604051908101604052809291908181526020018280546117a89061294d565b80156117f55780601f106117ca576101008083540402835291602001916117f5565b820191906000526020600020905b8154815290600101906020018083116117d857829003601f168201915b5050505050905060006004600085815260200190815260200160002060010160009054906101000a900460ff16905060046000858152602001908152602001600020600080820160006118489190611ebc565b6001820160006101000a81549060ff0219169055505060058260405161186e9190612a26565b9081526020016040518091039020600090556000600660008360048111156118995761189861210f565b5b60048111156118ab576118aa61210f565b5b8152602001908152602001600020905060005b818054905081101561197c57858282815481106118de576118dd612dbd565b5b9060005260206000200154036119695781600183805490506119009190612e1b565b8154811061191157611910612dbd565b5b906000526020600020015482828154811061192f5761192e612dbd565b5b90600052602060002001819055508180548061194e5761194d612e4f565b5b6001900381819060005260206000200160009055905561197c565b808061197490612e7e565b9150506118be565b507f30799cf041cfd96e1cc339abd723266998268fa616dc26e8fbf976739e8c21d985846004600089815260200190815260200160002060010160009054906101000a900460ff166040516119d393929190613237565b60405180910390a15050505050565b6060600060038054905067ffffffffffffffff811115611a0557611a046121c0565b5b604051908082528060200260200182016040528015611a3e57816020015b611a2b611efc565b815260200190600190039081611a235790505b50905060005b600380549050811015611bd7576002600060038381548110611a6957611a68612dbd565b5b9060005260206000200160009054906101000a900473ffffffffffffffffffffffffffffffffffffffff1673ffffffffffffffffffffffffffffffffffffffff1673ffffffffffffffffffffffffffffffffffffffff168152602001908152602001600020604051806040016040529081600082018054611ae99061294d565b80601f0160208091040260200160405190810160405280929190818152602001828054611b159061294d565b8015611b625780601f10611b3757610100808354040283529160200191611b62565b820191906000526020600020905b815481529060010190602001808311611b4557829003601f168201915b505050505081526020016001820160009054906101000a900460ff166004811115611b9057611b8f61210f565b5b6004811115611ba257611ba161210f565b5b81525050828281518110611bb957611bb8612dbd565b5b60200260200101819052508080611bcf90612e7e565b915050611a44565b508091505090565b606060066000836004811115611bf857611bf761210f565b5b6004811115611c0a57611c0961210f565b5b8152602001908152602001600020805480602002602001604051908101604052809291908181526020018280548015611c6257602002820191906000526020600020905b815481526020019060010190808311611c4e575b50505050509050919050565b606060006004811115611c8457611c8361210f565b5b826004811115611c9757611c9661210f565b5b03611cd9576040518060400160405280600481526020017f4e6f6e65000000000000000000000000000000000000000000000000000000008152509050611eb7565b60016004811115611ced57611cec61210f565b5b826004811115611d0057611cff61210f565b5b03611d42576040518060400160405280600581526020017f41646d696e0000000000000000000000000000000000000000000000000000008152509050611eb7565b60026004811115611d5657611d5561210f565b5b826004811115611d6957611d6861210f565b5b03611dab576040518060400160405280600881526020017f537570706c6965720000000000000000000000000000000000000000000000008152509050611eb7565b60036004811115611dbf57611dbe61210f565b5b826004811115611dd257611dd161210f565b5b03611e14576040518060400160405280601481526020017f446973747269627574696f6e456d706c6f7965650000000000000000000000008152509050611eb7565b600480811115611e2757611e2661210f565b5b826004811115611e3a57611e3961210f565b5b03611e7c576040518060400160405280600781526020017f41756469746f72000000000000000000000000000000000000000000000000008152509050611eb7565b6040517f08c379a0000000000000000000000000000000000000000000000000000000008152600401611eae906132d4565b60405180910390fd5b919050565b508054611ec89061294d565b6000825580601f10611eda5750611ef9565b601f016020900490600052602060002090810190611ef89190611f28565b5b50565b60405180604001604052806060815260200160006004811115611f2257611f2161210f565b5b81525090565b5b80821115611f41576000816000905550600101611f29565b5090565b6000604051905090565b600080fd5b600080fd5b600073ffffffffffffffffffffffffffffffffffffffff82169050919050565b6000611f8482611f59565b9050919050565b611f9481611f79565b8114611f9f57600080fd5b50565b600081359050611fb181611f8b565b92915050565b60058110611fc457600080fd5b50565b600081359050611fd681611fb7565b92915050565b60008060408385031215611ff357611ff2611f4f565b5b600061200185828601611fa2565b925050602061201285828601611fc7565b9150509250929050565b6000819050919050565b61202f8161201c565b811461203a57600080fd5b50565b60008135905061204c81612026565b92915050565b60006020828403121561206857612067611f4f565b5b60006120768482850161203d565b91505092915050565b600081519050919050565b600082825260208201905092915050565b60005b838110156120b957808201518184015260208101905061209e565b60008484015250505050565b6000601f19601f8301169050919050565b60006120e18261207f565b6120eb818561208a565b93506120fb81856020860161209b565b612104816120c5565b840191505092915050565b7f4e487b7100000000000000000000000000000000000000000000000000000000600052602160045260246000fd5b6005811061214f5761214e61210f565b5b50565b60008190506121608261213e565b919050565b600061217082612152565b9050919050565b61218081612165565b82525050565b600060408201905081810360008301526121a081856120d6565b90506121af6020830184612177565b9392505050565b600080fd5b600080fd5b7f4e487b7100000000000000000000000000000000000000000000000000000000600052604160045260246000fd5b6121f8826120c5565b810181811067ffffffffffffffff82111715612217576122166121c0565b5b80604052505050565b600061222a611f45565b905061223682826121ef565b919050565b600067ffffffffffffffff821115612256576122556121c0565b5b61225f826120c5565b9050602081019050919050565b82818337600083830152505050565b600061228e6122898461223b565b612220565b9050828152602081018484840111156122aa576122a96121bb565b5b6122b584828561226c565b509392505050565b600082601f8301126122d2576122d16121b6565b5b81356122e284826020860161227b565b91505092915050565b60006020828403121561230157612300611f4f565b5b600082013567ffffffffffffffff81111561231f5761231e611f54565b5b61232b848285016122bd565b91505092915050565b61233d8161201c565b82525050565b60006040820190506123586000830185612334565b6123656020830184612177565b9392505050565b60008060006060848603121561238557612384611f4f565b5b600061239386828701611fa2565b935050602084013567ffffffffffffffff8111156123b4576123b3611f54565b5b6123c0868287016122bd565b92505060406123d186828701611fc7565b9150509250925092565b6123e481611f79565b82525050565b60006020820190506123ff60008301846123db565b92915050565b60006020828403121561241b5761241a611f4f565b5b600061242984828501611fa2565b91505092915050565b600082825260208201905092915050565b600061244e8261207f565b6124588185612432565b935061246881856020860161209b565b612471816120c5565b840191505092915050565b6005811061248d5761248c61210f565b5b50565b600081905061249e8261247c565b919050565b60006124ae82612490565b9050919050565b6124be816124a3565b82525050565b600060408301600083015184820360008601526124e18282612443565b91505060208301516124f660208601826124b5565b508091505092915050565b6000602082019050818103600083015261251b81846124c4565b905092915050565b6000602082019050818103600083015261253d81846120d6565b905092915050565b61254e816124a3565b82525050565b6000604082019050818103600083015261256e81856120d6565b905061257d6020830184612545565b9392505050565b6005811061259157600080fd5b50565b6000813590506125a381612584565b92915050565b6000806000606084860312156125c2576125c1611f4f565b5b60006125d08682870161203d565b935050602084013567ffffffffffffffff8111156125f1576125f0611f54565b5b6125fd868287016122bd565b925050604061260e86828701612594565b9150509250925092565b600081519050919050565b600082825260208201905092915050565b6000819050602082019050919050565b600060408301600083015184820360008601526126618282612443565b915050602083015161267660208601826124b5565b508091505092915050565b600061268d8383612644565b905092915050565b6000602082019050919050565b60006126ad82612618565b6126b78185612623565b9350836020820285016126c985612634565b8060005b8581101561270557848403895281516126e68582612681565b94506126f183612695565b925060208a019950506001810190506126cd565b50829750879550505050505092915050565b6000602082019050818103600083015261273181846126a2565b905092915050565b60006020828403121561274f5761274e611f4f565b5b600061275d84828501612594565b91505092915050565b600081519050919050565b600082825260208201905092915050565b6000819050602082019050919050565b61279b8161201c565b82525050565b60006127ad8383612792565b60208301905092915050565b6000602082019050919050565b60006127d182612766565b6127db8185612771565b93506127e683612782565b8060005b838110156128175781516127fe88826127a1565b9750612809836127b9565b9250506001810190506127ea565b5085935050505092915050565b6000602082019050818103600083015261283e81846127c6565b905092915050565b7f4163636573732064656e6965643a20696e636f727265637420726f6c65000000600082015250565b600061287c601d8361208a565b915061288782612846565b602082019050919050565b600060208201905081810360008301526128ab8161286f565b9050919050565b7f496e76616c696420616464726573730000000000000000000000000000000000600082015250565b60006128e8600f8361208a565b91506128f3826128b2565b602082019050919050565b60006020820190508181036000830152612917816128db565b9050919050565b7f4e487b7100000000000000000000000000000000000000000000000000000000600052602260045260246000fd5b6000600282049050600182168061296557607f821691505b6020821081036129785761297761291e565b5b50919050565b7f456e7469747920646f6573206e6f742065786973740000000000000000000000600082015250565b60006129b460158361208a565b91506129bf8261297e565b602082019050919050565b600060208201905081810360008301526129e3816129a7565b9050919050565b600081905092915050565b6000612a008261207f565b612a0a81856129ea565b9350612a1a81856020860161209b565b80840191505092915050565b6000612a3282846129f5565b915081905092915050565b7f496e76616c696420616464726573732100000000000000000000000000000000600082015250565b6000612a7360108361208a565b9150612a7e82612a3d565b602082019050919050565b60006020820190508181036000830152612aa281612a66565b9050919050565b60008190508160005260206000209050919050565b60006020601f8301049050919050565b600082821b905092915050565b600060088302612b0b7fffffffffffffffffffffffffffffffffffffffffffffffffffffffffffffffff82612ace565b612b158683612ace565b95508019841693508086168417925050509392505050565b6000819050919050565b6000612b52612b4d612b488461201c565b612b2d565b61201c565b9050919050565b6000819050919050565b612b6c83612b37565b612b80612b7882612b59565b848454612adb565b825550505050565b600090565b612b95612b88565b612ba0818484612b63565b505050565b5b81811015612bc457612bb9600082612b8d565b600181019050612ba6565b5050565b601f821115612c0957612bda81612aa9565b612be384612abe565b81016020851015612bf2578190505b612c06612bfe85612abe565b830182612ba5565b50505b505050565b600082821c905092915050565b6000612c2c60001984600802612c0e565b1980831691505092915050565b6000612c458383612c1b565b9150826002028217905092915050565b612c5e8261207f565b67ffffffffffffffff811115612c7757612c766121c0565b5b612c81825461294d565b612c8c828285612bc8565b600060209050601f831160018114612cbf5760008415612cad578287015190505b612cb78582612c39565b865550612d1f565b601f198416612ccd86612aa9565b60005b82811015612cf557848901518255600182019150602085019450602081019050612cd0565b86831015612d125784890151612d0e601f891682612c1b565b8355505b6001600288020188555050505b505050505050565b7f55736572206164646564207375636365737366756c6c79210000000000000000600082015250565b6000612d5d60188361208a565b9150612d6882612d27565b602082019050919050565b60006060820190508181036000830152612d8c81612d50565b90508181036020830152612da081856120d6565b90508181036040830152612db481846120d6565b90509392505050565b7f4e487b7100000000000000000000000000000000000000000000000000000000600052603260045260246000fd5b7f4e487b7100000000000000000000000000000000000000000000000000000000600052601160045260246000fd5b6000612e268261201c565b9150612e318361201c565b9250828203905081811115612e4957612e48612dec565b5b92915050565b7f4e487b7100000000000000000000000000000000000000000000000000000000600052603160045260246000fd5b6000612e898261201c565b91507fffffffffffffffffffffffffffffffffffffffffffffffffffffffffffffffff8203612ebb57612eba612dec565b5b600182019050919050565b7f557365722064656c65746564207375636365737366756c6c7921000000000000600082015250565b6000612efc601a8361208a565b9150612f0782612ec6565b602082019050919050565b60006060820190508181036000830152612f2b81612eef565b90508181036020830152612f3f81856120d6565b90508181036040830152612f5381846120d6565b90509392505050565b7f4f6e6c7920636f6e7472616374206f776e65722063616e2063616c6c2074686960008201527f732066756e6374696f6e00000000000000000000000000000000000000000000602082015250565b6000612fb8602a8361208a565b9150612fc382612f5c565b604082019050919050565b60006020820190508181036000830152612fe781612fab565b9050919050565b7f4f776e6572206368616e676564207375636365737366756c6c79210000000000600082015250565b6000613024601b8361208a565b915061302f82612fee565b602082019050919050565b6000606082019050818103600083015261305381613017565b905061306260208301856123db565b61306f60408301846123db565b9392505050565b7f456e7469747920494420616c7265616479206578697374730000000000000000600082015250565b60006130ac60188361208a565b91506130b782613076565b602082019050919050565b600060208201905081810360008301526130db8161309f565b9050919050565b7f456e74697479206e616d6520616c726561647920657869737473000000000000600082015250565b6000613118601a8361208a565b9150613123826130e2565b602082019050919050565b600060208201905081810360008301526131478161310b565b9050919050565b7f4e657720656e7469747920616464656421000000000000000000000000000000600082015250565b600061318460118361208a565b915061318f8261314e565b602082019050919050565b600060808201905081810360008301526131b381613177565b90506131c26020830186612334565b81810360408301526131d481856120d6565b90506131e36060830184612177565b949350505050565b7f456e746974792064656c65746564207375636365737366756c6c792100000000600082015250565b6000613221601c8361208a565b915061322c826131eb565b602082019050919050565b6000608082019050818103600083015261325081613214565b905061325f6020830186612334565b818103604083015261327181856120d6565b90506132806060830184612177565b949350505050565b7f496e76616c696420526f6c650000000000000000000000000000000000000000600082015250565b60006132be600c8361208a565b91506132c982613288565b602082019050919050565b600060208201905081810360008301526132ed816132b1565b905091905056fea264697066735822122028cfce4792ed9b348a373649464fc5cefac1d6e233ec924fed32fd76a989c56764736f6c63430008130033",
					"opcodes": "PUSH1 0x80 PUSH1 0x40 MSTORE PUSH1 0x40 MLOAD DUP1 PUSH1 0x40 ADD PUSH1 0x40 MSTORE DUP1 PUSH1 0x8 DUP2 MSTORE PUSH1 0x20 ADD PUSH32 0x4D4754205445414D000000000000000000000000000000000000000000000000 DUP2 MSTORE POP PUSH1 0x1 SWAP1 DUP2 PUSH3 0x4A SWAP2 SWAP1 PUSH3 0x507 JUMP JUMPDEST POP CALLVALUE DUP1 ISZERO PUSH3 0x58 JUMPI PUSH1 0x0 DUP1 REVERT JUMPDEST POP CALLER PUSH1 0x0 DUP1 PUSH2 0x100 EXP DUP2 SLOAD DUP2 PUSH20 0xFFFFFFFFFFFFFFFFFFFFFFFFFFFFFFFFFFFFFFFF MUL NOT AND SWAP1 DUP4 PUSH20 0xFFFFFFFFFFFFFFFFFFFFFFFFFFFFFFFFFFFFFFFF AND MUL OR SWAP1 SSTORE POP PUSH1 0x40 MLOAD DUP1 PUSH1 0x40 ADD PUSH1 0x40 MSTORE DUP1 PUSH1 0x1 DUP1 SLOAD PUSH3 0xB3 SWAP1 PUSH3 0x2F6 JUMP JUMPDEST DUP1 PUSH1 0x1F ADD PUSH1 0x20 DUP1 SWAP2 DIV MUL PUSH1 0x20 ADD PUSH1 0x40 MLOAD SWAP1 DUP2 ADD PUSH1 0x40 MSTORE DUP1 SWAP3 SWAP2 SWAP1 DUP2 DUP2 MSTORE PUSH1 0x20 ADD DUP3 DUP1 SLOAD PUSH3 0xE1 SWAP1 PUSH3 0x2F6 JUMP JUMPDEST DUP1 ISZERO PUSH3 0x132 JUMPI DUP1 PUSH1 0x1F LT PUSH3 0x106 JUMPI PUSH2 0x100 DUP1 DUP4 SLOAD DIV MUL DUP4 MSTORE SWAP2 PUSH1 0x20 ADD SWAP2 PUSH3 0x132 JUMP JUMPDEST DUP3 ADD SWAP2 SWAP1 PUSH1 0x0 MSTORE PUSH1 0x20 PUSH1 0x0 KECCAK256 SWAP1 JUMPDEST DUP2 SLOAD DUP2 MSTORE SWAP1 PUSH1 0x1 ADD SWAP1 PUSH1 0x20 ADD DUP1 DUP4 GT PUSH3 0x114 JUMPI DUP3 SWAP1 SUB PUSH1 0x1F AND DUP3 ADD SWAP2 JUMPDEST POP POP POP POP POP DUP2 MSTORE PUSH1 0x20 ADD PUSH1 0x1 PUSH1 0x4 DUP2 GT ISZERO PUSH3 0x153 JUMPI PUSH3 0x152 PUSH3 0x5EE JUMP JUMPDEST JUMPDEST DUP2 MSTORE POP PUSH1 0x2 PUSH1 0x0 DUP1 PUSH1 0x0 SWAP1 SLOAD SWAP1 PUSH2 0x100 EXP SWAP1 DIV PUSH20 0xFFFFFFFFFFFFFFFFFFFFFFFFFFFFFFFFFFFFFFFF AND PUSH20 0xFFFFFFFFFFFFFFFFFFFFFFFFFFFFFFFFFFFFFFFF AND PUSH20 0xFFFFFFFFFFFFFFFFFFFFFFFFFFFFFFFFFFFFFFFF AND DUP2 MSTORE PUSH1 0x20 ADD SWAP1 DUP2 MSTORE PUSH1 0x20 ADD PUSH1 0x0 KECCAK256 PUSH1 0x0 DUP3 ADD MLOAD DUP2 PUSH1 0x0 ADD SWAP1 DUP2 PUSH3 0x1CD SWAP2 SWAP1 PUSH3 0x507 JUMP JUMPDEST POP PUSH1 0x20 DUP3 ADD MLOAD DUP2 PUSH1 0x1 ADD PUSH1 0x0 PUSH2 0x100 EXP DUP2 SLOAD DUP2 PUSH1 0xFF MUL NOT AND SWAP1 DUP4 PUSH1 0x4 DUP2 GT ISZERO PUSH3 0x1FC JUMPI PUSH3 0x1FB PUSH3 0x5EE JUMP JUMPDEST JUMPDEST MUL OR SWAP1 SSTORE POP SWAP1 POP POP PUSH1 0x3 PUSH1 0x0 DUP1 SLOAD SWAP1 PUSH2 0x100 EXP SWAP1 DIV PUSH20 0xFFFFFFFFFFFFFFFFFFFFFFFFFFFFFFFFFFFFFFFF AND SWAP1 DUP1 PUSH1 0x1 DUP2 SLOAD ADD DUP1 DUP3 SSTORE DUP1 SWAP2 POP POP PUSH1 0x1 SWAP1 SUB SWAP1 PUSH1 0x0 MSTORE PUSH1 0x20 PUSH1 0x0 KECCAK256 ADD PUSH1 0x0 SWAP1 SWAP2 SWAP1 SWAP2 SWAP1 SWAP2 PUSH2 0x100 EXP DUP2 SLOAD DUP2 PUSH20 0xFFFFFFFFFFFFFFFFFFFFFFFFFFFFFFFFFFFFFFFF MUL NOT AND SWAP1 DUP4 PUSH20 0xFFFFFFFFFFFFFFFFFFFFFFFFFFFFFFFFFFFFFFFF AND MUL OR SWAP1 SSTORE POP PUSH3 0x61D JUMP JUMPDEST PUSH1 0x0 DUP2 MLOAD SWAP1 POP SWAP2 SWAP1 POP JUMP JUMPDEST PUSH32 0x4E487B7100000000000000000000000000000000000000000000000000000000 PUSH1 0x0 MSTORE PUSH1 0x41 PUSH1 0x4 MSTORE PUSH1 0x24 PUSH1 0x0 REVERT JUMPDEST PUSH32 0x4E487B7100000000000000000000000000000000000000000000000000000000 PUSH1 0x0 MSTORE PUSH1 0x22 PUSH1 0x4 MSTORE PUSH1 0x24 PUSH1 0x0 REVERT JUMPDEST PUSH1 0x0 PUSH1 0x2 DUP3 DIV SWAP1 POP PUSH1 0x1 DUP3 AND DUP1 PUSH3 0x30F JUMPI PUSH1 0x7F DUP3 AND SWAP2 POP JUMPDEST PUSH1 0x20 DUP3 LT DUP2 SUB PUSH3 0x325 JUMPI PUSH3 0x324 PUSH3 0x2C7 JUMP JUMPDEST JUMPDEST POP SWAP2 SWAP1 POP JUMP JUMPDEST PUSH1 0x0 DUP2 SWAP1 POP DUP2 PUSH1 0x0 MSTORE PUSH1 0x20 PUSH1 0x0 KECCAK256 SWAP1 POP SWAP2 SWAP1 POP JUMP JUMPDEST PUSH1 0x0 PUSH1 0x20 PUSH1 0x1F DUP4 ADD DIV SWAP1 POP SWAP2 SWAP1 POP JUMP JUMPDEST PUSH1 0x0 DUP3 DUP3 SHL SWAP1 POP SWAP3 SWAP2 POP POP JUMP JUMPDEST PUSH1 0x0 PUSH1 0x8 DUP4 MUL PUSH3 0x38F PUSH32 0xFFFFFFFFFFFFFFFFFFFFFFFFFFFFFFFFFFFFFFFFFFFFFFFFFFFFFFFFFFFFFFFF DUP3 PUSH3 0x350 JUMP JUMPDEST PUSH3 0x39B DUP7 DUP4 PUSH3 0x350 JUMP JUMPDEST SWAP6 POP DUP1 NOT DUP5 AND SWAP4 POP DUP1 DUP7 AND DUP5 OR SWAP3 POP POP POP SWAP4 SWAP3 POP POP POP JUMP JUMPDEST PUSH1 0x0 DUP2 SWAP1 POP SWAP2 SWAP1 POP JUMP JUMPDEST PUSH1 0x0 DUP2 SWAP1 POP SWAP2 SWAP1 POP JUMP JUMPDEST PUSH1 0x0 PUSH3 0x3E8 PUSH3 0x3E2 PUSH3 0x3DC DUP5 PUSH3 0x3B3 JUMP JUMPDEST PUSH3 0x3BD JUMP JUMPDEST PUSH3 0x3B3 JUMP JUMPDEST SWAP1 POP SWAP2 SWAP1 POP JUMP JUMPDEST PUSH1 0x0 DUP2 SWAP1 POP SWAP2 SWAP1 POP JUMP JUMPDEST PUSH3 0x404 DUP4 PUSH3 0x3C7 JUMP JUMPDEST PUSH3 0x41C PUSH3 0x413 DUP3 PUSH3 0x3EF JUMP JUMPDEST DUP5 DUP5 SLOAD PUSH3 0x35D JUMP JUMPDEST DUP3 SSTORE POP POP POP POP JUMP JUMPDEST PUSH1 0x0 SWAP1 JUMP JUMPDEST PUSH3 0x433 PUSH3 0x424 JUMP JUMPDEST PUSH3 0x440 DUP2 DUP5 DUP5 PUSH3 0x3F9 JUMP JUMPDEST POP POP POP JUMP JUMPDEST JUMPDEST DUP2 DUP2 LT ISZERO PUSH3 0x468 JUMPI PUSH3 0x45C PUSH1 0x0 DUP3 PUSH3 0x429 JUMP JUMPDEST PUSH1 0x1 DUP2 ADD SWAP1 POP PUSH3 0x446 JUMP JUMPDEST POP POP JUMP JUMPDEST PUSH1 0x1F DUP3 GT ISZERO PUSH3 0x4B7 JUMPI PUSH3 0x481 DUP2 PUSH3 0x32B JUMP JUMPDEST PUSH3 0x48C DUP5 PUSH3 0x340 JUMP JUMPDEST DUP2 ADD PUSH1 0x20 DUP6 LT ISZERO PUSH3 0x49C JUMPI DUP2 SWAP1 POP JUMPDEST PUSH3 0x4B4 PUSH3 0x4AB DUP6 PUSH3 0x340 JUMP JUMPDEST DUP4 ADD DUP3 PUSH3 0x445 JUMP JUMPDEST POP POP JUMPDEST POP POP POP JUMP JUMPDEST PUSH1 0x0 DUP3 DUP3 SHR SWAP1 POP SWAP3 SWAP2 POP POP JUMP JUMPDEST PUSH1 0x0 PUSH3 0x4DC PUSH1 0x0 NOT DUP5 PUSH1 0x8 MUL PUSH3 0x4BC JUMP JUMPDEST NOT DUP1 DUP4 AND SWAP2 POP POP SWAP3 SWAP2 POP POP JUMP JUMPDEST PUSH1 0x0 PUSH3 0x4F7 DUP4 DUP4 PUSH3 0x4C9 JUMP JUMPDEST SWAP2 POP DUP3 PUSH1 0x2 MUL DUP3 OR SWAP1 POP SWAP3 SWAP2 POP POP JUMP JUMPDEST PUSH3 0x512 DUP3 PUSH3 0x28D JUMP JUMPDEST PUSH8 0xFFFFFFFFFFFFFFFF DUP2 GT ISZERO PUSH3 0x52E JUMPI PUSH3 0x52D PUSH3 0x298 JUMP JUMPDEST JUMPDEST PUSH3 0x53A DUP3 SLOAD PUSH3 0x2F6 JUMP JUMPDEST PUSH3 0x547 DUP3 DUP3 DUP6 PUSH3 0x46C JUMP JUMPDEST PUSH1 0x0 PUSH1 0x20 SWAP1 POP PUSH1 0x1F DUP4 GT PUSH1 0x1 DUP2 EQ PUSH3 0x57F JUMPI PUSH1 0x0 DUP5 ISZERO PUSH3 0x56A JUMPI DUP3 DUP8 ADD MLOAD SWAP1 POP JUMPDEST PUSH3 0x576 DUP6 DUP3 PUSH3 0x4E9 JUMP JUMPDEST DUP7 SSTORE POP PUSH3 0x5E6 JUMP JUMPDEST PUSH1 0x1F NOT DUP5 AND PUSH3 0x58F DUP7 PUSH3 0x32B JUMP JUMPDEST PUSH1 0x0 JUMPDEST DUP3 DUP2 LT ISZERO PUSH3 0x5B9 JUMPI DUP5 DUP10 ADD MLOAD DUP3 SSTORE PUSH1 0x1 DUP3 ADD SWAP2 POP PUSH1 0x20 DUP6 ADD SWAP5 POP PUSH1 0x20 DUP2 ADD SWAP1 POP PUSH3 0x592 JUMP JUMPDEST DUP7 DUP4 LT ISZERO PUSH3 0x5D9 JUMPI DUP5 DUP10 ADD MLOAD PUSH3 0x5D5 PUSH1 0x1F DUP10 AND DUP3 PUSH3 0x4C9 JUMP JUMPDEST DUP4 SSTORE POP JUMPDEST PUSH1 0x1 PUSH1 0x2 DUP9 MUL ADD DUP9 SSTORE POP POP POP JUMPDEST POP POP POP POP POP POP JUMP JUMPDEST PUSH32 0x4E487B7100000000000000000000000000000000000000000000000000000000 PUSH1 0x0 MSTORE PUSH1 0x21 PUSH1 0x4 MSTORE PUSH1 0x24 PUSH1 0x0 REVERT JUMPDEST PUSH2 0x332A DUP1 PUSH3 0x62D PUSH1 0x0 CODECOPY PUSH1 0x0 RETURN INVALID PUSH1 0x80 PUSH1 0x40 MSTORE CALLVALUE DUP1 ISZERO PUSH2 0x10 JUMPI PUSH1 0x0 DUP1 REVERT JUMPDEST POP PUSH1 0x4 CALLDATASIZE LT PUSH2 0x100 JUMPI PUSH1 0x0 CALLDATALOAD PUSH1 0xE0 SHR DUP1 PUSH4 0x734E1AC3 GT PUSH2 0x97 JUMPI DUP1 PUSH4 0xC6FBAE04 GT PUSH2 0x66 JUMPI DUP1 PUSH4 0xC6FBAE04 EQ PUSH2 0x2D5 JUMPI DUP1 PUSH4 0xCB9E2755 EQ PUSH2 0x2F1 JUMPI DUP1 PUSH4 0xE2842D79 EQ PUSH2 0x30D JUMPI DUP1 PUSH4 0xF61AF8AB EQ PUSH2 0x32B JUMPI PUSH2 0x100 JUMP JUMPDEST DUP1 PUSH4 0x734E1AC3 EQ PUSH2 0x24C JUMPI DUP1 PUSH4 0x8DA5CB5B EQ PUSH2 0x26A JUMPI DUP1 PUSH4 0xA6F9DAE1 EQ PUSH2 0x288 JUMPI DUP1 PUSH4 0xA87430BA EQ PUSH2 0x2A4 JUMPI PUSH2 0x100 JUMP JUMPDEST DUP1 PUSH4 0x502C9BD5 GT PUSH2 0xD3 JUMPI DUP1 PUSH4 0x502C9BD5 EQ PUSH2 0x19F JUMPI DUP1 PUSH4 0x5C60F226 EQ PUSH2 0x1CF JUMPI DUP1 PUSH4 0x6331883B EQ PUSH2 0x1EB JUMPI DUP1 PUSH4 0x69C212F6 EQ PUSH2 0x21C JUMPI PUSH2 0x100 JUMP JUMPDEST DUP1 PUSH4 0x3A69611 EQ PUSH2 0x105 JUMPI DUP1 PUSH4 0x32C227A9 EQ PUSH2 0x121 JUMPI DUP1 PUSH4 0x3E88A4E2 EQ PUSH2 0x152 JUMPI DUP1 PUSH4 0x40D26854 EQ PUSH2 0x183 JUMPI JUMPDEST PUSH1 0x0 DUP1 REVERT JUMPDEST PUSH2 0x11F PUSH1 0x4 DUP1 CALLDATASIZE SUB DUP2 ADD SWAP1 PUSH2 0x11A SWAP2 SWAP1 PUSH2 0x1FDC JUMP JUMPDEST PUSH2 0x35B JUMP JUMPDEST STOP JUMPDEST PUSH2 0x13B PUSH1 0x4 DUP1 CALLDATASIZE SUB DUP2 ADD SWAP1 PUSH2 0x136 SWAP2 SWAP1 PUSH2 0x2052 JUMP JUMPDEST PUSH2 0x4F0 JUMP JUMPDEST PUSH1 0x40 MLOAD PUSH2 0x149 SWAP3 SWAP2 SWAP1 PUSH2 0x2186 JUMP JUMPDEST PUSH1 0x40 MLOAD DUP1 SWAP2 SUB SWAP1 RETURN JUMPDEST PUSH2 0x16C PUSH1 0x4 DUP1 CALLDATASIZE SUB DUP2 ADD SWAP1 PUSH2 0x167 SWAP2 SWAP1 PUSH2 0x22EB JUMP JUMPDEST PUSH2 0x61B JUMP JUMPDEST PUSH1 0x40 MLOAD PUSH2 0x17A SWAP3 SWAP2 SWAP1 PUSH2 0x2343 JUMP JUMPDEST PUSH1 0x40 MLOAD DUP1 SWAP2 SUB SWAP1 RETURN JUMPDEST PUSH2 0x19D PUSH1 0x4 DUP1 CALLDATASIZE SUB DUP2 ADD SWAP1 PUSH2 0x198 SWAP2 SWAP1 PUSH2 0x236C JUMP JUMPDEST PUSH2 0x6D4 JUMP JUMPDEST STOP JUMPDEST PUSH2 0x1B9 PUSH1 0x4 DUP1 CALLDATASIZE SUB DUP2 ADD SWAP1 PUSH2 0x1B4 SWAP2 SWAP1 PUSH2 0x2052 JUMP JUMPDEST PUSH2 0x970 JUMP JUMPDEST PUSH1 0x40 MLOAD PUSH2 0x1C6 SWAP2 SWAP1 PUSH2 0x23EA JUMP JUMPDEST PUSH1 0x40 MLOAD DUP1 SWAP2 SUB SWAP1 RETURN JUMPDEST PUSH2 0x1E9 PUSH1 0x4 DUP1 CALLDATASIZE SUB DUP2 ADD SWAP1 PUSH2 0x1E4 SWAP2 SWAP1 PUSH2 0x2405 JUMP JUMPDEST PUSH2 0x9AF JUMP JUMPDEST STOP JUMPDEST PUSH2 0x205 PUSH1 0x4 DUP1 CALLDATASIZE SUB DUP2 ADD SWAP1 PUSH2 0x200 SWAP2 SWAP1 PUSH2 0x2052 JUMP JUMPDEST PUSH2 0xE49 JUMP JUMPDEST PUSH1 0x40 MLOAD PUSH2 0x213 SWAP3 SWAP2 SWAP1 PUSH2 0x2186 JUMP JUMPDEST PUSH1 0x40 MLOAD DUP1 SWAP2 SUB SWAP1 RETURN JUMPDEST PUSH2 0x236 PUSH1 0x4 DUP1 CALLDATASIZE SUB DUP2 ADD SWAP1 PUSH2 0x231 SWAP2 SWAP1 PUSH2 0x2405 JUMP JUMPDEST PUSH2 0xF02 JUMP JUMPDEST PUSH1 0x40 MLOAD PUSH2 0x243 SWAP2 SWAP1 PUSH2 0x2501 JUMP JUMPDEST PUSH1 0x40 MLOAD DUP1 SWAP2 SUB SWAP1 RETURN JUMPDEST PUSH2 0x254 PUSH2 0x1097 JUMP JUMPDEST PUSH1 0x40 MLOAD PUSH2 0x261 SWAP2 SWAP1 PUSH2 0x2523 JUMP JUMPDEST PUSH1 0x40 MLOAD DUP1 SWAP2 SUB SWAP1 RETURN JUMPDEST PUSH2 0x272 PUSH2 0x1125 JUMP JUMPDEST PUSH1 0x40 MLOAD PUSH2 0x27F SWAP2 SWAP1 PUSH2 0x23EA JUMP JUMPDEST PUSH1 0x40 MLOAD DUP1 SWAP2 SUB SWAP1 RETURN JUMPDEST PUSH2 0x2A2 PUSH1 0x4 DUP1 CALLDATASIZE SUB DUP2 ADD SWAP1 PUSH2 0x29D SWAP2 SWAP1 PUSH2 0x2405 JUMP JUMPDEST PUSH2 0x1149 JUMP JUMPDEST STOP JUMPDEST PUSH2 0x2BE PUSH1 0x4 DUP1 CALLDATASIZE SUB DUP2 ADD SWAP1 PUSH2 0x2B9 SWAP2 SWAP1 PUSH2 0x2405 JUMP JUMPDEST PUSH2 0x12C2 JUMP JUMPDEST PUSH1 0x40 MLOAD PUSH2 0x2CC SWAP3 SWAP2 SWAP1 PUSH2 0x2554 JUMP JUMPDEST PUSH1 0x40 MLOAD DUP1 SWAP2 SUB SWAP1 RETURN JUMPDEST PUSH2 0x2EF PUSH1 0x4 DUP1 CALLDATASIZE SUB DUP2 ADD SWAP1 PUSH2 0x2EA SWAP2 SWAP1 PUSH2 0x25A9 JUMP JUMPDEST PUSH2 0x137B JUMP JUMPDEST STOP JUMPDEST PUSH2 0x30B PUSH1 0x4 DUP1 CALLDATASIZE SUB DUP2 ADD SWAP1 PUSH2 0x306 SWAP2 SWAP1 PUSH2 0x2052 JUMP JUMPDEST PUSH2 0x163D JUMP JUMPDEST STOP JUMPDEST PUSH2 0x315 PUSH2 0x19E2 JUMP JUMPDEST PUSH1 0x40 MLOAD PUSH2 0x322 SWAP2 SWAP1 PUSH2 0x2717 JUMP JUMPDEST PUSH1 0x40 MLOAD DUP1 SWAP2 SUB SWAP1 RETURN JUMPDEST PUSH2 0x345 PUSH1 0x4 DUP1 CALLDATASIZE SUB DUP2 ADD SWAP1 PUSH2 0x340 SWAP2 SWAP1 PUSH2 0x2739 JUMP JUMPDEST PUSH2 0x1BDF JUMP JUMPDEST PUSH1 0x40 MLOAD PUSH2 0x352 SWAP2 SWAP1 PUSH2 0x2824 JUMP JUMPDEST PUSH1 0x40 MLOAD DUP1 SWAP2 SUB SWAP1 RETURN JUMPDEST PUSH1 0x1 DUP1 PUSH1 0x4 DUP2 GT ISZERO PUSH2 0x370 JUMPI PUSH2 0x36F PUSH2 0x210F JUMP JUMPDEST JUMPDEST PUSH1 0x2 PUSH1 0x0 CALLER PUSH20 0xFFFFFFFFFFFFFFFFFFFFFFFFFFFFFFFFFFFFFFFF AND PUSH20 0xFFFFFFFFFFFFFFFFFFFFFFFFFFFFFFFFFFFFFFFF AND DUP2 MSTORE PUSH1 0x20 ADD SWAP1 DUP2 MSTORE PUSH1 0x20 ADD PUSH1 0x0 KECCAK256 PUSH1 0x1 ADD PUSH1 0x0 SWAP1 SLOAD SWAP1 PUSH2 0x100 EXP SWAP1 DIV PUSH1 0xFF AND PUSH1 0x4 DUP2 GT ISZERO PUSH2 0x3D2 JUMPI PUSH2 0x3D1 PUSH2 0x210F JUMP JUMPDEST JUMPDEST EQ PUSH2 0x412 JUMPI PUSH1 0x40 MLOAD PUSH32 0x8C379A000000000000000000000000000000000000000000000000000000000 DUP2 MSTORE PUSH1 0x4 ADD PUSH2 0x409 SWAP1 PUSH2 0x2892 JUMP JUMPDEST PUSH1 0x40 MLOAD DUP1 SWAP2 SUB SWAP1 REVERT JUMPDEST PUSH1 0x0 PUSH20 0xFFFFFFFFFFFFFFFFFFFFFFFFFFFFFFFFFFFFFFFF AND DUP4 PUSH20 0xFFFFFFFFFFFFFFFFFFFFFFFFFFFFFFFFFFFFFFFF AND SUB PUSH2 0x481 JUMPI PUSH1 0x40 MLOAD PUSH32 0x8C379A000000000000000000000000000000000000000000000000000000000 DUP2 MSTORE PUSH1 0x4 ADD PUSH2 0x478 SWAP1 PUSH2 0x28FE JUMP JUMPDEST PUSH1 0x40 MLOAD DUP1 SWAP2 SUB SWAP1 REVERT JUMPDEST DUP2 PUSH1 0x2 PUSH1 0x0 DUP6 PUSH20 0xFFFFFFFFFFFFFFFFFFFFFFFFFFFFFFFFFFFFFFFF AND PUSH20 0xFFFFFFFFFFFFFFFFFFFFFFFFFFFFFFFFFFFFFFFF AND DUP2 MSTORE PUSH1 0x20 ADD SWAP1 DUP2 MSTORE PUSH1 0x20 ADD PUSH1 0x0 KECCAK256 PUSH1 0x1 ADD PUSH1 0x0 PUSH2 0x100 EXP DUP2 SLOAD DUP2 PUSH1 0xFF MUL NOT AND SWAP1 DUP4 PUSH1 0x4 DUP2 GT ISZERO PUSH2 0x4E6 JUMPI PUSH2 0x4E5 PUSH2 0x210F JUMP JUMPDEST JUMPDEST MUL OR SWAP1 SSTORE POP POP POP POP JUMP JUMPDEST PUSH1 0x60 PUSH1 0x0 DUP1 PUSH1 0x4 PUSH1 0x0 DUP6 DUP2 MSTORE PUSH1 0x20 ADD SWAP1 DUP2 MSTORE PUSH1 0x20 ADD PUSH1 0x0 KECCAK256 PUSH1 0x0 ADD DUP1 SLOAD PUSH2 0x516 SWAP1 PUSH2 0x294D JUMP JUMPDEST SWAP1 POP SUB PUSH2 0x558 JUMPI PUSH1 0x40 MLOAD PUSH32 0x8C379A000000000000000000000000000000000000000000000000000000000 DUP2 MSTORE PUSH1 0x4 ADD PUSH2 0x54F SWAP1 PUSH2 0x29CA JUMP JUMPDEST PUSH1 0x40 MLOAD DUP1 SWAP2 SUB SWAP1 REVERT JUMPDEST PUSH1 0x0 PUSH1 0x4 PUSH1 0x0 DUP6 DUP2 MSTORE PUSH1 0x20 ADD SWAP1 DUP2 MSTORE PUSH1 0x20 ADD PUSH1 0x0 KECCAK256 SWAP1 POP DUP1 PUSH1 0x0 ADD DUP2 PUSH1 0x1 ADD PUSH1 0x0 SWAP1 SLOAD SWAP1 PUSH2 0x100 EXP SWAP1 DIV PUSH1 0xFF AND DUP2 DUP1 SLOAD PUSH2 0x591 SWAP1 PUSH2 0x294D JUMP JUMPDEST DUP1 PUSH1 0x1F ADD PUSH1 0x20 DUP1 SWAP2 DIV MUL PUSH1 0x20 ADD PUSH1 0x40 MLOAD SWAP1 DUP2 ADD PUSH1 0x40 MSTORE DUP1 SWAP3 SWAP2 SWAP1 DUP2 DUP2 MSTORE PUSH1 0x20 ADD DUP3 DUP1 SLOAD PUSH2 0x5BD SWAP1 PUSH2 0x294D JUMP JUMPDEST DUP1 ISZERO PUSH2 0x60A JUMPI DUP1 PUSH1 0x1F LT PUSH2 0x5DF JUMPI PUSH2 0x100 DUP1 DUP4 SLOAD DIV MUL DUP4 MSTORE SWAP2 PUSH1 0x20 ADD SWAP2 PUSH2 0x60A JUMP JUMPDEST DUP3 ADD SWAP2 SWAP1 PUSH1 0x0 MSTORE PUSH1 0x20 PUSH1 0x0 KECCAK256 SWAP1 JUMPDEST DUP2 SLOAD DUP2 MSTORE SWAP1 PUSH1 0x1 ADD SWAP1 PUSH1 0x20 ADD DUP1 DUP4 GT PUSH2 0x5ED JUMPI DUP3 SWAP1 SUB PUSH1 0x1F AND DUP3 ADD SWAP2 JUMPDEST POP POP POP POP POP SWAP2 POP SWAP3 POP SWAP3 POP POP SWAP2 POP SWAP2 JUMP JUMPDEST PUSH1 0x0 DUP1 PUSH1 0x0 PUSH1 0x5 DUP5 PUSH1 0x40 MLOAD PUSH2 0x630 SWAP2 SWAP1 PUSH2 0x2A26 JUMP JUMPDEST SWAP1 DUP2 MSTORE PUSH1 0x20 ADD PUSH1 0x40 MLOAD DUP1 SWAP2 SUB SWAP1 KECCAK256 SLOAD SUB PUSH2 0x67F JUMPI PUSH1 0x40 MLOAD PUSH32 0x8C379A000000000000000000000000000000000000000000000000000000000 DUP2 MSTORE PUSH1 0x4 ADD PUSH2 0x676 SWAP1 PUSH2 0x29CA JUMP JUMPDEST PUSH1 0x40 MLOAD DUP1 SWAP2 SUB SWAP1 REVERT JUMPDEST PUSH1 0x5 DUP4 PUSH1 0x40 MLOAD PUSH2 0x68F SWAP2 SWAP1 PUSH2 0x2A26 JUMP JUMPDEST SWAP1 DUP2 MSTORE PUSH1 0x20 ADD PUSH1 0x40 MLOAD DUP1 SWAP2 SUB SWAP1 KECCAK256 SLOAD SWAP2 POP PUSH1 0x0 PUSH1 0x4 PUSH1 0x0 DUP5 DUP2 MSTORE PUSH1 0x20 ADD SWAP1 DUP2 MSTORE PUSH1 0x20 ADD PUSH1 0x0 KECCAK256 SWAP1 POP DUP3 DUP2 PUSH1 0x1 ADD PUSH1 0x0 SWAP1 SLOAD SWAP1 PUSH2 0x100 EXP SWAP1 DIV PUSH1 0xFF AND SWAP3 POP SWAP3 POP POP SWAP2 POP SWAP2 JUMP JUMPDEST PUSH1 0x1 DUP1 PUSH1 0x4 DUP2 GT ISZERO PUSH2 0x6E9 JUMPI PUSH2 0x6E8 PUSH2 0x210F JUMP JUMPDEST JUMPDEST PUSH1 0x2 PUSH1 0x0 CALLER PUSH20 0xFFFFFFFFFFFFFFFFFFFFFFFFFFFFFFFFFFFFFFFF AND PUSH20 0xFFFFFFFFFFFFFFFFFFFFFFFFFFFFFFFFFFFFFFFF AND DUP2 MSTORE PUSH1 0x20 ADD SWAP1 DUP2 MSTORE PUSH1 0x20 ADD PUSH1 0x0 KECCAK256 PUSH1 0x1 ADD PUSH1 0x0 SWAP1 SLOAD SWAP1 PUSH2 0x100 EXP SWAP1 DIV PUSH1 0xFF AND PUSH1 0x4 DUP2 GT ISZERO PUSH2 0x74B JUMPI PUSH2 0x74A PUSH2 0x210F JUMP JUMPDEST JUMPDEST EQ PUSH2 0x78B JUMPI PUSH1 0x40 MLOAD PUSH32 0x8C379A000000000000000000000000000000000000000000000000000000000 DUP2 MSTORE PUSH1 0x4 ADD PUSH2 0x782 SWAP1 PUSH2 0x2892 JUMP JUMPDEST PUSH1 0x40 MLOAD DUP1 SWAP2 SUB SWAP1 REVERT JUMPDEST PUSH1 0x0 PUSH20 0xFFFFFFFFFFFFFFFFFFFFFFFFFFFFFFFFFFFFFFFF AND DUP5 PUSH20 0xFFFFFFFFFFFFFFFFFFFFFFFFFFFFFFFFFFFFFFFF AND SUB PUSH2 0x7FA JUMPI PUSH1 0x40 MLOAD PUSH32 0x8C379A000000000000000000000000000000000000000000000000000000000 DUP2 MSTORE PUSH1 0x4 ADD PUSH2 0x7F1 SWAP1 PUSH2 0x2A89 JUMP JUMPDEST PUSH1 0x40 MLOAD DUP1 SWAP2 SUB SWAP1 REVERT JUMPDEST PUSH1 0x40 MLOAD DUP1 PUSH1 0x40 ADD PUSH1 0x40 MSTORE DUP1 DUP5 DUP2 MSTORE PUSH1 0x20 ADD DUP4 PUSH1 0x4 DUP2 GT ISZERO PUSH2 0x81E JUMPI PUSH2 0x81D PUSH2 0x210F JUMP JUMPDEST JUMPDEST DUP2 MSTORE POP PUSH1 0x2 PUSH1 0x0 DUP7 PUSH20 0xFFFFFFFFFFFFFFFFFFFFFFFFFFFFFFFFFFFFFFFF AND PUSH20 0xFFFFFFFFFFFFFFFFFFFFFFFFFFFFFFFFFFFFFFFF AND DUP2 MSTORE PUSH1 0x20 ADD SWAP1 DUP2 MSTORE PUSH1 0x20 ADD PUSH1 0x0 KECCAK256 PUSH1 0x0 DUP3 ADD MLOAD DUP2 PUSH1 0x0 ADD SWAP1 DUP2 PUSH2 0x875 SWAP2 SWAP1 PUSH2 0x2C55 JUMP JUMPDEST POP PUSH1 0x20 DUP3 ADD MLOAD DUP2 PUSH1 0x1 ADD PUSH1 0x0 PUSH2 0x100 EXP DUP2 SLOAD DUP2 PUSH1 0xFF MUL NOT AND SWAP1 DUP4 PUSH1 0x4 DUP2 GT ISZERO PUSH2 0x8A1 JUMPI PUSH2 0x8A0 PUSH2 0x210F JUMP JUMPDEST JUMPDEST MUL OR SWAP1 SSTORE POP SWAP1 POP POP PUSH1 0x3 DUP5 SWAP1 DUP1 PUSH1 0x1 DUP2 SLOAD ADD DUP1 DUP3 SSTORE DUP1 SWAP2 POP POP PUSH1 0x1 SWAP1 SUB SWAP1 PUSH1 0x0 MSTORE PUSH1 0x20 PUSH1 0x0 KECCAK256 ADD PUSH1 0x0 SWAP1 SWAP2 SWAP1 SWAP2 SWAP1 SWAP2 PUSH2 0x100 EXP DUP2 SLOAD DUP2 PUSH20 0xFFFFFFFFFFFFFFFFFFFFFFFFFFFFFFFFFFFFFFFF MUL NOT AND SWAP1 DUP4 PUSH20 0xFFFFFFFFFFFFFFFFFFFFFFFFFFFFFFFFFFFFFFFF AND MUL OR SWAP1 SSTORE POP PUSH1 0x0 PUSH2 0x917 DUP4 PUSH2 0x1C6E JUMP JUMPDEST SWAP1 POP DUP5 PUSH20 0xFFFFFFFFFFFFFFFFFFFFFFFFFFFFFFFFFFFFFFFF AND PUSH32 0xC2B801D81F6E22509F9EED15DF60B144DF9483674FF7A983AA3D2C378E7AE5F0 DUP6 DUP4 PUSH1 0x40 MLOAD PUSH2 0x961 SWAP3 SWAP2 SWAP1 PUSH2 0x2D73 JUMP JUMPDEST PUSH1 0x40 MLOAD DUP1 SWAP2 SUB SWAP1 LOG2 POP POP POP POP POP JUMP JUMPDEST PUSH1 0x3 DUP2 DUP2 SLOAD DUP2 LT PUSH2 0x980 JUMPI PUSH1 0x0 DUP1 REVERT JUMPDEST SWAP1 PUSH1 0x0 MSTORE PUSH1 0x20 PUSH1 0x0 KECCAK256 ADD PUSH1 0x0 SWAP2 POP SLOAD SWAP1 PUSH2 0x100 EXP SWAP1 DIV PUSH20 0xFFFFFFFFFFFFFFFFFFFFFFFFFFFFFFFFFFFFFFFF AND DUP2 JUMP JUMPDEST PUSH1 0x1 DUP1 PUSH1 0x4 DUP2 GT ISZERO PUSH2 0x9C4 JUMPI PUSH2 0x9C3 PUSH2 0x210F JUMP JUMPDEST JUMPDEST PUSH1 0x2 PUSH1 0x0 CALLER PUSH20 0xFFFFFFFFFFFFFFFFFFFFFFFFFFFFFFFFFFFFFFFF AND PUSH20 0xFFFFFFFFFFFFFFFFFFFFFFFFFFFFFFFFFFFFFFFF AND DUP2 MSTORE PUSH1 0x20 ADD SWAP1 DUP2 MSTORE PUSH1 0x20 ADD PUSH1 0x0 KECCAK256 PUSH1 0x1 ADD PUSH1 0x0 SWAP1 SLOAD SWAP1 PUSH2 0x100 EXP SWAP1 DIV PUSH1 0xFF AND PUSH1 0x4 DUP2 GT ISZERO PUSH2 0xA26 JUMPI PUSH2 0xA25 PUSH2 0x210F JUMP JUMPDEST JUMPDEST EQ PUSH2 0xA66 JUMPI PUSH1 0x40 MLOAD PUSH32 0x8C379A000000000000000000000000000000000000000000000000000000000 DUP2 MSTORE PUSH1 0x4 ADD PUSH2 0xA5D SWAP1 PUSH2 0x2892 JUMP JUMPDEST PUSH1 0x40 MLOAD DUP1 SWAP2 SUB SWAP1 REVERT JUMPDEST PUSH1 0x0 PUSH20 0xFFFFFFFFFFFFFFFFFFFFFFFFFFFFFFFFFFFFFFFF AND DUP3 PUSH20 0xFFFFFFFFFFFFFFFFFFFFFFFFFFFFFFFFFFFFFFFF AND SUB PUSH2 0xAD5 JUMPI PUSH1 0x40 MLOAD PUSH32 0x8C379A000000000000000000000000000000000000000000000000000000000 DUP2 MSTORE PUSH1 0x4 ADD PUSH2 0xACC SWAP1 PUSH2 0x2A89 JUMP JUMPDEST PUSH1 0x40 MLOAD DUP1 SWAP2 SUB SWAP1 REVERT JUMPDEST PUSH1 0x0 PUSH1 0x2 PUSH1 0x0 DUP5 PUSH20 0xFFFFFFFFFFFFFFFFFFFFFFFFFFFFFFFFFFFFFFFF AND PUSH20 0xFFFFFFFFFFFFFFFFFFFFFFFFFFFFFFFFFFFFFFFF AND DUP2 MSTORE PUSH1 0x20 ADD SWAP1 DUP2 MSTORE PUSH1 0x20 ADD PUSH1 0x0 KECCAK256 PUSH1 0x0 ADD DUP1 SLOAD PUSH2 0xB24 SWAP1 PUSH2 0x294D JUMP JUMPDEST DUP1 PUSH1 0x1F ADD PUSH1 0x20 DUP1 SWAP2 DIV MUL PUSH1 0x20 ADD PUSH1 0x40 MLOAD SWAP1 DUP2 ADD PUSH1 0x40 MSTORE DUP1 SWAP3 SWAP2 SWAP1 DUP2 DUP2 MSTORE PUSH1 0x20 ADD DUP3 DUP1 SLOAD PUSH2 0xB50 SWAP1 PUSH2 0x294D JUMP JUMPDEST DUP1 ISZERO PUSH2 0xB9D JUMPI DUP1 PUSH1 0x1F LT PUSH2 0xB72 JUMPI PUSH2 0x100 DUP1 DUP4 SLOAD DIV MUL DUP4 MSTORE SWAP2 PUSH1 0x20 ADD SWAP2 PUSH2 0xB9D JUMP JUMPDEST DUP3 ADD SWAP2 SWAP1 PUSH1 0x0 MSTORE PUSH1 0x20 PUSH1 0x0 KECCAK256 SWAP1 JUMPDEST DUP2 SLOAD DUP2 MSTORE SWAP1 PUSH1 0x1 ADD SWAP1 PUSH1 0x20 ADD DUP1 DUP4 GT PUSH2 0xB80 JUMPI DUP3 SWAP1 SUB PUSH1 0x1F AND DUP3 ADD SWAP2 JUMPDEST POP POP POP POP POP SWAP1 POP PUSH1 0x0 PUSH2 0xBFE PUSH1 0x2 PUSH1 0x0 DUP7 PUSH20 0xFFFFFFFFFFFFFFFFFFFFFFFFFFFFFFFFFFFFFFFF AND PUSH20 0xFFFFFFFFFFFFFFFFFFFFFFFFFFFFFFFFFFFFFFFF AND DUP2 MSTORE PUSH1 0x20 ADD SWAP1 DUP2 MSTORE PUSH1 0x20 ADD PUSH1 0x0 KECCAK256 PUSH1 0x1 ADD PUSH1 0x0 SWAP1 SLOAD SWAP1 PUSH2 0x100 EXP SWAP1 DIV PUSH1 0xFF AND PUSH2 0x1C6E JUMP JUMPDEST SWAP1 POP PUSH1 0x2 PUSH1 0x0 DUP6 PUSH20 0xFFFFFFFFFFFFFFFFFFFFFFFFFFFFFFFFFFFFFFFF AND PUSH20 0xFFFFFFFFFFFFFFFFFFFFFFFFFFFFFFFFFFFFFFFF AND DUP2 MSTORE PUSH1 0x20 ADD SWAP1 DUP2 MSTORE PUSH1 0x20 ADD PUSH1 0x0 KECCAK256 PUSH1 0x0 DUP1 DUP3 ADD PUSH1 0x0 PUSH2 0xC50 SWAP2 SWAP1 PUSH2 0x1EBC JUMP JUMPDEST PUSH1 0x1 DUP3 ADD PUSH1 0x0 PUSH2 0x100 EXP DUP2 SLOAD SWAP1 PUSH1 0xFF MUL NOT AND SWAP1 SSTORE POP POP PUSH1 0x0 JUMPDEST PUSH1 0x3 DUP1 SLOAD SWAP1 POP DUP2 LT ISZERO PUSH2 0xDF2 JUMPI DUP5 PUSH20 0xFFFFFFFFFFFFFFFFFFFFFFFFFFFFFFFFFFFFFFFF AND PUSH1 0x3 DUP3 DUP2 SLOAD DUP2 LT PUSH2 0xCA1 JUMPI PUSH2 0xCA0 PUSH2 0x2DBD JUMP JUMPDEST JUMPDEST SWAP1 PUSH1 0x0 MSTORE PUSH1 0x20 PUSH1 0x0 KECCAK256 ADD PUSH1 0x0 SWAP1 SLOAD SWAP1 PUSH2 0x100 EXP SWAP1 DIV PUSH20 0xFFFFFFFFFFFFFFFFFFFFFFFFFFFFFFFFFFFFFFFF AND PUSH20 0xFFFFFFFFFFFFFFFFFFFFFFFFFFFFFFFFFFFFFFFF AND SUB PUSH2 0xDDF JUMPI PUSH1 0x3 PUSH1 0x1 PUSH1 0x3 DUP1 SLOAD SWAP1 POP PUSH2 0xCFB SWAP2 SWAP1 PUSH2 0x2E1B JUMP JUMPDEST DUP2 SLOAD DUP2 LT PUSH2 0xD0C JUMPI PUSH2 0xD0B PUSH2 0x2DBD JUMP JUMPDEST JUMPDEST SWAP1 PUSH1 0x0 MSTORE PUSH1 0x20 PUSH1 0x0 KECCAK256 ADD PUSH1 0x0 SWAP1 SLOAD SWAP1 PUSH2 0x100 EXP SWAP1 DIV PUSH20 0xFFFFFFFFFFFFFFFFFFFFFFFFFFFFFFFFFFFFFFFF AND PUSH1 0x3 DUP3 DUP2 SLOAD DUP2 LT PUSH2 0xD4B JUMPI PUSH2 0xD4A PUSH2 0x2DBD JUMP JUMPDEST JUMPDEST SWAP1 PUSH1 0x0 MSTORE PUSH1 0x20 PUSH1 0x0 KECCAK256 ADD PUSH1 0x0 PUSH2 0x100 EXP DUP2 SLOAD DUP2 PUSH20 0xFFFFFFFFFFFFFFFFFFFFFFFFFFFFFFFFFFFFFFFF MUL NOT AND SWAP1 DUP4 PUSH20 0xFFFFFFFFFFFFFFFFFFFFFFFFFFFFFFFFFFFFFFFF AND MUL OR SWAP1 SSTORE POP PUSH1 0x3 DUP1 SLOAD DUP1 PUSH2 0xDA5 JUMPI PUSH2 0xDA4 PUSH2 0x2E4F JUMP JUMPDEST JUMPDEST PUSH1 0x1 SWAP1 SUB DUP2 DUP2 SWAP1 PUSH1 0x0 MSTORE PUSH1 0x20 PUSH1 0x0 KECCAK256 ADD PUSH1 0x0 PUSH2 0x100 EXP DUP2 SLOAD SWAP1 PUSH20 0xFFFFFFFFFFFFFFFFFFFFFFFFFFFFFFFFFFFFFFFF MUL NOT AND SWAP1 SSTORE SWAP1 SSTORE PUSH2 0xDF2 JUMP JUMPDEST DUP1 DUP1 PUSH2 0xDEA SWAP1 PUSH2 0x2E7E JUMP JUMPDEST SWAP2 POP POP PUSH2 0xC69 JUMP JUMPDEST POP DUP4 PUSH20 0xFFFFFFFFFFFFFFFFFFFFFFFFFFFFFFFFFFFFFFFF AND PUSH32 0xC15D693267C3B1D5B865044AB75F608276DC7369A471245E8F087042C9236C08 DUP4 DUP4 PUSH1 0x40 MLOAD PUSH2 0xE3B SWAP3 SWAP2 SWAP1 PUSH2 0x2F12 JUMP JUMPDEST PUSH1 0x40 MLOAD DUP1 SWAP2 SUB SWAP1 LOG2 POP POP POP POP JUMP JUMPDEST PUSH1 0x4 PUSH1 0x20 MSTORE DUP1 PUSH1 0x0 MSTORE PUSH1 0x40 PUSH1 0x0 KECCAK256 PUSH1 0x0 SWAP2 POP SWAP1 POP DUP1 PUSH1 0x0 ADD DUP1 SLOAD PUSH2 0xE6C SWAP1 PUSH2 0x294D JUMP JUMPDEST DUP1 PUSH1 0x1F ADD PUSH1 0x20 DUP1 SWAP2 DIV MUL PUSH1 0x20 ADD PUSH1 0x40 MLOAD SWAP1 DUP2 ADD PUSH1 0x40 MSTORE DUP1 SWAP3 SWAP2 SWAP1 DUP2 DUP2 MSTORE PUSH1 0x20 ADD DUP3 DUP1 SLOAD PUSH2 0xE98 SWAP1 PUSH2 0x294D JUMP JUMPDEST DUP1 ISZERO PUSH2 0xEE5 JUMPI DUP1 PUSH1 0x1F LT PUSH2 0xEBA JUMPI PUSH2 0x100 DUP1 DUP4 SLOAD DIV MUL DUP4 MSTORE SWAP2 PUSH1 0x20 ADD SWAP2 PUSH2 0xEE5 JUMP JUMPDEST DUP3 ADD SWAP2 SWAP1 PUSH1 0x0 MSTORE PUSH1 0x20 PUSH1 0x0 KECCAK256 SWAP1 JUMPDEST DUP2 SLOAD DUP2 MSTORE SWAP1 PUSH1 0x1 ADD SWAP1 PUSH1 0x20 ADD DUP1 DUP4 GT PUSH2 0xEC8 JUMPI DUP3 SWAP1 SUB PUSH1 0x1F AND DUP3 ADD SWAP2 JUMPDEST POP POP POP POP POP SWAP1 DUP1 PUSH1 0x1 ADD PUSH1 0x0 SWAP1 SLOAD SWAP1 PUSH2 0x100 EXP SWAP1 DIV PUSH1 0xFF AND SWAP1 POP DUP3 JUMP JUMPDEST PUSH2 0xF0A PUSH2 0x1EFC JUMP JUMPDEST PUSH1 0x0 PUSH20 0xFFFFFFFFFFFFFFFFFFFFFFFFFFFFFFFFFFFFFFFF AND DUP3 PUSH20 0xFFFFFFFFFFFFFFFFFFFFFFFFFFFFFFFFFFFFFFFF AND SUB PUSH2 0xF79 JUMPI PUSH1 0x40 MLOAD PUSH32 0x8C379A000000000000000000000000000000000000000000000000000000000 DUP2 MSTORE PUSH1 0x4 ADD PUSH2 0xF70 SWAP1 PUSH2 0x28FE JUMP JUMPDEST PUSH1 0x40 MLOAD DUP1 SWAP2 SUB SWAP1 REVERT JUMPDEST PUSH1 0x2 PUSH1 0x0 DUP4 PUSH20 0xFFFFFFFFFFFFFFFFFFFFFFFFFFFFFFFFFFFFFFFF AND PUSH20 0xFFFFFFFFFFFFFFFFFFFFFFFFFFFFFFFFFFFFFFFF AND DUP2 MSTORE PUSH1 0x20 ADD SWAP1 DUP2 MSTORE PUSH1 0x20 ADD PUSH1 0x0 KECCAK256 PUSH1 0x40 MLOAD DUP1 PUSH1 0x40 ADD PUSH1 0x40 MSTORE SWAP1 DUP2 PUSH1 0x0 DUP3 ADD DUP1 SLOAD PUSH2 0xFD3 SWAP1 PUSH2 0x294D JUMP JUMPDEST DUP1 PUSH1 0x1F ADD PUSH1 0x20 DUP1 SWAP2 DIV MUL PUSH1 0x20 ADD PUSH1 0x40 MLOAD SWAP1 DUP2 ADD PUSH1 0x40 MSTORE DUP1 SWAP3 SWAP2 SWAP1 DUP2 DUP2 MSTORE PUSH1 0x20 ADD DUP3 DUP1 SLOAD PUSH2 0xFFF SWAP1 PUSH2 0x294D JUMP JUMPDEST DUP1 ISZERO PUSH2 0x104C JUMPI DUP1 PUSH1 0x1F LT PUSH2 0x1021 JUMPI PUSH2 0x100 DUP1 DUP4 SLOAD DIV MUL DUP4 MSTORE SWAP2 PUSH1 0x20 ADD SWAP2 PUSH2 0x104C JUMP JUMPDEST DUP3 ADD SWAP2 SWAP1 PUSH1 0x0 MSTORE PUSH1 0x20 PUSH1 0x0 KECCAK256 SWAP1 JUMPDEST DUP2 SLOAD DUP2 MSTORE SWAP1 PUSH1 0x1 ADD SWAP1 PUSH1 0x20 ADD DUP1 DUP4 GT PUSH2 0x102F JUMPI DUP3 SWAP1 SUB PUSH1 0x1F AND DUP3 ADD SWAP2 JUMPDEST POP POP POP POP POP DUP2 MSTORE PUSH1 0x20 ADD PUSH1 0x1 DUP3 ADD PUSH1 0x0 SWAP1 SLOAD SWAP1 PUSH2 0x100 EXP SWAP1 DIV PUSH1 0xFF AND PUSH1 0x4 DUP2 GT ISZERO PUSH2 0x107A JUMPI PUSH2 0x1079 PUSH2 0x210F JUMP JUMPDEST JUMPDEST PUSH1 0x4 DUP2 GT ISZERO PUSH2 0x108C JUMPI PUSH2 0x108B PUSH2 0x210F JUMP JUMPDEST JUMPDEST DUP2 MSTORE POP POP SWAP1 POP SWAP2 SWAP1 POP JUMP JUMPDEST PUSH1 0x1 DUP1 SLOAD PUSH2 0x10A4 SWAP1 PUSH2 0x294D JUMP JUMPDEST DUP1 PUSH1 0x1F ADD PUSH1 0x20 DUP1 SWAP2 DIV MUL PUSH1 0x20 ADD PUSH1 0x40 MLOAD SWAP1 DUP2 ADD PUSH1 0x40 MSTORE DUP1 SWAP3 SWAP2 SWAP1 DUP2 DUP2 MSTORE PUSH1 0x20 ADD DUP3 DUP1 SLOAD PUSH2 0x10D0 SWAP1 PUSH2 0x294D JUMP JUMPDEST DUP1 ISZERO PUSH2 0x111D JUMPI DUP1 PUSH1 0x1F LT PUSH2 0x10F2 JUMPI PUSH2 0x100 DUP1 DUP4 SLOAD DIV MUL DUP4 MSTORE SWAP2 PUSH1 0x20 ADD SWAP2 PUSH2 0x111D JUMP JUMPDEST DUP3 ADD SWAP2 SWAP1 PUSH1 0x0 MSTORE PUSH1 0x20 PUSH1 0x0 KECCAK256 SWAP1 JUMPDEST DUP2 SLOAD DUP2 MSTORE SWAP1 PUSH1 0x1 ADD SWAP1 PUSH1 0x20 ADD DUP1 DUP4 GT PUSH2 0x1100 JUMPI DUP3 SWAP1 SUB PUSH1 0x1F AND DUP3 ADD SWAP2 JUMPDEST POP POP POP POP POP DUP2 JUMP JUMPDEST PUSH1 0x0 DUP1 SLOAD SWAP1 PUSH2 0x100 EXP SWAP1 DIV PUSH20 0xFFFFFFFFFFFFFFFFFFFFFFFFFFFFFFFFFFFFFFFF AND DUP2 JUMP JUMPDEST PUSH1 0x0 DUP1 SLOAD SWAP1 PUSH2 0x100 EXP SWAP1 DIV PUSH20 0xFFFFFFFFFFFFFFFFFFFFFFFFFFFFFFFFFFFFFFFF AND PUSH20 0xFFFFFFFFFFFFFFFFFFFFFFFFFFFFFFFFFFFFFFFF AND CALLER PUSH20 0xFFFFFFFFFFFFFFFFFFFFFFFFFFFFFFFFFFFFFFFF AND EQ PUSH2 0x11D7 JUMPI PUSH1 0x40 MLOAD PUSH32 0x8C379A000000000000000000000000000000000000000000000000000000000 DUP2 MSTORE PUSH1 0x4 ADD PUSH2 0x11CE SWAP1 PUSH2 0x2FCE JUMP JUMPDEST PUSH1 0x40 MLOAD DUP1 SWAP2 SUB SWAP1 REVERT JUMPDEST PUSH1 0x0 PUSH20 0xFFFFFFFFFFFFFFFFFFFFFFFFFFFFFFFFFFFFFFFF AND DUP2 PUSH20 0xFFFFFFFFFFFFFFFFFFFFFFFFFFFFFFFFFFFFFFFF AND SUB PUSH2 0x1246 JUMPI PUSH1 0x40 MLOAD PUSH32 0x8C379A000000000000000000000000000000000000000000000000000000000 DUP2 MSTORE PUSH1 0x4 ADD PUSH2 0x123D SWAP1 PUSH2 0x2A89 JUMP JUMPDEST PUSH1 0x40 MLOAD DUP1 SWAP2 SUB SWAP1 REVERT JUMPDEST DUP1 PUSH1 0x0 DUP1 PUSH2 0x100 EXP DUP2 SLOAD DUP2 PUSH20 0xFFFFFFFFFFFFFFFFFFFFFFFFFFFFFFFFFFFFFFFF MUL NOT AND SWAP1 DUP4 PUSH20 0xFFFFFFFFFFFFFFFFFFFFFFFFFFFFFFFFFFFFFFFF AND MUL OR SWAP1 SSTORE POP PUSH32 0xF86060286164733A3B0BAE3BA4B62F85DC6020BA2EE440318BF5B6BE6D0D93A8 CALLER DUP3 PUSH1 0x40 MLOAD PUSH2 0x12B7 SWAP3 SWAP2 SWAP1 PUSH2 0x303A JUMP JUMPDEST PUSH1 0x40 MLOAD DUP1 SWAP2 SUB SWAP1 LOG1 POP JUMP JUMPDEST PUSH1 0x2 PUSH1 0x20 MSTORE DUP1 PUSH1 0x0 MSTORE PUSH1 0x40 PUSH1 0x0 KECCAK256 PUSH1 0x0 SWAP2 POP SWAP1 POP DUP1 PUSH1 0x0 ADD DUP1 SLOAD PUSH2 0x12E5 SWAP1 PUSH2 0x294D JUMP JUMPDEST DUP1 PUSH1 0x1F ADD PUSH1 0x20 DUP1 SWAP2 DIV MUL PUSH1 0x20 ADD PUSH1 0x40 MLOAD SWAP1 DUP2 ADD PUSH1 0x40 MSTORE DUP1 SWAP3 SWAP2 SWAP1 DUP2 DUP2 MSTORE PUSH1 0x20 ADD DUP3 DUP1 SLOAD PUSH2 0x1311 SWAP1 PUSH2 0x294D JUMP JUMPDEST DUP1 ISZERO PUSH2 0x135E JUMPI DUP1 PUSH1 0x1F LT PUSH2 0x1333 JUMPI PUSH2 0x100 DUP1 DUP4 SLOAD DIV MUL DUP4 MSTORE SWAP2 PUSH1 0x20 ADD SWAP2 PUSH2 0x135E JUMP JUMPDEST DUP3 ADD SWAP2 SWAP1 PUSH1 0x0 MSTORE PUSH1 0x20 PUSH1 0x0 KECCAK256 SWAP1 JUMPDEST DUP2 SLOAD DUP2 MSTORE SWAP1 PUSH1 0x1 ADD SWAP1 PUSH1 0x20 ADD DUP1 DUP4 GT PUSH2 0x1341 JUMPI DUP3 SWAP1 SUB PUSH1 0x1F AND DUP3 ADD SWAP2 JUMPDEST POP POP POP POP POP SWAP1 DUP1 PUSH1 0x1 ADD PUSH1 0x0 SWAP1 SLOAD SWAP1 PUSH2 0x100 EXP SWAP1 DIV PUSH1 0xFF AND SWAP1 POP DUP3 JUMP JUMPDEST PUSH1 0x1 DUP1 PUSH1 0x4 DUP2 GT ISZERO PUSH2 0x1390 JUMPI PUSH2 0x138F PUSH2 0x210F JUMP JUMPDEST JUMPDEST PUSH1 0x2 PUSH1 0x0 CALLER PUSH20 0xFFFFFFFFFFFFFFFFFFFFFFFFFFFFFFFFFFFFFFFF AND PUSH20 0xFFFFFFFFFFFFFFFFFFFFFFFFFFFFFFFFFFFFFFFF AND DUP2 MSTORE PUSH1 0x20 ADD SWAP1 DUP2 MSTORE PUSH1 0x20 ADD PUSH1 0x0 KECCAK256 PUSH1 0x1 ADD PUSH1 0x0 SWAP1 SLOAD SWAP1 PUSH2 0x100 EXP SWAP1 DIV PUSH1 0xFF AND PUSH1 0x4 DUP2 GT ISZERO PUSH2 0x13F2 JUMPI PUSH2 0x13F1 PUSH2 0x210F JUMP JUMPDEST JUMPDEST EQ PUSH2 0x1432 JUMPI PUSH1 0x40 MLOAD PUSH32 0x8C379A000000000000000000000000000000000000000000000000000000000 DUP2 MSTORE PUSH1 0x4 ADD PUSH2 0x1429 SWAP1 PUSH2 0x2892 JUMP JUMPDEST PUSH1 0x40 MLOAD DUP1 SWAP2 SUB SWAP1 REVERT JUMPDEST PUSH1 0x0 PUSH1 0x4 PUSH1 0x0 DUP7 DUP2 MSTORE PUSH1 0x20 ADD SWAP1 DUP2 MSTORE PUSH1 0x20 ADD PUSH1 0x0 KECCAK256 PUSH1 0x0 ADD DUP1 SLOAD PUSH2 0x1455 SWAP1 PUSH2 0x294D JUMP JUMPDEST SWAP1 POP EQ PUSH2 0x1497 JUMPI PUSH1 0x40 MLOAD PUSH32 0x8C379A000000000000000000000000000000000000000000000000000000000 DUP2 MSTORE PUSH1 0x4 ADD PUSH2 0x148E SWAP1 PUSH2 0x30C2 JUMP JUMPDEST PUSH1 0x40 MLOAD DUP1 SWAP2 SUB SWAP1 REVERT JUMPDEST PUSH1 0x0 PUSH1 0x5 DUP5 PUSH1 0x40 MLOAD PUSH2 0x14A9 SWAP2 SWAP1 PUSH2 0x2A26 JUMP JUMPDEST SWAP1 DUP2 MSTORE PUSH1 0x20 ADD PUSH1 0x40 MLOAD DUP1 SWAP2 SUB SWAP1 KECCAK256 SLOAD EQ PUSH2 0x14F8 JUMPI PUSH1 0x40 MLOAD PUSH32 0x8C379A000000000000000000000000000000000000000000000000000000000 DUP2 MSTORE PUSH1 0x4 ADD PUSH2 0x14EF SWAP1 PUSH2 0x312E JUMP JUMPDEST PUSH1 0x40 MLOAD DUP1 SWAP2 SUB SWAP1 REVERT JUMPDEST PUSH1 0x40 MLOAD DUP1 PUSH1 0x40 ADD PUSH1 0x40 MSTORE DUP1 DUP5 DUP2 MSTORE PUSH1 0x20 ADD DUP4 PUSH1 0x4 DUP2 GT ISZERO PUSH2 0x151C JUMPI PUSH2 0x151B PUSH2 0x210F JUMP JUMPDEST JUMPDEST DUP2 MSTORE POP PUSH1 0x4 PUSH1 0x0 DUP7 DUP2 MSTORE PUSH1 0x20 ADD SWAP1 DUP2 MSTORE PUSH1 0x20 ADD PUSH1 0x0 KECCAK256 PUSH1 0x0 DUP3 ADD MLOAD DUP2 PUSH1 0x0 ADD SWAP1 DUP2 PUSH2 0x1547 SWAP2 SWAP1 PUSH2 0x2C55 JUMP JUMPDEST POP PUSH1 0x20 DUP3 ADD MLOAD DUP2 PUSH1 0x1 ADD PUSH1 0x0 PUSH2 0x100 EXP DUP2 SLOAD DUP2 PUSH1 0xFF MUL NOT AND SWAP1 DUP4 PUSH1 0x4 DUP2 GT ISZERO PUSH2 0x1573 JUMPI PUSH2 0x1572 PUSH2 0x210F JUMP JUMPDEST JUMPDEST MUL OR SWAP1 SSTORE POP SWAP1 POP POP DUP4 PUSH1 0x5 DUP5 PUSH1 0x40 MLOAD PUSH2 0x158C SWAP2 SWAP1 PUSH2 0x2A26 JUMP JUMPDEST SWAP1 DUP2 MSTORE PUSH1 0x20 ADD PUSH1 0x40 MLOAD DUP1 SWAP2 SUB SWAP1 KECCAK256 DUP2 SWAP1 SSTORE POP PUSH1 0x6 PUSH1 0x0 DUP4 PUSH1 0x4 DUP2 GT ISZERO PUSH2 0x15B5 JUMPI PUSH2 0x15B4 PUSH2 0x210F JUMP JUMPDEST JUMPDEST PUSH1 0x4 DUP2 GT ISZERO PUSH2 0x15C7 JUMPI PUSH2 0x15C6 PUSH2 0x210F JUMP JUMPDEST JUMPDEST DUP2 MSTORE PUSH1 0x20 ADD SWAP1 DUP2 MSTORE PUSH1 0x20 ADD PUSH1 0x0 KECCAK256 DUP5 SWAP1 DUP1 PUSH1 0x1 DUP2 SLOAD ADD DUP1 DUP3 SSTORE DUP1 SWAP2 POP POP PUSH1 0x1 SWAP1 SUB SWAP1 PUSH1 0x0 MSTORE PUSH1 0x20 PUSH1 0x0 KECCAK256 ADD PUSH1 0x0 SWAP1 SWAP2 SWAP1 SWAP2 SWAP1 SWAP2 POP SSTORE PUSH32 0x1B13B2E6E7D75CF356E012ED8FB81D10647941596AF1F62BB4A6E267F7DB605D DUP5 DUP5 DUP5 PUSH1 0x40 MLOAD PUSH2 0x162F SWAP4 SWAP3 SWAP2 SWAP1 PUSH2 0x319A JUMP JUMPDEST PUSH1 0x40 MLOAD DUP1 SWAP2 SUB SWAP1 LOG1 POP POP POP POP JUMP JUMPDEST PUSH1 0x1 DUP1 PUSH1 0x4 DUP2 GT ISZERO PUSH2 0x1652 JUMPI PUSH2 0x1651 PUSH2 0x210F JUMP JUMPDEST JUMPDEST PUSH1 0x2 PUSH1 0x0 CALLER PUSH20 0xFFFFFFFFFFFFFFFFFFFFFFFFFFFFFFFFFFFFFFFF AND PUSH20 0xFFFFFFFFFFFFFFFFFFFFFFFFFFFFFFFFFFFFFFFF AND DUP2 MSTORE PUSH1 0x20 ADD SWAP1 DUP2 MSTORE PUSH1 0x20 ADD PUSH1 0x0 KECCAK256 PUSH1 0x1 ADD PUSH1 0x0 SWAP1 SLOAD SWAP1 PUSH2 0x100 EXP SWAP1 DIV PUSH1 0xFF AND PUSH1 0x4 DUP2 GT ISZERO PUSH2 0x16B4 JUMPI PUSH2 0x16B3 PUSH2 0x210F JUMP JUMPDEST JUMPDEST EQ PUSH2 0x16F4 JUMPI PUSH1 0x40 MLOAD PUSH32 0x8C379A000000000000000000000000000000000000000000000000000000000 DUP2 MSTORE PUSH1 0x4 ADD PUSH2 0x16EB SWAP1 PUSH2 0x2892 JUMP JUMPDEST PUSH1 0x40 MLOAD DUP1 SWAP2 SUB SWAP1 REVERT JUMPDEST PUSH1 0x0 PUSH1 0x4 PUSH1 0x0 DUP5 DUP2 MSTORE PUSH1 0x20 ADD SWAP1 DUP2 MSTORE PUSH1 0x20 ADD PUSH1 0x0 KECCAK256 PUSH1 0x0 ADD DUP1 SLOAD PUSH2 0x1717 SWAP1 PUSH2 0x294D JUMP JUMPDEST SWAP1 POP SUB PUSH2 0x1759 JUMPI PUSH1 0x40 MLOAD PUSH32 0x8C379A000000000000000000000000000000000000000000000000000000000 DUP2 MSTORE PUSH1 0x4 ADD PUSH2 0x1750 SWAP1 PUSH2 0x29CA JUMP JUMPDEST PUSH1 0x40 MLOAD DUP1 SWAP2 SUB SWAP1 REVERT JUMPDEST PUSH1 0x0 PUSH1 0x4 PUSH1 0x0 DUP5 DUP2 MSTORE PUSH1 0x20 ADD SWAP1 DUP2 MSTORE PUSH1 0x20 ADD PUSH1 0x0 KECCAK256 PUSH1 0x0 ADD DUP1 SLOAD PUSH2 0x177C SWAP1 PUSH2 0x294D JUMP JUMPDEST DUP1 PUSH1 0x1F ADD PUSH1 0x20 DUP1 SWAP2 DIV MUL PUSH1 0x20 ADD PUSH1 0x40 MLOAD SWAP1 DUP2 ADD PUSH1 0x40 MSTORE DUP1 SWAP3 SWAP2 SWAP1 DUP2 DUP2 MSTORE PUSH1 0x20 ADD DUP3 DUP1 SLOAD PUSH2 0x17A8 SWAP1 PUSH2 0x294D JUMP JUMPDEST DUP1 ISZERO PUSH2 0x17F5 JUMPI DUP1 PUSH1 0x1F LT PUSH2 0x17CA JUMPI PUSH2 0x100 DUP1 DUP4 SLOAD DIV MUL DUP4 MSTORE SWAP2 PUSH1 0x20 ADD SWAP2 PUSH2 0x17F5 JUMP JUMPDEST DUP3 ADD SWAP2 SWAP1 PUSH1 0x0 MSTORE PUSH1 0x20 PUSH1 0x0 KECCAK256 SWAP1 JUMPDEST DUP2 SLOAD DUP2 MSTORE SWAP1 PUSH1 0x1 ADD SWAP1 PUSH1 0x20 ADD DUP1 DUP4 GT PUSH2 0x17D8 JUMPI DUP3 SWAP1 SUB PUSH1 0x1F AND DUP3 ADD SWAP2 JUMPDEST POP POP POP POP POP SWAP1 POP PUSH1 0x0 PUSH1 0x4 PUSH1 0x0 DUP6 DUP2 MSTORE PUSH1 0x20 ADD SWAP1 DUP2 MSTORE PUSH1 0x20 ADD PUSH1 0x0 KECCAK256 PUSH1 0x1 ADD PUSH1 0x0 SWAP1 SLOAD SWAP1 PUSH2 0x100 EXP SWAP1 DIV PUSH1 0xFF AND SWAP1 POP PUSH1 0x4 PUSH1 0x0 DUP6 DUP2 MSTORE PUSH1 0x20 ADD SWAP1 DUP2 MSTORE PUSH1 0x20 ADD PUSH1 0x0 KECCAK256 PUSH1 0x0 DUP1 DUP3 ADD PUSH1 0x0 PUSH2 0x1848 SWAP2 SWAP1 PUSH2 0x1EBC JUMP JUMPDEST PUSH1 0x1 DUP3 ADD PUSH1 0x0 PUSH2 0x100 EXP DUP2 SLOAD SWAP1 PUSH1 0xFF MUL NOT AND SWAP1 SSTORE POP POP PUSH1 0x5 DUP3 PUSH1 0x40 MLOAD PUSH2 0x186E SWAP2 SWAP1 PUSH2 0x2A26 JUMP JUMPDEST SWAP1 DUP2 MSTORE PUSH1 0x20 ADD PUSH1 0x40 MLOAD DUP1 SWAP2 SUB SWAP1 KECCAK256 PUSH1 0x0 SWAP1 SSTORE PUSH1 0x0 PUSH1 0x6 PUSH1 0x0 DUP4 PUSH1 0x4 DUP2 GT ISZERO PUSH2 0x1899 JUMPI PUSH2 0x1898 PUSH2 0x210F JUMP JUMPDEST JUMPDEST PUSH1 0x4 DUP2 GT ISZERO PUSH2 0x18AB JUMPI PUSH2 0x18AA PUSH2 0x210F JUMP JUMPDEST JUMPDEST DUP2 MSTORE PUSH1 0x20 ADD SWAP1 DUP2 MSTORE PUSH1 0x20 ADD PUSH1 0x0 KECCAK256 SWAP1 POP PUSH1 0x0 JUMPDEST DUP2 DUP1 SLOAD SWAP1 POP DUP2 LT ISZERO PUSH2 0x197C JUMPI DUP6 DUP3 DUP3 DUP2 SLOAD DUP2 LT PUSH2 0x18DE JUMPI PUSH2 0x18DD PUSH2 0x2DBD JUMP JUMPDEST JUMPDEST SWAP1 PUSH1 0x0 MSTORE PUSH1 0x20 PUSH1 0x0 KECCAK256 ADD SLOAD SUB PUSH2 0x1969 JUMPI DUP2 PUSH1 0x1 DUP4 DUP1 SLOAD SWAP1 POP PUSH2 0x1900 SWAP2 SWAP1 PUSH2 0x2E1B JUMP JUMPDEST DUP2 SLOAD DUP2 LT PUSH2 0x1911 JUMPI PUSH2 0x1910 PUSH2 0x2DBD JUMP JUMPDEST JUMPDEST SWAP1 PUSH1 0x0 MSTORE PUSH1 0x20 PUSH1 0x0 KECCAK256 ADD SLOAD DUP3 DUP3 DUP2 SLOAD DUP2 LT PUSH2 0x192F JUMPI PUSH2 0x192E PUSH2 0x2DBD JUMP JUMPDEST JUMPDEST SWAP1 PUSH1 0x0 MSTORE PUSH1 0x20 PUSH1 0x0 KECCAK256 ADD DUP2 SWAP1 SSTORE POP DUP2 DUP1 SLOAD DUP1 PUSH2 0x194E JUMPI PUSH2 0x194D PUSH2 0x2E4F JUMP JUMPDEST JUMPDEST PUSH1 0x1 SWAP1 SUB DUP2 DUP2 SWAP1 PUSH1 0x0 MSTORE PUSH1 0x20 PUSH1 0x0 KECCAK256 ADD PUSH1 0x0 SWAP1 SSTORE SWAP1 SSTORE PUSH2 0x197C JUMP JUMPDEST DUP1 DUP1 PUSH2 0x1974 SWAP1 PUSH2 0x2E7E JUMP JUMPDEST SWAP2 POP POP PUSH2 0x18BE JUMP JUMPDEST POP PUSH32 0x30799CF041CFD96E1CC339ABD723266998268FA616DC26E8FBF976739E8C21D9 DUP6 DUP5 PUSH1 0x4 PUSH1 0x0 DUP10 DUP2 MSTORE PUSH1 0x20 ADD SWAP1 DUP2 MSTORE PUSH1 0x20 ADD PUSH1 0x0 KECCAK256 PUSH1 0x1 ADD PUSH1 0x0 SWAP1 SLOAD SWAP1 PUSH2 0x100 EXP SWAP1 DIV PUSH1 0xFF AND PUSH1 0x40 MLOAD PUSH2 0x19D3 SWAP4 SWAP3 SWAP2 SWAP1 PUSH2 0x3237 JUMP JUMPDEST PUSH1 0x40 MLOAD DUP1 SWAP2 SUB SWAP1 LOG1 POP POP POP POP POP JUMP JUMPDEST PUSH1 0x60 PUSH1 0x0 PUSH1 0x3 DUP1 SLOAD SWAP1 POP PUSH8 0xFFFFFFFFFFFFFFFF DUP2 GT ISZERO PUSH2 0x1A05 JUMPI PUSH2 0x1A04 PUSH2 0x21C0 JUMP JUMPDEST JUMPDEST PUSH1 0x40 MLOAD SWAP1 DUP1 DUP3 MSTORE DUP1 PUSH1 0x20 MUL PUSH1 0x20 ADD DUP3 ADD PUSH1 0x40 MSTORE DUP1 ISZERO PUSH2 0x1A3E JUMPI DUP2 PUSH1 0x20 ADD JUMPDEST PUSH2 0x1A2B PUSH2 0x1EFC JUMP JUMPDEST DUP2 MSTORE PUSH1 0x20 ADD SWAP1 PUSH1 0x1 SWAP1 SUB SWAP1 DUP2 PUSH2 0x1A23 JUMPI SWAP1 POP JUMPDEST POP SWAP1 POP PUSH1 0x0 JUMPDEST PUSH1 0x3 DUP1 SLOAD SWAP1 POP DUP2 LT ISZERO PUSH2 0x1BD7 JUMPI PUSH1 0x2 PUSH1 0x0 PUSH1 0x3 DUP4 DUP2 SLOAD DUP2 LT PUSH2 0x1A69 JUMPI PUSH2 0x1A68 PUSH2 0x2DBD JUMP JUMPDEST JUMPDEST SWAP1 PUSH1 0x0 MSTORE PUSH1 0x20 PUSH1 0x0 KECCAK256 ADD PUSH1 0x0 SWAP1 SLOAD SWAP1 PUSH2 0x100 EXP SWAP1 DIV PUSH20 0xFFFFFFFFFFFFFFFFFFFFFFFFFFFFFFFFFFFFFFFF AND PUSH20 0xFFFFFFFFFFFFFFFFFFFFFFFFFFFFFFFFFFFFFFFF AND PUSH20 0xFFFFFFFFFFFFFFFFFFFFFFFFFFFFFFFFFFFFFFFF AND DUP2 MSTORE PUSH1 0x20 ADD SWAP1 DUP2 MSTORE PUSH1 0x20 ADD PUSH1 0x0 KECCAK256 PUSH1 0x40 MLOAD DUP1 PUSH1 0x40 ADD PUSH1 0x40 MSTORE SWAP1 DUP2 PUSH1 0x0 DUP3 ADD DUP1 SLOAD PUSH2 0x1AE9 SWAP1 PUSH2 0x294D JUMP JUMPDEST DUP1 PUSH1 0x1F ADD PUSH1 0x20 DUP1 SWAP2 DIV MUL PUSH1 0x20 ADD PUSH1 0x40 MLOAD SWAP1 DUP2 ADD PUSH1 0x40 MSTORE DUP1 SWAP3 SWAP2 SWAP1 DUP2 DUP2 MSTORE PUSH1 0x20 ADD DUP3 DUP1 SLOAD PUSH2 0x1B15 SWAP1 PUSH2 0x294D JUMP JUMPDEST DUP1 ISZERO PUSH2 0x1B62 JUMPI DUP1 PUSH1 0x1F LT PUSH2 0x1B37 JUMPI PUSH2 0x100 DUP1 DUP4 SLOAD DIV MUL DUP4 MSTORE SWAP2 PUSH1 0x20 ADD SWAP2 PUSH2 0x1B62 JUMP JUMPDEST DUP3 ADD SWAP2 SWAP1 PUSH1 0x0 MSTORE PUSH1 0x20 PUSH1 0x0 KECCAK256 SWAP1 JUMPDEST DUP2 SLOAD DUP2 MSTORE SWAP1 PUSH1 0x1 ADD SWAP1 PUSH1 0x20 ADD DUP1 DUP4 GT PUSH2 0x1B45 JUMPI DUP3 SWAP1 SUB PUSH1 0x1F AND DUP3 ADD SWAP2 JUMPDEST POP POP POP POP POP DUP2 MSTORE PUSH1 0x20 ADD PUSH1 0x1 DUP3 ADD PUSH1 0x0 SWAP1 SLOAD SWAP1 PUSH2 0x100 EXP SWAP1 DIV PUSH1 0xFF AND PUSH1 0x4 DUP2 GT ISZERO PUSH2 0x1B90 JUMPI PUSH2 0x1B8F PUSH2 0x210F JUMP JUMPDEST JUMPDEST PUSH1 0x4 DUP2 GT ISZERO PUSH2 0x1BA2 JUMPI PUSH2 0x1BA1 PUSH2 0x210F JUMP JUMPDEST JUMPDEST DUP2 MSTORE POP POP DUP3 DUP3 DUP2 MLOAD DUP2 LT PUSH2 0x1BB9 JUMPI PUSH2 0x1BB8 PUSH2 0x2DBD JUMP JUMPDEST JUMPDEST PUSH1 0x20 MUL PUSH1 0x20 ADD ADD DUP2 SWAP1 MSTORE POP DUP1 DUP1 PUSH2 0x1BCF SWAP1 PUSH2 0x2E7E JUMP JUMPDEST SWAP2 POP POP PUSH2 0x1A44 JUMP JUMPDEST POP DUP1 SWAP2 POP POP SWAP1 JUMP JUMPDEST PUSH1 0x60 PUSH1 0x6 PUSH1 0x0 DUP4 PUSH1 0x4 DUP2 GT ISZERO PUSH2 0x1BF8 JUMPI PUSH2 0x1BF7 PUSH2 0x210F JUMP JUMPDEST JUMPDEST PUSH1 0x4 DUP2 GT ISZERO PUSH2 0x1C0A JUMPI PUSH2 0x1C09 PUSH2 0x210F JUMP JUMPDEST JUMPDEST DUP2 MSTORE PUSH1 0x20 ADD SWAP1 DUP2 MSTORE PUSH1 0x20 ADD PUSH1 0x0 KECCAK256 DUP1 SLOAD DUP1 PUSH1 0x20 MUL PUSH1 0x20 ADD PUSH1 0x40 MLOAD SWAP1 DUP2 ADD PUSH1 0x40 MSTORE DUP1 SWAP3 SWAP2 SWAP1 DUP2 DUP2 MSTORE PUSH1 0x20 ADD DUP3 DUP1 SLOAD DUP1 ISZERO PUSH2 0x1C62 JUMPI PUSH1 0x20 MUL DUP3 ADD SWAP2 SWAP1 PUSH1 0x0 MSTORE PUSH1 0x20 PUSH1 0x0 KECCAK256 SWAP1 JUMPDEST DUP2 SLOAD DUP2 MSTORE PUSH1 0x20 ADD SWAP1 PUSH1 0x1 ADD SWAP1 DUP1 DUP4 GT PUSH2 0x1C4E JUMPI JUMPDEST POP POP POP POP POP SWAP1 POP SWAP2 SWAP1 POP JUMP JUMPDEST PUSH1 0x60 PUSH1 0x0 PUSH1 0x4 DUP2 GT ISZERO PUSH2 0x1C84 JUMPI PUSH2 0x1C83 PUSH2 0x210F JUMP JUMPDEST JUMPDEST DUP3 PUSH1 0x4 DUP2 GT ISZERO PUSH2 0x1C97 JUMPI PUSH2 0x1C96 PUSH2 0x210F JUMP JUMPDEST JUMPDEST SUB PUSH2 0x1CD9 JUMPI PUSH1 0x40 MLOAD DUP1 PUSH1 0x40 ADD PUSH1 0x40 MSTORE DUP1 PUSH1 0x4 DUP2 MSTORE PUSH1 0x20 ADD PUSH32 0x4E6F6E6500000000000000000000000000000000000000000000000000000000 DUP2 MSTORE POP SWAP1 POP PUSH2 0x1EB7 JUMP JUMPDEST PUSH1 0x1 PUSH1 0x4 DUP2 GT ISZERO PUSH2 0x1CED JUMPI PUSH2 0x1CEC PUSH2 0x210F JUMP JUMPDEST JUMPDEST DUP3 PUSH1 0x4 DUP2 GT ISZERO PUSH2 0x1D00 JUMPI PUSH2 0x1CFF PUSH2 0x210F JUMP JUMPDEST JUMPDEST SUB PUSH2 0x1D42 JUMPI PUSH1 0x40 MLOAD DUP1 PUSH1 0x40 ADD PUSH1 0x40 MSTORE DUP1 PUSH1 0x5 DUP2 MSTORE PUSH1 0x20 ADD PUSH32 0x41646D696E000000000000000000000000000000000000000000000000000000 DUP2 MSTORE POP SWAP1 POP PUSH2 0x1EB7 JUMP JUMPDEST PUSH1 0x2 PUSH1 0x4 DUP2 GT ISZERO PUSH2 0x1D56 JUMPI PUSH2 0x1D55 PUSH2 0x210F JUMP JUMPDEST JUMPDEST DUP3 PUSH1 0x4 DUP2 GT ISZERO PUSH2 0x1D69 JUMPI PUSH2 0x1D68 PUSH2 0x210F JUMP JUMPDEST JUMPDEST SUB PUSH2 0x1DAB JUMPI PUSH1 0x40 MLOAD DUP1 PUSH1 0x40 ADD PUSH1 0x40 MSTORE DUP1 PUSH1 0x8 DUP2 MSTORE PUSH1 0x20 ADD PUSH32 0x537570706C696572000000000000000000000000000000000000000000000000 DUP2 MSTORE POP SWAP1 POP PUSH2 0x1EB7 JUMP JUMPDEST PUSH1 0x3 PUSH1 0x4 DUP2 GT ISZERO PUSH2 0x1DBF JUMPI PUSH2 0x1DBE PUSH2 0x210F JUMP JUMPDEST JUMPDEST DUP3 PUSH1 0x4 DUP2 GT ISZERO PUSH2 0x1DD2 JUMPI PUSH2 0x1DD1 PUSH2 0x210F JUMP JUMPDEST JUMPDEST SUB PUSH2 0x1E14 JUMPI PUSH1 0x40 MLOAD DUP1 PUSH1 0x40 ADD PUSH1 0x40 MSTORE DUP1 PUSH1 0x14 DUP2 MSTORE PUSH1 0x20 ADD PUSH32 0x446973747269627574696F6E456D706C6F796565000000000000000000000000 DUP2 MSTORE POP SWAP1 POP PUSH2 0x1EB7 JUMP JUMPDEST PUSH1 0x4 DUP1 DUP2 GT ISZERO PUSH2 0x1E27 JUMPI PUSH2 0x1E26 PUSH2 0x210F JUMP JUMPDEST JUMPDEST DUP3 PUSH1 0x4 DUP2 GT ISZERO PUSH2 0x1E3A JUMPI PUSH2 0x1E39 PUSH2 0x210F JUMP JUMPDEST JUMPDEST SUB PUSH2 0x1E7C JUMPI PUSH1 0x40 MLOAD DUP1 PUSH1 0x40 ADD PUSH1 0x40 MSTORE DUP1 PUSH1 0x7 DUP2 MSTORE PUSH1 0x20 ADD PUSH32 0x41756469746F7200000000000000000000000000000000000000000000000000 DUP2 MSTORE POP SWAP1 POP PUSH2 0x1EB7 JUMP JUMPDEST PUSH1 0x40 MLOAD PUSH32 0x8C379A000000000000000000000000000000000000000000000000000000000 DUP2 MSTORE PUSH1 0x4 ADD PUSH2 0x1EAE SWAP1 PUSH2 0x32D4 JUMP JUMPDEST PUSH1 0x40 MLOAD DUP1 SWAP2 SUB SWAP1 REVERT JUMPDEST SWAP2 SWAP1 POP JUMP JUMPDEST POP DUP1 SLOAD PUSH2 0x1EC8 SWAP1 PUSH2 0x294D JUMP JUMPDEST PUSH1 0x0 DUP3 SSTORE DUP1 PUSH1 0x1F LT PUSH2 0x1EDA JUMPI POP PUSH2 0x1EF9 JUMP JUMPDEST PUSH1 0x1F ADD PUSH1 0x20 SWAP1 DIV SWAP1 PUSH1 0x0 MSTORE PUSH1 0x20 PUSH1 0x0 KECCAK256 SWAP1 DUP2 ADD SWAP1 PUSH2 0x1EF8 SWAP2 SWAP1 PUSH2 0x1F28 JUMP JUMPDEST JUMPDEST POP JUMP JUMPDEST PUSH1 0x40 MLOAD DUP1 PUSH1 0x40 ADD PUSH1 0x40 MSTORE DUP1 PUSH1 0x60 DUP2 MSTORE PUSH1 0x20 ADD PUSH1 0x0 PUSH1 0x4 DUP2 GT ISZERO PUSH2 0x1F22 JUMPI PUSH2 0x1F21 PUSH2 0x210F JUMP JUMPDEST JUMPDEST DUP2 MSTORE POP SWAP1 JUMP JUMPDEST JUMPDEST DUP1 DUP3 GT ISZERO PUSH2 0x1F41 JUMPI PUSH1 0x0 DUP2 PUSH1 0x0 SWAP1 SSTORE POP PUSH1 0x1 ADD PUSH2 0x1F29 JUMP JUMPDEST POP SWAP1 JUMP JUMPDEST PUSH1 0x0 PUSH1 0x40 MLOAD SWAP1 POP SWAP1 JUMP JUMPDEST PUSH1 0x0 DUP1 REVERT JUMPDEST PUSH1 0x0 DUP1 REVERT JUMPDEST PUSH1 0x0 PUSH20 0xFFFFFFFFFFFFFFFFFFFFFFFFFFFFFFFFFFFFFFFF DUP3 AND SWAP1 POP SWAP2 SWAP1 POP JUMP JUMPDEST PUSH1 0x0 PUSH2 0x1F84 DUP3 PUSH2 0x1F59 JUMP JUMPDEST SWAP1 POP SWAP2 SWAP1 POP JUMP JUMPDEST PUSH2 0x1F94 DUP2 PUSH2 0x1F79 JUMP JUMPDEST DUP2 EQ PUSH2 0x1F9F JUMPI PUSH1 0x0 DUP1 REVERT JUMPDEST POP JUMP JUMPDEST PUSH1 0x0 DUP2 CALLDATALOAD SWAP1 POP PUSH2 0x1FB1 DUP2 PUSH2 0x1F8B JUMP JUMPDEST SWAP3 SWAP2 POP POP JUMP JUMPDEST PUSH1 0x5 DUP2 LT PUSH2 0x1FC4 JUMPI PUSH1 0x0 DUP1 REVERT JUMPDEST POP JUMP JUMPDEST PUSH1 0x0 DUP2 CALLDATALOAD SWAP1 POP PUSH2 0x1FD6 DUP2 PUSH2 0x1FB7 JUMP JUMPDEST SWAP3 SWAP2 POP POP JUMP JUMPDEST PUSH1 0x0 DUP1 PUSH1 0x40 DUP4 DUP6 SUB SLT ISZERO PUSH2 0x1FF3 JUMPI PUSH2 0x1FF2 PUSH2 0x1F4F JUMP JUMPDEST JUMPDEST PUSH1 0x0 PUSH2 0x2001 DUP6 DUP3 DUP7 ADD PUSH2 0x1FA2 JUMP JUMPDEST SWAP3 POP POP PUSH1 0x20 PUSH2 0x2012 DUP6 DUP3 DUP7 ADD PUSH2 0x1FC7 JUMP JUMPDEST SWAP2 POP POP SWAP3 POP SWAP3 SWAP1 POP JUMP JUMPDEST PUSH1 0x0 DUP2 SWAP1 POP SWAP2 SWAP1 POP JUMP JUMPDEST PUSH2 0x202F DUP2 PUSH2 0x201C JUMP JUMPDEST DUP2 EQ PUSH2 0x203A JUMPI PUSH1 0x0 DUP1 REVERT JUMPDEST POP JUMP JUMPDEST PUSH1 0x0 DUP2 CALLDATALOAD SWAP1 POP PUSH2 0x204C DUP2 PUSH2 0x2026 JUMP JUMPDEST SWAP3 SWAP2 POP POP JUMP JUMPDEST PUSH1 0x0 PUSH1 0x20 DUP3 DUP5 SUB SLT ISZERO PUSH2 0x2068 JUMPI PUSH2 0x2067 PUSH2 0x1F4F JUMP JUMPDEST JUMPDEST PUSH1 0x0 PUSH2 0x2076 DUP5 DUP3 DUP6 ADD PUSH2 0x203D JUMP JUMPDEST SWAP2 POP POP SWAP3 SWAP2 POP POP JUMP JUMPDEST PUSH1 0x0 DUP2 MLOAD SWAP1 POP SWAP2 SWAP1 POP JUMP JUMPDEST PUSH1 0x0 DUP3 DUP3 MSTORE PUSH1 0x20 DUP3 ADD SWAP1 POP SWAP3 SWAP2 POP POP JUMP JUMPDEST PUSH1 0x0 JUMPDEST DUP4 DUP2 LT ISZERO PUSH2 0x20B9 JUMPI DUP1 DUP3 ADD MLOAD DUP2 DUP5 ADD MSTORE PUSH1 0x20 DUP2 ADD SWAP1 POP PUSH2 0x209E JUMP JUMPDEST PUSH1 0x0 DUP5 DUP5 ADD MSTORE POP POP POP POP JUMP JUMPDEST PUSH1 0x0 PUSH1 0x1F NOT PUSH1 0x1F DUP4 ADD AND SWAP1 POP SWAP2 SWAP1 POP JUMP JUMPDEST PUSH1 0x0 PUSH2 0x20E1 DUP3 PUSH2 0x207F JUMP JUMPDEST PUSH2 0x20EB DUP2 DUP6 PUSH2 0x208A JUMP JUMPDEST SWAP4 POP PUSH2 0x20FB DUP2 DUP6 PUSH1 0x20 DUP7 ADD PUSH2 0x209B JUMP JUMPDEST PUSH2 0x2104 DUP2 PUSH2 0x20C5 JUMP JUMPDEST DUP5 ADD SWAP2 POP POP SWAP3 SWAP2 POP POP JUMP JUMPDEST PUSH32 0x4E487B7100000000000000000000000000000000000000000000000000000000 PUSH1 0x0 MSTORE PUSH1 0x21 PUSH1 0x4 MSTORE PUSH1 0x24 PUSH1 0x0 REVERT JUMPDEST PUSH1 0x5 DUP2 LT PUSH2 0x214F JUMPI PUSH2 0x214E PUSH2 0x210F JUMP JUMPDEST JUMPDEST POP JUMP JUMPDEST PUSH1 0x0 DUP2 SWAP1 POP PUSH2 0x2160 DUP3 PUSH2 0x213E JUMP JUMPDEST SWAP2 SWAP1 POP JUMP JUMPDEST PUSH1 0x0 PUSH2 0x2170 DUP3 PUSH2 0x2152 JUMP JUMPDEST SWAP1 POP SWAP2 SWAP1 POP JUMP JUMPDEST PUSH2 0x2180 DUP2 PUSH2 0x2165 JUMP JUMPDEST DUP3 MSTORE POP POP JUMP JUMPDEST PUSH1 0x0 PUSH1 0x40 DUP3 ADD SWAP1 POP DUP2 DUP2 SUB PUSH1 0x0 DUP4 ADD MSTORE PUSH2 0x21A0 DUP2 DUP6 PUSH2 0x20D6 JUMP JUMPDEST SWAP1 POP PUSH2 0x21AF PUSH1 0x20 DUP4 ADD DUP5 PUSH2 0x2177 JUMP JUMPDEST SWAP4 SWAP3 POP POP POP JUMP JUMPDEST PUSH1 0x0 DUP1 REVERT JUMPDEST PUSH1 0x0 DUP1 REVERT JUMPDEST PUSH32 0x4E487B7100000000000000000000000000000000000000000000000000000000 PUSH1 0x0 MSTORE PUSH1 0x41 PUSH1 0x4 MSTORE PUSH1 0x24 PUSH1 0x0 REVERT JUMPDEST PUSH2 0x21F8 DUP3 PUSH2 0x20C5 JUMP JUMPDEST DUP2 ADD DUP2 DUP2 LT PUSH8 0xFFFFFFFFFFFFFFFF DUP3 GT OR ISZERO PUSH2 0x2217 JUMPI PUSH2 0x2216 PUSH2 0x21C0 JUMP JUMPDEST JUMPDEST DUP1 PUSH1 0x40 MSTORE POP POP POP JUMP JUMPDEST PUSH1 0x0 PUSH2 0x222A PUSH2 0x1F45 JUMP JUMPDEST SWAP1 POP PUSH2 0x2236 DUP3 DUP3 PUSH2 0x21EF JUMP JUMPDEST SWAP2 SWAP1 POP JUMP JUMPDEST PUSH1 0x0 PUSH8 0xFFFFFFFFFFFFFFFF DUP3 GT ISZERO PUSH2 0x2256 JUMPI PUSH2 0x2255 PUSH2 0x21C0 JUMP JUMPDEST JUMPDEST PUSH2 0x225F DUP3 PUSH2 0x20C5 JUMP JUMPDEST SWAP1 POP PUSH1 0x20 DUP2 ADD SWAP1 POP SWAP2 SWAP1 POP JUMP JUMPDEST DUP3 DUP2 DUP4 CALLDATACOPY PUSH1 0x0 DUP4 DUP4 ADD MSTORE POP POP POP JUMP JUMPDEST PUSH1 0x0 PUSH2 0x228E PUSH2 0x2289 DUP5 PUSH2 0x223B JUMP JUMPDEST PUSH2 0x2220 JUMP JUMPDEST SWAP1 POP DUP3 DUP2 MSTORE PUSH1 0x20 DUP2 ADD DUP5 DUP5 DUP5 ADD GT ISZERO PUSH2 0x22AA JUMPI PUSH2 0x22A9 PUSH2 0x21BB JUMP JUMPDEST JUMPDEST PUSH2 0x22B5 DUP5 DUP3 DUP6 PUSH2 0x226C JUMP JUMPDEST POP SWAP4 SWAP3 POP POP POP JUMP JUMPDEST PUSH1 0x0 DUP3 PUSH1 0x1F DUP4 ADD SLT PUSH2 0x22D2 JUMPI PUSH2 0x22D1 PUSH2 0x21B6 JUMP JUMPDEST JUMPDEST DUP2 CALLDATALOAD PUSH2 0x22E2 DUP5 DUP3 PUSH1 0x20 DUP7 ADD PUSH2 0x227B JUMP JUMPDEST SWAP2 POP POP SWAP3 SWAP2 POP POP JUMP JUMPDEST PUSH1 0x0 PUSH1 0x20 DUP3 DUP5 SUB SLT ISZERO PUSH2 0x2301 JUMPI PUSH2 0x2300 PUSH2 0x1F4F JUMP JUMPDEST JUMPDEST PUSH1 0x0 DUP3 ADD CALLDATALOAD PUSH8 0xFFFFFFFFFFFFFFFF DUP2 GT ISZERO PUSH2 0x231F JUMPI PUSH2 0x231E PUSH2 0x1F54 JUMP JUMPDEST JUMPDEST PUSH2 0x232B DUP5 DUP3 DUP6 ADD PUSH2 0x22BD JUMP JUMPDEST SWAP2 POP POP SWAP3 SWAP2 POP POP JUMP JUMPDEST PUSH2 0x233D DUP2 PUSH2 0x201C JUMP JUMPDEST DUP3 MSTORE POP POP JUMP JUMPDEST PUSH1 0x0 PUSH1 0x40 DUP3 ADD SWAP1 POP PUSH2 0x2358 PUSH1 0x0 DUP4 ADD DUP6 PUSH2 0x2334 JUMP JUMPDEST PUSH2 0x2365 PUSH1 0x20 DUP4 ADD DUP5 PUSH2 0x2177 JUMP JUMPDEST SWAP4 SWAP3 POP POP POP JUMP JUMPDEST PUSH1 0x0 DUP1 PUSH1 0x0 PUSH1 0x60 DUP5 DUP7 SUB SLT ISZERO PUSH2 0x2385 JUMPI PUSH2 0x2384 PUSH2 0x1F4F JUMP JUMPDEST JUMPDEST PUSH1 0x0 PUSH2 0x2393 DUP7 DUP3 DUP8 ADD PUSH2 0x1FA2 JUMP JUMPDEST SWAP4 POP POP PUSH1 0x20 DUP5 ADD CALLDATALOAD PUSH8 0xFFFFFFFFFFFFFFFF DUP2 GT ISZERO PUSH2 0x23B4 JUMPI PUSH2 0x23B3 PUSH2 0x1F54 JUMP JUMPDEST JUMPDEST PUSH2 0x23C0 DUP7 DUP3 DUP8 ADD PUSH2 0x22BD JUMP JUMPDEST SWAP3 POP POP PUSH1 0x40 PUSH2 0x23D1 DUP7 DUP3 DUP8 ADD PUSH2 0x1FC7 JUMP JUMPDEST SWAP2 POP POP SWAP3 POP SWAP3 POP SWAP3 JUMP JUMPDEST PUSH2 0x23E4 DUP2 PUSH2 0x1F79 JUMP JUMPDEST DUP3 MSTORE POP POP JUMP JUMPDEST PUSH1 0x0 PUSH1 0x20 DUP3 ADD SWAP1 POP PUSH2 0x23FF PUSH1 0x0 DUP4 ADD DUP5 PUSH2 0x23DB JUMP JUMPDEST SWAP3 SWAP2 POP POP JUMP JUMPDEST PUSH1 0x0 PUSH1 0x20 DUP3 DUP5 SUB SLT ISZERO PUSH2 0x241B JUMPI PUSH2 0x241A PUSH2 0x1F4F JUMP JUMPDEST JUMPDEST PUSH1 0x0 PUSH2 0x2429 DUP5 DUP3 DUP6 ADD PUSH2 0x1FA2 JUMP JUMPDEST SWAP2 POP POP SWAP3 SWAP2 POP POP JUMP JUMPDEST PUSH1 0x0 DUP3 DUP3 MSTORE PUSH1 0x20 DUP3 ADD SWAP1 POP SWAP3 SWAP2 POP POP JUMP JUMPDEST PUSH1 0x0 PUSH2 0x244E DUP3 PUSH2 0x207F JUMP JUMPDEST PUSH2 0x2458 DUP2 DUP6 PUSH2 0x2432 JUMP JUMPDEST SWAP4 POP PUSH2 0x2468 DUP2 DUP6 PUSH1 0x20 DUP7 ADD PUSH2 0x209B JUMP JUMPDEST PUSH2 0x2471 DUP2 PUSH2 0x20C5 JUMP JUMPDEST DUP5 ADD SWAP2 POP POP SWAP3 SWAP2 POP POP JUMP JUMPDEST PUSH1 0x5 DUP2 LT PUSH2 0x248D JUMPI PUSH2 0x248C PUSH2 0x210F JUMP JUMPDEST JUMPDEST POP JUMP JUMPDEST PUSH1 0x0 DUP2 SWAP1 POP PUSH2 0x249E DUP3 PUSH2 0x247C JUMP JUMPDEST SWAP2 SWAP1 POP JUMP JUMPDEST PUSH1 0x0 PUSH2 0x24AE DUP3 PUSH2 0x2490 JUMP JUMPDEST SWAP1 POP SWAP2 SWAP1 POP JUMP JUMPDEST PUSH2 0x24BE DUP2 PUSH2 0x24A3 JUMP JUMPDEST DUP3 MSTORE POP POP JUMP JUMPDEST PUSH1 0x0 PUSH1 0x40 DUP4 ADD PUSH1 0x0 DUP4 ADD MLOAD DUP5 DUP3 SUB PUSH1 0x0 DUP7 ADD MSTORE PUSH2 0x24E1 DUP3 DUP3 PUSH2 0x2443 JUMP JUMPDEST SWAP2 POP POP PUSH1 0x20 DUP4 ADD MLOAD PUSH2 0x24F6 PUSH1 0x20 DUP7 ADD DUP3 PUSH2 0x24B5 JUMP JUMPDEST POP DUP1 SWAP2 POP POP SWAP3 SWAP2 POP POP JUMP JUMPDEST PUSH1 0x0 PUSH1 0x20 DUP3 ADD SWAP1 POP DUP2 DUP2 SUB PUSH1 0x0 DUP4 ADD MSTORE PUSH2 0x251B DUP2 DUP5 PUSH2 0x24C4 JUMP JUMPDEST SWAP1 POP SWAP3 SWAP2 POP POP JUMP JUMPDEST PUSH1 0x0 PUSH1 0x20 DUP3 ADD SWAP1 POP DUP2 DUP2 SUB PUSH1 0x0 DUP4 ADD MSTORE PUSH2 0x253D DUP2 DUP5 PUSH2 0x20D6 JUMP JUMPDEST SWAP1 POP SWAP3 SWAP2 POP POP JUMP JUMPDEST PUSH2 0x254E DUP2 PUSH2 0x24A3 JUMP JUMPDEST DUP3 MSTORE POP POP JUMP JUMPDEST PUSH1 0x0 PUSH1 0x40 DUP3 ADD SWAP1 POP DUP2 DUP2 SUB PUSH1 0x0 DUP4 ADD MSTORE PUSH2 0x256E DUP2 DUP6 PUSH2 0x20D6 JUMP JUMPDEST SWAP1 POP PUSH2 0x257D PUSH1 0x20 DUP4 ADD DUP5 PUSH2 0x2545 JUMP JUMPDEST SWAP4 SWAP3 POP POP POP JUMP JUMPDEST PUSH1 0x5 DUP2 LT PUSH2 0x2591 JUMPI PUSH1 0x0 DUP1 REVERT JUMPDEST POP JUMP JUMPDEST PUSH1 0x0 DUP2 CALLDATALOAD SWAP1 POP PUSH2 0x25A3 DUP2 PUSH2 0x2584 JUMP JUMPDEST SWAP3 SWAP2 POP POP JUMP JUMPDEST PUSH1 0x0 DUP1 PUSH1 0x0 PUSH1 0x60 DUP5 DUP7 SUB SLT ISZERO PUSH2 0x25C2 JUMPI PUSH2 0x25C1 PUSH2 0x1F4F JUMP JUMPDEST JUMPDEST PUSH1 0x0 PUSH2 0x25D0 DUP7 DUP3 DUP8 ADD PUSH2 0x203D JUMP JUMPDEST SWAP4 POP POP PUSH1 0x20 DUP5 ADD CALLDATALOAD PUSH8 0xFFFFFFFFFFFFFFFF DUP2 GT ISZERO PUSH2 0x25F1 JUMPI PUSH2 0x25F0 PUSH2 0x1F54 JUMP JUMPDEST JUMPDEST PUSH2 0x25FD DUP7 DUP3 DUP8 ADD PUSH2 0x22BD JUMP JUMPDEST SWAP3 POP POP PUSH1 0x40 PUSH2 0x260E DUP7 DUP3 DUP8 ADD PUSH2 0x2594 JUMP JUMPDEST SWAP2 POP POP SWAP3 POP SWAP3 POP SWAP3 JUMP JUMPDEST PUSH1 0x0 DUP2 MLOAD SWAP1 POP SWAP2 SWAP1 POP JUMP JUMPDEST PUSH1 0x0 DUP3 DUP3 MSTORE PUSH1 0x20 DUP3 ADD SWAP1 POP SWAP3 SWAP2 POP POP JUMP JUMPDEST PUSH1 0x0 DUP2 SWAP1 POP PUSH1 0x20 DUP3 ADD SWAP1 POP SWAP2 SWAP1 POP JUMP JUMPDEST PUSH1 0x0 PUSH1 0x40 DUP4 ADD PUSH1 0x0 DUP4 ADD MLOAD DUP5 DUP3 SUB PUSH1 0x0 DUP7 ADD MSTORE PUSH2 0x2661 DUP3 DUP3 PUSH2 0x2443 JUMP JUMPDEST SWAP2 POP POP PUSH1 0x20 DUP4 ADD MLOAD PUSH2 0x2676 PUSH1 0x20 DUP7 ADD DUP3 PUSH2 0x24B5 JUMP JUMPDEST POP DUP1 SWAP2 POP POP SWAP3 SWAP2 POP POP JUMP JUMPDEST PUSH1 0x0 PUSH2 0x268D DUP4 DUP4 PUSH2 0x2644 JUMP JUMPDEST SWAP1 POP SWAP3 SWAP2 POP POP JUMP JUMPDEST PUSH1 0x0 PUSH1 0x20 DUP3 ADD SWAP1 POP SWAP2 SWAP1 POP JUMP JUMPDEST PUSH1 0x0 PUSH2 0x26AD DUP3 PUSH2 0x2618 JUMP JUMPDEST PUSH2 0x26B7 DUP2 DUP6 PUSH2 0x2623 JUMP JUMPDEST SWAP4 POP DUP4 PUSH1 0x20 DUP3 MUL DUP6 ADD PUSH2 0x26C9 DUP6 PUSH2 0x2634 JUMP JUMPDEST DUP1 PUSH1 0x0 JUMPDEST DUP6 DUP2 LT ISZERO PUSH2 0x2705 JUMPI DUP5 DUP5 SUB DUP10 MSTORE DUP2 MLOAD PUSH2 0x26E6 DUP6 DUP3 PUSH2 0x2681 JUMP JUMPDEST SWAP5 POP PUSH2 0x26F1 DUP4 PUSH2 0x2695 JUMP JUMPDEST SWAP3 POP PUSH1 0x20 DUP11 ADD SWAP10 POP POP PUSH1 0x1 DUP2 ADD SWAP1 POP PUSH2 0x26CD JUMP JUMPDEST POP DUP3 SWAP8 POP DUP8 SWAP6 POP POP POP POP POP POP SWAP3 SWAP2 POP POP JUMP JUMPDEST PUSH1 0x0 PUSH1 0x20 DUP3 ADD SWAP1 POP DUP2 DUP2 SUB PUSH1 0x0 DUP4 ADD MSTORE PUSH2 0x2731 DUP2 DUP5 PUSH2 0x26A2 JUMP JUMPDEST SWAP1 POP SWAP3 SWAP2 POP POP JUMP JUMPDEST PUSH1 0x0 PUSH1 0x20 DUP3 DUP5 SUB SLT ISZERO PUSH2 0x274F JUMPI PUSH2 0x274E PUSH2 0x1F4F JUMP JUMPDEST JUMPDEST PUSH1 0x0 PUSH2 0x275D DUP5 DUP3 DUP6 ADD PUSH2 0x2594 JUMP JUMPDEST SWAP2 POP POP SWAP3 SWAP2 POP POP JUMP JUMPDEST PUSH1 0x0 DUP2 MLOAD SWAP1 POP SWAP2 SWAP1 POP JUMP JUMPDEST PUSH1 0x0 DUP3 DUP3 MSTORE PUSH1 0x20 DUP3 ADD SWAP1 POP SWAP3 SWAP2 POP POP JUMP JUMPDEST PUSH1 0x0 DUP2 SWAP1 POP PUSH1 0x20 DUP3 ADD SWAP1 POP SWAP2 SWAP1 POP JUMP JUMPDEST PUSH2 0x279B DUP2 PUSH2 0x201C JUMP JUMPDEST DUP3 MSTORE POP POP JUMP JUMPDEST PUSH1 0x0 PUSH2 0x27AD DUP4 DUP4 PUSH2 0x2792 JUMP JUMPDEST PUSH1 0x20 DUP4 ADD SWAP1 POP SWAP3 SWAP2 POP POP JUMP JUMPDEST PUSH1 0x0 PUSH1 0x20 DUP3 ADD SWAP1 POP SWAP2 SWAP1 POP JUMP JUMPDEST PUSH1 0x0 PUSH2 0x27D1 DUP3 PUSH2 0x2766 JUMP JUMPDEST PUSH2 0x27DB DUP2 DUP6 PUSH2 0x2771 JUMP JUMPDEST SWAP4 POP PUSH2 0x27E6 DUP4 PUSH2 0x2782 JUMP JUMPDEST DUP1 PUSH1 0x0 JUMPDEST DUP4 DUP2 LT ISZERO PUSH2 0x2817 JUMPI DUP2 MLOAD PUSH2 0x27FE DUP9 DUP3 PUSH2 0x27A1 JUMP JUMPDEST SWAP8 POP PUSH2 0x2809 DUP4 PUSH2 0x27B9 JUMP JUMPDEST SWAP3 POP POP PUSH1 0x1 DUP2 ADD SWAP1 POP PUSH2 0x27EA JUMP JUMPDEST POP DUP6 SWAP4 POP POP POP POP SWAP3 SWAP2 POP POP JUMP JUMPDEST PUSH1 0x0 PUSH1 0x20 DUP3 ADD SWAP1 POP DUP2 DUP2 SUB PUSH1 0x0 DUP4 ADD MSTORE PUSH2 0x283E DUP2 DUP5 PUSH2 0x27C6 JUMP JUMPDEST SWAP1 POP SWAP3 SWAP2 POP POP JUMP JUMPDEST PUSH32 0x4163636573732064656E6965643A20696E636F727265637420726F6C65000000 PUSH1 0x0 DUP3 ADD MSTORE POP JUMP JUMPDEST PUSH1 0x0 PUSH2 0x287C PUSH1 0x1D DUP4 PUSH2 0x208A JUMP JUMPDEST SWAP2 POP PUSH2 0x2887 DUP3 PUSH2 0x2846 JUMP JUMPDEST PUSH1 0x20 DUP3 ADD SWAP1 POP SWAP2 SWAP1 POP JUMP JUMPDEST PUSH1 0x0 PUSH1 0x20 DUP3 ADD SWAP1 POP DUP2 DUP2 SUB PUSH1 0x0 DUP4 ADD MSTORE PUSH2 0x28AB DUP2 PUSH2 0x286F JUMP JUMPDEST SWAP1 POP SWAP2 SWAP1 POP JUMP JUMPDEST PUSH32 0x496E76616C696420616464726573730000000000000000000000000000000000 PUSH1 0x0 DUP3 ADD MSTORE POP JUMP JUMPDEST PUSH1 0x0 PUSH2 0x28E8 PUSH1 0xF DUP4 PUSH2 0x208A JUMP JUMPDEST SWAP2 POP PUSH2 0x28F3 DUP3 PUSH2 0x28B2 JUMP JUMPDEST PUSH1 0x20 DUP3 ADD SWAP1 POP SWAP2 SWAP1 POP JUMP JUMPDEST PUSH1 0x0 PUSH1 0x20 DUP3 ADD SWAP1 POP DUP2 DUP2 SUB PUSH1 0x0 DUP4 ADD MSTORE PUSH2 0x2917 DUP2 PUSH2 0x28DB JUMP JUMPDEST SWAP1 POP SWAP2 SWAP1 POP JUMP JUMPDEST PUSH32 0x4E487B7100000000000000000000000000000000000000000000000000000000 PUSH1 0x0 MSTORE PUSH1 0x22 PUSH1 0x4 MSTORE PUSH1 0x24 PUSH1 0x0 REVERT JUMPDEST PUSH1 0x0 PUSH1 0x2 DUP3 DIV SWAP1 POP PUSH1 0x1 DUP3 AND DUP1 PUSH2 0x2965 JUMPI PUSH1 0x7F DUP3 AND SWAP2 POP JUMPDEST PUSH1 0x20 DUP3 LT DUP2 SUB PUSH2 0x2978 JUMPI PUSH2 0x2977 PUSH2 0x291E JUMP JUMPDEST JUMPDEST POP SWAP2 SWAP1 POP JUMP JUMPDEST PUSH32 0x456E7469747920646F6573206E6F742065786973740000000000000000000000 PUSH1 0x0 DUP3 ADD MSTORE POP JUMP JUMPDEST PUSH1 0x0 PUSH2 0x29B4 PUSH1 0x15 DUP4 PUSH2 0x208A JUMP JUMPDEST SWAP2 POP PUSH2 0x29BF DUP3 PUSH2 0x297E JUMP JUMPDEST PUSH1 0x20 DUP3 ADD SWAP1 POP SWAP2 SWAP1 POP JUMP JUMPDEST PUSH1 0x0 PUSH1 0x20 DUP3 ADD SWAP1 POP DUP2 DUP2 SUB PUSH1 0x0 DUP4 ADD MSTORE PUSH2 0x29E3 DUP2 PUSH2 0x29A7 JUMP JUMPDEST SWAP1 POP SWAP2 SWAP1 POP JUMP JUMPDEST PUSH1 0x0 DUP2 SWAP1 POP SWAP3 SWAP2 POP POP JUMP JUMPDEST PUSH1 0x0 PUSH2 0x2A00 DUP3 PUSH2 0x207F JUMP JUMPDEST PUSH2 0x2A0A DUP2 DUP6 PUSH2 0x29EA JUMP JUMPDEST SWAP4 POP PUSH2 0x2A1A DUP2 DUP6 PUSH1 0x20 DUP7 ADD PUSH2 0x209B JUMP JUMPDEST DUP1 DUP5 ADD SWAP2 POP POP SWAP3 SWAP2 POP POP JUMP JUMPDEST PUSH1 0x0 PUSH2 0x2A32 DUP3 DUP5 PUSH2 0x29F5 JUMP JUMPDEST SWAP2 POP DUP2 SWAP1 POP SWAP3 SWAP2 POP POP JUMP JUMPDEST PUSH32 0x496E76616C696420616464726573732100000000000000000000000000000000 PUSH1 0x0 DUP3 ADD MSTORE POP JUMP JUMPDEST PUSH1 0x0 PUSH2 0x2A73 PUSH1 0x10 DUP4 PUSH2 0x208A JUMP JUMPDEST SWAP2 POP PUSH2 0x2A7E DUP3 PUSH2 0x2A3D JUMP JUMPDEST PUSH1 0x20 DUP3 ADD SWAP1 POP SWAP2 SWAP1 POP JUMP JUMPDEST PUSH1 0x0 PUSH1 0x20 DUP3 ADD SWAP1 POP DUP2 DUP2 SUB PUSH1 0x0 DUP4 ADD MSTORE PUSH2 0x2AA2 DUP2 PUSH2 0x2A66 JUMP JUMPDEST SWAP1 POP SWAP2 SWAP1 POP JUMP JUMPDEST PUSH1 0x0 DUP2 SWAP1 POP DUP2 PUSH1 0x0 MSTORE PUSH1 0x20 PUSH1 0x0 KECCAK256 SWAP1 POP SWAP2 SWAP1 POP JUMP JUMPDEST PUSH1 0x0 PUSH1 0x20 PUSH1 0x1F DUP4 ADD DIV SWAP1 POP SWAP2 SWAP1 POP JUMP JUMPDEST PUSH1 0x0 DUP3 DUP3 SHL SWAP1 POP SWAP3 SWAP2 POP POP JUMP JUMPDEST PUSH1 0x0 PUSH1 0x8 DUP4 MUL PUSH2 0x2B0B PUSH32 0xFFFFFFFFFFFFFFFFFFFFFFFFFFFFFFFFFFFFFFFFFFFFFFFFFFFFFFFFFFFFFFFF DUP3 PUSH2 0x2ACE JUMP JUMPDEST PUSH2 0x2B15 DUP7 DUP4 PUSH2 0x2ACE JUMP JUMPDEST SWAP6 POP DUP1 NOT DUP5 AND SWAP4 POP DUP1 DUP7 AND DUP5 OR SWAP3 POP POP POP SWAP4 SWAP3 POP POP POP JUMP JUMPDEST PUSH1 0x0 DUP2 SWAP1 POP SWAP2 SWAP1 POP JUMP JUMPDEST PUSH1 0x0 PUSH2 0x2B52 PUSH2 0x2B4D PUSH2 0x2B48 DUP5 PUSH2 0x201C JUMP JUMPDEST PUSH2 0x2B2D JUMP JUMPDEST PUSH2 0x201C JUMP JUMPDEST SWAP1 POP SWAP2 SWAP1 POP JUMP JUMPDEST PUSH1 0x0 DUP2 SWAP1 POP SWAP2 SWAP1 POP JUMP JUMPDEST PUSH2 0x2B6C DUP4 PUSH2 0x2B37 JUMP JUMPDEST PUSH2 0x2B80 PUSH2 0x2B78 DUP3 PUSH2 0x2B59 JUMP JUMPDEST DUP5 DUP5 SLOAD PUSH2 0x2ADB JUMP JUMPDEST DUP3 SSTORE POP POP POP POP JUMP JUMPDEST PUSH1 0x0 SWAP1 JUMP JUMPDEST PUSH2 0x2B95 PUSH2 0x2B88 JUMP JUMPDEST PUSH2 0x2BA0 DUP2 DUP5 DUP5 PUSH2 0x2B63 JUMP JUMPDEST POP POP POP JUMP JUMPDEST JUMPDEST DUP2 DUP2 LT ISZERO PUSH2 0x2BC4 JUMPI PUSH2 0x2BB9 PUSH1 0x0 DUP3 PUSH2 0x2B8D JUMP JUMPDEST PUSH1 0x1 DUP2 ADD SWAP1 POP PUSH2 0x2BA6 JUMP JUMPDEST POP POP JUMP JUMPDEST PUSH1 0x1F DUP3 GT ISZERO PUSH2 0x2C09 JUMPI PUSH2 0x2BDA DUP2 PUSH2 0x2AA9 JUMP JUMPDEST PUSH2 0x2BE3 DUP5 PUSH2 0x2ABE JUMP JUMPDEST DUP2 ADD PUSH1 0x20 DUP6 LT ISZERO PUSH2 0x2BF2 JUMPI DUP2 SWAP1 POP JUMPDEST PUSH2 0x2C06 PUSH2 0x2BFE DUP6 PUSH2 0x2ABE JUMP JUMPDEST DUP4 ADD DUP3 PUSH2 0x2BA5 JUMP JUMPDEST POP POP JUMPDEST POP POP POP JUMP JUMPDEST PUSH1 0x0 DUP3 DUP3 SHR SWAP1 POP SWAP3 SWAP2 POP POP JUMP JUMPDEST PUSH1 0x0 PUSH2 0x2C2C PUSH1 0x0 NOT DUP5 PUSH1 0x8 MUL PUSH2 0x2C0E JUMP JUMPDEST NOT DUP1 DUP4 AND SWAP2 POP POP SWAP3 SWAP2 POP POP JUMP JUMPDEST PUSH1 0x0 PUSH2 0x2C45 DUP4 DUP4 PUSH2 0x2C1B JUMP JUMPDEST SWAP2 POP DUP3 PUSH1 0x2 MUL DUP3 OR SWAP1 POP SWAP3 SWAP2 POP POP JUMP JUMPDEST PUSH2 0x2C5E DUP3 PUSH2 0x207F JUMP JUMPDEST PUSH8 0xFFFFFFFFFFFFFFFF DUP2 GT ISZERO PUSH2 0x2C77 JUMPI PUSH2 0x2C76 PUSH2 0x21C0 JUMP JUMPDEST JUMPDEST PUSH2 0x2C81 DUP3 SLOAD PUSH2 0x294D JUMP JUMPDEST PUSH2 0x2C8C DUP3 DUP3 DUP6 PUSH2 0x2BC8 JUMP JUMPDEST PUSH1 0x0 PUSH1 0x20 SWAP1 POP PUSH1 0x1F DUP4 GT PUSH1 0x1 DUP2 EQ PUSH2 0x2CBF JUMPI PUSH1 0x0 DUP5 ISZERO PUSH2 0x2CAD JUMPI DUP3 DUP8 ADD MLOAD SWAP1 POP JUMPDEST PUSH2 0x2CB7 DUP6 DUP3 PUSH2 0x2C39 JUMP JUMPDEST DUP7 SSTORE POP PUSH2 0x2D1F JUMP JUMPDEST PUSH1 0x1F NOT DUP5 AND PUSH2 0x2CCD DUP7 PUSH2 0x2AA9 JUMP JUMPDEST PUSH1 0x0 JUMPDEST DUP3 DUP2 LT ISZERO PUSH2 0x2CF5 JUMPI DUP5 DUP10 ADD MLOAD DUP3 SSTORE PUSH1 0x1 DUP3 ADD SWAP2 POP PUSH1 0x20 DUP6 ADD SWAP5 POP PUSH1 0x20 DUP2 ADD SWAP1 POP PUSH2 0x2CD0 JUMP JUMPDEST DUP7 DUP4 LT ISZERO PUSH2 0x2D12 JUMPI DUP5 DUP10 ADD MLOAD PUSH2 0x2D0E PUSH1 0x1F DUP10 AND DUP3 PUSH2 0x2C1B JUMP JUMPDEST DUP4 SSTORE POP JUMPDEST PUSH1 0x1 PUSH1 0x2 DUP9 MUL ADD DUP9 SSTORE POP POP POP JUMPDEST POP POP POP POP POP POP JUMP JUMPDEST PUSH32 0x55736572206164646564207375636365737366756C6C79210000000000000000 PUSH1 0x0 DUP3 ADD MSTORE POP JUMP JUMPDEST PUSH1 0x0 PUSH2 0x2D5D PUSH1 0x18 DUP4 PUSH2 0x208A JUMP JUMPDEST SWAP2 POP PUSH2 0x2D68 DUP3 PUSH2 0x2D27 JUMP JUMPDEST PUSH1 0x20 DUP3 ADD SWAP1 POP SWAP2 SWAP1 POP JUMP JUMPDEST PUSH1 0x0 PUSH1 0x60 DUP3 ADD SWAP1 POP DUP2 DUP2 SUB PUSH1 0x0 DUP4 ADD MSTORE PUSH2 0x2D8C DUP2 PUSH2 0x2D50 JUMP JUMPDEST SWAP1 POP DUP2 DUP2 SUB PUSH1 0x20 DUP4 ADD MSTORE PUSH2 0x2DA0 DUP2 DUP6 PUSH2 0x20D6 JUMP JUMPDEST SWAP1 POP DUP2 DUP2 SUB PUSH1 0x40 DUP4 ADD MSTORE PUSH2 0x2DB4 DUP2 DUP5 PUSH2 0x20D6 JUMP JUMPDEST SWAP1 POP SWAP4 SWAP3 POP POP POP JUMP JUMPDEST PUSH32 0x4E487B7100000000000000000000000000000000000000000000000000000000 PUSH1 0x0 MSTORE PUSH1 0x32 PUSH1 0x4 MSTORE PUSH1 0x24 PUSH1 0x0 REVERT JUMPDEST PUSH32 0x4E487B7100000000000000000000000000000000000000000000000000000000 PUSH1 0x0 MSTORE PUSH1 0x11 PUSH1 0x4 MSTORE PUSH1 0x24 PUSH1 0x0 REVERT JUMPDEST PUSH1 0x0 PUSH2 0x2E26 DUP3 PUSH2 0x201C JUMP JUMPDEST SWAP2 POP PUSH2 0x2E31 DUP4 PUSH2 0x201C JUMP JUMPDEST SWAP3 POP DUP3 DUP3 SUB SWAP1 POP DUP2 DUP2 GT ISZERO PUSH2 0x2E49 JUMPI PUSH2 0x2E48 PUSH2 0x2DEC JUMP JUMPDEST JUMPDEST SWAP3 SWAP2 POP POP JUMP JUMPDEST PUSH32 0x4E487B7100000000000000000000000000000000000000000000000000000000 PUSH1 0x0 MSTORE PUSH1 0x31 PUSH1 0x4 MSTORE PUSH1 0x24 PUSH1 0x0 REVERT JUMPDEST PUSH1 0x0 PUSH2 0x2E89 DUP3 PUSH2 0x201C JUMP JUMPDEST SWAP2 POP PUSH32 0xFFFFFFFFFFFFFFFFFFFFFFFFFFFFFFFFFFFFFFFFFFFFFFFFFFFFFFFFFFFFFFFF DUP3 SUB PUSH2 0x2EBB JUMPI PUSH2 0x2EBA PUSH2 0x2DEC JUMP JUMPDEST JUMPDEST PUSH1 0x1 DUP3 ADD SWAP1 POP SWAP2 SWAP1 POP JUMP JUMPDEST PUSH32 0x557365722064656C65746564207375636365737366756C6C7921000000000000 PUSH1 0x0 DUP3 ADD MSTORE POP JUMP JUMPDEST PUSH1 0x0 PUSH2 0x2EFC PUSH1 0x1A DUP4 PUSH2 0x208A JUMP JUMPDEST SWAP2 POP PUSH2 0x2F07 DUP3 PUSH2 0x2EC6 JUMP JUMPDEST PUSH1 0x20 DUP3 ADD SWAP1 POP SWAP2 SWAP1 POP JUMP JUMPDEST PUSH1 0x0 PUSH1 0x60 DUP3 ADD SWAP1 POP DUP2 DUP2 SUB PUSH1 0x0 DUP4 ADD MSTORE PUSH2 0x2F2B DUP2 PUSH2 0x2EEF JUMP JUMPDEST SWAP1 POP DUP2 DUP2 SUB PUSH1 0x20 DUP4 ADD MSTORE PUSH2 0x2F3F DUP2 DUP6 PUSH2 0x20D6 JUMP JUMPDEST SWAP1 POP DUP2 DUP2 SUB PUSH1 0x40 DUP4 ADD MSTORE PUSH2 0x2F53 DUP2 DUP5 PUSH2 0x20D6 JUMP JUMPDEST SWAP1 POP SWAP4 SWAP3 POP POP POP JUMP JUMPDEST PUSH32 0x4F6E6C7920636F6E7472616374206F776E65722063616E2063616C6C20746869 PUSH1 0x0 DUP3 ADD MSTORE PUSH32 0x732066756E6374696F6E00000000000000000000000000000000000000000000 PUSH1 0x20 DUP3 ADD MSTORE POP JUMP JUMPDEST PUSH1 0x0 PUSH2 0x2FB8 PUSH1 0x2A DUP4 PUSH2 0x208A JUMP JUMPDEST SWAP2 POP PUSH2 0x2FC3 DUP3 PUSH2 0x2F5C JUMP JUMPDEST PUSH1 0x40 DUP3 ADD SWAP1 POP SWAP2 SWAP1 POP JUMP JUMPDEST PUSH1 0x0 PUSH1 0x20 DUP3 ADD SWAP1 POP DUP2 DUP2 SUB PUSH1 0x0 DUP4 ADD MSTORE PUSH2 0x2FE7 DUP2 PUSH2 0x2FAB JUMP JUMPDEST SWAP1 POP SWAP2 SWAP1 POP JUMP JUMPDEST PUSH32 0x4F776E6572206368616E676564207375636365737366756C6C79210000000000 PUSH1 0x0 DUP3 ADD MSTORE POP JUMP JUMPDEST PUSH1 0x0 PUSH2 0x3024 PUSH1 0x1B DUP4 PUSH2 0x208A JUMP JUMPDEST SWAP2 POP PUSH2 0x302F DUP3 PUSH2 0x2FEE JUMP JUMPDEST PUSH1 0x20 DUP3 ADD SWAP1 POP SWAP2 SWAP1 POP JUMP JUMPDEST PUSH1 0x0 PUSH1 0x60 DUP3 ADD SWAP1 POP DUP2 DUP2 SUB PUSH1 0x0 DUP4 ADD MSTORE PUSH2 0x3053 DUP2 PUSH2 0x3017 JUMP JUMPDEST SWAP1 POP PUSH2 0x3062 PUSH1 0x20 DUP4 ADD DUP6 PUSH2 0x23DB JUMP JUMPDEST PUSH2 0x306F PUSH1 0x40 DUP4 ADD DUP5 PUSH2 0x23DB JUMP JUMPDEST SWAP4 SWAP3 POP POP POP JUMP JUMPDEST PUSH32 0x456E7469747920494420616C7265616479206578697374730000000000000000 PUSH1 0x0 DUP3 ADD MSTORE POP JUMP JUMPDEST PUSH1 0x0 PUSH2 0x30AC PUSH1 0x18 DUP4 PUSH2 0x208A JUMP JUMPDEST SWAP2 POP PUSH2 0x30B7 DUP3 PUSH2 0x3076 JUMP JUMPDEST PUSH1 0x20 DUP3 ADD SWAP1 POP SWAP2 SWAP1 POP JUMP JUMPDEST PUSH1 0x0 PUSH1 0x20 DUP3 ADD SWAP1 POP DUP2 DUP2 SUB PUSH1 0x0 DUP4 ADD MSTORE PUSH2 0x30DB DUP2 PUSH2 0x309F JUMP JUMPDEST SWAP1 POP SWAP2 SWAP1 POP JUMP JUMPDEST PUSH32 0x456E74697479206E616D6520616C726561647920657869737473000000000000 PUSH1 0x0 DUP3 ADD MSTORE POP JUMP JUMPDEST PUSH1 0x0 PUSH2 0x3118 PUSH1 0x1A DUP4 PUSH2 0x208A JUMP JUMPDEST SWAP2 POP PUSH2 0x3123 DUP3 PUSH2 0x30E2 JUMP JUMPDEST PUSH1 0x20 DUP3 ADD SWAP1 POP SWAP2 SWAP1 POP JUMP JUMPDEST PUSH1 0x0 PUSH1 0x20 DUP3 ADD SWAP1 POP DUP2 DUP2 SUB PUSH1 0x0 DUP4 ADD MSTORE PUSH2 0x3147 DUP2 PUSH2 0x310B JUMP JUMPDEST SWAP1 POP SWAP2 SWAP1 POP JUMP JUMPDEST PUSH32 0x4E657720656E7469747920616464656421000000000000000000000000000000 PUSH1 0x0 DUP3 ADD MSTORE POP JUMP JUMPDEST PUSH1 0x0 PUSH2 0x3184 PUSH1 0x11 DUP4 PUSH2 0x208A JUMP JUMPDEST SWAP2 POP PUSH2 0x318F DUP3 PUSH2 0x314E JUMP JUMPDEST PUSH1 0x20 DUP3 ADD SWAP1 POP SWAP2 SWAP1 POP JUMP JUMPDEST PUSH1 0x0 PUSH1 0x80 DUP3 ADD SWAP1 POP DUP2 DUP2 SUB PUSH1 0x0 DUP4 ADD MSTORE PUSH2 0x31B3 DUP2 PUSH2 0x3177 JUMP JUMPDEST SWAP1 POP PUSH2 0x31C2 PUSH1 0x20 DUP4 ADD DUP7 PUSH2 0x2334 JUMP JUMPDEST DUP2 DUP2 SUB PUSH1 0x40 DUP4 ADD MSTORE PUSH2 0x31D4 DUP2 DUP6 PUSH2 0x20D6 JUMP JUMPDEST SWAP1 POP PUSH2 0x31E3 PUSH1 0x60 DUP4 ADD DUP5 PUSH2 0x2177 JUMP JUMPDEST SWAP5 SWAP4 POP POP POP POP JUMP JUMPDEST PUSH32 0x456E746974792064656C65746564207375636365737366756C6C792100000000 PUSH1 0x0 DUP3 ADD MSTORE POP JUMP JUMPDEST PUSH1 0x0 PUSH2 0x3221 PUSH1 0x1C DUP4 PUSH2 0x208A JUMP JUMPDEST SWAP2 POP PUSH2 0x322C DUP3 PUSH2 0x31EB JUMP JUMPDEST PUSH1 0x20 DUP3 ADD SWAP1 POP SWAP2 SWAP1 POP JUMP JUMPDEST PUSH1 0x0 PUSH1 0x80 DUP3 ADD SWAP1 POP DUP2 DUP2 SUB PUSH1 0x0 DUP4 ADD MSTORE PUSH2 0x3250 DUP2 PUSH2 0x3214 JUMP JUMPDEST SWAP1 POP PUSH2 0x325F PUSH1 0x20 DUP4 ADD DUP7 PUSH2 0x2334 JUMP JUMPDEST DUP2 DUP2 SUB PUSH1 0x40 DUP4 ADD MSTORE PUSH2 0x3271 DUP2 DUP6 PUSH2 0x20D6 JUMP JUMPDEST SWAP1 POP PUSH2 0x3280 PUSH1 0x60 DUP4 ADD DUP5 PUSH2 0x2177 JUMP JUMPDEST SWAP5 SWAP4 POP POP POP POP JUMP JUMPDEST PUSH32 0x496E76616C696420526F6C650000000000000000000000000000000000000000 PUSH1 0x0 DUP3 ADD MSTORE POP JUMP JUMPDEST PUSH1 0x0 PUSH2 0x32BE PUSH1 0xC DUP4 PUSH2 0x208A JUMP JUMPDEST SWAP2 POP PUSH2 0x32C9 DUP3 PUSH2 0x3288 JUMP JUMPDEST PUSH1 0x20 DUP3 ADD SWAP1 POP SWAP2 SWAP1 POP JUMP JUMPDEST PUSH1 0x0 PUSH1 0x20 DUP3 ADD SWAP1 POP DUP2 DUP2 SUB PUSH1 0x0 DUP4 ADD MSTORE PUSH2 0x32ED DUP2 PUSH2 0x32B1 JUMP JUMPDEST SWAP1 POP SWAP2 SWAP1 POP JUMP INVALID LOG2 PUSH5 0x6970667358 0x22 SLT KECCAK256 0x28 0xCF 0xCE SELFBALANCE SWAP3 0xED SWAP12 CALLVALUE DUP11 CALLDATACOPY CALLDATASIZE 0x49 CHAINID 0x4F 0xC5 0xCE STATICCALL 0xC1 0xD6 0xE2 CALLER 0xEC SWAP3 0x4F 0xED ORIGIN REVERT PUSH23 0xA989C56764736F6C634300081300330000000000000000 "
				},
				"gasEstimates": {
					"creation": {
						"codeDepositCost": "2619600",
						"executionCost": "infinite",
						"totalCost": "infinite"
					},
					"external": {
						"addEntity(uint256,string,uint8)": "infinite",
						"addUser(address,string,uint8)": "infinite",
						"changeOwner(address)": "infinite",
						"contractAuthor()": "infinite",
						"deleteEntity(uint256)": "infinite",
						"deleteUser(address)": "infinite",
						"entities(uint256)": "infinite",
						"getAllUsers()": "infinite",
						"getEntitiesByType(uint8)": "infinite",
						"getEntityById(uint256)": "infinite",
						"getEntityByName(string)": "infinite",
						"getUserByAddress(address)": "infinite",
						"owner()": "2556",
						"setUserRole(address,uint8)": "27338",
						"userAddresses(uint256)": "4979",
						"users(address)": "infinite"
					},
					"internal": {
						"entityTypeToString(enum Main.EntityType)": "infinite",
						"roleToString(enum Main.Role)": "infinite"
					}
				},
				"methodIdentifiers": {
					"addEntity(uint256,string,uint8)": "c6fbae04",
					"addUser(address,string,uint8)": "40d26854",
					"changeOwner(address)": "a6f9dae1",
					"contractAuthor()": "734e1ac3",
					"deleteEntity(uint256)": "cb9e2755",
					"deleteUser(address)": "5c60f226",
					"entities(uint256)": "6331883b",
					"getAllUsers()": "e2842d79",
					"getEntitiesByType(uint8)": "f61af8ab",
					"getEntityById(uint256)": "32c227a9",
					"getEntityByName(string)": "3e88a4e2",
					"getUserByAddress(address)": "69c212f6",
					"owner()": "8da5cb5b",
					"setUserRole(address,uint8)": "03a69611",
					"userAddresses(uint256)": "502c9bd5",
					"users(address)": "a87430ba"
				}
			},
			"storageLayout": {
				"storage": [
					{
						"astId": 3,
						"contract": "contracts/Main.sol:Main",
						"label": "owner",
						"offset": 0,
						"slot": "0",
						"type": "t_address"
					},
					{
						"astId": 6,
						"contract": "contracts/Main.sol:Main",
						"label": "contractAuthor",
						"offset": 0,
						"slot": "1",
						"type": "t_string_storage"
					},
					{
						"astId": 85,
						"contract": "contracts/Main.sol:Main",
						"label": "users",
						"offset": 0,
						"slot": "2",
						"type": "t_mapping(t_address,t_struct(User)30_storage)"
					},
					{
						"astId": 88,
						"contract": "contracts/Main.sol:Main",
						"label": "userAddresses",
						"offset": 0,
						"slot": "3",
						"type": "t_array(t_address)dyn_storage"
					},
					{
						"astId": 93,
						"contract": "contracts/Main.sol:Main",
						"label": "entities",
						"offset": 0,
						"slot": "4",
						"type": "t_mapping(t_uint256,t_struct(Entity)24_storage)"
					},
					{
						"astId": 97,
						"contract": "contracts/Main.sol:Main",
						"label": "nameToId",
						"offset": 0,
						"slot": "5",
						"type": "t_mapping(t_string_memory_ptr,t_uint256)"
					},
					{
						"astId": 103,
						"contract": "contracts/Main.sol:Main",
						"label": "entitiesByType",
						"offset": 0,
						"slot": "6",
						"type": "t_mapping(t_enum(EntityType)18,t_array(t_uint256)dyn_storage)"
					}
				],
				"types": {
					"t_address": {
						"encoding": "inplace",
						"label": "address",
						"numberOfBytes": "20"
					},
					"t_array(t_address)dyn_storage": {
						"base": "t_address",
						"encoding": "dynamic_array",
						"label": "address[]",
						"numberOfBytes": "32"
					},
					"t_array(t_uint256)dyn_storage": {
						"base": "t_uint256",
						"encoding": "dynamic_array",
						"label": "uint256[]",
						"numberOfBytes": "32"
					},
					"t_enum(EntityType)18": {
						"encoding": "inplace",
						"label": "enum Main.EntityType",
						"numberOfBytes": "1"
					},
					"t_enum(Role)12": {
						"encoding": "inplace",
						"label": "enum Main.Role",
						"numberOfBytes": "1"
					},
					"t_mapping(t_address,t_struct(User)30_storage)": {
						"encoding": "mapping",
						"key": "t_address",
						"label": "mapping(address => struct Main.User)",
						"numberOfBytes": "32",
						"value": "t_struct(User)30_storage"
					},
					"t_mapping(t_enum(EntityType)18,t_array(t_uint256)dyn_storage)": {
						"encoding": "mapping",
						"key": "t_enum(EntityType)18",
						"label": "mapping(enum Main.EntityType => uint256[])",
						"numberOfBytes": "32",
						"value": "t_array(t_uint256)dyn_storage"
					},
					"t_mapping(t_string_memory_ptr,t_uint256)": {
						"encoding": "mapping",
						"key": "t_string_memory_ptr",
						"label": "mapping(string => uint256)",
						"numberOfBytes": "32",
						"value": "t_uint256"
					},
					"t_mapping(t_uint256,t_struct(Entity)24_storage)": {
						"encoding": "mapping",
						"key": "t_uint256",
						"label": "mapping(uint256 => struct Main.Entity)",
						"numberOfBytes": "32",
						"value": "t_struct(Entity)24_storage"
					},
					"t_string_memory_ptr": {
						"encoding": "bytes",
						"label": "string",
						"numberOfBytes": "32"
					},
					"t_string_storage": {
						"encoding": "bytes",
						"label": "string",
						"numberOfBytes": "32"
					},
					"t_struct(Entity)24_storage": {
						"encoding": "inplace",
						"label": "struct Main.Entity",
						"members": [
							{
								"astId": 20,
								"contract": "contracts/Main.sol:Main",
								"label": "name",
								"offset": 0,
								"slot": "0",
								"type": "t_string_storage"
							},
							{
								"astId": 23,
								"contract": "contracts/Main.sol:Main",
								"label": "entityType",
								"offset": 0,
								"slot": "1",
								"type": "t_enum(EntityType)18"
							}
						],
						"numberOfBytes": "64"
					},
					"t_struct(User)30_storage": {
						"encoding": "inplace",
						"label": "struct Main.User",
						"members": [
							{
								"astId": 26,
								"contract": "contracts/Main.sol:Main",
								"label": "name",
								"offset": 0,
								"slot": "0",
								"type": "t_string_storage"
							},
							{
								"astId": 29,
								"contract": "contracts/Main.sol:Main",
								"label": "role",
								"offset": 0,
								"slot": "1",
								"type": "t_enum(Role)12"
							}
						],
						"numberOfBytes": "64"
					},
					"t_uint256": {
						"encoding": "inplace",
						"label": "uint256",
						"numberOfBytes": "32"
					}
				}
			},
			"userdoc": {
				"kind": "user",
				"methods": {},
				"version": 1
			}
		}
	}
}