{
	"contracts/Main.sol": {
		"Main": {
			"abi": [
				{
					"inputs": [],
					"stateMutability": "nonpayable",
					"type": "constructor"
				},
				{
					"anonymous": false,
					"inputs": [
						{
							"indexed": false,
							"internalType": "string",
							"name": "description",
							"type": "string"
						},
						{
							"indexed": false,
							"internalType": "string",
							"name": "name",
							"type": "string"
						},
						{
							"indexed": false,
							"internalType": "enum Main.EntityType",
							"name": "entityType",
							"type": "uint8"
						}
					],
					"name": "EntityAdded",
					"type": "event"
				},
				{
					"anonymous": false,
					"inputs": [
						{
							"indexed": false,
							"internalType": "string",
							"name": "description",
							"type": "string"
						},
						{
							"indexed": false,
							"internalType": "string",
							"name": "name",
							"type": "string"
						},
						{
							"indexed": false,
							"internalType": "enum Main.EntityType",
							"name": "entityType",
							"type": "uint8"
						}
					],
					"name": "EntityDeleted",
					"type": "event"
				},
				{
					"anonymous": false,
					"inputs": [
						{
							"indexed": false,
							"internalType": "string",
							"name": "description",
							"type": "string"
						},
						{
							"indexed": false,
							"internalType": "address",
							"name": "currentOwner",
							"type": "address"
						},
						{
							"indexed": false,
							"internalType": "address",
							"name": "newOwner",
							"type": "address"
						}
					],
					"name": "OwnerChanged",
					"type": "event"
				},
				{
					"anonymous": false,
					"inputs": [
						{
							"indexed": true,
							"internalType": "uint256",
							"name": "productId",
							"type": "uint256"
						},
						{
							"indexed": false,
							"internalType": "string",
							"name": "name",
							"type": "string"
						}
					],
					"name": "ProductAdded",
					"type": "event"
				},
				{
					"anonymous": false,
					"inputs": [
						{
							"indexed": false,
							"internalType": "string",
							"name": "name",
							"type": "string"
						}
					],
					"name": "ProductDeleted",
					"type": "event"
				},
				{
					"anonymous": false,
					"inputs": [
						{
							"indexed": false,
							"internalType": "string",
							"name": "name",
							"type": "string"
						}
					],
					"name": "ProductUpdated",
					"type": "event"
				},
				{
					"anonymous": false,
					"inputs": [
						{
							"indexed": false,
							"internalType": "string",
							"name": "description",
							"type": "string"
						},
						{
							"indexed": true,
							"internalType": "address",
							"name": "userAddress",
							"type": "address"
						},
						{
							"indexed": false,
							"internalType": "string",
							"name": "name",
							"type": "string"
						},
						{
							"indexed": false,
							"internalType": "string",
							"name": "role",
							"type": "string"
						}
					],
					"name": "UserAdded",
					"type": "event"
				},
				{
					"anonymous": false,
					"inputs": [
						{
							"indexed": false,
							"internalType": "string",
							"name": "description",
							"type": "string"
						},
						{
							"indexed": true,
							"internalType": "address",
							"name": "userAddress",
							"type": "address"
						},
						{
							"indexed": false,
							"internalType": "string",
							"name": "name",
							"type": "string"
						},
						{
							"indexed": false,
							"internalType": "string",
							"name": "role",
							"type": "string"
						}
					],
					"name": "UserDeleted",
					"type": "event"
				},
				{
					"inputs": [
						{
							"internalType": "uint256",
							"name": "",
							"type": "uint256"
						},
						{
							"internalType": "uint256",
							"name": "",
							"type": "uint256"
						}
					],
					"name": "ProdToTransInfo",
					"outputs": [
						{
							"internalType": "string",
							"name": "origin",
							"type": "string"
						},
						{
							"internalType": "string",
							"name": "destination",
							"type": "string"
						},
						{
							"internalType": "uint256",
							"name": "dateOfDeparture",
							"type": "uint256"
						},
						{
							"internalType": "uint256",
							"name": "estDateOfArrival",
							"type": "uint256"
						},
						{
							"components": [
								{
									"internalType": "string",
									"name": "name",
									"type": "string"
								},
								{
									"internalType": "enum Main.EntityType",
									"name": "entityType",
									"type": "uint8"
								}
							],
							"internalType": "struct Main.Entity",
							"name": "currentEntity",
							"type": "tuple"
						}
					],
					"stateMutability": "view",
					"type": "function"
				},
				{
					"inputs": [
						{
							"internalType": "string",
							"name": "ProductName",
							"type": "string"
						},
						{
							"internalType": "string",
							"name": "origin",
							"type": "string"
						},
						{
							"internalType": "string",
							"name": "destination",
							"type": "string"
						},
						{
							"internalType": "uint256",
							"name": "dateOfDeparture",
							"type": "uint256"
						},
						{
							"internalType": "uint256",
							"name": "estDateOfArrival",
							"type": "uint256"
						},
						{
							"internalType": "string",
							"name": "EntityName",
							"type": "string"
						},
						{
							"internalType": "enum Main.EntityType",
							"name": "entityType",
							"type": "uint8"
						}
					],
					"name": "UpdateStatus",
					"outputs": [],
					"stateMutability": "nonpayable",
					"type": "function"
				},
				{
					"inputs": [
						{
							"internalType": "string",
							"name": "productName",
							"type": "string"
						}
					],
					"name": "ViewProductHistory",
					"outputs": [
						{
							"components": [
								{
									"internalType": "string",
									"name": "origin",
									"type": "string"
								},
								{
									"internalType": "string",
									"name": "destination",
									"type": "string"
								},
								{
									"internalType": "uint256",
									"name": "dateOfDeparture",
									"type": "uint256"
								},
								{
									"internalType": "uint256",
									"name": "estDateOfArrival",
									"type": "uint256"
								},
								{
									"components": [
										{
											"internalType": "string",
											"name": "name",
											"type": "string"
										},
										{
											"internalType": "enum Main.EntityType",
											"name": "entityType",
											"type": "uint8"
										}
									],
									"internalType": "struct Main.Entity",
									"name": "currentEntity",
									"type": "tuple"
								}
							],
							"internalType": "struct Main.TransportationInfo[]",
							"name": "",
							"type": "tuple[]"
						},
						{
							"internalType": "string",
							"name": "",
							"type": "string"
						}
					],
					"stateMutability": "view",
					"type": "function"
				},
				{
					"inputs": [
						{
							"internalType": "string",
							"name": "_name",
							"type": "string"
						},
						{
							"internalType": "enum Main.EntityType",
							"name": "entityType",
							"type": "uint8"
						}
					],
					"name": "addEntity",
					"outputs": [],
					"stateMutability": "nonpayable",
					"type": "function"
				},
				{
					"inputs": [
						{
							"internalType": "string",
							"name": "_name",
							"type": "string"
						},
						{
							"internalType": "uint256",
							"name": "_amount",
							"type": "uint256"
						},
						{
							"internalType": "string",
							"name": "_description",
							"type": "string"
						}
					],
					"name": "addProduct",
					"outputs": [],
					"stateMutability": "nonpayable",
					"type": "function"
				},
				{
					"inputs": [
						{
							"internalType": "address",
							"name": "_userAddress",
							"type": "address"
						},
						{
							"internalType": "string",
							"name": "_name",
							"type": "string"
						},
						{
							"internalType": "enum Main.Role",
							"name": "_role",
							"type": "uint8"
						}
					],
					"name": "addUser",
					"outputs": [],
					"stateMutability": "nonpayable",
					"type": "function"
				},
				{
					"inputs": [
						{
							"internalType": "address",
							"name": "newOwner",
							"type": "address"
						}
					],
					"name": "changeOwner",
					"outputs": [],
					"stateMutability": "nonpayable",
					"type": "function"
				},
				{
					"inputs": [],
					"name": "contractAuthor",
					"outputs": [
						{
							"internalType": "string",
							"name": "",
							"type": "string"
						}
					],
					"stateMutability": "view",
					"type": "function"
				},
				{
					"inputs": [
						{
							"internalType": "string",
							"name": "_name",
							"type": "string"
						}
					],
					"name": "deleteEntity",
					"outputs": [],
					"stateMutability": "nonpayable",
					"type": "function"
				},
				{
					"inputs": [
						{
							"internalType": "string",
							"name": "ProductName",
							"type": "string"
						}
					],
					"name": "deleteProduct",
					"outputs": [],
					"stateMutability": "nonpayable",
					"type": "function"
				},
				{
					"inputs": [
						{
							"internalType": "address",
							"name": "_userAddress",
							"type": "address"
						}
					],
					"name": "deleteUser",
					"outputs": [],
					"stateMutability": "nonpayable",
					"type": "function"
				},
				{
					"inputs": [
						{
							"internalType": "string",
							"name": "",
							"type": "string"
						}
					],
					"name": "entities",
					"outputs": [
						{
							"internalType": "string",
							"name": "name",
							"type": "string"
						},
						{
							"internalType": "enum Main.EntityType",
							"name": "entityType",
							"type": "uint8"
						}
					],
					"stateMutability": "view",
					"type": "function"
				},
				{
					"inputs": [],
					"name": "getAllUsers",
					"outputs": [
						{
							"components": [
								{
									"internalType": "string",
									"name": "name",
									"type": "string"
								},
								{
									"internalType": "enum Main.Role",
									"name": "role",
									"type": "uint8"
								}
							],
							"internalType": "struct Main.User[]",
							"name": "",
							"type": "tuple[]"
						}
					],
					"stateMutability": "view",
					"type": "function"
				},
				{
					"inputs": [
						{
							"internalType": "uint256",
							"name": "_productId",
							"type": "uint256"
						}
					],
					"name": "getAmount",
					"outputs": [
						{
							"internalType": "uint256",
							"name": "",
							"type": "uint256"
						}
					],
					"stateMutability": "view",
					"type": "function"
				},
				{
					"inputs": [
						{
							"internalType": "enum Main.EntityType",
							"name": "entityType",
							"type": "uint8"
						}
					],
					"name": "getEntitiesByType",
					"outputs": [
						{
							"internalType": "string[]",
							"name": "",
							"type": "string[]"
						}
					],
					"stateMutability": "view",
					"type": "function"
				},
				{
					"inputs": [
						{
							"internalType": "string",
							"name": "name",
							"type": "string"
						}
					],
					"name": "getEntityByName",
					"outputs": [
						{
							"components": [
								{
									"internalType": "string",
									"name": "name",
									"type": "string"
								},
								{
									"internalType": "enum Main.EntityType",
									"name": "entityType",
									"type": "uint8"
								}
							],
							"internalType": "struct Main.Entity",
							"name": "entity",
							"type": "tuple"
						}
					],
					"stateMutability": "view",
					"type": "function"
				},
				{
					"inputs": [
						{
							"internalType": "string",
							"name": "productName",
							"type": "string"
						}
					],
					"name": "getProduct",
					"outputs": [
						{
							"components": [
								{
									"internalType": "uint256",
									"name": "id",
									"type": "uint256"
								},
								{
									"internalType": "string",
									"name": "name",
									"type": "string"
								},
								{
									"internalType": "uint256",
									"name": "amount",
									"type": "uint256"
								},
								{
									"internalType": "string",
									"name": "description",
									"type": "string"
								}
							],
							"internalType": "struct Main.Product",
							"name": "",
							"type": "tuple"
						}
					],
					"stateMutability": "view",
					"type": "function"
				},
				{
					"inputs": [
						{
							"internalType": "address",
							"name": "_userAddress",
							"type": "address"
						}
					],
					"name": "getUserByAddress",
					"outputs": [
						{
							"components": [
								{
									"internalType": "string",
									"name": "name",
									"type": "string"
								},
								{
									"internalType": "enum Main.Role",
									"name": "role",
									"type": "uint8"
								}
							],
							"internalType": "struct Main.User",
							"name": "",
							"type": "tuple"
						}
					],
					"stateMutability": "view",
					"type": "function"
				},
				{
					"inputs": [],
					"name": "owner",
					"outputs": [
						{
							"internalType": "address",
							"name": "",
							"type": "address"
						}
					],
					"stateMutability": "view",
					"type": "function"
				},
				{
					"inputs": [],
					"name": "productCount",
					"outputs": [
						{
							"internalType": "uint256",
							"name": "",
							"type": "uint256"
						}
					],
					"stateMutability": "view",
					"type": "function"
				},
				{
					"inputs": [
						{
							"internalType": "uint256",
							"name": "",
							"type": "uint256"
						}
					],
					"name": "products",
					"outputs": [
						{
							"internalType": "uint256",
							"name": "id",
							"type": "uint256"
						},
						{
							"internalType": "string",
							"name": "name",
							"type": "string"
						},
						{
							"internalType": "uint256",
							"name": "amount",
							"type": "uint256"
						},
						{
							"internalType": "string",
							"name": "description",
							"type": "string"
						}
					],
					"stateMutability": "view",
					"type": "function"
				},
				{
					"inputs": [
						{
							"internalType": "address",
							"name": "_userAddress",
							"type": "address"
						},
						{
							"internalType": "enum Main.Role",
							"name": "_role",
							"type": "uint8"
						}
					],
					"name": "setUserRole",
					"outputs": [],
					"stateMutability": "nonpayable",
					"type": "function"
				},
				{
					"inputs": [
						{
							"internalType": "string",
							"name": "name",
							"type": "string"
						},
						{
							"internalType": "string",
							"name": "newName",
							"type": "string"
						},
						{
							"internalType": "uint256",
							"name": "newAmount",
							"type": "uint256"
						},
						{
							"internalType": "string",
							"name": "newDescription",
							"type": "string"
						}
					],
					"name": "updateProduct",
					"outputs": [],
					"stateMutability": "nonpayable",
					"type": "function"
				},
				{
					"inputs": [
						{
							"internalType": "uint256",
							"name": "",
							"type": "uint256"
						}
					],
					"name": "userAddresses",
					"outputs": [
						{
							"internalType": "address",
							"name": "",
							"type": "address"
						}
					],
					"stateMutability": "view",
					"type": "function"
				},
				{
					"inputs": [
						{
							"internalType": "address",
							"name": "",
							"type": "address"
						}
					],
					"name": "users",
					"outputs": [
						{
							"internalType": "string",
							"name": "name",
							"type": "string"
						},
						{
							"internalType": "enum Main.Role",
							"name": "role",
							"type": "uint8"
						}
					],
					"stateMutability": "view",
					"type": "function"
				}
			],
			"devdoc": {
				"kind": "dev",
				"methods": {},
				"version": 1
			},
			"evm": {
				"assembly": "    /* \"contracts/Main.sol\":334:375  string public contractAuthor = 'MGT TEAM' */\n  0xc0\n    /* \"contracts/Main.sol\":250:14574  contract Main{... */\n  0x40\n    /* \"contracts/Main.sol\":334:375  string public contractAuthor = 'MGT TEAM' */\n  mstore\n  0x08\n    /* \"contracts/Main.sol\":250:14574  contract Main{... */\n  0x80\n    /* \"contracts/Main.sol\":334:375  string public contractAuthor = 'MGT TEAM' */\n  swap1\n  dup2\n  mstore\n  mstore(0xa0, shl(0xc0, 0x4d4754205445414d))\n  0x01\n  swap1\n  tag_1\n  swap1\n  dup3\n  tag_2\n  jump\t// in\ntag_1:\n  pop\n    /* \"contracts/Main.sol\":3226:3490  constructor(){... */\n  callvalue\n  dup1\n  iszero\n  tag_3\n  jumpi\n  0x00\n  dup1\n  revert\ntag_3:\n  pop\n    /* \"contracts/Main.sol\":3250:3255  owner */\n  0x00\n    /* \"contracts/Main.sol\":3250:3268  owner = msg.sender */\n  dup1\n  sload\n  not(sub(shl(0xa0, 0x01), 0x01))\n  and\n    /* \"contracts/Main.sol\":3258:3268  msg.sender */\n  caller\n    /* \"contracts/Main.sol\":3250:3268  owner = msg.sender */\n  or\n  swap1\n  sstore\n    /* \"contracts/Main.sol\":3386:3417  User(contractAuthor,Role.Admin) */\n  0x40\n  dup1\n  mload\n  dup1\n  dup3\n  add\n  swap1\n  swap2\n  mstore\n    /* \"contracts/Main.sol\":3250:3268  owner = msg.sender */\n  0x01\n    /* \"contracts/Main.sol\":3386:3417  User(contractAuthor,Role.Admin) */\n  dup1\n  sload\n  dup3\n  swap2\n    /* \"contracts/Main.sol\":3250:3268  owner = msg.sender */\n  swap1\n    /* \"contracts/Main.sol\":3386:3417  User(contractAuthor,Role.Admin) */\n  tag_6\n  swap1\n  tag_7\n  jump\t// in\ntag_6:\n  dup1\n  0x1f\n  add\n  0x20\n  dup1\n  swap2\n  div\n  mul\n  0x20\n  add\n  mload(0x40)\n  swap1\n  dup2\n  add\n  0x40\n  mstore\n  dup1\n  swap3\n  swap2\n  swap1\n  dup2\n  dup2\n  mstore\n  0x20\n  add\n  dup3\n  dup1\n  sload\n  tag_8\n  swap1\n  tag_7\n  jump\t// in\ntag_8:\n  dup1\n  iszero\n  tag_9\n  jumpi\n  dup1\n  0x1f\n  lt\n  tag_10\n  jumpi\n  0x0100\n  dup1\n  dup4\n  sload\n  div\n  mul\n  dup4\n  mstore\n  swap2\n  0x20\n  add\n  swap2\n  jump(tag_9)\ntag_10:\n  dup3\n  add\n  swap2\n  swap1\n  0x00\n  mstore\n  keccak256(0x00, 0x20)\n  swap1\ntag_11:\n  dup2\n  sload\n  dup2\n  mstore\n  swap1\n  0x01\n  add\n  swap1\n  0x20\n  add\n  dup1\n  dup4\n  gt\n  tag_11\n  jumpi\n  dup3\n  swap1\n  sub\n  0x1f\n  and\n  dup3\n  add\n  swap2\ntag_9:\n  pop\n  pop\n  pop\n  swap2\n  dup4\n  mstore\n  pop\n  pop\n  0x20\n  add\n    /* \"contracts/Main.sol\":3406:3416  Role.Admin */\n  0x01\n    /* \"contracts/Main.sol\":3386:3417  User(contractAuthor,Role.Admin) */\n  swap1\n  mstore\n    /* \"contracts/Main.sol\":3371:3383  users[owner] */\n  0x00\n    /* \"contracts/Main.sol\":3377:3382  owner */\n  dup1\n  sload\n  sub(shl(0xa0, 0x01), 0x01)\n  and\n    /* \"contracts/Main.sol\":3371:3383  users[owner] */\n  dup2\n  mstore\n    /* \"contracts/Main.sol\":3371:3376  users */\n  0x02\n    /* \"contracts/Main.sol\":3371:3383  users[owner] */\n  0x20\n  mstore\n  0x40\n  swap1\n  keccak256\n    /* \"contracts/Main.sol\":3371:3417  users[owner] = User(contractAuthor,Role.Admin) */\n  dup2\n  mload\n    /* \"contracts/Main.sol\":3371:3383  users[owner] */\n  dup2\n  swap1\n    /* \"contracts/Main.sol\":3371:3417  users[owner] = User(contractAuthor,Role.Admin) */\n  tag_15\n  swap1\n    /* \"contracts/Main.sol\":3371:3383  users[owner] */\n  dup3\n    /* \"contracts/Main.sol\":3371:3417  users[owner] = User(contractAuthor,Role.Admin) */\n  tag_2\n  jump\t// in\ntag_15:\n  pop\n  0x20\n  dup3\n  add\n  mload\n  0x01\n  dup1\n  dup4\n  add\n  dup1\n  sload\n  swap1\n  swap2\n  not(0xff)\n  swap1\n  swap2\n  and\n  swap1\n  dup4\n  0x04\n  dup2\n  gt\n  iszero\n  tag_17\n  jumpi\n  tag_17\n  tag_14\n  jump\t// in\ntag_17:\n  mul\n  or\n  swap1\n  sstore\n  pop\n  pop\n    /* \"contracts/Main.sol\":3447:3452  owner */\n  0x00\n  dup1\n  sload\n    /* \"contracts/Main.sol\":3428:3441  userAddresses */\n  0x03\n    /* \"contracts/Main.sol\":3428:3453  userAddresses.push(owner) */\n  dup1\n  sload\n    /* \"contracts/Main.sol\":3447:3452  owner */\n  0x01\n    /* \"contracts/Main.sol\":3428:3453  userAddresses.push(owner) */\n  dup2\n  add\n  dup3\n  sstore\n  swap3\n  mstore\n  0xc2575a0e9e593c00f959f8c92f12db2869c3395a3b0502d05e2516446f71f85b\n  swap1\n  swap2\n  add\n  dup1\n  sload\n  not(sub(shl(0xa0, 0x01), 0x01))\n  and\n  sub(shl(0xa0, 0x01), 0x01)\n    /* \"contracts/Main.sol\":3447:3452  owner */\n  swap1\n  swap3\n  and\n    /* \"contracts/Main.sol\":3428:3453  userAddresses.push(owner) */\n  swap2\n  swap1\n  swap2\n  or\n  swap1\n  sstore\n  pop\n    /* \"contracts/Main.sol\":250:14574  contract Main{... */\n  jump(tag_24)\n    /* \"#utility.yul\":14:141   */\ntag_20:\n    /* \"#utility.yul\":75:85   */\n  0x4e487b71\n    /* \"#utility.yul\":70:73   */\n  0xe0\n    /* \"#utility.yul\":66:86   */\n  shl\n    /* \"#utility.yul\":63:64   */\n  0x00\n    /* \"#utility.yul\":56:87   */\n  mstore\n    /* \"#utility.yul\":106:110   */\n  0x41\n    /* \"#utility.yul\":103:104   */\n  0x04\n    /* \"#utility.yul\":96:111   */\n  mstore\n    /* \"#utility.yul\":130:134   */\n  0x24\n    /* \"#utility.yul\":127:128   */\n  0x00\n    /* \"#utility.yul\":120:135   */\n  revert\n    /* \"#utility.yul\":146:526   */\ntag_7:\n    /* \"#utility.yul\":225:226   */\n  0x01\n    /* \"#utility.yul\":221:233   */\n  dup2\n  dup2\n  shr\n  swap1\n    /* \"#utility.yul\":268:280   */\n  dup3\n  and\n  dup1\n    /* \"#utility.yul\":289:350   */\n  tag_27\n  jumpi\n    /* \"#utility.yul\":343:347   */\n  0x7f\n    /* \"#utility.yul\":335:341   */\n  dup3\n    /* \"#utility.yul\":331:348   */\n  and\n    /* \"#utility.yul\":321:348   */\n  swap2\n  pop\n    /* \"#utility.yul\":289:350   */\ntag_27:\n    /* \"#utility.yul\":396:398   */\n  0x20\n    /* \"#utility.yul\":388:394   */\n  dup3\n    /* \"#utility.yul\":385:399   */\n  lt\n    /* \"#utility.yul\":365:383   */\n  dup2\n    /* \"#utility.yul\":362:400   */\n  sub\n    /* \"#utility.yul\":359:520   */\n  tag_28\n  jumpi\n    /* \"#utility.yul\":442:452   */\n  0x4e487b71\n    /* \"#utility.yul\":437:440   */\n  0xe0\n    /* \"#utility.yul\":433:453   */\n  shl\n    /* \"#utility.yul\":430:431   */\n  0x00\n    /* \"#utility.yul\":423:454   */\n  mstore\n    /* \"#utility.yul\":477:481   */\n  0x22\n    /* \"#utility.yul\":474:475   */\n  0x04\n    /* \"#utility.yul\":467:482   */\n  mstore\n    /* \"#utility.yul\":505:509   */\n  0x24\n    /* \"#utility.yul\":502:503   */\n  0x00\n    /* \"#utility.yul\":495:510   */\n  revert\n    /* \"#utility.yul\":359:520   */\ntag_28:\n  pop\n    /* \"#utility.yul\":146:526   */\n  swap2\n  swap1\n  pop\n  jump\t// out\n    /* \"#utility.yul\":657:1202   */\ntag_22:\n    /* \"#utility.yul\":759:761   */\n  0x1f\n    /* \"#utility.yul\":754:757   */\n  dup3\n    /* \"#utility.yul\":751:762   */\n  gt\n    /* \"#utility.yul\":748:1196   */\n  iszero\n  tag_31\n  jumpi\n    /* \"#utility.yul\":795:796   */\n  0x00\n    /* \"#utility.yul\":820:825   */\n  dup2\n    /* \"#utility.yul\":816:818   */\n  dup2\n    /* \"#utility.yul\":809:826   */\n  mstore\n    /* \"#utility.yul\":865:869   */\n  0x20\n    /* \"#utility.yul\":861:863   */\n  dup2\n    /* \"#utility.yul\":851:870   */\n  keccak256\n    /* \"#utility.yul\":935:937   */\n  0x1f\n    /* \"#utility.yul\":923:933   */\n  dup6\n    /* \"#utility.yul\":919:938   */\n  add\n    /* \"#utility.yul\":916:917   */\n  0x05\n    /* \"#utility.yul\":912:939   */\n  shr\n    /* \"#utility.yul\":906:910   */\n  dup2\n    /* \"#utility.yul\":902:940   */\n  add\n    /* \"#utility.yul\":971:975   */\n  0x20\n    /* \"#utility.yul\":959:969   */\n  dup7\n    /* \"#utility.yul\":956:976   */\n  lt\n    /* \"#utility.yul\":953:1000   */\n  iszero\n  tag_32\n  jumpi\n  pop\n    /* \"#utility.yul\":994:998   */\n  dup1\n    /* \"#utility.yul\":953:1000   */\ntag_32:\n    /* \"#utility.yul\":1049:1051   */\n  0x1f\n    /* \"#utility.yul\":1044:1047   */\n  dup6\n    /* \"#utility.yul\":1040:1052   */\n  add\n    /* \"#utility.yul\":1037:1038   */\n  0x05\n    /* \"#utility.yul\":1033:1053   */\n  shr\n    /* \"#utility.yul\":1027:1031   */\n  dup3\n    /* \"#utility.yul\":1023:1054   */\n  add\n    /* \"#utility.yul\":1013:1054   */\n  swap2\n  pop\n    /* \"#utility.yul\":1104:1186   */\ntag_33:\n    /* \"#utility.yul\":1122:1124   */\n  dup2\n    /* \"#utility.yul\":1115:1120   */\n  dup2\n    /* \"#utility.yul\":1112:1125   */\n  lt\n    /* \"#utility.yul\":1104:1186   */\n  iszero\n  tag_35\n  jumpi\n    /* \"#utility.yul\":1167:1184   */\n  dup3\n  dup2\n  sstore\n    /* \"#utility.yul\":1148:1149   */\n  0x01\n    /* \"#utility.yul\":1137:1150   */\n  add\n    /* \"#utility.yul\":1104:1186   */\n  jump(tag_33)\ntag_35:\n    /* \"#utility.yul\":1108:1111   */\n  pop\n  pop\n  pop\n    /* \"#utility.yul\":748:1196   */\ntag_31:\n    /* \"#utility.yul\":657:1202   */\n  pop\n  pop\n  pop\n  jump\t// out\n    /* \"#utility.yul\":1378:2730   */\ntag_2:\n    /* \"#utility.yul\":1498:1508   */\n  dup2\n  mload\n  sub(shl(0x40, 0x01), 0x01)\n    /* \"#utility.yul\":1520:1550   */\n  dup2\n  gt\n    /* \"#utility.yul\":1517:1573   */\n  iszero\n  tag_39\n  jumpi\n    /* \"#utility.yul\":1553:1571   */\n  tag_39\n  tag_20\n  jump\t// in\ntag_39:\n    /* \"#utility.yul\":1582:1679   */\n  tag_40\n    /* \"#utility.yul\":1672:1678   */\n  dup2\n    /* \"#utility.yul\":1632:1670   */\n  tag_41\n    /* \"#utility.yul\":1664:1668   */\n  dup5\n    /* \"#utility.yul\":1658:1669   */\n  sload\n    /* \"#utility.yul\":1632:1670   */\n  tag_7\n  jump\t// in\ntag_41:\n    /* \"#utility.yul\":1626:1630   */\n  dup5\n    /* \"#utility.yul\":1582:1679   */\n  tag_22\n  jump\t// in\ntag_40:\n    /* \"#utility.yul\":1734:1738   */\n  0x20\n  dup1\n    /* \"#utility.yul\":1798:1800   */\n  0x1f\n    /* \"#utility.yul\":1787:1801   */\n  dup4\n  gt\n    /* \"#utility.yul\":1815:1816   */\n  0x01\n    /* \"#utility.yul\":1810:2473   */\n  dup2\n  eq\n  tag_43\n  jumpi\n    /* \"#utility.yul\":2517:2518   */\n  0x00\n    /* \"#utility.yul\":2534:2540   */\n  dup5\n    /* \"#utility.yul\":2531:2620   */\n  iszero\n  tag_44\n  jumpi\n  pop\n    /* \"#utility.yul\":2586:2605   */\n  dup6\n  dup4\n  add\n    /* \"#utility.yul\":2580:2606   */\n  mload\n    /* \"#utility.yul\":2531:2620   */\ntag_44:\n  not(0x00)\n    /* \"#utility.yul\":1335:1336   */\n  0x03\n    /* \"#utility.yul\":1331:1342   */\n  dup7\n  swap1\n  shl\n    /* \"#utility.yul\":1327:1351   */\n  shr\n    /* \"#utility.yul\":1323:1352   */\n  not\n    /* \"#utility.yul\":1313:1353   */\n  and\n    /* \"#utility.yul\":1359:1360   */\n  0x01\n    /* \"#utility.yul\":1355:1366   */\n  dup6\n  swap1\n  shl\n    /* \"#utility.yul\":1310:1367   */\n  or\n    /* \"#utility.yul\":2633:2714   */\n  dup6\n  sstore\n    /* \"#utility.yul\":1780:2724   */\n  jump(tag_35)\n    /* \"#utility.yul\":1810:2473   */\ntag_43:\n    /* \"#utility.yul\":604:605   */\n  0x00\n    /* \"#utility.yul\":597:611   */\n  dup6\n  dup2\n  mstore\n    /* \"#utility.yul\":641:645   */\n  0x20\n    /* \"#utility.yul\":628:646   */\n  dup2\n  keccak256\n  not(0x1f)\n    /* \"#utility.yul\":1846:1866   */\n  dup7\n  and\n  swap2\n    /* \"#utility.yul\":1964:2200   */\ntag_47:\n    /* \"#utility.yul\":1978:1985   */\n  dup3\n    /* \"#utility.yul\":1975:1976   */\n  dup2\n    /* \"#utility.yul\":1972:1986   */\n  lt\n    /* \"#utility.yul\":1964:2200   */\n  iszero\n  tag_49\n  jumpi\n    /* \"#utility.yul\":2067:2086   */\n  dup9\n  dup7\n  add\n    /* \"#utility.yul\":2061:2087   */\n  mload\n    /* \"#utility.yul\":2046:2088   */\n  dup3\n  sstore\n    /* \"#utility.yul\":2159:2186   */\n  swap5\n  dup5\n  add\n  swap5\n    /* \"#utility.yul\":2127:2128   */\n  0x01\n    /* \"#utility.yul\":2115:2129   */\n  swap1\n  swap2\n  add\n  swap1\n    /* \"#utility.yul\":1994:2013   */\n  dup5\n  add\n    /* \"#utility.yul\":1964:2200   */\n  jump(tag_47)\ntag_49:\n    /* \"#utility.yul\":1968:1971   */\n  pop\n    /* \"#utility.yul\":2228:2234   */\n  dup6\n    /* \"#utility.yul\":2219:2226   */\n  dup3\n    /* \"#utility.yul\":2216:2235   */\n  lt\n    /* \"#utility.yul\":2213:2414   */\n  iszero\n  tag_50\n  jumpi\n    /* \"#utility.yul\":2289:2308   */\n  dup8\n  dup6\n  add\n    /* \"#utility.yul\":2283:2309   */\n  mload\n  not(0x00)\n    /* \"#utility.yul\":2372:2373   */\n  0x03\n    /* \"#utility.yul\":2368:2382   */\n  dup9\n  swap1\n  shl\n    /* \"#utility.yul\":2384:2387   */\n  0xf8\n    /* \"#utility.yul\":2364:2388   */\n  and\n    /* \"#utility.yul\":2360:2397   */\n  shr\n    /* \"#utility.yul\":2356:2398   */\n  not\n    /* \"#utility.yul\":2341:2399   */\n  and\n    /* \"#utility.yul\":2326:2400   */\n  dup2\n  sstore\n    /* \"#utility.yul\":2213:2414   */\ntag_50:\n  pop\n  pop\n  pop\n  pop\n  pop\n    /* \"#utility.yul\":2460:2461   */\n  0x01\n    /* \"#utility.yul\":2444:2458   */\n  swap1\n  dup2\n  shl\n    /* \"#utility.yul\":2440:2462   */\n  add\n    /* \"#utility.yul\":2427:2463   */\n  swap1\n  sstore\n  pop\n    /* \"#utility.yul\":1378:2730   */\n  jump\t// out\n    /* \"#utility.yul\":2735:2862   */\ntag_14:\n    /* \"#utility.yul\":2796:2806   */\n  0x4e487b71\n    /* \"#utility.yul\":2791:2794   */\n  0xe0\n    /* \"#utility.yul\":2787:2807   */\n  shl\n    /* \"#utility.yul\":2784:2785   */\n  0x00\n    /* \"#utility.yul\":2777:2808   */\n  mstore\n    /* \"#utility.yul\":2827:2831   */\n  0x21\n    /* \"#utility.yul\":2824:2825   */\n  0x04\n    /* \"#utility.yul\":2817:2832   */\n  mstore\n    /* \"#utility.yul\":2851:2855   */\n  0x24\n    /* \"#utility.yul\":2848:2849   */\n  0x00\n    /* \"#utility.yul\":2841:2856   */\n  revert\n    /* \"#utility.yul\":2735:2862   */\ntag_24:\n    /* \"contracts/Main.sol\":250:14574  contract Main{... */\n  dataSize(sub_0)\n  dup1\n  dataOffset(sub_0)\n  0x00\n  codecopy\n  0x00\n  return\nstop\n\nsub_0: assembly {\n        /* \"contracts/Main.sol\":250:14574  contract Main{... */\n      mstore(0x40, 0x80)\n      callvalue\n      dup1\n      iszero\n      tag_1\n      jumpi\n      0x00\n      dup1\n      revert\n    tag_1:\n      pop\n      jumpi(tag_2, lt(calldatasize, 0x04))\n      shr(0xe0, calldataload(0x00))\n      dup1\n      0x8da5cb5b\n      gt\n      tag_28\n      jumpi\n      dup1\n      0xb237046e\n      gt\n      tag_29\n      jumpi\n      dup1\n      0xe2842d79\n      gt\n      tag_30\n      jumpi\n      dup1\n      0xe2842d79\n      eq\n      tag_24\n      jumpi\n      dup1\n      0xe3e550a9\n      eq\n      tag_25\n      jumpi\n      dup1\n      0xe64dc2a3\n      eq\n      tag_26\n      jumpi\n      dup1\n      0xf61af8ab\n      eq\n      tag_27\n      jumpi\n      0x00\n      dup1\n      revert\n    tag_30:\n      dup1\n      0xb237046e\n      eq\n      tag_21\n      jumpi\n      dup1\n      0xc2b16bf2\n      eq\n      tag_22\n      jumpi\n      dup1\n      0xe0f6ef87\n      eq\n      tag_23\n      jumpi\n      0x00\n      dup1\n      revert\n    tag_29:\n      dup1\n      0x8da5cb5b\n      eq\n      tag_15\n      jumpi\n      dup1\n      0x8f29695a\n      eq\n      tag_16\n      jumpi\n      dup1\n      0x9980ec86\n      eq\n      tag_17\n      jumpi\n      dup1\n      0xa6f9dae1\n      eq\n      tag_18\n      jumpi\n      dup1\n      0xa87430ba\n      eq\n      tag_19\n      jumpi\n      dup1\n      0xaf062a0c\n      eq\n      tag_20\n      jumpi\n      0x00\n      dup1\n      revert\n    tag_28:\n      dup1\n      0x69c212f6\n      gt\n      tag_31\n      jumpi\n      dup1\n      0x69c212f6\n      eq\n      tag_9\n      jumpi\n      dup1\n      0x6d960bc3\n      eq\n      tag_10\n      jumpi\n      dup1\n      0x706ced5b\n      eq\n      tag_11\n      jumpi\n      dup1\n      0x72139d9a\n      eq\n      tag_12\n      jumpi\n      dup1\n      0x734e1ac3\n      eq\n      tag_13\n      jumpi\n      dup1\n      0x7acc0b20\n      eq\n      tag_14\n      jumpi\n      0x00\n      dup1\n      revert\n    tag_31:\n      dup1\n      0x03a69611\n      eq\n      tag_3\n      jumpi\n      dup1\n      0x3e88a4e2\n      eq\n      tag_4\n      jumpi\n      dup1\n      0x40d26854\n      eq\n      tag_5\n      jumpi\n      dup1\n      0x502c9bd5\n      eq\n      tag_6\n      jumpi\n      dup1\n      0x5c60f226\n      eq\n      tag_7\n      jumpi\n      dup1\n      0x68111cce\n      eq\n      tag_8\n      jumpi\n    tag_2:\n      0x00\n      dup1\n      revert\n        /* \"contracts/Main.sol\":6580:7038  function setUserRole (address _userAddress, Role _role) public onlyRole(Role.Admin){... */\n    tag_3:\n      tag_32\n      tag_33\n      calldatasize\n      0x04\n      tag_34\n      jump\t// in\n    tag_33:\n      tag_35\n      jump\t// in\n    tag_32:\n      stop\n        /* \"contracts/Main.sol\":9237:9565  function getEntityByName(string memory name) public view returns (Entity memory entity) {... */\n    tag_4:\n      tag_36\n      tag_37\n      calldatasize\n      0x04\n      tag_38\n      jump\t// in\n    tag_37:\n      tag_39\n      jump\t// in\n    tag_36:\n      mload(0x40)\n      tag_40\n      swap2\n      swap1\n      tag_41\n      jump\t// in\n    tag_40:\n      mload(0x40)\n      dup1\n      swap2\n      sub\n      swap1\n      return\n        /* \"contracts/Main.sol\":4875:5549  function addUser (address _userAddress, string memory _name, Role _role) public onlyRole(Role.Admin){... */\n    tag_5:\n      tag_32\n      tag_43\n      calldatasize\n      0x04\n      tag_44\n      jump\t// in\n    tag_43:\n      tag_45\n      jump\t// in\n        /* \"contracts/Main.sol\":2105:2135  address[] public userAddresses */\n    tag_6:\n      tag_46\n      tag_47\n      calldatasize\n      0x04\n      tag_48\n      jump\t// in\n    tag_47:\n      tag_49\n      jump\t// in\n    tag_46:\n      mload(0x40)\n      sub(shl(0xa0, 0x01), 0x01)\n        /* \"#utility.yul\":4042:4074   */\n      swap1\n      swap2\n      and\n        /* \"#utility.yul\":4024:4075   */\n      dup2\n      mstore\n        /* \"#utility.yul\":4012:4014   */\n      0x20\n        /* \"#utility.yul\":3997:4015   */\n      add\n        /* \"contracts/Main.sol\":2105:2135  address[] public userAddresses */\n      tag_40\n        /* \"#utility.yul\":3878:4081   */\n      jump\n        /* \"contracts/Main.sol\":5576:6542  function deleteUser(address _userAddress) public onlyRole(Role.Admin){... */\n    tag_7:\n      tag_32\n      tag_53\n      calldatasize\n      0x04\n      tag_54\n      jump\t// in\n    tag_53:\n      tag_55\n      jump\t// in\n        /* \"contracts/Main.sol\":12273:12507  function getProduct(string memory productName) public view returns (Product memory){... */\n    tag_8:\n      tag_56\n      tag_57\n      calldatasize\n      0x04\n      tag_38\n      jump\t// in\n    tag_57:\n      tag_58\n      jump\t// in\n    tag_56:\n      mload(0x40)\n      tag_40\n      swap2\n      swap1\n      tag_60\n      jump\t// in\n        /* \"contracts/Main.sol\":7336:7528  function getUserByAddress(address _userAddress) public view returns (User memory) {... */\n    tag_9:\n      tag_61\n      tag_62\n      calldatasize\n      0x04\n      tag_54\n      jump\t// in\n    tag_62:\n      tag_63\n      jump\t// in\n    tag_61:\n      mload(0x40)\n      tag_40\n      swap2\n      swap1\n      tag_65\n      jump\t// in\n        /* \"contracts/Main.sol\":8244:9184  function deleteEntity(string memory _name) public onlyRole(Role.Admin) {... */\n    tag_10:\n      tag_32\n      tag_67\n      calldatasize\n      0x04\n      tag_38\n      jump\t// in\n    tag_67:\n      tag_68\n      jump\t// in\n        /* \"contracts/Main.sol\":2184:2225  mapping(string => Entity) public entities */\n    tag_11:\n      tag_69\n      tag_70\n      calldatasize\n      0x04\n      tag_38\n      jump\t// in\n    tag_70:\n      tag_71\n      jump\t// in\n    tag_69:\n      mload(0x40)\n      tag_40\n      swap3\n      swap2\n      swap1\n      tag_73\n      jump\t// in\n        /* \"contracts/Main.sol\":10937:11311  function deleteProduct(string memory ProductName) public {... */\n    tag_12:\n      tag_32\n      tag_75\n      calldatasize\n      0x04\n      tag_38\n      jump\t// in\n    tag_75:\n      tag_76\n      jump\t// in\n        /* \"contracts/Main.sol\":334:375  string public contractAuthor = 'MGT TEAM' */\n    tag_13:\n      tag_77\n      tag_78\n      jump\t// in\n    tag_77:\n      mload(0x40)\n      tag_40\n      swap2\n      swap1\n      tag_80\n      jump\t// in\n        /* \"contracts/Main.sol\":2624:2664  mapping(uint => Product) public products */\n    tag_14:\n      tag_81\n      tag_82\n      calldatasize\n      0x04\n      tag_48\n      jump\t// in\n    tag_82:\n      tag_83\n      jump\t// in\n    tag_81:\n      mload(0x40)\n      tag_40\n      swap5\n      swap4\n      swap3\n      swap2\n      swap1\n      tag_85\n      jump\t// in\n        /* \"contracts/Main.sol\":307:327  address public owner */\n    tag_15:\n      sload(0x00)\n      tag_46\n      swap1\n      sub(shl(0xa0, 0x01), 0x01)\n      and\n      dup2\n      jump\n        /* \"contracts/Main.sol\":10042:10929  function addProduct(string memory _name, uint _amount, string memory _description) public {... */\n    tag_16:\n      tag_32\n      tag_90\n      calldatasize\n      0x04\n      tag_91\n      jump\t// in\n    tag_90:\n      tag_92\n      jump\t// in\n        /* \"contracts/Main.sol\":14319:14548  function getAmount(uint _productId) public view returns (uint){... */\n    tag_17:\n      tag_93\n      tag_94\n      calldatasize\n      0x04\n      tag_48\n      jump\t// in\n    tag_94:\n      tag_95\n      jump\t// in\n    tag_93:\n      mload(0x40)\n        /* \"#utility.yul\":7501:7526   */\n      swap1\n      dup2\n      mstore\n        /* \"#utility.yul\":7489:7491   */\n      0x20\n        /* \"#utility.yul\":7474:7492   */\n      add\n        /* \"contracts/Main.sol\":14319:14548  function getAmount(uint _productId) public view returns (uint){... */\n      tag_40\n        /* \"#utility.yul\":7355:7532   */\n      jump\n        /* \"contracts/Main.sol\":4580:4814  function changeOwner(address newOwner) public onlyOwner {... */\n    tag_18:\n      tag_32\n      tag_99\n      calldatasize\n      0x04\n      tag_54\n      jump\t// in\n    tag_99:\n      tag_100\n      jump\t// in\n        /* \"contracts/Main.sol\":2061:2098  mapping(address => User) public users */\n    tag_19:\n      tag_101\n      tag_102\n      calldatasize\n      0x04\n      tag_54\n      jump\t// in\n    tag_102:\n      tag_103\n      jump\t// in\n    tag_101:\n      mload(0x40)\n      tag_40\n      swap3\n      swap2\n      swap1\n      tag_105\n      jump\t// in\n        /* \"contracts/Main.sol\":11319:12265  function updateProduct(string memory name, string memory newName, uint newAmount, string memory newDescription) public{... */\n    tag_20:\n      tag_32\n      tag_107\n      calldatasize\n      0x04\n      tag_108\n      jump\t// in\n    tag_107:\n      tag_109\n      jump\t// in\n        /* \"contracts/Main.sol\":7565:8199  function addEntity(string memory _name, EntityType entityType) public onlyRole(Role.Admin){... */\n    tag_21:\n      tag_32\n      tag_111\n      calldatasize\n      0x04\n      tag_112\n      jump\t// in\n    tag_111:\n      tag_113\n      jump\t// in\n        /* \"contracts/Main.sol\":2495:2555  mapping(uint => TransportationInfo[]) public ProdToTransInfo */\n    tag_22:\n      tag_114\n      tag_115\n      calldatasize\n      0x04\n      tag_116\n      jump\t// in\n    tag_115:\n      tag_117\n      jump\t// in\n    tag_114:\n      mload(0x40)\n      tag_40\n      swap6\n      swap5\n      swap4\n      swap3\n      swap2\n      swap1\n      tag_119\n      jump\t// in\n        /* \"contracts/Main.sol\":2727:2751  uint public productCount */\n    tag_23:\n      tag_93\n      sload(0x09)\n      dup2\n      jump\n        /* \"contracts/Main.sol\":7046:7328  function getAllUsers() public view returns (User[] memory){... */\n    tag_24:\n      tag_123\n      tag_124\n      jump\t// in\n    tag_123:\n      mload(0x40)\n      tag_40\n      swap2\n      swap1\n      tag_126\n      jump\t// in\n        /* \"contracts/Main.sol\":13049:14311  function ViewProductHistory(string memory productName) public view returns(TransportationInfo[] memory, string memory){... */\n    tag_25:\n      tag_127\n      tag_128\n      calldatasize\n      0x04\n      tag_38\n      jump\t// in\n    tag_128:\n      tag_129\n      jump\t// in\n    tag_127:\n      mload(0x40)\n      tag_40\n      swap3\n      swap2\n      swap1\n      tag_131\n      jump\t// in\n        /* \"contracts/Main.sol\":12515:13039  function UpdateStatus(string memory ProductName, string memory origin, string memory destination, uint dateOfDeparture, uint estDateOfArrival, string memory EntityName, EntityType entityType) public {     ... */\n    tag_26:\n      tag_32\n      tag_133\n      calldatasize\n      0x04\n      tag_134\n      jump\t// in\n    tag_133:\n      tag_135\n      jump\t// in\n        /* \"contracts/Main.sol\":9642:9959  function getEntitiesByType(EntityType entityType) public view returns (string[] memory) {... */\n    tag_27:\n      tag_136\n      tag_137\n      calldatasize\n      0x04\n      tag_138\n      jump\t// in\n    tag_137:\n      tag_139\n      jump\t// in\n    tag_136:\n      mload(0x40)\n      tag_40\n      swap2\n      swap1\n      tag_141\n      jump\t// in\n        /* \"contracts/Main.sol\":6580:7038  function setUserRole (address _userAddress, Role _role) public onlyRole(Role.Admin){... */\n    tag_35:\n        /* \"contracts/Main.sol\":6652:6662  Role.Admin */\n      0x01\n      dup1\n        /* \"contracts/Main.sol\":3122:3132  msg.sender */\n      caller\n        /* \"contracts/Main.sol\":3116:3133  users[msg.sender] */\n      0x00\n      swap1\n      dup2\n      mstore\n        /* \"contracts/Main.sol\":3116:3121  users */\n      0x02\n        /* \"contracts/Main.sol\":3116:3133  users[msg.sender] */\n      0x20\n      mstore\n      0x40\n      swap1\n      keccak256\n        /* \"contracts/Main.sol\":3116:3138  users[msg.sender].role */\n      0x01\n      add\n      sload\n      0xff\n      and\n        /* \"contracts/Main.sol\":3116:3147  users[msg.sender].role == _role */\n      0x04\n      dup2\n      gt\n      iszero\n      tag_147\n      jumpi\n      tag_147\n      tag_145\n      jump\t// in\n    tag_147:\n      eq\n        /* \"contracts/Main.sol\":3108:3181  require(users[msg.sender].role == _role, \"Access denied: incorrect role\") */\n      tag_148\n      jumpi\n      mload(0x40)\n      shl(0xe5, 0x461bcd)\n      dup2\n      mstore\n      0x04\n      add\n      tag_149\n      swap1\n      tag_150\n      jump\t// in\n    tag_149:\n      mload(0x40)\n      dup1\n      swap2\n      sub\n      swap1\n      revert\n    tag_148:\n        /* \"contracts/Main.sol\":6751:6760  Role.None */\n      0x00\n        /* \"contracts/Main.sol\":6736:6741  _role */\n      dup3\n        /* \"contracts/Main.sol\":6731:6742  uint(_role) */\n      0x04\n      dup2\n      gt\n      iszero\n      tag_155\n      jumpi\n      tag_155\n      tag_145\n      jump\t// in\n    tag_155:\n        /* \"contracts/Main.sol\":6731:6761  uint(_role) >= uint(Role.None) */\n      lt\n      iszero\n        /* \"contracts/Main.sol\":6731:6798  uint(_role) >= uint(Role.None) && uint(_role) <= uint(Role.Auditor) */\n      dup1\n      iszero\n      tag_156\n      jumpi\n      pop\n        /* \"contracts/Main.sol\":6785:6797  Role.Auditor */\n      0x04\n        /* \"contracts/Main.sol\":6770:6775  _role */\n      dup3\n        /* \"contracts/Main.sol\":6765:6776  uint(_role) */\n      0x04\n      dup2\n      gt\n      iszero\n      tag_160\n      jumpi\n      tag_160\n      tag_145\n      jump\t// in\n    tag_160:\n        /* \"contracts/Main.sol\":6765:6798  uint(_role) <= uint(Role.Auditor) */\n      gt\n      iszero\n        /* \"contracts/Main.sol\":6731:6798  uint(_role) >= uint(Role.None) && uint(_role) <= uint(Role.Auditor) */\n    tag_156:\n        /* \"contracts/Main.sol\":6722:6820  require( uint(_role) >= uint(Role.None) && uint(_role) <= uint(Role.Auditor), \"Role is not valid\") */\n      tag_161\n      jumpi\n      mload(0x40)\n      shl(0xe5, 0x461bcd)\n      dup2\n      mstore\n        /* \"#utility.yul\":15503:15505   */\n      0x20\n        /* \"contracts/Main.sol\":6722:6820  require( uint(_role) >= uint(Role.None) && uint(_role) <= uint(Role.Auditor), \"Role is not valid\") */\n      0x04\n      dup3\n      add\n        /* \"#utility.yul\":15485:15506   */\n      mstore\n        /* \"#utility.yul\":15542:15544   */\n      0x11\n        /* \"#utility.yul\":15522:15540   */\n      0x24\n      dup3\n      add\n        /* \"#utility.yul\":15515:15545   */\n      mstore\n      shl(0x7a, 0x149bdb19481a5cc81b9bdd081d985b1a59)\n        /* \"#utility.yul\":15561:15579   */\n      0x44\n      dup3\n      add\n        /* \"#utility.yul\":15554:15601   */\n      mstore\n        /* \"#utility.yul\":15618:15636   */\n      0x64\n      add\n        /* \"contracts/Main.sol\":6722:6820  require( uint(_role) >= uint(Role.None) && uint(_role) <= uint(Role.Auditor), \"Role is not valid\") */\n      tag_149\n        /* \"#utility.yul\":15301:15642   */\n      jump\n        /* \"contracts/Main.sol\":6722:6820  require( uint(_role) >= uint(Role.None) && uint(_role) <= uint(Role.Auditor), \"Role is not valid\") */\n    tag_161:\n      sub(shl(0xa0, 0x01), 0x01)\n        /* \"contracts/Main.sol\":6861:6887  _userAddress != address(0) */\n      dup4\n      and\n        /* \"contracts/Main.sol\":6853:6907  require(_userAddress != address(0), \"Invalid address\") */\n      tag_164\n      jumpi\n      mload(0x40)\n      shl(0xe5, 0x461bcd)\n      dup2\n      mstore\n        /* \"#utility.yul\":15849:15851   */\n      0x20\n        /* \"contracts/Main.sol\":6853:6907  require(_userAddress != address(0), \"Invalid address\") */\n      0x04\n      dup3\n      add\n        /* \"#utility.yul\":15831:15852   */\n      mstore\n        /* \"#utility.yul\":15888:15890   */\n      0x0f\n        /* \"#utility.yul\":15868:15886   */\n      0x24\n      dup3\n      add\n        /* \"#utility.yul\":15861:15891   */\n      mstore\n      shl(0x88, 0x496e76616c69642061646472657373)\n        /* \"#utility.yul\":15907:15925   */\n      0x44\n      dup3\n      add\n        /* \"#utility.yul\":15900:15945   */\n      mstore\n        /* \"#utility.yul\":15962:15980   */\n      0x64\n      add\n        /* \"contracts/Main.sol\":6853:6907  require(_userAddress != address(0), \"Invalid address\") */\n      tag_149\n        /* \"#utility.yul\":15647:15986   */\n      jump\n        /* \"contracts/Main.sol\":6853:6907  require(_userAddress != address(0), \"Invalid address\") */\n    tag_164:\n        /* \"contracts/Main.sol\":6954:6959  _role */\n      dup2\n        /* \"contracts/Main.sol\":6926:6959  users[_userAddress].role != _role */\n      0x04\n      dup2\n      gt\n      iszero\n      tag_168\n      jumpi\n      tag_168\n      tag_145\n      jump\t// in\n    tag_168:\n      sub(shl(0xa0, 0x01), 0x01)\n        /* \"contracts/Main.sol\":6926:6945  users[_userAddress] */\n      dup5\n      and\n      0x00\n      swap1\n      dup2\n      mstore\n        /* \"contracts/Main.sol\":6926:6931  users */\n      0x02\n        /* \"contracts/Main.sol\":6926:6945  users[_userAddress] */\n      0x20\n      mstore\n      0x40\n      swap1\n      keccak256\n        /* \"contracts/Main.sol\":6926:6950  users[_userAddress].role */\n      0x01\n      add\n      sload\n      0xff\n      and\n        /* \"contracts/Main.sol\":6926:6959  users[_userAddress].role != _role */\n      0x04\n      dup2\n      gt\n      iszero\n      tag_170\n      jumpi\n      tag_170\n      tag_145\n      jump\t// in\n    tag_170:\n      sub\n        /* \"contracts/Main.sol\":6918:6985  require(users[_userAddress].role != _role, \"Already has this role\") */\n      tag_171\n      jumpi\n      mload(0x40)\n      shl(0xe5, 0x461bcd)\n      dup2\n      mstore\n        /* \"#utility.yul\":16193:16195   */\n      0x20\n        /* \"contracts/Main.sol\":6918:6985  require(users[_userAddress].role != _role, \"Already has this role\") */\n      0x04\n      dup3\n      add\n        /* \"#utility.yul\":16175:16196   */\n      mstore\n        /* \"#utility.yul\":16232:16234   */\n      0x15\n        /* \"#utility.yul\":16212:16230   */\n      0x24\n      dup3\n      add\n        /* \"#utility.yul\":16205:16235   */\n      mstore\n      shl(0x58, 0x416c726561647920686173207468697320726f6c65)\n        /* \"#utility.yul\":16251:16269   */\n      0x44\n      dup3\n      add\n        /* \"#utility.yul\":16244:16295   */\n      mstore\n        /* \"#utility.yul\":16312:16330   */\n      0x64\n      add\n        /* \"contracts/Main.sol\":6918:6985  require(users[_userAddress].role != _role, \"Already has this role\") */\n      tag_149\n        /* \"#utility.yul\":15991:16336   */\n      jump\n        /* \"contracts/Main.sol\":6918:6985  require(users[_userAddress].role != _role, \"Already has this role\") */\n    tag_171:\n      sub(shl(0xa0, 0x01), 0x01)\n        /* \"contracts/Main.sol\":6998:7017  users[_userAddress] */\n      dup4\n      and\n      0x00\n      swap1\n      dup2\n      mstore\n        /* \"contracts/Main.sol\":6998:7003  users */\n      0x02\n        /* \"contracts/Main.sol\":6998:7017  users[_userAddress] */\n      0x20\n      mstore\n      0x40\n      swap1\n      keccak256\n        /* \"contracts/Main.sol\":6998:7022  users[_userAddress].role */\n      0x01\n      swap1\n      dup2\n      add\n        /* \"contracts/Main.sol\":6998:7030  users[_userAddress].role = _role */\n      dup1\n      sload\n        /* \"contracts/Main.sol\":7025:7030  _role */\n      dup5\n      swap3\n      not(0xff)\n        /* \"contracts/Main.sol\":6998:7030  users[_userAddress].role = _role */\n      swap1\n      swap2\n      and\n      swap1\n        /* \"contracts/Main.sol\":7025:7030  _role */\n      dup4\n        /* \"contracts/Main.sol\":6998:7030  users[_userAddress].role = _role */\n      0x04\n      dup2\n      gt\n      iszero\n      tag_175\n      jumpi\n      tag_175\n      tag_145\n      jump\t// in\n    tag_175:\n      mul\n      or\n      swap1\n      sstore\n      pop\n        /* \"contracts/Main.sol\":6580:7038  function setUserRole (address _userAddress, Role _role) public onlyRole(Role.Admin){... */\n      pop\n      pop\n      pop\n      jump\t// out\n        /* \"contracts/Main.sol\":9237:9565  function getEntityByName(string memory name) public view returns (Entity memory entity) {... */\n    tag_39:\n      0x40\n      dup1\n      mload\n      dup1\n      dup3\n      add\n      swap1\n      swap2\n      mstore\n      0x60\n      dup2\n      mstore\n      0x00\n      0x20\n      dup3\n      add\n      mstore\n        /* \"contracts/Main.sol\":9388:9396  entities */\n      0x04\n        /* \"contracts/Main.sol\":9397:9401  name */\n      dup3\n        /* \"contracts/Main.sol\":9388:9402  entities[name] */\n      mload(0x40)\n      tag_179\n      swap2\n      swap1\n      tag_180\n      jump\t// in\n    tag_179:\n      swap1\n      dup2\n      mstore\n      mload(0x40)\n      swap1\n      dup2\n      swap1\n      sub\n      0x20\n      add\n      swap1\n      keccak256\n        /* \"contracts/Main.sol\":9382:9415  bytes(entities[name].name).length */\n      dup1\n      sload\n      tag_181\n      swap1\n      tag_182\n      jump\t// in\n    tag_181:\n      swap1\n      pop\n        /* \"contracts/Main.sol\":9419:9420  0 */\n      0x00\n        /* \"contracts/Main.sol\":9382:9420  bytes(entities[name].name).length != 0 */\n      sub\n        /* \"contracts/Main.sol\":9374:9446  require(bytes(entities[name].name).length != 0, \"Entity does not exist\") */\n      tag_183\n      jumpi\n      mload(0x40)\n      shl(0xe5, 0x461bcd)\n      dup2\n      mstore\n        /* \"#utility.yul\":17222:17224   */\n      0x20\n        /* \"contracts/Main.sol\":9374:9446  require(bytes(entities[name].name).length != 0, \"Entity does not exist\") */\n      0x04\n      dup3\n      add\n        /* \"#utility.yul\":17204:17225   */\n      mstore\n        /* \"#utility.yul\":17261:17263   */\n      0x15\n        /* \"#utility.yul\":17241:17259   */\n      0x24\n      dup3\n      add\n        /* \"#utility.yul\":17234:17264   */\n      mstore\n      shl(0x5a, 0x115b9d1a5d1e48191bd95cc81b9bdd08195e1a5cdd)\n        /* \"#utility.yul\":17280:17298   */\n      0x44\n      dup3\n      add\n        /* \"#utility.yul\":17273:17324   */\n      mstore\n        /* \"#utility.yul\":17341:17359   */\n      0x64\n      add\n        /* \"contracts/Main.sol\":9374:9446  require(bytes(entities[name].name).length != 0, \"Entity does not exist\") */\n      tag_149\n        /* \"#utility.yul\":17020:17365   */\n      jump\n        /* \"contracts/Main.sol\":9374:9446  require(bytes(entities[name].name).length != 0, \"Entity does not exist\") */\n    tag_183:\n        /* \"contracts/Main.sol\":9489:9511  Entity storage _entity */\n      0x00\n        /* \"contracts/Main.sol\":9514:9522  entities */\n      0x04\n        /* \"contracts/Main.sol\":9523:9527  name */\n      dup4\n        /* \"contracts/Main.sol\":9514:9528  entities[name] */\n      mload(0x40)\n      tag_186\n      swap2\n      swap1\n      tag_180\n      jump\t// in\n    tag_186:\n      swap1\n      dup2\n      mstore\n      0x20\n      add\n      mload(0x40)\n      dup1\n      swap2\n      sub\n      swap1\n      keccak256\n        /* \"contracts/Main.sol\":9489:9528  Entity storage _entity = entities[name] */\n      swap1\n      pop\n        /* \"contracts/Main.sol\":9549:9556  _entity */\n      dup1\n        /* \"contracts/Main.sol\":9541:9557  return (_entity) */\n      mload(0x40)\n      dup1\n      0x40\n      add\n      0x40\n      mstore\n      swap1\n      dup2\n      0x00\n      dup3\n      add\n      dup1\n      sload\n      tag_187\n      swap1\n      tag_182\n      jump\t// in\n    tag_187:\n      dup1\n      0x1f\n      add\n      0x20\n      dup1\n      swap2\n      div\n      mul\n      0x20\n      add\n      mload(0x40)\n      swap1\n      dup2\n      add\n      0x40\n      mstore\n      dup1\n      swap3\n      swap2\n      swap1\n      dup2\n      dup2\n      mstore\n      0x20\n      add\n      dup3\n      dup1\n      sload\n      tag_188\n      swap1\n      tag_182\n      jump\t// in\n    tag_188:\n      dup1\n      iszero\n      tag_189\n      jumpi\n      dup1\n      0x1f\n      lt\n      tag_190\n      jumpi\n      0x0100\n      dup1\n      dup4\n      sload\n      div\n      mul\n      dup4\n      mstore\n      swap2\n      0x20\n      add\n      swap2\n      jump(tag_189)\n    tag_190:\n      dup3\n      add\n      swap2\n      swap1\n      0x00\n      mstore\n      keccak256(0x00, 0x20)\n      swap1\n    tag_191:\n      dup2\n      sload\n      dup2\n      mstore\n      swap1\n      0x01\n      add\n      swap1\n      0x20\n      add\n      dup1\n      dup4\n      gt\n      tag_191\n      jumpi\n      dup3\n      swap1\n      sub\n      0x1f\n      and\n      dup3\n      add\n      swap2\n    tag_189:\n      pop\n      pop\n      pop\n      swap2\n      dup4\n      mstore\n      pop\n      pop\n      0x01\n      dup3\n      add\n      sload\n      0x20\n      swap1\n      swap2\n      add\n      swap1\n      0xff\n      and\n      0x06\n      dup2\n      gt\n      iszero\n      tag_193\n      jumpi\n      tag_193\n      tag_145\n      jump\t// in\n    tag_193:\n      0x06\n      dup2\n      gt\n      iszero\n      tag_195\n      jumpi\n      tag_195\n      tag_145\n      jump\t// in\n    tag_195:\n      swap1\n      mstore\n      pop\n      swap4\n        /* \"contracts/Main.sol\":9237:9565  function getEntityByName(string memory name) public view returns (Entity memory entity) {... */\n      swap3\n      pop\n      pop\n      pop\n      jump\t// out\n        /* \"contracts/Main.sol\":4875:5549  function addUser (address _userAddress, string memory _name, Role _role) public onlyRole(Role.Admin){... */\n    tag_45:\n        /* \"contracts/Main.sol\":4964:4974  Role.Admin */\n      0x01\n      dup1\n        /* \"contracts/Main.sol\":3122:3132  msg.sender */\n      caller\n        /* \"contracts/Main.sol\":3116:3133  users[msg.sender] */\n      0x00\n      swap1\n      dup2\n      mstore\n        /* \"contracts/Main.sol\":3116:3121  users */\n      0x02\n        /* \"contracts/Main.sol\":3116:3133  users[msg.sender] */\n      0x20\n      mstore\n      0x40\n      swap1\n      keccak256\n        /* \"contracts/Main.sol\":3116:3138  users[msg.sender].role */\n      0x01\n      add\n      sload\n      0xff\n      and\n        /* \"contracts/Main.sol\":3116:3147  users[msg.sender].role == _role */\n      0x04\n      dup2\n      gt\n      iszero\n      tag_200\n      jumpi\n      tag_200\n      tag_145\n      jump\t// in\n    tag_200:\n      eq\n        /* \"contracts/Main.sol\":3108:3181  require(users[msg.sender].role == _role, \"Access denied: incorrect role\") */\n      tag_201\n      jumpi\n      mload(0x40)\n      shl(0xe5, 0x461bcd)\n      dup2\n      mstore\n      0x04\n      add\n      tag_149\n      swap1\n      tag_150\n      jump\t// in\n    tag_201:\n      sub(shl(0xa0, 0x01), 0x01)\n        /* \"contracts/Main.sol\":4994:5020  _userAddress != address(0) */\n      dup5\n      and\n        /* \"contracts/Main.sol\":4986:5041  require(_userAddress != address(0), \"Invalid address!\") */\n      tag_204\n      jumpi\n      mload(0x40)\n      shl(0xe5, 0x461bcd)\n      dup2\n      mstore\n      0x04\n      add\n      tag_149\n      swap1\n      tag_206\n      jump\t// in\n    tag_204:\n      sub(shl(0xa0, 0x01), 0x01)\n        /* \"contracts/Main.sol\":5090:5109  users[_userAddress] */\n      dup5\n      and\n      0x00\n      swap1\n      dup2\n      mstore\n        /* \"contracts/Main.sol\":5090:5095  users */\n      0x02\n        /* \"contracts/Main.sol\":5090:5109  users[_userAddress] */\n      0x20\n      mstore\n      0x40\n      swap1\n      keccak256\n        /* \"contracts/Main.sol\":5084:5122  bytes(users[_userAddress].name).length */\n      dup1\n      sload\n      tag_207\n      swap1\n      tag_182\n      jump\t// in\n    tag_207:\n        /* \"contracts/Main.sol\":5084:5127  bytes(users[_userAddress].name).length == 0 */\n      iszero\n      swap1\n      pop\n        /* \"contracts/Main.sol\":5076:5153  require(bytes(users[_userAddress].name).length == 0 , \"User already exists!\") */\n      tag_208\n      jumpi\n      mload(0x40)\n      shl(0xe5, 0x461bcd)\n      dup2\n      mstore\n        /* \"#utility.yul\":17917:17919   */\n      0x20\n        /* \"contracts/Main.sol\":5076:5153  require(bytes(users[_userAddress].name).length == 0 , \"User already exists!\") */\n      0x04\n      dup3\n      add\n        /* \"#utility.yul\":17899:17920   */\n      mstore\n        /* \"#utility.yul\":17956:17958   */\n      0x14\n        /* \"#utility.yul\":17936:17954   */\n      0x24\n      dup3\n      add\n        /* \"#utility.yul\":17929:17959   */\n      mstore\n      shl(0x60, 0x5573657220616c72656164792065786973747321)\n        /* \"#utility.yul\":17975:17993   */\n      0x44\n      dup3\n      add\n        /* \"#utility.yul\":17968:18018   */\n      mstore\n        /* \"#utility.yul\":18035:18053   */\n      0x64\n      add\n        /* \"contracts/Main.sol\":5076:5153  require(bytes(users[_userAddress].name).length == 0 , \"User already exists!\") */\n      tag_149\n        /* \"#utility.yul\":17715:18059   */\n      jump\n        /* \"contracts/Main.sol\":5076:5153  require(bytes(users[_userAddress].name).length == 0 , \"User already exists!\") */\n    tag_208:\n        /* \"contracts/Main.sol\":5230:5239  Role.None */\n      0x00\n        /* \"contracts/Main.sol\":5215:5220  _role */\n      dup3\n        /* \"contracts/Main.sol\":5210:5221  uint(_role) */\n      0x04\n      dup2\n      gt\n      iszero\n      tag_214\n      jumpi\n      tag_214\n      tag_145\n      jump\t// in\n    tag_214:\n        /* \"contracts/Main.sol\":5210:5240  uint(_role) >= uint(Role.None) */\n      lt\n      iszero\n        /* \"contracts/Main.sol\":5210:5277  uint(_role) >= uint(Role.None) && uint(_role) <= uint(Role.Auditor) */\n      dup1\n      iszero\n      tag_215\n      jumpi\n      pop\n        /* \"contracts/Main.sol\":5264:5276  Role.Auditor */\n      0x04\n        /* \"contracts/Main.sol\":5249:5254  _role */\n      dup3\n        /* \"contracts/Main.sol\":5244:5255  uint(_role) */\n      0x04\n      dup2\n      gt\n      iszero\n      tag_219\n      jumpi\n      tag_219\n      tag_145\n      jump\t// in\n    tag_219:\n        /* \"contracts/Main.sol\":5244:5277  uint(_role) <= uint(Role.Auditor) */\n      gt\n      iszero\n        /* \"contracts/Main.sol\":5210:5277  uint(_role) >= uint(Role.None) && uint(_role) <= uint(Role.Auditor) */\n    tag_215:\n        /* \"contracts/Main.sol\":5202:5295  require(uint(_role) >= uint(Role.None) && uint(_role) <= uint(Role.Auditor), \"Invalid role!\") */\n      tag_220\n      jumpi\n      mload(0x40)\n      shl(0xe5, 0x461bcd)\n      dup2\n      mstore\n        /* \"#utility.yul\":18266:18268   */\n      0x20\n        /* \"contracts/Main.sol\":5202:5295  require(uint(_role) >= uint(Role.None) && uint(_role) <= uint(Role.Auditor), \"Invalid role!\") */\n      0x04\n      dup3\n      add\n        /* \"#utility.yul\":18248:18269   */\n      mstore\n        /* \"#utility.yul\":18305:18307   */\n      0x0d\n        /* \"#utility.yul\":18285:18303   */\n      0x24\n      dup3\n      add\n        /* \"#utility.yul\":18278:18308   */\n      mstore\n      shl(0x98, 0x496e76616c696420726f6c6521)\n        /* \"#utility.yul\":18324:18342   */\n      0x44\n      dup3\n      add\n        /* \"#utility.yul\":18317:18360   */\n      mstore\n        /* \"#utility.yul\":18377:18395   */\n      0x64\n      add\n        /* \"contracts/Main.sol\":5202:5295  require(uint(_role) >= uint(Role.None) && uint(_role) <= uint(Role.Auditor), \"Invalid role!\") */\n      tag_149\n        /* \"#utility.yul\":18064:18401   */\n      jump\n        /* \"contracts/Main.sol\":5202:5295  require(uint(_role) >= uint(Role.None) && uint(_role) <= uint(Role.Auditor), \"Invalid role!\") */\n    tag_220:\n        /* \"contracts/Main.sol\":5332:5349  User(_name,_role) */\n      mload(0x40)\n      dup1\n      0x40\n      add\n      0x40\n      mstore\n      dup1\n        /* \"contracts/Main.sol\":5337:5342  _name */\n      dup5\n        /* \"contracts/Main.sol\":5332:5349  User(_name,_role) */\n      dup2\n      mstore\n      0x20\n      add\n        /* \"contracts/Main.sol\":5343:5348  _role */\n      dup4\n        /* \"contracts/Main.sol\":5332:5349  User(_name,_role) */\n      0x04\n      dup2\n      gt\n      iszero\n      tag_224\n      jumpi\n      tag_224\n      tag_145\n      jump\t// in\n    tag_224:\n      swap1\n      mstore\n      sub(shl(0xa0, 0x01), 0x01)\n        /* \"contracts/Main.sol\":5310:5329  users[_userAddress] */\n      dup6\n      and\n      0x00\n      swap1\n      dup2\n      mstore\n        /* \"contracts/Main.sol\":5310:5315  users */\n      0x02\n        /* \"contracts/Main.sol\":5310:5329  users[_userAddress] */\n      0x20\n      mstore\n      0x40\n      swap1\n      keccak256\n        /* \"contracts/Main.sol\":5310:5349  users[_userAddress] = User(_name,_role) */\n      dup2\n      mload\n        /* \"contracts/Main.sol\":5310:5329  users[_userAddress] */\n      dup2\n      swap1\n        /* \"contracts/Main.sol\":5310:5349  users[_userAddress] = User(_name,_role) */\n      tag_225\n      swap1\n        /* \"contracts/Main.sol\":5310:5329  users[_userAddress] */\n      dup3\n        /* \"contracts/Main.sol\":5310:5349  users[_userAddress] = User(_name,_role) */\n      tag_226\n      jump\t// in\n    tag_225:\n      pop\n      0x20\n      dup3\n      add\n      mload\n      0x01\n      dup1\n      dup4\n      add\n      dup1\n      sload\n      swap1\n      swap2\n      not(0xff)\n      swap1\n      swap2\n      and\n      swap1\n      dup4\n      0x04\n      dup2\n      gt\n      iszero\n      tag_228\n      jumpi\n      tag_228\n      tag_145\n      jump\t// in\n    tag_228:\n      mul\n      or\n      swap1\n      sstore\n      pop\n      pop\n        /* \"contracts/Main.sol\":5360:5373  userAddresses */\n      0x03\n        /* \"contracts/Main.sol\":5360:5392  userAddresses.push(_userAddress) */\n      dup1\n      sload\n      0x01\n      dup2\n      add\n      dup3\n      sstore\n      0x00\n      swap2\n      dup3\n      mstore\n      0xc2575a0e9e593c00f959f8c92f12db2869c3395a3b0502d05e2516446f71f85b\n      add\n      dup1\n      sload\n      not(sub(shl(0xa0, 0x01), 0x01))\n      and\n      sub(shl(0xa0, 0x01), 0x01)\n      dup9\n      and\n      or\n      swap1\n      sstore\n      swap1\n      pop\n        /* \"contracts/Main.sol\":5432:5451  roleToString(_role) */\n      tag_230\n        /* \"contracts/Main.sol\":5445:5450  _role */\n      dup4\n        /* \"contracts/Main.sol\":5432:5444  roleToString */\n      tag_231\n        /* \"contracts/Main.sol\":5432:5451  roleToString(_role) */\n      jump\t// in\n    tag_230:\n        /* \"contracts/Main.sol\":5403:5451  string memory current_role = roleToString(_role) */\n      swap1\n      pop\n        /* \"contracts/Main.sol\":5507:5519  _userAddress */\n      dup5\n      sub(shl(0xa0, 0x01), 0x01)\n        /* \"contracts/Main.sol\":5469:5541  UserAdded(\"User added successfully!\", _userAddress, _name, current_role) */\n      and\n      0xc2b801d81f6e22509f9eed15df60b144df9483674ff7a983aa3d2c378e7ae5f0\n        /* \"contracts/Main.sol\":5521:5526  _name */\n      dup6\n        /* \"contracts/Main.sol\":5528:5540  current_role */\n      dup4\n        /* \"contracts/Main.sol\":5469:5541  UserAdded(\"User added successfully!\", _userAddress, _name, current_role) */\n      mload(0x40)\n      tag_232\n      swap3\n      swap2\n      swap1\n      tag_233\n      jump\t// in\n    tag_232:\n      mload(0x40)\n      dup1\n      swap2\n      sub\n      swap1\n      log2\n        /* \"contracts/Main.sol\":4975:5549  {... */\n      pop\n        /* \"contracts/Main.sol\":4875:5549  function addUser (address _userAddress, string memory _name, Role _role) public onlyRole(Role.Admin){... */\n      pop\n      pop\n      pop\n      pop\n      jump\t// out\n        /* \"contracts/Main.sol\":2105:2135  address[] public userAddresses */\n    tag_49:\n      0x03\n      dup2\n      dup2\n      sload\n      dup2\n      lt\n      tag_234\n      jumpi\n      0x00\n      dup1\n      revert\n    tag_234:\n      0x00\n      swap2\n      dup3\n      mstore\n      0x20\n      swap1\n      swap2\n      keccak256\n      add\n      sload\n      sub(shl(0xa0, 0x01), 0x01)\n      and\n      swap1\n      pop\n      dup2\n      jump\t// out\n        /* \"contracts/Main.sol\":5576:6542  function deleteUser(address _userAddress) public onlyRole(Role.Admin){... */\n    tag_55:\n        /* \"contracts/Main.sol\":5634:5644  Role.Admin */\n      0x01\n      dup1\n        /* \"contracts/Main.sol\":3122:3132  msg.sender */\n      caller\n        /* \"contracts/Main.sol\":3116:3133  users[msg.sender] */\n      0x00\n      swap1\n      dup2\n      mstore\n        /* \"contracts/Main.sol\":3116:3121  users */\n      0x02\n        /* \"contracts/Main.sol\":3116:3133  users[msg.sender] */\n      0x20\n      mstore\n      0x40\n      swap1\n      keccak256\n        /* \"contracts/Main.sol\":3116:3138  users[msg.sender].role */\n      0x01\n      add\n      sload\n      0xff\n      and\n        /* \"contracts/Main.sol\":3116:3147  users[msg.sender].role == _role */\n      0x04\n      dup2\n      gt\n      iszero\n      tag_240\n      jumpi\n      tag_240\n      tag_145\n      jump\t// in\n    tag_240:\n      eq\n        /* \"contracts/Main.sol\":3108:3181  require(users[msg.sender].role == _role, \"Access denied: incorrect role\") */\n      tag_241\n      jumpi\n      mload(0x40)\n      shl(0xe5, 0x461bcd)\n      dup2\n      mstore\n      0x04\n      add\n      tag_149\n      swap1\n      tag_150\n      jump\t// in\n    tag_241:\n      sub(shl(0xa0, 0x01), 0x01)\n        /* \"contracts/Main.sol\":5664:5690  _userAddress != address(0) */\n      dup3\n      and\n        /* \"contracts/Main.sol\":5656:5711  require(_userAddress != address(0), \"Invalid address!\") */\n      tag_244\n      jumpi\n      mload(0x40)\n      shl(0xe5, 0x461bcd)\n      dup2\n      mstore\n      0x04\n      add\n      tag_149\n      swap1\n      tag_206\n      jump\t// in\n    tag_244:\n      sub(shl(0xa0, 0x01), 0x01)\n        /* \"contracts/Main.sol\":5736:5755  users[_userAddress] */\n      dup3\n      and\n      0x00\n      swap1\n      dup2\n      mstore\n        /* \"contracts/Main.sol\":5736:5741  users */\n      0x02\n        /* \"contracts/Main.sol\":5736:5755  users[_userAddress] */\n      0x20\n      mstore\n      0x40\n      swap1\n      keccak256\n        /* \"contracts/Main.sol\":5730:5768  bytes(users[_userAddress].name).length */\n      dup1\n      sload\n      tag_246\n      swap1\n      tag_182\n      jump\t// in\n    tag_246:\n      swap1\n      pop\n        /* \"contracts/Main.sol\":5772:5773  0 */\n      0x00\n        /* \"contracts/Main.sol\":5730:5773  bytes(users[_userAddress].name).length != 0 */\n      sub\n        /* \"contracts/Main.sol\":5722:5797  require(bytes(users[_userAddress].name).length != 0, \"User doesn't exist!\") */\n      tag_247\n      jumpi\n      mload(0x40)\n      shl(0xe5, 0x461bcd)\n      dup2\n      mstore\n        /* \"#utility.yul\":21447:21449   */\n      0x20\n        /* \"contracts/Main.sol\":5722:5797  require(bytes(users[_userAddress].name).length != 0, \"User doesn't exist!\") */\n      0x04\n      dup3\n      add\n        /* \"#utility.yul\":21429:21450   */\n      mstore\n        /* \"#utility.yul\":21486:21488   */\n      0x13\n        /* \"#utility.yul\":21466:21484   */\n      0x24\n      dup3\n      add\n        /* \"#utility.yul\":21459:21489   */\n      mstore\n      shl(0x68, 0x5573657220646f65736e277420657869737421)\n        /* \"#utility.yul\":21505:21523   */\n      0x44\n      dup3\n      add\n        /* \"#utility.yul\":21498:21547   */\n      mstore\n        /* \"#utility.yul\":21564:21582   */\n      0x64\n      add\n        /* \"contracts/Main.sol\":5722:5797  require(bytes(users[_userAddress].name).length != 0, \"User doesn't exist!\") */\n      tag_149\n        /* \"#utility.yul\":21245:21588   */\n      jump\n        /* \"contracts/Main.sol\":5722:5797  require(bytes(users[_userAddress].name).length != 0, \"User doesn't exist!\") */\n    tag_247:\n      sub(shl(0xa0, 0x01), 0x01)\n        /* \"contracts/Main.sol\":5929:5948  users[_userAddress] */\n      dup3\n      and\n        /* \"contracts/Main.sol\":5908:5926  string memory name */\n      0x00\n        /* \"contracts/Main.sol\":5929:5948  users[_userAddress] */\n      swap1\n      dup2\n      mstore\n        /* \"contracts/Main.sol\":5929:5934  users */\n      0x02\n        /* \"contracts/Main.sol\":5929:5948  users[_userAddress] */\n      0x20\n      mstore\n      0x40\n      dup2\n      keccak256\n        /* \"contracts/Main.sol\":5908:5953  string memory name = users[_userAddress].name */\n      dup1\n      sload\n      tag_250\n      swap1\n      tag_182\n      jump\t// in\n    tag_250:\n      dup1\n      0x1f\n      add\n      0x20\n      dup1\n      swap2\n      div\n      mul\n      0x20\n      add\n      mload(0x40)\n      swap1\n      dup2\n      add\n      0x40\n      mstore\n      dup1\n      swap3\n      swap2\n      swap1\n      dup2\n      dup2\n      mstore\n      0x20\n      add\n      dup3\n      dup1\n      sload\n      tag_251\n      swap1\n      tag_182\n      jump\t// in\n    tag_251:\n      dup1\n      iszero\n      tag_252\n      jumpi\n      dup1\n      0x1f\n      lt\n      tag_253\n      jumpi\n      0x0100\n      dup1\n      dup4\n      sload\n      div\n      mul\n      dup4\n      mstore\n      swap2\n      0x20\n      add\n      swap2\n      jump(tag_252)\n    tag_253:\n      dup3\n      add\n      swap2\n      swap1\n      0x00\n      mstore\n      keccak256(0x00, 0x20)\n      swap1\n    tag_254:\n      dup2\n      sload\n      dup2\n      mstore\n      swap1\n      0x01\n      add\n      swap1\n      0x20\n      add\n      dup1\n      dup4\n      gt\n      tag_254\n      jumpi\n      dup3\n      swap1\n      sub\n      0x1f\n      and\n      dup3\n      add\n      swap2\n    tag_252:\n      pop\n      pop\n      pop\n      pop\n      sub(shl(0xa0, 0x01), 0x01)\n        /* \"contracts/Main.sol\":6006:6025  users[_userAddress] */\n      dup6\n      and\n        /* \"contracts/Main.sol\":5964:5990  string memory current_role */\n      0x00\n        /* \"contracts/Main.sol\":6006:6025  users[_userAddress] */\n      swap1\n      dup2\n      mstore\n        /* \"contracts/Main.sol\":6006:6011  users */\n      0x02\n        /* \"contracts/Main.sol\":6006:6025  users[_userAddress] */\n      0x20\n      mstore\n      0x40\n      dup2\n      keccak256\n        /* \"contracts/Main.sol\":6006:6030  users[_userAddress].role */\n      0x01\n      add\n      sload\n        /* \"contracts/Main.sol\":5908:5953  string memory name = users[_userAddress].name */\n      swap3\n      swap4\n      pop\n        /* \"contracts/Main.sol\":5964:5990  string memory current_role */\n      swap2\n        /* \"contracts/Main.sol\":5993:6031  roleToString(users[_userAddress].role) */\n      tag_255\n      swap2\n      pop\n        /* \"contracts/Main.sol\":6006:6030  users[_userAddress].role */\n      0xff\n      and\n        /* \"contracts/Main.sol\":5993:6005  roleToString */\n      tag_231\n        /* \"contracts/Main.sol\":5993:6031  roleToString(users[_userAddress].role) */\n      jump\t// in\n    tag_255:\n      sub(shl(0xa0, 0x01), 0x01)\n        /* \"contracts/Main.sol\":6087:6106  users[_userAddress] */\n      dup6\n      and\n      0x00\n      swap1\n      dup2\n      mstore\n        /* \"contracts/Main.sol\":6087:6092  users */\n      0x02\n        /* \"contracts/Main.sol\":6087:6106  users[_userAddress] */\n      0x20\n      mstore\n      0x40\n      dup2\n      keccak256\n        /* \"contracts/Main.sol\":5964:6031  string memory current_role = roleToString(users[_userAddress].role) */\n      swap2\n      swap3\n      pop\n        /* \"contracts/Main.sol\":6080:6106  delete users[_userAddress] */\n      tag_256\n        /* \"contracts/Main.sol\":6087:6106  users[_userAddress] */\n      dup3\n      dup3\n        /* \"contracts/Main.sol\":6080:6106  delete users[_userAddress] */\n      tag_257\n      jump\t// in\n    tag_256:\n      pop\n      0x01\n      add\n      dup1\n      sload\n      not(0xff)\n      and\n      swap1\n      sstore\n      0x00\n        /* \"contracts/Main.sol\":6175:6442  for (uint i = 0; i < userAddresses.length; i++) {... */\n    tag_258:\n        /* \"contracts/Main.sol\":6196:6209  userAddresses */\n      0x03\n        /* \"contracts/Main.sol\":6196:6216  userAddresses.length */\n      sload\n        /* \"contracts/Main.sol\":6192:6216  i < userAddresses.length */\n      dup2\n      lt\n        /* \"contracts/Main.sol\":6175:6442  for (uint i = 0; i < userAddresses.length; i++) {... */\n      iszero\n      tag_259\n      jumpi\n        /* \"contracts/Main.sol\":6262:6274  _userAddress */\n      dup5\n      sub(shl(0xa0, 0x01), 0x01)\n        /* \"contracts/Main.sol\":6242:6274  userAddresses[i] == _userAddress */\n      and\n        /* \"contracts/Main.sol\":6242:6255  userAddresses */\n      0x03\n        /* \"contracts/Main.sol\":6256:6257  i */\n      dup3\n        /* \"contracts/Main.sol\":6242:6258  userAddresses[i] */\n      dup2\n      sload\n      dup2\n      lt\n      tag_262\n      jumpi\n      tag_262\n      tag_263\n      jump\t// in\n    tag_262:\n      0x00\n      swap2\n      dup3\n      mstore\n      0x20\n      swap1\n      swap2\n      keccak256\n      add\n      sload\n      sub(shl(0xa0, 0x01), 0x01)\n      and\n        /* \"contracts/Main.sol\":6242:6274  userAddresses[i] == _userAddress */\n      sub\n        /* \"contracts/Main.sol\":6238:6431  if (userAddresses[i] == _userAddress) {... */\n      tag_265\n      jumpi\n        /* \"contracts/Main.sol\":6314:6327  userAddresses */\n      0x03\n        /* \"contracts/Main.sol\":6328:6348  userAddresses.length */\n      dup1\n      sload\n        /* \"contracts/Main.sol\":6328:6352  userAddresses.length - 1 */\n      tag_266\n      swap1\n        /* \"contracts/Main.sol\":6351:6352  1 */\n      0x01\n      swap1\n        /* \"contracts/Main.sol\":6328:6352  userAddresses.length - 1 */\n      tag_267\n      jump\t// in\n    tag_266:\n        /* \"contracts/Main.sol\":6314:6353  userAddresses[userAddresses.length - 1] */\n      dup2\n      sload\n      dup2\n      lt\n      tag_269\n      jumpi\n      tag_269\n      tag_263\n      jump\t// in\n    tag_269:\n      0x00\n      swap2\n      dup3\n      mstore\n      0x20\n      swap1\n      swap2\n      keccak256\n      add\n      sload\n        /* \"contracts/Main.sol\":6295:6308  userAddresses */\n      0x03\n        /* \"contracts/Main.sol\":6295:6311  userAddresses[i] */\n      dup1\n      sload\n      sub(shl(0xa0, 0x01), 0x01)\n        /* \"contracts/Main.sol\":6314:6353  userAddresses[userAddresses.length - 1] */\n      swap1\n      swap3\n      and\n      swap2\n        /* \"contracts/Main.sol\":6309:6310  i */\n      dup4\n      swap1\n        /* \"contracts/Main.sol\":6295:6311  userAddresses[i] */\n      dup2\n      lt\n      tag_272\n      jumpi\n      tag_272\n      tag_263\n      jump\t// in\n    tag_272:\n      swap1\n      0x00\n      mstore\n      keccak256(0x00, 0x20)\n      add\n      0x00\n        /* \"contracts/Main.sol\":6295:6353  userAddresses[i] = userAddresses[userAddresses.length - 1] */\n      0x0100\n      exp\n      dup2\n      sload\n      dup2\n      sub(shl(0xa0, 0x01), 0x01)\n      mul\n      not\n      and\n      swap1\n      dup4\n      sub(shl(0xa0, 0x01), 0x01)\n      and\n      mul\n      or\n      swap1\n      sstore\n      pop\n        /* \"contracts/Main.sol\":6372:6385  userAddresses */\n      0x03\n        /* \"contracts/Main.sol\":6372:6391  userAddresses.pop() */\n      dup1\n      sload\n      dup1\n      tag_275\n      jumpi\n      tag_275\n      tag_276\n      jump\t// in\n    tag_275:\n      0x00\n      dup3\n      dup2\n      mstore\n      0x20\n      swap1\n      keccak256\n      dup2\n      add\n      not(0x00)\n      swap1\n      dup2\n      add\n      dup1\n      sload\n      not(sub(shl(0xa0, 0x01), 0x01))\n      and\n      swap1\n      sstore\n      add\n      swap1\n      sstore\n        /* \"contracts/Main.sol\":6410:6415  break */\n      jump(tag_259)\n        /* \"contracts/Main.sol\":6238:6431  if (userAddresses[i] == _userAddress) {... */\n    tag_265:\n        /* \"contracts/Main.sol\":6218:6221  i++ */\n      dup1\n      tag_278\n      dup2\n      tag_279\n      jump\t// in\n    tag_278:\n      swap2\n      pop\n      pop\n        /* \"contracts/Main.sol\":6175:6442  for (uint i = 0; i < userAddresses.length; i++) {... */\n      jump(tag_258)\n    tag_259:\n      pop\n        /* \"contracts/Main.sol\":6501:6513  _userAddress */\n      dup4\n      sub(shl(0xa0, 0x01), 0x01)\n        /* \"contracts/Main.sol\":6459:6534  UserDeleted(\"User deleted successfully!\", _userAddress, name, current_role) */\n      and\n      0xc15d693267c3b1d5b865044ab75f608276dc7369a471245e8f087042c9236c08\n        /* \"contracts/Main.sol\":6515:6519  name */\n      dup4\n        /* \"contracts/Main.sol\":6521:6533  current_role */\n      dup4\n        /* \"contracts/Main.sol\":6459:6534  UserDeleted(\"User deleted successfully!\", _userAddress, name, current_role) */\n      mload(0x40)\n      tag_280\n      swap3\n      swap2\n      swap1\n      tag_281\n      jump\t// in\n    tag_280:\n      mload(0x40)\n      dup1\n      swap2\n      sub\n      swap1\n      log2\n        /* \"contracts/Main.sol\":5645:6542  {... */\n      pop\n      pop\n        /* \"contracts/Main.sol\":5576:6542  function deleteUser(address _userAddress) public onlyRole(Role.Admin){... */\n      pop\n      pop\n      jump\t// out\n        /* \"contracts/Main.sol\":12273:12507  function getProduct(string memory productName) public view returns (Product memory){... */\n    tag_58:\n        /* \"contracts/Main.sol\":12341:12355  Product memory */\n      tag_282\n      mload(0x40)\n      dup1\n      0x80\n      add\n      0x40\n      mstore\n      dup1\n      0x00\n      dup2\n      mstore\n      0x20\n      add\n      0x60\n      dup2\n      mstore\n      0x20\n      add\n      0x00\n      dup2\n      mstore\n      0x20\n      add\n      0x60\n      dup2\n      mstore\n      pop\n      swap1\n      jump\n    tag_282:\n        /* \"contracts/Main.sol\":12381:12395  nameToProducts */\n      0x08\n        /* \"contracts/Main.sol\":12396:12407  productName */\n      dup3\n        /* \"contracts/Main.sol\":12381:12408  nameToProducts[productName] */\n      mload(0x40)\n      tag_285\n      swap2\n      swap1\n      tag_180\n      jump\t// in\n    tag_285:\n      swap1\n      dup2\n      mstore\n      0x20\n      add\n      mload(0x40)\n      dup1\n      swap2\n      sub\n      swap1\n      keccak256\n        /* \"contracts/Main.sol\":12381:12413  nameToProducts[productName].name */\n      0x01\n      add\n        /* \"contracts/Main.sol\":12375:12421  bytes(nameToProducts[productName].name).length */\n      dup1\n      sload\n      tag_286\n      swap1\n      tag_182\n      jump\t// in\n    tag_286:\n      swap1\n      pop\n        /* \"contracts/Main.sol\":12425:12426  0 */\n      0x00\n        /* \"contracts/Main.sol\":12375:12426  bytes(nameToProducts[productName].name).length != 0 */\n      sub\n        /* \"contracts/Main.sol\":12367:12452  require(bytes(nameToProducts[productName].name).length != 0, \"Product doesn't exist\") */\n      tag_287\n      jumpi\n      mload(0x40)\n      shl(0xe5, 0x461bcd)\n      dup2\n      mstore\n        /* \"#utility.yul\":23101:23103   */\n      0x20\n        /* \"contracts/Main.sol\":12367:12452  require(bytes(nameToProducts[productName].name).length != 0, \"Product doesn't exist\") */\n      0x04\n      dup3\n      add\n        /* \"#utility.yul\":23083:23104   */\n      mstore\n        /* \"#utility.yul\":23140:23142   */\n      0x15\n        /* \"#utility.yul\":23120:23138   */\n      0x24\n      dup3\n      add\n        /* \"#utility.yul\":23113:23143   */\n      mstore\n      shl(0x5a, 0x141c9bd91d58dd08191bd95cdb89dd08195e1a5cdd)\n        /* \"#utility.yul\":23159:23177   */\n      0x44\n      dup3\n      add\n        /* \"#utility.yul\":23152:23203   */\n      mstore\n        /* \"#utility.yul\":23220:23238   */\n      0x64\n      add\n        /* \"contracts/Main.sol\":12367:12452  require(bytes(nameToProducts[productName].name).length != 0, \"Product doesn't exist\") */\n      tag_149\n        /* \"#utility.yul\":22899:23244   */\n      jump\n        /* \"contracts/Main.sol\":12367:12452  require(bytes(nameToProducts[productName].name).length != 0, \"Product doesn't exist\") */\n    tag_287:\n        /* \"contracts/Main.sol\":12472:12486  nameToProducts */\n      0x08\n        /* \"contracts/Main.sol\":12487:12498  productName */\n      dup3\n        /* \"contracts/Main.sol\":12472:12499  nameToProducts[productName] */\n      mload(0x40)\n      tag_290\n      swap2\n      swap1\n      tag_180\n      jump\t// in\n    tag_290:\n      swap1\n      dup2\n      mstore\n      0x20\n      add\n      mload(0x40)\n      dup1\n      swap2\n      sub\n      swap1\n      keccak256\n        /* \"contracts/Main.sol\":12465:12499  return nameToProducts[productName] */\n      mload(0x40)\n      dup1\n      0x80\n      add\n      0x40\n      mstore\n      swap1\n      dup2\n      0x00\n      dup3\n      add\n      sload\n      dup2\n      mstore\n      0x20\n      add\n      0x01\n      dup3\n      add\n      dup1\n      sload\n      tag_291\n      swap1\n      tag_182\n      jump\t// in\n    tag_291:\n      dup1\n      0x1f\n      add\n      0x20\n      dup1\n      swap2\n      div\n      mul\n      0x20\n      add\n      mload(0x40)\n      swap1\n      dup2\n      add\n      0x40\n      mstore\n      dup1\n      swap3\n      swap2\n      swap1\n      dup2\n      dup2\n      mstore\n      0x20\n      add\n      dup3\n      dup1\n      sload\n      tag_292\n      swap1\n      tag_182\n      jump\t// in\n    tag_292:\n      dup1\n      iszero\n      tag_293\n      jumpi\n      dup1\n      0x1f\n      lt\n      tag_294\n      jumpi\n      0x0100\n      dup1\n      dup4\n      sload\n      div\n      mul\n      dup4\n      mstore\n      swap2\n      0x20\n      add\n      swap2\n      jump(tag_293)\n    tag_294:\n      dup3\n      add\n      swap2\n      swap1\n      0x00\n      mstore\n      keccak256(0x00, 0x20)\n      swap1\n    tag_295:\n      dup2\n      sload\n      dup2\n      mstore\n      swap1\n      0x01\n      add\n      swap1\n      0x20\n      add\n      dup1\n      dup4\n      gt\n      tag_295\n      jumpi\n      dup3\n      swap1\n      sub\n      0x1f\n      and\n      dup3\n      add\n      swap2\n    tag_293:\n      pop\n      pop\n      pop\n      pop\n      pop\n      dup2\n      mstore\n      0x20\n      add\n      0x02\n      dup3\n      add\n      sload\n      dup2\n      mstore\n      0x20\n      add\n      0x03\n      dup3\n      add\n      dup1\n      sload\n      tag_296\n      swap1\n      tag_182\n      jump\t// in\n    tag_296:\n      dup1\n      0x1f\n      add\n      0x20\n      dup1\n      swap2\n      div\n      mul\n      0x20\n      add\n      mload(0x40)\n      swap1\n      dup2\n      add\n      0x40\n      mstore\n      dup1\n      swap3\n      swap2\n      swap1\n      dup2\n      dup2\n      mstore\n      0x20\n      add\n      dup3\n      dup1\n      sload\n      tag_297\n      swap1\n      tag_182\n      jump\t// in\n    tag_297:\n      dup1\n      iszero\n      tag_298\n      jumpi\n      dup1\n      0x1f\n      lt\n      tag_299\n      jumpi\n      0x0100\n      dup1\n      dup4\n      sload\n      div\n      mul\n      dup4\n      mstore\n      swap2\n      0x20\n      add\n      swap2\n      jump(tag_298)\n    tag_299:\n      dup3\n      add\n      swap2\n      swap1\n      0x00\n      mstore\n      keccak256(0x00, 0x20)\n      swap1\n    tag_300:\n      dup2\n      sload\n      dup2\n      mstore\n      swap1\n      0x01\n      add\n      swap1\n      0x20\n      add\n      dup1\n      dup4\n      gt\n      tag_300\n      jumpi\n      dup3\n      swap1\n      sub\n      0x1f\n      and\n      dup3\n      add\n      swap2\n    tag_298:\n      pop\n      pop\n      pop\n      pop\n      pop\n      dup2\n      mstore\n      pop\n      pop\n      swap1\n      pop\n        /* \"contracts/Main.sol\":12273:12507  function getProduct(string memory productName) public view returns (Product memory){... */\n      swap2\n      swap1\n      pop\n      jump\t// out\n        /* \"contracts/Main.sol\":7336:7528  function getUserByAddress(address _userAddress) public view returns (User memory) {... */\n    tag_63:\n      0x40\n      dup1\n      mload\n      dup1\n      dup3\n      add\n      swap1\n      swap2\n      mstore\n      0x60\n      dup2\n      mstore\n      0x00\n      0x20\n      dup3\n      add\n      mstore\n      sub(shl(0xa0, 0x01), 0x01)\n        /* \"contracts/Main.sol\":7437:7463  _userAddress != address(0) */\n      dup3\n      and\n        /* \"contracts/Main.sol\":7429:7483  require(_userAddress != address(0), \"Invalid address\") */\n      tag_304\n      jumpi\n      mload(0x40)\n      shl(0xe5, 0x461bcd)\n      dup2\n      mstore\n        /* \"#utility.yul\":15849:15851   */\n      0x20\n        /* \"contracts/Main.sol\":7429:7483  require(_userAddress != address(0), \"Invalid address\") */\n      0x04\n      dup3\n      add\n        /* \"#utility.yul\":15831:15852   */\n      mstore\n        /* \"#utility.yul\":15888:15890   */\n      0x0f\n        /* \"#utility.yul\":15868:15886   */\n      0x24\n      dup3\n      add\n        /* \"#utility.yul\":15861:15891   */\n      mstore\n      shl(0x88, 0x496e76616c69642061646472657373)\n        /* \"#utility.yul\":15907:15925   */\n      0x44\n      dup3\n      add\n        /* \"#utility.yul\":15900:15945   */\n      mstore\n        /* \"#utility.yul\":15962:15980   */\n      0x64\n      add\n        /* \"contracts/Main.sol\":7429:7483  require(_userAddress != address(0), \"Invalid address\") */\n      tag_149\n        /* \"#utility.yul\":15647:15986   */\n      jump\n        /* \"contracts/Main.sol\":7429:7483  require(_userAddress != address(0), \"Invalid address\") */\n    tag_304:\n      sub(shl(0xa0, 0x01), 0x01)\n        /* \"contracts/Main.sol\":7501:7520  users[_userAddress] */\n      dup3\n      and\n      0x00\n      swap1\n      dup2\n      mstore\n        /* \"contracts/Main.sol\":7501:7506  users */\n      0x02\n        /* \"contracts/Main.sol\":7501:7520  users[_userAddress] */\n      0x20\n      mstore\n      0x40\n      swap1\n      dup2\n      swap1\n      keccak256\n        /* \"contracts/Main.sol\":7494:7520  return users[_userAddress] */\n      dup2\n      mload\n      dup1\n      dup4\n      add\n      swap1\n      swap3\n      mstore\n      dup1\n      sload\n      dup3\n      swap1\n        /* \"contracts/Main.sol\":7501:7520  users[_userAddress] */\n      dup3\n      swap1\n        /* \"contracts/Main.sol\":7494:7520  return users[_userAddress] */\n      tag_306\n      swap1\n      tag_182\n      jump\t// in\n    tag_306:\n      dup1\n      0x1f\n      add\n      0x20\n      dup1\n      swap2\n      div\n      mul\n      0x20\n      add\n      mload(0x40)\n      swap1\n      dup2\n      add\n      0x40\n      mstore\n      dup1\n      swap3\n      swap2\n      swap1\n      dup2\n      dup2\n      mstore\n      0x20\n      add\n      dup3\n      dup1\n      sload\n      tag_307\n      swap1\n      tag_182\n      jump\t// in\n    tag_307:\n      dup1\n      iszero\n      tag_308\n      jumpi\n      dup1\n      0x1f\n      lt\n      tag_309\n      jumpi\n      0x0100\n      dup1\n      dup4\n      sload\n      div\n      mul\n      dup4\n      mstore\n      swap2\n      0x20\n      add\n      swap2\n      jump(tag_308)\n    tag_309:\n      dup3\n      add\n      swap2\n      swap1\n      0x00\n      mstore\n      keccak256(0x00, 0x20)\n      swap1\n    tag_310:\n      dup2\n      sload\n      dup2\n      mstore\n      swap1\n      0x01\n      add\n      swap1\n      0x20\n      add\n      dup1\n      dup4\n      gt\n      tag_310\n      jumpi\n      dup3\n      swap1\n      sub\n      0x1f\n      and\n      dup3\n      add\n      swap2\n    tag_308:\n      pop\n      pop\n      pop\n      swap2\n      dup4\n      mstore\n      pop\n      pop\n      0x01\n      dup3\n      add\n      sload\n      0x20\n      swap1\n      swap2\n      add\n      swap1\n      0xff\n      and\n      0x04\n      dup2\n      gt\n      iszero\n      tag_312\n      jumpi\n      tag_312\n      tag_145\n      jump\t// in\n    tag_312:\n      0x04\n      dup2\n      gt\n      iszero\n      tag_314\n      jumpi\n      tag_314\n      tag_145\n      jump\t// in\n    tag_314:\n      swap1\n      mstore\n      pop\n      swap3\n        /* \"contracts/Main.sol\":7336:7528  function getUserByAddress(address _userAddress) public view returns (User memory) {... */\n      swap2\n      pop\n      pop\n      jump\t// out\n        /* \"contracts/Main.sol\":8244:9184  function deleteEntity(string memory _name) public onlyRole(Role.Admin) {... */\n    tag_68:\n        /* \"contracts/Main.sol\":8303:8313  Role.Admin */\n      0x01\n      dup1\n        /* \"contracts/Main.sol\":3122:3132  msg.sender */\n      caller\n        /* \"contracts/Main.sol\":3116:3133  users[msg.sender] */\n      0x00\n      swap1\n      dup2\n      mstore\n        /* \"contracts/Main.sol\":3116:3121  users */\n      0x02\n        /* \"contracts/Main.sol\":3116:3133  users[msg.sender] */\n      0x20\n      mstore\n      0x40\n      swap1\n      keccak256\n        /* \"contracts/Main.sol\":3116:3138  users[msg.sender].role */\n      0x01\n      add\n      sload\n      0xff\n      and\n        /* \"contracts/Main.sol\":3116:3147  users[msg.sender].role == _role */\n      0x04\n      dup2\n      gt\n      iszero\n      tag_319\n      jumpi\n      tag_319\n      tag_145\n      jump\t// in\n    tag_319:\n      eq\n        /* \"contracts/Main.sol\":3108:3181  require(users[msg.sender].role == _role, \"Access denied: incorrect role\") */\n      tag_320\n      jumpi\n      mload(0x40)\n      shl(0xe5, 0x461bcd)\n      dup2\n      mstore\n      0x04\n      add\n      tag_149\n      swap1\n      tag_150\n      jump\t// in\n    tag_320:\n        /* \"contracts/Main.sol\":8379:8387  entities */\n      0x04\n        /* \"contracts/Main.sol\":8388:8393  _name */\n      dup3\n        /* \"contracts/Main.sol\":8379:8394  entities[_name] */\n      mload(0x40)\n      tag_323\n      swap2\n      swap1\n      tag_180\n      jump\t// in\n    tag_323:\n      swap1\n      dup2\n      mstore\n      mload(0x40)\n      swap1\n      dup2\n      swap1\n      sub\n      0x20\n      add\n      swap1\n      keccak256\n        /* \"contracts/Main.sol\":8373:8407  bytes(entities[_name].name).length */\n      dup1\n      sload\n      tag_324\n      swap1\n      tag_182\n      jump\t// in\n    tag_324:\n      swap1\n      pop\n        /* \"contracts/Main.sol\":8411:8412  0 */\n      0x00\n        /* \"contracts/Main.sol\":8373:8412  bytes(entities[_name].name).length != 0 */\n      sub\n        /* \"contracts/Main.sol\":8365:8438  require(bytes(entities[_name].name).length != 0, \"Entity does not exist\") */\n      tag_325\n      jumpi\n      mload(0x40)\n      shl(0xe5, 0x461bcd)\n      dup2\n      mstore\n        /* \"#utility.yul\":17222:17224   */\n      0x20\n        /* \"contracts/Main.sol\":8365:8438  require(bytes(entities[_name].name).length != 0, \"Entity does not exist\") */\n      0x04\n      dup3\n      add\n        /* \"#utility.yul\":17204:17225   */\n      mstore\n        /* \"#utility.yul\":17261:17263   */\n      0x15\n        /* \"#utility.yul\":17241:17259   */\n      0x24\n      dup3\n      add\n        /* \"#utility.yul\":17234:17264   */\n      mstore\n      shl(0x5a, 0x115b9d1a5d1e48191bd95cc81b9bdd08195e1a5cdd)\n        /* \"#utility.yul\":17280:17298   */\n      0x44\n      dup3\n      add\n        /* \"#utility.yul\":17273:17324   */\n      mstore\n        /* \"#utility.yul\":17341:17359   */\n      0x64\n      add\n        /* \"contracts/Main.sol\":8365:8438  require(bytes(entities[_name].name).length != 0, \"Entity does not exist\") */\n      tag_149\n        /* \"#utility.yul\":17020:17365   */\n      jump\n        /* \"contracts/Main.sol\":8365:8438  require(bytes(entities[_name].name).length != 0, \"Entity does not exist\") */\n    tag_325:\n        /* \"contracts/Main.sol\":8507:8531  string memory entityName */\n      0x00\n        /* \"contracts/Main.sol\":8534:8542  entities */\n      0x04\n        /* \"contracts/Main.sol\":8543:8548  _name */\n      dup4\n        /* \"contracts/Main.sol\":8534:8549  entities[_name] */\n      mload(0x40)\n      tag_327\n      swap2\n      swap1\n      tag_180\n      jump\t// in\n    tag_327:\n      swap1\n      dup2\n      mstore\n      mload(0x40)\n      swap1\n      dup2\n      swap1\n      sub\n      0x20\n      add\n      swap1\n      keccak256\n        /* \"contracts/Main.sol\":8507:8554  string memory entityName = entities[_name].name */\n      dup1\n      sload\n      tag_328\n      swap1\n      tag_182\n      jump\t// in\n    tag_328:\n      dup1\n      0x1f\n      add\n      0x20\n      dup1\n      swap2\n      div\n      mul\n      0x20\n      add\n      mload(0x40)\n      swap1\n      dup2\n      add\n      0x40\n      mstore\n      dup1\n      swap3\n      swap2\n      swap1\n      dup2\n      dup2\n      mstore\n      0x20\n      add\n      dup3\n      dup1\n      sload\n      tag_329\n      swap1\n      tag_182\n      jump\t// in\n    tag_329:\n      dup1\n      iszero\n      tag_330\n      jumpi\n      dup1\n      0x1f\n      lt\n      tag_331\n      jumpi\n      0x0100\n      dup1\n      dup4\n      sload\n      div\n      mul\n      dup4\n      mstore\n      swap2\n      0x20\n      add\n      swap2\n      jump(tag_330)\n    tag_331:\n      dup3\n      add\n      swap2\n      swap1\n      0x00\n      mstore\n      keccak256(0x00, 0x20)\n      swap1\n    tag_332:\n      dup2\n      sload\n      dup2\n      mstore\n      swap1\n      0x01\n      add\n      swap1\n      0x20\n      add\n      dup1\n      dup4\n      gt\n      tag_332\n      jumpi\n      dup3\n      swap1\n      sub\n      0x1f\n      and\n      dup3\n      add\n      swap2\n    tag_330:\n      pop\n      pop\n      pop\n      pop\n      pop\n      swap1\n      pop\n        /* \"contracts/Main.sol\":8565:8586  EntityType entityType */\n      0x00\n        /* \"contracts/Main.sol\":8589:8597  entities */\n      0x04\n        /* \"contracts/Main.sol\":8598:8603  _name */\n      dup5\n        /* \"contracts/Main.sol\":8589:8604  entities[_name] */\n      mload(0x40)\n      tag_333\n      swap2\n      swap1\n      tag_180\n      jump\t// in\n    tag_333:\n      swap1\n      dup2\n      mstore\n      mload(0x40)\n      swap1\n      dup2\n      swap1\n      sub\n      0x20\n      add\n      dup2\n      keccak256\n        /* \"contracts/Main.sol\":8589:8615  entities[_name].entityType */\n      0x01\n      add\n      sload\n      0xff\n      and\n      swap2\n      pop\n        /* \"contracts/Main.sol\":8635:8643  entities */\n      0x04\n      swap1\n        /* \"contracts/Main.sol\":8635:8650  entities[_name] */\n      tag_334\n      swap1\n        /* \"contracts/Main.sol\":8644:8649  _name */\n      dup7\n      swap1\n        /* \"contracts/Main.sol\":8635:8650  entities[_name] */\n      tag_180\n      jump\t// in\n    tag_334:\n      swap1\n      dup2\n      mstore\n      mload(0x40)\n      swap1\n      dup2\n      swap1\n      sub\n      0x20\n      add\n      swap1\n      keccak256\n      0x00\n        /* \"contracts/Main.sol\":8628:8650  delete entities[_name] */\n      tag_335\n        /* \"contracts/Main.sol\":8635:8650  entities[_name] */\n      dup3\n      dup3\n        /* \"contracts/Main.sol\":8628:8650  delete entities[_name] */\n      tag_257\n      jump\t// in\n    tag_335:\n      pop\n      0x01\n      add\n      dup1\n      sload\n      not(0xff)\n      and\n      swap1\n      sstore\n      0x00\n        /* \"contracts/Main.sol\":8751:8765  entitiesByType */\n      0x05\n        /* \"contracts/Main.sol\":8628:8650  delete entities[_name] */\n      dup2\n        /* \"contracts/Main.sol\":8766:8776  entityType */\n      dup4\n        /* \"contracts/Main.sol\":8751:8777  entitiesByType[entityType] */\n      0x06\n      dup2\n      gt\n      iszero\n      tag_337\n      jumpi\n      tag_337\n      tag_145\n      jump\t// in\n    tag_337:\n      0x06\n      dup2\n      gt\n      iszero\n      tag_339\n      jumpi\n      tag_339\n      tag_145\n      jump\t// in\n    tag_339:\n      dup2\n      mstore\n      0x20\n      add\n      swap1\n      dup2\n      mstore\n      0x20\n      add\n      0x00\n      keccak256\n        /* \"contracts/Main.sol\":8726:8777  string[] storage names = entitiesByType[entityType] */\n      swap1\n      pop\n        /* \"contracts/Main.sol\":8793:8799  uint i */\n      0x00\n        /* \"contracts/Main.sol\":8788:9041  for (uint i = 0; i < names.length; i++) {... */\n    tag_340:\n        /* \"contracts/Main.sol\":8809:8821  names.length */\n      dup2\n      sload\n        /* \"contracts/Main.sol\":8805:8821  i < names.length */\n      dup2\n      lt\n        /* \"contracts/Main.sol\":8788:9041  for (uint i = 0; i < names.length; i++) {... */\n      iszero\n      tag_341\n      jumpi\n        /* \"contracts/Main.sol\":8893:8903  entityName */\n      dup4\n        /* \"contracts/Main.sol\":8877:8905  keccak256(bytes(entityName)) */\n      dup1\n      mload\n      swap1\n      0x20\n      add\n      keccak256\n        /* \"contracts/Main.sol\":8863:8868  names */\n      dup3\n        /* \"contracts/Main.sol\":8869:8870  i */\n      dup3\n        /* \"contracts/Main.sol\":8863:8871  names[i] */\n      dup2\n      sload\n      dup2\n      lt\n      tag_344\n      jumpi\n      tag_344\n      tag_263\n      jump\t// in\n    tag_344:\n      swap1\n      0x00\n      mstore\n      keccak256(0x00, 0x20)\n      add\n        /* \"contracts/Main.sol\":8847:8873  keccak256(bytes(names[i])) */\n      mload(0x40)\n      tag_346\n      swap2\n      swap1\n      tag_347\n      jump\t// in\n    tag_346:\n      mload(0x40)\n      dup1\n      swap2\n      sub\n      swap1\n      keccak256\n        /* \"contracts/Main.sol\":8847:8905  keccak256(bytes(names[i])) == keccak256(bytes(entityName)) */\n      sub\n        /* \"contracts/Main.sol\":8843:9030  if (keccak256(bytes(names[i])) == keccak256(bytes(entityName))) {... */\n      tag_348\n      jumpi\n        /* \"contracts/Main.sol\":8943:8955  names.length */\n      dup2\n      sload\n        /* \"contracts/Main.sol\":8937:8942  names */\n      dup3\n      swap1\n        /* \"contracts/Main.sol\":8943:8959  names.length - 1 */\n      tag_349\n      swap1\n        /* \"contracts/Main.sol\":8958:8959  1 */\n      0x01\n      swap1\n        /* \"contracts/Main.sol\":8943:8959  names.length - 1 */\n      tag_267\n      jump\t// in\n    tag_349:\n        /* \"contracts/Main.sol\":8937:8960  names[names.length - 1] */\n      dup2\n      sload\n      dup2\n      lt\n      tag_351\n      jumpi\n      tag_351\n      tag_263\n      jump\t// in\n    tag_351:\n      swap1\n      0x00\n      mstore\n      keccak256(0x00, 0x20)\n      add\n        /* \"contracts/Main.sol\":8926:8931  names */\n      dup3\n        /* \"contracts/Main.sol\":8932:8933  i */\n      dup3\n        /* \"contracts/Main.sol\":8926:8934  names[i] */\n      dup2\n      sload\n      dup2\n      lt\n      tag_354\n      jumpi\n      tag_354\n      tag_263\n      jump\t// in\n    tag_354:\n      swap1\n      0x00\n      mstore\n      keccak256(0x00, 0x20)\n      add\n        /* \"contracts/Main.sol\":8926:8960  names[i] = names[names.length - 1] */\n      swap1\n      dup2\n      tag_356\n      swap2\n      swap1\n      tag_357\n      jump\t// in\n    tag_356:\n      pop\n        /* \"contracts/Main.sol\":8979:8984  names */\n      dup2\n        /* \"contracts/Main.sol\":8979:8990  names.pop() */\n      dup1\n      sload\n      dup1\n      tag_359\n      jumpi\n      tag_359\n      tag_276\n      jump\t// in\n    tag_359:\n      0x01\n      swap1\n      sub\n      dup2\n      dup2\n      swap1\n      0x00\n      mstore\n      keccak256(0x00, 0x20)\n      add\n      0x00\n      tag_361\n      swap2\n      swap1\n      tag_257\n      jump\t// in\n    tag_361:\n      swap1\n      sstore\n        /* \"contracts/Main.sol\":9009:9014  break */\n      jump(tag_341)\n        /* \"contracts/Main.sol\":8843:9030  if (keccak256(bytes(names[i])) == keccak256(bytes(entityName))) {... */\n    tag_348:\n        /* \"contracts/Main.sol\":8823:8826  i++ */\n      dup1\n      tag_362\n      dup2\n      tag_279\n      jump\t// in\n    tag_362:\n      swap2\n      pop\n      pop\n        /* \"contracts/Main.sol\":8788:9041  for (uint i = 0; i < names.length; i++) {... */\n      jump(tag_340)\n    tag_341:\n      pop\n        /* \"contracts/Main.sol\":9107:9176  EntityDeleted(\"Entity deleted successfully!\", entityName, entityType) */\n      0x0f82cb768ba877ad8036d5b821d07c7c53fe940902cec1842ae7a2d0cef3bced\n        /* \"contracts/Main.sol\":9153:9163  entityName */\n      dup4\n        /* \"contracts/Main.sol\":9165:9175  entityType */\n      dup4\n        /* \"contracts/Main.sol\":9107:9176  EntityDeleted(\"Entity deleted successfully!\", entityName, entityType) */\n      mload(0x40)\n      tag_363\n      swap3\n      swap2\n      swap1\n      tag_364\n      jump\t// in\n    tag_363:\n      mload(0x40)\n      dup1\n      swap2\n      sub\n      swap1\n      log1\n        /* \"contracts/Main.sol\":8315:9184  {... */\n      pop\n      pop\n      pop\n        /* \"contracts/Main.sol\":8244:9184  function deleteEntity(string memory _name) public onlyRole(Role.Admin) {... */\n      pop\n      pop\n      jump\t// out\n        /* \"contracts/Main.sol\":2184:2225  mapping(string => Entity) public entities */\n    tag_71:\n      dup1\n      mload\n      0x20\n      dup2\n      dup4\n      add\n      dup2\n      add\n      dup1\n      mload\n      0x04\n      dup3\n      mstore\n      swap3\n      dup3\n      add\n      swap2\n      swap1\n      swap4\n      add\n      keccak256\n      swap2\n      mstore\n      dup1\n      sload\n      dup2\n      swap1\n      tag_365\n      swap1\n      tag_182\n      jump\t// in\n    tag_365:\n      dup1\n      0x1f\n      add\n      0x20\n      dup1\n      swap2\n      div\n      mul\n      0x20\n      add\n      mload(0x40)\n      swap1\n      dup2\n      add\n      0x40\n      mstore\n      dup1\n      swap3\n      swap2\n      swap1\n      dup2\n      dup2\n      mstore\n      0x20\n      add\n      dup3\n      dup1\n      sload\n      tag_366\n      swap1\n      tag_182\n      jump\t// in\n    tag_366:\n      dup1\n      iszero\n      tag_367\n      jumpi\n      dup1\n      0x1f\n      lt\n      tag_368\n      jumpi\n      0x0100\n      dup1\n      dup4\n      sload\n      div\n      mul\n      dup4\n      mstore\n      swap2\n      0x20\n      add\n      swap2\n      jump(tag_367)\n    tag_368:\n      dup3\n      add\n      swap2\n      swap1\n      0x00\n      mstore\n      keccak256(0x00, 0x20)\n      swap1\n    tag_369:\n      dup2\n      sload\n      dup2\n      mstore\n      swap1\n      0x01\n      add\n      swap1\n      0x20\n      add\n      dup1\n      dup4\n      gt\n      tag_369\n      jumpi\n      dup3\n      swap1\n      sub\n      0x1f\n      and\n      dup3\n      add\n      swap2\n    tag_367:\n      pop\n      pop\n      pop\n      0x01\n      swap1\n      swap4\n      add\n      sload\n      swap2\n      swap3\n      pop\n      pop\n      0xff\n      and\n      dup3\n      jump\t// out\n        /* \"contracts/Main.sol\":10937:11311  function deleteProduct(string memory ProductName) public {... */\n    tag_76:\n        /* \"contracts/Main.sol\":11019:11033  nameToProducts */\n      0x08\n        /* \"contracts/Main.sol\":11034:11045  ProductName */\n      dup2\n        /* \"contracts/Main.sol\":11019:11046  nameToProducts[ProductName] */\n      mload(0x40)\n      tag_371\n      swap2\n      swap1\n      tag_180\n      jump\t// in\n    tag_371:\n      swap1\n      dup2\n      mstore\n      0x20\n      add\n      mload(0x40)\n      dup1\n      swap2\n      sub\n      swap1\n      keccak256\n        /* \"contracts/Main.sol\":11019:11051  nameToProducts[ProductName].name */\n      0x01\n      add\n        /* \"contracts/Main.sol\":11013:11059  bytes(nameToProducts[ProductName].name).length */\n      dup1\n      sload\n      tag_372\n      swap1\n      tag_182\n      jump\t// in\n    tag_372:\n      swap1\n      pop\n        /* \"contracts/Main.sol\":11063:11064  0 */\n      0x00\n        /* \"contracts/Main.sol\":11013:11064  bytes(nameToProducts[ProductName].name).length != 0 */\n      sub\n        /* \"contracts/Main.sol\":11005:11090  require(bytes(nameToProducts[ProductName].name).length != 0, \"Product doesn't exist\") */\n      tag_373\n      jumpi\n      mload(0x40)\n      shl(0xe5, 0x461bcd)\n      dup2\n      mstore\n        /* \"#utility.yul\":23101:23103   */\n      0x20\n        /* \"contracts/Main.sol\":11005:11090  require(bytes(nameToProducts[ProductName].name).length != 0, \"Product doesn't exist\") */\n      0x04\n      dup3\n      add\n        /* \"#utility.yul\":23083:23104   */\n      mstore\n        /* \"#utility.yul\":23140:23142   */\n      0x15\n        /* \"#utility.yul\":23120:23138   */\n      0x24\n      dup3\n      add\n        /* \"#utility.yul\":23113:23143   */\n      mstore\n      shl(0x5a, 0x141c9bd91d58dd08191bd95cdb89dd08195e1a5cdd)\n        /* \"#utility.yul\":23159:23177   */\n      0x44\n      dup3\n      add\n        /* \"#utility.yul\":23152:23203   */\n      mstore\n        /* \"#utility.yul\":23220:23238   */\n      0x64\n      add\n        /* \"contracts/Main.sol\":11005:11090  require(bytes(nameToProducts[ProductName].name).length != 0, \"Product doesn't exist\") */\n      tag_149\n        /* \"#utility.yul\":22899:23244   */\n      jump\n        /* \"contracts/Main.sol\":11005:11090  require(bytes(nameToProducts[ProductName].name).length != 0, \"Product doesn't exist\") */\n    tag_373:\n        /* \"contracts/Main.sol\":11101:11120  Product memory prod */\n      0x00\n        /* \"contracts/Main.sol\":11123:11137  nameToProducts */\n      0x08\n        /* \"contracts/Main.sol\":11138:11149  ProductName */\n      dup3\n        /* \"contracts/Main.sol\":11123:11150  nameToProducts[ProductName] */\n      mload(0x40)\n      tag_375\n      swap2\n      swap1\n      tag_180\n      jump\t// in\n    tag_375:\n      swap1\n      dup2\n      mstore\n      0x20\n      add\n      mload(0x40)\n      dup1\n      swap2\n      sub\n      swap1\n      keccak256\n        /* \"contracts/Main.sol\":11101:11150  Product memory prod = nameToProducts[ProductName] */\n      mload(0x40)\n      dup1\n      0x80\n      add\n      0x40\n      mstore\n      swap1\n      dup2\n      0x00\n      dup3\n      add\n      sload\n      dup2\n      mstore\n      0x20\n      add\n      0x01\n      dup3\n      add\n      dup1\n      sload\n      tag_376\n      swap1\n      tag_182\n      jump\t// in\n    tag_376:\n      dup1\n      0x1f\n      add\n      0x20\n      dup1\n      swap2\n      div\n      mul\n      0x20\n      add\n      mload(0x40)\n      swap1\n      dup2\n      add\n      0x40\n      mstore\n      dup1\n      swap3\n      swap2\n      swap1\n      dup2\n      dup2\n      mstore\n      0x20\n      add\n      dup3\n      dup1\n      sload\n      tag_377\n      swap1\n      tag_182\n      jump\t// in\n    tag_377:\n      dup1\n      iszero\n      tag_378\n      jumpi\n      dup1\n      0x1f\n      lt\n      tag_379\n      jumpi\n      0x0100\n      dup1\n      dup4\n      sload\n      div\n      mul\n      dup4\n      mstore\n      swap2\n      0x20\n      add\n      swap2\n      jump(tag_378)\n    tag_379:\n      dup3\n      add\n      swap2\n      swap1\n      0x00\n      mstore\n      keccak256(0x00, 0x20)\n      swap1\n    tag_380:\n      dup2\n      sload\n      dup2\n      mstore\n      swap1\n      0x01\n      add\n      swap1\n      0x20\n      add\n      dup1\n      dup4\n      gt\n      tag_380\n      jumpi\n      dup3\n      swap1\n      sub\n      0x1f\n      and\n      dup3\n      add\n      swap2\n    tag_378:\n      pop\n      pop\n      pop\n      pop\n      pop\n      dup2\n      mstore\n      0x20\n      add\n      0x02\n      dup3\n      add\n      sload\n      dup2\n      mstore\n      0x20\n      add\n      0x03\n      dup3\n      add\n      dup1\n      sload\n      tag_381\n      swap1\n      tag_182\n      jump\t// in\n    tag_381:\n      dup1\n      0x1f\n      add\n      0x20\n      dup1\n      swap2\n      div\n      mul\n      0x20\n      add\n      mload(0x40)\n      swap1\n      dup2\n      add\n      0x40\n      mstore\n      dup1\n      swap3\n      swap2\n      swap1\n      dup2\n      dup2\n      mstore\n      0x20\n      add\n      dup3\n      dup1\n      sload\n      tag_382\n      swap1\n      tag_182\n      jump\t// in\n    tag_382:\n      dup1\n      iszero\n      tag_383\n      jumpi\n      dup1\n      0x1f\n      lt\n      tag_384\n      jumpi\n      0x0100\n      dup1\n      dup4\n      sload\n      div\n      mul\n      dup4\n      mstore\n      swap2\n      0x20\n      add\n      swap2\n      jump(tag_383)\n    tag_384:\n      dup3\n      add\n      swap2\n      swap1\n      0x00\n      mstore\n      keccak256(0x00, 0x20)\n      swap1\n    tag_385:\n      dup2\n      sload\n      dup2\n      mstore\n      swap1\n      0x01\n      add\n      swap1\n      0x20\n      add\n      dup1\n      dup4\n      gt\n      tag_385\n      jumpi\n      dup3\n      swap1\n      sub\n      0x1f\n      and\n      dup3\n      add\n      swap2\n    tag_383:\n      pop\n      pop\n      pop\n      swap2\n      swap1\n      swap3\n      mstore\n      pop\n      pop\n        /* \"contracts/Main.sol\":11177:11184  prod.id */\n      dup2\n      mload\n        /* \"contracts/Main.sol\":11168:11185  products[prod.id] */\n      0x00\n      swap1\n      dup2\n      mstore\n        /* \"contracts/Main.sol\":11168:11176  products */\n      0x07\n        /* \"contracts/Main.sol\":11168:11185  products[prod.id] */\n      0x20\n      mstore\n      0x40\n      dup2\n      keccak256\n        /* \"contracts/Main.sol\":11161:11185  delete products[prod.id] */\n      dup2\n      dup2\n      sstore\n        /* \"contracts/Main.sol\":11101:11150  Product memory prod = nameToProducts[ProductName] */\n      swap3\n      swap4\n      pop\n        /* \"contracts/Main.sol\":11168:11185  products[prod.id] */\n      swap1\n      pop\n        /* \"contracts/Main.sol\":11161:11185  delete products[prod.id] */\n      tag_386\n      0x01\n      dup4\n      add\n        /* \"contracts/Main.sol\":11168:11185  products[prod.id] */\n      dup3\n        /* \"contracts/Main.sol\":11161:11185  delete products[prod.id] */\n      tag_257\n      jump\t// in\n    tag_386:\n      0x02\n      dup3\n      add\n      0x00\n      swap1\n      sstore\n      0x03\n      dup3\n      add\n      0x00\n      tag_387\n      swap2\n      swap1\n      tag_257\n      jump\t// in\n    tag_387:\n      pop\n      pop\n        /* \"contracts/Main.sol\":11204:11218  nameToProducts */\n      0x08\n        /* \"contracts/Main.sol\":11219:11230  ProductName */\n      dup3\n        /* \"contracts/Main.sol\":11204:11231  nameToProducts[ProductName] */\n      mload(0x40)\n      tag_388\n      swap2\n      swap1\n      tag_180\n      jump\t// in\n    tag_388:\n      swap1\n      dup2\n      mstore\n      mload(0x40)\n      swap1\n      dup2\n      swap1\n      sub\n      0x20\n      add\n      swap1\n      keccak256\n      0x00\n        /* \"contracts/Main.sol\":11197:11231  delete nameToProducts[ProductName] */\n      dup1\n      dup3\n      sstore\n      tag_389\n      0x01\n      dup4\n      add\n        /* \"contracts/Main.sol\":11204:11231  nameToProducts[ProductName] */\n      dup3\n        /* \"contracts/Main.sol\":11197:11231  delete nameToProducts[ProductName] */\n      tag_257\n      jump\t// in\n    tag_389:\n      0x02\n      dup3\n      add\n      0x00\n      swap1\n      sstore\n      0x03\n      dup3\n      add\n      0x00\n      tag_390\n      swap2\n      swap1\n      tag_257\n      jump\t// in\n    tag_390:\n      pop\n      pop\n        /* \"contracts/Main.sol\":11242:11254  productCount */\n      0x09\n        /* \"contracts/Main.sol\":11242:11256  productCount-- */\n      dup1\n      sload\n      swap1\n        /* \"contracts/Main.sol\":11242:11254  productCount */\n      0x00\n        /* \"contracts/Main.sol\":11242:11256  productCount-- */\n      tag_391\n      dup4\n      tag_392\n      jump\t// in\n    tag_391:\n      swap2\n      swap1\n      pop\n      sstore\n      pop\n        /* \"contracts/Main.sol\":11275:11302  ProductDeleted(ProductName) */\n      0x959ad8b1befbeb936d9a91bf2f741a2f7a8fcf9a0cb38ece37ca3e9814041eab\n        /* \"contracts/Main.sol\":11290:11301  ProductName */\n      dup3\n        /* \"contracts/Main.sol\":11275:11302  ProductDeleted(ProductName) */\n      mload(0x40)\n      tag_393\n      swap2\n      swap1\n      tag_80\n      jump\t// in\n    tag_393:\n      mload(0x40)\n      dup1\n      swap2\n      sub\n      swap1\n      log1\n        /* \"contracts/Main.sol\":10994:11311  {... */\n      pop\n        /* \"contracts/Main.sol\":10937:11311  function deleteProduct(string memory ProductName) public {... */\n      pop\n      jump\t// out\n        /* \"contracts/Main.sol\":334:375  string public contractAuthor = 'MGT TEAM' */\n    tag_78:\n      0x01\n      dup1\n      sload\n      tag_394\n      swap1\n      tag_182\n      jump\t// in\n    tag_394:\n      dup1\n      0x1f\n      add\n      0x20\n      dup1\n      swap2\n      div\n      mul\n      0x20\n      add\n      mload(0x40)\n      swap1\n      dup2\n      add\n      0x40\n      mstore\n      dup1\n      swap3\n      swap2\n      swap1\n      dup2\n      dup2\n      mstore\n      0x20\n      add\n      dup3\n      dup1\n      sload\n      tag_395\n      swap1\n      tag_182\n      jump\t// in\n    tag_395:\n      dup1\n      iszero\n      tag_396\n      jumpi\n      dup1\n      0x1f\n      lt\n      tag_397\n      jumpi\n      0x0100\n      dup1\n      dup4\n      sload\n      div\n      mul\n      dup4\n      mstore\n      swap2\n      0x20\n      add\n      swap2\n      jump(tag_396)\n    tag_397:\n      dup3\n      add\n      swap2\n      swap1\n      0x00\n      mstore\n      keccak256(0x00, 0x20)\n      swap1\n    tag_398:\n      dup2\n      sload\n      dup2\n      mstore\n      swap1\n      0x01\n      add\n      swap1\n      0x20\n      add\n      dup1\n      dup4\n      gt\n      tag_398\n      jumpi\n      dup3\n      swap1\n      sub\n      0x1f\n      and\n      dup3\n      add\n      swap2\n    tag_396:\n      pop\n      pop\n      pop\n      pop\n      pop\n      dup2\n      jump\t// out\n        /* \"contracts/Main.sol\":2624:2664  mapping(uint => Product) public products */\n    tag_83:\n      mstore(0x20, 0x07)\n      0x00\n      swap1\n      dup2\n      mstore\n      0x40\n      swap1\n      keccak256\n      dup1\n      sload\n      0x01\n      dup3\n      add\n      dup1\n      sload\n      swap2\n      swap3\n      swap2\n      tag_399\n      swap1\n      tag_182\n      jump\t// in\n    tag_399:\n      dup1\n      0x1f\n      add\n      0x20\n      dup1\n      swap2\n      div\n      mul\n      0x20\n      add\n      mload(0x40)\n      swap1\n      dup2\n      add\n      0x40\n      mstore\n      dup1\n      swap3\n      swap2\n      swap1\n      dup2\n      dup2\n      mstore\n      0x20\n      add\n      dup3\n      dup1\n      sload\n      tag_400\n      swap1\n      tag_182\n      jump\t// in\n    tag_400:\n      dup1\n      iszero\n      tag_401\n      jumpi\n      dup1\n      0x1f\n      lt\n      tag_402\n      jumpi\n      0x0100\n      dup1\n      dup4\n      sload\n      div\n      mul\n      dup4\n      mstore\n      swap2\n      0x20\n      add\n      swap2\n      jump(tag_401)\n    tag_402:\n      dup3\n      add\n      swap2\n      swap1\n      0x00\n      mstore\n      keccak256(0x00, 0x20)\n      swap1\n    tag_403:\n      dup2\n      sload\n      dup2\n      mstore\n      swap1\n      0x01\n      add\n      swap1\n      0x20\n      add\n      dup1\n      dup4\n      gt\n      tag_403\n      jumpi\n      dup3\n      swap1\n      sub\n      0x1f\n      and\n      dup3\n      add\n      swap2\n    tag_401:\n      pop\n      pop\n      pop\n      pop\n      pop\n      swap1\n      dup1\n      0x02\n      add\n      sload\n      swap1\n      dup1\n      0x03\n      add\n      dup1\n      sload\n      tag_404\n      swap1\n      tag_182\n      jump\t// in\n    tag_404:\n      dup1\n      0x1f\n      add\n      0x20\n      dup1\n      swap2\n      div\n      mul\n      0x20\n      add\n      mload(0x40)\n      swap1\n      dup2\n      add\n      0x40\n      mstore\n      dup1\n      swap3\n      swap2\n      swap1\n      dup2\n      dup2\n      mstore\n      0x20\n      add\n      dup3\n      dup1\n      sload\n      tag_405\n      swap1\n      tag_182\n      jump\t// in\n    tag_405:\n      dup1\n      iszero\n      tag_406\n      jumpi\n      dup1\n      0x1f\n      lt\n      tag_407\n      jumpi\n      0x0100\n      dup1\n      dup4\n      sload\n      div\n      mul\n      dup4\n      mstore\n      swap2\n      0x20\n      add\n      swap2\n      jump(tag_406)\n    tag_407:\n      dup3\n      add\n      swap2\n      swap1\n      0x00\n      mstore\n      keccak256(0x00, 0x20)\n      swap1\n    tag_408:\n      dup2\n      sload\n      dup2\n      mstore\n      swap1\n      0x01\n      add\n      swap1\n      0x20\n      add\n      dup1\n      dup4\n      gt\n      tag_408\n      jumpi\n      dup3\n      swap1\n      sub\n      0x1f\n      and\n      dup3\n      add\n      swap2\n    tag_406:\n      pop\n      pop\n      pop\n      pop\n      pop\n      swap1\n      pop\n      dup5\n      jump\t// out\n        /* \"contracts/Main.sol\":10042:10929  function addProduct(string memory _name, uint _amount, string memory _description) public {... */\n    tag_92:\n        /* \"contracts/Main.sol\":10157:10171  nameToProducts */\n      0x08\n        /* \"contracts/Main.sol\":10172:10177  _name */\n      dup4\n        /* \"contracts/Main.sol\":10157:10178  nameToProducts[_name] */\n      mload(0x40)\n      tag_410\n      swap2\n      swap1\n      tag_180\n      jump\t// in\n    tag_410:\n      swap1\n      dup2\n      mstore\n      0x20\n      add\n      mload(0x40)\n      dup1\n      swap2\n      sub\n      swap1\n      keccak256\n        /* \"contracts/Main.sol\":10157:10183  nameToProducts[_name].name */\n      0x01\n      add\n        /* \"contracts/Main.sol\":10151:10191  bytes(nameToProducts[_name].name).length */\n      dup1\n      sload\n      tag_411\n      swap1\n      tag_182\n      jump\t// in\n    tag_411:\n        /* \"contracts/Main.sol\":10151:10196  bytes(nameToProducts[_name].name).length == 0 */\n      iszero\n      swap1\n      pop\n        /* \"contracts/Main.sol\":10143:10224  require(bytes(nameToProducts[_name].name).length == 0, \"Product already exists!\") */\n      tag_412\n      jumpi\n      mload(0x40)\n      shl(0xe5, 0x461bcd)\n      dup2\n      mstore\n        /* \"#utility.yul\":26459:26461   */\n      0x20\n        /* \"contracts/Main.sol\":10143:10224  require(bytes(nameToProducts[_name].name).length == 0, \"Product already exists!\") */\n      0x04\n      dup3\n      add\n        /* \"#utility.yul\":26441:26462   */\n      mstore\n        /* \"#utility.yul\":26498:26500   */\n      0x17\n        /* \"#utility.yul\":26478:26496   */\n      0x24\n      dup3\n      add\n        /* \"#utility.yul\":26471:26501   */\n      mstore\n        /* \"#utility.yul\":26537:26562   */\n      0x50726f6475637420616c72656164792065786973747321000000000000000000\n        /* \"#utility.yul\":26517:26535   */\n      0x44\n      dup3\n      add\n        /* \"#utility.yul\":26510:26563   */\n      mstore\n        /* \"#utility.yul\":26580:26598   */\n      0x64\n      add\n        /* \"contracts/Main.sol\":10143:10224  require(bytes(nameToProducts[_name].name).length == 0, \"Product already exists!\") */\n      tag_149\n        /* \"#utility.yul\":26257:26604   */\n      jump\n        /* \"contracts/Main.sol\":10143:10224  require(bytes(nameToProducts[_name].name).length == 0, \"Product already exists!\") */\n    tag_412:\n        /* \"contracts/Main.sol\":10253:10254  0 */\n      0x00\n        /* \"contracts/Main.sol\":10243:10250  _amount */\n      dup3\n        /* \"contracts/Main.sol\":10243:10254  _amount > 0 */\n      gt\n        /* \"contracts/Main.sol\":10235:10292  require(_amount > 0, \"Give a non-zero value for amount!\") */\n      tag_415\n      jumpi\n      mload(0x40)\n      shl(0xe5, 0x461bcd)\n      dup2\n      mstore\n        /* \"#utility.yul\":26811:26813   */\n      0x20\n        /* \"contracts/Main.sol\":10235:10292  require(_amount > 0, \"Give a non-zero value for amount!\") */\n      0x04\n      dup3\n      add\n        /* \"#utility.yul\":26793:26814   */\n      mstore\n        /* \"#utility.yul\":26850:26852   */\n      0x21\n        /* \"#utility.yul\":26830:26848   */\n      0x24\n      dup3\n      add\n        /* \"#utility.yul\":26823:26853   */\n      mstore\n        /* \"#utility.yul\":26889:26923   */\n      0x476976652061206e6f6e2d7a65726f2076616c756520666f7220616d6f756e74\n        /* \"#utility.yul\":26869:26887   */\n      0x44\n      dup3\n      add\n        /* \"#utility.yul\":26862:26924   */\n      mstore\n      shl(0xf8, 0x21)\n        /* \"#utility.yul\":26940:26958   */\n      0x64\n      dup3\n      add\n        /* \"#utility.yul\":26933:26964   */\n      mstore\n        /* \"#utility.yul\":26981:27000   */\n      0x84\n      add\n        /* \"contracts/Main.sol\":10235:10292  require(_amount > 0, \"Give a non-zero value for amount!\") */\n      tag_149\n        /* \"#utility.yul\":26609:27006   */\n      jump\n        /* \"contracts/Main.sol\":10235:10292  require(_amount > 0, \"Give a non-zero value for amount!\") */\n    tag_415:\n        /* \"contracts/Main.sol\":10334:10361  Entity(\"\", EntityType.None) */\n      0x40\n      dup1\n      mload\n      0x60\n      dup1\n      dup3\n      add\n      dup4\n      mstore\n      0x00\n      dup3\n      dup5\n      add\n      dup2\n      dup2\n      mstore\n      dup4\n      mstore\n      0x20\n      dup1\n      dup5\n      add\n      dup3\n      swap1\n      mstore\n        /* \"contracts/Main.sol\":10479:10528  TransportationInfo(\" \", \" \", 0, 0, currentEntity) */\n      dup5\n      mload\n      0xe0\n      dup2\n      add\n      dup7\n      mstore\n      0x01\n      0xa0\n      dup3\n      add\n      dup2\n      dup2\n      mstore\n      shl(0xfd, 0x01)\n      0xc0\n      dup5\n      add\n      dup2\n      swap1\n      mstore\n      swap1\n      dup4\n      mstore\n      dup8\n      mload\n      dup1\n      dup10\n      add\n      dup10\n      mstore\n      dup3\n      dup2\n      mstore\n      dup1\n      dup6\n      add\n      swap2\n      swap1\n      swap2\n      mstore\n      dup3\n      dup5\n      add\n      mstore\n      dup2\n      dup8\n      add\n      dup5\n      swap1\n      mstore\n      dup2\n      dup6\n      add\n      dup5\n      swap1\n      mstore\n      0x80\n      dup1\n      dup4\n      add\n      dup8\n      swap1\n      mstore\n        /* \"contracts/Main.sol\":10616:10667  Product(productCount, _name, _amount, _description) */\n      dup8\n      mload\n      swap1\n      dup2\n      add\n      dup9\n      mstore\n        /* \"contracts/Main.sol\":10624:10636  productCount */\n      sload(0x09)\n        /* \"contracts/Main.sol\":10616:10667  Product(productCount, _name, _amount, _description) */\n      dup1\n      dup3\n      mstore\n      dup2\n      dup6\n      add\n      dup13\n      dup2\n      mstore\n      dup3\n      dup11\n      add\n      dup13\n      swap1\n      mstore\n      swap7\n      dup3\n      add\n      dup11\n      swap1\n      mstore\n        /* \"contracts/Main.sol\":10591:10613  products[productCount] */\n      dup6\n      mstore\n        /* \"contracts/Main.sol\":10591:10599  products */\n      0x07\n        /* \"contracts/Main.sol\":10591:10613  products[productCount] */\n      swap1\n      swap4\n      mstore\n      swap6\n      swap1\n      swap3\n      keccak256\n        /* \"contracts/Main.sol\":10591:10667  products[productCount] = Product(productCount, _name, _amount, _description) */\n      dup2\n      mload\n      dup2\n      sstore\n      swap3\n      mload\n        /* \"contracts/Main.sol\":10334:10361  Entity(\"\", EntityType.None) */\n      swap4\n      swap5\n        /* \"contracts/Main.sol\":10479:10528  TransportationInfo(\" \", \" \", 0, 0, currentEntity) */\n      swap2\n      swap4\n        /* \"contracts/Main.sol\":10616:10667  Product(productCount, _name, _amount, _description) */\n      swap1\n      swap3\n        /* \"contracts/Main.sol\":10591:10613  products[productCount] */\n      swap2\n        /* \"contracts/Main.sol\":10591:10667  products[productCount] = Product(productCount, _name, _amount, _description) */\n      dup3\n      add\n      swap1\n      tag_420\n      swap1\n      dup3\n      tag_226\n      jump\t// in\n    tag_420:\n      pop\n      0x40\n      dup3\n      add\n      mload\n      0x02\n      dup3\n      add\n      sstore\n      0x60\n      dup3\n      add\n      mload\n      0x03\n      dup3\n      add\n      swap1\n      tag_421\n      swap1\n      dup3\n      tag_226\n      jump\t// in\n    tag_421:\n      pop\n      swap1\n      pop\n      pop\n        /* \"contracts/Main.sol\":10678:10703  Product memory newproduct */\n      0x00\n        /* \"contracts/Main.sol\":10704:10712  products */\n      0x07\n        /* \"contracts/Main.sol\":10704:10726  products[productCount] */\n      0x00\n        /* \"contracts/Main.sol\":10713:10725  productCount */\n      sload(0x09)\n        /* \"contracts/Main.sol\":10704:10726  products[productCount] */\n      dup2\n      mstore\n      0x20\n      add\n      swap1\n      dup2\n      mstore\n      0x20\n      add\n      0x00\n      keccak256\n        /* \"contracts/Main.sol\":10678:10726  Product memory newproduct=products[productCount] */\n      mload(0x40)\n      dup1\n      0x80\n      add\n      0x40\n      mstore\n      swap1\n      dup2\n      0x00\n      dup3\n      add\n      sload\n      dup2\n      mstore\n      0x20\n      add\n      0x01\n      dup3\n      add\n      dup1\n      sload\n      tag_422\n      swap1\n      tag_182\n      jump\t// in\n    tag_422:\n      dup1\n      0x1f\n      add\n      0x20\n      dup1\n      swap2\n      div\n      mul\n      0x20\n      add\n      mload(0x40)\n      swap1\n      dup2\n      add\n      0x40\n      mstore\n      dup1\n      swap3\n      swap2\n      swap1\n      dup2\n      dup2\n      mstore\n      0x20\n      add\n      dup3\n      dup1\n      sload\n      tag_423\n      swap1\n      tag_182\n      jump\t// in\n    tag_423:\n      dup1\n      iszero\n      tag_424\n      jumpi\n      dup1\n      0x1f\n      lt\n      tag_425\n      jumpi\n      0x0100\n      dup1\n      dup4\n      sload\n      div\n      mul\n      dup4\n      mstore\n      swap2\n      0x20\n      add\n      swap2\n      jump(tag_424)\n    tag_425:\n      dup3\n      add\n      swap2\n      swap1\n      0x00\n      mstore\n      keccak256(0x00, 0x20)\n      swap1\n    tag_426:\n      dup2\n      sload\n      dup2\n      mstore\n      swap1\n      0x01\n      add\n      swap1\n      0x20\n      add\n      dup1\n      dup4\n      gt\n      tag_426\n      jumpi\n      dup3\n      swap1\n      sub\n      0x1f\n      and\n      dup3\n      add\n      swap2\n    tag_424:\n      pop\n      pop\n      pop\n      pop\n      pop\n      dup2\n      mstore\n      0x20\n      add\n      0x02\n      dup3\n      add\n      sload\n      dup2\n      mstore\n      0x20\n      add\n      0x03\n      dup3\n      add\n      dup1\n      sload\n      tag_427\n      swap1\n      tag_182\n      jump\t// in\n    tag_427:\n      dup1\n      0x1f\n      add\n      0x20\n      dup1\n      swap2\n      div\n      mul\n      0x20\n      add\n      mload(0x40)\n      swap1\n      dup2\n      add\n      0x40\n      mstore\n      dup1\n      swap3\n      swap2\n      swap1\n      dup2\n      dup2\n      mstore\n      0x20\n      add\n      dup3\n      dup1\n      sload\n      tag_428\n      swap1\n      tag_182\n      jump\t// in\n    tag_428:\n      dup1\n      iszero\n      tag_429\n      jumpi\n      dup1\n      0x1f\n      lt\n      tag_430\n      jumpi\n      0x0100\n      dup1\n      dup4\n      sload\n      div\n      mul\n      dup4\n      mstore\n      swap2\n      0x20\n      add\n      swap2\n      jump(tag_429)\n    tag_430:\n      dup3\n      add\n      swap2\n      swap1\n      0x00\n      mstore\n      keccak256(0x00, 0x20)\n      swap1\n    tag_431:\n      dup2\n      sload\n      dup2\n      mstore\n      swap1\n      0x01\n      add\n      swap1\n      0x20\n      add\n      dup1\n      dup4\n      gt\n      tag_431\n      jumpi\n      dup3\n      swap1\n      sub\n      0x1f\n      and\n      dup3\n      add\n      swap2\n    tag_429:\n      pop\n      pop\n      pop\n      pop\n      pop\n      dup2\n      mstore\n      pop\n      pop\n      swap1\n      pop\n        /* \"contracts/Main.sol\":10771:10781  newproduct */\n      dup1\n        /* \"contracts/Main.sol\":10747:10761  nameToProducts */\n      0x08\n        /* \"contracts/Main.sol\":10762:10767  _name */\n      dup8\n        /* \"contracts/Main.sol\":10747:10768  nameToProducts[_name] */\n      mload(0x40)\n      tag_432\n      swap2\n      swap1\n      tag_180\n      jump\t// in\n    tag_432:\n      swap1\n      dup2\n      mstore\n      mload(0x40)\n      0x20\n      swap2\n      dup2\n      swap1\n      sub\n      dup3\n      add\n      swap1\n      keccak256\n        /* \"contracts/Main.sol\":10747:10781  nameToProducts[_name] = newproduct */\n      dup3\n      mload\n      dup2\n      sstore\n      swap1\n      dup3\n      add\n      mload\n      0x01\n      dup3\n      add\n      swap1\n      tag_433\n      swap1\n      dup3\n      tag_226\n      jump\t// in\n    tag_433:\n      pop\n      0x40\n      dup3\n      add\n      mload\n      0x02\n      dup3\n      add\n      sstore\n      0x60\n      dup3\n      add\n      mload\n      0x03\n      dup3\n      add\n      swap1\n      tag_434\n      swap1\n      dup3\n      tag_226\n      jump\t// in\n    tag_434:\n      pop\n      pop\n        /* \"contracts/Main.sol\":10808:10821  newproduct.id */\n      dup2\n      mload\n        /* \"contracts/Main.sol\":10792:10822  ProdToTransInfo[newproduct.id] */\n      0x00\n      swap1\n      dup2\n      mstore\n        /* \"contracts/Main.sol\":10792:10807  ProdToTransInfo */\n      0x06\n        /* \"contracts/Main.sol\":10792:10822  ProdToTransInfo[newproduct.id] */\n      0x20\n      dup2\n      dup2\n      mstore\n      0x40\n      dup4\n      keccak256\n        /* \"contracts/Main.sol\":10792:10845  ProdToTransInfo[newproduct.id].push(initialTransInfo) */\n      dup1\n      sload\n      0x01\n      dup2\n      add\n      dup3\n      sstore\n      swap1\n      dup5\n      mstore\n      swap3\n      keccak256\n      dup6\n      mload\n        /* \"contracts/Main.sol\":10828:10844  initialTransInfo */\n      dup7\n      swap5\n      pop\n        /* \"contracts/Main.sol\":10792:10845  ProdToTransInfo[newproduct.id].push(initialTransInfo) */\n      swap3\n      swap1\n      swap2\n      mul\n      add\n      swap1\n      dup2\n      swap1\n      tag_436\n      swap1\n      dup3\n      tag_226\n      jump\t// in\n    tag_436:\n      pop\n      0x20\n      dup3\n      add\n      mload\n      0x01\n      dup3\n      add\n      swap1\n      tag_437\n      swap1\n      dup3\n      tag_226\n      jump\t// in\n    tag_437:\n      pop\n      0x40\n      dup3\n      add\n      mload\n      0x02\n      dup3\n      add\n      sstore\n      0x60\n      dup3\n      add\n      mload\n      0x03\n      dup3\n      add\n      sstore\n      0x80\n      dup3\n      add\n      mload\n      dup1\n      mload\n      0x04\n      dup4\n      add\n      swap1\n      dup2\n      swap1\n      tag_438\n      swap1\n      dup3\n      tag_226\n      jump\t// in\n    tag_438:\n      pop\n      0x20\n      dup3\n      add\n      mload\n      0x01\n      dup1\n      dup4\n      add\n      dup1\n      sload\n      swap1\n      swap2\n      not(0xff)\n      swap1\n      swap2\n      and\n      swap1\n      dup4\n      0x06\n      dup2\n      gt\n      iszero\n      tag_440\n      jumpi\n      tag_440\n      tag_145\n      jump\t// in\n    tag_440:\n      mul\n      or\n      swap1\n      sstore\n      pop\n      pop\n      pop\n      pop\n      pop\n        /* \"contracts/Main.sol\":10876:10888  productCount */\n      sload(0x09)\n        /* \"contracts/Main.sol\":10863:10896  ProductAdded(productCount, _name) */\n      0x259101de1f87b04b9ee0332ce5e3cc508014004bf283424aead6cd8692f5cf98\n        /* \"contracts/Main.sol\":10890:10895  _name */\n      dup8\n        /* \"contracts/Main.sol\":10863:10896  ProductAdded(productCount, _name) */\n      mload(0x40)\n      tag_441\n      swap2\n      swap1\n      tag_80\n      jump\t// in\n    tag_441:\n      mload(0x40)\n      dup1\n      swap2\n      sub\n      swap1\n      log2\n        /* \"contracts/Main.sol\":10907:10919  productCount */\n      0x09\n        /* \"contracts/Main.sol\":10907:10921  productCount++ */\n      dup1\n      sload\n      swap1\n        /* \"contracts/Main.sol\":10907:10919  productCount */\n      0x00\n        /* \"contracts/Main.sol\":10907:10921  productCount++ */\n      tag_442\n      dup4\n      tag_279\n      jump\t// in\n    tag_442:\n      swap2\n      swap1\n      pop\n      sstore\n      pop\n        /* \"contracts/Main.sol\":10132:10929  {... */\n      pop\n      pop\n      pop\n        /* \"contracts/Main.sol\":10042:10929  function addProduct(string memory _name, uint _amount, string memory _description) public {... */\n      pop\n      pop\n      pop\n      jump\t// out\n        /* \"contracts/Main.sol\":14319:14548  function getAmount(uint _productId) public view returns (uint){... */\n    tag_95:\n        /* \"contracts/Main.sol\":14376:14380  uint */\n      0x00\n        /* \"contracts/Main.sol\":14413:14425  productCount */\n      sload(0x09)\n        /* \"contracts/Main.sol\":14400:14410  _productId */\n      dup3\n        /* \"contracts/Main.sol\":14400:14425  _productId < productCount */\n      lt\n        /* \"contracts/Main.sol\":14392:14452  require(_productId < productCount, \"Product does not exist\") */\n      tag_444\n      jumpi\n      mload(0x40)\n      shl(0xe5, 0x461bcd)\n      dup2\n      mstore\n        /* \"#utility.yul\":27213:27215   */\n      0x20\n        /* \"contracts/Main.sol\":14392:14452  require(_productId < productCount, \"Product does not exist\") */\n      0x04\n      dup3\n      add\n        /* \"#utility.yul\":27195:27216   */\n      mstore\n        /* \"#utility.yul\":27252:27254   */\n      0x16\n        /* \"#utility.yul\":27232:27250   */\n      0x24\n      dup3\n      add\n        /* \"#utility.yul\":27225:27255   */\n      mstore\n      shl(0x52, 0x141c9bd91d58dd08191bd95cc81b9bdd08195e1a5cdd)\n        /* \"#utility.yul\":27271:27289   */\n      0x44\n      dup3\n      add\n        /* \"#utility.yul\":27264:27316   */\n      mstore\n        /* \"#utility.yul\":27333:27351   */\n      0x64\n      add\n        /* \"contracts/Main.sol\":14392:14452  require(_productId < productCount, \"Product does not exist\") */\n      tag_149\n        /* \"#utility.yul\":27011:27357   */\n      jump\n        /* \"contracts/Main.sol\":14392:14452  require(_productId < productCount, \"Product does not exist\") */\n    tag_444:\n        /* \"contracts/Main.sol\":14463:14485  Product memory product */\n      0x00\n        /* \"contracts/Main.sol\":14488:14496  products */\n      0x07\n        /* \"contracts/Main.sol\":14488:14508  products[_productId] */\n      0x00\n        /* \"contracts/Main.sol\":14497:14507  _productId */\n      dup5\n        /* \"contracts/Main.sol\":14488:14508  products[_productId] */\n      dup2\n      mstore\n      0x20\n      add\n      swap1\n      dup2\n      mstore\n      0x20\n      add\n      0x00\n      keccak256\n        /* \"contracts/Main.sol\":14463:14508  Product memory product = products[_productId] */\n      mload(0x40)\n      dup1\n      0x80\n      add\n      0x40\n      mstore\n      swap1\n      dup2\n      0x00\n      dup3\n      add\n      sload\n      dup2\n      mstore\n      0x20\n      add\n      0x01\n      dup3\n      add\n      dup1\n      sload\n      tag_447\n      swap1\n      tag_182\n      jump\t// in\n    tag_447:\n      dup1\n      0x1f\n      add\n      0x20\n      dup1\n      swap2\n      div\n      mul\n      0x20\n      add\n      mload(0x40)\n      swap1\n      dup2\n      add\n      0x40\n      mstore\n      dup1\n      swap3\n      swap2\n      swap1\n      dup2\n      dup2\n      mstore\n      0x20\n      add\n      dup3\n      dup1\n      sload\n      tag_448\n      swap1\n      tag_182\n      jump\t// in\n    tag_448:\n      dup1\n      iszero\n      tag_449\n      jumpi\n      dup1\n      0x1f\n      lt\n      tag_450\n      jumpi\n      0x0100\n      dup1\n      dup4\n      sload\n      div\n      mul\n      dup4\n      mstore\n      swap2\n      0x20\n      add\n      swap2\n      jump(tag_449)\n    tag_450:\n      dup3\n      add\n      swap2\n      swap1\n      0x00\n      mstore\n      keccak256(0x00, 0x20)\n      swap1\n    tag_451:\n      dup2\n      sload\n      dup2\n      mstore\n      swap1\n      0x01\n      add\n      swap1\n      0x20\n      add\n      dup1\n      dup4\n      gt\n      tag_451\n      jumpi\n      dup3\n      swap1\n      sub\n      0x1f\n      and\n      dup3\n      add\n      swap2\n    tag_449:\n      pop\n      pop\n      pop\n      pop\n      pop\n      dup2\n      mstore\n      0x20\n      add\n      0x02\n      dup3\n      add\n      sload\n      dup2\n      mstore\n      0x20\n      add\n      0x03\n      dup3\n      add\n      dup1\n      sload\n      tag_452\n      swap1\n      tag_182\n      jump\t// in\n    tag_452:\n      dup1\n      0x1f\n      add\n      0x20\n      dup1\n      swap2\n      div\n      mul\n      0x20\n      add\n      mload(0x40)\n      swap1\n      dup2\n      add\n      0x40\n      mstore\n      dup1\n      swap3\n      swap2\n      swap1\n      dup2\n      dup2\n      mstore\n      0x20\n      add\n      dup3\n      dup1\n      sload\n      tag_453\n      swap1\n      tag_182\n      jump\t// in\n    tag_453:\n      dup1\n      iszero\n      tag_454\n      jumpi\n      dup1\n      0x1f\n      lt\n      tag_455\n      jumpi\n      0x0100\n      dup1\n      dup4\n      sload\n      div\n      mul\n      dup4\n      mstore\n      swap2\n      0x20\n      add\n      swap2\n      jump(tag_454)\n    tag_455:\n      dup3\n      add\n      swap2\n      swap1\n      0x00\n      mstore\n      keccak256(0x00, 0x20)\n      swap1\n    tag_456:\n      dup2\n      sload\n      dup2\n      mstore\n      swap1\n      0x01\n      add\n      swap1\n      0x20\n      add\n      dup1\n      dup4\n      gt\n      tag_456\n      jumpi\n      dup3\n      swap1\n      sub\n      0x1f\n      and\n      dup3\n      add\n      swap2\n    tag_454:\n      pop\n      pop\n      pop\n      swap2\n      swap1\n      swap3\n      mstore\n      pop\n      pop\n      pop\n        /* \"contracts/Main.sol\":14526:14540  product.amount */\n      0x40\n      add\n      mload\n      swap4\n        /* \"contracts/Main.sol\":14319:14548  function getAmount(uint _productId) public view returns (uint){... */\n      swap3\n      pop\n      pop\n      pop\n      jump\t// out\n        /* \"contracts/Main.sol\":4580:4814  function changeOwner(address newOwner) public onlyOwner {... */\n    tag_100:\n        /* \"contracts/Main.sol\":2918:2923  owner */\n      and(sub(shl(0xa0, 0x01), 0x01), sload(0x00))\n        /* \"contracts/Main.sol\":2904:2914  msg.sender */\n      caller\n        /* \"contracts/Main.sol\":2904:2923  msg.sender == owner */\n      eq\n        /* \"contracts/Main.sol\":2896:2970  require(msg.sender == owner, \"Only contract owner can call this function\") */\n      tag_458\n      jumpi\n      mload(0x40)\n      shl(0xe5, 0x461bcd)\n      dup2\n      mstore\n        /* \"#utility.yul\":27564:27566   */\n      0x20\n        /* \"contracts/Main.sol\":2896:2970  require(msg.sender == owner, \"Only contract owner can call this function\") */\n      0x04\n      dup3\n      add\n        /* \"#utility.yul\":27546:27567   */\n      mstore\n        /* \"#utility.yul\":27603:27605   */\n      0x2a\n        /* \"#utility.yul\":27583:27601   */\n      0x24\n      dup3\n      add\n        /* \"#utility.yul\":27576:27606   */\n      mstore\n        /* \"#utility.yul\":27642:27676   */\n      0x4f6e6c7920636f6e7472616374206f776e65722063616e2063616c6c20746869\n        /* \"#utility.yul\":27622:27640   */\n      0x44\n      dup3\n      add\n        /* \"#utility.yul\":27615:27677   */\n      mstore\n      shl(0xb1, 0x3990333ab731ba34b7b7)\n        /* \"#utility.yul\":27693:27711   */\n      0x64\n      dup3\n      add\n        /* \"#utility.yul\":27686:27726   */\n      mstore\n        /* \"#utility.yul\":27743:27762   */\n      0x84\n      add\n        /* \"contracts/Main.sol\":2896:2970  require(msg.sender == owner, \"Only contract owner can call this function\") */\n      tag_149\n        /* \"#utility.yul\":27362:27768   */\n      jump\n        /* \"contracts/Main.sol\":2896:2970  require(msg.sender == owner, \"Only contract owner can call this function\") */\n    tag_458:\n      sub(shl(0xa0, 0x01), 0x01)\n        /* \"contracts/Main.sol\":4655:4677  newOwner != address(0) */\n      dup2\n      and\n        /* \"contracts/Main.sol\":4647:4698  require(newOwner != address(0), \"Invalid address!\") */\n      tag_462\n      jumpi\n      mload(0x40)\n      shl(0xe5, 0x461bcd)\n      dup2\n      mstore\n      0x04\n      add\n      tag_149\n      swap1\n      tag_206\n      jump\t// in\n    tag_462:\n        /* \"contracts/Main.sol\":4709:4714  owner */\n      0x00\n        /* \"contracts/Main.sol\":4709:4725  owner = newOwner */\n      dup1\n      sload\n      not(sub(shl(0xa0, 0x01), 0x01))\n      and\n      sub(shl(0xa0, 0x01), 0x01)\n      dup4\n      and\n      swap1\n      dup2\n      or\n      swap1\n      swap2\n      sstore\n        /* \"contracts/Main.sol\":4741:4806  OwnerChanged(\"Owner changed successfully!\", msg.sender, newOwner) */\n      0x40\n      dup1\n      mload\n        /* \"#utility.yul\":28031:28033   */\n      0x60\n        /* \"#utility.yul\":28013:28034   */\n      dup1\n      dup3\n      mstore\n        /* \"#utility.yul\":28070:28072   */\n      0x1b\n        /* \"#utility.yul\":28050:28068   */\n      swap1\n      dup3\n      add\n        /* \"#utility.yul\":28043:28073   */\n      mstore\n        /* \"#utility.yul\":28110:28139   */\n      0x4f776e6572206368616e676564207375636365737366756c6c79210000000000\n        /* \"#utility.yul\":28104:28107   */\n      0x80\n        /* \"#utility.yul\":28089:28108   */\n      dup3\n      add\n        /* \"#utility.yul\":28082:28140   */\n      mstore\n        /* \"contracts/Main.sol\":4785:4795  msg.sender */\n      caller\n        /* \"#utility.yul\":28245:28249   */\n      0x20\n        /* \"#utility.yul\":28230:28250   */\n      dup3\n      add\n        /* \"#utility.yul\":28223:28268   */\n      mstore\n        /* \"#utility.yul\":28284:28302   */\n      swap1\n      dup2\n      add\n        /* \"#utility.yul\":28277:28320   */\n      swap2\n      swap1\n      swap2\n      mstore\n        /* \"contracts/Main.sol\":4741:4806  OwnerChanged(\"Owner changed successfully!\", msg.sender, newOwner) */\n      0xf86060286164733a3b0bae3ba4b62f85dc6020ba2ee440318bf5b6be6d0d93a8\n      swap1\n        /* \"#utility.yul\":28172:28175   */\n      0xa0\n        /* \"#utility.yul\":28157:28176   */\n      add\n        /* \"contracts/Main.sol\":4741:4806  OwnerChanged(\"Owner changed successfully!\", msg.sender, newOwner) */\n      mload(0x40)\n      dup1\n      swap2\n      sub\n      swap1\n      log1\n        /* \"contracts/Main.sol\":4580:4814  function changeOwner(address newOwner) public onlyOwner {... */\n      pop\n      jump\t// out\n        /* \"contracts/Main.sol\":2061:2098  mapping(address => User) public users */\n    tag_103:\n      mstore(0x20, 0x02)\n      0x00\n      swap1\n      dup2\n      mstore\n      0x40\n      swap1\n      keccak256\n      dup1\n      sload\n      dup2\n      swap1\n      tag_365\n      swap1\n      tag_182\n      jump\t// in\n        /* \"contracts/Main.sol\":11319:12265  function updateProduct(string memory name, string memory newName, uint newAmount, string memory newDescription) public{... */\n    tag_109:\n        /* \"contracts/Main.sol\":11462:11476  nameToProducts */\n      0x08\n        /* \"contracts/Main.sol\":11477:11481  name */\n      dup5\n        /* \"contracts/Main.sol\":11462:11482  nameToProducts[name] */\n      mload(0x40)\n      tag_472\n      swap2\n      swap1\n      tag_180\n      jump\t// in\n    tag_472:\n      swap1\n      dup2\n      mstore\n      0x20\n      add\n      mload(0x40)\n      dup1\n      swap2\n      sub\n      swap1\n      keccak256\n        /* \"contracts/Main.sol\":11462:11487  nameToProducts[name].name */\n      0x01\n      add\n        /* \"contracts/Main.sol\":11456:11495  bytes(nameToProducts[name].name).length */\n      dup1\n      sload\n      tag_473\n      swap1\n      tag_182\n      jump\t// in\n    tag_473:\n      swap1\n      pop\n        /* \"contracts/Main.sol\":11499:11500  0 */\n      0x00\n        /* \"contracts/Main.sol\":11456:11500  bytes(nameToProducts[name].name).length != 0 */\n      sub\n        /* \"contracts/Main.sol\":11448:11527  require(bytes(nameToProducts[name].name).length != 0, \"Product does not exist\") */\n      tag_474\n      jumpi\n      mload(0x40)\n      shl(0xe5, 0x461bcd)\n      dup2\n      mstore\n        /* \"#utility.yul\":27213:27215   */\n      0x20\n        /* \"contracts/Main.sol\":11448:11527  require(bytes(nameToProducts[name].name).length != 0, \"Product does not exist\") */\n      0x04\n      dup3\n      add\n        /* \"#utility.yul\":27195:27216   */\n      mstore\n        /* \"#utility.yul\":27252:27254   */\n      0x16\n        /* \"#utility.yul\":27232:27250   */\n      0x24\n      dup3\n      add\n        /* \"#utility.yul\":27225:27255   */\n      mstore\n      shl(0x52, 0x141c9bd91d58dd08191bd95cc81b9bdd08195e1a5cdd)\n        /* \"#utility.yul\":27271:27289   */\n      0x44\n      dup3\n      add\n        /* \"#utility.yul\":27264:27316   */\n      mstore\n        /* \"#utility.yul\":27333:27351   */\n      0x64\n      add\n        /* \"contracts/Main.sol\":11448:11527  require(bytes(nameToProducts[name].name).length != 0, \"Product does not exist\") */\n      tag_149\n        /* \"#utility.yul\":27011:27357   */\n      jump\n        /* \"contracts/Main.sol\":11448:11527  require(bytes(nameToProducts[name].name).length != 0, \"Product does not exist\") */\n    tag_474:\n        /* \"contracts/Main.sol\":11630:11637  newName */\n      dup3\n        /* \"contracts/Main.sol\":11614:11639  keccak256(bytes(newName)) */\n      dup1\n      mload\n      swap1\n      0x20\n      add\n      keccak256\n        /* \"contracts/Main.sol\":11604:11608  name */\n      dup5\n        /* \"contracts/Main.sol\":11588:11610  keccak256(bytes(name)) */\n      dup1\n      mload\n      swap1\n      0x20\n      add\n      keccak256\n        /* \"contracts/Main.sol\":11588:11639  keccak256(bytes(name)) != keccak256(bytes(newName)) */\n      eq\n        /* \"contracts/Main.sol\":11584:11848  if (keccak256(bytes(name)) != keccak256(bytes(newName))) { //new name must be different than the current name... */\n      tag_479\n      jumpi\n        /* \"contracts/Main.sol\":11721:11735  nameToProducts */\n      0x08\n        /* \"contracts/Main.sol\":11736:11743  newName */\n      dup4\n        /* \"contracts/Main.sol\":11721:11744  nameToProducts[newName] */\n      mload(0x40)\n      tag_477\n      swap2\n      swap1\n      tag_180\n      jump\t// in\n    tag_477:\n      swap1\n      dup2\n      mstore\n      0x20\n      add\n      mload(0x40)\n      dup1\n      swap2\n      sub\n      swap1\n      keccak256\n        /* \"contracts/Main.sol\":11721:11749  nameToProducts[newName].name */\n      0x01\n      add\n        /* \"contracts/Main.sol\":11715:11757  bytes(nameToProducts[newName].name).length */\n      dup1\n      sload\n      tag_478\n      swap1\n      tag_182\n      jump\t// in\n    tag_478:\n        /* \"contracts/Main.sol\":11715:11762  bytes(nameToProducts[newName].name).length == 0 */\n      iszero\n      swap1\n      pop\n        /* \"contracts/Main.sol\":11707:11798  require(bytes(nameToProducts[newName].name).length == 0, \"New product name already exists\") */\n      tag_479\n      jumpi\n      mload(0x40)\n      shl(0xe5, 0x461bcd)\n      dup2\n      mstore\n        /* \"#utility.yul\":28533:28535   */\n      0x20\n        /* \"contracts/Main.sol\":11707:11798  require(bytes(nameToProducts[newName].name).length == 0, \"New product name already exists\") */\n      0x04\n      dup3\n      add\n        /* \"#utility.yul\":28515:28536   */\n      mstore\n        /* \"#utility.yul\":28572:28574   */\n      0x1f\n        /* \"#utility.yul\":28552:28570   */\n      0x24\n      dup3\n      add\n        /* \"#utility.yul\":28545:28575   */\n      mstore\n        /* \"#utility.yul\":28611:28644   */\n      0x4e65772070726f64756374206e616d6520616c72656164792065786973747300\n        /* \"#utility.yul\":28591:28609   */\n      0x44\n      dup3\n      add\n        /* \"#utility.yul\":28584:28645   */\n      mstore\n        /* \"#utility.yul\":28662:28680   */\n      0x64\n      add\n        /* \"contracts/Main.sol\":11707:11798  require(bytes(nameToProducts[newName].name).length == 0, \"New product name already exists\") */\n      tag_149\n        /* \"#utility.yul\":28331:28686   */\n      jump\n        /* \"contracts/Main.sol\":11707:11798  require(bytes(nameToProducts[newName].name).length == 0, \"New product name already exists\") */\n    tag_479:\n        /* \"contracts/Main.sol\":11880:11881  0 */\n      0x00\n        /* \"contracts/Main.sol\":11868:11877  newAmount */\n      dup3\n        /* \"contracts/Main.sol\":11868:11881  newAmount > 0 */\n      gt\n        /* \"contracts/Main.sol\":11860:11909  require(newAmount > 0, \"Give a non zero amount!\") */\n      tag_482\n      jumpi\n      mload(0x40)\n      shl(0xe5, 0x461bcd)\n      dup2\n      mstore\n        /* \"#utility.yul\":28893:28895   */\n      0x20\n        /* \"contracts/Main.sol\":11860:11909  require(newAmount > 0, \"Give a non zero amount!\") */\n      0x04\n      dup3\n      add\n        /* \"#utility.yul\":28875:28896   */\n      mstore\n        /* \"#utility.yul\":28932:28934   */\n      0x17\n        /* \"#utility.yul\":28912:28930   */\n      0x24\n      dup3\n      add\n        /* \"#utility.yul\":28905:28935   */\n      mstore\n        /* \"#utility.yul\":28971:28996   */\n      0x476976652061206e6f6e207a65726f20616d6f756e7421000000000000000000\n        /* \"#utility.yul\":28951:28969   */\n      0x44\n      dup3\n      add\n        /* \"#utility.yul\":28944:28997   */\n      mstore\n        /* \"#utility.yul\":29014:29032   */\n      0x64\n      add\n        /* \"contracts/Main.sol\":11860:11909  require(newAmount > 0, \"Give a non zero amount!\") */\n      tag_149\n        /* \"#utility.yul\":28691:29038   */\n      jump\n        /* \"contracts/Main.sol\":11860:11909  require(newAmount > 0, \"Give a non zero amount!\") */\n    tag_482:\n        /* \"contracts/Main.sol\":11965:11987  Product memory product */\n      0x00\n        /* \"contracts/Main.sol\":11990:12004  nameToProducts */\n      0x08\n        /* \"contracts/Main.sol\":12005:12009  name */\n      dup6\n        /* \"contracts/Main.sol\":11990:12010  nameToProducts[name] */\n      mload(0x40)\n      tag_485\n      swap2\n      swap1\n      tag_180\n      jump\t// in\n    tag_485:\n      swap1\n      dup2\n      mstore\n      0x20\n      add\n      mload(0x40)\n      dup1\n      swap2\n      sub\n      swap1\n      keccak256\n        /* \"contracts/Main.sol\":11965:12010  Product memory product = nameToProducts[name] */\n      mload(0x40)\n      dup1\n      0x80\n      add\n      0x40\n      mstore\n      swap1\n      dup2\n      0x00\n      dup3\n      add\n      sload\n      dup2\n      mstore\n      0x20\n      add\n      0x01\n      dup3\n      add\n      dup1\n      sload\n      tag_486\n      swap1\n      tag_182\n      jump\t// in\n    tag_486:\n      dup1\n      0x1f\n      add\n      0x20\n      dup1\n      swap2\n      div\n      mul\n      0x20\n      add\n      mload(0x40)\n      swap1\n      dup2\n      add\n      0x40\n      mstore\n      dup1\n      swap3\n      swap2\n      swap1\n      dup2\n      dup2\n      mstore\n      0x20\n      add\n      dup3\n      dup1\n      sload\n      tag_487\n      swap1\n      tag_182\n      jump\t// in\n    tag_487:\n      dup1\n      iszero\n      tag_488\n      jumpi\n      dup1\n      0x1f\n      lt\n      tag_489\n      jumpi\n      0x0100\n      dup1\n      dup4\n      sload\n      div\n      mul\n      dup4\n      mstore\n      swap2\n      0x20\n      add\n      swap2\n      jump(tag_488)\n    tag_489:\n      dup3\n      add\n      swap2\n      swap1\n      0x00\n      mstore\n      keccak256(0x00, 0x20)\n      swap1\n    tag_490:\n      dup2\n      sload\n      dup2\n      mstore\n      swap1\n      0x01\n      add\n      swap1\n      0x20\n      add\n      dup1\n      dup4\n      gt\n      tag_490\n      jumpi\n      dup3\n      swap1\n      sub\n      0x1f\n      and\n      dup3\n      add\n      swap2\n    tag_488:\n      pop\n      pop\n      pop\n      pop\n      pop\n      dup2\n      mstore\n      0x20\n      add\n      0x02\n      dup3\n      add\n      sload\n      dup2\n      mstore\n      0x20\n      add\n      0x03\n      dup3\n      add\n      dup1\n      sload\n      tag_491\n      swap1\n      tag_182\n      jump\t// in\n    tag_491:\n      dup1\n      0x1f\n      add\n      0x20\n      dup1\n      swap2\n      div\n      mul\n      0x20\n      add\n      mload(0x40)\n      swap1\n      dup2\n      add\n      0x40\n      mstore\n      dup1\n      swap3\n      swap2\n      swap1\n      dup2\n      dup2\n      mstore\n      0x20\n      add\n      dup3\n      dup1\n      sload\n      tag_492\n      swap1\n      tag_182\n      jump\t// in\n    tag_492:\n      dup1\n      iszero\n      tag_493\n      jumpi\n      dup1\n      0x1f\n      lt\n      tag_494\n      jumpi\n      0x0100\n      dup1\n      dup4\n      sload\n      div\n      mul\n      dup4\n      mstore\n      swap2\n      0x20\n      add\n      swap2\n      jump(tag_493)\n    tag_494:\n      dup3\n      add\n      swap2\n      swap1\n      0x00\n      mstore\n      keccak256(0x00, 0x20)\n      swap1\n    tag_495:\n      dup2\n      sload\n      dup2\n      mstore\n      swap1\n      0x01\n      add\n      swap1\n      0x20\n      add\n      dup1\n      dup4\n      gt\n      tag_495\n      jumpi\n      dup3\n      swap1\n      sub\n      0x1f\n      and\n      dup3\n      add\n      swap2\n    tag_493:\n      pop\n      pop\n      pop\n      swap2\n      swap1\n      swap3\n      mstore\n      pop\n      pop\n      pop\n        /* \"contracts/Main.sol\":12031:12043  product.name */\n      0x20\n      dup1\n      dup3\n      add\n        /* \"contracts/Main.sol\":12031:12052  product.name= newName */\n      dup7\n      dup2\n      mstore\n        /* \"contracts/Main.sol\":12063:12077  product.amount */\n      0x40\n      dup1\n      dup5\n      add\n        /* \"contracts/Main.sol\":12063:12089  product.amount = newAmount */\n      dup8\n      swap1\n      mstore\n        /* \"contracts/Main.sol\":12100:12119  product.description */\n      0x60\n      dup5\n      add\n        /* \"contracts/Main.sol\":12100:12135  product.description= newDescription */\n      dup7\n      swap1\n      mstore\n        /* \"contracts/Main.sol\":12157:12167  product.id */\n      dup4\n      mload\n      0x00\n        /* \"contracts/Main.sol\":12148:12168  products[product.id] */\n      swap1\n      dup2\n      mstore\n        /* \"contracts/Main.sol\":12148:12156  products */\n      0x07\n        /* \"contracts/Main.sol\":12148:12168  products[product.id] */\n      swap1\n      swap4\n      mstore\n      swap1\n      swap2\n      keccak256\n        /* \"contracts/Main.sol\":12148:12178  products[product.id] = product */\n      dup3\n      mload\n      dup2\n      sstore\n      swap1\n      mload\n        /* \"contracts/Main.sol\":11965:12010  Product memory product = nameToProducts[name] */\n      swap2\n      swap3\n      pop\n      dup3\n      swap2\n        /* \"contracts/Main.sol\":12148:12178  products[product.id] = product */\n      0x01\n      dup3\n      add\n      swap1\n      tag_496\n      swap1\n      dup3\n      tag_226\n      jump\t// in\n    tag_496:\n      pop\n      0x40\n      dup3\n      add\n      mload\n      0x02\n      dup3\n      add\n      sstore\n      0x60\n      dup3\n      add\n      mload\n      0x03\n      dup3\n      add\n      swap1\n      tag_497\n      swap1\n      dup3\n      tag_226\n      jump\t// in\n    tag_497:\n      pop\n      swap1\n      pop\n      pop\n        /* \"contracts/Main.sol\":12212:12219  product */\n      dup1\n        /* \"contracts/Main.sol\":12189:12203  nameToProducts */\n      0x08\n        /* \"contracts/Main.sol\":12204:12208  name */\n      dup7\n        /* \"contracts/Main.sol\":12189:12209  nameToProducts[name] */\n      mload(0x40)\n      tag_498\n      swap2\n      swap1\n      tag_180\n      jump\t// in\n    tag_498:\n      swap1\n      dup2\n      mstore\n      mload(0x40)\n      0x20\n      swap2\n      dup2\n      swap1\n      sub\n      dup3\n      add\n      swap1\n      keccak256\n        /* \"contracts/Main.sol\":12189:12219  nameToProducts[name] = product */\n      dup3\n      mload\n      dup2\n      sstore\n      swap1\n      dup3\n      add\n      mload\n      0x01\n      dup3\n      add\n      swap1\n      tag_499\n      swap1\n      dup3\n      tag_226\n      jump\t// in\n    tag_499:\n      pop\n      0x40\n      dup3\n      add\n      mload\n      0x02\n      dup3\n      add\n      sstore\n      0x60\n      dup3\n      add\n      mload\n      0x03\n      dup3\n      add\n      swap1\n      tag_500\n      swap1\n      dup3\n      tag_226\n      jump\t// in\n    tag_500:\n      pop\n      swap1\n      pop\n      pop\n        /* \"contracts/Main.sol\":12237:12257  ProductUpdated(name) */\n      0x4715e71e173cf1d6b6520d14d27288495caf68a395138f2c31bcd7c4c8a6938c\n        /* \"contracts/Main.sol\":12252:12256  name */\n      dup6\n        /* \"contracts/Main.sol\":12237:12257  ProductUpdated(name) */\n      mload(0x40)\n      tag_363\n      swap2\n      swap1\n      tag_80\n      jump\t// in\n        /* \"contracts/Main.sol\":7565:8199  function addEntity(string memory _name, EntityType entityType) public onlyRole(Role.Admin){... */\n    tag_113:\n        /* \"contracts/Main.sol\":7644:7654  Role.Admin */\n      0x01\n      dup1\n        /* \"contracts/Main.sol\":3122:3132  msg.sender */\n      caller\n        /* \"contracts/Main.sol\":3116:3133  users[msg.sender] */\n      0x00\n      swap1\n      dup2\n      mstore\n        /* \"contracts/Main.sol\":3116:3121  users */\n      0x02\n        /* \"contracts/Main.sol\":3116:3133  users[msg.sender] */\n      0x20\n      mstore\n      0x40\n      swap1\n      keccak256\n        /* \"contracts/Main.sol\":3116:3138  users[msg.sender].role */\n      0x01\n      add\n      sload\n      0xff\n      and\n        /* \"contracts/Main.sol\":3116:3147  users[msg.sender].role == _role */\n      0x04\n      dup2\n      gt\n      iszero\n      tag_506\n      jumpi\n      tag_506\n      tag_145\n      jump\t// in\n    tag_506:\n      eq\n        /* \"contracts/Main.sol\":3108:3181  require(users[msg.sender].role == _role, \"Access denied: incorrect role\") */\n      tag_507\n      jumpi\n      mload(0x40)\n      shl(0xe5, 0x461bcd)\n      dup2\n      mstore\n      0x04\n      add\n      tag_149\n      swap1\n      tag_150\n      jump\t// in\n    tag_507:\n        /* \"contracts/Main.sol\":7732:7740  entities */\n      0x04\n        /* \"contracts/Main.sol\":7741:7746  _name */\n      dup4\n        /* \"contracts/Main.sol\":7732:7747  entities[_name] */\n      mload(0x40)\n      tag_510\n      swap2\n      swap1\n      tag_180\n      jump\t// in\n    tag_510:\n      swap1\n      dup2\n      mstore\n      mload(0x40)\n      swap1\n      dup2\n      swap1\n      sub\n      0x20\n      add\n      swap1\n      keccak256\n        /* \"contracts/Main.sol\":7726:7760  bytes(entities[_name].name).length */\n      dup1\n      sload\n      tag_511\n      swap1\n      tag_182\n      jump\t// in\n    tag_511:\n        /* \"contracts/Main.sol\":7726:7765  bytes(entities[_name].name).length == 0 */\n      iszero\n      swap1\n      pop\n        /* \"contracts/Main.sol\":7718:7791  require(bytes(entities[_name].name).length == 0, \"Entity already exists\") */\n      tag_512\n      jumpi\n      mload(0x40)\n      shl(0xe5, 0x461bcd)\n      dup2\n      mstore\n        /* \"#utility.yul\":29245:29247   */\n      0x20\n        /* \"contracts/Main.sol\":7718:7791  require(bytes(entities[_name].name).length == 0, \"Entity already exists\") */\n      0x04\n      dup3\n      add\n        /* \"#utility.yul\":29227:29248   */\n      mstore\n        /* \"#utility.yul\":29284:29286   */\n      0x15\n        /* \"#utility.yul\":29264:29282   */\n      0x24\n      dup3\n      add\n        /* \"#utility.yul\":29257:29287   */\n      mstore\n      shl(0x58, 0x456e7469747920616c726561647920657869737473)\n        /* \"#utility.yul\":29303:29321   */\n      0x44\n      dup3\n      add\n        /* \"#utility.yul\":29296:29347   */\n      mstore\n        /* \"#utility.yul\":29364:29382   */\n      0x64\n      add\n        /* \"contracts/Main.sol\":7718:7791  require(bytes(entities[_name].name).length == 0, \"Entity already exists\") */\n      tag_149\n        /* \"#utility.yul\":29043:29388   */\n      jump\n        /* \"contracts/Main.sol\":7718:7791  require(bytes(entities[_name].name).length == 0, \"Entity already exists\") */\n    tag_512:\n        /* \"contracts/Main.sol\":8009:8034  Entity(_name, entityType) */\n      mload(0x40)\n      dup1\n      0x40\n      add\n      0x40\n      mstore\n      dup1\n        /* \"contracts/Main.sol\":8016:8021  _name */\n      dup5\n        /* \"contracts/Main.sol\":8009:8034  Entity(_name, entityType) */\n      dup2\n      mstore\n      0x20\n      add\n        /* \"contracts/Main.sol\":8023:8033  entityType */\n      dup4\n        /* \"contracts/Main.sol\":8009:8034  Entity(_name, entityType) */\n      0x06\n      dup2\n      gt\n      iszero\n      tag_516\n      jumpi\n      tag_516\n      tag_145\n      jump\t// in\n    tag_516:\n      dup2\n      mstore\n      pop\n        /* \"contracts/Main.sol\":7991:7999  entities */\n      0x04\n        /* \"contracts/Main.sol\":8000:8005  _name */\n      dup5\n        /* \"contracts/Main.sol\":7991:8006  entities[_name] */\n      mload(0x40)\n      tag_517\n      swap2\n      swap1\n      tag_180\n      jump\t// in\n    tag_517:\n      swap1\n      dup2\n      mstore\n      mload(0x40)\n      swap1\n      dup2\n      swap1\n      sub\n      0x20\n      add\n      swap1\n      keccak256\n        /* \"contracts/Main.sol\":7991:8034  entities[_name] = Entity(_name, entityType) */\n      dup2\n      mload\n        /* \"contracts/Main.sol\":7991:8006  entities[_name] */\n      dup2\n      swap1\n        /* \"contracts/Main.sol\":7991:8034  entities[_name] = Entity(_name, entityType) */\n      tag_518\n      swap1\n        /* \"contracts/Main.sol\":7991:8006  entities[_name] */\n      dup3\n        /* \"contracts/Main.sol\":7991:8034  entities[_name] = Entity(_name, entityType) */\n      tag_226\n      jump\t// in\n    tag_518:\n      pop\n      0x20\n      dup3\n      add\n      mload\n      0x01\n      dup1\n      dup4\n      add\n      dup1\n      sload\n      swap1\n      swap2\n      not(0xff)\n      swap1\n      swap2\n      and\n      swap1\n      dup4\n      0x06\n      dup2\n      gt\n      iszero\n      tag_520\n      jumpi\n      tag_520\n      tag_145\n      jump\t// in\n    tag_520:\n      mul\n      or\n      swap1\n      sstore\n      pop\n      swap1\n      pop\n      pop\n        /* \"contracts/Main.sol\":8045:8059  entitiesByType */\n      0x05\n        /* \"contracts/Main.sol\":8045:8071  entitiesByType[entityType] */\n      0x00\n        /* \"contracts/Main.sol\":8060:8070  entityType */\n      dup4\n        /* \"contracts/Main.sol\":8045:8071  entitiesByType[entityType] */\n      0x06\n      dup2\n      gt\n      iszero\n      tag_522\n      jumpi\n      tag_522\n      tag_145\n      jump\t// in\n    tag_522:\n      0x06\n      dup2\n      gt\n      iszero\n      tag_524\n      jumpi\n      tag_524\n      tag_145\n      jump\t// in\n    tag_524:\n      dup2\n      mstore\n      0x20\n      dup1\n      dup3\n      add\n      swap3\n      swap1\n      swap3\n      mstore\n      0x40\n      add\n      0x00\n      swap1\n      dup2\n      keccak256\n        /* \"contracts/Main.sol\":8045:8083  entitiesByType[entityType].push(_name) */\n      dup1\n      sload\n      0x01\n      dup2\n      add\n      dup3\n      sstore\n      swap1\n      dup3\n      mstore\n      swap2\n      swap1\n      keccak256\n      add\n      tag_526\n        /* \"contracts/Main.sol\":8077:8082  _name */\n      dup5\n        /* \"contracts/Main.sol\":8045:8083  entitiesByType[entityType].push(_name) */\n      dup3\n      tag_226\n      jump\t// in\n    tag_526:\n      pop\n        /* \"contracts/Main.sol\":8140:8191  EntityAdded(\"New entity added!\", _name, entityType) */\n      0x1d8d97f815529f4002c8af40c79fd5df57f9d8d426d5d60b300c9ae272db43e6\n        /* \"contracts/Main.sol\":8173:8178  _name */\n      dup4\n        /* \"contracts/Main.sol\":8180:8190  entityType */\n      dup4\n        /* \"contracts/Main.sol\":8140:8191  EntityAdded(\"New entity added!\", _name, entityType) */\n      mload(0x40)\n      tag_527\n      swap3\n      swap2\n      swap1\n      tag_528\n      jump\t// in\n    tag_527:\n      mload(0x40)\n      dup1\n      swap2\n      sub\n      swap1\n      log1\n        /* \"contracts/Main.sol\":7565:8199  function addEntity(string memory _name, EntityType entityType) public onlyRole(Role.Admin){... */\n      pop\n      pop\n      pop\n      jump\t// out\n        /* \"contracts/Main.sol\":2495:2555  mapping(uint => TransportationInfo[]) public ProdToTransInfo */\n    tag_117:\n      mstore(0x20, 0x06)\n      dup2\n      0x00\n      mstore\n      keccak256(0x00, 0x40)\n      dup2\n      dup2\n      sload\n      dup2\n      lt\n      tag_529\n      jumpi\n      0x00\n      dup1\n      revert\n    tag_529:\n      swap1\n      0x00\n      mstore\n      keccak256(0x00, 0x20)\n      swap1\n      0x06\n      mul\n      add\n      0x00\n      swap2\n      pop\n      swap2\n      pop\n      pop\n      dup1\n      0x00\n      add\n      dup1\n      sload\n      tag_531\n      swap1\n      tag_182\n      jump\t// in\n    tag_531:\n      dup1\n      0x1f\n      add\n      0x20\n      dup1\n      swap2\n      div\n      mul\n      0x20\n      add\n      mload(0x40)\n      swap1\n      dup2\n      add\n      0x40\n      mstore\n      dup1\n      swap3\n      swap2\n      swap1\n      dup2\n      dup2\n      mstore\n      0x20\n      add\n      dup3\n      dup1\n      sload\n      tag_532\n      swap1\n      tag_182\n      jump\t// in\n    tag_532:\n      dup1\n      iszero\n      tag_533\n      jumpi\n      dup1\n      0x1f\n      lt\n      tag_534\n      jumpi\n      0x0100\n      dup1\n      dup4\n      sload\n      div\n      mul\n      dup4\n      mstore\n      swap2\n      0x20\n      add\n      swap2\n      jump(tag_533)\n    tag_534:\n      dup3\n      add\n      swap2\n      swap1\n      0x00\n      mstore\n      keccak256(0x00, 0x20)\n      swap1\n    tag_535:\n      dup2\n      sload\n      dup2\n      mstore\n      swap1\n      0x01\n      add\n      swap1\n      0x20\n      add\n      dup1\n      dup4\n      gt\n      tag_535\n      jumpi\n      dup3\n      swap1\n      sub\n      0x1f\n      and\n      dup3\n      add\n      swap2\n    tag_533:\n      pop\n      pop\n      pop\n      pop\n      pop\n      swap1\n      dup1\n      0x01\n      add\n      dup1\n      sload\n      tag_536\n      swap1\n      tag_182\n      jump\t// in\n    tag_536:\n      dup1\n      0x1f\n      add\n      0x20\n      dup1\n      swap2\n      div\n      mul\n      0x20\n      add\n      mload(0x40)\n      swap1\n      dup2\n      add\n      0x40\n      mstore\n      dup1\n      swap3\n      swap2\n      swap1\n      dup2\n      dup2\n      mstore\n      0x20\n      add\n      dup3\n      dup1\n      sload\n      tag_537\n      swap1\n      tag_182\n      jump\t// in\n    tag_537:\n      dup1\n      iszero\n      tag_538\n      jumpi\n      dup1\n      0x1f\n      lt\n      tag_539\n      jumpi\n      0x0100\n      dup1\n      dup4\n      sload\n      div\n      mul\n      dup4\n      mstore\n      swap2\n      0x20\n      add\n      swap2\n      jump(tag_538)\n    tag_539:\n      dup3\n      add\n      swap2\n      swap1\n      0x00\n      mstore\n      keccak256(0x00, 0x20)\n      swap1\n    tag_540:\n      dup2\n      sload\n      dup2\n      mstore\n      swap1\n      0x01\n      add\n      swap1\n      0x20\n      add\n      dup1\n      dup4\n      gt\n      tag_540\n      jumpi\n      dup3\n      swap1\n      sub\n      0x1f\n      and\n      dup3\n      add\n      swap2\n    tag_538:\n      pop\n      pop\n      pop\n      pop\n      pop\n      swap1\n      dup1\n      0x02\n      add\n      sload\n      swap1\n      dup1\n      0x03\n      add\n      sload\n      swap1\n      dup1\n      0x04\n      add\n      mload(0x40)\n      dup1\n      0x40\n      add\n      0x40\n      mstore\n      swap1\n      dup2\n      0x00\n      dup3\n      add\n      dup1\n      sload\n      tag_541\n      swap1\n      tag_182\n      jump\t// in\n    tag_541:\n      dup1\n      0x1f\n      add\n      0x20\n      dup1\n      swap2\n      div\n      mul\n      0x20\n      add\n      mload(0x40)\n      swap1\n      dup2\n      add\n      0x40\n      mstore\n      dup1\n      swap3\n      swap2\n      swap1\n      dup2\n      dup2\n      mstore\n      0x20\n      add\n      dup3\n      dup1\n      sload\n      tag_542\n      swap1\n      tag_182\n      jump\t// in\n    tag_542:\n      dup1\n      iszero\n      tag_543\n      jumpi\n      dup1\n      0x1f\n      lt\n      tag_544\n      jumpi\n      0x0100\n      dup1\n      dup4\n      sload\n      div\n      mul\n      dup4\n      mstore\n      swap2\n      0x20\n      add\n      swap2\n      jump(tag_543)\n    tag_544:\n      dup3\n      add\n      swap2\n      swap1\n      0x00\n      mstore\n      keccak256(0x00, 0x20)\n      swap1\n    tag_545:\n      dup2\n      sload\n      dup2\n      mstore\n      swap1\n      0x01\n      add\n      swap1\n      0x20\n      add\n      dup1\n      dup4\n      gt\n      tag_545\n      jumpi\n      dup3\n      swap1\n      sub\n      0x1f\n      and\n      dup3\n      add\n      swap2\n    tag_543:\n      pop\n      pop\n      pop\n      swap2\n      dup4\n      mstore\n      pop\n      pop\n      0x01\n      dup3\n      add\n      sload\n      0x20\n      swap1\n      swap2\n      add\n      swap1\n      0xff\n      and\n      0x06\n      dup2\n      gt\n      iszero\n      tag_547\n      jumpi\n      tag_547\n      tag_145\n      jump\t// in\n    tag_547:\n      0x06\n      dup2\n      gt\n      iszero\n      tag_549\n      jumpi\n      tag_549\n      tag_145\n      jump\t// in\n    tag_549:\n      swap1\n      mstore\n      pop\n      swap1\n      pop\n      dup6\n      jump\t// out\n        /* \"contracts/Main.sol\":7046:7328  function getAllUsers() public view returns (User[] memory){... */\n    tag_124:\n        /* \"contracts/Main.sol\":7151:7164  userAddresses */\n      0x03\n        /* \"contracts/Main.sol\":7151:7171  userAddresses.length */\n      sload\n        /* \"contracts/Main.sol\":7090:7103  User[] memory */\n      0x60\n      swap1\n        /* \"contracts/Main.sol\":7115:7137  User[] memory allUsers */\n      0x00\n      swap1\n        /* \"contracts/Main.sol\":7140:7172  new User[](userAddresses.length) */\n      0xffffffffffffffff\n      dup2\n      gt\n      iszero\n      tag_552\n      jumpi\n      tag_552\n      tag_553\n      jump\t// in\n    tag_552:\n      mload(0x40)\n      swap1\n      dup1\n      dup3\n      mstore\n      dup1\n      0x20\n      mul\n      0x20\n      add\n      dup3\n      add\n      0x40\n      mstore\n      dup1\n      iszero\n      tag_554\n      jumpi\n      dup2\n      0x20\n      add\n    tag_555:\n      0x40\n      dup1\n      mload\n      dup1\n      dup3\n      add\n      swap1\n      swap2\n      mstore\n      0x60\n      dup2\n      mstore\n      0x00\n      0x20\n      dup3\n      add\n      mstore\n      dup2\n      mstore\n      0x20\n      add\n      swap1\n      0x01\n      swap1\n      sub\n      swap1\n      dup2\n      tag_555\n      jumpi\n      swap1\n      pop\n    tag_554:\n      pop\n        /* \"contracts/Main.sol\":7115:7172  User[] memory allUsers = new User[](userAddresses.length) */\n      swap1\n      pop\n        /* \"contracts/Main.sol\":7188:7194  uint i */\n      0x00\n        /* \"contracts/Main.sol\":7183:7295  for (uint i = 0; i < userAddresses.length; i++) {... */\n    tag_557:\n        /* \"contracts/Main.sol\":7204:7217  userAddresses */\n      0x03\n        /* \"contracts/Main.sol\":7204:7224  userAddresses.length */\n      sload\n        /* \"contracts/Main.sol\":7200:7224  i < userAddresses.length */\n      dup2\n      lt\n        /* \"contracts/Main.sol\":7183:7295  for (uint i = 0; i < userAddresses.length; i++) {... */\n      iszero\n      tag_558\n      jumpi\n        /* \"contracts/Main.sol\":7260:7265  users */\n      0x02\n        /* \"contracts/Main.sol\":7260:7283  users[userAddresses[i]] */\n      0x00\n        /* \"contracts/Main.sol\":7266:7279  userAddresses */\n      0x03\n        /* \"contracts/Main.sol\":7280:7281  i */\n      dup4\n        /* \"contracts/Main.sol\":7266:7282  userAddresses[i] */\n      dup2\n      sload\n      dup2\n      lt\n      tag_561\n      jumpi\n      tag_561\n      tag_263\n      jump\t// in\n    tag_561:\n      0x00\n      swap2\n      dup3\n      mstore\n      0x20\n      dup1\n      dup4\n      keccak256\n      swap1\n      swap2\n      add\n      sload\n      sub(shl(0xa0, 0x01), 0x01)\n      and\n        /* \"contracts/Main.sol\":7260:7283  users[userAddresses[i]] */\n      dup4\n      mstore\n      dup3\n      add\n      swap3\n      swap1\n      swap3\n      mstore\n      0x40\n      swap1\n      dup2\n      add\n      swap1\n      swap2\n      keccak256\n        /* \"contracts/Main.sol\":7246:7283  allUsers[i] = users[userAddresses[i]] */\n      dup2\n      mload\n      dup1\n      dup4\n      add\n      swap1\n      swap3\n      mstore\n      dup1\n      sload\n      dup3\n      swap1\n        /* \"contracts/Main.sol\":7260:7283  users[userAddresses[i]] */\n      dup3\n      swap1\n        /* \"contracts/Main.sol\":7246:7283  allUsers[i] = users[userAddresses[i]] */\n      tag_563\n      swap1\n      tag_182\n      jump\t// in\n    tag_563:\n      dup1\n      0x1f\n      add\n      0x20\n      dup1\n      swap2\n      div\n      mul\n      0x20\n      add\n      mload(0x40)\n      swap1\n      dup2\n      add\n      0x40\n      mstore\n      dup1\n      swap3\n      swap2\n      swap1\n      dup2\n      dup2\n      mstore\n      0x20\n      add\n      dup3\n      dup1\n      sload\n      tag_564\n      swap1\n      tag_182\n      jump\t// in\n    tag_564:\n      dup1\n      iszero\n      tag_565\n      jumpi\n      dup1\n      0x1f\n      lt\n      tag_566\n      jumpi\n      0x0100\n      dup1\n      dup4\n      sload\n      div\n      mul\n      dup4\n      mstore\n      swap2\n      0x20\n      add\n      swap2\n      jump(tag_565)\n    tag_566:\n      dup3\n      add\n      swap2\n      swap1\n      0x00\n      mstore\n      keccak256(0x00, 0x20)\n      swap1\n    tag_567:\n      dup2\n      sload\n      dup2\n      mstore\n      swap1\n      0x01\n      add\n      swap1\n      0x20\n      add\n      dup1\n      dup4\n      gt\n      tag_567\n      jumpi\n      dup3\n      swap1\n      sub\n      0x1f\n      and\n      dup3\n      add\n      swap2\n    tag_565:\n      pop\n      pop\n      pop\n      swap2\n      dup4\n      mstore\n      pop\n      pop\n      0x01\n      dup3\n      add\n      sload\n      0x20\n      swap1\n      swap2\n      add\n      swap1\n      0xff\n      and\n      0x04\n      dup2\n      gt\n      iszero\n      tag_569\n      jumpi\n      tag_569\n      tag_145\n      jump\t// in\n    tag_569:\n      0x04\n      dup2\n      gt\n      iszero\n      tag_571\n      jumpi\n      tag_571\n      tag_145\n      jump\t// in\n    tag_571:\n      dup2\n      mstore\n      pop\n      pop\n        /* \"contracts/Main.sol\":7246:7254  allUsers */\n      dup3\n        /* \"contracts/Main.sol\":7255:7256  i */\n      dup3\n        /* \"contracts/Main.sol\":7246:7257  allUsers[i] */\n      dup2\n      mload\n      dup2\n      lt\n      tag_573\n      jumpi\n      tag_573\n      tag_263\n      jump\t// in\n    tag_573:\n      0x20\n      mul\n      0x20\n      add\n      add\n        /* \"contracts/Main.sol\":7246:7283  allUsers[i] = users[userAddresses[i]] */\n      dup2\n      swap1\n      mstore\n      pop\n        /* \"contracts/Main.sol\":7226:7229  i++ */\n      dup1\n      dup1\n      tag_574\n      swap1\n      tag_279\n      jump\t// in\n    tag_574:\n      swap2\n      pop\n      pop\n        /* \"contracts/Main.sol\":7183:7295  for (uint i = 0; i < userAddresses.length; i++) {... */\n      jump(tag_557)\n    tag_558:\n      pop\n        /* \"contracts/Main.sol\":7312:7320  allUsers */\n      swap2\n        /* \"contracts/Main.sol\":7046:7328  function getAllUsers() public view returns (User[] memory){... */\n      swap1\n      pop\n      jump\t// out\n        /* \"contracts/Main.sol\":13049:14311  function ViewProductHistory(string memory productName) public view returns(TransportationInfo[] memory, string memory){... */\n    tag_129:\n        /* \"contracts/Main.sol\":13124:13151  TransportationInfo[] memory */\n      0x60\n        /* \"contracts/Main.sol\":13153:13166  string memory */\n      dup1\n        /* \"contracts/Main.sol\":13178:13200  Product memory product */\n      0x00\n        /* \"contracts/Main.sol\":13203:13217  nameToProducts */\n      0x08\n        /* \"contracts/Main.sol\":13218:13229  productName */\n      dup5\n        /* \"contracts/Main.sol\":13203:13230  nameToProducts[productName] */\n      mload(0x40)\n      tag_576\n      swap2\n      swap1\n      tag_180\n      jump\t// in\n    tag_576:\n      swap1\n      dup2\n      mstore\n      0x20\n      add\n      mload(0x40)\n      dup1\n      swap2\n      sub\n      swap1\n      keccak256\n        /* \"contracts/Main.sol\":13178:13230  Product memory product = nameToProducts[productName] */\n      mload(0x40)\n      dup1\n      0x80\n      add\n      0x40\n      mstore\n      swap1\n      dup2\n      0x00\n      dup3\n      add\n      sload\n      dup2\n      mstore\n      0x20\n      add\n      0x01\n      dup3\n      add\n      dup1\n      sload\n      tag_577\n      swap1\n      tag_182\n      jump\t// in\n    tag_577:\n      dup1\n      0x1f\n      add\n      0x20\n      dup1\n      swap2\n      div\n      mul\n      0x20\n      add\n      mload(0x40)\n      swap1\n      dup2\n      add\n      0x40\n      mstore\n      dup1\n      swap3\n      swap2\n      swap1\n      dup2\n      dup2\n      mstore\n      0x20\n      add\n      dup3\n      dup1\n      sload\n      tag_578\n      swap1\n      tag_182\n      jump\t// in\n    tag_578:\n      dup1\n      iszero\n      tag_579\n      jumpi\n      dup1\n      0x1f\n      lt\n      tag_580\n      jumpi\n      0x0100\n      dup1\n      dup4\n      sload\n      div\n      mul\n      dup4\n      mstore\n      swap2\n      0x20\n      add\n      swap2\n      jump(tag_579)\n    tag_580:\n      dup3\n      add\n      swap2\n      swap1\n      0x00\n      mstore\n      keccak256(0x00, 0x20)\n      swap1\n    tag_581:\n      dup2\n      sload\n      dup2\n      mstore\n      swap1\n      0x01\n      add\n      swap1\n      0x20\n      add\n      dup1\n      dup4\n      gt\n      tag_581\n      jumpi\n      dup3\n      swap1\n      sub\n      0x1f\n      and\n      dup3\n      add\n      swap2\n    tag_579:\n      pop\n      pop\n      pop\n      pop\n      pop\n      dup2\n      mstore\n      0x20\n      add\n      0x02\n      dup3\n      add\n      sload\n      dup2\n      mstore\n      0x20\n      add\n      0x03\n      dup3\n      add\n      dup1\n      sload\n      tag_582\n      swap1\n      tag_182\n      jump\t// in\n    tag_582:\n      dup1\n      0x1f\n      add\n      0x20\n      dup1\n      swap2\n      div\n      mul\n      0x20\n      add\n      mload(0x40)\n      swap1\n      dup2\n      add\n      0x40\n      mstore\n      dup1\n      swap3\n      swap2\n      swap1\n      dup2\n      dup2\n      mstore\n      0x20\n      add\n      dup3\n      dup1\n      sload\n      tag_583\n      swap1\n      tag_182\n      jump\t// in\n    tag_583:\n      dup1\n      iszero\n      tag_584\n      jumpi\n      dup1\n      0x1f\n      lt\n      tag_585\n      jumpi\n      0x0100\n      dup1\n      dup4\n      sload\n      div\n      mul\n      dup4\n      mstore\n      swap2\n      0x20\n      add\n      swap2\n      jump(tag_584)\n    tag_585:\n      dup3\n      add\n      swap2\n      swap1\n      0x00\n      mstore\n      keccak256(0x00, 0x20)\n      swap1\n    tag_586:\n      dup2\n      sload\n      dup2\n      mstore\n      swap1\n      0x01\n      add\n      swap1\n      0x20\n      add\n      dup1\n      dup4\n      gt\n      tag_586\n      jumpi\n      dup3\n      swap1\n      sub\n      0x1f\n      and\n      dup3\n      add\n      swap2\n    tag_584:\n      pop\n      pop\n      pop\n      pop\n      pop\n      dup2\n      mstore\n      pop\n      pop\n      swap1\n      pop\n        /* \"contracts/Main.sol\":13250:13287  TransportationInfo[] memory transInfo */\n      0x00\n        /* \"contracts/Main.sol\":13289:13304  ProdToTransInfo */\n      0x06\n        /* \"contracts/Main.sol\":13289:13316  ProdToTransInfo[product.id] */\n      0x00\n        /* \"contracts/Main.sol\":13305:13312  product */\n      dup4\n        /* \"contracts/Main.sol\":13305:13315  product.id */\n      0x00\n      add\n      mload\n        /* \"contracts/Main.sol\":13289:13316  ProdToTransInfo[product.id] */\n      dup2\n      mstore\n      0x20\n      add\n      swap1\n      dup2\n      mstore\n      0x20\n      add\n      0x00\n      keccak256\n        /* \"contracts/Main.sol\":13250:13316  TransportationInfo[] memory transInfo= ProdToTransInfo[product.id] */\n      dup1\n      sload\n      dup1\n      0x20\n      mul\n      0x20\n      add\n      mload(0x40)\n      swap1\n      dup2\n      add\n      0x40\n      mstore\n      dup1\n      swap3\n      swap2\n      swap1\n      dup2\n      dup2\n      mstore\n      0x20\n      add\n      0x00\n      swap1\n    tag_587:\n      dup3\n      dup3\n      lt\n      iszero\n      tag_588\n      jumpi\n      dup4\n      dup3\n      swap1\n      0x00\n      mstore\n      keccak256(0x00, 0x20)\n      swap1\n      0x06\n      mul\n      add\n      mload(0x40)\n      dup1\n      0xa0\n      add\n      0x40\n      mstore\n      swap1\n      dup2\n      0x00\n      dup3\n      add\n      dup1\n      sload\n      tag_590\n      swap1\n      tag_182\n      jump\t// in\n    tag_590:\n      dup1\n      0x1f\n      add\n      0x20\n      dup1\n      swap2\n      div\n      mul\n      0x20\n      add\n      mload(0x40)\n      swap1\n      dup2\n      add\n      0x40\n      mstore\n      dup1\n      swap3\n      swap2\n      swap1\n      dup2\n      dup2\n      mstore\n      0x20\n      add\n      dup3\n      dup1\n      sload\n      tag_591\n      swap1\n      tag_182\n      jump\t// in\n    tag_591:\n      dup1\n      iszero\n      tag_592\n      jumpi\n      dup1\n      0x1f\n      lt\n      tag_593\n      jumpi\n      0x0100\n      dup1\n      dup4\n      sload\n      div\n      mul\n      dup4\n      mstore\n      swap2\n      0x20\n      add\n      swap2\n      jump(tag_592)\n    tag_593:\n      dup3\n      add\n      swap2\n      swap1\n      0x00\n      mstore\n      keccak256(0x00, 0x20)\n      swap1\n    tag_594:\n      dup2\n      sload\n      dup2\n      mstore\n      swap1\n      0x01\n      add\n      swap1\n      0x20\n      add\n      dup1\n      dup4\n      gt\n      tag_594\n      jumpi\n      dup3\n      swap1\n      sub\n      0x1f\n      and\n      dup3\n      add\n      swap2\n    tag_592:\n      pop\n      pop\n      pop\n      pop\n      pop\n      dup2\n      mstore\n      0x20\n      add\n      0x01\n      dup3\n      add\n      dup1\n      sload\n      tag_595\n      swap1\n      tag_182\n      jump\t// in\n    tag_595:\n      dup1\n      0x1f\n      add\n      0x20\n      dup1\n      swap2\n      div\n      mul\n      0x20\n      add\n      mload(0x40)\n      swap1\n      dup2\n      add\n      0x40\n      mstore\n      dup1\n      swap3\n      swap2\n      swap1\n      dup2\n      dup2\n      mstore\n      0x20\n      add\n      dup3\n      dup1\n      sload\n      tag_596\n      swap1\n      tag_182\n      jump\t// in\n    tag_596:\n      dup1\n      iszero\n      tag_597\n      jumpi\n      dup1\n      0x1f\n      lt\n      tag_598\n      jumpi\n      0x0100\n      dup1\n      dup4\n      sload\n      div\n      mul\n      dup4\n      mstore\n      swap2\n      0x20\n      add\n      swap2\n      jump(tag_597)\n    tag_598:\n      dup3\n      add\n      swap2\n      swap1\n      0x00\n      mstore\n      keccak256(0x00, 0x20)\n      swap1\n    tag_599:\n      dup2\n      sload\n      dup2\n      mstore\n      swap1\n      0x01\n      add\n      swap1\n      0x20\n      add\n      dup1\n      dup4\n      gt\n      tag_599\n      jumpi\n      dup3\n      swap1\n      sub\n      0x1f\n      and\n      dup3\n      add\n      swap2\n    tag_597:\n      pop\n      pop\n      pop\n      pop\n      pop\n      dup2\n      mstore\n      0x20\n      add\n      0x02\n      dup3\n      add\n      sload\n      dup2\n      mstore\n      0x20\n      add\n      0x03\n      dup3\n      add\n      sload\n      dup2\n      mstore\n      0x20\n      add\n      0x04\n      dup3\n      add\n      mload(0x40)\n      dup1\n      0x40\n      add\n      0x40\n      mstore\n      swap1\n      dup2\n      0x00\n      dup3\n      add\n      dup1\n      sload\n      tag_600\n      swap1\n      tag_182\n      jump\t// in\n    tag_600:\n      dup1\n      0x1f\n      add\n      0x20\n      dup1\n      swap2\n      div\n      mul\n      0x20\n      add\n      mload(0x40)\n      swap1\n      dup2\n      add\n      0x40\n      mstore\n      dup1\n      swap3\n      swap2\n      swap1\n      dup2\n      dup2\n      mstore\n      0x20\n      add\n      dup3\n      dup1\n      sload\n      tag_601\n      swap1\n      tag_182\n      jump\t// in\n    tag_601:\n      dup1\n      iszero\n      tag_602\n      jumpi\n      dup1\n      0x1f\n      lt\n      tag_603\n      jumpi\n      0x0100\n      dup1\n      dup4\n      sload\n      div\n      mul\n      dup4\n      mstore\n      swap2\n      0x20\n      add\n      swap2\n      jump(tag_602)\n    tag_603:\n      dup3\n      add\n      swap2\n      swap1\n      0x00\n      mstore\n      keccak256(0x00, 0x20)\n      swap1\n    tag_604:\n      dup2\n      sload\n      dup2\n      mstore\n      swap1\n      0x01\n      add\n      swap1\n      0x20\n      add\n      dup1\n      dup4\n      gt\n      tag_604\n      jumpi\n      dup3\n      swap1\n      sub\n      0x1f\n      and\n      dup3\n      add\n      swap2\n    tag_602:\n      pop\n      pop\n      pop\n      swap2\n      dup4\n      mstore\n      pop\n      pop\n      0x01\n      dup3\n      add\n      sload\n      0x20\n      swap1\n      swap2\n      add\n      swap1\n      0xff\n      and\n      0x06\n      dup2\n      gt\n      iszero\n      tag_606\n      jumpi\n      tag_606\n      tag_145\n      jump\t// in\n    tag_606:\n      0x06\n      dup2\n      gt\n      iszero\n      tag_608\n      jumpi\n      tag_608\n      tag_145\n      jump\t// in\n    tag_608:\n      swap1\n      mstore\n      pop\n      swap1\n      mstore\n      pop\n      dup2\n      mstore\n      0x01\n      swap1\n      swap2\n      add\n      swap1\n      0x20\n      add\n      jump(tag_587)\n    tag_588:\n      pop\n      pop\n        /* \"contracts/Main.sol\":13329:13354  string memory message= \"\" */\n      0x40\n      dup1\n      mload\n      0x20\n      dup2\n      add\n      swap1\n      swap2\n      mstore\n        /* \"contracts/Main.sol\":13329:13350  string memory message */\n      0x00\n        /* \"contracts/Main.sol\":13329:13354  string memory message= \"\" */\n      dup1\n      dup3\n      mstore\n        /* \"contracts/Main.sol\":13250:13316  TransportationInfo[] memory transInfo= ProdToTransInfo[product.id] */\n      swap4\n      swap5\n      pop\n        /* \"contracts/Main.sol\":13329:13354  string memory message= \"\" */\n      swap3\n        /* \"contracts/Main.sol\":13329:13350  string memory message */\n      swap2\n      pop\n        /* \"contracts/Main.sol\":13370:13442  transInfo[transInfo.length -1].currentEntity.entityType==EntityType.None */\n      tag_610\n      swap1\n      pop\n      jump\n    tag_610:\n        /* \"contracts/Main.sol\":13370:13379  transInfo */\n      dup3\n        /* \"contracts/Main.sol\":13398:13399  1 */\n      0x01\n        /* \"contracts/Main.sol\":13380:13389  transInfo */\n      dup5\n        /* \"contracts/Main.sol\":13380:13396  transInfo.length */\n      mload\n        /* \"contracts/Main.sol\":13380:13399  transInfo.length -1 */\n      tag_611\n      swap2\n      swap1\n      tag_267\n      jump\t// in\n    tag_611:\n        /* \"contracts/Main.sol\":13370:13400  transInfo[transInfo.length -1] */\n      dup2\n      mload\n      dup2\n      lt\n      tag_613\n      jumpi\n      tag_613\n      tag_263\n      jump\t// in\n    tag_613:\n      0x20\n      mul\n      0x20\n      add\n      add\n      mload\n        /* \"contracts/Main.sol\":13370:13414  transInfo[transInfo.length -1].currentEntity */\n      0x80\n      add\n      mload\n        /* \"contracts/Main.sol\":13370:13425  transInfo[transInfo.length -1].currentEntity.entityType */\n      0x20\n      add\n      mload\n        /* \"contracts/Main.sol\":13370:13442  transInfo[transInfo.length -1].currentEntity.entityType==EntityType.None */\n      0x06\n      dup2\n      gt\n      iszero\n      tag_615\n      jumpi\n      tag_615\n      tag_145\n      jump\t// in\n    tag_615:\n      sub\n        /* \"contracts/Main.sol\":13367:14257  if(transInfo[transInfo.length -1].currentEntity.entityType==EntityType.None){... */\n      tag_616\n      jumpi\n      pop\n        /* \"contracts/Main.sol\":13458:13495  message=\"Product is just initialized\" */\n      0x40\n      dup1\n      mload\n      dup1\n      dup3\n      add\n      swap1\n      swap2\n      mstore\n      0x1b\n      dup2\n      mstore\n      0x50726f64756374206973206a75737420696e697469616c697a65640000000000\n      0x20\n      dup3\n      add\n      mstore\n        /* \"contracts/Main.sol\":13367:14257  if(transInfo[transInfo.length -1].currentEntity.entityType==EntityType.None){... */\n      jump(tag_653)\n    tag_616:\n        /* \"contracts/Main.sol\":13582:13601  EntityType.Producer */\n      0x01\n        /* \"contracts/Main.sol\":13525:13534  transInfo */\n      dup3\n        /* \"contracts/Main.sol\":13553:13554  1 */\n      0x01\n        /* \"contracts/Main.sol\":13535:13544  transInfo */\n      dup5\n        /* \"contracts/Main.sol\":13535:13551  transInfo.length */\n      mload\n        /* \"contracts/Main.sol\":13535:13554  transInfo.length -1 */\n      tag_620\n      swap2\n      swap1\n      tag_267\n      jump\t// in\n    tag_620:\n        /* \"contracts/Main.sol\":13525:13555  transInfo[transInfo.length -1] */\n      dup2\n      mload\n      dup2\n      lt\n      tag_622\n      jumpi\n      tag_622\n      tag_263\n      jump\t// in\n    tag_622:\n      0x20\n      mul\n      0x20\n      add\n      add\n      mload\n        /* \"contracts/Main.sol\":13525:13569  transInfo[transInfo.length -1].currentEntity */\n      0x80\n      add\n      mload\n        /* \"contracts/Main.sol\":13525:13580  transInfo[transInfo.length -1].currentEntity.entityType */\n      0x20\n      add\n      mload\n        /* \"contracts/Main.sol\":13525:13601  transInfo[transInfo.length -1].currentEntity.entityType==EntityType.Producer */\n      0x06\n      dup2\n      gt\n      iszero\n      tag_624\n      jumpi\n      tag_624\n      tag_145\n      jump\t// in\n    tag_624:\n      sub\n        /* \"contracts/Main.sol\":13522:14257  if(transInfo[transInfo.length -1].currentEntity.entityType==EntityType.Producer){... */\n      tag_625\n      jumpi\n        /* \"contracts/Main.sol\":13617:13664  message=\"Product is in the state of Production\" */\n      mload(0x40)\n      dup1\n      0x60\n      add\n      0x40\n      mstore\n      dup1\n      0x25\n      dup2\n      mstore\n      0x20\n      add\n      data_7d20aa27d3ea06098a5ed674056e120e76a75cc89fbd0da2e10a97573a90583a\n      0x25\n      swap2\n      codecopy\n      swap1\n      pop\n        /* \"contracts/Main.sol\":13522:14257  if(transInfo[transInfo.length -1].currentEntity.entityType==EntityType.Producer){... */\n      jump(tag_653)\n    tag_625:\n        /* \"contracts/Main.sol\":13751:13773  EntityType.Transporter */\n      0x02\n        /* \"contracts/Main.sol\":13694:13703  transInfo */\n      dup3\n        /* \"contracts/Main.sol\":13722:13723  1 */\n      0x01\n        /* \"contracts/Main.sol\":13704:13713  transInfo */\n      dup5\n        /* \"contracts/Main.sol\":13704:13720  transInfo.length */\n      mload\n        /* \"contracts/Main.sol\":13704:13723  transInfo.length -1 */\n      tag_629\n      swap2\n      swap1\n      tag_267\n      jump\t// in\n    tag_629:\n        /* \"contracts/Main.sol\":13694:13724  transInfo[transInfo.length -1] */\n      dup2\n      mload\n      dup2\n      lt\n      tag_631\n      jumpi\n      tag_631\n      tag_263\n      jump\t// in\n    tag_631:\n      0x20\n      mul\n      0x20\n      add\n      add\n      mload\n        /* \"contracts/Main.sol\":13694:13738  transInfo[transInfo.length -1].currentEntity */\n      0x80\n      add\n      mload\n        /* \"contracts/Main.sol\":13694:13749  transInfo[transInfo.length -1].currentEntity.entityType */\n      0x20\n      add\n      mload\n        /* \"contracts/Main.sol\":13694:13773  transInfo[transInfo.length -1].currentEntity.entityType==EntityType.Transporter */\n      0x06\n      dup2\n      gt\n      iszero\n      tag_633\n      jumpi\n      tag_633\n      tag_145\n      jump\t// in\n    tag_633:\n      sub\n        /* \"contracts/Main.sol\":13691:14257  if(transInfo[transInfo.length -1].currentEntity.entityType==EntityType.Transporter){... */\n      tag_634\n      jumpi\n        /* \"contracts/Main.sol\":13789:13840  message=\"Product is in the state of Transportation\" */\n      mload(0x40)\n      dup1\n      0x60\n      add\n      0x40\n      mstore\n      dup1\n      0x29\n      dup2\n      mstore\n      0x20\n      add\n      data_292351f7387e432a101c9a5bbed93081f2b814fd42aacf5d3aebc28528b529f4\n      0x29\n      swap2\n      codecopy\n      swap1\n      pop\n        /* \"contracts/Main.sol\":13691:14257  if(transInfo[transInfo.length -1].currentEntity.entityType==EntityType.Transporter){... */\n      jump(tag_653)\n    tag_634:\n        /* \"contracts/Main.sol\":13927:13947  EntityType.Warehouse */\n      0x03\n        /* \"contracts/Main.sol\":13870:13879  transInfo */\n      dup3\n        /* \"contracts/Main.sol\":13898:13899  1 */\n      0x01\n        /* \"contracts/Main.sol\":13880:13889  transInfo */\n      dup5\n        /* \"contracts/Main.sol\":13880:13896  transInfo.length */\n      mload\n        /* \"contracts/Main.sol\":13880:13899  transInfo.length -1 */\n      tag_638\n      swap2\n      swap1\n      tag_267\n      jump\t// in\n    tag_638:\n        /* \"contracts/Main.sol\":13870:13900  transInfo[transInfo.length -1] */\n      dup2\n      mload\n      dup2\n      lt\n      tag_640\n      jumpi\n      tag_640\n      tag_263\n      jump\t// in\n    tag_640:\n      0x20\n      mul\n      0x20\n      add\n      add\n      mload\n        /* \"contracts/Main.sol\":13870:13914  transInfo[transInfo.length -1].currentEntity */\n      0x80\n      add\n      mload\n        /* \"contracts/Main.sol\":13870:13925  transInfo[transInfo.length -1].currentEntity.entityType */\n      0x20\n      add\n      mload\n        /* \"contracts/Main.sol\":13870:13947  transInfo[transInfo.length -1].currentEntity.entityType==EntityType.Warehouse */\n      0x06\n      dup2\n      gt\n      iszero\n      tag_642\n      jumpi\n      tag_642\n      tag_145\n      jump\t// in\n    tag_642:\n      sub\n        /* \"contracts/Main.sol\":13867:14257  if(transInfo[transInfo.length -1].currentEntity.entityType==EntityType.Warehouse){... */\n      tag_643\n      jumpi\n        /* \"contracts/Main.sol\":13963:14009  message=\"Product is in the state of Warehouse\" */\n      mload(0x40)\n      dup1\n      0x60\n      add\n      0x40\n      mstore\n      dup1\n      0x24\n      dup2\n      mstore\n      0x20\n      add\n      data_6123de2ea079ea7b27646a01d22f3c519706e20a7a4c5a0d01b4931b5584e680\n      0x24\n      swap2\n      codecopy\n      swap1\n      pop\n        /* \"contracts/Main.sol\":13867:14257  if(transInfo[transInfo.length -1].currentEntity.entityType==EntityType.Warehouse){... */\n      jump(tag_653)\n    tag_643:\n        /* \"contracts/Main.sol\":14096:14123  EntityType.PackagingCompany */\n      0x04\n        /* \"contracts/Main.sol\":14039:14048  transInfo */\n      dup3\n        /* \"contracts/Main.sol\":14067:14068  1 */\n      0x01\n        /* \"contracts/Main.sol\":14049:14058  transInfo */\n      dup5\n        /* \"contracts/Main.sol\":14049:14065  transInfo.length */\n      mload\n        /* \"contracts/Main.sol\":14049:14068  transInfo.length -1 */\n      tag_647\n      swap2\n      swap1\n      tag_267\n      jump\t// in\n    tag_647:\n        /* \"contracts/Main.sol\":14039:14069  transInfo[transInfo.length -1] */\n      dup2\n      mload\n      dup2\n      lt\n      tag_649\n      jumpi\n      tag_649\n      tag_263\n      jump\t// in\n    tag_649:\n      0x20\n      mul\n      0x20\n      add\n      add\n      mload\n        /* \"contracts/Main.sol\":14039:14083  transInfo[transInfo.length -1].currentEntity */\n      0x80\n      add\n      mload\n        /* \"contracts/Main.sol\":14039:14094  transInfo[transInfo.length -1].currentEntity.entityType */\n      0x20\n      add\n      mload\n        /* \"contracts/Main.sol\":14039:14123  transInfo[transInfo.length -1].currentEntity.entityType==EntityType.PackagingCompany */\n      0x06\n      dup2\n      gt\n      iszero\n      tag_651\n      jumpi\n      tag_651\n      tag_145\n      jump\t// in\n    tag_651:\n      sub\n        /* \"contracts/Main.sol\":14036:14257  if(transInfo[transInfo.length -1].currentEntity.entityType==EntityType.PackagingCompany){... */\n      tag_652\n      jumpi\n        /* \"contracts/Main.sol\":14138:14184  message=\"Product is in the state of Packaging\" */\n      mload(0x40)\n      dup1\n      0x60\n      add\n      0x40\n      mstore\n      dup1\n      0x24\n      dup2\n      mstore\n      0x20\n      add\n      data_5f6fd547ed43976aa34123907fb208304f24edb1eb8678b73119e68b28f4340a\n      0x24\n      swap2\n      codecopy\n      swap1\n      pop\n        /* \"contracts/Main.sol\":14036:14257  if(transInfo[transInfo.length -1].currentEntity.entityType==EntityType.PackagingCompany){... */\n      jump(tag_653)\n    tag_652:\n      pop\n        /* \"contracts/Main.sol\":14225:14245  message=\"Sou rxetai\" */\n      0x40\n      dup1\n      mload\n      dup1\n      dup3\n      add\n      swap1\n      swap2\n      mstore\n      0x0a\n      dup2\n      mstore\n      shl(0xb0, 0x536f7520727865746169)\n      0x20\n      dup3\n      add\n      mstore\n        /* \"contracts/Main.sol\":14036:14257  if(transInfo[transInfo.length -1].currentEntity.entityType==EntityType.PackagingCompany){... */\n    tag_653:\n        /* \"contracts/Main.sol\":14285:14294  transInfo */\n      swap1\n      swap6\n        /* \"contracts/Main.sol\":14295:14302  message */\n      swap1\n      swap5\n      pop\n        /* \"contracts/Main.sol\":13049:14311  function ViewProductHistory(string memory productName) public view returns(TransportationInfo[] memory, string memory){... */\n      swap3\n      pop\n      pop\n      pop\n      jump\t// out\n        /* \"contracts/Main.sol\":12515:13039  function UpdateStatus(string memory ProductName, string memory origin, string memory destination, uint dateOfDeparture, uint estDateOfArrival, string memory EntityName, EntityType entityType) public {     ... */\n    tag_135:\n        /* \"contracts/Main.sol\":12730:12752  Product memory product */\n      0x00\n        /* \"contracts/Main.sol\":12755:12769  nameToProducts */\n      0x08\n        /* \"contracts/Main.sol\":12770:12781  ProductName */\n      dup9\n        /* \"contracts/Main.sol\":12755:12782  nameToProducts[ProductName] */\n      mload(0x40)\n      tag_655\n      swap2\n      swap1\n      tag_180\n      jump\t// in\n    tag_655:\n      swap1\n      dup2\n      mstore\n      0x20\n      add\n      mload(0x40)\n      dup1\n      swap2\n      sub\n      swap1\n      keccak256\n        /* \"contracts/Main.sol\":12730:12782  Product memory product = nameToProducts[ProductName] */\n      mload(0x40)\n      dup1\n      0x80\n      add\n      0x40\n      mstore\n      swap1\n      dup2\n      0x00\n      dup3\n      add\n      sload\n      dup2\n      mstore\n      0x20\n      add\n      0x01\n      dup3\n      add\n      dup1\n      sload\n      tag_656\n      swap1\n      tag_182\n      jump\t// in\n    tag_656:\n      dup1\n      0x1f\n      add\n      0x20\n      dup1\n      swap2\n      div\n      mul\n      0x20\n      add\n      mload(0x40)\n      swap1\n      dup2\n      add\n      0x40\n      mstore\n      dup1\n      swap3\n      swap2\n      swap1\n      dup2\n      dup2\n      mstore\n      0x20\n      add\n      dup3\n      dup1\n      sload\n      tag_657\n      swap1\n      tag_182\n      jump\t// in\n    tag_657:\n      dup1\n      iszero\n      tag_658\n      jumpi\n      dup1\n      0x1f\n      lt\n      tag_659\n      jumpi\n      0x0100\n      dup1\n      dup4\n      sload\n      div\n      mul\n      dup4\n      mstore\n      swap2\n      0x20\n      add\n      swap2\n      jump(tag_658)\n    tag_659:\n      dup3\n      add\n      swap2\n      swap1\n      0x00\n      mstore\n      keccak256(0x00, 0x20)\n      swap1\n    tag_660:\n      dup2\n      sload\n      dup2\n      mstore\n      swap1\n      0x01\n      add\n      swap1\n      0x20\n      add\n      dup1\n      dup4\n      gt\n      tag_660\n      jumpi\n      dup3\n      swap1\n      sub\n      0x1f\n      and\n      dup3\n      add\n      swap2\n    tag_658:\n      pop\n      pop\n      pop\n      pop\n      pop\n      dup2\n      mstore\n      0x20\n      add\n      0x02\n      dup3\n      add\n      sload\n      dup2\n      mstore\n      0x20\n      add\n      0x03\n      dup3\n      add\n      dup1\n      sload\n      tag_661\n      swap1\n      tag_182\n      jump\t// in\n    tag_661:\n      dup1\n      0x1f\n      add\n      0x20\n      dup1\n      swap2\n      div\n      mul\n      0x20\n      add\n      mload(0x40)\n      swap1\n      dup2\n      add\n      0x40\n      mstore\n      dup1\n      swap3\n      swap2\n      swap1\n      dup2\n      dup2\n      mstore\n      0x20\n      add\n      dup3\n      dup1\n      sload\n      tag_662\n      swap1\n      tag_182\n      jump\t// in\n    tag_662:\n      dup1\n      iszero\n      tag_663\n      jumpi\n      dup1\n      0x1f\n      lt\n      tag_664\n      jumpi\n      0x0100\n      dup1\n      dup4\n      sload\n      div\n      mul\n      dup4\n      mstore\n      swap2\n      0x20\n      add\n      swap2\n      jump(tag_663)\n    tag_664:\n      dup3\n      add\n      swap2\n      swap1\n      0x00\n      mstore\n      keccak256(0x00, 0x20)\n      swap1\n    tag_665:\n      dup2\n      sload\n      dup2\n      mstore\n      swap1\n      0x01\n      add\n      swap1\n      0x20\n      add\n      dup1\n      dup4\n      gt\n      tag_665\n      jumpi\n      dup3\n      swap1\n      sub\n      0x1f\n      and\n      dup3\n      add\n      swap2\n    tag_663:\n      pop\n      pop\n      pop\n      pop\n      pop\n      dup2\n      mstore\n      pop\n      pop\n      swap1\n      pop\n        /* \"contracts/Main.sol\":12795:12815  Entity memory entity */\n      0x00\n        /* \"contracts/Main.sol\":12817:12847  Entity(EntityName, entityType) */\n      mload(0x40)\n      dup1\n      0x40\n      add\n      0x40\n      mstore\n      dup1\n        /* \"contracts/Main.sol\":12824:12834  EntityName */\n      dup6\n        /* \"contracts/Main.sol\":12817:12847  Entity(EntityName, entityType) */\n      dup2\n      mstore\n      0x20\n      add\n        /* \"contracts/Main.sol\":12836:12846  entityType */\n      dup5\n        /* \"contracts/Main.sol\":12817:12847  Entity(EntityName, entityType) */\n      0x06\n      dup2\n      gt\n      iszero\n      tag_667\n      jumpi\n      tag_667\n      tag_145\n      jump\t// in\n    tag_667:\n      swap1\n      mstore\n        /* \"contracts/Main.sol\":12895:12977  TransportationInfo(origin, destination, dateOfDeparture, estDateOfArrival, entity) */\n      0x40\n      dup1\n      mload\n      0xa0\n      dup2\n      add\n      dup3\n      mstore\n      dup11\n      dup2\n      mstore\n      0x20\n      dup1\n      dup3\n      add\n      dup12\n      swap1\n      mstore\n      dup2\n      dup4\n      add\n      dup11\n      swap1\n      mstore\n      0x60\n      dup3\n      add\n      dup10\n      swap1\n      mstore\n      0x80\n      dup3\n      add\n      dup5\n      swap1\n      mstore\n        /* \"contracts/Main.sol\":13004:13014  product.id */\n      dup6\n      mload\n        /* \"contracts/Main.sol\":12858:12893  TransportationInfo memory transInfo */\n      0x00\n        /* \"contracts/Main.sol\":12988:13015  ProdToTransInfo[product.id] */\n      swap1\n      dup2\n      mstore\n        /* \"contracts/Main.sol\":12988:13003  ProdToTransInfo */\n      0x06\n        /* \"contracts/Main.sol\":12988:13015  ProdToTransInfo[product.id] */\n      dup1\n      dup4\n      mstore\n      swap4\n      dup2\n      keccak256\n        /* \"contracts/Main.sol\":12988:13031  ProdToTransInfo[product.id].push(transInfo) */\n      dup1\n      sload\n      0x01\n      dup2\n      add\n      dup3\n      sstore\n      swap1\n      dup3\n      mstore\n      swap2\n      swap1\n      keccak256\n      dup3\n      mload\n        /* \"contracts/Main.sol\":12795:12847  Entity memory entity= Entity(EntityName, entityType) */\n      swap5\n      swap6\n      pop\n        /* \"contracts/Main.sol\":12895:12977  TransportationInfo(origin, destination, dateOfDeparture, estDateOfArrival, entity) */\n      swap2\n      swap4\n      dup5\n      swap4\n        /* \"contracts/Main.sol\":12988:13031  ProdToTransInfo[product.id].push(transInfo) */\n      swap2\n      swap1\n      swap2\n      mul\n      swap1\n      swap2\n      add\n      swap1\n      dup2\n      swap1\n      tag_669\n      swap1\n      dup3\n      tag_226\n      jump\t// in\n    tag_669:\n      pop\n      0x20\n      dup3\n      add\n      mload\n      0x01\n      dup3\n      add\n      swap1\n      tag_670\n      swap1\n      dup3\n      tag_226\n      jump\t// in\n    tag_670:\n      pop\n      0x40\n      dup3\n      add\n      mload\n      0x02\n      dup3\n      add\n      sstore\n      0x60\n      dup3\n      add\n      mload\n      0x03\n      dup3\n      add\n      sstore\n      0x80\n      dup3\n      add\n      mload\n      dup1\n      mload\n      0x04\n      dup4\n      add\n      swap1\n      dup2\n      swap1\n      tag_671\n      swap1\n      dup3\n      tag_226\n      jump\t// in\n    tag_671:\n      pop\n      0x20\n      dup3\n      add\n      mload\n      0x01\n      dup1\n      dup4\n      add\n      dup1\n      sload\n      swap1\n      swap2\n      not(0xff)\n      swap1\n      swap2\n      and\n      swap1\n      dup4\n      0x06\n      dup2\n      gt\n      iszero\n      tag_673\n      jumpi\n      tag_673\n      tag_145\n      jump\t// in\n    tag_673:\n      mul\n      or\n      swap1\n      sstore\n      pop\n      pop\n      pop\n      pop\n      pop\n        /* \"contracts/Main.sol\":12714:13039  {     ... */\n      pop\n      pop\n      pop\n        /* \"contracts/Main.sol\":12515:13039  function UpdateStatus(string memory ProductName, string memory origin, string memory destination, uint dateOfDeparture, uint estDateOfArrival, string memory EntityName, EntityType entityType) public {     ... */\n      pop\n      pop\n      pop\n      pop\n      pop\n      pop\n      pop\n      jump\t// out\n        /* \"contracts/Main.sol\":9642:9959  function getEntitiesByType(EntityType entityType) public view returns (string[] memory) {... */\n    tag_139:\n        /* \"contracts/Main.sol\":9713:9728  string[] memory */\n      0x60\n        /* \"contracts/Main.sol\":9821:9835  entitiesByType */\n      0x05\n        /* \"contracts/Main.sol\":9821:9847  entitiesByType[entityType] */\n      0x00\n        /* \"contracts/Main.sol\":9836:9846  entityType */\n      dup4\n        /* \"contracts/Main.sol\":9821:9847  entitiesByType[entityType] */\n      0x06\n      dup2\n      gt\n      iszero\n      tag_676\n      jumpi\n      tag_676\n      tag_145\n      jump\t// in\n    tag_676:\n      0x06\n      dup2\n      gt\n      iszero\n      tag_678\n      jumpi\n      tag_678\n      tag_145\n      jump\t// in\n    tag_678:\n      dup2\n      mstore\n      0x20\n      add\n      swap1\n      dup2\n      mstore\n      0x20\n      add\n      0x00\n      keccak256\n        /* \"contracts/Main.sol\":9821:9854  entitiesByType[entityType].length */\n      dup1\n      sload\n      swap1\n      pop\n        /* \"contracts/Main.sol\":9858:9859  0 */\n      0x00\n        /* \"contracts/Main.sol\":9821:9859  entitiesByType[entityType].length != 0 */\n      sub\n        /* \"contracts/Main.sol\":9813:9890  require(entitiesByType[entityType].length != 0, \"Entity type does not exist\") */\n      tag_679\n      jumpi\n      mload(0x40)\n      shl(0xe5, 0x461bcd)\n      dup2\n      mstore\n        /* \"#utility.yul\":30162:30164   */\n      0x20\n        /* \"contracts/Main.sol\":9813:9890  require(entitiesByType[entityType].length != 0, \"Entity type does not exist\") */\n      0x04\n      dup3\n      add\n        /* \"#utility.yul\":30144:30165   */\n      mstore\n        /* \"#utility.yul\":30201:30203   */\n      0x1a\n        /* \"#utility.yul\":30181:30199   */\n      0x24\n      dup3\n      add\n        /* \"#utility.yul\":30174:30204   */\n      mstore\n        /* \"#utility.yul\":30240:30268   */\n      0x456e74697479207479706520646f6573206e6f74206578697374000000000000\n        /* \"#utility.yul\":30220:30238   */\n      0x44\n      dup3\n      add\n        /* \"#utility.yul\":30213:30269   */\n      mstore\n        /* \"#utility.yul\":30286:30304   */\n      0x64\n      add\n        /* \"contracts/Main.sol\":9813:9890  require(entitiesByType[entityType].length != 0, \"Entity type does not exist\") */\n      tag_149\n        /* \"#utility.yul\":29960:30310   */\n      jump\n        /* \"contracts/Main.sol\":9813:9890  require(entitiesByType[entityType].length != 0, \"Entity type does not exist\") */\n    tag_679:\n        /* \"contracts/Main.sol\":9910:9924  entitiesByType */\n      0x05\n        /* \"contracts/Main.sol\":9910:9936  entitiesByType[entityType] */\n      0x00\n        /* \"contracts/Main.sol\":9925:9935  entityType */\n      dup4\n        /* \"contracts/Main.sol\":9910:9936  entitiesByType[entityType] */\n      0x06\n      dup2\n      gt\n      iszero\n      tag_683\n      jumpi\n      tag_683\n      tag_145\n      jump\t// in\n    tag_683:\n      0x06\n      dup2\n      gt\n      iszero\n      tag_685\n      jumpi\n      tag_685\n      tag_145\n      jump\t// in\n    tag_685:\n      dup2\n      mstore\n      0x20\n      add\n      swap1\n      dup2\n      mstore\n      0x20\n      add\n      0x00\n      keccak256\n        /* \"contracts/Main.sol\":9903:9936  return entitiesByType[entityType] */\n      dup1\n      sload\n      dup1\n      0x20\n      mul\n      0x20\n      add\n      mload(0x40)\n      swap1\n      dup2\n      add\n      0x40\n      mstore\n      dup1\n      swap3\n      swap2\n      swap1\n      dup2\n      dup2\n      mstore\n      0x20\n      add\n      0x00\n      swap1\n    tag_686:\n      dup3\n      dup3\n      lt\n      iszero\n      tag_687\n      jumpi\n      dup4\n      dup3\n      swap1\n      0x00\n      mstore\n      keccak256(0x00, 0x20)\n      add\n      dup1\n      sload\n      tag_689\n      swap1\n      tag_182\n      jump\t// in\n    tag_689:\n      dup1\n      0x1f\n      add\n      0x20\n      dup1\n      swap2\n      div\n      mul\n      0x20\n      add\n      mload(0x40)\n      swap1\n      dup2\n      add\n      0x40\n      mstore\n      dup1\n      swap3\n      swap2\n      swap1\n      dup2\n      dup2\n      mstore\n      0x20\n      add\n      dup3\n      dup1\n      sload\n      tag_690\n      swap1\n      tag_182\n      jump\t// in\n    tag_690:\n      dup1\n      iszero\n      tag_691\n      jumpi\n      dup1\n      0x1f\n      lt\n      tag_692\n      jumpi\n      0x0100\n      dup1\n      dup4\n      sload\n      div\n      mul\n      dup4\n      mstore\n      swap2\n      0x20\n      add\n      swap2\n      jump(tag_691)\n    tag_692:\n      dup3\n      add\n      swap2\n      swap1\n      0x00\n      mstore\n      keccak256(0x00, 0x20)\n      swap1\n    tag_693:\n      dup2\n      sload\n      dup2\n      mstore\n      swap1\n      0x01\n      add\n      swap1\n      0x20\n      add\n      dup1\n      dup4\n      gt\n      tag_693\n      jumpi\n      dup3\n      swap1\n      sub\n      0x1f\n      and\n      dup3\n      add\n      swap2\n    tag_691:\n      pop\n      pop\n      pop\n      pop\n      pop\n      dup2\n      mstore\n      0x20\n      add\n      swap1\n      0x01\n      add\n      swap1\n      jump(tag_686)\n    tag_687:\n      pop\n      pop\n      pop\n      pop\n      swap1\n      pop\n        /* \"contracts/Main.sol\":9642:9959  function getEntitiesByType(EntityType entityType) public view returns (string[] memory) {... */\n      swap2\n      swap1\n      pop\n      jump\t// out\n        /* \"contracts/Main.sol\":3546:3947  function roleToString(Role _role) internal pure returns (string memory) {... */\n    tag_231:\n        /* \"contracts/Main.sol\":3603:3616  string memory */\n      0x60\n        /* \"contracts/Main.sol\":3642:3651  Role.None */\n      0x00\n        /* \"contracts/Main.sol\":3633:3638  _role */\n      dup3\n        /* \"contracts/Main.sol\":3633:3651  _role == Role.None */\n      0x04\n      dup2\n      gt\n      iszero\n      tag_698\n      jumpi\n      tag_698\n      tag_145\n      jump\t// in\n    tag_698:\n      sub\n        /* \"contracts/Main.sol\":3629:3666  if (_role == Role.None) return \"None\" */\n      tag_699\n      jumpi\n      pop\n      pop\n        /* \"contracts/Main.sol\":3653:3666  return \"None\" */\n      0x40\n      dup1\n      mload\n      dup1\n      dup3\n      add\n      swap1\n      swap2\n      mstore\n      0x04\n      dup2\n      mstore\n      shl(0xe0, 0x4e6f6e65)\n      0x20\n      dup3\n      add\n      mstore\n      swap1\n        /* \"contracts/Main.sol\":3546:3947  function roleToString(Role _role) internal pure returns (string memory) {... */\n      jump\t// out\n        /* \"contracts/Main.sol\":3629:3666  if (_role == Role.None) return \"None\" */\n    tag_699:\n        /* \"contracts/Main.sol\":3690:3700  Role.Admin */\n      0x01\n        /* \"contracts/Main.sol\":3681:3686  _role */\n      dup3\n        /* \"contracts/Main.sol\":3681:3700  _role == Role.Admin */\n      0x04\n      dup2\n      gt\n      iszero\n      tag_703\n      jumpi\n      tag_703\n      tag_145\n      jump\t// in\n    tag_703:\n      sub\n        /* \"contracts/Main.sol\":3677:3716  if (_role == Role.Admin) return \"Admin\" */\n      tag_704\n      jumpi\n      pop\n      pop\n        /* \"contracts/Main.sol\":3702:3716  return \"Admin\" */\n      0x40\n      dup1\n      mload\n      dup1\n      dup3\n      add\n      swap1\n      swap2\n      mstore\n      0x05\n      dup2\n      mstore\n      shl(0xd9, 0x20b236b4b7)\n      0x20\n      dup3\n      add\n      mstore\n      swap1\n        /* \"contracts/Main.sol\":3546:3947  function roleToString(Role _role) internal pure returns (string memory) {... */\n      jump\t// out\n        /* \"contracts/Main.sol\":3677:3716  if (_role == Role.Admin) return \"Admin\" */\n    tag_704:\n        /* \"contracts/Main.sol\":3740:3753  Role.Supplier */\n      0x02\n        /* \"contracts/Main.sol\":3731:3736  _role */\n      dup3\n        /* \"contracts/Main.sol\":3731:3753  _role == Role.Supplier */\n      0x04\n      dup2\n      gt\n      iszero\n      tag_708\n      jumpi\n      tag_708\n      tag_145\n      jump\t// in\n    tag_708:\n      sub\n        /* \"contracts/Main.sol\":3727:3772  if (_role == Role.Supplier) return \"Supplier\" */\n      tag_709\n      jumpi\n      pop\n      pop\n        /* \"contracts/Main.sol\":3755:3772  return \"Supplier\" */\n      0x40\n      dup1\n      mload\n      dup1\n      dup3\n      add\n      swap1\n      swap2\n      mstore\n      0x08\n      dup2\n      mstore\n      shl(0xc1, 0x29bab8383634b2b9)\n      0x20\n      dup3\n      add\n      mstore\n      swap1\n        /* \"contracts/Main.sol\":3546:3947  function roleToString(Role _role) internal pure returns (string memory) {... */\n      jump\t// out\n        /* \"contracts/Main.sol\":3727:3772  if (_role == Role.Supplier) return \"Supplier\" */\n    tag_709:\n        /* \"contracts/Main.sol\":3796:3821  Role.DistributionEmployee */\n      0x03\n        /* \"contracts/Main.sol\":3787:3792  _role */\n      dup3\n        /* \"contracts/Main.sol\":3787:3821  _role == Role.DistributionEmployee */\n      0x04\n      dup2\n      gt\n      iszero\n      tag_713\n      jumpi\n      tag_713\n      tag_145\n      jump\t// in\n    tag_713:\n      sub\n        /* \"contracts/Main.sol\":3783:3852  if (_role == Role.DistributionEmployee) return \"DistributionEmployee\" */\n      tag_714\n      jumpi\n      pop\n      pop\n        /* \"contracts/Main.sol\":3823:3852  return \"DistributionEmployee\" */\n      0x40\n      dup1\n      mload\n      dup1\n      dup3\n      add\n      swap1\n      swap2\n      mstore\n      0x14\n      dup2\n      mstore\n      shl(0x60, 0x446973747269627574696f6e456d706c6f796565)\n      0x20\n      dup3\n      add\n      mstore\n      swap1\n        /* \"contracts/Main.sol\":3546:3947  function roleToString(Role _role) internal pure returns (string memory) {... */\n      jump\t// out\n        /* \"contracts/Main.sol\":3783:3852  if (_role == Role.DistributionEmployee) return \"DistributionEmployee\" */\n    tag_714:\n        /* \"contracts/Main.sol\":3876:3888  Role.Auditor */\n      0x04\n        /* \"contracts/Main.sol\":3867:3872  _role */\n      dup3\n        /* \"contracts/Main.sol\":3867:3888  _role == Role.Auditor */\n      0x04\n      dup2\n      gt\n      iszero\n      tag_718\n      jumpi\n      tag_718\n      tag_145\n      jump\t// in\n    tag_718:\n      sub\n        /* \"contracts/Main.sol\":3863:3906  if (_role == Role.Auditor) return \"Auditor\" */\n      tag_719\n      jumpi\n      pop\n      pop\n        /* \"contracts/Main.sol\":3890:3906  return \"Auditor\" */\n      0x40\n      dup1\n      mload\n      dup1\n      dup3\n      add\n      swap1\n      swap2\n      mstore\n      0x07\n      dup2\n      mstore\n      shl(0xc9, 0x20bab234ba37b9)\n      0x20\n      dup3\n      add\n      mstore\n      swap1\n        /* \"contracts/Main.sol\":3546:3947  function roleToString(Role _role) internal pure returns (string memory) {... */\n      jump\t// out\n        /* \"contracts/Main.sol\":3863:3906  if (_role == Role.Auditor) return \"Auditor\" */\n    tag_719:\n        /* \"contracts/Main.sol\":3917:3939  revert(\"Invalid Role\") */\n      mload(0x40)\n      shl(0xe5, 0x461bcd)\n      dup2\n      mstore\n        /* \"#utility.yul\":30517:30519   */\n      0x20\n        /* \"contracts/Main.sol\":3917:3939  revert(\"Invalid Role\") */\n      0x04\n      dup3\n      add\n        /* \"#utility.yul\":30499:30520   */\n      mstore\n        /* \"#utility.yul\":30556:30558   */\n      0x0c\n        /* \"#utility.yul\":30536:30554   */\n      0x24\n      dup3\n      add\n        /* \"#utility.yul\":30529:30559   */\n      mstore\n      shl(0xa0, 0x496e76616c696420526f6c65)\n        /* \"#utility.yul\":30575:30593   */\n      0x44\n      dup3\n      add\n        /* \"#utility.yul\":30568:30610   */\n      mstore\n        /* \"#utility.yul\":30627:30645   */\n      0x64\n      add\n        /* \"contracts/Main.sol\":3917:3939  revert(\"Invalid Role\") */\n      tag_149\n        /* \"#utility.yul\":30315:30651   */\n      jump\n    tag_257:\n      pop\n      dup1\n      sload\n      tag_724\n      swap1\n      tag_182\n      jump\t// in\n    tag_724:\n      0x00\n      dup3\n      sstore\n      dup1\n      0x1f\n      lt\n      tag_726\n      jumpi\n      pop\n      pop\n      jump\t// out\n    tag_726:\n      0x1f\n      add\n      0x20\n      swap1\n      div\n      swap1\n      0x00\n      mstore\n      keccak256(0x00, 0x20)\n      swap1\n      dup2\n      add\n      swap1\n      tag_727\n      swap2\n      swap1\n      tag_728\n      jump\t// in\n    tag_727:\n      pop\n      jump\t// out\n    tag_728:\n    tag_731:\n      dup1\n      dup3\n      gt\n      iszero\n      tag_732\n      jumpi\n      0x00\n      dup2\n      sstore\n      0x01\n      add\n      jump(tag_731)\n    tag_732:\n      pop\n      swap1\n      jump\t// out\n        /* \"#utility.yul\":14:187   */\n    tag_733:\n        /* \"#utility.yul\":82:102   */\n      dup1\n      calldataload\n      sub(shl(0xa0, 0x01), 0x01)\n        /* \"#utility.yul\":131:162   */\n      dup2\n      and\n        /* \"#utility.yul\":121:163   */\n      dup2\n      eq\n        /* \"#utility.yul\":111:181   */\n      tag_749\n      jumpi\n        /* \"#utility.yul\":177:178   */\n      0x00\n        /* \"#utility.yul\":174:175   */\n      dup1\n        /* \"#utility.yul\":167:179   */\n      revert\n        /* \"#utility.yul\":111:181   */\n    tag_749:\n        /* \"#utility.yul\":14:187   */\n      swap2\n      swap1\n      pop\n      jump\t// out\n        /* \"#utility.yul\":192:337   */\n    tag_734:\n        /* \"#utility.yul\":262:282   */\n      dup1\n      calldataload\n        /* \"#utility.yul\":311:312   */\n      0x05\n        /* \"#utility.yul\":301:313   */\n      dup2\n      lt\n        /* \"#utility.yul\":291:331   */\n      tag_749\n      jumpi\n        /* \"#utility.yul\":327:328   */\n      0x00\n        /* \"#utility.yul\":324:325   */\n      dup1\n        /* \"#utility.yul\":317:329   */\n      revert\n        /* \"#utility.yul\":342:611   */\n    tag_34:\n        /* \"#utility.yul\":417:423   */\n      0x00\n        /* \"#utility.yul\":425:431   */\n      dup1\n        /* \"#utility.yul\":478:480   */\n      0x40\n        /* \"#utility.yul\":466:475   */\n      dup4\n        /* \"#utility.yul\":457:464   */\n      dup6\n        /* \"#utility.yul\":453:476   */\n      sub\n        /* \"#utility.yul\":449:481   */\n      slt\n        /* \"#utility.yul\":446:498   */\n      iszero\n      tag_753\n      jumpi\n        /* \"#utility.yul\":494:495   */\n      0x00\n        /* \"#utility.yul\":491:492   */\n      dup1\n        /* \"#utility.yul\":484:496   */\n      revert\n        /* \"#utility.yul\":446:498   */\n    tag_753:\n        /* \"#utility.yul\":517:546   */\n      tag_754\n        /* \"#utility.yul\":536:545   */\n      dup4\n        /* \"#utility.yul\":517:546   */\n      tag_733\n      jump\t// in\n    tag_754:\n        /* \"#utility.yul\":507:546   */\n      swap2\n      pop\n        /* \"#utility.yul\":565:605   */\n      tag_755\n        /* \"#utility.yul\":601:603   */\n      0x20\n        /* \"#utility.yul\":590:599   */\n      dup5\n        /* \"#utility.yul\":586:604   */\n      add\n        /* \"#utility.yul\":565:605   */\n      tag_734\n      jump\t// in\n    tag_755:\n        /* \"#utility.yul\":555:605   */\n      swap1\n      pop\n        /* \"#utility.yul\":342:611   */\n      swap3\n      pop\n      swap3\n      swap1\n      pop\n      jump\t// out\n        /* \"#utility.yul\":616:743   */\n    tag_553:\n        /* \"#utility.yul\":677:687   */\n      0x4e487b71\n        /* \"#utility.yul\":672:675   */\n      0xe0\n        /* \"#utility.yul\":668:688   */\n      shl\n        /* \"#utility.yul\":665:666   */\n      0x00\n        /* \"#utility.yul\":658:689   */\n      mstore\n        /* \"#utility.yul\":708:712   */\n      0x41\n        /* \"#utility.yul\":705:706   */\n      0x04\n        /* \"#utility.yul\":698:713   */\n      mstore\n        /* \"#utility.yul\":732:736   */\n      0x24\n        /* \"#utility.yul\":729:730   */\n      0x00\n        /* \"#utility.yul\":722:737   */\n      revert\n        /* \"#utility.yul\":748:1467   */\n    tag_735:\n        /* \"#utility.yul\":791:796   */\n      0x00\n        /* \"#utility.yul\":844:847   */\n      dup3\n        /* \"#utility.yul\":837:841   */\n      0x1f\n        /* \"#utility.yul\":829:835   */\n      dup4\n        /* \"#utility.yul\":825:842   */\n      add\n        /* \"#utility.yul\":821:848   */\n      slt\n        /* \"#utility.yul\":811:866   */\n      tag_758\n      jumpi\n        /* \"#utility.yul\":862:863   */\n      0x00\n        /* \"#utility.yul\":859:860   */\n      dup1\n        /* \"#utility.yul\":852:864   */\n      revert\n        /* \"#utility.yul\":811:866   */\n    tag_758:\n        /* \"#utility.yul\":898:904   */\n      dup2\n        /* \"#utility.yul\":885:905   */\n      calldataload\n        /* \"#utility.yul\":924:942   */\n      0xffffffffffffffff\n        /* \"#utility.yul\":961:963   */\n      dup1\n        /* \"#utility.yul\":957:959   */\n      dup3\n        /* \"#utility.yul\":954:964   */\n      gt\n        /* \"#utility.yul\":951:987   */\n      iszero\n      tag_760\n      jumpi\n        /* \"#utility.yul\":967:985   */\n      tag_760\n      tag_553\n      jump\t// in\n    tag_760:\n        /* \"#utility.yul\":1042:1044   */\n      0x40\n        /* \"#utility.yul\":1036:1045   */\n      mload\n        /* \"#utility.yul\":1010:1012   */\n      0x1f\n        /* \"#utility.yul\":1096:1109   */\n      dup4\n      add\n      not(0x1f)\n        /* \"#utility.yul\":1092:1114   */\n      swap1\n      dup2\n      and\n        /* \"#utility.yul\":1116:1118   */\n      0x3f\n        /* \"#utility.yul\":1088:1119   */\n      add\n        /* \"#utility.yul\":1084:1124   */\n      and\n        /* \"#utility.yul\":1072:1125   */\n      dup2\n      add\n      swap1\n        /* \"#utility.yul\":1140:1158   */\n      dup3\n      dup3\n      gt\n        /* \"#utility.yul\":1160:1182   */\n      dup2\n      dup4\n      lt\n        /* \"#utility.yul\":1137:1183   */\n      or\n        /* \"#utility.yul\":1134:1206   */\n      iszero\n      tag_762\n      jumpi\n        /* \"#utility.yul\":1186:1204   */\n      tag_762\n      tag_553\n      jump\t// in\n    tag_762:\n        /* \"#utility.yul\":1226:1236   */\n      dup2\n        /* \"#utility.yul\":1222:1224   */\n      0x40\n        /* \"#utility.yul\":1215:1237   */\n      mstore\n        /* \"#utility.yul\":1261:1263   */\n      dup4\n        /* \"#utility.yul\":1253:1259   */\n      dup2\n        /* \"#utility.yul\":1246:1264   */\n      mstore\n        /* \"#utility.yul\":1307:1310   */\n      dup7\n        /* \"#utility.yul\":1300:1304   */\n      0x20\n        /* \"#utility.yul\":1295:1297   */\n      dup6\n        /* \"#utility.yul\":1287:1293   */\n      dup9\n        /* \"#utility.yul\":1283:1298   */\n      add\n        /* \"#utility.yul\":1279:1305   */\n      add\n        /* \"#utility.yul\":1276:1311   */\n      gt\n        /* \"#utility.yul\":1273:1328   */\n      iszero\n      tag_763\n      jumpi\n        /* \"#utility.yul\":1324:1325   */\n      0x00\n        /* \"#utility.yul\":1321:1322   */\n      dup1\n        /* \"#utility.yul\":1314:1326   */\n      revert\n        /* \"#utility.yul\":1273:1328   */\n    tag_763:\n        /* \"#utility.yul\":1388:1390   */\n      dup4\n        /* \"#utility.yul\":1381:1385   */\n      0x20\n        /* \"#utility.yul\":1373:1379   */\n      dup8\n        /* \"#utility.yul\":1369:1386   */\n      add\n        /* \"#utility.yul\":1362:1366   */\n      0x20\n        /* \"#utility.yul\":1354:1360   */\n      dup4\n        /* \"#utility.yul\":1350:1367   */\n      add\n        /* \"#utility.yul\":1337:1391   */\n      calldatacopy\n        /* \"#utility.yul\":1435:1436   */\n      0x00\n        /* \"#utility.yul\":1428:1432   */\n      0x20\n        /* \"#utility.yul\":1423:1425   */\n      dup6\n        /* \"#utility.yul\":1415:1421   */\n      dup4\n        /* \"#utility.yul\":1411:1426   */\n      add\n        /* \"#utility.yul\":1407:1433   */\n      add\n        /* \"#utility.yul\":1400:1437   */\n      mstore\n        /* \"#utility.yul\":1455:1461   */\n      dup1\n        /* \"#utility.yul\":1446:1461   */\n      swap5\n      pop\n      pop\n      pop\n      pop\n      pop\n        /* \"#utility.yul\":748:1467   */\n      swap3\n      swap2\n      pop\n      pop\n      jump\t// out\n        /* \"#utility.yul\":1472:1794   */\n    tag_38:\n        /* \"#utility.yul\":1541:1547   */\n      0x00\n        /* \"#utility.yul\":1594:1596   */\n      0x20\n        /* \"#utility.yul\":1582:1591   */\n      dup3\n        /* \"#utility.yul\":1573:1580   */\n      dup5\n        /* \"#utility.yul\":1569:1592   */\n      sub\n        /* \"#utility.yul\":1565:1597   */\n      slt\n        /* \"#utility.yul\":1562:1614   */\n      iszero\n      tag_765\n      jumpi\n        /* \"#utility.yul\":1610:1611   */\n      0x00\n        /* \"#utility.yul\":1607:1608   */\n      dup1\n        /* \"#utility.yul\":1600:1612   */\n      revert\n        /* \"#utility.yul\":1562:1614   */\n    tag_765:\n        /* \"#utility.yul\":1650:1659   */\n      dup2\n        /* \"#utility.yul\":1637:1660   */\n      calldataload\n        /* \"#utility.yul\":1683:1701   */\n      0xffffffffffffffff\n        /* \"#utility.yul\":1675:1681   */\n      dup2\n        /* \"#utility.yul\":1672:1702   */\n      gt\n        /* \"#utility.yul\":1669:1719   */\n      iszero\n      tag_766\n      jumpi\n        /* \"#utility.yul\":1715:1716   */\n      0x00\n        /* \"#utility.yul\":1712:1713   */\n      dup1\n        /* \"#utility.yul\":1705:1717   */\n      revert\n        /* \"#utility.yul\":1669:1719   */\n    tag_766:\n        /* \"#utility.yul\":1738:1788   */\n      tag_767\n        /* \"#utility.yul\":1780:1787   */\n      dup5\n        /* \"#utility.yul\":1771:1777   */\n      dup3\n        /* \"#utility.yul\":1760:1769   */\n      dup6\n        /* \"#utility.yul\":1756:1778   */\n      add\n        /* \"#utility.yul\":1738:1788   */\n      tag_735\n      jump\t// in\n    tag_767:\n        /* \"#utility.yul\":1728:1788   */\n      swap5\n        /* \"#utility.yul\":1472:1794   */\n      swap4\n      pop\n      pop\n      pop\n      pop\n      jump\t// out\n        /* \"#utility.yul\":1799:2049   */\n    tag_736:\n        /* \"#utility.yul\":1884:1885   */\n      0x00\n        /* \"#utility.yul\":1894:2007   */\n    tag_769:\n        /* \"#utility.yul\":1908:1914   */\n      dup4\n        /* \"#utility.yul\":1905:1906   */\n      dup2\n        /* \"#utility.yul\":1902:1915   */\n      lt\n        /* \"#utility.yul\":1894:2007   */\n      iszero\n      tag_771\n      jumpi\n        /* \"#utility.yul\":1984:1995   */\n      dup2\n      dup2\n      add\n        /* \"#utility.yul\":1978:1996   */\n      mload\n        /* \"#utility.yul\":1965:1976   */\n      dup4\n      dup3\n      add\n        /* \"#utility.yul\":1958:1997   */\n      mstore\n        /* \"#utility.yul\":1930:1932   */\n      0x20\n        /* \"#utility.yul\":1923:1933   */\n      add\n        /* \"#utility.yul\":1894:2007   */\n      jump(tag_769)\n    tag_771:\n      pop\n      pop\n        /* \"#utility.yul\":2041:2042   */\n      0x00\n        /* \"#utility.yul\":2023:2039   */\n      swap2\n      add\n        /* \"#utility.yul\":2016:2043   */\n      mstore\n        /* \"#utility.yul\":1799:2049   */\n      jump\t// out\n        /* \"#utility.yul\":2054:2325   */\n    tag_737:\n        /* \"#utility.yul\":2096:2099   */\n      0x00\n        /* \"#utility.yul\":2134:2139   */\n      dup2\n        /* \"#utility.yul\":2128:2140   */\n      mload\n        /* \"#utility.yul\":2161:2167   */\n      dup1\n        /* \"#utility.yul\":2156:2159   */\n      dup5\n        /* \"#utility.yul\":2149:2168   */\n      mstore\n        /* \"#utility.yul\":2177:2253   */\n      tag_773\n        /* \"#utility.yul\":2246:2252   */\n      dup2\n        /* \"#utility.yul\":2239:2243   */\n      0x20\n        /* \"#utility.yul\":2234:2237   */\n      dup7\n        /* \"#utility.yul\":2230:2244   */\n      add\n        /* \"#utility.yul\":2223:2227   */\n      0x20\n        /* \"#utility.yul\":2216:2221   */\n      dup7\n        /* \"#utility.yul\":2212:2228   */\n      add\n        /* \"#utility.yul\":2177:2253   */\n      tag_736\n      jump\t// in\n    tag_773:\n        /* \"#utility.yul\":2307:2309   */\n      0x1f\n        /* \"#utility.yul\":2286:2301   */\n      add\n      not(0x1f)\n        /* \"#utility.yul\":2282:2311   */\n      and\n        /* \"#utility.yul\":2273:2312   */\n      swap3\n      swap1\n      swap3\n      add\n        /* \"#utility.yul\":2314:2318   */\n      0x20\n        /* \"#utility.yul\":2269:2319   */\n      add\n      swap3\n        /* \"#utility.yul\":2054:2325   */\n      swap2\n      pop\n      pop\n      jump\t// out\n        /* \"#utility.yul\":2330:2457   */\n    tag_145:\n        /* \"#utility.yul\":2391:2401   */\n      0x4e487b71\n        /* \"#utility.yul\":2386:2389   */\n      0xe0\n        /* \"#utility.yul\":2382:2402   */\n      shl\n        /* \"#utility.yul\":2379:2380   */\n      0x00\n        /* \"#utility.yul\":2372:2403   */\n      mstore\n        /* \"#utility.yul\":2422:2426   */\n      0x21\n        /* \"#utility.yul\":2419:2420   */\n      0x04\n        /* \"#utility.yul\":2412:2427   */\n      mstore\n        /* \"#utility.yul\":2446:2450   */\n      0x24\n        /* \"#utility.yul\":2443:2444   */\n      0x00\n        /* \"#utility.yul\":2436:2451   */\n      revert\n        /* \"#utility.yul\":2462:2603   */\n    tag_738:\n        /* \"#utility.yul\":2544:2545   */\n      0x07\n        /* \"#utility.yul\":2537:2542   */\n      dup2\n        /* \"#utility.yul\":2534:2546   */\n      lt\n        /* \"#utility.yul\":2524:2570   */\n      tag_777\n      jumpi\n        /* \"#utility.yul\":2550:2568   */\n      tag_777\n      tag_145\n      jump\t// in\n    tag_777:\n        /* \"#utility.yul\":2579:2597   */\n      swap1\n      mstore\n        /* \"#utility.yul\":2462:2603   */\n      jump\t// out\n        /* \"#utility.yul\":2608:2948   */\n    tag_739:\n        /* \"#utility.yul\":2657:2660   */\n      0x00\n        /* \"#utility.yul\":2701:2706   */\n      dup2\n        /* \"#utility.yul\":2695:2707   */\n      mload\n        /* \"#utility.yul\":2728:2732   */\n      0x40\n        /* \"#utility.yul\":2723:2726   */\n      dup5\n        /* \"#utility.yul\":2716:2733   */\n      mstore\n        /* \"#utility.yul\":2754:2801   */\n      tag_779\n        /* \"#utility.yul\":2795:2799   */\n      0x40\n        /* \"#utility.yul\":2790:2793   */\n      dup6\n        /* \"#utility.yul\":2786:2800   */\n      add\n        /* \"#utility.yul\":2772:2784   */\n      dup3\n        /* \"#utility.yul\":2754:2801   */\n      tag_737\n      jump\t// in\n    tag_779:\n        /* \"#utility.yul\":2742:2801   */\n      swap1\n      pop\n        /* \"#utility.yul\":2849:2853   */\n      0x20\n        /* \"#utility.yul\":2842:2847   */\n      dup4\n        /* \"#utility.yul\":2838:2854   */\n      add\n        /* \"#utility.yul\":2832:2855   */\n      mload\n        /* \"#utility.yul\":2864:2922   */\n      tag_780\n        /* \"#utility.yul\":2916:2920   */\n      0x20\n        /* \"#utility.yul\":2911:2914   */\n      dup7\n        /* \"#utility.yul\":2907:2921   */\n      add\n        /* \"#utility.yul\":2891:2905   */\n      dup3\n        /* \"#utility.yul\":2864:2922   */\n      tag_738\n      jump\t// in\n    tag_780:\n      pop\n        /* \"#utility.yul\":2938:2942   */\n      swap4\n        /* \"#utility.yul\":2608:2948   */\n      swap3\n      pop\n      pop\n      pop\n      jump\t// out\n        /* \"#utility.yul\":2953:3204   */\n    tag_41:\n        /* \"#utility.yul\":3126:3128   */\n      0x20\n        /* \"#utility.yul\":3115:3124   */\n      dup2\n        /* \"#utility.yul\":3108:3129   */\n      mstore\n        /* \"#utility.yul\":3089:3093   */\n      0x00\n        /* \"#utility.yul\":3146:3198   */\n      tag_782\n        /* \"#utility.yul\":3194:3196   */\n      0x20\n        /* \"#utility.yul\":3183:3192   */\n      dup4\n        /* \"#utility.yul\":3179:3197   */\n      add\n        /* \"#utility.yul\":3171:3177   */\n      dup5\n        /* \"#utility.yul\":3146:3198   */\n      tag_739\n      jump\t// in\n    tag_782:\n        /* \"#utility.yul\":3138:3198   */\n      swap4\n        /* \"#utility.yul\":2953:3204   */\n      swap3\n      pop\n      pop\n      pop\n      jump\t// out\n        /* \"#utility.yul\":3209:3688   */\n    tag_44:\n        /* \"#utility.yul\":3303:3309   */\n      0x00\n        /* \"#utility.yul\":3311:3317   */\n      dup1\n        /* \"#utility.yul\":3319:3325   */\n      0x00\n        /* \"#utility.yul\":3372:3374   */\n      0x60\n        /* \"#utility.yul\":3360:3369   */\n      dup5\n        /* \"#utility.yul\":3351:3358   */\n      dup7\n        /* \"#utility.yul\":3347:3370   */\n      sub\n        /* \"#utility.yul\":3343:3375   */\n      slt\n        /* \"#utility.yul\":3340:3392   */\n      iszero\n      tag_784\n      jumpi\n        /* \"#utility.yul\":3388:3389   */\n      0x00\n        /* \"#utility.yul\":3385:3386   */\n      dup1\n        /* \"#utility.yul\":3378:3390   */\n      revert\n        /* \"#utility.yul\":3340:3392   */\n    tag_784:\n        /* \"#utility.yul\":3411:3440   */\n      tag_785\n        /* \"#utility.yul\":3430:3439   */\n      dup5\n        /* \"#utility.yul\":3411:3440   */\n      tag_733\n      jump\t// in\n    tag_785:\n        /* \"#utility.yul\":3401:3440   */\n      swap3\n      pop\n        /* \"#utility.yul\":3491:3493   */\n      0x20\n        /* \"#utility.yul\":3480:3489   */\n      dup5\n        /* \"#utility.yul\":3476:3494   */\n      add\n        /* \"#utility.yul\":3463:3495   */\n      calldataload\n        /* \"#utility.yul\":3518:3536   */\n      0xffffffffffffffff\n        /* \"#utility.yul\":3510:3516   */\n      dup2\n        /* \"#utility.yul\":3507:3537   */\n      gt\n        /* \"#utility.yul\":3504:3554   */\n      iszero\n      tag_786\n      jumpi\n        /* \"#utility.yul\":3550:3551   */\n      0x00\n        /* \"#utility.yul\":3547:3548   */\n      dup1\n        /* \"#utility.yul\":3540:3552   */\n      revert\n        /* \"#utility.yul\":3504:3554   */\n    tag_786:\n        /* \"#utility.yul\":3573:3623   */\n      tag_787\n        /* \"#utility.yul\":3615:3622   */\n      dup7\n        /* \"#utility.yul\":3606:3612   */\n      dup3\n        /* \"#utility.yul\":3595:3604   */\n      dup8\n        /* \"#utility.yul\":3591:3613   */\n      add\n        /* \"#utility.yul\":3573:3623   */\n      tag_735\n      jump\t// in\n    tag_787:\n        /* \"#utility.yul\":3563:3623   */\n      swap3\n      pop\n      pop\n        /* \"#utility.yul\":3642:3682   */\n      tag_788\n        /* \"#utility.yul\":3678:3680   */\n      0x40\n        /* \"#utility.yul\":3667:3676   */\n      dup6\n        /* \"#utility.yul\":3663:3681   */\n      add\n        /* \"#utility.yul\":3642:3682   */\n      tag_734\n      jump\t// in\n    tag_788:\n        /* \"#utility.yul\":3632:3682   */\n      swap1\n      pop\n        /* \"#utility.yul\":3209:3688   */\n      swap3\n      pop\n      swap3\n      pop\n      swap3\n      jump\t// out\n        /* \"#utility.yul\":3693:3873   */\n    tag_48:\n        /* \"#utility.yul\":3752:3758   */\n      0x00\n        /* \"#utility.yul\":3805:3807   */\n      0x20\n        /* \"#utility.yul\":3793:3802   */\n      dup3\n        /* \"#utility.yul\":3784:3791   */\n      dup5\n        /* \"#utility.yul\":3780:3803   */\n      sub\n        /* \"#utility.yul\":3776:3808   */\n      slt\n        /* \"#utility.yul\":3773:3825   */\n      iszero\n      tag_790\n      jumpi\n        /* \"#utility.yul\":3821:3822   */\n      0x00\n        /* \"#utility.yul\":3818:3819   */\n      dup1\n        /* \"#utility.yul\":3811:3823   */\n      revert\n        /* \"#utility.yul\":3773:3825   */\n    tag_790:\n      pop\n        /* \"#utility.yul\":3844:3867   */\n      calldataload\n      swap2\n        /* \"#utility.yul\":3693:3873   */\n      swap1\n      pop\n      jump\t// out\n        /* \"#utility.yul\":4086:4272   */\n    tag_54:\n        /* \"#utility.yul\":4145:4151   */\n      0x00\n        /* \"#utility.yul\":4198:4200   */\n      0x20\n        /* \"#utility.yul\":4186:4195   */\n      dup3\n        /* \"#utility.yul\":4177:4184   */\n      dup5\n        /* \"#utility.yul\":4173:4196   */\n      sub\n        /* \"#utility.yul\":4169:4201   */\n      slt\n        /* \"#utility.yul\":4166:4218   */\n      iszero\n      tag_793\n      jumpi\n        /* \"#utility.yul\":4214:4215   */\n      0x00\n        /* \"#utility.yul\":4211:4212   */\n      dup1\n        /* \"#utility.yul\":4204:4216   */\n      revert\n        /* \"#utility.yul\":4166:4218   */\n    tag_793:\n        /* \"#utility.yul\":4237:4266   */\n      tag_782\n        /* \"#utility.yul\":4256:4265   */\n      dup3\n        /* \"#utility.yul\":4237:4266   */\n      tag_733\n      jump\t// in\n        /* \"#utility.yul\":4277:4923   */\n    tag_60:\n        /* \"#utility.yul\":4452:4454   */\n      0x20\n        /* \"#utility.yul\":4441:4450   */\n      dup2\n        /* \"#utility.yul\":4434:4455   */\n      mstore\n        /* \"#utility.yul\":4497:4503   */\n      dup2\n        /* \"#utility.yul\":4491:4504   */\n      mload\n        /* \"#utility.yul\":4486:4488   */\n      0x20\n        /* \"#utility.yul\":4475:4484   */\n      dup3\n        /* \"#utility.yul\":4471:4489   */\n      add\n        /* \"#utility.yul\":4464:4505   */\n      mstore\n        /* \"#utility.yul\":4415:4419   */\n      0x00\n        /* \"#utility.yul\":4552:4554   */\n      0x20\n        /* \"#utility.yul\":4544:4550   */\n      dup4\n        /* \"#utility.yul\":4540:4555   */\n      add\n        /* \"#utility.yul\":4534:4556   */\n      mload\n        /* \"#utility.yul\":4592:4596   */\n      0x80\n        /* \"#utility.yul\":4587:4589   */\n      0x40\n        /* \"#utility.yul\":4576:4585   */\n      dup5\n        /* \"#utility.yul\":4572:4590   */\n      add\n        /* \"#utility.yul\":4565:4597   */\n      mstore\n        /* \"#utility.yul\":4620:4672   */\n      tag_796\n        /* \"#utility.yul\":4667:4670   */\n      0xa0\n        /* \"#utility.yul\":4656:4665   */\n      dup5\n        /* \"#utility.yul\":4652:4671   */\n      add\n        /* \"#utility.yul\":4638:4650   */\n      dup3\n        /* \"#utility.yul\":4620:4672   */\n      tag_737\n      jump\t// in\n    tag_796:\n        /* \"#utility.yul\":4606:4672   */\n      swap1\n      pop\n        /* \"#utility.yul\":4726:4728   */\n      0x40\n        /* \"#utility.yul\":4718:4724   */\n      dup5\n        /* \"#utility.yul\":4714:4729   */\n      add\n        /* \"#utility.yul\":4708:4730   */\n      mload\n        /* \"#utility.yul\":4703:4705   */\n      0x60\n        /* \"#utility.yul\":4692:4701   */\n      dup5\n        /* \"#utility.yul\":4688:4706   */\n      add\n        /* \"#utility.yul\":4681:4731   */\n      mstore\n        /* \"#utility.yul\":4780:4782   */\n      0x60\n        /* \"#utility.yul\":4772:4778   */\n      dup5\n        /* \"#utility.yul\":4768:4783   */\n      add\n        /* \"#utility.yul\":4762:4784   */\n      mload\n        /* \"#utility.yul\":4854:4856   */\n      0x1f\n        /* \"#utility.yul\":4850:4857   */\n      not\n        /* \"#utility.yul\":4838:4847   */\n      dup5\n        /* \"#utility.yul\":4830:4836   */\n      dup4\n        /* \"#utility.yul\":4826:4848   */\n      sub\n        /* \"#utility.yul\":4822:4858   */\n      add\n        /* \"#utility.yul\":4815:4819   */\n      0x80\n        /* \"#utility.yul\":4804:4813   */\n      dup6\n        /* \"#utility.yul\":4800:4820   */\n      add\n        /* \"#utility.yul\":4793:4859   */\n      mstore\n        /* \"#utility.yul\":4876:4917   */\n      tag_797\n        /* \"#utility.yul\":4910:4916   */\n      dup3\n        /* \"#utility.yul\":4894:4908   */\n      dup3\n        /* \"#utility.yul\":4876:4917   */\n      tag_737\n      jump\t// in\n    tag_797:\n        /* \"#utility.yul\":4868:4917   */\n      swap6\n        /* \"#utility.yul\":4277:4923   */\n      swap5\n      pop\n      pop\n      pop\n      pop\n      pop\n      jump\t// out\n        /* \"#utility.yul\":4928:5063   */\n    tag_740:\n        /* \"#utility.yul\":5004:5005   */\n      0x05\n        /* \"#utility.yul\":4997:5002   */\n      dup2\n        /* \"#utility.yul\":4994:5006   */\n      lt\n        /* \"#utility.yul\":4984:5030   */\n      tag_777\n      jumpi\n        /* \"#utility.yul\":5010:5028   */\n      tag_777\n      tag_145\n      jump\t// in\n        /* \"#utility.yul\":5068:5400   */\n    tag_741:\n        /* \"#utility.yul\":5115:5118   */\n      0x00\n        /* \"#utility.yul\":5159:5164   */\n      dup2\n        /* \"#utility.yul\":5153:5165   */\n      mload\n        /* \"#utility.yul\":5186:5190   */\n      0x40\n        /* \"#utility.yul\":5181:5184   */\n      dup5\n        /* \"#utility.yul\":5174:5191   */\n      mstore\n        /* \"#utility.yul\":5212:5259   */\n      tag_802\n        /* \"#utility.yul\":5253:5257   */\n      0x40\n        /* \"#utility.yul\":5248:5251   */\n      dup6\n        /* \"#utility.yul\":5244:5258   */\n      add\n        /* \"#utility.yul\":5230:5242   */\n      dup3\n        /* \"#utility.yul\":5212:5259   */\n      tag_737\n      jump\t// in\n    tag_802:\n        /* \"#utility.yul\":5200:5259   */\n      swap1\n      pop\n        /* \"#utility.yul\":5307:5311   */\n      0x20\n        /* \"#utility.yul\":5300:5305   */\n      dup4\n        /* \"#utility.yul\":5296:5312   */\n      add\n        /* \"#utility.yul\":5290:5313   */\n      mload\n        /* \"#utility.yul\":5322:5374   */\n      tag_780\n        /* \"#utility.yul\":5368:5372   */\n      0x20\n        /* \"#utility.yul\":5363:5366   */\n      dup7\n        /* \"#utility.yul\":5359:5373   */\n      add\n        /* \"#utility.yul\":5343:5357   */\n      dup3\n        /* \"#utility.yul\":5322:5374   */\n      tag_740\n      jump\t// in\n        /* \"#utility.yul\":5405:5650   */\n    tag_65:\n        /* \"#utility.yul\":5574:5576   */\n      0x20\n        /* \"#utility.yul\":5563:5572   */\n      dup2\n        /* \"#utility.yul\":5556:5577   */\n      mstore\n        /* \"#utility.yul\":5537:5541   */\n      0x00\n        /* \"#utility.yul\":5594:5644   */\n      tag_782\n        /* \"#utility.yul\":5640:5642   */\n      0x20\n        /* \"#utility.yul\":5629:5638   */\n      dup4\n        /* \"#utility.yul\":5625:5643   */\n      add\n        /* \"#utility.yul\":5617:5623   */\n      dup5\n        /* \"#utility.yul\":5594:5644   */\n      tag_741\n      jump\t// in\n        /* \"#utility.yul\":5655:5977   */\n    tag_73:\n        /* \"#utility.yul\":5843:5845   */\n      0x40\n        /* \"#utility.yul\":5832:5841   */\n      dup2\n        /* \"#utility.yul\":5825:5846   */\n      mstore\n        /* \"#utility.yul\":5806:5810   */\n      0x00\n        /* \"#utility.yul\":5863:5908   */\n      tag_807\n        /* \"#utility.yul\":5904:5906   */\n      0x40\n        /* \"#utility.yul\":5893:5902   */\n      dup4\n        /* \"#utility.yul\":5889:5907   */\n      add\n        /* \"#utility.yul\":5881:5887   */\n      dup6\n        /* \"#utility.yul\":5863:5908   */\n      tag_737\n      jump\t// in\n    tag_807:\n        /* \"#utility.yul\":5855:5908   */\n      swap1\n      pop\n        /* \"#utility.yul\":5917:5971   */\n      tag_782\n        /* \"#utility.yul\":5967:5969   */\n      0x20\n        /* \"#utility.yul\":5956:5965   */\n      dup4\n        /* \"#utility.yul\":5952:5970   */\n      add\n        /* \"#utility.yul\":5944:5950   */\n      dup5\n        /* \"#utility.yul\":5917:5971   */\n      tag_738\n      jump\t// in\n        /* \"#utility.yul\":5982:6202   */\n    tag_80:\n        /* \"#utility.yul\":6131:6133   */\n      0x20\n        /* \"#utility.yul\":6120:6129   */\n      dup2\n        /* \"#utility.yul\":6113:6134   */\n      mstore\n        /* \"#utility.yul\":6094:6098   */\n      0x00\n        /* \"#utility.yul\":6151:6196   */\n      tag_782\n        /* \"#utility.yul\":6192:6194   */\n      0x20\n        /* \"#utility.yul\":6181:6190   */\n      dup4\n        /* \"#utility.yul\":6177:6195   */\n      add\n        /* \"#utility.yul\":6169:6175   */\n      dup5\n        /* \"#utility.yul\":6151:6196   */\n      tag_737\n      jump\t// in\n        /* \"#utility.yul\":6207:6734   */\n    tag_85:\n        /* \"#utility.yul\":6460:6466   */\n      dup5\n        /* \"#utility.yul\":6449:6458   */\n      dup2\n        /* \"#utility.yul\":6442:6467   */\n      mstore\n        /* \"#utility.yul\":6503:6506   */\n      0x80\n        /* \"#utility.yul\":6498:6500   */\n      0x20\n        /* \"#utility.yul\":6487:6496   */\n      dup3\n        /* \"#utility.yul\":6483:6501   */\n      add\n        /* \"#utility.yul\":6476:6507   */\n      mstore\n        /* \"#utility.yul\":6423:6427   */\n      0x00\n        /* \"#utility.yul\":6530:6576   */\n      tag_812\n        /* \"#utility.yul\":6571:6574   */\n      0x80\n        /* \"#utility.yul\":6560:6569   */\n      dup4\n        /* \"#utility.yul\":6556:6575   */\n      add\n        /* \"#utility.yul\":6548:6554   */\n      dup7\n        /* \"#utility.yul\":6530:6576   */\n      tag_737\n      jump\t// in\n    tag_812:\n        /* \"#utility.yul\":6612:6618   */\n      dup5\n        /* \"#utility.yul\":6607:6609   */\n      0x40\n        /* \"#utility.yul\":6596:6605   */\n      dup5\n        /* \"#utility.yul\":6592:6610   */\n      add\n        /* \"#utility.yul\":6585:6619   */\n      mstore\n        /* \"#utility.yul\":6667:6676   */\n      dup3\n        /* \"#utility.yul\":6659:6665   */\n      dup2\n        /* \"#utility.yul\":6655:6677   */\n      sub\n        /* \"#utility.yul\":6650:6652   */\n      0x60\n        /* \"#utility.yul\":6639:6648   */\n      dup5\n        /* \"#utility.yul\":6635:6653   */\n      add\n        /* \"#utility.yul\":6628:6678   */\n      mstore\n        /* \"#utility.yul\":6695:6728   */\n      tag_813\n        /* \"#utility.yul\":6721:6727   */\n      dup2\n        /* \"#utility.yul\":6713:6719   */\n      dup6\n        /* \"#utility.yul\":6695:6728   */\n      tag_737\n      jump\t// in\n    tag_813:\n        /* \"#utility.yul\":6687:6728   */\n      swap8\n        /* \"#utility.yul\":6207:6734   */\n      swap7\n      pop\n      pop\n      pop\n      pop\n      pop\n      pop\n      pop\n      jump\t// out\n        /* \"#utility.yul\":6739:7350   */\n    tag_91:\n        /* \"#utility.yul\":6836:6842   */\n      0x00\n        /* \"#utility.yul\":6844:6850   */\n      dup1\n        /* \"#utility.yul\":6852:6858   */\n      0x00\n        /* \"#utility.yul\":6905:6907   */\n      0x60\n        /* \"#utility.yul\":6893:6902   */\n      dup5\n        /* \"#utility.yul\":6884:6891   */\n      dup7\n        /* \"#utility.yul\":6880:6903   */\n      sub\n        /* \"#utility.yul\":6876:6908   */\n      slt\n        /* \"#utility.yul\":6873:6925   */\n      iszero\n      tag_815\n      jumpi\n        /* \"#utility.yul\":6921:6922   */\n      0x00\n        /* \"#utility.yul\":6918:6919   */\n      dup1\n        /* \"#utility.yul\":6911:6923   */\n      revert\n        /* \"#utility.yul\":6873:6925   */\n    tag_815:\n        /* \"#utility.yul\":6961:6970   */\n      dup4\n        /* \"#utility.yul\":6948:6971   */\n      calldataload\n        /* \"#utility.yul\":6990:7008   */\n      0xffffffffffffffff\n        /* \"#utility.yul\":7031:7033   */\n      dup1\n        /* \"#utility.yul\":7023:7029   */\n      dup3\n        /* \"#utility.yul\":7020:7034   */\n      gt\n        /* \"#utility.yul\":7017:7051   */\n      iszero\n      tag_816\n      jumpi\n        /* \"#utility.yul\":7047:7048   */\n      0x00\n        /* \"#utility.yul\":7044:7045   */\n      dup1\n        /* \"#utility.yul\":7037:7049   */\n      revert\n        /* \"#utility.yul\":7017:7051   */\n    tag_816:\n        /* \"#utility.yul\":7070:7120   */\n      tag_817\n        /* \"#utility.yul\":7112:7119   */\n      dup8\n        /* \"#utility.yul\":7103:7109   */\n      dup4\n        /* \"#utility.yul\":7092:7101   */\n      dup9\n        /* \"#utility.yul\":7088:7110   */\n      add\n        /* \"#utility.yul\":7070:7120   */\n      tag_735\n      jump\t// in\n    tag_817:\n        /* \"#utility.yul\":7060:7120   */\n      swap5\n      pop\n        /* \"#utility.yul\":7167:7169   */\n      0x20\n        /* \"#utility.yul\":7156:7165   */\n      dup7\n        /* \"#utility.yul\":7152:7170   */\n      add\n        /* \"#utility.yul\":7139:7171   */\n      calldataload\n        /* \"#utility.yul\":7129:7171   */\n      swap4\n      pop\n        /* \"#utility.yul\":7224:7226   */\n      0x40\n        /* \"#utility.yul\":7213:7222   */\n      dup7\n        /* \"#utility.yul\":7209:7227   */\n      add\n        /* \"#utility.yul\":7196:7228   */\n      calldataload\n        /* \"#utility.yul\":7180:7228   */\n      swap2\n      pop\n        /* \"#utility.yul\":7253:7255   */\n      dup1\n        /* \"#utility.yul\":7243:7251   */\n      dup3\n        /* \"#utility.yul\":7240:7256   */\n      gt\n        /* \"#utility.yul\":7237:7273   */\n      iszero\n      tag_818\n      jumpi\n        /* \"#utility.yul\":7269:7270   */\n      0x00\n        /* \"#utility.yul\":7266:7267   */\n      dup1\n        /* \"#utility.yul\":7259:7271   */\n      revert\n        /* \"#utility.yul\":7237:7273   */\n    tag_818:\n      pop\n        /* \"#utility.yul\":7292:7344   */\n      tag_819\n        /* \"#utility.yul\":7336:7343   */\n      dup7\n        /* \"#utility.yul\":7325:7333   */\n      dup3\n        /* \"#utility.yul\":7314:7323   */\n      dup8\n        /* \"#utility.yul\":7310:7334   */\n      add\n        /* \"#utility.yul\":7292:7344   */\n      tag_735\n      jump\t// in\n    tag_819:\n        /* \"#utility.yul\":7282:7344   */\n      swap2\n      pop\n      pop\n        /* \"#utility.yul\":6739:7350   */\n      swap3\n      pop\n      swap3\n      pop\n      swap3\n      jump\t// out\n        /* \"#utility.yul\":7537:7847   */\n    tag_105:\n        /* \"#utility.yul\":7719:7721   */\n      0x40\n        /* \"#utility.yul\":7708:7717   */\n      dup2\n        /* \"#utility.yul\":7701:7722   */\n      mstore\n        /* \"#utility.yul\":7682:7686   */\n      0x00\n        /* \"#utility.yul\":7739:7784   */\n      tag_822\n        /* \"#utility.yul\":7780:7782   */\n      0x40\n        /* \"#utility.yul\":7769:7778   */\n      dup4\n        /* \"#utility.yul\":7765:7783   */\n      add\n        /* \"#utility.yul\":7757:7763   */\n      dup6\n        /* \"#utility.yul\":7739:7784   */\n      tag_737\n      jump\t// in\n    tag_822:\n        /* \"#utility.yul\":7731:7784   */\n      swap1\n      pop\n        /* \"#utility.yul\":7793:7841   */\n      tag_782\n        /* \"#utility.yul\":7837:7839   */\n      0x20\n        /* \"#utility.yul\":7826:7835   */\n      dup4\n        /* \"#utility.yul\":7822:7840   */\n      add\n        /* \"#utility.yul\":7814:7820   */\n      dup5\n        /* \"#utility.yul\":7793:7841   */\n      tag_740\n      jump\t// in\n        /* \"#utility.yul\":7852:8664   */\n    tag_108:\n        /* \"#utility.yul\":7968:7974   */\n      0x00\n        /* \"#utility.yul\":7976:7982   */\n      dup1\n        /* \"#utility.yul\":7984:7990   */\n      0x00\n        /* \"#utility.yul\":7992:7998   */\n      dup1\n        /* \"#utility.yul\":8045:8048   */\n      0x80\n        /* \"#utility.yul\":8033:8042   */\n      dup6\n        /* \"#utility.yul\":8024:8031   */\n      dup8\n        /* \"#utility.yul\":8020:8043   */\n      sub\n        /* \"#utility.yul\":8016:8049   */\n      slt\n        /* \"#utility.yul\":8013:8066   */\n      iszero\n      tag_825\n      jumpi\n        /* \"#utility.yul\":8062:8063   */\n      0x00\n        /* \"#utility.yul\":8059:8060   */\n      dup1\n        /* \"#utility.yul\":8052:8064   */\n      revert\n        /* \"#utility.yul\":8013:8066   */\n    tag_825:\n        /* \"#utility.yul\":8102:8111   */\n      dup5\n        /* \"#utility.yul\":8089:8112   */\n      calldataload\n        /* \"#utility.yul\":8131:8149   */\n      0xffffffffffffffff\n        /* \"#utility.yul\":8172:8174   */\n      dup1\n        /* \"#utility.yul\":8164:8170   */\n      dup3\n        /* \"#utility.yul\":8161:8175   */\n      gt\n        /* \"#utility.yul\":8158:8192   */\n      iszero\n      tag_826\n      jumpi\n        /* \"#utility.yul\":8188:8189   */\n      0x00\n        /* \"#utility.yul\":8185:8186   */\n      dup1\n        /* \"#utility.yul\":8178:8190   */\n      revert\n        /* \"#utility.yul\":8158:8192   */\n    tag_826:\n        /* \"#utility.yul\":8211:8261   */\n      tag_827\n        /* \"#utility.yul\":8253:8260   */\n      dup9\n        /* \"#utility.yul\":8244:8250   */\n      dup4\n        /* \"#utility.yul\":8233:8242   */\n      dup10\n        /* \"#utility.yul\":8229:8251   */\n      add\n        /* \"#utility.yul\":8211:8261   */\n      tag_735\n      jump\t// in\n    tag_827:\n        /* \"#utility.yul\":8201:8261   */\n      swap6\n      pop\n        /* \"#utility.yul\":8314:8316   */\n      0x20\n        /* \"#utility.yul\":8303:8312   */\n      dup8\n        /* \"#utility.yul\":8299:8317   */\n      add\n        /* \"#utility.yul\":8286:8318   */\n      calldataload\n        /* \"#utility.yul\":8270:8318   */\n      swap2\n      pop\n        /* \"#utility.yul\":8343:8345   */\n      dup1\n        /* \"#utility.yul\":8333:8341   */\n      dup3\n        /* \"#utility.yul\":8330:8346   */\n      gt\n        /* \"#utility.yul\":8327:8363   */\n      iszero\n      tag_828\n      jumpi\n        /* \"#utility.yul\":8359:8360   */\n      0x00\n        /* \"#utility.yul\":8356:8357   */\n      dup1\n        /* \"#utility.yul\":8349:8361   */\n      revert\n        /* \"#utility.yul\":8327:8363   */\n    tag_828:\n        /* \"#utility.yul\":8382:8434   */\n      tag_829\n        /* \"#utility.yul\":8426:8433   */\n      dup9\n        /* \"#utility.yul\":8415:8423   */\n      dup4\n        /* \"#utility.yul\":8404:8413   */\n      dup10\n        /* \"#utility.yul\":8400:8424   */\n      add\n        /* \"#utility.yul\":8382:8434   */\n      tag_735\n      jump\t// in\n    tag_829:\n        /* \"#utility.yul\":8372:8434   */\n      swap5\n      pop\n        /* \"#utility.yul\":8481:8483   */\n      0x40\n        /* \"#utility.yul\":8470:8479   */\n      dup8\n        /* \"#utility.yul\":8466:8484   */\n      add\n        /* \"#utility.yul\":8453:8485   */\n      calldataload\n        /* \"#utility.yul\":8443:8485   */\n      swap4\n      pop\n        /* \"#utility.yul\":8538:8540   */\n      0x60\n        /* \"#utility.yul\":8527:8536   */\n      dup8\n        /* \"#utility.yul\":8523:8541   */\n      add\n        /* \"#utility.yul\":8510:8542   */\n      calldataload\n        /* \"#utility.yul\":8494:8542   */\n      swap2\n      pop\n        /* \"#utility.yul\":8567:8569   */\n      dup1\n        /* \"#utility.yul\":8557:8565   */\n      dup3\n        /* \"#utility.yul\":8554:8570   */\n      gt\n        /* \"#utility.yul\":8551:8587   */\n      iszero\n      tag_830\n      jumpi\n        /* \"#utility.yul\":8583:8584   */\n      0x00\n        /* \"#utility.yul\":8580:8581   */\n      dup1\n        /* \"#utility.yul\":8573:8585   */\n      revert\n        /* \"#utility.yul\":8551:8587   */\n    tag_830:\n      pop\n        /* \"#utility.yul\":8606:8658   */\n      tag_831\n        /* \"#utility.yul\":8650:8657   */\n      dup8\n        /* \"#utility.yul\":8639:8647   */\n      dup3\n        /* \"#utility.yul\":8628:8637   */\n      dup9\n        /* \"#utility.yul\":8624:8648   */\n      add\n        /* \"#utility.yul\":8606:8658   */\n      tag_735\n      jump\t// in\n    tag_831:\n        /* \"#utility.yul\":8596:8658   */\n      swap2\n      pop\n      pop\n        /* \"#utility.yul\":7852:8664   */\n      swap3\n      swap6\n      swap2\n      swap5\n      pop\n      swap3\n      pop\n      jump\t// out\n        /* \"#utility.yul\":8669:8820   */\n    tag_742:\n        /* \"#utility.yul\":8745:8765   */\n      dup1\n      calldataload\n        /* \"#utility.yul\":8794:8795   */\n      0x07\n        /* \"#utility.yul\":8784:8796   */\n      dup2\n      lt\n        /* \"#utility.yul\":8774:8814   */\n      tag_749\n      jumpi\n        /* \"#utility.yul\":8810:8811   */\n      0x00\n        /* \"#utility.yul\":8807:8808   */\n      dup1\n        /* \"#utility.yul\":8800:8812   */\n      revert\n        /* \"#utility.yul\":8825:9242   */\n    tag_112:\n        /* \"#utility.yul\":8916:8922   */\n      0x00\n        /* \"#utility.yul\":8924:8930   */\n      dup1\n        /* \"#utility.yul\":8977:8979   */\n      0x40\n        /* \"#utility.yul\":8965:8974   */\n      dup4\n        /* \"#utility.yul\":8956:8963   */\n      dup6\n        /* \"#utility.yul\":8952:8975   */\n      sub\n        /* \"#utility.yul\":8948:8980   */\n      slt\n        /* \"#utility.yul\":8945:8997   */\n      iszero\n      tag_835\n      jumpi\n        /* \"#utility.yul\":8993:8994   */\n      0x00\n        /* \"#utility.yul\":8990:8991   */\n      dup1\n        /* \"#utility.yul\":8983:8995   */\n      revert\n        /* \"#utility.yul\":8945:8997   */\n    tag_835:\n        /* \"#utility.yul\":9033:9042   */\n      dup3\n        /* \"#utility.yul\":9020:9043   */\n      calldataload\n        /* \"#utility.yul\":9066:9084   */\n      0xffffffffffffffff\n        /* \"#utility.yul\":9058:9064   */\n      dup2\n        /* \"#utility.yul\":9055:9085   */\n      gt\n        /* \"#utility.yul\":9052:9102   */\n      iszero\n      tag_836\n      jumpi\n        /* \"#utility.yul\":9098:9099   */\n      0x00\n        /* \"#utility.yul\":9095:9096   */\n      dup1\n        /* \"#utility.yul\":9088:9100   */\n      revert\n        /* \"#utility.yul\":9052:9102   */\n    tag_836:\n        /* \"#utility.yul\":9121:9171   */\n      tag_837\n        /* \"#utility.yul\":9163:9170   */\n      dup6\n        /* \"#utility.yul\":9154:9160   */\n      dup3\n        /* \"#utility.yul\":9143:9152   */\n      dup7\n        /* \"#utility.yul\":9139:9161   */\n      add\n        /* \"#utility.yul\":9121:9171   */\n      tag_735\n      jump\t// in\n    tag_837:\n        /* \"#utility.yul\":9111:9171   */\n      swap3\n      pop\n      pop\n        /* \"#utility.yul\":9190:9236   */\n      tag_755\n        /* \"#utility.yul\":9232:9234   */\n      0x20\n        /* \"#utility.yul\":9221:9230   */\n      dup5\n        /* \"#utility.yul\":9217:9235   */\n      add\n        /* \"#utility.yul\":9190:9236   */\n      tag_742\n      jump\t// in\n        /* \"#utility.yul\":9247:9495   */\n    tag_116:\n        /* \"#utility.yul\":9315:9321   */\n      0x00\n        /* \"#utility.yul\":9323:9329   */\n      dup1\n        /* \"#utility.yul\":9376:9378   */\n      0x40\n        /* \"#utility.yul\":9364:9373   */\n      dup4\n        /* \"#utility.yul\":9355:9362   */\n      dup6\n        /* \"#utility.yul\":9351:9374   */\n      sub\n        /* \"#utility.yul\":9347:9379   */\n      slt\n        /* \"#utility.yul\":9344:9396   */\n      iszero\n      tag_840\n      jumpi\n        /* \"#utility.yul\":9392:9393   */\n      0x00\n        /* \"#utility.yul\":9389:9390   */\n      dup1\n        /* \"#utility.yul\":9382:9394   */\n      revert\n        /* \"#utility.yul\":9344:9396   */\n    tag_840:\n      pop\n      pop\n        /* \"#utility.yul\":9415:9438   */\n      dup1\n      calldataload\n      swap3\n        /* \"#utility.yul\":9485:9487   */\n      0x20\n        /* \"#utility.yul\":9470:9488   */\n      swap1\n      swap2\n      add\n        /* \"#utility.yul\":9457:9489   */\n      calldataload\n      swap2\n      pop\n        /* \"#utility.yul\":9247:9495   */\n      jump\t// out\n        /* \"#utility.yul\":9500:10222   */\n    tag_119:\n        /* \"#utility.yul\":9825:9828   */\n      0xa0\n        /* \"#utility.yul\":9814:9823   */\n      dup2\n        /* \"#utility.yul\":9807:9829   */\n      mstore\n        /* \"#utility.yul\":9788:9792   */\n      0x00\n        /* \"#utility.yul\":9852:9898   */\n      tag_842\n        /* \"#utility.yul\":9893:9896   */\n      0xa0\n        /* \"#utility.yul\":9882:9891   */\n      dup4\n        /* \"#utility.yul\":9878:9897   */\n      add\n        /* \"#utility.yul\":9870:9876   */\n      dup9\n        /* \"#utility.yul\":9852:9898   */\n      tag_737\n      jump\t// in\n    tag_842:\n        /* \"#utility.yul\":9946:9955   */\n      dup3\n        /* \"#utility.yul\":9938:9944   */\n      dup2\n        /* \"#utility.yul\":9934:9956   */\n      sub\n        /* \"#utility.yul\":9929:9931   */\n      0x20\n        /* \"#utility.yul\":9918:9927   */\n      dup5\n        /* \"#utility.yul\":9914:9932   */\n      add\n        /* \"#utility.yul\":9907:9957   */\n      mstore\n        /* \"#utility.yul\":9980:10013   */\n      tag_843\n        /* \"#utility.yul\":10006:10012   */\n      dup2\n        /* \"#utility.yul\":9998:10004   */\n      dup9\n        /* \"#utility.yul\":9980:10013   */\n      tag_737\n      jump\t// in\n    tag_843:\n        /* \"#utility.yul\":9966:10013   */\n      swap1\n      pop\n        /* \"#utility.yul\":10049:10055   */\n      dup6\n        /* \"#utility.yul\":10044:10046   */\n      0x40\n        /* \"#utility.yul\":10033:10042   */\n      dup5\n        /* \"#utility.yul\":10029:10047   */\n      add\n        /* \"#utility.yul\":10022:10056   */\n      mstore\n        /* \"#utility.yul\":10092:10098   */\n      dup5\n        /* \"#utility.yul\":10087:10089   */\n      0x60\n        /* \"#utility.yul\":10076:10085   */\n      dup5\n        /* \"#utility.yul\":10072:10090   */\n      add\n        /* \"#utility.yul\":10065:10099   */\n      mstore\n        /* \"#utility.yul\":10148:10157   */\n      dup3\n        /* \"#utility.yul\":10140:10146   */\n      dup2\n        /* \"#utility.yul\":10136:10158   */\n      sub\n        /* \"#utility.yul\":10130:10133   */\n      0x80\n        /* \"#utility.yul\":10119:10128   */\n      dup5\n        /* \"#utility.yul\":10115:10134   */\n      add\n        /* \"#utility.yul\":10108:10159   */\n      mstore\n        /* \"#utility.yul\":10176:10216   */\n      tag_844\n        /* \"#utility.yul\":10209:10215   */\n      dup2\n        /* \"#utility.yul\":10201:10207   */\n      dup6\n        /* \"#utility.yul\":10176:10216   */\n      tag_739\n      jump\t// in\n    tag_844:\n        /* \"#utility.yul\":10168:10216   */\n      swap9\n        /* \"#utility.yul\":9500:10222   */\n      swap8\n      pop\n      pop\n      pop\n      pop\n      pop\n      pop\n      pop\n      pop\n      jump\t// out\n        /* \"#utility.yul\":10227:11055   */\n    tag_126:\n        /* \"#utility.yul\":10409:10413   */\n      0x00\n        /* \"#utility.yul\":10438:10440   */\n      0x20\n        /* \"#utility.yul\":10478:10480   */\n      dup1\n        /* \"#utility.yul\":10467:10476   */\n      dup4\n        /* \"#utility.yul\":10463:10481   */\n      add\n        /* \"#utility.yul\":10508:10510   */\n      dup2\n        /* \"#utility.yul\":10497:10506   */\n      dup5\n        /* \"#utility.yul\":10490:10511   */\n      mstore\n        /* \"#utility.yul\":10531:10537   */\n      dup1\n        /* \"#utility.yul\":10566:10572   */\n      dup6\n        /* \"#utility.yul\":10560:10573   */\n      mload\n        /* \"#utility.yul\":10597:10603   */\n      dup1\n        /* \"#utility.yul\":10589:10595   */\n      dup4\n        /* \"#utility.yul\":10582:10604   */\n      mstore\n        /* \"#utility.yul\":10635:10637   */\n      0x40\n        /* \"#utility.yul\":10624:10633   */\n      dup7\n        /* \"#utility.yul\":10620:10638   */\n      add\n        /* \"#utility.yul\":10613:10638   */\n      swap2\n      pop\n        /* \"#utility.yul\":10697:10699   */\n      0x40\n        /* \"#utility.yul\":10687:10693   */\n      dup2\n        /* \"#utility.yul\":10684:10685   */\n      0x05\n        /* \"#utility.yul\":10680:10694   */\n      shl\n        /* \"#utility.yul\":10669:10678   */\n      dup8\n        /* \"#utility.yul\":10665:10695   */\n      add\n        /* \"#utility.yul\":10661:10700   */\n      add\n        /* \"#utility.yul\":10647:10700   */\n      swap3\n      pop\n        /* \"#utility.yul\":10735:10737   */\n      dup4\n        /* \"#utility.yul\":10727:10733   */\n      dup8\n        /* \"#utility.yul\":10723:10738   */\n      add\n        /* \"#utility.yul\":10756:10757   */\n      0x00\n        /* \"#utility.yul\":10766:11026   */\n    tag_846:\n        /* \"#utility.yul\":10780:10786   */\n      dup3\n        /* \"#utility.yul\":10777:10778   */\n      dup2\n        /* \"#utility.yul\":10774:10787   */\n      lt\n        /* \"#utility.yul\":10766:11026   */\n      iszero\n      tag_848\n      jumpi\n        /* \"#utility.yul\":10873:10875   */\n      0x3f\n        /* \"#utility.yul\":10869:10876   */\n      not\n        /* \"#utility.yul\":10857:10866   */\n      dup9\n        /* \"#utility.yul\":10849:10855   */\n      dup7\n        /* \"#utility.yul\":10845:10867   */\n      sub\n        /* \"#utility.yul\":10841:10877   */\n      add\n        /* \"#utility.yul\":10836:10839   */\n      dup5\n        /* \"#utility.yul\":10829:10878   */\n      mstore\n        /* \"#utility.yul\":10901:10946   */\n      tag_849\n        /* \"#utility.yul\":10939:10945   */\n      dup6\n        /* \"#utility.yul\":10930:10936   */\n      dup4\n        /* \"#utility.yul\":10924:10937   */\n      mload\n        /* \"#utility.yul\":10901:10946   */\n      tag_741\n      jump\t// in\n    tag_849:\n        /* \"#utility.yul\":10891:10946   */\n      swap5\n      pop\n        /* \"#utility.yul\":11004:11016   */\n      swap3\n      dup6\n      add\n      swap3\n        /* \"#utility.yul\":10969:10984   */\n      swap1\n      dup6\n      add\n      swap1\n        /* \"#utility.yul\":10802:10803   */\n      0x01\n        /* \"#utility.yul\":10795:10804   */\n      add\n        /* \"#utility.yul\":10766:11026   */\n      jump(tag_846)\n    tag_848:\n      pop\n        /* \"#utility.yul\":11043:11049   */\n      swap3\n      swap8\n        /* \"#utility.yul\":10227:11055   */\n      swap7\n      pop\n      pop\n      pop\n      pop\n      pop\n      pop\n      pop\n      jump\t// out\n        /* \"#utility.yul\":11060:12735   */\n    tag_131:\n        /* \"#utility.yul\":11318:11322   */\n      0x00\n        /* \"#utility.yul\":11347:11349   */\n      0x40\n        /* \"#utility.yul\":11387:11389   */\n      dup1\n        /* \"#utility.yul\":11376:11385   */\n      dup4\n        /* \"#utility.yul\":11372:11390   */\n      add\n        /* \"#utility.yul\":11417:11419   */\n      dup2\n        /* \"#utility.yul\":11406:11415   */\n      dup5\n        /* \"#utility.yul\":11399:11420   */\n      mstore\n        /* \"#utility.yul\":11440:11446   */\n      dup1\n        /* \"#utility.yul\":11475:11481   */\n      dup7\n        /* \"#utility.yul\":11469:11482   */\n      mload\n        /* \"#utility.yul\":11506:11512   */\n      dup1\n        /* \"#utility.yul\":11498:11504   */\n      dup4\n        /* \"#utility.yul\":11491:11513   */\n      mstore\n        /* \"#utility.yul\":11532:11534   */\n      0x60\n        /* \"#utility.yul\":11522:11534   */\n      swap3\n      pop\n        /* \"#utility.yul\":11565:11567   */\n      dup3\n        /* \"#utility.yul\":11554:11563   */\n      dup7\n        /* \"#utility.yul\":11550:11568   */\n      add\n        /* \"#utility.yul\":11543:11568   */\n      swap2\n      pop\n        /* \"#utility.yul\":11627:11629   */\n      dup3\n        /* \"#utility.yul\":11617:11623   */\n      dup2\n        /* \"#utility.yul\":11614:11615   */\n      0x05\n        /* \"#utility.yul\":11610:11624   */\n      shl\n        /* \"#utility.yul\":11599:11608   */\n      dup8\n        /* \"#utility.yul\":11595:11625   */\n      add\n        /* \"#utility.yul\":11591:11630   */\n      add\n        /* \"#utility.yul\":11649:11653   */\n      0x20\n        /* \"#utility.yul\":11688:11690   */\n      dup1\n        /* \"#utility.yul\":11680:11686   */\n      dup11\n        /* \"#utility.yul\":11676:11691   */\n      add\n        /* \"#utility.yul\":11709:11710   */\n      0x00\n        /* \"#utility.yul\":11719:12620   */\n    tag_851:\n        /* \"#utility.yul\":11733:11739   */\n      dup5\n        /* \"#utility.yul\":11730:11731   */\n      dup2\n        /* \"#utility.yul\":11727:11740   */\n      lt\n        /* \"#utility.yul\":11719:12620   */\n      iszero\n      tag_853\n      jumpi\n        /* \"#utility.yul\":11826:11828   */\n      0x5f\n        /* \"#utility.yul\":11822:11829   */\n      not\n        /* \"#utility.yul\":11810:11819   */\n      dup11\n        /* \"#utility.yul\":11802:11808   */\n      dup6\n        /* \"#utility.yul\":11798:11820   */\n      sub\n        /* \"#utility.yul\":11794:11830   */\n      add\n        /* \"#utility.yul\":11789:11792   */\n      dup7\n        /* \"#utility.yul\":11782:11831   */\n      mstore\n        /* \"#utility.yul\":11860:11866   */\n      dup2\n        /* \"#utility.yul\":11854:11867   */\n      mload\n        /* \"#utility.yul\":11890:11894   */\n      0xa0\n        /* \"#utility.yul\":11933:11935   */\n      dup2\n        /* \"#utility.yul\":11927:11936   */\n      mload\n        /* \"#utility.yul\":11964:11966   */\n      dup2\n        /* \"#utility.yul\":11956:11962   */\n      dup8\n        /* \"#utility.yul\":11949:11967   */\n      mstore\n        /* \"#utility.yul\":11994:12042   */\n      tag_854\n        /* \"#utility.yul\":12038:12040   */\n      dup3\n        /* \"#utility.yul\":12030:12036   */\n      dup9\n        /* \"#utility.yul\":12026:12041   */\n      add\n        /* \"#utility.yul\":12012:12024   */\n      dup3\n        /* \"#utility.yul\":11994:12042   */\n      tag_737\n      jump\t// in\n    tag_854:\n        /* \"#utility.yul\":11980:12042   */\n      swap2\n      pop\n      pop\n        /* \"#utility.yul\":12091:12093   */\n      dup5\n        /* \"#utility.yul\":12087:12089   */\n      dup3\n        /* \"#utility.yul\":12083:12094   */\n      add\n        /* \"#utility.yul\":12077:12095   */\n      mload\n        /* \"#utility.yul\":12144:12150   */\n      dup7\n        /* \"#utility.yul\":12136:12142   */\n      dup3\n        /* \"#utility.yul\":12132:12151   */\n      sub\n        /* \"#utility.yul\":12127:12129   */\n      dup7\n        /* \"#utility.yul\":12119:12125   */\n      dup9\n        /* \"#utility.yul\":12115:12130   */\n      add\n        /* \"#utility.yul\":12108:12152   */\n      mstore\n        /* \"#utility.yul\":12179:12220   */\n      tag_855\n        /* \"#utility.yul\":12213:12219   */\n      dup3\n        /* \"#utility.yul\":12197:12211   */\n      dup3\n        /* \"#utility.yul\":12179:12220   */\n      tag_737\n      jump\t// in\n    tag_855:\n        /* \"#utility.yul\":12165:12220   */\n      swap2\n      pop\n      pop\n        /* \"#utility.yul\":12271:12273   */\n      dup10\n        /* \"#utility.yul\":12267:12269   */\n      dup3\n        /* \"#utility.yul\":12263:12274   */\n      add\n        /* \"#utility.yul\":12257:12275   */\n      mload\n        /* \"#utility.yul\":12252:12254   */\n      dup11\n        /* \"#utility.yul\":12244:12250   */\n      dup8\n        /* \"#utility.yul\":12240:12255   */\n      add\n        /* \"#utility.yul\":12233:12276   */\n      mstore\n        /* \"#utility.yul\":12327:12329   */\n      dup9\n        /* \"#utility.yul\":12323:12325   */\n      dup3\n        /* \"#utility.yul\":12319:12330   */\n      add\n        /* \"#utility.yul\":12313:12331   */\n      mload\n        /* \"#utility.yul\":12308:12310   */\n      dup10\n        /* \"#utility.yul\":12300:12306   */\n      dup8\n        /* \"#utility.yul\":12296:12311   */\n      add\n        /* \"#utility.yul\":12289:12332   */\n      mstore\n        /* \"#utility.yul\":12355:12359   */\n      0x80\n        /* \"#utility.yul\":12408:12410   */\n      dup1\n        /* \"#utility.yul\":12404:12406   */\n      dup4\n        /* \"#utility.yul\":12400:12411   */\n      add\n        /* \"#utility.yul\":12394:12412   */\n      mload\n        /* \"#utility.yul\":12372:12412   */\n      swap3\n      pop\n        /* \"#utility.yul\":12461:12467   */\n      dup7\n        /* \"#utility.yul\":12453:12459   */\n      dup3\n        /* \"#utility.yul\":12449:12468   */\n      sub\n        /* \"#utility.yul\":12444:12446   */\n      dup2\n        /* \"#utility.yul\":12436:12442   */\n      dup9\n        /* \"#utility.yul\":12432:12447   */\n      add\n        /* \"#utility.yul\":12425:12469   */\n      mstore\n      pop\n        /* \"#utility.yul\":12492:12540   */\n      tag_856\n        /* \"#utility.yul\":12533:12539   */\n      dup2\n        /* \"#utility.yul\":12517:12531   */\n      dup4\n        /* \"#utility.yul\":12492:12540   */\n      tag_739\n      jump\t// in\n    tag_856:\n        /* \"#utility.yul\":12598:12610   */\n      swap8\n      dup6\n      add\n      swap8\n        /* \"#utility.yul\":12482:12540   */\n      swap6\n      pop\n      pop\n      pop\n        /* \"#utility.yul\":12563:12578   */\n      swap1\n      dup3\n      add\n      swap1\n        /* \"#utility.yul\":11755:11756   */\n      0x01\n        /* \"#utility.yul\":11748:11757   */\n      add\n        /* \"#utility.yul\":11719:12620   */\n      jump(tag_851)\n    tag_853:\n      pop\n      pop\n        /* \"#utility.yul\":12656:12678   */\n      dup8\n      dup3\n      sub\n        /* \"#utility.yul\":12636:12654   */\n      swap1\n      dup9\n      add\n        /* \"#utility.yul\":12629:12679   */\n      mstore\n        /* \"#utility.yul\":12696:12729   */\n      tag_857\n        /* \"#utility.yul\":12660:12666   */\n      dup2\n        /* \"#utility.yul\":12714:12720   */\n      dup10\n        /* \"#utility.yul\":12696:12729   */\n      tag_737\n      jump\t// in\n    tag_857:\n        /* \"#utility.yul\":12688:12729   */\n      swap10\n        /* \"#utility.yul\":11060:12735   */\n      swap9\n      pop\n      pop\n      pop\n      pop\n      pop\n      pop\n      pop\n      pop\n      pop\n      jump\t// out\n        /* \"#utility.yul\":12740:13918   */\n    tag_134:\n        /* \"#utility.yul\":12906:12912   */\n      0x00\n        /* \"#utility.yul\":12914:12920   */\n      dup1\n        /* \"#utility.yul\":12922:12928   */\n      0x00\n        /* \"#utility.yul\":12930:12936   */\n      dup1\n        /* \"#utility.yul\":12938:12944   */\n      0x00\n        /* \"#utility.yul\":12946:12952   */\n      dup1\n        /* \"#utility.yul\":12954:12960   */\n      0x00\n        /* \"#utility.yul\":13007:13010   */\n      0xe0\n        /* \"#utility.yul\":12995:13004   */\n      dup9\n        /* \"#utility.yul\":12986:12993   */\n      dup11\n        /* \"#utility.yul\":12982:13005   */\n      sub\n        /* \"#utility.yul\":12978:13011   */\n      slt\n        /* \"#utility.yul\":12975:13028   */\n      iszero\n      tag_859\n      jumpi\n        /* \"#utility.yul\":13024:13025   */\n      0x00\n        /* \"#utility.yul\":13021:13022   */\n      dup1\n        /* \"#utility.yul\":13014:13026   */\n      revert\n        /* \"#utility.yul\":12975:13028   */\n    tag_859:\n        /* \"#utility.yul\":13064:13073   */\n      dup8\n        /* \"#utility.yul\":13051:13074   */\n      calldataload\n        /* \"#utility.yul\":13093:13111   */\n      0xffffffffffffffff\n        /* \"#utility.yul\":13134:13136   */\n      dup1\n        /* \"#utility.yul\":13126:13132   */\n      dup3\n        /* \"#utility.yul\":13123:13137   */\n      gt\n        /* \"#utility.yul\":13120:13154   */\n      iszero\n      tag_860\n      jumpi\n        /* \"#utility.yul\":13150:13151   */\n      0x00\n        /* \"#utility.yul\":13147:13148   */\n      dup1\n        /* \"#utility.yul\":13140:13152   */\n      revert\n        /* \"#utility.yul\":13120:13154   */\n    tag_860:\n        /* \"#utility.yul\":13173:13223   */\n      tag_861\n        /* \"#utility.yul\":13215:13222   */\n      dup12\n        /* \"#utility.yul\":13206:13212   */\n      dup4\n        /* \"#utility.yul\":13195:13204   */\n      dup13\n        /* \"#utility.yul\":13191:13213   */\n      add\n        /* \"#utility.yul\":13173:13223   */\n      tag_735\n      jump\t// in\n    tag_861:\n        /* \"#utility.yul\":13163:13223   */\n      swap9\n      pop\n        /* \"#utility.yul\":13276:13278   */\n      0x20\n        /* \"#utility.yul\":13265:13274   */\n      dup11\n        /* \"#utility.yul\":13261:13279   */\n      add\n        /* \"#utility.yul\":13248:13280   */\n      calldataload\n        /* \"#utility.yul\":13232:13280   */\n      swap2\n      pop\n        /* \"#utility.yul\":13305:13307   */\n      dup1\n        /* \"#utility.yul\":13295:13303   */\n      dup3\n        /* \"#utility.yul\":13292:13308   */\n      gt\n        /* \"#utility.yul\":13289:13325   */\n      iszero\n      tag_862\n      jumpi\n        /* \"#utility.yul\":13321:13322   */\n      0x00\n        /* \"#utility.yul\":13318:13319   */\n      dup1\n        /* \"#utility.yul\":13311:13323   */\n      revert\n        /* \"#utility.yul\":13289:13325   */\n    tag_862:\n        /* \"#utility.yul\":13344:13396   */\n      tag_863\n        /* \"#utility.yul\":13388:13395   */\n      dup12\n        /* \"#utility.yul\":13377:13385   */\n      dup4\n        /* \"#utility.yul\":13366:13375   */\n      dup13\n        /* \"#utility.yul\":13362:13386   */\n      add\n        /* \"#utility.yul\":13344:13396   */\n      tag_735\n      jump\t// in\n    tag_863:\n        /* \"#utility.yul\":13334:13396   */\n      swap8\n      pop\n        /* \"#utility.yul\":13449:13451   */\n      0x40\n        /* \"#utility.yul\":13438:13447   */\n      dup11\n        /* \"#utility.yul\":13434:13452   */\n      add\n        /* \"#utility.yul\":13421:13453   */\n      calldataload\n        /* \"#utility.yul\":13405:13453   */\n      swap2\n      pop\n        /* \"#utility.yul\":13478:13480   */\n      dup1\n        /* \"#utility.yul\":13468:13476   */\n      dup3\n        /* \"#utility.yul\":13465:13481   */\n      gt\n        /* \"#utility.yul\":13462:13498   */\n      iszero\n      tag_864\n      jumpi\n        /* \"#utility.yul\":13494:13495   */\n      0x00\n        /* \"#utility.yul\":13491:13492   */\n      dup1\n        /* \"#utility.yul\":13484:13496   */\n      revert\n        /* \"#utility.yul\":13462:13498   */\n    tag_864:\n        /* \"#utility.yul\":13517:13569   */\n      tag_865\n        /* \"#utility.yul\":13561:13568   */\n      dup12\n        /* \"#utility.yul\":13550:13558   */\n      dup4\n        /* \"#utility.yul\":13539:13548   */\n      dup13\n        /* \"#utility.yul\":13535:13559   */\n      add\n        /* \"#utility.yul\":13517:13569   */\n      tag_735\n      jump\t// in\n    tag_865:\n        /* \"#utility.yul\":13507:13569   */\n      swap7\n      pop\n        /* \"#utility.yul\":13616:13618   */\n      0x60\n        /* \"#utility.yul\":13605:13614   */\n      dup11\n        /* \"#utility.yul\":13601:13619   */\n      add\n        /* \"#utility.yul\":13588:13620   */\n      calldataload\n        /* \"#utility.yul\":13578:13620   */\n      swap6\n      pop\n        /* \"#utility.yul\":13667:13670   */\n      0x80\n        /* \"#utility.yul\":13656:13665   */\n      dup11\n        /* \"#utility.yul\":13652:13671   */\n      add\n        /* \"#utility.yul\":13639:13672   */\n      calldataload\n        /* \"#utility.yul\":13629:13672   */\n      swap5\n      pop\n        /* \"#utility.yul\":13725:13728   */\n      0xa0\n        /* \"#utility.yul\":13714:13723   */\n      dup11\n        /* \"#utility.yul\":13710:13729   */\n      add\n        /* \"#utility.yul\":13697:13730   */\n      calldataload\n        /* \"#utility.yul\":13681:13730   */\n      swap2\n      pop\n        /* \"#utility.yul\":13755:13757   */\n      dup1\n        /* \"#utility.yul\":13745:13753   */\n      dup3\n        /* \"#utility.yul\":13742:13758   */\n      gt\n        /* \"#utility.yul\":13739:13775   */\n      iszero\n      tag_866\n      jumpi\n        /* \"#utility.yul\":13771:13772   */\n      0x00\n        /* \"#utility.yul\":13768:13769   */\n      dup1\n        /* \"#utility.yul\":13761:13773   */\n      revert\n        /* \"#utility.yul\":13739:13775   */\n    tag_866:\n      pop\n        /* \"#utility.yul\":13794:13846   */\n      tag_867\n        /* \"#utility.yul\":13838:13845   */\n      dup11\n        /* \"#utility.yul\":13827:13835   */\n      dup3\n        /* \"#utility.yul\":13816:13825   */\n      dup12\n        /* \"#utility.yul\":13812:13836   */\n      add\n        /* \"#utility.yul\":13794:13846   */\n      tag_735\n      jump\t// in\n    tag_867:\n        /* \"#utility.yul\":13784:13846   */\n      swap3\n      pop\n      pop\n        /* \"#utility.yul\":13865:13912   */\n      tag_868\n        /* \"#utility.yul\":13907:13910   */\n      0xc0\n        /* \"#utility.yul\":13896:13905   */\n      dup10\n        /* \"#utility.yul\":13892:13911   */\n      add\n        /* \"#utility.yul\":13865:13912   */\n      tag_742\n      jump\t// in\n    tag_868:\n        /* \"#utility.yul\":13855:13912   */\n      swap1\n      pop\n        /* \"#utility.yul\":12740:13918   */\n      swap3\n      swap6\n      swap9\n      swap2\n      swap5\n      swap8\n      pop\n      swap3\n      swap6\n      pop\n      jump\t// out\n        /* \"#utility.yul\":13923:14130   */\n    tag_138:\n        /* \"#utility.yul\":13995:14001   */\n      0x00\n        /* \"#utility.yul\":14048:14050   */\n      0x20\n        /* \"#utility.yul\":14036:14045   */\n      dup3\n        /* \"#utility.yul\":14027:14034   */\n      dup5\n        /* \"#utility.yul\":14023:14046   */\n      sub\n        /* \"#utility.yul\":14019:14051   */\n      slt\n        /* \"#utility.yul\":14016:14068   */\n      iszero\n      tag_870\n      jumpi\n        /* \"#utility.yul\":14064:14065   */\n      0x00\n        /* \"#utility.yul\":14061:14062   */\n      dup1\n        /* \"#utility.yul\":14054:14066   */\n      revert\n        /* \"#utility.yul\":14016:14068   */\n    tag_870:\n        /* \"#utility.yul\":14087:14124   */\n      tag_782\n        /* \"#utility.yul\":14114:14123   */\n      dup3\n        /* \"#utility.yul\":14087:14124   */\n      tag_742\n      jump\t// in\n        /* \"#utility.yul\":14135:14938   */\n    tag_141:\n        /* \"#utility.yul\":14297:14301   */\n      0x00\n        /* \"#utility.yul\":14326:14328   */\n      0x20\n        /* \"#utility.yul\":14366:14368   */\n      dup1\n        /* \"#utility.yul\":14355:14364   */\n      dup4\n        /* \"#utility.yul\":14351:14369   */\n      add\n        /* \"#utility.yul\":14396:14398   */\n      dup2\n        /* \"#utility.yul\":14385:14394   */\n      dup5\n        /* \"#utility.yul\":14378:14399   */\n      mstore\n        /* \"#utility.yul\":14419:14425   */\n      dup1\n        /* \"#utility.yul\":14454:14460   */\n      dup6\n        /* \"#utility.yul\":14448:14461   */\n      mload\n        /* \"#utility.yul\":14485:14491   */\n      dup1\n        /* \"#utility.yul\":14477:14483   */\n      dup4\n        /* \"#utility.yul\":14470:14492   */\n      mstore\n        /* \"#utility.yul\":14523:14525   */\n      0x40\n        /* \"#utility.yul\":14512:14521   */\n      dup7\n        /* \"#utility.yul\":14508:14526   */\n      add\n        /* \"#utility.yul\":14501:14526   */\n      swap2\n      pop\n        /* \"#utility.yul\":14585:14587   */\n      0x40\n        /* \"#utility.yul\":14575:14581   */\n      dup2\n        /* \"#utility.yul\":14572:14573   */\n      0x05\n        /* \"#utility.yul\":14568:14582   */\n      shl\n        /* \"#utility.yul\":14557:14566   */\n      dup8\n        /* \"#utility.yul\":14553:14583   */\n      add\n        /* \"#utility.yul\":14549:14588   */\n      add\n        /* \"#utility.yul\":14535:14588   */\n      swap3\n      pop\n        /* \"#utility.yul\":14623:14625   */\n      dup4\n        /* \"#utility.yul\":14615:14621   */\n      dup8\n        /* \"#utility.yul\":14611:14626   */\n      add\n        /* \"#utility.yul\":14644:14645   */\n      0x00\n        /* \"#utility.yul\":14654:14909   */\n    tag_873:\n        /* \"#utility.yul\":14668:14674   */\n      dup3\n        /* \"#utility.yul\":14665:14666   */\n      dup2\n        /* \"#utility.yul\":14662:14675   */\n      lt\n        /* \"#utility.yul\":14654:14909   */\n      iszero\n      tag_848\n      jumpi\n        /* \"#utility.yul\":14761:14763   */\n      0x3f\n        /* \"#utility.yul\":14757:14764   */\n      not\n        /* \"#utility.yul\":14745:14754   */\n      dup9\n        /* \"#utility.yul\":14737:14743   */\n      dup7\n        /* \"#utility.yul\":14733:14755   */\n      sub\n        /* \"#utility.yul\":14729:14765   */\n      add\n        /* \"#utility.yul\":14724:14727   */\n      dup5\n        /* \"#utility.yul\":14717:14766   */\n      mstore\n        /* \"#utility.yul\":14789:14829   */\n      tag_876\n        /* \"#utility.yul\":14822:14828   */\n      dup6\n        /* \"#utility.yul\":14813:14819   */\n      dup4\n        /* \"#utility.yul\":14807:14820   */\n      mload\n        /* \"#utility.yul\":14789:14829   */\n      tag_737\n      jump\t// in\n    tag_876:\n        /* \"#utility.yul\":14779:14829   */\n      swap5\n      pop\n        /* \"#utility.yul\":14887:14899   */\n      swap3\n      dup6\n      add\n      swap3\n        /* \"#utility.yul\":14852:14867   */\n      swap1\n      dup6\n      add\n      swap1\n        /* \"#utility.yul\":14690:14691   */\n      0x01\n        /* \"#utility.yul\":14683:14692   */\n      add\n        /* \"#utility.yul\":14654:14909   */\n      jump(tag_873)\n        /* \"#utility.yul\":14943:15296   */\n    tag_150:\n        /* \"#utility.yul\":15145:15147   */\n      0x20\n        /* \"#utility.yul\":15127:15148   */\n      dup1\n      dup3\n      mstore\n        /* \"#utility.yul\":15184:15186   */\n      0x1d\n        /* \"#utility.yul\":15164:15182   */\n      swap1\n      dup3\n      add\n        /* \"#utility.yul\":15157:15187   */\n      mstore\n        /* \"#utility.yul\":15223:15254   */\n      0x4163636573732064656e6965643a20696e636f727265637420726f6c65000000\n        /* \"#utility.yul\":15218:15220   */\n      0x40\n        /* \"#utility.yul\":15203:15221   */\n      dup3\n      add\n        /* \"#utility.yul\":15196:15255   */\n      mstore\n        /* \"#utility.yul\":15287:15289   */\n      0x60\n        /* \"#utility.yul\":15272:15290   */\n      add\n      swap1\n        /* \"#utility.yul\":14943:15296   */\n      jump\t// out\n        /* \"#utility.yul\":16341:16630   */\n    tag_180:\n        /* \"#utility.yul\":16472:16475   */\n      0x00\n        /* \"#utility.yul\":16510:16516   */\n      dup3\n        /* \"#utility.yul\":16504:16517   */\n      mload\n        /* \"#utility.yul\":16526:16592   */\n      tag_882\n        /* \"#utility.yul\":16585:16591   */\n      dup2\n        /* \"#utility.yul\":16580:16583   */\n      dup5\n        /* \"#utility.yul\":16573:16577   */\n      0x20\n        /* \"#utility.yul\":16565:16571   */\n      dup8\n        /* \"#utility.yul\":16561:16578   */\n      add\n        /* \"#utility.yul\":16526:16592   */\n      tag_736\n      jump\t// in\n    tag_882:\n        /* \"#utility.yul\":16608:16624   */\n      swap2\n      swap1\n      swap2\n      add\n      swap3\n        /* \"#utility.yul\":16341:16630   */\n      swap2\n      pop\n      pop\n      jump\t// out\n        /* \"#utility.yul\":16635:17015   */\n    tag_182:\n        /* \"#utility.yul\":16714:16715   */\n      0x01\n        /* \"#utility.yul\":16710:16722   */\n      dup2\n      dup2\n      shr\n      swap1\n        /* \"#utility.yul\":16757:16769   */\n      dup3\n      and\n      dup1\n        /* \"#utility.yul\":16778:16839   */\n      tag_884\n      jumpi\n        /* \"#utility.yul\":16832:16836   */\n      0x7f\n        /* \"#utility.yul\":16824:16830   */\n      dup3\n        /* \"#utility.yul\":16820:16837   */\n      and\n        /* \"#utility.yul\":16810:16837   */\n      swap2\n      pop\n        /* \"#utility.yul\":16778:16839   */\n    tag_884:\n        /* \"#utility.yul\":16885:16887   */\n      0x20\n        /* \"#utility.yul\":16877:16883   */\n      dup3\n        /* \"#utility.yul\":16874:16888   */\n      lt\n        /* \"#utility.yul\":16854:16872   */\n      dup2\n        /* \"#utility.yul\":16851:16889   */\n      sub\n        /* \"#utility.yul\":16848:17009   */\n      tag_558\n      jumpi\n        /* \"#utility.yul\":16931:16941   */\n      0x4e487b71\n        /* \"#utility.yul\":16926:16929   */\n      0xe0\n        /* \"#utility.yul\":16922:16942   */\n      shl\n        /* \"#utility.yul\":16919:16920   */\n      0x00\n        /* \"#utility.yul\":16912:16943   */\n      mstore\n        /* \"#utility.yul\":16966:16970   */\n      0x22\n        /* \"#utility.yul\":16963:16964   */\n      0x04\n        /* \"#utility.yul\":16956:16971   */\n      mstore\n        /* \"#utility.yul\":16994:16998   */\n      0x24\n        /* \"#utility.yul\":16991:16992   */\n      0x00\n        /* \"#utility.yul\":16984:16999   */\n      revert\n        /* \"#utility.yul\":17370:17710   */\n    tag_206:\n        /* \"#utility.yul\":17572:17574   */\n      0x20\n        /* \"#utility.yul\":17554:17575   */\n      dup1\n      dup3\n      mstore\n        /* \"#utility.yul\":17611:17613   */\n      0x10\n        /* \"#utility.yul\":17591:17609   */\n      swap1\n      dup3\n      add\n        /* \"#utility.yul\":17584:17614   */\n      mstore\n      shl(0x80, 0x496e76616c6964206164647265737321)\n        /* \"#utility.yul\":17645:17647   */\n      0x40\n        /* \"#utility.yul\":17630:17648   */\n      dup3\n      add\n        /* \"#utility.yul\":17623:17669   */\n      mstore\n        /* \"#utility.yul\":17701:17703   */\n      0x60\n        /* \"#utility.yul\":17686:17704   */\n      add\n      swap1\n        /* \"#utility.yul\":17370:17710   */\n      jump\t// out\n        /* \"#utility.yul\":18532:19077   */\n    tag_744:\n        /* \"#utility.yul\":18634:18636   */\n      0x1f\n        /* \"#utility.yul\":18629:18632   */\n      dup3\n        /* \"#utility.yul\":18626:18637   */\n      gt\n        /* \"#utility.yul\":18623:19071   */\n      iszero\n      tag_892\n      jumpi\n        /* \"#utility.yul\":18670:18671   */\n      0x00\n        /* \"#utility.yul\":18695:18700   */\n      dup2\n        /* \"#utility.yul\":18691:18693   */\n      dup2\n        /* \"#utility.yul\":18684:18701   */\n      mstore\n        /* \"#utility.yul\":18740:18744   */\n      0x20\n        /* \"#utility.yul\":18736:18738   */\n      dup2\n        /* \"#utility.yul\":18726:18745   */\n      keccak256\n        /* \"#utility.yul\":18810:18812   */\n      0x1f\n        /* \"#utility.yul\":18798:18808   */\n      dup6\n        /* \"#utility.yul\":18794:18813   */\n      add\n        /* \"#utility.yul\":18791:18792   */\n      0x05\n        /* \"#utility.yul\":18787:18814   */\n      shr\n        /* \"#utility.yul\":18781:18785   */\n      dup2\n        /* \"#utility.yul\":18777:18815   */\n      add\n        /* \"#utility.yul\":18846:18850   */\n      0x20\n        /* \"#utility.yul\":18834:18844   */\n      dup7\n        /* \"#utility.yul\":18831:18851   */\n      lt\n        /* \"#utility.yul\":18828:18875   */\n      iszero\n      tag_893\n      jumpi\n      pop\n        /* \"#utility.yul\":18869:18873   */\n      dup1\n        /* \"#utility.yul\":18828:18875   */\n    tag_893:\n        /* \"#utility.yul\":18924:18926   */\n      0x1f\n        /* \"#utility.yul\":18919:18922   */\n      dup6\n        /* \"#utility.yul\":18915:18927   */\n      add\n        /* \"#utility.yul\":18912:18913   */\n      0x05\n        /* \"#utility.yul\":18908:18928   */\n      shr\n        /* \"#utility.yul\":18902:18906   */\n      dup3\n        /* \"#utility.yul\":18898:18929   */\n      add\n        /* \"#utility.yul\":18888:18929   */\n      swap2\n      pop\n        /* \"#utility.yul\":18979:19061   */\n    tag_894:\n        /* \"#utility.yul\":18997:18999   */\n      dup2\n        /* \"#utility.yul\":18990:18995   */\n      dup2\n        /* \"#utility.yul\":18987:19000   */\n      lt\n        /* \"#utility.yul\":18979:19061   */\n      iszero\n      tag_896\n      jumpi\n        /* \"#utility.yul\":19042:19059   */\n      dup3\n      dup2\n      sstore\n        /* \"#utility.yul\":19023:19024   */\n      0x01\n        /* \"#utility.yul\":19012:19025   */\n      add\n        /* \"#utility.yul\":18979:19061   */\n      jump(tag_894)\n    tag_896:\n        /* \"#utility.yul\":18983:18986   */\n      pop\n      pop\n      pop\n        /* \"#utility.yul\":18623:19071   */\n    tag_892:\n        /* \"#utility.yul\":18532:19077   */\n      pop\n      pop\n      pop\n      jump\t// out\n        /* \"#utility.yul\":19253:20605   */\n    tag_226:\n        /* \"#utility.yul\":19379:19382   */\n      dup2\n        /* \"#utility.yul\":19373:19383   */\n      mload\n        /* \"#utility.yul\":19406:19424   */\n      0xffffffffffffffff\n        /* \"#utility.yul\":19398:19404   */\n      dup2\n        /* \"#utility.yul\":19395:19425   */\n      gt\n        /* \"#utility.yul\":19392:19448   */\n      iszero\n      tag_900\n      jumpi\n        /* \"#utility.yul\":19428:19446   */\n      tag_900\n      tag_553\n      jump\t// in\n    tag_900:\n        /* \"#utility.yul\":19457:19554   */\n      tag_901\n        /* \"#utility.yul\":19547:19553   */\n      dup2\n        /* \"#utility.yul\":19507:19545   */\n      tag_902\n        /* \"#utility.yul\":19539:19543   */\n      dup5\n        /* \"#utility.yul\":19533:19544   */\n      sload\n        /* \"#utility.yul\":19507:19545   */\n      tag_182\n      jump\t// in\n    tag_902:\n        /* \"#utility.yul\":19501:19505   */\n      dup5\n        /* \"#utility.yul\":19457:19554   */\n      tag_744\n      jump\t// in\n    tag_901:\n        /* \"#utility.yul\":19609:19613   */\n      0x20\n      dup1\n        /* \"#utility.yul\":19673:19675   */\n      0x1f\n        /* \"#utility.yul\":19662:19676   */\n      dup4\n      gt\n        /* \"#utility.yul\":19690:19691   */\n      0x01\n        /* \"#utility.yul\":19685:20348   */\n      dup2\n      eq\n      tag_904\n      jumpi\n        /* \"#utility.yul\":20392:20393   */\n      0x00\n        /* \"#utility.yul\":20409:20415   */\n      dup5\n        /* \"#utility.yul\":20406:20495   */\n      iszero\n      tag_905\n      jumpi\n      pop\n        /* \"#utility.yul\":20461:20480   */\n      dup6\n      dup4\n      add\n        /* \"#utility.yul\":20455:20481   */\n      mload\n        /* \"#utility.yul\":20406:20495   */\n    tag_905:\n      not(0x00)\n        /* \"#utility.yul\":19210:19211   */\n      0x03\n        /* \"#utility.yul\":19206:19217   */\n      dup7\n      swap1\n      shl\n        /* \"#utility.yul\":19202:19226   */\n      shr\n        /* \"#utility.yul\":19198:19227   */\n      not\n        /* \"#utility.yul\":19188:19228   */\n      and\n        /* \"#utility.yul\":19234:19235   */\n      0x01\n        /* \"#utility.yul\":19230:19241   */\n      dup6\n      swap1\n      shl\n        /* \"#utility.yul\":19185:19242   */\n      or\n        /* \"#utility.yul\":20508:20589   */\n      dup6\n      sstore\n        /* \"#utility.yul\":19655:20599   */\n      jump(tag_896)\n        /* \"#utility.yul\":19685:20348   */\n    tag_904:\n        /* \"#utility.yul\":18479:18480   */\n      0x00\n        /* \"#utility.yul\":18472:18486   */\n      dup6\n      dup2\n      mstore\n        /* \"#utility.yul\":18516:18520   */\n      0x20\n        /* \"#utility.yul\":18503:18521   */\n      dup2\n      keccak256\n      not(0x1f)\n        /* \"#utility.yul\":19721:19741   */\n      dup7\n      and\n      swap2\n        /* \"#utility.yul\":19839:20075   */\n    tag_908:\n        /* \"#utility.yul\":19853:19860   */\n      dup3\n        /* \"#utility.yul\":19850:19851   */\n      dup2\n        /* \"#utility.yul\":19847:19861   */\n      lt\n        /* \"#utility.yul\":19839:20075   */\n      iszero\n      tag_910\n      jumpi\n        /* \"#utility.yul\":19942:19961   */\n      dup9\n      dup7\n      add\n        /* \"#utility.yul\":19936:19962   */\n      mload\n        /* \"#utility.yul\":19921:19963   */\n      dup3\n      sstore\n        /* \"#utility.yul\":20034:20061   */\n      swap5\n      dup5\n      add\n      swap5\n        /* \"#utility.yul\":20002:20003   */\n      0x01\n        /* \"#utility.yul\":19990:20004   */\n      swap1\n      swap2\n      add\n      swap1\n        /* \"#utility.yul\":19869:19888   */\n      dup5\n      add\n        /* \"#utility.yul\":19839:20075   */\n      jump(tag_908)\n    tag_910:\n        /* \"#utility.yul\":19843:19846   */\n      pop\n        /* \"#utility.yul\":20103:20109   */\n      dup6\n        /* \"#utility.yul\":20094:20101   */\n      dup3\n        /* \"#utility.yul\":20091:20110   */\n      lt\n        /* \"#utility.yul\":20088:20289   */\n      iszero\n      tag_911\n      jumpi\n        /* \"#utility.yul\":20164:20183   */\n      dup8\n      dup6\n      add\n        /* \"#utility.yul\":20158:20184   */\n      mload\n      not(0x00)\n        /* \"#utility.yul\":20247:20248   */\n      0x03\n        /* \"#utility.yul\":20243:20257   */\n      dup9\n      swap1\n      shl\n        /* \"#utility.yul\":20259:20262   */\n      0xf8\n        /* \"#utility.yul\":20239:20263   */\n      and\n        /* \"#utility.yul\":20235:20272   */\n      shr\n        /* \"#utility.yul\":20231:20273   */\n      not\n        /* \"#utility.yul\":20216:20274   */\n      and\n        /* \"#utility.yul\":20201:20275   */\n      dup2\n      sstore\n        /* \"#utility.yul\":20088:20289   */\n    tag_911:\n      pop\n      pop\n      pop\n      pop\n      pop\n        /* \"#utility.yul\":20335:20336   */\n      0x01\n        /* \"#utility.yul\":20319:20333   */\n      swap1\n      dup2\n      shl\n        /* \"#utility.yul\":20315:20337   */\n      add\n        /* \"#utility.yul\":20302:20338   */\n      swap1\n      sstore\n      pop\n        /* \"#utility.yul\":19253:20605   */\n      jump\t// out\n        /* \"#utility.yul\":20610:21240   */\n    tag_233:\n        /* \"#utility.yul\":20908:20910   */\n      0x60\n        /* \"#utility.yul\":20897:20906   */\n      dup2\n        /* \"#utility.yul\":20890:20911   */\n      mstore\n        /* \"#utility.yul\":20947:20949   */\n      0x18\n        /* \"#utility.yul\":20942:20944   */\n      0x60\n        /* \"#utility.yul\":20931:20940   */\n      dup3\n        /* \"#utility.yul\":20927:20945   */\n      add\n        /* \"#utility.yul\":20920:20950   */\n      mstore\n        /* \"#utility.yul\":20987:21013   */\n      0x55736572206164646564207375636365737366756c6c79210000000000000000\n        /* \"#utility.yul\":20981:20984   */\n      0x80\n        /* \"#utility.yul\":20970:20979   */\n      dup3\n        /* \"#utility.yul\":20966:20985   */\n      add\n        /* \"#utility.yul\":20959:21014   */\n      mstore\n        /* \"#utility.yul\":21052:21055   */\n      0xa0\n        /* \"#utility.yul\":21045:21049   */\n      0x20\n        /* \"#utility.yul\":21034:21043   */\n      dup3\n        /* \"#utility.yul\":21030:21050   */\n      add\n        /* \"#utility.yul\":21023:21056   */\n      mstore\n        /* \"#utility.yul\":20871:20875   */\n      0x00\n        /* \"#utility.yul\":21079:21125   */\n      tag_913\n        /* \"#utility.yul\":21120:21123   */\n      0xa0\n        /* \"#utility.yul\":21109:21118   */\n      dup4\n        /* \"#utility.yul\":21105:21124   */\n      add\n        /* \"#utility.yul\":21097:21103   */\n      dup6\n        /* \"#utility.yul\":21079:21125   */\n      tag_737\n      jump\t// in\n    tag_913:\n        /* \"#utility.yul\":21173:21182   */\n      dup3\n        /* \"#utility.yul\":21165:21171   */\n      dup2\n        /* \"#utility.yul\":21161:21183   */\n      sub\n        /* \"#utility.yul\":21156:21158   */\n      0x40\n        /* \"#utility.yul\":21145:21154   */\n      dup5\n        /* \"#utility.yul\":21141:21159   */\n      add\n        /* \"#utility.yul\":21134:21184   */\n      mstore\n        /* \"#utility.yul\":21201:21234   */\n      tag_797\n        /* \"#utility.yul\":21227:21233   */\n      dup2\n        /* \"#utility.yul\":21219:21225   */\n      dup6\n        /* \"#utility.yul\":21201:21234   */\n      tag_737\n      jump\t// in\n        /* \"#utility.yul\":21593:21720   */\n    tag_263:\n        /* \"#utility.yul\":21654:21664   */\n      0x4e487b71\n        /* \"#utility.yul\":21649:21652   */\n      0xe0\n        /* \"#utility.yul\":21645:21665   */\n      shl\n        /* \"#utility.yul\":21642:21643   */\n      0x00\n        /* \"#utility.yul\":21635:21666   */\n      mstore\n        /* \"#utility.yul\":21685:21689   */\n      0x32\n        /* \"#utility.yul\":21682:21683   */\n      0x04\n        /* \"#utility.yul\":21675:21690   */\n      mstore\n        /* \"#utility.yul\":21709:21713   */\n      0x24\n        /* \"#utility.yul\":21706:21707   */\n      0x00\n        /* \"#utility.yul\":21699:21714   */\n      revert\n        /* \"#utility.yul\":21725:21852   */\n    tag_746:\n        /* \"#utility.yul\":21786:21796   */\n      0x4e487b71\n        /* \"#utility.yul\":21781:21784   */\n      0xe0\n        /* \"#utility.yul\":21777:21797   */\n      shl\n        /* \"#utility.yul\":21774:21775   */\n      0x00\n        /* \"#utility.yul\":21767:21798   */\n      mstore\n        /* \"#utility.yul\":21817:21821   */\n      0x11\n        /* \"#utility.yul\":21814:21815   */\n      0x04\n        /* \"#utility.yul\":21807:21822   */\n      mstore\n        /* \"#utility.yul\":21841:21845   */\n      0x24\n        /* \"#utility.yul\":21838:21839   */\n      0x00\n        /* \"#utility.yul\":21831:21846   */\n      revert\n        /* \"#utility.yul\":21857:21985   */\n    tag_267:\n        /* \"#utility.yul\":21924:21933   */\n      dup2\n      dup2\n      sub\n        /* \"#utility.yul\":21945:21956   */\n      dup2\n      dup2\n      gt\n        /* \"#utility.yul\":21942:21979   */\n      iszero\n      tag_920\n      jumpi\n        /* \"#utility.yul\":21959:21977   */\n      tag_920\n      tag_746\n      jump\t// in\n    tag_920:\n        /* \"#utility.yul\":21857:21985   */\n      swap3\n      swap2\n      pop\n      pop\n      jump\t// out\n        /* \"#utility.yul\":21990:22117   */\n    tag_276:\n        /* \"#utility.yul\":22051:22061   */\n      0x4e487b71\n        /* \"#utility.yul\":22046:22049   */\n      0xe0\n        /* \"#utility.yul\":22042:22062   */\n      shl\n        /* \"#utility.yul\":22039:22040   */\n      0x00\n        /* \"#utility.yul\":22032:22063   */\n      mstore\n        /* \"#utility.yul\":22082:22086   */\n      0x31\n        /* \"#utility.yul\":22079:22080   */\n      0x04\n        /* \"#utility.yul\":22072:22087   */\n      mstore\n        /* \"#utility.yul\":22106:22110   */\n      0x24\n        /* \"#utility.yul\":22103:22104   */\n      0x00\n        /* \"#utility.yul\":22096:22111   */\n      revert\n        /* \"#utility.yul\":22122:22257   */\n    tag_279:\n        /* \"#utility.yul\":22161:22164   */\n      0x00\n        /* \"#utility.yul\":22182:22199   */\n      0x01\n      dup3\n      add\n        /* \"#utility.yul\":22179:22222   */\n      tag_924\n      jumpi\n        /* \"#utility.yul\":22202:22220   */\n      tag_924\n      tag_746\n      jump\t// in\n    tag_924:\n      pop\n        /* \"#utility.yul\":22249:22250   */\n      0x01\n        /* \"#utility.yul\":22238:22251   */\n      add\n      swap1\n        /* \"#utility.yul\":22122:22257   */\n      jump\t// out\n        /* \"#utility.yul\":22262:22894   */\n    tag_281:\n        /* \"#utility.yul\":22560:22562   */\n      0x60\n        /* \"#utility.yul\":22549:22558   */\n      dup2\n        /* \"#utility.yul\":22542:22563   */\n      mstore\n        /* \"#utility.yul\":22599:22601   */\n      0x1a\n        /* \"#utility.yul\":22594:22596   */\n      0x60\n        /* \"#utility.yul\":22583:22592   */\n      dup3\n        /* \"#utility.yul\":22579:22597   */\n      add\n        /* \"#utility.yul\":22572:22602   */\n      mstore\n        /* \"#utility.yul\":22639:22667   */\n      0x557365722064656c65746564207375636365737366756c6c7921000000000000\n        /* \"#utility.yul\":22633:22636   */\n      0x80\n        /* \"#utility.yul\":22622:22631   */\n      dup3\n        /* \"#utility.yul\":22618:22637   */\n      add\n        /* \"#utility.yul\":22611:22668   */\n      mstore\n        /* \"#utility.yul\":22706:22709   */\n      0xa0\n        /* \"#utility.yul\":22699:22703   */\n      0x20\n        /* \"#utility.yul\":22688:22697   */\n      dup3\n        /* \"#utility.yul\":22684:22704   */\n      add\n        /* \"#utility.yul\":22677:22710   */\n      mstore\n        /* \"#utility.yul\":22523:22527   */\n      0x00\n        /* \"#utility.yul\":22733:22779   */\n      tag_913\n        /* \"#utility.yul\":22774:22777   */\n      0xa0\n        /* \"#utility.yul\":22763:22772   */\n      dup4\n        /* \"#utility.yul\":22759:22778   */\n      add\n        /* \"#utility.yul\":22751:22757   */\n      dup6\n        /* \"#utility.yul\":22733:22779   */\n      tag_737\n      jump\t// in\n        /* \"#utility.yul\":23249:24093   */\n    tag_347:\n        /* \"#utility.yul\":23379:23382   */\n      0x00\n        /* \"#utility.yul\":23408:23409   */\n      dup1\n        /* \"#utility.yul\":23441:23447   */\n      dup4\n        /* \"#utility.yul\":23435:23448   */\n      sload\n        /* \"#utility.yul\":23471:23507   */\n      tag_930\n        /* \"#utility.yul\":23497:23506   */\n      dup2\n        /* \"#utility.yul\":23471:23507   */\n      tag_182\n      jump\t// in\n    tag_930:\n        /* \"#utility.yul\":23526:23527   */\n      0x01\n        /* \"#utility.yul\":23543:23561   */\n      dup3\n      dup2\n      and\n        /* \"#utility.yul\":23570:23703   */\n      dup1\n      iszero\n      tag_932\n      jumpi\n        /* \"#utility.yul\":23717:23718   */\n      0x01\n        /* \"#utility.yul\":23712:24068   */\n      dup2\n      eq\n      tag_933\n      jumpi\n        /* \"#utility.yul\":23536:24068   */\n      jump(tag_931)\n        /* \"#utility.yul\":23570:23703   */\n    tag_932:\n      not(0xff)\n        /* \"#utility.yul\":23603:23627   */\n      dup5\n      and\n        /* \"#utility.yul\":23591:23628   */\n      dup8\n      mstore\n        /* \"#utility.yul\":23676:23690   */\n      dup3\n      iszero\n        /* \"#utility.yul\":23669:23691   */\n      iszero\n        /* \"#utility.yul\":23657:23692   */\n      dup4\n      mul\n        /* \"#utility.yul\":23648:23693   */\n      dup8\n      add\n      swap5\n      pop\n        /* \"#utility.yul\":23570:23703   */\n      jump(tag_931)\n        /* \"#utility.yul\":23712:24068   */\n    tag_933:\n        /* \"#utility.yul\":23743:23749   */\n      dup8\n        /* \"#utility.yul\":23740:23741   */\n      0x00\n        /* \"#utility.yul\":23733:23750   */\n      mstore\n        /* \"#utility.yul\":23773:23777   */\n      0x20\n        /* \"#utility.yul\":23818:23820   */\n      dup1\n        /* \"#utility.yul\":23815:23816   */\n      0x00\n        /* \"#utility.yul\":23805:23821   */\n      keccak256\n        /* \"#utility.yul\":23843:23844   */\n      0x00\n        /* \"#utility.yul\":23857:24022   */\n    tag_934:\n        /* \"#utility.yul\":23871:23877   */\n      dup6\n        /* \"#utility.yul\":23868:23869   */\n      dup2\n        /* \"#utility.yul\":23865:23878   */\n      lt\n        /* \"#utility.yul\":23857:24022   */\n      iszero\n      tag_936\n      jumpi\n        /* \"#utility.yul\":23949:23963   */\n      dup2\n      sload\n        /* \"#utility.yul\":23936:23947   */\n      dup11\n      dup3\n      add\n        /* \"#utility.yul\":23929:23964   */\n      mstore\n        /* \"#utility.yul\":23992:24008   */\n      swap1\n      dup5\n      add\n      swap1\n        /* \"#utility.yul\":23886:23896   */\n      dup3\n      add\n        /* \"#utility.yul\":23857:24022   */\n      jump(tag_934)\n    tag_936:\n        /* \"#utility.yul\":23861:23864   */\n      pop\n      pop\n      pop\n        /* \"#utility.yul\":24051:24057   */\n      dup3\n        /* \"#utility.yul\":24046:24049   */\n      dup8\n        /* \"#utility.yul\":24042:24058   */\n      add\n        /* \"#utility.yul\":24035:24058   */\n      swap5\n      pop\n        /* \"#utility.yul\":23536:24068   */\n    tag_931:\n      pop\n        /* \"#utility.yul\":24084:24087   */\n      swap3\n      swap7\n        /* \"#utility.yul\":23249:24093   */\n      swap6\n      pop\n      pop\n      pop\n      pop\n      pop\n      pop\n      jump\t// out\n        /* \"#utility.yul\":24098:25533   */\n    tag_357:\n        /* \"#utility.yul\":24217:24220   */\n      dup2\n        /* \"#utility.yul\":24211:24215   */\n      dup2\n        /* \"#utility.yul\":24208:24221   */\n      sub\n        /* \"#utility.yul\":24205:24231   */\n      tag_938\n      jumpi\n        /* \"#utility.yul\":24224:24229   */\n      pop\n      pop\n        /* \"#utility.yul\":24098:25533   */\n      jump\t// out\n        /* \"#utility.yul\":24205:24231   */\n    tag_938:\n        /* \"#utility.yul\":24254:24291   */\n      tag_939\n        /* \"#utility.yul\":24286:24289   */\n      dup3\n        /* \"#utility.yul\":24280:24290   */\n      sload\n        /* \"#utility.yul\":24254:24291   */\n      tag_182\n      jump\t// in\n    tag_939:\n        /* \"#utility.yul\":24314:24332   */\n      0xffffffffffffffff\n        /* \"#utility.yul\":24306:24312   */\n      dup2\n        /* \"#utility.yul\":24303:24333   */\n      gt\n        /* \"#utility.yul\":24300:24356   */\n      iszero\n      tag_941\n      jumpi\n        /* \"#utility.yul\":24336:24354   */\n      tag_941\n      tag_553\n      jump\t// in\n    tag_941:\n        /* \"#utility.yul\":24365:24462   */\n      tag_942\n        /* \"#utility.yul\":24455:24461   */\n      dup2\n        /* \"#utility.yul\":24415:24453   */\n      tag_902\n        /* \"#utility.yul\":24447:24451   */\n      dup5\n        /* \"#utility.yul\":24441:24452   */\n      sload\n        /* \"#utility.yul\":24415:24453   */\n      tag_182\n      jump\t// in\n        /* \"#utility.yul\":24365:24462   */\n    tag_942:\n        /* \"#utility.yul\":24488:24489   */\n      0x00\n        /* \"#utility.yul\":24516:24518   */\n      0x1f\n        /* \"#utility.yul\":24508:24514   */\n      dup3\n        /* \"#utility.yul\":24505:24519   */\n      gt\n        /* \"#utility.yul\":24533:24534   */\n      0x01\n        /* \"#utility.yul\":24528:25276   */\n      dup2\n      eq\n      tag_945\n      jumpi\n        /* \"#utility.yul\":25320:25321   */\n      0x00\n        /* \"#utility.yul\":25337:25343   */\n      dup4\n        /* \"#utility.yul\":25334:25423   */\n      iszero\n      tag_946\n      jumpi\n      pop\n        /* \"#utility.yul\":25389:25408   */\n      dup5\n      dup3\n      add\n        /* \"#utility.yul\":25383:25409   */\n      sload\n        /* \"#utility.yul\":25334:25423   */\n    tag_946:\n      not(0x00)\n        /* \"#utility.yul\":19210:19211   */\n      0x03\n        /* \"#utility.yul\":19206:19217   */\n      dup6\n      swap1\n      shl\n        /* \"#utility.yul\":19202:19226   */\n      shr\n        /* \"#utility.yul\":19198:19227   */\n      not\n        /* \"#utility.yul\":19188:19228   */\n      and\n        /* \"#utility.yul\":19234:19235   */\n      0x01\n        /* \"#utility.yul\":19230:19241   */\n      dup5\n      swap1\n      shl\n        /* \"#utility.yul\":19185:19242   */\n      or\n        /* \"#utility.yul\":25436:25517   */\n      dup5\n      sstore\n        /* \"#utility.yul\":24498:25527   */\n      jump(tag_944)\n        /* \"#utility.yul\":24528:25276   */\n    tag_945:\n        /* \"#utility.yul\":18479:18480   */\n      0x00\n        /* \"#utility.yul\":18472:18486   */\n      dup6\n      dup2\n      mstore\n        /* \"#utility.yul\":18516:18520   */\n      0x20\n        /* \"#utility.yul\":18503:18521   */\n      swap1\n      keccak256\n      not(0x1f)\n        /* \"#utility.yul\":24564:24584   */\n      dup5\n      and\n      swap1\n        /* \"#utility.yul\":18479:18480   */\n      0x00\n        /* \"#utility.yul\":18472:18486   */\n      dup7\n      dup2\n      mstore\n        /* \"#utility.yul\":18516:18520   */\n      0x20\n        /* \"#utility.yul\":18503:18521   */\n      swap1\n      keccak256\n        /* \"#utility.yul\":24728:24737   */\n      dup5\n        /* \"#utility.yul\":24750:25001   */\n    tag_950:\n        /* \"#utility.yul\":24764:24771   */\n      dup4\n        /* \"#utility.yul\":24761:24762   */\n      dup2\n        /* \"#utility.yul\":24758:24772   */\n      lt\n        /* \"#utility.yul\":24750:25001   */\n      iszero\n      tag_952\n      jumpi\n        /* \"#utility.yul\":24846:24867   */\n      dup3\n      dup7\n      add\n        /* \"#utility.yul\":24840:24868   */\n      sload\n        /* \"#utility.yul\":24825:24869   */\n      dup3\n      sstore\n        /* \"#utility.yul\":24896:24897   */\n      0x01\n        /* \"#utility.yul\":24969:24987   */\n      swap6\n      dup7\n      add\n      swap6\n        /* \"#utility.yul\":24924:24939   */\n      swap1\n      swap2\n      add\n      swap1\n        /* \"#utility.yul\":24787:24791   */\n      0x20\n        /* \"#utility.yul\":24780:24792   */\n      add\n        /* \"#utility.yul\":24750:25001   */\n      jump(tag_950)\n    tag_952:\n        /* \"#utility.yul\":24754:24757   */\n      pop\n        /* \"#utility.yul\":25029:25035   */\n      dup6\n        /* \"#utility.yul\":25020:25027   */\n      dup4\n        /* \"#utility.yul\":25017:25036   */\n      lt\n        /* \"#utility.yul\":25014:25217   */\n      iszero\n      tag_953\n      jumpi\n        /* \"#utility.yul\":25090:25111   */\n      dup2\n      dup6\n      add\n        /* \"#utility.yul\":25084:25112   */\n      sload\n      not(0x00)\n        /* \"#utility.yul\":25175:25176   */\n      0x03\n        /* \"#utility.yul\":25171:25185   */\n      dup9\n      swap1\n      shl\n        /* \"#utility.yul\":25187:25190   */\n      0xf8\n        /* \"#utility.yul\":25167:25191   */\n      and\n        /* \"#utility.yul\":25163:25200   */\n      shr\n        /* \"#utility.yul\":25159:25201   */\n      not\n        /* \"#utility.yul\":25144:25202   */\n      and\n        /* \"#utility.yul\":25129:25203   */\n      dup2\n      sstore\n        /* \"#utility.yul\":25014:25217   */\n    tag_953:\n      pop\n      pop\n      pop\n        /* \"#utility.yul\":25263:25264   */\n      0x01\n        /* \"#utility.yul\":25254:25260   */\n      dup4\n        /* \"#utility.yul\":25251:25252   */\n      0x01\n        /* \"#utility.yul\":25247:25261   */\n      shl\n        /* \"#utility.yul\":25243:25265   */\n      add\n        /* \"#utility.yul\":25237:25241   */\n      dup5\n        /* \"#utility.yul\":25230:25266   */\n      sstore\n        /* \"#utility.yul\":24498:25527   */\n    tag_944:\n      pop\n      pop\n      pop\n        /* \"#utility.yul\":24098:25533   */\n      pop\n      pop\n      jump\t// out\n        /* \"#utility.yul\":25538:26111   */\n    tag_364:\n        /* \"#utility.yul\":25827:25829   */\n      0x60\n        /* \"#utility.yul\":25816:25825   */\n      dup2\n        /* \"#utility.yul\":25809:25830   */\n      mstore\n        /* \"#utility.yul\":25866:25868   */\n      0x1c\n        /* \"#utility.yul\":25861:25863   */\n      0x60\n        /* \"#utility.yul\":25850:25859   */\n      dup3\n        /* \"#utility.yul\":25846:25864   */\n      add\n        /* \"#utility.yul\":25839:25869   */\n      mstore\n        /* \"#utility.yul\":25906:25936   */\n      0x456e746974792064656c65746564207375636365737366756c6c792100000000\n        /* \"#utility.yul\":25900:25903   */\n      0x80\n        /* \"#utility.yul\":25889:25898   */\n      dup3\n        /* \"#utility.yul\":25885:25904   */\n      add\n        /* \"#utility.yul\":25878:25937   */\n      mstore\n        /* \"#utility.yul\":25975:25978   */\n      0xa0\n        /* \"#utility.yul\":25968:25972   */\n      0x20\n        /* \"#utility.yul\":25957:25966   */\n      dup3\n        /* \"#utility.yul\":25953:25973   */\n      add\n        /* \"#utility.yul\":25946:25979   */\n      mstore\n        /* \"#utility.yul\":25790:25794   */\n      0x00\n        /* \"#utility.yul\":25996:26042   */\n      tag_955\n        /* \"#utility.yul\":26037:26040   */\n      0xa0\n        /* \"#utility.yul\":26026:26035   */\n      dup4\n        /* \"#utility.yul\":26022:26041   */\n      add\n        /* \"#utility.yul\":26014:26020   */\n      dup6\n        /* \"#utility.yul\":25996:26042   */\n      tag_737\n      jump\t// in\n    tag_955:\n        /* \"#utility.yul\":25988:26042   */\n      swap1\n      pop\n        /* \"#utility.yul\":26051:26105   */\n      tag_782\n        /* \"#utility.yul\":26101:26103   */\n      0x40\n        /* \"#utility.yul\":26090:26099   */\n      dup4\n        /* \"#utility.yul\":26086:26104   */\n      add\n        /* \"#utility.yul\":26078:26084   */\n      dup5\n        /* \"#utility.yul\":26051:26105   */\n      tag_738\n      jump\t// in\n        /* \"#utility.yul\":26116:26252   */\n    tag_392:\n        /* \"#utility.yul\":26155:26158   */\n      0x00\n        /* \"#utility.yul\":26183:26188   */\n      dup2\n        /* \"#utility.yul\":26173:26212   */\n      tag_959\n      jumpi\n        /* \"#utility.yul\":26192:26210   */\n      tag_959\n      tag_746\n      jump\t// in\n    tag_959:\n      pop\n      not(0x00)\n        /* \"#utility.yul\":26228:26246   */\n      add\n      swap1\n        /* \"#utility.yul\":26116:26252   */\n      jump\t// out\n        /* \"#utility.yul\":29393:29955   */\n    tag_528:\n        /* \"#utility.yul\":29682:29684   */\n      0x60\n        /* \"#utility.yul\":29671:29680   */\n      dup2\n        /* \"#utility.yul\":29664:29685   */\n      mstore\n        /* \"#utility.yul\":29721:29723   */\n      0x11\n        /* \"#utility.yul\":29716:29718   */\n      0x60\n        /* \"#utility.yul\":29705:29714   */\n      dup3\n        /* \"#utility.yul\":29701:29719   */\n      add\n        /* \"#utility.yul\":29694:29724   */\n      mstore\n      shl(0x78, 0x4e657720656e7469747920616464656421)\n        /* \"#utility.yul\":29755:29758   */\n      0x80\n        /* \"#utility.yul\":29744:29753   */\n      dup3\n        /* \"#utility.yul\":29740:29759   */\n      add\n        /* \"#utility.yul\":29733:29781   */\n      mstore\n        /* \"#utility.yul\":29819:29822   */\n      0xa0\n        /* \"#utility.yul\":29812:29816   */\n      0x20\n        /* \"#utility.yul\":29801:29810   */\n      dup3\n        /* \"#utility.yul\":29797:29817   */\n      add\n        /* \"#utility.yul\":29790:29823   */\n      mstore\n        /* \"#utility.yul\":29645:29649   */\n      0x00\n        /* \"#utility.yul\":29840:29886   */\n      tag_955\n        /* \"#utility.yul\":29881:29884   */\n      0xa0\n        /* \"#utility.yul\":29870:29879   */\n      dup4\n        /* \"#utility.yul\":29866:29885   */\n      add\n        /* \"#utility.yul\":29858:29864   */\n      dup6\n        /* \"#utility.yul\":29840:29886   */\n      tag_737\n      jump\t// in\n    stop\n    data_292351f7387e432a101c9a5bbed93081f2b814fd42aacf5d3aebc28528b529f4 50726f6475637420697320696e20746865207374617465206f66205472616e73706f72746174696f6e\n    data_5f6fd547ed43976aa34123907fb208304f24edb1eb8678b73119e68b28f4340a 50726f6475637420697320696e20746865207374617465206f66205061636b6167696e67\n    data_6123de2ea079ea7b27646a01d22f3c519706e20a7a4c5a0d01b4931b5584e680 50726f6475637420697320696e20746865207374617465206f662057617265686f757365\n    data_7d20aa27d3ea06098a5ed674056e120e76a75cc89fbd0da2e10a97573a90583a 50726f6475637420697320696e20746865207374617465206f662050726f64756374696f6e\n\n    auxdata: 0xa26469706673582212207df38a54e4dc9d3862737ad45bc540a5f65ace068a09ac7d85b0b1835dea232a64736f6c63430008130033\n}\n",
				"bytecode": {
					"linkReferences": {},
					"object": "60c060405260086080908152674d4754205445414d60c01b60a0526001906200002990826200024a565b503480156200003757600080fd5b50600080546001600160a01b0319163317905560408051808201909152600180548291906200006690620001bb565b80601f01602080910402602001604051908101604052809291908181526020018280546200009490620001bb565b8015620000e55780601f10620000b957610100808354040283529160200191620000e5565b820191906000526020600020905b815481529060010190602001808311620000c757829003601f168201915b505050918352505060200160019052600080546001600160a01b03168152600260205260409020815181906200011c90826200024a565b50602082015160018083018054909160ff199091169083600481111562000147576200014762000316565b021790555050600080546003805460018101825592527fc2575a0e9e593c00f959f8c92f12db2869c3395a3b0502d05e2516446f71f85b90910180546001600160a01b0319166001600160a01b03909216919091179055506200032c565b634e487b7160e01b600052604160045260246000fd5b600181811c90821680620001d057607f821691505b602082108103620001f157634e487b7160e01b600052602260045260246000fd5b50919050565b601f8211156200024557600081815260208120601f850160051c81016020861015620002205750805b601f850160051c820191505b8181101562000241578281556001016200022c565b5050505b505050565b81516001600160401b03811115620002665762000266620001a5565b6200027e81620002778454620001bb565b84620001f7565b602080601f831160018114620002b657600084156200029d5750858301515b600019600386901b1c1916600185901b17855562000241565b600085815260208120601f198616915b82811015620002e757888601518255948401946001909101908401620002c6565b5085821015620003065787850151600019600388901b60f8161c191681555b5050505050600190811b01905550565b634e487b7160e01b600052602160045260246000fd5b6142e9806200033c6000396000f3fe608060405234801561001057600080fd5b50600436106101735760003560e01c80638da5cb5b116100de578063b237046e11610097578063e2842d7911610071578063e2842d7914610394578063e3e550a9146103a9578063e64dc2a3146103ca578063f61af8ab146103dd57600080fd5b8063b237046e14610354578063c2b16bf214610367578063e0f6ef871461038b57600080fd5b80638da5cb5b146102c65780638f29695a146102d95780639980ec86146102ec578063a6f9dae11461030d578063a87430ba14610320578063af062a0c1461034157600080fd5b806369c212f61161013057806369c212f6146102275780636d960bc314610247578063706ced5b1461025a57806372139d9a1461027b578063734e1ac31461028e5780637acc0b20146102a357600080fd5b806303a69611146101785780633e88a4e21461018d57806340d26854146101b6578063502c9bd5146101c95780635c60f226146101f457806368111cce14610207575b600080fd5b61018b610186366004613580565b6103fd565b005b6101a061019b366004613656565b6105d4565b6040516101ad919061373e565b60405180910390f35b61018b6101c4366004613758565b610755565b6101dc6101d73660046137b6565b6109b5565b6040516001600160a01b0390911681526020016101ad565b61018b6102023660046137cf565b6109df565b61021a610215366004613656565b610d06565b6040516101ad91906137ea565b61023a6102353660046137cf565b610f0e565b6040516101ad9190613879565b61018b610255366004613656565b611056565b61026d610268366004613656565b611376565b6040516101ad92919061388c565b61018b610289366004613656565b611428565b6102966116da565b6040516101ad91906138ae565b6102b66102b13660046137b6565b611768565b6040516101ad94939291906138c1565b6000546101dc906001600160a01b031681565b61018b6102e73660046138fd565b6118a1565b6102ff6102fa3660046137b6565b611cf8565b6040519081526020016101ad565b61018b61031b3660046137cf565b611ea8565b61033361032e3660046137cf565b611fcb565b6040516101ad92919061396a565b61018b61034f36600461398c565b611fe6565b61018b610362366004613a2d565b61238d565b61037a610375366004613a72565b61255a565b6040516101ad959493929190613a94565b6102ff60095481565b61039c61278b565b6040516101ad9190613ae5565b6103bc6103b7366004613656565b612942565b6040516101ad929190613b47565b61018b6103d8366004613c0f565b612f8d565b6103f06103eb366004613ce0565b6131fb565b6040516101ad9190613cfb565b6001803360009081526002602052604090206001015460ff166004811115610427576104276136e3565b1461044d5760405162461bcd60e51b815260040161044490613d50565b60405180910390fd5b6000826004811115610461576104616136e3565b101580156104815750600482600481111561047e5761047e6136e3565b11155b6104c15760405162461bcd60e51b8152602060048201526011602482015270149bdb19481a5cc81b9bdd081d985b1a59607a1b6044820152606401610444565b6001600160a01b0383166105095760405162461bcd60e51b815260206004820152600f60248201526e496e76616c6964206164647265737360881b6044820152606401610444565b81600481111561051b5761051b6136e3565b6001600160a01b03841660009081526002602052604090206001015460ff16600481111561054b5761054b6136e3565b036105905760405162461bcd60e51b8152602060048201526015602482015274416c726561647920686173207468697320726f6c6560581b6044820152606401610444565b6001600160a01b038316600090815260026020526040902060019081018054849260ff19909116908360048111156105ca576105ca6136e3565b0217905550505050565b6040805180820190915260608152600060208201526004826040516105f99190613d87565b908152604051908190036020019020805461061390613da3565b905060000361065c5760405162461bcd60e51b8152602060048201526015602482015274115b9d1a5d1e48191bd95cc81b9bdd08195e1a5cdd605a1b6044820152606401610444565b600060048360405161066e9190613d87565b908152602001604051809103902090508060405180604001604052908160008201805461069a90613da3565b80601f01602080910402602001604051908101604052809291908181526020018280546106c690613da3565b80156107135780601f106106e857610100808354040283529160200191610713565b820191906000526020600020905b8154815290600101906020018083116106f657829003601f168201915b5050509183525050600182015460209091019060ff16600681111561073a5761073a6136e3565b600681111561074b5761074b6136e3565b9052509392505050565b6001803360009081526002602052604090206001015460ff16600481111561077f5761077f6136e3565b1461079c5760405162461bcd60e51b815260040161044490613d50565b6001600160a01b0384166107c25760405162461bcd60e51b815260040161044490613dd7565b6001600160a01b038416600090815260026020526040902080546107e590613da3565b15905061082b5760405162461bcd60e51b81526020600482015260146024820152735573657220616c7265616479206578697374732160601b6044820152606401610444565b600082600481111561083f5761083f6136e3565b1015801561085f5750600482600481111561085c5761085c6136e3565b11155b61089b5760405162461bcd60e51b815260206004820152600d60248201526c496e76616c696420726f6c652160981b6044820152606401610444565b60405180604001604052808481526020018360048111156108be576108be6136e3565b90526001600160a01b0385166000908152600260205260409020815181906108e69082613e50565b50602082015160018083018054909160ff199091169083600481111561090e5761090e6136e3565b0217905550506003805460018101825560009182527fc2575a0e9e593c00f959f8c92f12db2869c3395a3b0502d05e2516446f71f85b0180546001600160a01b0319166001600160a01b038816179055905061096983613391565b9050846001600160a01b03167fc2b801d81f6e22509f9eed15df60b144df9483674ff7a983aa3d2c378e7ae5f085836040516109a6929190613f10565b60405180910390a25050505050565b600381815481106109c557600080fd5b6000918252602090912001546001600160a01b0316905081565b6001803360009081526002602052604090206001015460ff166004811115610a0957610a096136e3565b14610a265760405162461bcd60e51b815260040161044490613d50565b6001600160a01b038216610a4c5760405162461bcd60e51b815260040161044490613dd7565b6001600160a01b03821660009081526002602052604090208054610a6f90613da3565b9050600003610ab65760405162461bcd60e51b81526020600482015260136024820152725573657220646f65736e27742065786973742160681b6044820152606401610444565b6001600160a01b03821660009081526002602052604081208054610ad990613da3565b80601f0160208091040260200160405190810160405280929190818152602001828054610b0590613da3565b8015610b525780601f10610b2757610100808354040283529160200191610b52565b820191906000526020600020905b815481529060010190602001808311610b3557829003601f168201915b505050506001600160a01b03851660009081526002602052604081206001015492935091610b83915060ff16613391565b6001600160a01b0385166000908152600260205260408120919250610ba882826134ff565b50600101805460ff1916905560005b600354811015610cbc57846001600160a01b031660038281548110610bde57610bde613f69565b6000918252602090912001546001600160a01b031603610caa5760038054610c0890600190613f95565b81548110610c1857610c18613f69565b600091825260209091200154600380546001600160a01b039092169183908110610c4457610c44613f69565b9060005260206000200160006101000a8154816001600160a01b0302191690836001600160a01b031602179055506003805480610c8357610c83613fae565b600082815260209020810160001990810180546001600160a01b0319169055019055610cbc565b80610cb481613fc4565b915050610bb7565b50836001600160a01b03167fc15d693267c3b1d5b865044ab75f608276dc7369a471245e8f087042c9236c088383604051610cf8929190613fdd565b60405180910390a250505050565b610d316040518060800160405280600081526020016060815260200160008152602001606081525090565b600882604051610d419190613d87565b90815260200160405180910390206001018054610d5d90613da3565b9050600003610da65760405162461bcd60e51b8152602060048201526015602482015274141c9bd91d58dd08191bd95cdb89dd08195e1a5cdd605a1b6044820152606401610444565b600882604051610db69190613d87565b908152602001604051809103902060405180608001604052908160008201548152602001600182018054610de990613da3565b80601f0160208091040260200160405190810160405280929190818152602001828054610e1590613da3565b8015610e625780601f10610e3757610100808354040283529160200191610e62565b820191906000526020600020905b815481529060010190602001808311610e4557829003601f168201915b5050505050815260200160028201548152602001600382018054610e8590613da3565b80601f0160208091040260200160405190810160405280929190818152602001828054610eb190613da3565b8015610efe5780601f10610ed357610100808354040283529160200191610efe565b820191906000526020600020905b815481529060010190602001808311610ee157829003601f168201915b5050505050815250509050919050565b6040805180820190915260608152600060208201526001600160a01b038216610f6b5760405162461bcd60e51b815260206004820152600f60248201526e496e76616c6964206164647265737360881b6044820152606401610444565b6001600160a01b038216600090815260026020526040908190208151808301909252805482908290610f9c90613da3565b80601f0160208091040260200160405190810160405280929190818152602001828054610fc890613da3565b80156110155780601f10610fea57610100808354040283529160200191611015565b820191906000526020600020905b815481529060010190602001808311610ff857829003601f168201915b5050509183525050600182015460209091019060ff16600481111561103c5761103c6136e3565b600481111561104d5761104d6136e3565b90525092915050565b6001803360009081526002602052604090206001015460ff166004811115611080576110806136e3565b1461109d5760405162461bcd60e51b815260040161044490613d50565b6004826040516110ad9190613d87565b90815260405190819003602001902080546110c790613da3565b90506000036111105760405162461bcd60e51b8152602060048201526015602482015274115b9d1a5d1e48191bd95cc81b9bdd08195e1a5cdd605a1b6044820152606401610444565b60006004836040516111229190613d87565b908152604051908190036020019020805461113c90613da3565b80601f016020809104026020016040519081016040528092919081815260200182805461116890613da3565b80156111b55780601f1061118a576101008083540402835291602001916111b5565b820191906000526020600020905b81548152906001019060200180831161119857829003601f168201915b5050505050905060006004846040516111ce9190613d87565b9081526040519081900360200181206001015460ff1691506004906111f4908690613d87565b908152604051908190036020019020600061120f82826134ff565b50600101805460ff191690556000600581836006811115611232576112326136e3565b6006811115611243576112436136e3565b8152602001908152602001600020905060005b815481101561133557838051906020012082828154811061127957611279613f69565b906000526020600020016040516112909190614024565b60405180910390200361132357815482906112ad90600190613f95565b815481106112bd576112bd613f69565b906000526020600020018282815481106112d9576112d9613f69565b9060005260206000200190816112ef919061409a565b508180548061130057611300613fae565b60019003818190600052602060002001600061131c91906134ff565b9055611335565b8061132d81613fc4565b915050611256565b507f0f82cb768ba877ad8036d5b821d07c7c53fe940902cec1842ae7a2d0cef3bced8383604051611367929190614175565b60405180910390a15050505050565b805160208183018101805160048252928201919093012091528054819061139c90613da3565b80601f01602080910402602001604051908101604052809291908181526020018280546113c890613da3565b80156114155780601f106113ea57610100808354040283529160200191611415565b820191906000526020600020905b8154815290600101906020018083116113f857829003601f168201915b5050506001909301549192505060ff1682565b6008816040516114389190613d87565b9081526020016040518091039020600101805461145490613da3565b905060000361149d5760405162461bcd60e51b8152602060048201526015602482015274141c9bd91d58dd08191bd95cdb89dd08195e1a5cdd605a1b6044820152606401610444565b60006008826040516114af9190613d87565b9081526020016040518091039020604051806080016040529081600082015481526020016001820180546114e290613da3565b80601f016020809104026020016040519081016040528092919081815260200182805461150e90613da3565b801561155b5780601f106115305761010080835404028352916020019161155b565b820191906000526020600020905b81548152906001019060200180831161153e57829003601f168201915b505050505081526020016002820154815260200160038201805461157e90613da3565b80601f01602080910402602001604051908101604052809291908181526020018280546115aa90613da3565b80156115f75780601f106115cc576101008083540402835291602001916115f7565b820191906000526020600020905b8154815290600101906020018083116115da57829003601f168201915b50505091909252505081516000908152600760205260408120818155929350905061162560018301826134ff565b600282016000905560038201600061163d91906134ff565b505060088260405161164f9190613d87565b908152604051908190036020019020600080825561167060018301826134ff565b600282016000905560038201600061168891906134ff565b50506009805490600061169a836141cb565b91905055507f959ad8b1befbeb936d9a91bf2f741a2f7a8fcf9a0cb38ece37ca3e9814041eab826040516116ce91906138ae565b60405180910390a15050565b600180546116e790613da3565b80601f016020809104026020016040519081016040528092919081815260200182805461171390613da3565b80156117605780601f1061173557610100808354040283529160200191611760565b820191906000526020600020905b81548152906001019060200180831161174357829003601f168201915b505050505081565b6007602052600090815260409020805460018201805491929161178a90613da3565b80601f01602080910402602001604051908101604052809291908181526020018280546117b690613da3565b80156118035780601f106117d857610100808354040283529160200191611803565b820191906000526020600020905b8154815290600101906020018083116117e657829003601f168201915b50505050509080600201549080600301805461181e90613da3565b80601f016020809104026020016040519081016040528092919081815260200182805461184a90613da3565b80156118975780601f1061186c57610100808354040283529160200191611897565b820191906000526020600020905b81548152906001019060200180831161187a57829003601f168201915b5050505050905084565b6008836040516118b19190613d87565b908152602001604051809103902060010180546118cd90613da3565b15905061191c5760405162461bcd60e51b815260206004820152601760248201527f50726f6475637420616c726561647920657869737473210000000000000000006044820152606401610444565b600082116119765760405162461bcd60e51b815260206004820152602160248201527f476976652061206e6f6e2d7a65726f2076616c756520666f7220616d6f756e746044820152602160f81b6064820152608401610444565b6040805160608082018352600082840181815283526020808401829052845160e081018652600160a08201818152600160fd1b60c084018190529083528751808901895282815280850191909152828401528187018490528185018490526080808301879052875190810188526009548082528185018c8152828a018c90529682018a9052855260079093529590922081518155925193949193909291820190611a209082613e50565b506040820151600282015560608201516003820190611a3f9082613e50565b50905050600060076000600954815260200190815260200160002060405180608001604052908160008201548152602001600182018054611a7f90613da3565b80601f0160208091040260200160405190810160405280929190818152602001828054611aab90613da3565b8015611af85780601f10611acd57610100808354040283529160200191611af8565b820191906000526020600020905b815481529060010190602001808311611adb57829003601f168201915b5050505050815260200160028201548152602001600382018054611b1b90613da3565b80601f0160208091040260200160405190810160405280929190818152602001828054611b4790613da3565b8015611b945780601f10611b6957610100808354040283529160200191611b94565b820191906000526020600020905b815481529060010190602001808311611b7757829003601f168201915b505050505081525050905080600887604051611bb09190613d87565b9081526040516020918190038201902082518155908201516001820190611bd79082613e50565b506040820151600282015560608201516003820190611bf69082613e50565b50508151600090815260066020818152604083208054600181018255908452922085518694509290910201908190611c2e9082613e50565b5060208201516001820190611c439082613e50565b5060408201516002820155606082015160038201556080820151805160048301908190611c709082613e50565b50602082015160018083018054909160ff1990911690836006811115611c9857611c986136e3565b0217905550505050506009547f259101de1f87b04b9ee0332ce5e3cc508014004bf283424aead6cd8692f5cf9887604051611cd391906138ae565b60405180910390a260098054906000611ceb83613fc4565b9190505550505050505050565b60006009548210611d445760405162461bcd60e51b8152602060048201526016602482015275141c9bd91d58dd08191bd95cc81b9bdd08195e1a5cdd60521b6044820152606401610444565b60006007600084815260200190815260200160002060405180608001604052908160008201548152602001600182018054611d7e90613da3565b80601f0160208091040260200160405190810160405280929190818152602001828054611daa90613da3565b8015611df75780601f10611dcc57610100808354040283529160200191611df7565b820191906000526020600020905b815481529060010190602001808311611dda57829003601f168201915b5050505050815260200160028201548152602001600382018054611e1a90613da3565b80601f0160208091040260200160405190810160405280929190818152602001828054611e4690613da3565b8015611e935780601f10611e6857610100808354040283529160200191611e93565b820191906000526020600020905b815481529060010190602001808311611e7657829003601f168201915b50505091909252505050604001519392505050565b6000546001600160a01b03163314611f155760405162461bcd60e51b815260206004820152602a60248201527f4f6e6c7920636f6e7472616374206f776e65722063616e2063616c6c207468696044820152693990333ab731ba34b7b760b11b6064820152608401610444565b6001600160a01b038116611f3b5760405162461bcd60e51b815260040161044490613dd7565b600080546001600160a01b0319166001600160a01b038316908117909155604080516060808252601b908201527f4f776e6572206368616e676564207375636365737366756c6c792100000000006080820152336020820152908101919091527ff86060286164733a3b0bae3ba4b62f85dc6020ba2ee440318bf5b6be6d0d93a89060a00160405180910390a150565b60026020526000908152604090208054819061139c90613da3565b600884604051611ff69190613d87565b9081526020016040518091039020600101805461201290613da3565b905060000361205c5760405162461bcd60e51b8152602060048201526016602482015275141c9bd91d58dd08191bd95cc81b9bdd08195e1a5cdd60521b6044820152606401610444565b82805190602001208480519060200120146120ec576008836040516120819190613d87565b9081526020016040518091039020600101805461209d90613da3565b1590506120ec5760405162461bcd60e51b815260206004820152601f60248201527f4e65772070726f64756374206e616d6520616c726561647920657869737473006044820152606401610444565b6000821161213c5760405162461bcd60e51b815260206004820152601760248201527f476976652061206e6f6e207a65726f20616d6f756e74210000000000000000006044820152606401610444565b600060088560405161214e9190613d87565b90815260200160405180910390206040518060800160405290816000820154815260200160018201805461218190613da3565b80601f01602080910402602001604051908101604052809291908181526020018280546121ad90613da3565b80156121fa5780601f106121cf576101008083540402835291602001916121fa565b820191906000526020600020905b8154815290600101906020018083116121dd57829003601f168201915b505050505081526020016002820154815260200160038201805461221d90613da3565b80601f016020809104026020016040519081016040528092919081815260200182805461224990613da3565b80156122965780601f1061226b57610100808354040283529160200191612296565b820191906000526020600020905b81548152906001019060200180831161227957829003601f168201915b505050919092525050506020808201868152604080840187905260608401869052835160009081526007909352909120825181559051919250829160018201906122e09082613e50565b5060408201516002820155606082015160038201906122ff9082613e50565b50905050806008866040516123149190613d87565b908152604051602091819003820190208251815590820151600182019061233b9082613e50565b50604082015160028201556060820151600382019061235a9082613e50565b509050507f4715e71e173cf1d6b6520d14d27288495caf68a395138f2c31bcd7c4c8a6938c8560405161136791906138ae565b6001803360009081526002602052604090206001015460ff1660048111156123b7576123b76136e3565b146123d45760405162461bcd60e51b815260040161044490613d50565b6004836040516123e49190613d87565b90815260405190819003602001902080546123fe90613da3565b1590506124455760405162461bcd60e51b8152602060048201526015602482015274456e7469747920616c72656164792065786973747360581b6044820152606401610444565b6040518060400160405280848152602001836006811115612468576124686136e3565b81525060048460405161247b9190613d87565b908152604051908190036020019020815181906124989082613e50565b50602082015160018083018054909160ff19909116908360068111156124c0576124c06136e3565b0217905550905050600560008360068111156124de576124de6136e3565b60068111156124ef576124ef6136e3565b8152602080820192909252604001600090812080546001810182559082529190200161251b8482613e50565b507f1d8d97f815529f4002c8af40c79fd5df57f9d8d426d5d60b300c9ae272db43e6838360405161254d9291906141e2565b60405180910390a1505050565b6006602052816000526040600020818154811061257657600080fd5b90600052602060002090600602016000915091505080600001805461259a90613da3565b80601f01602080910402602001604051908101604052809291908181526020018280546125c690613da3565b80156126135780601f106125e857610100808354040283529160200191612613565b820191906000526020600020905b8154815290600101906020018083116125f657829003601f168201915b50505050509080600101805461262890613da3565b80601f016020809104026020016040519081016040528092919081815260200182805461265490613da3565b80156126a15780601f10612676576101008083540402835291602001916126a1565b820191906000526020600020905b81548152906001019060200180831161268457829003601f168201915b505050505090806002015490806003015490806004016040518060400160405290816000820180546126d290613da3565b80601f01602080910402602001604051908101604052809291908181526020018280546126fe90613da3565b801561274b5780601f106127205761010080835404028352916020019161274b565b820191906000526020600020905b81548152906001019060200180831161272e57829003601f168201915b5050509183525050600182015460209091019060ff166006811115612772576127726136e3565b6006811115612783576127836136e3565b905250905085565b60035460609060009067ffffffffffffffff8111156127ac576127ac6135b3565b6040519080825280602002602001820160405280156127f257816020015b6040805180820190915260608152600060208201528152602001906001900390816127ca5790505b50905060005b60035481101561293c57600260006003838154811061281957612819613f69565b60009182526020808320909101546001600160a01b031683528201929092526040908101909120815180830190925280548290829061285790613da3565b80601f016020809104026020016040519081016040528092919081815260200182805461288390613da3565b80156128d05780601f106128a5576101008083540402835291602001916128d0565b820191906000526020600020905b8154815290600101906020018083116128b357829003601f168201915b5050509183525050600182015460209091019060ff1660048111156128f7576128f76136e3565b6004811115612908576129086136e3565b8152505082828151811061291e5761291e613f69565b6020026020010181905250808061293490613fc4565b9150506127f8565b50919050565b60608060006008846040516129579190613d87565b90815260200160405180910390206040518060800160405290816000820154815260200160018201805461298a90613da3565b80601f01602080910402602001604051908101604052809291908181526020018280546129b690613da3565b8015612a035780601f106129d857610100808354040283529160200191612a03565b820191906000526020600020905b8154815290600101906020018083116129e657829003601f168201915b5050505050815260200160028201548152602001600382018054612a2690613da3565b80601f0160208091040260200160405190810160405280929190818152602001828054612a5290613da3565b8015612a9f5780601f10612a7457610100808354040283529160200191612a9f565b820191906000526020600020905b815481529060010190602001808311612a8257829003601f168201915b505050505081525050905060006006600083600001518152602001908152602001600020805480602002602001604051908101604052809291908181526020016000905b82821015612d2557838290600052602060002090600602016040518060a0016040529081600082018054612b1690613da3565b80601f0160208091040260200160405190810160405280929190818152602001828054612b4290613da3565b8015612b8f5780601f10612b6457610100808354040283529160200191612b8f565b820191906000526020600020905b815481529060010190602001808311612b7257829003601f168201915b50505050508152602001600182018054612ba890613da3565b80601f0160208091040260200160405190810160405280929190818152602001828054612bd490613da3565b8015612c215780601f10612bf657610100808354040283529160200191612c21565b820191906000526020600020905b815481529060010190602001808311612c0457829003601f168201915b50505050508152602001600282015481526020016003820154815260200160048201604051806040016040529081600082018054612c5e90613da3565b80601f0160208091040260200160405190810160405280929190818152602001828054612c8a90613da3565b8015612cd75780601f10612cac57610100808354040283529160200191612cd7565b820191906000526020600020905b815481529060010190602001808311612cba57829003601f168201915b5050509183525050600182015460209091019060ff166006811115612cfe57612cfe6136e3565b6006811115612d0f57612d0f6136e3565b9052509052508152600190910190602001612ae3565b505060408051602081019091526000808252939450929150612d449050565b8260018451612d539190613f95565b81518110612d6357612d63613f69565b602002602001015160800151602001516006811115612d8457612d846136e3565b03612dc3575060408051808201909152601b81527f50726f64756374206973206a75737420696e697469616c697a656400000000006020820152612f82565b60018260018451612dd49190613f95565b81518110612de457612de4613f69565b602002602001015160800151602001516006811115612e0557612e056136e3565b03612e2a5760405180606001604052806025815260200161428f602591399050612f82565b60028260018451612e3b9190613f95565b81518110612e4b57612e4b613f69565b602002602001015160800151602001516006811115612e6c57612e6c6136e3565b03612e915760405180606001604052806029815260200161421e602991399050612f82565b60038260018451612ea29190613f95565b81518110612eb257612eb2613f69565b602002602001015160800151602001516006811115612ed357612ed36136e3565b03612ef85760405180606001604052806024815260200161426b602491399050612f82565b60048260018451612f099190613f95565b81518110612f1957612f19613f69565b602002602001015160800151602001516006811115612f3a57612f3a6136e3565b03612f5f57604051806060016040528060248152602001614247602491399050612f82565b5060408051808201909152600a815269536f752072786574616960b01b60208201525b909590945092505050565b6000600888604051612f9f9190613d87565b908152602001604051809103902060405180608001604052908160008201548152602001600182018054612fd290613da3565b80601f0160208091040260200160405190810160405280929190818152602001828054612ffe90613da3565b801561304b5780601f106130205761010080835404028352916020019161304b565b820191906000526020600020905b81548152906001019060200180831161302e57829003601f168201915b505050505081526020016002820154815260200160038201805461306e90613da3565b80601f016020809104026020016040519081016040528092919081815260200182805461309a90613da3565b80156130e75780601f106130bc576101008083540402835291602001916130e7565b820191906000526020600020905b8154815290600101906020018083116130ca57829003601f168201915b505050505081525050905060006040518060400160405280858152602001846006811115613117576131176136e3565b90526040805160a0810182528a815260208082018b90528183018a9052606082018990526080820184905285516000908152600680835293812080546001810182559082529190208251949550919384939190910290910190819061317c9082613e50565b50602082015160018201906131919082613e50565b50604082015160028201556060820151600382015560808201518051600483019081906131be9082613e50565b50602082015160018083018054909160ff19909116908360068111156131e6576131e66136e3565b02179055505050505050505050505050505050565b606060056000836006811115613213576132136136e3565b6006811115613224576132246136e3565b8152602001908152602001600020805490506000036132855760405162461bcd60e51b815260206004820152601a60248201527f456e74697479207479706520646f6573206e6f742065786973740000000000006044820152606401610444565b6005600083600681111561329b5761329b6136e3565b60068111156132ac576132ac6136e3565b8152602001908152602001600020805480602002602001604051908101604052809291908181526020016000905b828210156133865783829060005260206000200180546132f990613da3565b80601f016020809104026020016040519081016040528092919081815260200182805461332590613da3565b80156133725780601f1061334757610100808354040283529160200191613372565b820191906000526020600020905b81548152906001019060200180831161335557829003601f168201915b5050505050815260200190600101906132da565b505050509050919050565b606060008260048111156133a7576133a76136e3565b036133cc5750506040805180820190915260048152634e6f6e6560e01b602082015290565b60018260048111156133e0576133e06136e3565b0361340657505060408051808201909152600581526420b236b4b760d91b602082015290565b600282600481111561341a5761341a6136e3565b0361344357505060408051808201909152600881526729bab8383634b2b960c11b602082015290565b6003826004811115613457576134576136e3565b0361348c575050604080518082019091526014815273446973747269627574696f6e456d706c6f79656560601b602082015290565b60048260048111156134a0576134a06136e3565b036134c857505060408051808201909152600781526620bab234ba37b960c91b602082015290565b60405162461bcd60e51b815260206004820152600c60248201526b496e76616c696420526f6c6560a01b6044820152606401610444565b50805461350b90613da3565b6000825580601f1061351b575050565b601f016020900490600052602060002090810190613539919061353c565b50565b5b80821115613551576000815560010161353d565b5090565b80356001600160a01b038116811461356c57600080fd5b919050565b80356005811061356c57600080fd5b6000806040838503121561359357600080fd5b61359c83613555565b91506135aa60208401613571565b90509250929050565b634e487b7160e01b600052604160045260246000fd5b600082601f8301126135da57600080fd5b813567ffffffffffffffff808211156135f5576135f56135b3565b604051601f8301601f19908116603f0116810190828211818310171561361d5761361d6135b3565b8160405283815286602085880101111561363657600080fd5b836020870160208301376000602085830101528094505050505092915050565b60006020828403121561366857600080fd5b813567ffffffffffffffff81111561367f57600080fd5b61368b848285016135c9565b949350505050565b60005b838110156136ae578181015183820152602001613696565b50506000910152565b600081518084526136cf816020860160208601613693565b601f01601f19169290920160200192915050565b634e487b7160e01b600052602160045260246000fd5b60078110613709576137096136e3565b9052565b600081516040845261372260408501826136b7565b9050602083015161373660208601826136f9565b509392505050565b602081526000613751602083018461370d565b9392505050565b60008060006060848603121561376d57600080fd5b61377684613555565b9250602084013567ffffffffffffffff81111561379257600080fd5b61379e868287016135c9565b9250506137ad60408501613571565b90509250925092565b6000602082840312156137c857600080fd5b5035919050565b6000602082840312156137e157600080fd5b61375182613555565b6020815281516020820152600060208301516080604084015261381060a08401826136b7565b9050604084015160608401526060840151601f1984830301608085015261383782826136b7565b95945050505050565b60058110613709576137096136e3565b600081516040845261386560408501826136b7565b905060208301516137366020860182613840565b6020815260006137516020830184613850565b60408152600061389f60408301856136b7565b905061375160208301846136f9565b60208152600061375160208301846136b7565b8481526080602082015260006138da60808301866136b7565b84604084015282810360608401526138f281856136b7565b979650505050505050565b60008060006060848603121561391257600080fd5b833567ffffffffffffffff8082111561392a57600080fd5b613936878388016135c9565b945060208601359350604086013591508082111561395357600080fd5b50613960868287016135c9565b9150509250925092565b60408152600061397d60408301856136b7565b90506137516020830184613840565b600080600080608085870312156139a257600080fd5b843567ffffffffffffffff808211156139ba57600080fd5b6139c6888389016135c9565b955060208701359150808211156139dc57600080fd5b6139e8888389016135c9565b9450604087013593506060870135915080821115613a0557600080fd5b50613a12878288016135c9565b91505092959194509250565b80356007811061356c57600080fd5b60008060408385031215613a4057600080fd5b823567ffffffffffffffff811115613a5757600080fd5b613a63858286016135c9565b9250506135aa60208401613a1e565b60008060408385031215613a8557600080fd5b50508035926020909101359150565b60a081526000613aa760a08301886136b7565b8281036020840152613ab981886136b7565b90508560408401528460608401528281036080840152613ad9818561370d565b98975050505050505050565b6000602080830181845280855180835260408601915060408160051b870101925083870160005b82811015613b3a57603f19888603018452613b28858351613850565b94509285019290850190600101613b0c565b5092979650505050505050565b60006040808301818452808651808352606092508286019150828160051b8701016020808a0160005b84811015613bef57605f198a8503018652815160a08151818752613b96828801826136b7565b9150508482015186820386880152613bae82826136b7565b915050898201518a870152888201518987015260808083015192508682038188015250613bdb818361370d565b978501979550505090820190600101613b70565b505087820390880152613c0281896136b7565b9998505050505050505050565b600080600080600080600060e0888a031215613c2a57600080fd5b873567ffffffffffffffff80821115613c4257600080fd5b613c4e8b838c016135c9565b985060208a0135915080821115613c6457600080fd5b613c708b838c016135c9565b975060408a0135915080821115613c8657600080fd5b613c928b838c016135c9565b965060608a0135955060808a0135945060a08a0135915080821115613cb657600080fd5b50613cc38a828b016135c9565b925050613cd260c08901613a1e565b905092959891949750929550565b600060208284031215613cf257600080fd5b61375182613a1e565b6000602080830181845280855180835260408601915060408160051b870101925083870160005b82811015613b3a57603f19888603018452613d3e8583516136b7565b94509285019290850190600101613d22565b6020808252601d908201527f4163636573732064656e6965643a20696e636f727265637420726f6c65000000604082015260600190565b60008251613d99818460208701613693565b9190910192915050565b600181811c90821680613db757607f821691505b60208210810361293c57634e487b7160e01b600052602260045260246000fd5b60208082526010908201526f496e76616c696420616464726573732160801b604082015260600190565b601f821115613e4b57600081815260208120601f850160051c81016020861015613e285750805b601f850160051c820191505b81811015613e4757828155600101613e34565b5050505b505050565b815167ffffffffffffffff811115613e6a57613e6a6135b3565b613e7e81613e788454613da3565b84613e01565b602080601f831160018114613eb35760008415613e9b5750858301515b600019600386901b1c1916600185901b178555613e47565b600085815260208120601f198616915b82811015613ee257888601518255948401946001909101908401613ec3565b5085821015613f005787850151600019600388901b60f8161c191681555b5050505050600190811b01905550565b60608152601860608201527f55736572206164646564207375636365737366756c6c79210000000000000000608082015260a060208201526000613f5760a08301856136b7565b828103604084015261383781856136b7565b634e487b7160e01b600052603260045260246000fd5b634e487b7160e01b600052601160045260246000fd5b81810381811115613fa857613fa8613f7f565b92915050565b634e487b7160e01b600052603160045260246000fd5b600060018201613fd657613fd6613f7f565b5060010190565b60608152601a60608201527f557365722064656c65746564207375636365737366756c6c7921000000000000608082015260a060208201526000613f5760a08301856136b7565b600080835461403281613da3565b6001828116801561404a576001811461405f5761408e565b60ff198416875282151583028701945061408e565b8760005260208060002060005b858110156140855781548a82015290840190820161406c565b50505082870194505b50929695505050505050565b8181036140a5575050565b6140af8254613da3565b67ffffffffffffffff8111156140c7576140c76135b3565b6140d581613e788454613da3565b6000601f82116001811461410957600083156140f15750848201545b600019600385901b1c1916600184901b17845561416e565b600085815260209020601f19841690600086815260209020845b838110156141435782860154825560019586019590910190602001614123565b50858310156141615781850154600019600388901b60f8161c191681555b50505060018360011b0184555b5050505050565b60608152601c60608201527f456e746974792064656c65746564207375636365737366756c6c792100000000608082015260a0602082015260006141bc60a08301856136b7565b905061375160408301846136f9565b6000816141da576141da613f7f565b506000190190565b6060815260116060820152704e657720656e746974792061646465642160781b608082015260a0602082015260006141bc60a08301856136b756fe50726f6475637420697320696e20746865207374617465206f66205472616e73706f72746174696f6e50726f6475637420697320696e20746865207374617465206f66205061636b6167696e6750726f6475637420697320696e20746865207374617465206f662057617265686f75736550726f6475637420697320696e20746865207374617465206f662050726f64756374696f6ea26469706673582212207df38a54e4dc9d3862737ad45bc540a5f65ace068a09ac7d85b0b1835dea232a64736f6c63430008130033",
					"opcodes": "PUSH1 0xC0 PUSH1 0x40 MSTORE PUSH1 0x8 PUSH1 0x80 SWAP1 DUP2 MSTORE PUSH8 0x4D4754205445414D PUSH1 0xC0 SHL PUSH1 0xA0 MSTORE PUSH1 0x1 SWAP1 PUSH3 0x29 SWAP1 DUP3 PUSH3 0x24A JUMP JUMPDEST POP CALLVALUE DUP1 ISZERO PUSH3 0x37 JUMPI PUSH1 0x0 DUP1 REVERT JUMPDEST POP PUSH1 0x0 DUP1 SLOAD PUSH1 0x1 PUSH1 0x1 PUSH1 0xA0 SHL SUB NOT AND CALLER OR SWAP1 SSTORE PUSH1 0x40 DUP1 MLOAD DUP1 DUP3 ADD SWAP1 SWAP2 MSTORE PUSH1 0x1 DUP1 SLOAD DUP3 SWAP2 SWAP1 PUSH3 0x66 SWAP1 PUSH3 0x1BB JUMP JUMPDEST DUP1 PUSH1 0x1F ADD PUSH1 0x20 DUP1 SWAP2 DIV MUL PUSH1 0x20 ADD PUSH1 0x40 MLOAD SWAP1 DUP2 ADD PUSH1 0x40 MSTORE DUP1 SWAP3 SWAP2 SWAP1 DUP2 DUP2 MSTORE PUSH1 0x20 ADD DUP3 DUP1 SLOAD PUSH3 0x94 SWAP1 PUSH3 0x1BB JUMP JUMPDEST DUP1 ISZERO PUSH3 0xE5 JUMPI DUP1 PUSH1 0x1F LT PUSH3 0xB9 JUMPI PUSH2 0x100 DUP1 DUP4 SLOAD DIV MUL DUP4 MSTORE SWAP2 PUSH1 0x20 ADD SWAP2 PUSH3 0xE5 JUMP JUMPDEST DUP3 ADD SWAP2 SWAP1 PUSH1 0x0 MSTORE PUSH1 0x20 PUSH1 0x0 KECCAK256 SWAP1 JUMPDEST DUP2 SLOAD DUP2 MSTORE SWAP1 PUSH1 0x1 ADD SWAP1 PUSH1 0x20 ADD DUP1 DUP4 GT PUSH3 0xC7 JUMPI DUP3 SWAP1 SUB PUSH1 0x1F AND DUP3 ADD SWAP2 JUMPDEST POP POP POP SWAP2 DUP4 MSTORE POP POP PUSH1 0x20 ADD PUSH1 0x1 SWAP1 MSTORE PUSH1 0x0 DUP1 SLOAD PUSH1 0x1 PUSH1 0x1 PUSH1 0xA0 SHL SUB AND DUP2 MSTORE PUSH1 0x2 PUSH1 0x20 MSTORE PUSH1 0x40 SWAP1 KECCAK256 DUP2 MLOAD DUP2 SWAP1 PUSH3 0x11C SWAP1 DUP3 PUSH3 0x24A JUMP JUMPDEST POP PUSH1 0x20 DUP3 ADD MLOAD PUSH1 0x1 DUP1 DUP4 ADD DUP1 SLOAD SWAP1 SWAP2 PUSH1 0xFF NOT SWAP1 SWAP2 AND SWAP1 DUP4 PUSH1 0x4 DUP2 GT ISZERO PUSH3 0x147 JUMPI PUSH3 0x147 PUSH3 0x316 JUMP JUMPDEST MUL OR SWAP1 SSTORE POP POP PUSH1 0x0 DUP1 SLOAD PUSH1 0x3 DUP1 SLOAD PUSH1 0x1 DUP2 ADD DUP3 SSTORE SWAP3 MSTORE PUSH32 0xC2575A0E9E593C00F959F8C92F12DB2869C3395A3B0502D05E2516446F71F85B SWAP1 SWAP2 ADD DUP1 SLOAD PUSH1 0x1 PUSH1 0x1 PUSH1 0xA0 SHL SUB NOT AND PUSH1 0x1 PUSH1 0x1 PUSH1 0xA0 SHL SUB SWAP1 SWAP3 AND SWAP2 SWAP1 SWAP2 OR SWAP1 SSTORE POP PUSH3 0x32C JUMP JUMPDEST PUSH4 0x4E487B71 PUSH1 0xE0 SHL PUSH1 0x0 MSTORE PUSH1 0x41 PUSH1 0x4 MSTORE PUSH1 0x24 PUSH1 0x0 REVERT JUMPDEST PUSH1 0x1 DUP2 DUP2 SHR SWAP1 DUP3 AND DUP1 PUSH3 0x1D0 JUMPI PUSH1 0x7F DUP3 AND SWAP2 POP JUMPDEST PUSH1 0x20 DUP3 LT DUP2 SUB PUSH3 0x1F1 JUMPI PUSH4 0x4E487B71 PUSH1 0xE0 SHL PUSH1 0x0 MSTORE PUSH1 0x22 PUSH1 0x4 MSTORE PUSH1 0x24 PUSH1 0x0 REVERT JUMPDEST POP SWAP2 SWAP1 POP JUMP JUMPDEST PUSH1 0x1F DUP3 GT ISZERO PUSH3 0x245 JUMPI PUSH1 0x0 DUP2 DUP2 MSTORE PUSH1 0x20 DUP2 KECCAK256 PUSH1 0x1F DUP6 ADD PUSH1 0x5 SHR DUP2 ADD PUSH1 0x20 DUP7 LT ISZERO PUSH3 0x220 JUMPI POP DUP1 JUMPDEST PUSH1 0x1F DUP6 ADD PUSH1 0x5 SHR DUP3 ADD SWAP2 POP JUMPDEST DUP2 DUP2 LT ISZERO PUSH3 0x241 JUMPI DUP3 DUP2 SSTORE PUSH1 0x1 ADD PUSH3 0x22C JUMP JUMPDEST POP POP POP JUMPDEST POP POP POP JUMP JUMPDEST DUP2 MLOAD PUSH1 0x1 PUSH1 0x1 PUSH1 0x40 SHL SUB DUP2 GT ISZERO PUSH3 0x266 JUMPI PUSH3 0x266 PUSH3 0x1A5 JUMP JUMPDEST PUSH3 0x27E DUP2 PUSH3 0x277 DUP5 SLOAD PUSH3 0x1BB JUMP JUMPDEST DUP5 PUSH3 0x1F7 JUMP JUMPDEST PUSH1 0x20 DUP1 PUSH1 0x1F DUP4 GT PUSH1 0x1 DUP2 EQ PUSH3 0x2B6 JUMPI PUSH1 0x0 DUP5 ISZERO PUSH3 0x29D JUMPI POP DUP6 DUP4 ADD MLOAD JUMPDEST PUSH1 0x0 NOT PUSH1 0x3 DUP7 SWAP1 SHL SHR NOT AND PUSH1 0x1 DUP6 SWAP1 SHL OR DUP6 SSTORE PUSH3 0x241 JUMP JUMPDEST PUSH1 0x0 DUP6 DUP2 MSTORE PUSH1 0x20 DUP2 KECCAK256 PUSH1 0x1F NOT DUP7 AND SWAP2 JUMPDEST DUP3 DUP2 LT ISZERO PUSH3 0x2E7 JUMPI DUP9 DUP7 ADD MLOAD DUP3 SSTORE SWAP5 DUP5 ADD SWAP5 PUSH1 0x1 SWAP1 SWAP2 ADD SWAP1 DUP5 ADD PUSH3 0x2C6 JUMP JUMPDEST POP DUP6 DUP3 LT ISZERO PUSH3 0x306 JUMPI DUP8 DUP6 ADD MLOAD PUSH1 0x0 NOT PUSH1 0x3 DUP9 SWAP1 SHL PUSH1 0xF8 AND SHR NOT AND DUP2 SSTORE JUMPDEST POP POP POP POP POP PUSH1 0x1 SWAP1 DUP2 SHL ADD SWAP1 SSTORE POP JUMP JUMPDEST PUSH4 0x4E487B71 PUSH1 0xE0 SHL PUSH1 0x0 MSTORE PUSH1 0x21 PUSH1 0x4 MSTORE PUSH1 0x24 PUSH1 0x0 REVERT JUMPDEST PUSH2 0x42E9 DUP1 PUSH3 0x33C PUSH1 0x0 CODECOPY PUSH1 0x0 RETURN INVALID PUSH1 0x80 PUSH1 0x40 MSTORE CALLVALUE DUP1 ISZERO PUSH2 0x10 JUMPI PUSH1 0x0 DUP1 REVERT JUMPDEST POP PUSH1 0x4 CALLDATASIZE LT PUSH2 0x173 JUMPI PUSH1 0x0 CALLDATALOAD PUSH1 0xE0 SHR DUP1 PUSH4 0x8DA5CB5B GT PUSH2 0xDE JUMPI DUP1 PUSH4 0xB237046E GT PUSH2 0x97 JUMPI DUP1 PUSH4 0xE2842D79 GT PUSH2 0x71 JUMPI DUP1 PUSH4 0xE2842D79 EQ PUSH2 0x394 JUMPI DUP1 PUSH4 0xE3E550A9 EQ PUSH2 0x3A9 JUMPI DUP1 PUSH4 0xE64DC2A3 EQ PUSH2 0x3CA JUMPI DUP1 PUSH4 0xF61AF8AB EQ PUSH2 0x3DD JUMPI PUSH1 0x0 DUP1 REVERT JUMPDEST DUP1 PUSH4 0xB237046E EQ PUSH2 0x354 JUMPI DUP1 PUSH4 0xC2B16BF2 EQ PUSH2 0x367 JUMPI DUP1 PUSH4 0xE0F6EF87 EQ PUSH2 0x38B JUMPI PUSH1 0x0 DUP1 REVERT JUMPDEST DUP1 PUSH4 0x8DA5CB5B EQ PUSH2 0x2C6 JUMPI DUP1 PUSH4 0x8F29695A EQ PUSH2 0x2D9 JUMPI DUP1 PUSH4 0x9980EC86 EQ PUSH2 0x2EC JUMPI DUP1 PUSH4 0xA6F9DAE1 EQ PUSH2 0x30D JUMPI DUP1 PUSH4 0xA87430BA EQ PUSH2 0x320 JUMPI DUP1 PUSH4 0xAF062A0C EQ PUSH2 0x341 JUMPI PUSH1 0x0 DUP1 REVERT JUMPDEST DUP1 PUSH4 0x69C212F6 GT PUSH2 0x130 JUMPI DUP1 PUSH4 0x69C212F6 EQ PUSH2 0x227 JUMPI DUP1 PUSH4 0x6D960BC3 EQ PUSH2 0x247 JUMPI DUP1 PUSH4 0x706CED5B EQ PUSH2 0x25A JUMPI DUP1 PUSH4 0x72139D9A EQ PUSH2 0x27B JUMPI DUP1 PUSH4 0x734E1AC3 EQ PUSH2 0x28E JUMPI DUP1 PUSH4 0x7ACC0B20 EQ PUSH2 0x2A3 JUMPI PUSH1 0x0 DUP1 REVERT JUMPDEST DUP1 PUSH4 0x3A69611 EQ PUSH2 0x178 JUMPI DUP1 PUSH4 0x3E88A4E2 EQ PUSH2 0x18D JUMPI DUP1 PUSH4 0x40D26854 EQ PUSH2 0x1B6 JUMPI DUP1 PUSH4 0x502C9BD5 EQ PUSH2 0x1C9 JUMPI DUP1 PUSH4 0x5C60F226 EQ PUSH2 0x1F4 JUMPI DUP1 PUSH4 0x68111CCE EQ PUSH2 0x207 JUMPI JUMPDEST PUSH1 0x0 DUP1 REVERT JUMPDEST PUSH2 0x18B PUSH2 0x186 CALLDATASIZE PUSH1 0x4 PUSH2 0x3580 JUMP JUMPDEST PUSH2 0x3FD JUMP JUMPDEST STOP JUMPDEST PUSH2 0x1A0 PUSH2 0x19B CALLDATASIZE PUSH1 0x4 PUSH2 0x3656 JUMP JUMPDEST PUSH2 0x5D4 JUMP JUMPDEST PUSH1 0x40 MLOAD PUSH2 0x1AD SWAP2 SWAP1 PUSH2 0x373E JUMP JUMPDEST PUSH1 0x40 MLOAD DUP1 SWAP2 SUB SWAP1 RETURN JUMPDEST PUSH2 0x18B PUSH2 0x1C4 CALLDATASIZE PUSH1 0x4 PUSH2 0x3758 JUMP JUMPDEST PUSH2 0x755 JUMP JUMPDEST PUSH2 0x1DC PUSH2 0x1D7 CALLDATASIZE PUSH1 0x4 PUSH2 0x37B6 JUMP JUMPDEST PUSH2 0x9B5 JUMP JUMPDEST PUSH1 0x40 MLOAD PUSH1 0x1 PUSH1 0x1 PUSH1 0xA0 SHL SUB SWAP1 SWAP2 AND DUP2 MSTORE PUSH1 0x20 ADD PUSH2 0x1AD JUMP JUMPDEST PUSH2 0x18B PUSH2 0x202 CALLDATASIZE PUSH1 0x4 PUSH2 0x37CF JUMP JUMPDEST PUSH2 0x9DF JUMP JUMPDEST PUSH2 0x21A PUSH2 0x215 CALLDATASIZE PUSH1 0x4 PUSH2 0x3656 JUMP JUMPDEST PUSH2 0xD06 JUMP JUMPDEST PUSH1 0x40 MLOAD PUSH2 0x1AD SWAP2 SWAP1 PUSH2 0x37EA JUMP JUMPDEST PUSH2 0x23A PUSH2 0x235 CALLDATASIZE PUSH1 0x4 PUSH2 0x37CF JUMP JUMPDEST PUSH2 0xF0E JUMP JUMPDEST PUSH1 0x40 MLOAD PUSH2 0x1AD SWAP2 SWAP1 PUSH2 0x3879 JUMP JUMPDEST PUSH2 0x18B PUSH2 0x255 CALLDATASIZE PUSH1 0x4 PUSH2 0x3656 JUMP JUMPDEST PUSH2 0x1056 JUMP JUMPDEST PUSH2 0x26D PUSH2 0x268 CALLDATASIZE PUSH1 0x4 PUSH2 0x3656 JUMP JUMPDEST PUSH2 0x1376 JUMP JUMPDEST PUSH1 0x40 MLOAD PUSH2 0x1AD SWAP3 SWAP2 SWAP1 PUSH2 0x388C JUMP JUMPDEST PUSH2 0x18B PUSH2 0x289 CALLDATASIZE PUSH1 0x4 PUSH2 0x3656 JUMP JUMPDEST PUSH2 0x1428 JUMP JUMPDEST PUSH2 0x296 PUSH2 0x16DA JUMP JUMPDEST PUSH1 0x40 MLOAD PUSH2 0x1AD SWAP2 SWAP1 PUSH2 0x38AE JUMP JUMPDEST PUSH2 0x2B6 PUSH2 0x2B1 CALLDATASIZE PUSH1 0x4 PUSH2 0x37B6 JUMP JUMPDEST PUSH2 0x1768 JUMP JUMPDEST PUSH1 0x40 MLOAD PUSH2 0x1AD SWAP5 SWAP4 SWAP3 SWAP2 SWAP1 PUSH2 0x38C1 JUMP JUMPDEST PUSH1 0x0 SLOAD PUSH2 0x1DC SWAP1 PUSH1 0x1 PUSH1 0x1 PUSH1 0xA0 SHL SUB AND DUP2 JUMP JUMPDEST PUSH2 0x18B PUSH2 0x2E7 CALLDATASIZE PUSH1 0x4 PUSH2 0x38FD JUMP JUMPDEST PUSH2 0x18A1 JUMP JUMPDEST PUSH2 0x2FF PUSH2 0x2FA CALLDATASIZE PUSH1 0x4 PUSH2 0x37B6 JUMP JUMPDEST PUSH2 0x1CF8 JUMP JUMPDEST PUSH1 0x40 MLOAD SWAP1 DUP2 MSTORE PUSH1 0x20 ADD PUSH2 0x1AD JUMP JUMPDEST PUSH2 0x18B PUSH2 0x31B CALLDATASIZE PUSH1 0x4 PUSH2 0x37CF JUMP JUMPDEST PUSH2 0x1EA8 JUMP JUMPDEST PUSH2 0x333 PUSH2 0x32E CALLDATASIZE PUSH1 0x4 PUSH2 0x37CF JUMP JUMPDEST PUSH2 0x1FCB JUMP JUMPDEST PUSH1 0x40 MLOAD PUSH2 0x1AD SWAP3 SWAP2 SWAP1 PUSH2 0x396A JUMP JUMPDEST PUSH2 0x18B PUSH2 0x34F CALLDATASIZE PUSH1 0x4 PUSH2 0x398C JUMP JUMPDEST PUSH2 0x1FE6 JUMP JUMPDEST PUSH2 0x18B PUSH2 0x362 CALLDATASIZE PUSH1 0x4 PUSH2 0x3A2D JUMP JUMPDEST PUSH2 0x238D JUMP JUMPDEST PUSH2 0x37A PUSH2 0x375 CALLDATASIZE PUSH1 0x4 PUSH2 0x3A72 JUMP JUMPDEST PUSH2 0x255A JUMP JUMPDEST PUSH1 0x40 MLOAD PUSH2 0x1AD SWAP6 SWAP5 SWAP4 SWAP3 SWAP2 SWAP1 PUSH2 0x3A94 JUMP JUMPDEST PUSH2 0x2FF PUSH1 0x9 SLOAD DUP2 JUMP JUMPDEST PUSH2 0x39C PUSH2 0x278B JUMP JUMPDEST PUSH1 0x40 MLOAD PUSH2 0x1AD SWAP2 SWAP1 PUSH2 0x3AE5 JUMP JUMPDEST PUSH2 0x3BC PUSH2 0x3B7 CALLDATASIZE PUSH1 0x4 PUSH2 0x3656 JUMP JUMPDEST PUSH2 0x2942 JUMP JUMPDEST PUSH1 0x40 MLOAD PUSH2 0x1AD SWAP3 SWAP2 SWAP1 PUSH2 0x3B47 JUMP JUMPDEST PUSH2 0x18B PUSH2 0x3D8 CALLDATASIZE PUSH1 0x4 PUSH2 0x3C0F JUMP JUMPDEST PUSH2 0x2F8D JUMP JUMPDEST PUSH2 0x3F0 PUSH2 0x3EB CALLDATASIZE PUSH1 0x4 PUSH2 0x3CE0 JUMP JUMPDEST PUSH2 0x31FB JUMP JUMPDEST PUSH1 0x40 MLOAD PUSH2 0x1AD SWAP2 SWAP1 PUSH2 0x3CFB JUMP JUMPDEST PUSH1 0x1 DUP1 CALLER PUSH1 0x0 SWAP1 DUP2 MSTORE PUSH1 0x2 PUSH1 0x20 MSTORE PUSH1 0x40 SWAP1 KECCAK256 PUSH1 0x1 ADD SLOAD PUSH1 0xFF AND PUSH1 0x4 DUP2 GT ISZERO PUSH2 0x427 JUMPI PUSH2 0x427 PUSH2 0x36E3 JUMP JUMPDEST EQ PUSH2 0x44D JUMPI PUSH1 0x40 MLOAD PUSH3 0x461BCD PUSH1 0xE5 SHL DUP2 MSTORE PUSH1 0x4 ADD PUSH2 0x444 SWAP1 PUSH2 0x3D50 JUMP JUMPDEST PUSH1 0x40 MLOAD DUP1 SWAP2 SUB SWAP1 REVERT JUMPDEST PUSH1 0x0 DUP3 PUSH1 0x4 DUP2 GT ISZERO PUSH2 0x461 JUMPI PUSH2 0x461 PUSH2 0x36E3 JUMP JUMPDEST LT ISZERO DUP1 ISZERO PUSH2 0x481 JUMPI POP PUSH1 0x4 DUP3 PUSH1 0x4 DUP2 GT ISZERO PUSH2 0x47E JUMPI PUSH2 0x47E PUSH2 0x36E3 JUMP JUMPDEST GT ISZERO JUMPDEST PUSH2 0x4C1 JUMPI PUSH1 0x40 MLOAD PUSH3 0x461BCD PUSH1 0xE5 SHL DUP2 MSTORE PUSH1 0x20 PUSH1 0x4 DUP3 ADD MSTORE PUSH1 0x11 PUSH1 0x24 DUP3 ADD MSTORE PUSH17 0x149BDB19481A5CC81B9BDD081D985B1A59 PUSH1 0x7A SHL PUSH1 0x44 DUP3 ADD MSTORE PUSH1 0x64 ADD PUSH2 0x444 JUMP JUMPDEST PUSH1 0x1 PUSH1 0x1 PUSH1 0xA0 SHL SUB DUP4 AND PUSH2 0x509 JUMPI PUSH1 0x40 MLOAD PUSH3 0x461BCD PUSH1 0xE5 SHL DUP2 MSTORE PUSH1 0x20 PUSH1 0x4 DUP3 ADD MSTORE PUSH1 0xF PUSH1 0x24 DUP3 ADD MSTORE PUSH15 0x496E76616C69642061646472657373 PUSH1 0x88 SHL PUSH1 0x44 DUP3 ADD MSTORE PUSH1 0x64 ADD PUSH2 0x444 JUMP JUMPDEST DUP2 PUSH1 0x4 DUP2 GT ISZERO PUSH2 0x51B JUMPI PUSH2 0x51B PUSH2 0x36E3 JUMP JUMPDEST PUSH1 0x1 PUSH1 0x1 PUSH1 0xA0 SHL SUB DUP5 AND PUSH1 0x0 SWAP1 DUP2 MSTORE PUSH1 0x2 PUSH1 0x20 MSTORE PUSH1 0x40 SWAP1 KECCAK256 PUSH1 0x1 ADD SLOAD PUSH1 0xFF AND PUSH1 0x4 DUP2 GT ISZERO PUSH2 0x54B JUMPI PUSH2 0x54B PUSH2 0x36E3 JUMP JUMPDEST SUB PUSH2 0x590 JUMPI PUSH1 0x40 MLOAD PUSH3 0x461BCD PUSH1 0xE5 SHL DUP2 MSTORE PUSH1 0x20 PUSH1 0x4 DUP3 ADD MSTORE PUSH1 0x15 PUSH1 0x24 DUP3 ADD MSTORE PUSH21 0x416C726561647920686173207468697320726F6C65 PUSH1 0x58 SHL PUSH1 0x44 DUP3 ADD MSTORE PUSH1 0x64 ADD PUSH2 0x444 JUMP JUMPDEST PUSH1 0x1 PUSH1 0x1 PUSH1 0xA0 SHL SUB DUP4 AND PUSH1 0x0 SWAP1 DUP2 MSTORE PUSH1 0x2 PUSH1 0x20 MSTORE PUSH1 0x40 SWAP1 KECCAK256 PUSH1 0x1 SWAP1 DUP2 ADD DUP1 SLOAD DUP5 SWAP3 PUSH1 0xFF NOT SWAP1 SWAP2 AND SWAP1 DUP4 PUSH1 0x4 DUP2 GT ISZERO PUSH2 0x5CA JUMPI PUSH2 0x5CA PUSH2 0x36E3 JUMP JUMPDEST MUL OR SWAP1 SSTORE POP POP POP POP JUMP JUMPDEST PUSH1 0x40 DUP1 MLOAD DUP1 DUP3 ADD SWAP1 SWAP2 MSTORE PUSH1 0x60 DUP2 MSTORE PUSH1 0x0 PUSH1 0x20 DUP3 ADD MSTORE PUSH1 0x4 DUP3 PUSH1 0x40 MLOAD PUSH2 0x5F9 SWAP2 SWAP1 PUSH2 0x3D87 JUMP JUMPDEST SWAP1 DUP2 MSTORE PUSH1 0x40 MLOAD SWAP1 DUP2 SWAP1 SUB PUSH1 0x20 ADD SWAP1 KECCAK256 DUP1 SLOAD PUSH2 0x613 SWAP1 PUSH2 0x3DA3 JUMP JUMPDEST SWAP1 POP PUSH1 0x0 SUB PUSH2 0x65C JUMPI PUSH1 0x40 MLOAD PUSH3 0x461BCD PUSH1 0xE5 SHL DUP2 MSTORE PUSH1 0x20 PUSH1 0x4 DUP3 ADD MSTORE PUSH1 0x15 PUSH1 0x24 DUP3 ADD MSTORE PUSH21 0x115B9D1A5D1E48191BD95CC81B9BDD08195E1A5CDD PUSH1 0x5A SHL PUSH1 0x44 DUP3 ADD MSTORE PUSH1 0x64 ADD PUSH2 0x444 JUMP JUMPDEST PUSH1 0x0 PUSH1 0x4 DUP4 PUSH1 0x40 MLOAD PUSH2 0x66E SWAP2 SWAP1 PUSH2 0x3D87 JUMP JUMPDEST SWAP1 DUP2 MSTORE PUSH1 0x20 ADD PUSH1 0x40 MLOAD DUP1 SWAP2 SUB SWAP1 KECCAK256 SWAP1 POP DUP1 PUSH1 0x40 MLOAD DUP1 PUSH1 0x40 ADD PUSH1 0x40 MSTORE SWAP1 DUP2 PUSH1 0x0 DUP3 ADD DUP1 SLOAD PUSH2 0x69A SWAP1 PUSH2 0x3DA3 JUMP JUMPDEST DUP1 PUSH1 0x1F ADD PUSH1 0x20 DUP1 SWAP2 DIV MUL PUSH1 0x20 ADD PUSH1 0x40 MLOAD SWAP1 DUP2 ADD PUSH1 0x40 MSTORE DUP1 SWAP3 SWAP2 SWAP1 DUP2 DUP2 MSTORE PUSH1 0x20 ADD DUP3 DUP1 SLOAD PUSH2 0x6C6 SWAP1 PUSH2 0x3DA3 JUMP JUMPDEST DUP1 ISZERO PUSH2 0x713 JUMPI DUP1 PUSH1 0x1F LT PUSH2 0x6E8 JUMPI PUSH2 0x100 DUP1 DUP4 SLOAD DIV MUL DUP4 MSTORE SWAP2 PUSH1 0x20 ADD SWAP2 PUSH2 0x713 JUMP JUMPDEST DUP3 ADD SWAP2 SWAP1 PUSH1 0x0 MSTORE PUSH1 0x20 PUSH1 0x0 KECCAK256 SWAP1 JUMPDEST DUP2 SLOAD DUP2 MSTORE SWAP1 PUSH1 0x1 ADD SWAP1 PUSH1 0x20 ADD DUP1 DUP4 GT PUSH2 0x6F6 JUMPI DUP3 SWAP1 SUB PUSH1 0x1F AND DUP3 ADD SWAP2 JUMPDEST POP POP POP SWAP2 DUP4 MSTORE POP POP PUSH1 0x1 DUP3 ADD SLOAD PUSH1 0x20 SWAP1 SWAP2 ADD SWAP1 PUSH1 0xFF AND PUSH1 0x6 DUP2 GT ISZERO PUSH2 0x73A JUMPI PUSH2 0x73A PUSH2 0x36E3 JUMP JUMPDEST PUSH1 0x6 DUP2 GT ISZERO PUSH2 0x74B JUMPI PUSH2 0x74B PUSH2 0x36E3 JUMP JUMPDEST SWAP1 MSTORE POP SWAP4 SWAP3 POP POP POP JUMP JUMPDEST PUSH1 0x1 DUP1 CALLER PUSH1 0x0 SWAP1 DUP2 MSTORE PUSH1 0x2 PUSH1 0x20 MSTORE PUSH1 0x40 SWAP1 KECCAK256 PUSH1 0x1 ADD SLOAD PUSH1 0xFF AND PUSH1 0x4 DUP2 GT ISZERO PUSH2 0x77F JUMPI PUSH2 0x77F PUSH2 0x36E3 JUMP JUMPDEST EQ PUSH2 0x79C JUMPI PUSH1 0x40 MLOAD PUSH3 0x461BCD PUSH1 0xE5 SHL DUP2 MSTORE PUSH1 0x4 ADD PUSH2 0x444 SWAP1 PUSH2 0x3D50 JUMP JUMPDEST PUSH1 0x1 PUSH1 0x1 PUSH1 0xA0 SHL SUB DUP5 AND PUSH2 0x7C2 JUMPI PUSH1 0x40 MLOAD PUSH3 0x461BCD PUSH1 0xE5 SHL DUP2 MSTORE PUSH1 0x4 ADD PUSH2 0x444 SWAP1 PUSH2 0x3DD7 JUMP JUMPDEST PUSH1 0x1 PUSH1 0x1 PUSH1 0xA0 SHL SUB DUP5 AND PUSH1 0x0 SWAP1 DUP2 MSTORE PUSH1 0x2 PUSH1 0x20 MSTORE PUSH1 0x40 SWAP1 KECCAK256 DUP1 SLOAD PUSH2 0x7E5 SWAP1 PUSH2 0x3DA3 JUMP JUMPDEST ISZERO SWAP1 POP PUSH2 0x82B JUMPI PUSH1 0x40 MLOAD PUSH3 0x461BCD PUSH1 0xE5 SHL DUP2 MSTORE PUSH1 0x20 PUSH1 0x4 DUP3 ADD MSTORE PUSH1 0x14 PUSH1 0x24 DUP3 ADD MSTORE PUSH20 0x5573657220616C72656164792065786973747321 PUSH1 0x60 SHL PUSH1 0x44 DUP3 ADD MSTORE PUSH1 0x64 ADD PUSH2 0x444 JUMP JUMPDEST PUSH1 0x0 DUP3 PUSH1 0x4 DUP2 GT ISZERO PUSH2 0x83F JUMPI PUSH2 0x83F PUSH2 0x36E3 JUMP JUMPDEST LT ISZERO DUP1 ISZERO PUSH2 0x85F JUMPI POP PUSH1 0x4 DUP3 PUSH1 0x4 DUP2 GT ISZERO PUSH2 0x85C JUMPI PUSH2 0x85C PUSH2 0x36E3 JUMP JUMPDEST GT ISZERO JUMPDEST PUSH2 0x89B JUMPI PUSH1 0x40 MLOAD PUSH3 0x461BCD PUSH1 0xE5 SHL DUP2 MSTORE PUSH1 0x20 PUSH1 0x4 DUP3 ADD MSTORE PUSH1 0xD PUSH1 0x24 DUP3 ADD MSTORE PUSH13 0x496E76616C696420726F6C6521 PUSH1 0x98 SHL PUSH1 0x44 DUP3 ADD MSTORE PUSH1 0x64 ADD PUSH2 0x444 JUMP JUMPDEST PUSH1 0x40 MLOAD DUP1 PUSH1 0x40 ADD PUSH1 0x40 MSTORE DUP1 DUP5 DUP2 MSTORE PUSH1 0x20 ADD DUP4 PUSH1 0x4 DUP2 GT ISZERO PUSH2 0x8BE JUMPI PUSH2 0x8BE PUSH2 0x36E3 JUMP JUMPDEST SWAP1 MSTORE PUSH1 0x1 PUSH1 0x1 PUSH1 0xA0 SHL SUB DUP6 AND PUSH1 0x0 SWAP1 DUP2 MSTORE PUSH1 0x2 PUSH1 0x20 MSTORE PUSH1 0x40 SWAP1 KECCAK256 DUP2 MLOAD DUP2 SWAP1 PUSH2 0x8E6 SWAP1 DUP3 PUSH2 0x3E50 JUMP JUMPDEST POP PUSH1 0x20 DUP3 ADD MLOAD PUSH1 0x1 DUP1 DUP4 ADD DUP1 SLOAD SWAP1 SWAP2 PUSH1 0xFF NOT SWAP1 SWAP2 AND SWAP1 DUP4 PUSH1 0x4 DUP2 GT ISZERO PUSH2 0x90E JUMPI PUSH2 0x90E PUSH2 0x36E3 JUMP JUMPDEST MUL OR SWAP1 SSTORE POP POP PUSH1 0x3 DUP1 SLOAD PUSH1 0x1 DUP2 ADD DUP3 SSTORE PUSH1 0x0 SWAP2 DUP3 MSTORE PUSH32 0xC2575A0E9E593C00F959F8C92F12DB2869C3395A3B0502D05E2516446F71F85B ADD DUP1 SLOAD PUSH1 0x1 PUSH1 0x1 PUSH1 0xA0 SHL SUB NOT AND PUSH1 0x1 PUSH1 0x1 PUSH1 0xA0 SHL SUB DUP9 AND OR SWAP1 SSTORE SWAP1 POP PUSH2 0x969 DUP4 PUSH2 0x3391 JUMP JUMPDEST SWAP1 POP DUP5 PUSH1 0x1 PUSH1 0x1 PUSH1 0xA0 SHL SUB AND PUSH32 0xC2B801D81F6E22509F9EED15DF60B144DF9483674FF7A983AA3D2C378E7AE5F0 DUP6 DUP4 PUSH1 0x40 MLOAD PUSH2 0x9A6 SWAP3 SWAP2 SWAP1 PUSH2 0x3F10 JUMP JUMPDEST PUSH1 0x40 MLOAD DUP1 SWAP2 SUB SWAP1 LOG2 POP POP POP POP POP JUMP JUMPDEST PUSH1 0x3 DUP2 DUP2 SLOAD DUP2 LT PUSH2 0x9C5 JUMPI PUSH1 0x0 DUP1 REVERT JUMPDEST PUSH1 0x0 SWAP2 DUP3 MSTORE PUSH1 0x20 SWAP1 SWAP2 KECCAK256 ADD SLOAD PUSH1 0x1 PUSH1 0x1 PUSH1 0xA0 SHL SUB AND SWAP1 POP DUP2 JUMP JUMPDEST PUSH1 0x1 DUP1 CALLER PUSH1 0x0 SWAP1 DUP2 MSTORE PUSH1 0x2 PUSH1 0x20 MSTORE PUSH1 0x40 SWAP1 KECCAK256 PUSH1 0x1 ADD SLOAD PUSH1 0xFF AND PUSH1 0x4 DUP2 GT ISZERO PUSH2 0xA09 JUMPI PUSH2 0xA09 PUSH2 0x36E3 JUMP JUMPDEST EQ PUSH2 0xA26 JUMPI PUSH1 0x40 MLOAD PUSH3 0x461BCD PUSH1 0xE5 SHL DUP2 MSTORE PUSH1 0x4 ADD PUSH2 0x444 SWAP1 PUSH2 0x3D50 JUMP JUMPDEST PUSH1 0x1 PUSH1 0x1 PUSH1 0xA0 SHL SUB DUP3 AND PUSH2 0xA4C JUMPI PUSH1 0x40 MLOAD PUSH3 0x461BCD PUSH1 0xE5 SHL DUP2 MSTORE PUSH1 0x4 ADD PUSH2 0x444 SWAP1 PUSH2 0x3DD7 JUMP JUMPDEST PUSH1 0x1 PUSH1 0x1 PUSH1 0xA0 SHL SUB DUP3 AND PUSH1 0x0 SWAP1 DUP2 MSTORE PUSH1 0x2 PUSH1 0x20 MSTORE PUSH1 0x40 SWAP1 KECCAK256 DUP1 SLOAD PUSH2 0xA6F SWAP1 PUSH2 0x3DA3 JUMP JUMPDEST SWAP1 POP PUSH1 0x0 SUB PUSH2 0xAB6 JUMPI PUSH1 0x40 MLOAD PUSH3 0x461BCD PUSH1 0xE5 SHL DUP2 MSTORE PUSH1 0x20 PUSH1 0x4 DUP3 ADD MSTORE PUSH1 0x13 PUSH1 0x24 DUP3 ADD MSTORE PUSH19 0x5573657220646F65736E277420657869737421 PUSH1 0x68 SHL PUSH1 0x44 DUP3 ADD MSTORE PUSH1 0x64 ADD PUSH2 0x444 JUMP JUMPDEST PUSH1 0x1 PUSH1 0x1 PUSH1 0xA0 SHL SUB DUP3 AND PUSH1 0x0 SWAP1 DUP2 MSTORE PUSH1 0x2 PUSH1 0x20 MSTORE PUSH1 0x40 DUP2 KECCAK256 DUP1 SLOAD PUSH2 0xAD9 SWAP1 PUSH2 0x3DA3 JUMP JUMPDEST DUP1 PUSH1 0x1F ADD PUSH1 0x20 DUP1 SWAP2 DIV MUL PUSH1 0x20 ADD PUSH1 0x40 MLOAD SWAP1 DUP2 ADD PUSH1 0x40 MSTORE DUP1 SWAP3 SWAP2 SWAP1 DUP2 DUP2 MSTORE PUSH1 0x20 ADD DUP3 DUP1 SLOAD PUSH2 0xB05 SWAP1 PUSH2 0x3DA3 JUMP JUMPDEST DUP1 ISZERO PUSH2 0xB52 JUMPI DUP1 PUSH1 0x1F LT PUSH2 0xB27 JUMPI PUSH2 0x100 DUP1 DUP4 SLOAD DIV MUL DUP4 MSTORE SWAP2 PUSH1 0x20 ADD SWAP2 PUSH2 0xB52 JUMP JUMPDEST DUP3 ADD SWAP2 SWAP1 PUSH1 0x0 MSTORE PUSH1 0x20 PUSH1 0x0 KECCAK256 SWAP1 JUMPDEST DUP2 SLOAD DUP2 MSTORE SWAP1 PUSH1 0x1 ADD SWAP1 PUSH1 0x20 ADD DUP1 DUP4 GT PUSH2 0xB35 JUMPI DUP3 SWAP1 SUB PUSH1 0x1F AND DUP3 ADD SWAP2 JUMPDEST POP POP POP POP PUSH1 0x1 PUSH1 0x1 PUSH1 0xA0 SHL SUB DUP6 AND PUSH1 0x0 SWAP1 DUP2 MSTORE PUSH1 0x2 PUSH1 0x20 MSTORE PUSH1 0x40 DUP2 KECCAK256 PUSH1 0x1 ADD SLOAD SWAP3 SWAP4 POP SWAP2 PUSH2 0xB83 SWAP2 POP PUSH1 0xFF AND PUSH2 0x3391 JUMP JUMPDEST PUSH1 0x1 PUSH1 0x1 PUSH1 0xA0 SHL SUB DUP6 AND PUSH1 0x0 SWAP1 DUP2 MSTORE PUSH1 0x2 PUSH1 0x20 MSTORE PUSH1 0x40 DUP2 KECCAK256 SWAP2 SWAP3 POP PUSH2 0xBA8 DUP3 DUP3 PUSH2 0x34FF JUMP JUMPDEST POP PUSH1 0x1 ADD DUP1 SLOAD PUSH1 0xFF NOT AND SWAP1 SSTORE PUSH1 0x0 JUMPDEST PUSH1 0x3 SLOAD DUP2 LT ISZERO PUSH2 0xCBC JUMPI DUP5 PUSH1 0x1 PUSH1 0x1 PUSH1 0xA0 SHL SUB AND PUSH1 0x3 DUP3 DUP2 SLOAD DUP2 LT PUSH2 0xBDE JUMPI PUSH2 0xBDE PUSH2 0x3F69 JUMP JUMPDEST PUSH1 0x0 SWAP2 DUP3 MSTORE PUSH1 0x20 SWAP1 SWAP2 KECCAK256 ADD SLOAD PUSH1 0x1 PUSH1 0x1 PUSH1 0xA0 SHL SUB AND SUB PUSH2 0xCAA JUMPI PUSH1 0x3 DUP1 SLOAD PUSH2 0xC08 SWAP1 PUSH1 0x1 SWAP1 PUSH2 0x3F95 JUMP JUMPDEST DUP2 SLOAD DUP2 LT PUSH2 0xC18 JUMPI PUSH2 0xC18 PUSH2 0x3F69 JUMP JUMPDEST PUSH1 0x0 SWAP2 DUP3 MSTORE PUSH1 0x20 SWAP1 SWAP2 KECCAK256 ADD SLOAD PUSH1 0x3 DUP1 SLOAD PUSH1 0x1 PUSH1 0x1 PUSH1 0xA0 SHL SUB SWAP1 SWAP3 AND SWAP2 DUP4 SWAP1 DUP2 LT PUSH2 0xC44 JUMPI PUSH2 0xC44 PUSH2 0x3F69 JUMP JUMPDEST SWAP1 PUSH1 0x0 MSTORE PUSH1 0x20 PUSH1 0x0 KECCAK256 ADD PUSH1 0x0 PUSH2 0x100 EXP DUP2 SLOAD DUP2 PUSH1 0x1 PUSH1 0x1 PUSH1 0xA0 SHL SUB MUL NOT AND SWAP1 DUP4 PUSH1 0x1 PUSH1 0x1 PUSH1 0xA0 SHL SUB AND MUL OR SWAP1 SSTORE POP PUSH1 0x3 DUP1 SLOAD DUP1 PUSH2 0xC83 JUMPI PUSH2 0xC83 PUSH2 0x3FAE JUMP JUMPDEST PUSH1 0x0 DUP3 DUP2 MSTORE PUSH1 0x20 SWAP1 KECCAK256 DUP2 ADD PUSH1 0x0 NOT SWAP1 DUP2 ADD DUP1 SLOAD PUSH1 0x1 PUSH1 0x1 PUSH1 0xA0 SHL SUB NOT AND SWAP1 SSTORE ADD SWAP1 SSTORE PUSH2 0xCBC JUMP JUMPDEST DUP1 PUSH2 0xCB4 DUP2 PUSH2 0x3FC4 JUMP JUMPDEST SWAP2 POP POP PUSH2 0xBB7 JUMP JUMPDEST POP DUP4 PUSH1 0x1 PUSH1 0x1 PUSH1 0xA0 SHL SUB AND PUSH32 0xC15D693267C3B1D5B865044AB75F608276DC7369A471245E8F087042C9236C08 DUP4 DUP4 PUSH1 0x40 MLOAD PUSH2 0xCF8 SWAP3 SWAP2 SWAP1 PUSH2 0x3FDD JUMP JUMPDEST PUSH1 0x40 MLOAD DUP1 SWAP2 SUB SWAP1 LOG2 POP POP POP POP JUMP JUMPDEST PUSH2 0xD31 PUSH1 0x40 MLOAD DUP1 PUSH1 0x80 ADD PUSH1 0x40 MSTORE DUP1 PUSH1 0x0 DUP2 MSTORE PUSH1 0x20 ADD PUSH1 0x60 DUP2 MSTORE PUSH1 0x20 ADD PUSH1 0x0 DUP2 MSTORE PUSH1 0x20 ADD PUSH1 0x60 DUP2 MSTORE POP SWAP1 JUMP JUMPDEST PUSH1 0x8 DUP3 PUSH1 0x40 MLOAD PUSH2 0xD41 SWAP2 SWAP1 PUSH2 0x3D87 JUMP JUMPDEST SWAP1 DUP2 MSTORE PUSH1 0x20 ADD PUSH1 0x40 MLOAD DUP1 SWAP2 SUB SWAP1 KECCAK256 PUSH1 0x1 ADD DUP1 SLOAD PUSH2 0xD5D SWAP1 PUSH2 0x3DA3 JUMP JUMPDEST SWAP1 POP PUSH1 0x0 SUB PUSH2 0xDA6 JUMPI PUSH1 0x40 MLOAD PUSH3 0x461BCD PUSH1 0xE5 SHL DUP2 MSTORE PUSH1 0x20 PUSH1 0x4 DUP3 ADD MSTORE PUSH1 0x15 PUSH1 0x24 DUP3 ADD MSTORE PUSH21 0x141C9BD91D58DD08191BD95CDB89DD08195E1A5CDD PUSH1 0x5A SHL PUSH1 0x44 DUP3 ADD MSTORE PUSH1 0x64 ADD PUSH2 0x444 JUMP JUMPDEST PUSH1 0x8 DUP3 PUSH1 0x40 MLOAD PUSH2 0xDB6 SWAP2 SWAP1 PUSH2 0x3D87 JUMP JUMPDEST SWAP1 DUP2 MSTORE PUSH1 0x20 ADD PUSH1 0x40 MLOAD DUP1 SWAP2 SUB SWAP1 KECCAK256 PUSH1 0x40 MLOAD DUP1 PUSH1 0x80 ADD PUSH1 0x40 MSTORE SWAP1 DUP2 PUSH1 0x0 DUP3 ADD SLOAD DUP2 MSTORE PUSH1 0x20 ADD PUSH1 0x1 DUP3 ADD DUP1 SLOAD PUSH2 0xDE9 SWAP1 PUSH2 0x3DA3 JUMP JUMPDEST DUP1 PUSH1 0x1F ADD PUSH1 0x20 DUP1 SWAP2 DIV MUL PUSH1 0x20 ADD PUSH1 0x40 MLOAD SWAP1 DUP2 ADD PUSH1 0x40 MSTORE DUP1 SWAP3 SWAP2 SWAP1 DUP2 DUP2 MSTORE PUSH1 0x20 ADD DUP3 DUP1 SLOAD PUSH2 0xE15 SWAP1 PUSH2 0x3DA3 JUMP JUMPDEST DUP1 ISZERO PUSH2 0xE62 JUMPI DUP1 PUSH1 0x1F LT PUSH2 0xE37 JUMPI PUSH2 0x100 DUP1 DUP4 SLOAD DIV MUL DUP4 MSTORE SWAP2 PUSH1 0x20 ADD SWAP2 PUSH2 0xE62 JUMP JUMPDEST DUP3 ADD SWAP2 SWAP1 PUSH1 0x0 MSTORE PUSH1 0x20 PUSH1 0x0 KECCAK256 SWAP1 JUMPDEST DUP2 SLOAD DUP2 MSTORE SWAP1 PUSH1 0x1 ADD SWAP1 PUSH1 0x20 ADD DUP1 DUP4 GT PUSH2 0xE45 JUMPI DUP3 SWAP1 SUB PUSH1 0x1F AND DUP3 ADD SWAP2 JUMPDEST POP POP POP POP POP DUP2 MSTORE PUSH1 0x20 ADD PUSH1 0x2 DUP3 ADD SLOAD DUP2 MSTORE PUSH1 0x20 ADD PUSH1 0x3 DUP3 ADD DUP1 SLOAD PUSH2 0xE85 SWAP1 PUSH2 0x3DA3 JUMP JUMPDEST DUP1 PUSH1 0x1F ADD PUSH1 0x20 DUP1 SWAP2 DIV MUL PUSH1 0x20 ADD PUSH1 0x40 MLOAD SWAP1 DUP2 ADD PUSH1 0x40 MSTORE DUP1 SWAP3 SWAP2 SWAP1 DUP2 DUP2 MSTORE PUSH1 0x20 ADD DUP3 DUP1 SLOAD PUSH2 0xEB1 SWAP1 PUSH2 0x3DA3 JUMP JUMPDEST DUP1 ISZERO PUSH2 0xEFE JUMPI DUP1 PUSH1 0x1F LT PUSH2 0xED3 JUMPI PUSH2 0x100 DUP1 DUP4 SLOAD DIV MUL DUP4 MSTORE SWAP2 PUSH1 0x20 ADD SWAP2 PUSH2 0xEFE JUMP JUMPDEST DUP3 ADD SWAP2 SWAP1 PUSH1 0x0 MSTORE PUSH1 0x20 PUSH1 0x0 KECCAK256 SWAP1 JUMPDEST DUP2 SLOAD DUP2 MSTORE SWAP1 PUSH1 0x1 ADD SWAP1 PUSH1 0x20 ADD DUP1 DUP4 GT PUSH2 0xEE1 JUMPI DUP3 SWAP1 SUB PUSH1 0x1F AND DUP3 ADD SWAP2 JUMPDEST POP POP POP POP POP DUP2 MSTORE POP POP SWAP1 POP SWAP2 SWAP1 POP JUMP JUMPDEST PUSH1 0x40 DUP1 MLOAD DUP1 DUP3 ADD SWAP1 SWAP2 MSTORE PUSH1 0x60 DUP2 MSTORE PUSH1 0x0 PUSH1 0x20 DUP3 ADD MSTORE PUSH1 0x1 PUSH1 0x1 PUSH1 0xA0 SHL SUB DUP3 AND PUSH2 0xF6B JUMPI PUSH1 0x40 MLOAD PUSH3 0x461BCD PUSH1 0xE5 SHL DUP2 MSTORE PUSH1 0x20 PUSH1 0x4 DUP3 ADD MSTORE PUSH1 0xF PUSH1 0x24 DUP3 ADD MSTORE PUSH15 0x496E76616C69642061646472657373 PUSH1 0x88 SHL PUSH1 0x44 DUP3 ADD MSTORE PUSH1 0x64 ADD PUSH2 0x444 JUMP JUMPDEST PUSH1 0x1 PUSH1 0x1 PUSH1 0xA0 SHL SUB DUP3 AND PUSH1 0x0 SWAP1 DUP2 MSTORE PUSH1 0x2 PUSH1 0x20 MSTORE PUSH1 0x40 SWAP1 DUP2 SWAP1 KECCAK256 DUP2 MLOAD DUP1 DUP4 ADD SWAP1 SWAP3 MSTORE DUP1 SLOAD DUP3 SWAP1 DUP3 SWAP1 PUSH2 0xF9C SWAP1 PUSH2 0x3DA3 JUMP JUMPDEST DUP1 PUSH1 0x1F ADD PUSH1 0x20 DUP1 SWAP2 DIV MUL PUSH1 0x20 ADD PUSH1 0x40 MLOAD SWAP1 DUP2 ADD PUSH1 0x40 MSTORE DUP1 SWAP3 SWAP2 SWAP1 DUP2 DUP2 MSTORE PUSH1 0x20 ADD DUP3 DUP1 SLOAD PUSH2 0xFC8 SWAP1 PUSH2 0x3DA3 JUMP JUMPDEST DUP1 ISZERO PUSH2 0x1015 JUMPI DUP1 PUSH1 0x1F LT PUSH2 0xFEA JUMPI PUSH2 0x100 DUP1 DUP4 SLOAD DIV MUL DUP4 MSTORE SWAP2 PUSH1 0x20 ADD SWAP2 PUSH2 0x1015 JUMP JUMPDEST DUP3 ADD SWAP2 SWAP1 PUSH1 0x0 MSTORE PUSH1 0x20 PUSH1 0x0 KECCAK256 SWAP1 JUMPDEST DUP2 SLOAD DUP2 MSTORE SWAP1 PUSH1 0x1 ADD SWAP1 PUSH1 0x20 ADD DUP1 DUP4 GT PUSH2 0xFF8 JUMPI DUP3 SWAP1 SUB PUSH1 0x1F AND DUP3 ADD SWAP2 JUMPDEST POP POP POP SWAP2 DUP4 MSTORE POP POP PUSH1 0x1 DUP3 ADD SLOAD PUSH1 0x20 SWAP1 SWAP2 ADD SWAP1 PUSH1 0xFF AND PUSH1 0x4 DUP2 GT ISZERO PUSH2 0x103C JUMPI PUSH2 0x103C PUSH2 0x36E3 JUMP JUMPDEST PUSH1 0x4 DUP2 GT ISZERO PUSH2 0x104D JUMPI PUSH2 0x104D PUSH2 0x36E3 JUMP JUMPDEST SWAP1 MSTORE POP SWAP3 SWAP2 POP POP JUMP JUMPDEST PUSH1 0x1 DUP1 CALLER PUSH1 0x0 SWAP1 DUP2 MSTORE PUSH1 0x2 PUSH1 0x20 MSTORE PUSH1 0x40 SWAP1 KECCAK256 PUSH1 0x1 ADD SLOAD PUSH1 0xFF AND PUSH1 0x4 DUP2 GT ISZERO PUSH2 0x1080 JUMPI PUSH2 0x1080 PUSH2 0x36E3 JUMP JUMPDEST EQ PUSH2 0x109D JUMPI PUSH1 0x40 MLOAD PUSH3 0x461BCD PUSH1 0xE5 SHL DUP2 MSTORE PUSH1 0x4 ADD PUSH2 0x444 SWAP1 PUSH2 0x3D50 JUMP JUMPDEST PUSH1 0x4 DUP3 PUSH1 0x40 MLOAD PUSH2 0x10AD SWAP2 SWAP1 PUSH2 0x3D87 JUMP JUMPDEST SWAP1 DUP2 MSTORE PUSH1 0x40 MLOAD SWAP1 DUP2 SWAP1 SUB PUSH1 0x20 ADD SWAP1 KECCAK256 DUP1 SLOAD PUSH2 0x10C7 SWAP1 PUSH2 0x3DA3 JUMP JUMPDEST SWAP1 POP PUSH1 0x0 SUB PUSH2 0x1110 JUMPI PUSH1 0x40 MLOAD PUSH3 0x461BCD PUSH1 0xE5 SHL DUP2 MSTORE PUSH1 0x20 PUSH1 0x4 DUP3 ADD MSTORE PUSH1 0x15 PUSH1 0x24 DUP3 ADD MSTORE PUSH21 0x115B9D1A5D1E48191BD95CC81B9BDD08195E1A5CDD PUSH1 0x5A SHL PUSH1 0x44 DUP3 ADD MSTORE PUSH1 0x64 ADD PUSH2 0x444 JUMP JUMPDEST PUSH1 0x0 PUSH1 0x4 DUP4 PUSH1 0x40 MLOAD PUSH2 0x1122 SWAP2 SWAP1 PUSH2 0x3D87 JUMP JUMPDEST SWAP1 DUP2 MSTORE PUSH1 0x40 MLOAD SWAP1 DUP2 SWAP1 SUB PUSH1 0x20 ADD SWAP1 KECCAK256 DUP1 SLOAD PUSH2 0x113C SWAP1 PUSH2 0x3DA3 JUMP JUMPDEST DUP1 PUSH1 0x1F ADD PUSH1 0x20 DUP1 SWAP2 DIV MUL PUSH1 0x20 ADD PUSH1 0x40 MLOAD SWAP1 DUP2 ADD PUSH1 0x40 MSTORE DUP1 SWAP3 SWAP2 SWAP1 DUP2 DUP2 MSTORE PUSH1 0x20 ADD DUP3 DUP1 SLOAD PUSH2 0x1168 SWAP1 PUSH2 0x3DA3 JUMP JUMPDEST DUP1 ISZERO PUSH2 0x11B5 JUMPI DUP1 PUSH1 0x1F LT PUSH2 0x118A JUMPI PUSH2 0x100 DUP1 DUP4 SLOAD DIV MUL DUP4 MSTORE SWAP2 PUSH1 0x20 ADD SWAP2 PUSH2 0x11B5 JUMP JUMPDEST DUP3 ADD SWAP2 SWAP1 PUSH1 0x0 MSTORE PUSH1 0x20 PUSH1 0x0 KECCAK256 SWAP1 JUMPDEST DUP2 SLOAD DUP2 MSTORE SWAP1 PUSH1 0x1 ADD SWAP1 PUSH1 0x20 ADD DUP1 DUP4 GT PUSH2 0x1198 JUMPI DUP3 SWAP1 SUB PUSH1 0x1F AND DUP3 ADD SWAP2 JUMPDEST POP POP POP POP POP SWAP1 POP PUSH1 0x0 PUSH1 0x4 DUP5 PUSH1 0x40 MLOAD PUSH2 0x11CE SWAP2 SWAP1 PUSH2 0x3D87 JUMP JUMPDEST SWAP1 DUP2 MSTORE PUSH1 0x40 MLOAD SWAP1 DUP2 SWAP1 SUB PUSH1 0x20 ADD DUP2 KECCAK256 PUSH1 0x1 ADD SLOAD PUSH1 0xFF AND SWAP2 POP PUSH1 0x4 SWAP1 PUSH2 0x11F4 SWAP1 DUP7 SWAP1 PUSH2 0x3D87 JUMP JUMPDEST SWAP1 DUP2 MSTORE PUSH1 0x40 MLOAD SWAP1 DUP2 SWAP1 SUB PUSH1 0x20 ADD SWAP1 KECCAK256 PUSH1 0x0 PUSH2 0x120F DUP3 DUP3 PUSH2 0x34FF JUMP JUMPDEST POP PUSH1 0x1 ADD DUP1 SLOAD PUSH1 0xFF NOT AND SWAP1 SSTORE PUSH1 0x0 PUSH1 0x5 DUP2 DUP4 PUSH1 0x6 DUP2 GT ISZERO PUSH2 0x1232 JUMPI PUSH2 0x1232 PUSH2 0x36E3 JUMP JUMPDEST PUSH1 0x6 DUP2 GT ISZERO PUSH2 0x1243 JUMPI PUSH2 0x1243 PUSH2 0x36E3 JUMP JUMPDEST DUP2 MSTORE PUSH1 0x20 ADD SWAP1 DUP2 MSTORE PUSH1 0x20 ADD PUSH1 0x0 KECCAK256 SWAP1 POP PUSH1 0x0 JUMPDEST DUP2 SLOAD DUP2 LT ISZERO PUSH2 0x1335 JUMPI DUP4 DUP1 MLOAD SWAP1 PUSH1 0x20 ADD KECCAK256 DUP3 DUP3 DUP2 SLOAD DUP2 LT PUSH2 0x1279 JUMPI PUSH2 0x1279 PUSH2 0x3F69 JUMP JUMPDEST SWAP1 PUSH1 0x0 MSTORE PUSH1 0x20 PUSH1 0x0 KECCAK256 ADD PUSH1 0x40 MLOAD PUSH2 0x1290 SWAP2 SWAP1 PUSH2 0x4024 JUMP JUMPDEST PUSH1 0x40 MLOAD DUP1 SWAP2 SUB SWAP1 KECCAK256 SUB PUSH2 0x1323 JUMPI DUP2 SLOAD DUP3 SWAP1 PUSH2 0x12AD SWAP1 PUSH1 0x1 SWAP1 PUSH2 0x3F95 JUMP JUMPDEST DUP2 SLOAD DUP2 LT PUSH2 0x12BD JUMPI PUSH2 0x12BD PUSH2 0x3F69 JUMP JUMPDEST SWAP1 PUSH1 0x0 MSTORE PUSH1 0x20 PUSH1 0x0 KECCAK256 ADD DUP3 DUP3 DUP2 SLOAD DUP2 LT PUSH2 0x12D9 JUMPI PUSH2 0x12D9 PUSH2 0x3F69 JUMP JUMPDEST SWAP1 PUSH1 0x0 MSTORE PUSH1 0x20 PUSH1 0x0 KECCAK256 ADD SWAP1 DUP2 PUSH2 0x12EF SWAP2 SWAP1 PUSH2 0x409A JUMP JUMPDEST POP DUP2 DUP1 SLOAD DUP1 PUSH2 0x1300 JUMPI PUSH2 0x1300 PUSH2 0x3FAE JUMP JUMPDEST PUSH1 0x1 SWAP1 SUB DUP2 DUP2 SWAP1 PUSH1 0x0 MSTORE PUSH1 0x20 PUSH1 0x0 KECCAK256 ADD PUSH1 0x0 PUSH2 0x131C SWAP2 SWAP1 PUSH2 0x34FF JUMP JUMPDEST SWAP1 SSTORE PUSH2 0x1335 JUMP JUMPDEST DUP1 PUSH2 0x132D DUP2 PUSH2 0x3FC4 JUMP JUMPDEST SWAP2 POP POP PUSH2 0x1256 JUMP JUMPDEST POP PUSH32 0xF82CB768BA877AD8036D5B821D07C7C53FE940902CEC1842AE7A2D0CEF3BCED DUP4 DUP4 PUSH1 0x40 MLOAD PUSH2 0x1367 SWAP3 SWAP2 SWAP1 PUSH2 0x4175 JUMP JUMPDEST PUSH1 0x40 MLOAD DUP1 SWAP2 SUB SWAP1 LOG1 POP POP POP POP POP JUMP JUMPDEST DUP1 MLOAD PUSH1 0x20 DUP2 DUP4 ADD DUP2 ADD DUP1 MLOAD PUSH1 0x4 DUP3 MSTORE SWAP3 DUP3 ADD SWAP2 SWAP1 SWAP4 ADD KECCAK256 SWAP2 MSTORE DUP1 SLOAD DUP2 SWAP1 PUSH2 0x139C SWAP1 PUSH2 0x3DA3 JUMP JUMPDEST DUP1 PUSH1 0x1F ADD PUSH1 0x20 DUP1 SWAP2 DIV MUL PUSH1 0x20 ADD PUSH1 0x40 MLOAD SWAP1 DUP2 ADD PUSH1 0x40 MSTORE DUP1 SWAP3 SWAP2 SWAP1 DUP2 DUP2 MSTORE PUSH1 0x20 ADD DUP3 DUP1 SLOAD PUSH2 0x13C8 SWAP1 PUSH2 0x3DA3 JUMP JUMPDEST DUP1 ISZERO PUSH2 0x1415 JUMPI DUP1 PUSH1 0x1F LT PUSH2 0x13EA JUMPI PUSH2 0x100 DUP1 DUP4 SLOAD DIV MUL DUP4 MSTORE SWAP2 PUSH1 0x20 ADD SWAP2 PUSH2 0x1415 JUMP JUMPDEST DUP3 ADD SWAP2 SWAP1 PUSH1 0x0 MSTORE PUSH1 0x20 PUSH1 0x0 KECCAK256 SWAP1 JUMPDEST DUP2 SLOAD DUP2 MSTORE SWAP1 PUSH1 0x1 ADD SWAP1 PUSH1 0x20 ADD DUP1 DUP4 GT PUSH2 0x13F8 JUMPI DUP3 SWAP1 SUB PUSH1 0x1F AND DUP3 ADD SWAP2 JUMPDEST POP POP POP PUSH1 0x1 SWAP1 SWAP4 ADD SLOAD SWAP2 SWAP3 POP POP PUSH1 0xFF AND DUP3 JUMP JUMPDEST PUSH1 0x8 DUP2 PUSH1 0x40 MLOAD PUSH2 0x1438 SWAP2 SWAP1 PUSH2 0x3D87 JUMP JUMPDEST SWAP1 DUP2 MSTORE PUSH1 0x20 ADD PUSH1 0x40 MLOAD DUP1 SWAP2 SUB SWAP1 KECCAK256 PUSH1 0x1 ADD DUP1 SLOAD PUSH2 0x1454 SWAP1 PUSH2 0x3DA3 JUMP JUMPDEST SWAP1 POP PUSH1 0x0 SUB PUSH2 0x149D JUMPI PUSH1 0x40 MLOAD PUSH3 0x461BCD PUSH1 0xE5 SHL DUP2 MSTORE PUSH1 0x20 PUSH1 0x4 DUP3 ADD MSTORE PUSH1 0x15 PUSH1 0x24 DUP3 ADD MSTORE PUSH21 0x141C9BD91D58DD08191BD95CDB89DD08195E1A5CDD PUSH1 0x5A SHL PUSH1 0x44 DUP3 ADD MSTORE PUSH1 0x64 ADD PUSH2 0x444 JUMP JUMPDEST PUSH1 0x0 PUSH1 0x8 DUP3 PUSH1 0x40 MLOAD PUSH2 0x14AF SWAP2 SWAP1 PUSH2 0x3D87 JUMP JUMPDEST SWAP1 DUP2 MSTORE PUSH1 0x20 ADD PUSH1 0x40 MLOAD DUP1 SWAP2 SUB SWAP1 KECCAK256 PUSH1 0x40 MLOAD DUP1 PUSH1 0x80 ADD PUSH1 0x40 MSTORE SWAP1 DUP2 PUSH1 0x0 DUP3 ADD SLOAD DUP2 MSTORE PUSH1 0x20 ADD PUSH1 0x1 DUP3 ADD DUP1 SLOAD PUSH2 0x14E2 SWAP1 PUSH2 0x3DA3 JUMP JUMPDEST DUP1 PUSH1 0x1F ADD PUSH1 0x20 DUP1 SWAP2 DIV MUL PUSH1 0x20 ADD PUSH1 0x40 MLOAD SWAP1 DUP2 ADD PUSH1 0x40 MSTORE DUP1 SWAP3 SWAP2 SWAP1 DUP2 DUP2 MSTORE PUSH1 0x20 ADD DUP3 DUP1 SLOAD PUSH2 0x150E SWAP1 PUSH2 0x3DA3 JUMP JUMPDEST DUP1 ISZERO PUSH2 0x155B JUMPI DUP1 PUSH1 0x1F LT PUSH2 0x1530 JUMPI PUSH2 0x100 DUP1 DUP4 SLOAD DIV MUL DUP4 MSTORE SWAP2 PUSH1 0x20 ADD SWAP2 PUSH2 0x155B JUMP JUMPDEST DUP3 ADD SWAP2 SWAP1 PUSH1 0x0 MSTORE PUSH1 0x20 PUSH1 0x0 KECCAK256 SWAP1 JUMPDEST DUP2 SLOAD DUP2 MSTORE SWAP1 PUSH1 0x1 ADD SWAP1 PUSH1 0x20 ADD DUP1 DUP4 GT PUSH2 0x153E JUMPI DUP3 SWAP1 SUB PUSH1 0x1F AND DUP3 ADD SWAP2 JUMPDEST POP POP POP POP POP DUP2 MSTORE PUSH1 0x20 ADD PUSH1 0x2 DUP3 ADD SLOAD DUP2 MSTORE PUSH1 0x20 ADD PUSH1 0x3 DUP3 ADD DUP1 SLOAD PUSH2 0x157E SWAP1 PUSH2 0x3DA3 JUMP JUMPDEST DUP1 PUSH1 0x1F ADD PUSH1 0x20 DUP1 SWAP2 DIV MUL PUSH1 0x20 ADD PUSH1 0x40 MLOAD SWAP1 DUP2 ADD PUSH1 0x40 MSTORE DUP1 SWAP3 SWAP2 SWAP1 DUP2 DUP2 MSTORE PUSH1 0x20 ADD DUP3 DUP1 SLOAD PUSH2 0x15AA SWAP1 PUSH2 0x3DA3 JUMP JUMPDEST DUP1 ISZERO PUSH2 0x15F7 JUMPI DUP1 PUSH1 0x1F LT PUSH2 0x15CC JUMPI PUSH2 0x100 DUP1 DUP4 SLOAD DIV MUL DUP4 MSTORE SWAP2 PUSH1 0x20 ADD SWAP2 PUSH2 0x15F7 JUMP JUMPDEST DUP3 ADD SWAP2 SWAP1 PUSH1 0x0 MSTORE PUSH1 0x20 PUSH1 0x0 KECCAK256 SWAP1 JUMPDEST DUP2 SLOAD DUP2 MSTORE SWAP1 PUSH1 0x1 ADD SWAP1 PUSH1 0x20 ADD DUP1 DUP4 GT PUSH2 0x15DA JUMPI DUP3 SWAP1 SUB PUSH1 0x1F AND DUP3 ADD SWAP2 JUMPDEST POP POP POP SWAP2 SWAP1 SWAP3 MSTORE POP POP DUP2 MLOAD PUSH1 0x0 SWAP1 DUP2 MSTORE PUSH1 0x7 PUSH1 0x20 MSTORE PUSH1 0x40 DUP2 KECCAK256 DUP2 DUP2 SSTORE SWAP3 SWAP4 POP SWAP1 POP PUSH2 0x1625 PUSH1 0x1 DUP4 ADD DUP3 PUSH2 0x34FF JUMP JUMPDEST PUSH1 0x2 DUP3 ADD PUSH1 0x0 SWAP1 SSTORE PUSH1 0x3 DUP3 ADD PUSH1 0x0 PUSH2 0x163D SWAP2 SWAP1 PUSH2 0x34FF JUMP JUMPDEST POP POP PUSH1 0x8 DUP3 PUSH1 0x40 MLOAD PUSH2 0x164F SWAP2 SWAP1 PUSH2 0x3D87 JUMP JUMPDEST SWAP1 DUP2 MSTORE PUSH1 0x40 MLOAD SWAP1 DUP2 SWAP1 SUB PUSH1 0x20 ADD SWAP1 KECCAK256 PUSH1 0x0 DUP1 DUP3 SSTORE PUSH2 0x1670 PUSH1 0x1 DUP4 ADD DUP3 PUSH2 0x34FF JUMP JUMPDEST PUSH1 0x2 DUP3 ADD PUSH1 0x0 SWAP1 SSTORE PUSH1 0x3 DUP3 ADD PUSH1 0x0 PUSH2 0x1688 SWAP2 SWAP1 PUSH2 0x34FF JUMP JUMPDEST POP POP PUSH1 0x9 DUP1 SLOAD SWAP1 PUSH1 0x0 PUSH2 0x169A DUP4 PUSH2 0x41CB JUMP JUMPDEST SWAP2 SWAP1 POP SSTORE POP PUSH32 0x959AD8B1BEFBEB936D9A91BF2F741A2F7A8FCF9A0CB38ECE37CA3E9814041EAB DUP3 PUSH1 0x40 MLOAD PUSH2 0x16CE SWAP2 SWAP1 PUSH2 0x38AE JUMP JUMPDEST PUSH1 0x40 MLOAD DUP1 SWAP2 SUB SWAP1 LOG1 POP POP JUMP JUMPDEST PUSH1 0x1 DUP1 SLOAD PUSH2 0x16E7 SWAP1 PUSH2 0x3DA3 JUMP JUMPDEST DUP1 PUSH1 0x1F ADD PUSH1 0x20 DUP1 SWAP2 DIV MUL PUSH1 0x20 ADD PUSH1 0x40 MLOAD SWAP1 DUP2 ADD PUSH1 0x40 MSTORE DUP1 SWAP3 SWAP2 SWAP1 DUP2 DUP2 MSTORE PUSH1 0x20 ADD DUP3 DUP1 SLOAD PUSH2 0x1713 SWAP1 PUSH2 0x3DA3 JUMP JUMPDEST DUP1 ISZERO PUSH2 0x1760 JUMPI DUP1 PUSH1 0x1F LT PUSH2 0x1735 JUMPI PUSH2 0x100 DUP1 DUP4 SLOAD DIV MUL DUP4 MSTORE SWAP2 PUSH1 0x20 ADD SWAP2 PUSH2 0x1760 JUMP JUMPDEST DUP3 ADD SWAP2 SWAP1 PUSH1 0x0 MSTORE PUSH1 0x20 PUSH1 0x0 KECCAK256 SWAP1 JUMPDEST DUP2 SLOAD DUP2 MSTORE SWAP1 PUSH1 0x1 ADD SWAP1 PUSH1 0x20 ADD DUP1 DUP4 GT PUSH2 0x1743 JUMPI DUP3 SWAP1 SUB PUSH1 0x1F AND DUP3 ADD SWAP2 JUMPDEST POP POP POP POP POP DUP2 JUMP JUMPDEST PUSH1 0x7 PUSH1 0x20 MSTORE PUSH1 0x0 SWAP1 DUP2 MSTORE PUSH1 0x40 SWAP1 KECCAK256 DUP1 SLOAD PUSH1 0x1 DUP3 ADD DUP1 SLOAD SWAP2 SWAP3 SWAP2 PUSH2 0x178A SWAP1 PUSH2 0x3DA3 JUMP JUMPDEST DUP1 PUSH1 0x1F ADD PUSH1 0x20 DUP1 SWAP2 DIV MUL PUSH1 0x20 ADD PUSH1 0x40 MLOAD SWAP1 DUP2 ADD PUSH1 0x40 MSTORE DUP1 SWAP3 SWAP2 SWAP1 DUP2 DUP2 MSTORE PUSH1 0x20 ADD DUP3 DUP1 SLOAD PUSH2 0x17B6 SWAP1 PUSH2 0x3DA3 JUMP JUMPDEST DUP1 ISZERO PUSH2 0x1803 JUMPI DUP1 PUSH1 0x1F LT PUSH2 0x17D8 JUMPI PUSH2 0x100 DUP1 DUP4 SLOAD DIV MUL DUP4 MSTORE SWAP2 PUSH1 0x20 ADD SWAP2 PUSH2 0x1803 JUMP JUMPDEST DUP3 ADD SWAP2 SWAP1 PUSH1 0x0 MSTORE PUSH1 0x20 PUSH1 0x0 KECCAK256 SWAP1 JUMPDEST DUP2 SLOAD DUP2 MSTORE SWAP1 PUSH1 0x1 ADD SWAP1 PUSH1 0x20 ADD DUP1 DUP4 GT PUSH2 0x17E6 JUMPI DUP3 SWAP1 SUB PUSH1 0x1F AND DUP3 ADD SWAP2 JUMPDEST POP POP POP POP POP SWAP1 DUP1 PUSH1 0x2 ADD SLOAD SWAP1 DUP1 PUSH1 0x3 ADD DUP1 SLOAD PUSH2 0x181E SWAP1 PUSH2 0x3DA3 JUMP JUMPDEST DUP1 PUSH1 0x1F ADD PUSH1 0x20 DUP1 SWAP2 DIV MUL PUSH1 0x20 ADD PUSH1 0x40 MLOAD SWAP1 DUP2 ADD PUSH1 0x40 MSTORE DUP1 SWAP3 SWAP2 SWAP1 DUP2 DUP2 MSTORE PUSH1 0x20 ADD DUP3 DUP1 SLOAD PUSH2 0x184A SWAP1 PUSH2 0x3DA3 JUMP JUMPDEST DUP1 ISZERO PUSH2 0x1897 JUMPI DUP1 PUSH1 0x1F LT PUSH2 0x186C JUMPI PUSH2 0x100 DUP1 DUP4 SLOAD DIV MUL DUP4 MSTORE SWAP2 PUSH1 0x20 ADD SWAP2 PUSH2 0x1897 JUMP JUMPDEST DUP3 ADD SWAP2 SWAP1 PUSH1 0x0 MSTORE PUSH1 0x20 PUSH1 0x0 KECCAK256 SWAP1 JUMPDEST DUP2 SLOAD DUP2 MSTORE SWAP1 PUSH1 0x1 ADD SWAP1 PUSH1 0x20 ADD DUP1 DUP4 GT PUSH2 0x187A JUMPI DUP3 SWAP1 SUB PUSH1 0x1F AND DUP3 ADD SWAP2 JUMPDEST POP POP POP POP POP SWAP1 POP DUP5 JUMP JUMPDEST PUSH1 0x8 DUP4 PUSH1 0x40 MLOAD PUSH2 0x18B1 SWAP2 SWAP1 PUSH2 0x3D87 JUMP JUMPDEST SWAP1 DUP2 MSTORE PUSH1 0x20 ADD PUSH1 0x40 MLOAD DUP1 SWAP2 SUB SWAP1 KECCAK256 PUSH1 0x1 ADD DUP1 SLOAD PUSH2 0x18CD SWAP1 PUSH2 0x3DA3 JUMP JUMPDEST ISZERO SWAP1 POP PUSH2 0x191C JUMPI PUSH1 0x40 MLOAD PUSH3 0x461BCD PUSH1 0xE5 SHL DUP2 MSTORE PUSH1 0x20 PUSH1 0x4 DUP3 ADD MSTORE PUSH1 0x17 PUSH1 0x24 DUP3 ADD MSTORE PUSH32 0x50726F6475637420616C72656164792065786973747321000000000000000000 PUSH1 0x44 DUP3 ADD MSTORE PUSH1 0x64 ADD PUSH2 0x444 JUMP JUMPDEST PUSH1 0x0 DUP3 GT PUSH2 0x1976 JUMPI PUSH1 0x40 MLOAD PUSH3 0x461BCD PUSH1 0xE5 SHL DUP2 MSTORE PUSH1 0x20 PUSH1 0x4 DUP3 ADD MSTORE PUSH1 0x21 PUSH1 0x24 DUP3 ADD MSTORE PUSH32 0x476976652061206E6F6E2D7A65726F2076616C756520666F7220616D6F756E74 PUSH1 0x44 DUP3 ADD MSTORE PUSH1 0x21 PUSH1 0xF8 SHL PUSH1 0x64 DUP3 ADD MSTORE PUSH1 0x84 ADD PUSH2 0x444 JUMP JUMPDEST PUSH1 0x40 DUP1 MLOAD PUSH1 0x60 DUP1 DUP3 ADD DUP4 MSTORE PUSH1 0x0 DUP3 DUP5 ADD DUP2 DUP2 MSTORE DUP4 MSTORE PUSH1 0x20 DUP1 DUP5 ADD DUP3 SWAP1 MSTORE DUP5 MLOAD PUSH1 0xE0 DUP2 ADD DUP7 MSTORE PUSH1 0x1 PUSH1 0xA0 DUP3 ADD DUP2 DUP2 MSTORE PUSH1 0x1 PUSH1 0xFD SHL PUSH1 0xC0 DUP5 ADD DUP2 SWAP1 MSTORE SWAP1 DUP4 MSTORE DUP8 MLOAD DUP1 DUP10 ADD DUP10 MSTORE DUP3 DUP2 MSTORE DUP1 DUP6 ADD SWAP2 SWAP1 SWAP2 MSTORE DUP3 DUP5 ADD MSTORE DUP2 DUP8 ADD DUP5 SWAP1 MSTORE DUP2 DUP6 ADD DUP5 SWAP1 MSTORE PUSH1 0x80 DUP1 DUP4 ADD DUP8 SWAP1 MSTORE DUP8 MLOAD SWAP1 DUP2 ADD DUP9 MSTORE PUSH1 0x9 SLOAD DUP1 DUP3 MSTORE DUP2 DUP6 ADD DUP13 DUP2 MSTORE DUP3 DUP11 ADD DUP13 SWAP1 MSTORE SWAP7 DUP3 ADD DUP11 SWAP1 MSTORE DUP6 MSTORE PUSH1 0x7 SWAP1 SWAP4 MSTORE SWAP6 SWAP1 SWAP3 KECCAK256 DUP2 MLOAD DUP2 SSTORE SWAP3 MLOAD SWAP4 SWAP5 SWAP2 SWAP4 SWAP1 SWAP3 SWAP2 DUP3 ADD SWAP1 PUSH2 0x1A20 SWAP1 DUP3 PUSH2 0x3E50 JUMP JUMPDEST POP PUSH1 0x40 DUP3 ADD MLOAD PUSH1 0x2 DUP3 ADD SSTORE PUSH1 0x60 DUP3 ADD MLOAD PUSH1 0x3 DUP3 ADD SWAP1 PUSH2 0x1A3F SWAP1 DUP3 PUSH2 0x3E50 JUMP JUMPDEST POP SWAP1 POP POP PUSH1 0x0 PUSH1 0x7 PUSH1 0x0 PUSH1 0x9 SLOAD DUP2 MSTORE PUSH1 0x20 ADD SWAP1 DUP2 MSTORE PUSH1 0x20 ADD PUSH1 0x0 KECCAK256 PUSH1 0x40 MLOAD DUP1 PUSH1 0x80 ADD PUSH1 0x40 MSTORE SWAP1 DUP2 PUSH1 0x0 DUP3 ADD SLOAD DUP2 MSTORE PUSH1 0x20 ADD PUSH1 0x1 DUP3 ADD DUP1 SLOAD PUSH2 0x1A7F SWAP1 PUSH2 0x3DA3 JUMP JUMPDEST DUP1 PUSH1 0x1F ADD PUSH1 0x20 DUP1 SWAP2 DIV MUL PUSH1 0x20 ADD PUSH1 0x40 MLOAD SWAP1 DUP2 ADD PUSH1 0x40 MSTORE DUP1 SWAP3 SWAP2 SWAP1 DUP2 DUP2 MSTORE PUSH1 0x20 ADD DUP3 DUP1 SLOAD PUSH2 0x1AAB SWAP1 PUSH2 0x3DA3 JUMP JUMPDEST DUP1 ISZERO PUSH2 0x1AF8 JUMPI DUP1 PUSH1 0x1F LT PUSH2 0x1ACD JUMPI PUSH2 0x100 DUP1 DUP4 SLOAD DIV MUL DUP4 MSTORE SWAP2 PUSH1 0x20 ADD SWAP2 PUSH2 0x1AF8 JUMP JUMPDEST DUP3 ADD SWAP2 SWAP1 PUSH1 0x0 MSTORE PUSH1 0x20 PUSH1 0x0 KECCAK256 SWAP1 JUMPDEST DUP2 SLOAD DUP2 MSTORE SWAP1 PUSH1 0x1 ADD SWAP1 PUSH1 0x20 ADD DUP1 DUP4 GT PUSH2 0x1ADB JUMPI DUP3 SWAP1 SUB PUSH1 0x1F AND DUP3 ADD SWAP2 JUMPDEST POP POP POP POP POP DUP2 MSTORE PUSH1 0x20 ADD PUSH1 0x2 DUP3 ADD SLOAD DUP2 MSTORE PUSH1 0x20 ADD PUSH1 0x3 DUP3 ADD DUP1 SLOAD PUSH2 0x1B1B SWAP1 PUSH2 0x3DA3 JUMP JUMPDEST DUP1 PUSH1 0x1F ADD PUSH1 0x20 DUP1 SWAP2 DIV MUL PUSH1 0x20 ADD PUSH1 0x40 MLOAD SWAP1 DUP2 ADD PUSH1 0x40 MSTORE DUP1 SWAP3 SWAP2 SWAP1 DUP2 DUP2 MSTORE PUSH1 0x20 ADD DUP3 DUP1 SLOAD PUSH2 0x1B47 SWAP1 PUSH2 0x3DA3 JUMP JUMPDEST DUP1 ISZERO PUSH2 0x1B94 JUMPI DUP1 PUSH1 0x1F LT PUSH2 0x1B69 JUMPI PUSH2 0x100 DUP1 DUP4 SLOAD DIV MUL DUP4 MSTORE SWAP2 PUSH1 0x20 ADD SWAP2 PUSH2 0x1B94 JUMP JUMPDEST DUP3 ADD SWAP2 SWAP1 PUSH1 0x0 MSTORE PUSH1 0x20 PUSH1 0x0 KECCAK256 SWAP1 JUMPDEST DUP2 SLOAD DUP2 MSTORE SWAP1 PUSH1 0x1 ADD SWAP1 PUSH1 0x20 ADD DUP1 DUP4 GT PUSH2 0x1B77 JUMPI DUP3 SWAP1 SUB PUSH1 0x1F AND DUP3 ADD SWAP2 JUMPDEST POP POP POP POP POP DUP2 MSTORE POP POP SWAP1 POP DUP1 PUSH1 0x8 DUP8 PUSH1 0x40 MLOAD PUSH2 0x1BB0 SWAP2 SWAP1 PUSH2 0x3D87 JUMP JUMPDEST SWAP1 DUP2 MSTORE PUSH1 0x40 MLOAD PUSH1 0x20 SWAP2 DUP2 SWAP1 SUB DUP3 ADD SWAP1 KECCAK256 DUP3 MLOAD DUP2 SSTORE SWAP1 DUP3 ADD MLOAD PUSH1 0x1 DUP3 ADD SWAP1 PUSH2 0x1BD7 SWAP1 DUP3 PUSH2 0x3E50 JUMP JUMPDEST POP PUSH1 0x40 DUP3 ADD MLOAD PUSH1 0x2 DUP3 ADD SSTORE PUSH1 0x60 DUP3 ADD MLOAD PUSH1 0x3 DUP3 ADD SWAP1 PUSH2 0x1BF6 SWAP1 DUP3 PUSH2 0x3E50 JUMP JUMPDEST POP POP DUP2 MLOAD PUSH1 0x0 SWAP1 DUP2 MSTORE PUSH1 0x6 PUSH1 0x20 DUP2 DUP2 MSTORE PUSH1 0x40 DUP4 KECCAK256 DUP1 SLOAD PUSH1 0x1 DUP2 ADD DUP3 SSTORE SWAP1 DUP5 MSTORE SWAP3 KECCAK256 DUP6 MLOAD DUP7 SWAP5 POP SWAP3 SWAP1 SWAP2 MUL ADD SWAP1 DUP2 SWAP1 PUSH2 0x1C2E SWAP1 DUP3 PUSH2 0x3E50 JUMP JUMPDEST POP PUSH1 0x20 DUP3 ADD MLOAD PUSH1 0x1 DUP3 ADD SWAP1 PUSH2 0x1C43 SWAP1 DUP3 PUSH2 0x3E50 JUMP JUMPDEST POP PUSH1 0x40 DUP3 ADD MLOAD PUSH1 0x2 DUP3 ADD SSTORE PUSH1 0x60 DUP3 ADD MLOAD PUSH1 0x3 DUP3 ADD SSTORE PUSH1 0x80 DUP3 ADD MLOAD DUP1 MLOAD PUSH1 0x4 DUP4 ADD SWAP1 DUP2 SWAP1 PUSH2 0x1C70 SWAP1 DUP3 PUSH2 0x3E50 JUMP JUMPDEST POP PUSH1 0x20 DUP3 ADD MLOAD PUSH1 0x1 DUP1 DUP4 ADD DUP1 SLOAD SWAP1 SWAP2 PUSH1 0xFF NOT SWAP1 SWAP2 AND SWAP1 DUP4 PUSH1 0x6 DUP2 GT ISZERO PUSH2 0x1C98 JUMPI PUSH2 0x1C98 PUSH2 0x36E3 JUMP JUMPDEST MUL OR SWAP1 SSTORE POP POP POP POP POP PUSH1 0x9 SLOAD PUSH32 0x259101DE1F87B04B9EE0332CE5E3CC508014004BF283424AEAD6CD8692F5CF98 DUP8 PUSH1 0x40 MLOAD PUSH2 0x1CD3 SWAP2 SWAP1 PUSH2 0x38AE JUMP JUMPDEST PUSH1 0x40 MLOAD DUP1 SWAP2 SUB SWAP1 LOG2 PUSH1 0x9 DUP1 SLOAD SWAP1 PUSH1 0x0 PUSH2 0x1CEB DUP4 PUSH2 0x3FC4 JUMP JUMPDEST SWAP2 SWAP1 POP SSTORE POP POP POP POP POP POP POP JUMP JUMPDEST PUSH1 0x0 PUSH1 0x9 SLOAD DUP3 LT PUSH2 0x1D44 JUMPI PUSH1 0x40 MLOAD PUSH3 0x461BCD PUSH1 0xE5 SHL DUP2 MSTORE PUSH1 0x20 PUSH1 0x4 DUP3 ADD MSTORE PUSH1 0x16 PUSH1 0x24 DUP3 ADD MSTORE PUSH22 0x141C9BD91D58DD08191BD95CC81B9BDD08195E1A5CDD PUSH1 0x52 SHL PUSH1 0x44 DUP3 ADD MSTORE PUSH1 0x64 ADD PUSH2 0x444 JUMP JUMPDEST PUSH1 0x0 PUSH1 0x7 PUSH1 0x0 DUP5 DUP2 MSTORE PUSH1 0x20 ADD SWAP1 DUP2 MSTORE PUSH1 0x20 ADD PUSH1 0x0 KECCAK256 PUSH1 0x40 MLOAD DUP1 PUSH1 0x80 ADD PUSH1 0x40 MSTORE SWAP1 DUP2 PUSH1 0x0 DUP3 ADD SLOAD DUP2 MSTORE PUSH1 0x20 ADD PUSH1 0x1 DUP3 ADD DUP1 SLOAD PUSH2 0x1D7E SWAP1 PUSH2 0x3DA3 JUMP JUMPDEST DUP1 PUSH1 0x1F ADD PUSH1 0x20 DUP1 SWAP2 DIV MUL PUSH1 0x20 ADD PUSH1 0x40 MLOAD SWAP1 DUP2 ADD PUSH1 0x40 MSTORE DUP1 SWAP3 SWAP2 SWAP1 DUP2 DUP2 MSTORE PUSH1 0x20 ADD DUP3 DUP1 SLOAD PUSH2 0x1DAA SWAP1 PUSH2 0x3DA3 JUMP JUMPDEST DUP1 ISZERO PUSH2 0x1DF7 JUMPI DUP1 PUSH1 0x1F LT PUSH2 0x1DCC JUMPI PUSH2 0x100 DUP1 DUP4 SLOAD DIV MUL DUP4 MSTORE SWAP2 PUSH1 0x20 ADD SWAP2 PUSH2 0x1DF7 JUMP JUMPDEST DUP3 ADD SWAP2 SWAP1 PUSH1 0x0 MSTORE PUSH1 0x20 PUSH1 0x0 KECCAK256 SWAP1 JUMPDEST DUP2 SLOAD DUP2 MSTORE SWAP1 PUSH1 0x1 ADD SWAP1 PUSH1 0x20 ADD DUP1 DUP4 GT PUSH2 0x1DDA JUMPI DUP3 SWAP1 SUB PUSH1 0x1F AND DUP3 ADD SWAP2 JUMPDEST POP POP POP POP POP DUP2 MSTORE PUSH1 0x20 ADD PUSH1 0x2 DUP3 ADD SLOAD DUP2 MSTORE PUSH1 0x20 ADD PUSH1 0x3 DUP3 ADD DUP1 SLOAD PUSH2 0x1E1A SWAP1 PUSH2 0x3DA3 JUMP JUMPDEST DUP1 PUSH1 0x1F ADD PUSH1 0x20 DUP1 SWAP2 DIV MUL PUSH1 0x20 ADD PUSH1 0x40 MLOAD SWAP1 DUP2 ADD PUSH1 0x40 MSTORE DUP1 SWAP3 SWAP2 SWAP1 DUP2 DUP2 MSTORE PUSH1 0x20 ADD DUP3 DUP1 SLOAD PUSH2 0x1E46 SWAP1 PUSH2 0x3DA3 JUMP JUMPDEST DUP1 ISZERO PUSH2 0x1E93 JUMPI DUP1 PUSH1 0x1F LT PUSH2 0x1E68 JUMPI PUSH2 0x100 DUP1 DUP4 SLOAD DIV MUL DUP4 MSTORE SWAP2 PUSH1 0x20 ADD SWAP2 PUSH2 0x1E93 JUMP JUMPDEST DUP3 ADD SWAP2 SWAP1 PUSH1 0x0 MSTORE PUSH1 0x20 PUSH1 0x0 KECCAK256 SWAP1 JUMPDEST DUP2 SLOAD DUP2 MSTORE SWAP1 PUSH1 0x1 ADD SWAP1 PUSH1 0x20 ADD DUP1 DUP4 GT PUSH2 0x1E76 JUMPI DUP3 SWAP1 SUB PUSH1 0x1F AND DUP3 ADD SWAP2 JUMPDEST POP POP POP SWAP2 SWAP1 SWAP3 MSTORE POP POP POP PUSH1 0x40 ADD MLOAD SWAP4 SWAP3 POP POP POP JUMP JUMPDEST PUSH1 0x0 SLOAD PUSH1 0x1 PUSH1 0x1 PUSH1 0xA0 SHL SUB AND CALLER EQ PUSH2 0x1F15 JUMPI PUSH1 0x40 MLOAD PUSH3 0x461BCD PUSH1 0xE5 SHL DUP2 MSTORE PUSH1 0x20 PUSH1 0x4 DUP3 ADD MSTORE PUSH1 0x2A PUSH1 0x24 DUP3 ADD MSTORE PUSH32 0x4F6E6C7920636F6E7472616374206F776E65722063616E2063616C6C20746869 PUSH1 0x44 DUP3 ADD MSTORE PUSH10 0x3990333AB731BA34B7B7 PUSH1 0xB1 SHL PUSH1 0x64 DUP3 ADD MSTORE PUSH1 0x84 ADD PUSH2 0x444 JUMP JUMPDEST PUSH1 0x1 PUSH1 0x1 PUSH1 0xA0 SHL SUB DUP2 AND PUSH2 0x1F3B JUMPI PUSH1 0x40 MLOAD PUSH3 0x461BCD PUSH1 0xE5 SHL DUP2 MSTORE PUSH1 0x4 ADD PUSH2 0x444 SWAP1 PUSH2 0x3DD7 JUMP JUMPDEST PUSH1 0x0 DUP1 SLOAD PUSH1 0x1 PUSH1 0x1 PUSH1 0xA0 SHL SUB NOT AND PUSH1 0x1 PUSH1 0x1 PUSH1 0xA0 SHL SUB DUP4 AND SWAP1 DUP2 OR SWAP1 SWAP2 SSTORE PUSH1 0x40 DUP1 MLOAD PUSH1 0x60 DUP1 DUP3 MSTORE PUSH1 0x1B SWAP1 DUP3 ADD MSTORE PUSH32 0x4F776E6572206368616E676564207375636365737366756C6C79210000000000 PUSH1 0x80 DUP3 ADD MSTORE CALLER PUSH1 0x20 DUP3 ADD MSTORE SWAP1 DUP2 ADD SWAP2 SWAP1 SWAP2 MSTORE PUSH32 0xF86060286164733A3B0BAE3BA4B62F85DC6020BA2EE440318BF5B6BE6D0D93A8 SWAP1 PUSH1 0xA0 ADD PUSH1 0x40 MLOAD DUP1 SWAP2 SUB SWAP1 LOG1 POP JUMP JUMPDEST PUSH1 0x2 PUSH1 0x20 MSTORE PUSH1 0x0 SWAP1 DUP2 MSTORE PUSH1 0x40 SWAP1 KECCAK256 DUP1 SLOAD DUP2 SWAP1 PUSH2 0x139C SWAP1 PUSH2 0x3DA3 JUMP JUMPDEST PUSH1 0x8 DUP5 PUSH1 0x40 MLOAD PUSH2 0x1FF6 SWAP2 SWAP1 PUSH2 0x3D87 JUMP JUMPDEST SWAP1 DUP2 MSTORE PUSH1 0x20 ADD PUSH1 0x40 MLOAD DUP1 SWAP2 SUB SWAP1 KECCAK256 PUSH1 0x1 ADD DUP1 SLOAD PUSH2 0x2012 SWAP1 PUSH2 0x3DA3 JUMP JUMPDEST SWAP1 POP PUSH1 0x0 SUB PUSH2 0x205C JUMPI PUSH1 0x40 MLOAD PUSH3 0x461BCD PUSH1 0xE5 SHL DUP2 MSTORE PUSH1 0x20 PUSH1 0x4 DUP3 ADD MSTORE PUSH1 0x16 PUSH1 0x24 DUP3 ADD MSTORE PUSH22 0x141C9BD91D58DD08191BD95CC81B9BDD08195E1A5CDD PUSH1 0x52 SHL PUSH1 0x44 DUP3 ADD MSTORE PUSH1 0x64 ADD PUSH2 0x444 JUMP JUMPDEST DUP3 DUP1 MLOAD SWAP1 PUSH1 0x20 ADD KECCAK256 DUP5 DUP1 MLOAD SWAP1 PUSH1 0x20 ADD KECCAK256 EQ PUSH2 0x20EC JUMPI PUSH1 0x8 DUP4 PUSH1 0x40 MLOAD PUSH2 0x2081 SWAP2 SWAP1 PUSH2 0x3D87 JUMP JUMPDEST SWAP1 DUP2 MSTORE PUSH1 0x20 ADD PUSH1 0x40 MLOAD DUP1 SWAP2 SUB SWAP1 KECCAK256 PUSH1 0x1 ADD DUP1 SLOAD PUSH2 0x209D SWAP1 PUSH2 0x3DA3 JUMP JUMPDEST ISZERO SWAP1 POP PUSH2 0x20EC JUMPI PUSH1 0x40 MLOAD PUSH3 0x461BCD PUSH1 0xE5 SHL DUP2 MSTORE PUSH1 0x20 PUSH1 0x4 DUP3 ADD MSTORE PUSH1 0x1F PUSH1 0x24 DUP3 ADD MSTORE PUSH32 0x4E65772070726F64756374206E616D6520616C72656164792065786973747300 PUSH1 0x44 DUP3 ADD MSTORE PUSH1 0x64 ADD PUSH2 0x444 JUMP JUMPDEST PUSH1 0x0 DUP3 GT PUSH2 0x213C JUMPI PUSH1 0x40 MLOAD PUSH3 0x461BCD PUSH1 0xE5 SHL DUP2 MSTORE PUSH1 0x20 PUSH1 0x4 DUP3 ADD MSTORE PUSH1 0x17 PUSH1 0x24 DUP3 ADD MSTORE PUSH32 0x476976652061206E6F6E207A65726F20616D6F756E7421000000000000000000 PUSH1 0x44 DUP3 ADD MSTORE PUSH1 0x64 ADD PUSH2 0x444 JUMP JUMPDEST PUSH1 0x0 PUSH1 0x8 DUP6 PUSH1 0x40 MLOAD PUSH2 0x214E SWAP2 SWAP1 PUSH2 0x3D87 JUMP JUMPDEST SWAP1 DUP2 MSTORE PUSH1 0x20 ADD PUSH1 0x40 MLOAD DUP1 SWAP2 SUB SWAP1 KECCAK256 PUSH1 0x40 MLOAD DUP1 PUSH1 0x80 ADD PUSH1 0x40 MSTORE SWAP1 DUP2 PUSH1 0x0 DUP3 ADD SLOAD DUP2 MSTORE PUSH1 0x20 ADD PUSH1 0x1 DUP3 ADD DUP1 SLOAD PUSH2 0x2181 SWAP1 PUSH2 0x3DA3 JUMP JUMPDEST DUP1 PUSH1 0x1F ADD PUSH1 0x20 DUP1 SWAP2 DIV MUL PUSH1 0x20 ADD PUSH1 0x40 MLOAD SWAP1 DUP2 ADD PUSH1 0x40 MSTORE DUP1 SWAP3 SWAP2 SWAP1 DUP2 DUP2 MSTORE PUSH1 0x20 ADD DUP3 DUP1 SLOAD PUSH2 0x21AD SWAP1 PUSH2 0x3DA3 JUMP JUMPDEST DUP1 ISZERO PUSH2 0x21FA JUMPI DUP1 PUSH1 0x1F LT PUSH2 0x21CF JUMPI PUSH2 0x100 DUP1 DUP4 SLOAD DIV MUL DUP4 MSTORE SWAP2 PUSH1 0x20 ADD SWAP2 PUSH2 0x21FA JUMP JUMPDEST DUP3 ADD SWAP2 SWAP1 PUSH1 0x0 MSTORE PUSH1 0x20 PUSH1 0x0 KECCAK256 SWAP1 JUMPDEST DUP2 SLOAD DUP2 MSTORE SWAP1 PUSH1 0x1 ADD SWAP1 PUSH1 0x20 ADD DUP1 DUP4 GT PUSH2 0x21DD JUMPI DUP3 SWAP1 SUB PUSH1 0x1F AND DUP3 ADD SWAP2 JUMPDEST POP POP POP POP POP DUP2 MSTORE PUSH1 0x20 ADD PUSH1 0x2 DUP3 ADD SLOAD DUP2 MSTORE PUSH1 0x20 ADD PUSH1 0x3 DUP3 ADD DUP1 SLOAD PUSH2 0x221D SWAP1 PUSH2 0x3DA3 JUMP JUMPDEST DUP1 PUSH1 0x1F ADD PUSH1 0x20 DUP1 SWAP2 DIV MUL PUSH1 0x20 ADD PUSH1 0x40 MLOAD SWAP1 DUP2 ADD PUSH1 0x40 MSTORE DUP1 SWAP3 SWAP2 SWAP1 DUP2 DUP2 MSTORE PUSH1 0x20 ADD DUP3 DUP1 SLOAD PUSH2 0x2249 SWAP1 PUSH2 0x3DA3 JUMP JUMPDEST DUP1 ISZERO PUSH2 0x2296 JUMPI DUP1 PUSH1 0x1F LT PUSH2 0x226B JUMPI PUSH2 0x100 DUP1 DUP4 SLOAD DIV MUL DUP4 MSTORE SWAP2 PUSH1 0x20 ADD SWAP2 PUSH2 0x2296 JUMP JUMPDEST DUP3 ADD SWAP2 SWAP1 PUSH1 0x0 MSTORE PUSH1 0x20 PUSH1 0x0 KECCAK256 SWAP1 JUMPDEST DUP2 SLOAD DUP2 MSTORE SWAP1 PUSH1 0x1 ADD SWAP1 PUSH1 0x20 ADD DUP1 DUP4 GT PUSH2 0x2279 JUMPI DUP3 SWAP1 SUB PUSH1 0x1F AND DUP3 ADD SWAP2 JUMPDEST POP POP POP SWAP2 SWAP1 SWAP3 MSTORE POP POP POP PUSH1 0x20 DUP1 DUP3 ADD DUP7 DUP2 MSTORE PUSH1 0x40 DUP1 DUP5 ADD DUP8 SWAP1 MSTORE PUSH1 0x60 DUP5 ADD DUP7 SWAP1 MSTORE DUP4 MLOAD PUSH1 0x0 SWAP1 DUP2 MSTORE PUSH1 0x7 SWAP1 SWAP4 MSTORE SWAP1 SWAP2 KECCAK256 DUP3 MLOAD DUP2 SSTORE SWAP1 MLOAD SWAP2 SWAP3 POP DUP3 SWAP2 PUSH1 0x1 DUP3 ADD SWAP1 PUSH2 0x22E0 SWAP1 DUP3 PUSH2 0x3E50 JUMP JUMPDEST POP PUSH1 0x40 DUP3 ADD MLOAD PUSH1 0x2 DUP3 ADD SSTORE PUSH1 0x60 DUP3 ADD MLOAD PUSH1 0x3 DUP3 ADD SWAP1 PUSH2 0x22FF SWAP1 DUP3 PUSH2 0x3E50 JUMP JUMPDEST POP SWAP1 POP POP DUP1 PUSH1 0x8 DUP7 PUSH1 0x40 MLOAD PUSH2 0x2314 SWAP2 SWAP1 PUSH2 0x3D87 JUMP JUMPDEST SWAP1 DUP2 MSTORE PUSH1 0x40 MLOAD PUSH1 0x20 SWAP2 DUP2 SWAP1 SUB DUP3 ADD SWAP1 KECCAK256 DUP3 MLOAD DUP2 SSTORE SWAP1 DUP3 ADD MLOAD PUSH1 0x1 DUP3 ADD SWAP1 PUSH2 0x233B SWAP1 DUP3 PUSH2 0x3E50 JUMP JUMPDEST POP PUSH1 0x40 DUP3 ADD MLOAD PUSH1 0x2 DUP3 ADD SSTORE PUSH1 0x60 DUP3 ADD MLOAD PUSH1 0x3 DUP3 ADD SWAP1 PUSH2 0x235A SWAP1 DUP3 PUSH2 0x3E50 JUMP JUMPDEST POP SWAP1 POP POP PUSH32 0x4715E71E173CF1D6B6520D14D27288495CAF68A395138F2C31BCD7C4C8A6938C DUP6 PUSH1 0x40 MLOAD PUSH2 0x1367 SWAP2 SWAP1 PUSH2 0x38AE JUMP JUMPDEST PUSH1 0x1 DUP1 CALLER PUSH1 0x0 SWAP1 DUP2 MSTORE PUSH1 0x2 PUSH1 0x20 MSTORE PUSH1 0x40 SWAP1 KECCAK256 PUSH1 0x1 ADD SLOAD PUSH1 0xFF AND PUSH1 0x4 DUP2 GT ISZERO PUSH2 0x23B7 JUMPI PUSH2 0x23B7 PUSH2 0x36E3 JUMP JUMPDEST EQ PUSH2 0x23D4 JUMPI PUSH1 0x40 MLOAD PUSH3 0x461BCD PUSH1 0xE5 SHL DUP2 MSTORE PUSH1 0x4 ADD PUSH2 0x444 SWAP1 PUSH2 0x3D50 JUMP JUMPDEST PUSH1 0x4 DUP4 PUSH1 0x40 MLOAD PUSH2 0x23E4 SWAP2 SWAP1 PUSH2 0x3D87 JUMP JUMPDEST SWAP1 DUP2 MSTORE PUSH1 0x40 MLOAD SWAP1 DUP2 SWAP1 SUB PUSH1 0x20 ADD SWAP1 KECCAK256 DUP1 SLOAD PUSH2 0x23FE SWAP1 PUSH2 0x3DA3 JUMP JUMPDEST ISZERO SWAP1 POP PUSH2 0x2445 JUMPI PUSH1 0x40 MLOAD PUSH3 0x461BCD PUSH1 0xE5 SHL DUP2 MSTORE PUSH1 0x20 PUSH1 0x4 DUP3 ADD MSTORE PUSH1 0x15 PUSH1 0x24 DUP3 ADD MSTORE PUSH21 0x456E7469747920616C726561647920657869737473 PUSH1 0x58 SHL PUSH1 0x44 DUP3 ADD MSTORE PUSH1 0x64 ADD PUSH2 0x444 JUMP JUMPDEST PUSH1 0x40 MLOAD DUP1 PUSH1 0x40 ADD PUSH1 0x40 MSTORE DUP1 DUP5 DUP2 MSTORE PUSH1 0x20 ADD DUP4 PUSH1 0x6 DUP2 GT ISZERO PUSH2 0x2468 JUMPI PUSH2 0x2468 PUSH2 0x36E3 JUMP JUMPDEST DUP2 MSTORE POP PUSH1 0x4 DUP5 PUSH1 0x40 MLOAD PUSH2 0x247B SWAP2 SWAP1 PUSH2 0x3D87 JUMP JUMPDEST SWAP1 DUP2 MSTORE PUSH1 0x40 MLOAD SWAP1 DUP2 SWAP1 SUB PUSH1 0x20 ADD SWAP1 KECCAK256 DUP2 MLOAD DUP2 SWAP1 PUSH2 0x2498 SWAP1 DUP3 PUSH2 0x3E50 JUMP JUMPDEST POP PUSH1 0x20 DUP3 ADD MLOAD PUSH1 0x1 DUP1 DUP4 ADD DUP1 SLOAD SWAP1 SWAP2 PUSH1 0xFF NOT SWAP1 SWAP2 AND SWAP1 DUP4 PUSH1 0x6 DUP2 GT ISZERO PUSH2 0x24C0 JUMPI PUSH2 0x24C0 PUSH2 0x36E3 JUMP JUMPDEST MUL OR SWAP1 SSTORE POP SWAP1 POP POP PUSH1 0x5 PUSH1 0x0 DUP4 PUSH1 0x6 DUP2 GT ISZERO PUSH2 0x24DE JUMPI PUSH2 0x24DE PUSH2 0x36E3 JUMP JUMPDEST PUSH1 0x6 DUP2 GT ISZERO PUSH2 0x24EF JUMPI PUSH2 0x24EF PUSH2 0x36E3 JUMP JUMPDEST DUP2 MSTORE PUSH1 0x20 DUP1 DUP3 ADD SWAP3 SWAP1 SWAP3 MSTORE PUSH1 0x40 ADD PUSH1 0x0 SWAP1 DUP2 KECCAK256 DUP1 SLOAD PUSH1 0x1 DUP2 ADD DUP3 SSTORE SWAP1 DUP3 MSTORE SWAP2 SWAP1 KECCAK256 ADD PUSH2 0x251B DUP5 DUP3 PUSH2 0x3E50 JUMP JUMPDEST POP PUSH32 0x1D8D97F815529F4002C8AF40C79FD5DF57F9D8D426D5D60B300C9AE272DB43E6 DUP4 DUP4 PUSH1 0x40 MLOAD PUSH2 0x254D SWAP3 SWAP2 SWAP1 PUSH2 0x41E2 JUMP JUMPDEST PUSH1 0x40 MLOAD DUP1 SWAP2 SUB SWAP1 LOG1 POP POP POP JUMP JUMPDEST PUSH1 0x6 PUSH1 0x20 MSTORE DUP2 PUSH1 0x0 MSTORE PUSH1 0x40 PUSH1 0x0 KECCAK256 DUP2 DUP2 SLOAD DUP2 LT PUSH2 0x2576 JUMPI PUSH1 0x0 DUP1 REVERT JUMPDEST SWAP1 PUSH1 0x0 MSTORE PUSH1 0x20 PUSH1 0x0 KECCAK256 SWAP1 PUSH1 0x6 MUL ADD PUSH1 0x0 SWAP2 POP SWAP2 POP POP DUP1 PUSH1 0x0 ADD DUP1 SLOAD PUSH2 0x259A SWAP1 PUSH2 0x3DA3 JUMP JUMPDEST DUP1 PUSH1 0x1F ADD PUSH1 0x20 DUP1 SWAP2 DIV MUL PUSH1 0x20 ADD PUSH1 0x40 MLOAD SWAP1 DUP2 ADD PUSH1 0x40 MSTORE DUP1 SWAP3 SWAP2 SWAP1 DUP2 DUP2 MSTORE PUSH1 0x20 ADD DUP3 DUP1 SLOAD PUSH2 0x25C6 SWAP1 PUSH2 0x3DA3 JUMP JUMPDEST DUP1 ISZERO PUSH2 0x2613 JUMPI DUP1 PUSH1 0x1F LT PUSH2 0x25E8 JUMPI PUSH2 0x100 DUP1 DUP4 SLOAD DIV MUL DUP4 MSTORE SWAP2 PUSH1 0x20 ADD SWAP2 PUSH2 0x2613 JUMP JUMPDEST DUP3 ADD SWAP2 SWAP1 PUSH1 0x0 MSTORE PUSH1 0x20 PUSH1 0x0 KECCAK256 SWAP1 JUMPDEST DUP2 SLOAD DUP2 MSTORE SWAP1 PUSH1 0x1 ADD SWAP1 PUSH1 0x20 ADD DUP1 DUP4 GT PUSH2 0x25F6 JUMPI DUP3 SWAP1 SUB PUSH1 0x1F AND DUP3 ADD SWAP2 JUMPDEST POP POP POP POP POP SWAP1 DUP1 PUSH1 0x1 ADD DUP1 SLOAD PUSH2 0x2628 SWAP1 PUSH2 0x3DA3 JUMP JUMPDEST DUP1 PUSH1 0x1F ADD PUSH1 0x20 DUP1 SWAP2 DIV MUL PUSH1 0x20 ADD PUSH1 0x40 MLOAD SWAP1 DUP2 ADD PUSH1 0x40 MSTORE DUP1 SWAP3 SWAP2 SWAP1 DUP2 DUP2 MSTORE PUSH1 0x20 ADD DUP3 DUP1 SLOAD PUSH2 0x2654 SWAP1 PUSH2 0x3DA3 JUMP JUMPDEST DUP1 ISZERO PUSH2 0x26A1 JUMPI DUP1 PUSH1 0x1F LT PUSH2 0x2676 JUMPI PUSH2 0x100 DUP1 DUP4 SLOAD DIV MUL DUP4 MSTORE SWAP2 PUSH1 0x20 ADD SWAP2 PUSH2 0x26A1 JUMP JUMPDEST DUP3 ADD SWAP2 SWAP1 PUSH1 0x0 MSTORE PUSH1 0x20 PUSH1 0x0 KECCAK256 SWAP1 JUMPDEST DUP2 SLOAD DUP2 MSTORE SWAP1 PUSH1 0x1 ADD SWAP1 PUSH1 0x20 ADD DUP1 DUP4 GT PUSH2 0x2684 JUMPI DUP3 SWAP1 SUB PUSH1 0x1F AND DUP3 ADD SWAP2 JUMPDEST POP POP POP POP POP SWAP1 DUP1 PUSH1 0x2 ADD SLOAD SWAP1 DUP1 PUSH1 0x3 ADD SLOAD SWAP1 DUP1 PUSH1 0x4 ADD PUSH1 0x40 MLOAD DUP1 PUSH1 0x40 ADD PUSH1 0x40 MSTORE SWAP1 DUP2 PUSH1 0x0 DUP3 ADD DUP1 SLOAD PUSH2 0x26D2 SWAP1 PUSH2 0x3DA3 JUMP JUMPDEST DUP1 PUSH1 0x1F ADD PUSH1 0x20 DUP1 SWAP2 DIV MUL PUSH1 0x20 ADD PUSH1 0x40 MLOAD SWAP1 DUP2 ADD PUSH1 0x40 MSTORE DUP1 SWAP3 SWAP2 SWAP1 DUP2 DUP2 MSTORE PUSH1 0x20 ADD DUP3 DUP1 SLOAD PUSH2 0x26FE SWAP1 PUSH2 0x3DA3 JUMP JUMPDEST DUP1 ISZERO PUSH2 0x274B JUMPI DUP1 PUSH1 0x1F LT PUSH2 0x2720 JUMPI PUSH2 0x100 DUP1 DUP4 SLOAD DIV MUL DUP4 MSTORE SWAP2 PUSH1 0x20 ADD SWAP2 PUSH2 0x274B JUMP JUMPDEST DUP3 ADD SWAP2 SWAP1 PUSH1 0x0 MSTORE PUSH1 0x20 PUSH1 0x0 KECCAK256 SWAP1 JUMPDEST DUP2 SLOAD DUP2 MSTORE SWAP1 PUSH1 0x1 ADD SWAP1 PUSH1 0x20 ADD DUP1 DUP4 GT PUSH2 0x272E JUMPI DUP3 SWAP1 SUB PUSH1 0x1F AND DUP3 ADD SWAP2 JUMPDEST POP POP POP SWAP2 DUP4 MSTORE POP POP PUSH1 0x1 DUP3 ADD SLOAD PUSH1 0x20 SWAP1 SWAP2 ADD SWAP1 PUSH1 0xFF AND PUSH1 0x6 DUP2 GT ISZERO PUSH2 0x2772 JUMPI PUSH2 0x2772 PUSH2 0x36E3 JUMP JUMPDEST PUSH1 0x6 DUP2 GT ISZERO PUSH2 0x2783 JUMPI PUSH2 0x2783 PUSH2 0x36E3 JUMP JUMPDEST SWAP1 MSTORE POP SWAP1 POP DUP6 JUMP JUMPDEST PUSH1 0x3 SLOAD PUSH1 0x60 SWAP1 PUSH1 0x0 SWAP1 PUSH8 0xFFFFFFFFFFFFFFFF DUP2 GT ISZERO PUSH2 0x27AC JUMPI PUSH2 0x27AC PUSH2 0x35B3 JUMP JUMPDEST PUSH1 0x40 MLOAD SWAP1 DUP1 DUP3 MSTORE DUP1 PUSH1 0x20 MUL PUSH1 0x20 ADD DUP3 ADD PUSH1 0x40 MSTORE DUP1 ISZERO PUSH2 0x27F2 JUMPI DUP2 PUSH1 0x20 ADD JUMPDEST PUSH1 0x40 DUP1 MLOAD DUP1 DUP3 ADD SWAP1 SWAP2 MSTORE PUSH1 0x60 DUP2 MSTORE PUSH1 0x0 PUSH1 0x20 DUP3 ADD MSTORE DUP2 MSTORE PUSH1 0x20 ADD SWAP1 PUSH1 0x1 SWAP1 SUB SWAP1 DUP2 PUSH2 0x27CA JUMPI SWAP1 POP JUMPDEST POP SWAP1 POP PUSH1 0x0 JUMPDEST PUSH1 0x3 SLOAD DUP2 LT ISZERO PUSH2 0x293C JUMPI PUSH1 0x2 PUSH1 0x0 PUSH1 0x3 DUP4 DUP2 SLOAD DUP2 LT PUSH2 0x2819 JUMPI PUSH2 0x2819 PUSH2 0x3F69 JUMP JUMPDEST PUSH1 0x0 SWAP2 DUP3 MSTORE PUSH1 0x20 DUP1 DUP4 KECCAK256 SWAP1 SWAP2 ADD SLOAD PUSH1 0x1 PUSH1 0x1 PUSH1 0xA0 SHL SUB AND DUP4 MSTORE DUP3 ADD SWAP3 SWAP1 SWAP3 MSTORE PUSH1 0x40 SWAP1 DUP2 ADD SWAP1 SWAP2 KECCAK256 DUP2 MLOAD DUP1 DUP4 ADD SWAP1 SWAP3 MSTORE DUP1 SLOAD DUP3 SWAP1 DUP3 SWAP1 PUSH2 0x2857 SWAP1 PUSH2 0x3DA3 JUMP JUMPDEST DUP1 PUSH1 0x1F ADD PUSH1 0x20 DUP1 SWAP2 DIV MUL PUSH1 0x20 ADD PUSH1 0x40 MLOAD SWAP1 DUP2 ADD PUSH1 0x40 MSTORE DUP1 SWAP3 SWAP2 SWAP1 DUP2 DUP2 MSTORE PUSH1 0x20 ADD DUP3 DUP1 SLOAD PUSH2 0x2883 SWAP1 PUSH2 0x3DA3 JUMP JUMPDEST DUP1 ISZERO PUSH2 0x28D0 JUMPI DUP1 PUSH1 0x1F LT PUSH2 0x28A5 JUMPI PUSH2 0x100 DUP1 DUP4 SLOAD DIV MUL DUP4 MSTORE SWAP2 PUSH1 0x20 ADD SWAP2 PUSH2 0x28D0 JUMP JUMPDEST DUP3 ADD SWAP2 SWAP1 PUSH1 0x0 MSTORE PUSH1 0x20 PUSH1 0x0 KECCAK256 SWAP1 JUMPDEST DUP2 SLOAD DUP2 MSTORE SWAP1 PUSH1 0x1 ADD SWAP1 PUSH1 0x20 ADD DUP1 DUP4 GT PUSH2 0x28B3 JUMPI DUP3 SWAP1 SUB PUSH1 0x1F AND DUP3 ADD SWAP2 JUMPDEST POP POP POP SWAP2 DUP4 MSTORE POP POP PUSH1 0x1 DUP3 ADD SLOAD PUSH1 0x20 SWAP1 SWAP2 ADD SWAP1 PUSH1 0xFF AND PUSH1 0x4 DUP2 GT ISZERO PUSH2 0x28F7 JUMPI PUSH2 0x28F7 PUSH2 0x36E3 JUMP JUMPDEST PUSH1 0x4 DUP2 GT ISZERO PUSH2 0x2908 JUMPI PUSH2 0x2908 PUSH2 0x36E3 JUMP JUMPDEST DUP2 MSTORE POP POP DUP3 DUP3 DUP2 MLOAD DUP2 LT PUSH2 0x291E JUMPI PUSH2 0x291E PUSH2 0x3F69 JUMP JUMPDEST PUSH1 0x20 MUL PUSH1 0x20 ADD ADD DUP2 SWAP1 MSTORE POP DUP1 DUP1 PUSH2 0x2934 SWAP1 PUSH2 0x3FC4 JUMP JUMPDEST SWAP2 POP POP PUSH2 0x27F8 JUMP JUMPDEST POP SWAP2 SWAP1 POP JUMP JUMPDEST PUSH1 0x60 DUP1 PUSH1 0x0 PUSH1 0x8 DUP5 PUSH1 0x40 MLOAD PUSH2 0x2957 SWAP2 SWAP1 PUSH2 0x3D87 JUMP JUMPDEST SWAP1 DUP2 MSTORE PUSH1 0x20 ADD PUSH1 0x40 MLOAD DUP1 SWAP2 SUB SWAP1 KECCAK256 PUSH1 0x40 MLOAD DUP1 PUSH1 0x80 ADD PUSH1 0x40 MSTORE SWAP1 DUP2 PUSH1 0x0 DUP3 ADD SLOAD DUP2 MSTORE PUSH1 0x20 ADD PUSH1 0x1 DUP3 ADD DUP1 SLOAD PUSH2 0x298A SWAP1 PUSH2 0x3DA3 JUMP JUMPDEST DUP1 PUSH1 0x1F ADD PUSH1 0x20 DUP1 SWAP2 DIV MUL PUSH1 0x20 ADD PUSH1 0x40 MLOAD SWAP1 DUP2 ADD PUSH1 0x40 MSTORE DUP1 SWAP3 SWAP2 SWAP1 DUP2 DUP2 MSTORE PUSH1 0x20 ADD DUP3 DUP1 SLOAD PUSH2 0x29B6 SWAP1 PUSH2 0x3DA3 JUMP JUMPDEST DUP1 ISZERO PUSH2 0x2A03 JUMPI DUP1 PUSH1 0x1F LT PUSH2 0x29D8 JUMPI PUSH2 0x100 DUP1 DUP4 SLOAD DIV MUL DUP4 MSTORE SWAP2 PUSH1 0x20 ADD SWAP2 PUSH2 0x2A03 JUMP JUMPDEST DUP3 ADD SWAP2 SWAP1 PUSH1 0x0 MSTORE PUSH1 0x20 PUSH1 0x0 KECCAK256 SWAP1 JUMPDEST DUP2 SLOAD DUP2 MSTORE SWAP1 PUSH1 0x1 ADD SWAP1 PUSH1 0x20 ADD DUP1 DUP4 GT PUSH2 0x29E6 JUMPI DUP3 SWAP1 SUB PUSH1 0x1F AND DUP3 ADD SWAP2 JUMPDEST POP POP POP POP POP DUP2 MSTORE PUSH1 0x20 ADD PUSH1 0x2 DUP3 ADD SLOAD DUP2 MSTORE PUSH1 0x20 ADD PUSH1 0x3 DUP3 ADD DUP1 SLOAD PUSH2 0x2A26 SWAP1 PUSH2 0x3DA3 JUMP JUMPDEST DUP1 PUSH1 0x1F ADD PUSH1 0x20 DUP1 SWAP2 DIV MUL PUSH1 0x20 ADD PUSH1 0x40 MLOAD SWAP1 DUP2 ADD PUSH1 0x40 MSTORE DUP1 SWAP3 SWAP2 SWAP1 DUP2 DUP2 MSTORE PUSH1 0x20 ADD DUP3 DUP1 SLOAD PUSH2 0x2A52 SWAP1 PUSH2 0x3DA3 JUMP JUMPDEST DUP1 ISZERO PUSH2 0x2A9F JUMPI DUP1 PUSH1 0x1F LT PUSH2 0x2A74 JUMPI PUSH2 0x100 DUP1 DUP4 SLOAD DIV MUL DUP4 MSTORE SWAP2 PUSH1 0x20 ADD SWAP2 PUSH2 0x2A9F JUMP JUMPDEST DUP3 ADD SWAP2 SWAP1 PUSH1 0x0 MSTORE PUSH1 0x20 PUSH1 0x0 KECCAK256 SWAP1 JUMPDEST DUP2 SLOAD DUP2 MSTORE SWAP1 PUSH1 0x1 ADD SWAP1 PUSH1 0x20 ADD DUP1 DUP4 GT PUSH2 0x2A82 JUMPI DUP3 SWAP1 SUB PUSH1 0x1F AND DUP3 ADD SWAP2 JUMPDEST POP POP POP POP POP DUP2 MSTORE POP POP SWAP1 POP PUSH1 0x0 PUSH1 0x6 PUSH1 0x0 DUP4 PUSH1 0x0 ADD MLOAD DUP2 MSTORE PUSH1 0x20 ADD SWAP1 DUP2 MSTORE PUSH1 0x20 ADD PUSH1 0x0 KECCAK256 DUP1 SLOAD DUP1 PUSH1 0x20 MUL PUSH1 0x20 ADD PUSH1 0x40 MLOAD SWAP1 DUP2 ADD PUSH1 0x40 MSTORE DUP1 SWAP3 SWAP2 SWAP1 DUP2 DUP2 MSTORE PUSH1 0x20 ADD PUSH1 0x0 SWAP1 JUMPDEST DUP3 DUP3 LT ISZERO PUSH2 0x2D25 JUMPI DUP4 DUP3 SWAP1 PUSH1 0x0 MSTORE PUSH1 0x20 PUSH1 0x0 KECCAK256 SWAP1 PUSH1 0x6 MUL ADD PUSH1 0x40 MLOAD DUP1 PUSH1 0xA0 ADD PUSH1 0x40 MSTORE SWAP1 DUP2 PUSH1 0x0 DUP3 ADD DUP1 SLOAD PUSH2 0x2B16 SWAP1 PUSH2 0x3DA3 JUMP JUMPDEST DUP1 PUSH1 0x1F ADD PUSH1 0x20 DUP1 SWAP2 DIV MUL PUSH1 0x20 ADD PUSH1 0x40 MLOAD SWAP1 DUP2 ADD PUSH1 0x40 MSTORE DUP1 SWAP3 SWAP2 SWAP1 DUP2 DUP2 MSTORE PUSH1 0x20 ADD DUP3 DUP1 SLOAD PUSH2 0x2B42 SWAP1 PUSH2 0x3DA3 JUMP JUMPDEST DUP1 ISZERO PUSH2 0x2B8F JUMPI DUP1 PUSH1 0x1F LT PUSH2 0x2B64 JUMPI PUSH2 0x100 DUP1 DUP4 SLOAD DIV MUL DUP4 MSTORE SWAP2 PUSH1 0x20 ADD SWAP2 PUSH2 0x2B8F JUMP JUMPDEST DUP3 ADD SWAP2 SWAP1 PUSH1 0x0 MSTORE PUSH1 0x20 PUSH1 0x0 KECCAK256 SWAP1 JUMPDEST DUP2 SLOAD DUP2 MSTORE SWAP1 PUSH1 0x1 ADD SWAP1 PUSH1 0x20 ADD DUP1 DUP4 GT PUSH2 0x2B72 JUMPI DUP3 SWAP1 SUB PUSH1 0x1F AND DUP3 ADD SWAP2 JUMPDEST POP POP POP POP POP DUP2 MSTORE PUSH1 0x20 ADD PUSH1 0x1 DUP3 ADD DUP1 SLOAD PUSH2 0x2BA8 SWAP1 PUSH2 0x3DA3 JUMP JUMPDEST DUP1 PUSH1 0x1F ADD PUSH1 0x20 DUP1 SWAP2 DIV MUL PUSH1 0x20 ADD PUSH1 0x40 MLOAD SWAP1 DUP2 ADD PUSH1 0x40 MSTORE DUP1 SWAP3 SWAP2 SWAP1 DUP2 DUP2 MSTORE PUSH1 0x20 ADD DUP3 DUP1 SLOAD PUSH2 0x2BD4 SWAP1 PUSH2 0x3DA3 JUMP JUMPDEST DUP1 ISZERO PUSH2 0x2C21 JUMPI DUP1 PUSH1 0x1F LT PUSH2 0x2BF6 JUMPI PUSH2 0x100 DUP1 DUP4 SLOAD DIV MUL DUP4 MSTORE SWAP2 PUSH1 0x20 ADD SWAP2 PUSH2 0x2C21 JUMP JUMPDEST DUP3 ADD SWAP2 SWAP1 PUSH1 0x0 MSTORE PUSH1 0x20 PUSH1 0x0 KECCAK256 SWAP1 JUMPDEST DUP2 SLOAD DUP2 MSTORE SWAP1 PUSH1 0x1 ADD SWAP1 PUSH1 0x20 ADD DUP1 DUP4 GT PUSH2 0x2C04 JUMPI DUP3 SWAP1 SUB PUSH1 0x1F AND DUP3 ADD SWAP2 JUMPDEST POP POP POP POP POP DUP2 MSTORE PUSH1 0x20 ADD PUSH1 0x2 DUP3 ADD SLOAD DUP2 MSTORE PUSH1 0x20 ADD PUSH1 0x3 DUP3 ADD SLOAD DUP2 MSTORE PUSH1 0x20 ADD PUSH1 0x4 DUP3 ADD PUSH1 0x40 MLOAD DUP1 PUSH1 0x40 ADD PUSH1 0x40 MSTORE SWAP1 DUP2 PUSH1 0x0 DUP3 ADD DUP1 SLOAD PUSH2 0x2C5E SWAP1 PUSH2 0x3DA3 JUMP JUMPDEST DUP1 PUSH1 0x1F ADD PUSH1 0x20 DUP1 SWAP2 DIV MUL PUSH1 0x20 ADD PUSH1 0x40 MLOAD SWAP1 DUP2 ADD PUSH1 0x40 MSTORE DUP1 SWAP3 SWAP2 SWAP1 DUP2 DUP2 MSTORE PUSH1 0x20 ADD DUP3 DUP1 SLOAD PUSH2 0x2C8A SWAP1 PUSH2 0x3DA3 JUMP JUMPDEST DUP1 ISZERO PUSH2 0x2CD7 JUMPI DUP1 PUSH1 0x1F LT PUSH2 0x2CAC JUMPI PUSH2 0x100 DUP1 DUP4 SLOAD DIV MUL DUP4 MSTORE SWAP2 PUSH1 0x20 ADD SWAP2 PUSH2 0x2CD7 JUMP JUMPDEST DUP3 ADD SWAP2 SWAP1 PUSH1 0x0 MSTORE PUSH1 0x20 PUSH1 0x0 KECCAK256 SWAP1 JUMPDEST DUP2 SLOAD DUP2 MSTORE SWAP1 PUSH1 0x1 ADD SWAP1 PUSH1 0x20 ADD DUP1 DUP4 GT PUSH2 0x2CBA JUMPI DUP3 SWAP1 SUB PUSH1 0x1F AND DUP3 ADD SWAP2 JUMPDEST POP POP POP SWAP2 DUP4 MSTORE POP POP PUSH1 0x1 DUP3 ADD SLOAD PUSH1 0x20 SWAP1 SWAP2 ADD SWAP1 PUSH1 0xFF AND PUSH1 0x6 DUP2 GT ISZERO PUSH2 0x2CFE JUMPI PUSH2 0x2CFE PUSH2 0x36E3 JUMP JUMPDEST PUSH1 0x6 DUP2 GT ISZERO PUSH2 0x2D0F JUMPI PUSH2 0x2D0F PUSH2 0x36E3 JUMP JUMPDEST SWAP1 MSTORE POP SWAP1 MSTORE POP DUP2 MSTORE PUSH1 0x1 SWAP1 SWAP2 ADD SWAP1 PUSH1 0x20 ADD PUSH2 0x2AE3 JUMP JUMPDEST POP POP PUSH1 0x40 DUP1 MLOAD PUSH1 0x20 DUP2 ADD SWAP1 SWAP2 MSTORE PUSH1 0x0 DUP1 DUP3 MSTORE SWAP4 SWAP5 POP SWAP3 SWAP2 POP PUSH2 0x2D44 SWAP1 POP JUMP JUMPDEST DUP3 PUSH1 0x1 DUP5 MLOAD PUSH2 0x2D53 SWAP2 SWAP1 PUSH2 0x3F95 JUMP JUMPDEST DUP2 MLOAD DUP2 LT PUSH2 0x2D63 JUMPI PUSH2 0x2D63 PUSH2 0x3F69 JUMP JUMPDEST PUSH1 0x20 MUL PUSH1 0x20 ADD ADD MLOAD PUSH1 0x80 ADD MLOAD PUSH1 0x20 ADD MLOAD PUSH1 0x6 DUP2 GT ISZERO PUSH2 0x2D84 JUMPI PUSH2 0x2D84 PUSH2 0x36E3 JUMP JUMPDEST SUB PUSH2 0x2DC3 JUMPI POP PUSH1 0x40 DUP1 MLOAD DUP1 DUP3 ADD SWAP1 SWAP2 MSTORE PUSH1 0x1B DUP2 MSTORE PUSH32 0x50726F64756374206973206A75737420696E697469616C697A65640000000000 PUSH1 0x20 DUP3 ADD MSTORE PUSH2 0x2F82 JUMP JUMPDEST PUSH1 0x1 DUP3 PUSH1 0x1 DUP5 MLOAD PUSH2 0x2DD4 SWAP2 SWAP1 PUSH2 0x3F95 JUMP JUMPDEST DUP2 MLOAD DUP2 LT PUSH2 0x2DE4 JUMPI PUSH2 0x2DE4 PUSH2 0x3F69 JUMP JUMPDEST PUSH1 0x20 MUL PUSH1 0x20 ADD ADD MLOAD PUSH1 0x80 ADD MLOAD PUSH1 0x20 ADD MLOAD PUSH1 0x6 DUP2 GT ISZERO PUSH2 0x2E05 JUMPI PUSH2 0x2E05 PUSH2 0x36E3 JUMP JUMPDEST SUB PUSH2 0x2E2A JUMPI PUSH1 0x40 MLOAD DUP1 PUSH1 0x60 ADD PUSH1 0x40 MSTORE DUP1 PUSH1 0x25 DUP2 MSTORE PUSH1 0x20 ADD PUSH2 0x428F PUSH1 0x25 SWAP2 CODECOPY SWAP1 POP PUSH2 0x2F82 JUMP JUMPDEST PUSH1 0x2 DUP3 PUSH1 0x1 DUP5 MLOAD PUSH2 0x2E3B SWAP2 SWAP1 PUSH2 0x3F95 JUMP JUMPDEST DUP2 MLOAD DUP2 LT PUSH2 0x2E4B JUMPI PUSH2 0x2E4B PUSH2 0x3F69 JUMP JUMPDEST PUSH1 0x20 MUL PUSH1 0x20 ADD ADD MLOAD PUSH1 0x80 ADD MLOAD PUSH1 0x20 ADD MLOAD PUSH1 0x6 DUP2 GT ISZERO PUSH2 0x2E6C JUMPI PUSH2 0x2E6C PUSH2 0x36E3 JUMP JUMPDEST SUB PUSH2 0x2E91 JUMPI PUSH1 0x40 MLOAD DUP1 PUSH1 0x60 ADD PUSH1 0x40 MSTORE DUP1 PUSH1 0x29 DUP2 MSTORE PUSH1 0x20 ADD PUSH2 0x421E PUSH1 0x29 SWAP2 CODECOPY SWAP1 POP PUSH2 0x2F82 JUMP JUMPDEST PUSH1 0x3 DUP3 PUSH1 0x1 DUP5 MLOAD PUSH2 0x2EA2 SWAP2 SWAP1 PUSH2 0x3F95 JUMP JUMPDEST DUP2 MLOAD DUP2 LT PUSH2 0x2EB2 JUMPI PUSH2 0x2EB2 PUSH2 0x3F69 JUMP JUMPDEST PUSH1 0x20 MUL PUSH1 0x20 ADD ADD MLOAD PUSH1 0x80 ADD MLOAD PUSH1 0x20 ADD MLOAD PUSH1 0x6 DUP2 GT ISZERO PUSH2 0x2ED3 JUMPI PUSH2 0x2ED3 PUSH2 0x36E3 JUMP JUMPDEST SUB PUSH2 0x2EF8 JUMPI PUSH1 0x40 MLOAD DUP1 PUSH1 0x60 ADD PUSH1 0x40 MSTORE DUP1 PUSH1 0x24 DUP2 MSTORE PUSH1 0x20 ADD PUSH2 0x426B PUSH1 0x24 SWAP2 CODECOPY SWAP1 POP PUSH2 0x2F82 JUMP JUMPDEST PUSH1 0x4 DUP3 PUSH1 0x1 DUP5 MLOAD PUSH2 0x2F09 SWAP2 SWAP1 PUSH2 0x3F95 JUMP JUMPDEST DUP2 MLOAD DUP2 LT PUSH2 0x2F19 JUMPI PUSH2 0x2F19 PUSH2 0x3F69 JUMP JUMPDEST PUSH1 0x20 MUL PUSH1 0x20 ADD ADD MLOAD PUSH1 0x80 ADD MLOAD PUSH1 0x20 ADD MLOAD PUSH1 0x6 DUP2 GT ISZERO PUSH2 0x2F3A JUMPI PUSH2 0x2F3A PUSH2 0x36E3 JUMP JUMPDEST SUB PUSH2 0x2F5F JUMPI PUSH1 0x40 MLOAD DUP1 PUSH1 0x60 ADD PUSH1 0x40 MSTORE DUP1 PUSH1 0x24 DUP2 MSTORE PUSH1 0x20 ADD PUSH2 0x4247 PUSH1 0x24 SWAP2 CODECOPY SWAP1 POP PUSH2 0x2F82 JUMP JUMPDEST POP PUSH1 0x40 DUP1 MLOAD DUP1 DUP3 ADD SWAP1 SWAP2 MSTORE PUSH1 0xA DUP2 MSTORE PUSH10 0x536F7520727865746169 PUSH1 0xB0 SHL PUSH1 0x20 DUP3 ADD MSTORE JUMPDEST SWAP1 SWAP6 SWAP1 SWAP5 POP SWAP3 POP POP POP JUMP JUMPDEST PUSH1 0x0 PUSH1 0x8 DUP9 PUSH1 0x40 MLOAD PUSH2 0x2F9F SWAP2 SWAP1 PUSH2 0x3D87 JUMP JUMPDEST SWAP1 DUP2 MSTORE PUSH1 0x20 ADD PUSH1 0x40 MLOAD DUP1 SWAP2 SUB SWAP1 KECCAK256 PUSH1 0x40 MLOAD DUP1 PUSH1 0x80 ADD PUSH1 0x40 MSTORE SWAP1 DUP2 PUSH1 0x0 DUP3 ADD SLOAD DUP2 MSTORE PUSH1 0x20 ADD PUSH1 0x1 DUP3 ADD DUP1 SLOAD PUSH2 0x2FD2 SWAP1 PUSH2 0x3DA3 JUMP JUMPDEST DUP1 PUSH1 0x1F ADD PUSH1 0x20 DUP1 SWAP2 DIV MUL PUSH1 0x20 ADD PUSH1 0x40 MLOAD SWAP1 DUP2 ADD PUSH1 0x40 MSTORE DUP1 SWAP3 SWAP2 SWAP1 DUP2 DUP2 MSTORE PUSH1 0x20 ADD DUP3 DUP1 SLOAD PUSH2 0x2FFE SWAP1 PUSH2 0x3DA3 JUMP JUMPDEST DUP1 ISZERO PUSH2 0x304B JUMPI DUP1 PUSH1 0x1F LT PUSH2 0x3020 JUMPI PUSH2 0x100 DUP1 DUP4 SLOAD DIV MUL DUP4 MSTORE SWAP2 PUSH1 0x20 ADD SWAP2 PUSH2 0x304B JUMP JUMPDEST DUP3 ADD SWAP2 SWAP1 PUSH1 0x0 MSTORE PUSH1 0x20 PUSH1 0x0 KECCAK256 SWAP1 JUMPDEST DUP2 SLOAD DUP2 MSTORE SWAP1 PUSH1 0x1 ADD SWAP1 PUSH1 0x20 ADD DUP1 DUP4 GT PUSH2 0x302E JUMPI DUP3 SWAP1 SUB PUSH1 0x1F AND DUP3 ADD SWAP2 JUMPDEST POP POP POP POP POP DUP2 MSTORE PUSH1 0x20 ADD PUSH1 0x2 DUP3 ADD SLOAD DUP2 MSTORE PUSH1 0x20 ADD PUSH1 0x3 DUP3 ADD DUP1 SLOAD PUSH2 0x306E SWAP1 PUSH2 0x3DA3 JUMP JUMPDEST DUP1 PUSH1 0x1F ADD PUSH1 0x20 DUP1 SWAP2 DIV MUL PUSH1 0x20 ADD PUSH1 0x40 MLOAD SWAP1 DUP2 ADD PUSH1 0x40 MSTORE DUP1 SWAP3 SWAP2 SWAP1 DUP2 DUP2 MSTORE PUSH1 0x20 ADD DUP3 DUP1 SLOAD PUSH2 0x309A SWAP1 PUSH2 0x3DA3 JUMP JUMPDEST DUP1 ISZERO PUSH2 0x30E7 JUMPI DUP1 PUSH1 0x1F LT PUSH2 0x30BC JUMPI PUSH2 0x100 DUP1 DUP4 SLOAD DIV MUL DUP4 MSTORE SWAP2 PUSH1 0x20 ADD SWAP2 PUSH2 0x30E7 JUMP JUMPDEST DUP3 ADD SWAP2 SWAP1 PUSH1 0x0 MSTORE PUSH1 0x20 PUSH1 0x0 KECCAK256 SWAP1 JUMPDEST DUP2 SLOAD DUP2 MSTORE SWAP1 PUSH1 0x1 ADD SWAP1 PUSH1 0x20 ADD DUP1 DUP4 GT PUSH2 0x30CA JUMPI DUP3 SWAP1 SUB PUSH1 0x1F AND DUP3 ADD SWAP2 JUMPDEST POP POP POP POP POP DUP2 MSTORE POP POP SWAP1 POP PUSH1 0x0 PUSH1 0x40 MLOAD DUP1 PUSH1 0x40 ADD PUSH1 0x40 MSTORE DUP1 DUP6 DUP2 MSTORE PUSH1 0x20 ADD DUP5 PUSH1 0x6 DUP2 GT ISZERO PUSH2 0x3117 JUMPI PUSH2 0x3117 PUSH2 0x36E3 JUMP JUMPDEST SWAP1 MSTORE PUSH1 0x40 DUP1 MLOAD PUSH1 0xA0 DUP2 ADD DUP3 MSTORE DUP11 DUP2 MSTORE PUSH1 0x20 DUP1 DUP3 ADD DUP12 SWAP1 MSTORE DUP2 DUP4 ADD DUP11 SWAP1 MSTORE PUSH1 0x60 DUP3 ADD DUP10 SWAP1 MSTORE PUSH1 0x80 DUP3 ADD DUP5 SWAP1 MSTORE DUP6 MLOAD PUSH1 0x0 SWAP1 DUP2 MSTORE PUSH1 0x6 DUP1 DUP4 MSTORE SWAP4 DUP2 KECCAK256 DUP1 SLOAD PUSH1 0x1 DUP2 ADD DUP3 SSTORE SWAP1 DUP3 MSTORE SWAP2 SWAP1 KECCAK256 DUP3 MLOAD SWAP5 SWAP6 POP SWAP2 SWAP4 DUP5 SWAP4 SWAP2 SWAP1 SWAP2 MUL SWAP1 SWAP2 ADD SWAP1 DUP2 SWAP1 PUSH2 0x317C SWAP1 DUP3 PUSH2 0x3E50 JUMP JUMPDEST POP PUSH1 0x20 DUP3 ADD MLOAD PUSH1 0x1 DUP3 ADD SWAP1 PUSH2 0x3191 SWAP1 DUP3 PUSH2 0x3E50 JUMP JUMPDEST POP PUSH1 0x40 DUP3 ADD MLOAD PUSH1 0x2 DUP3 ADD SSTORE PUSH1 0x60 DUP3 ADD MLOAD PUSH1 0x3 DUP3 ADD SSTORE PUSH1 0x80 DUP3 ADD MLOAD DUP1 MLOAD PUSH1 0x4 DUP4 ADD SWAP1 DUP2 SWAP1 PUSH2 0x31BE SWAP1 DUP3 PUSH2 0x3E50 JUMP JUMPDEST POP PUSH1 0x20 DUP3 ADD MLOAD PUSH1 0x1 DUP1 DUP4 ADD DUP1 SLOAD SWAP1 SWAP2 PUSH1 0xFF NOT SWAP1 SWAP2 AND SWAP1 DUP4 PUSH1 0x6 DUP2 GT ISZERO PUSH2 0x31E6 JUMPI PUSH2 0x31E6 PUSH2 0x36E3 JUMP JUMPDEST MUL OR SWAP1 SSTORE POP POP POP POP POP POP POP POP POP POP POP POP POP POP POP JUMP JUMPDEST PUSH1 0x60 PUSH1 0x5 PUSH1 0x0 DUP4 PUSH1 0x6 DUP2 GT ISZERO PUSH2 0x3213 JUMPI PUSH2 0x3213 PUSH2 0x36E3 JUMP JUMPDEST PUSH1 0x6 DUP2 GT ISZERO PUSH2 0x3224 JUMPI PUSH2 0x3224 PUSH2 0x36E3 JUMP JUMPDEST DUP2 MSTORE PUSH1 0x20 ADD SWAP1 DUP2 MSTORE PUSH1 0x20 ADD PUSH1 0x0 KECCAK256 DUP1 SLOAD SWAP1 POP PUSH1 0x0 SUB PUSH2 0x3285 JUMPI PUSH1 0x40 MLOAD PUSH3 0x461BCD PUSH1 0xE5 SHL DUP2 MSTORE PUSH1 0x20 PUSH1 0x4 DUP3 ADD MSTORE PUSH1 0x1A PUSH1 0x24 DUP3 ADD MSTORE PUSH32 0x456E74697479207479706520646F6573206E6F74206578697374000000000000 PUSH1 0x44 DUP3 ADD MSTORE PUSH1 0x64 ADD PUSH2 0x444 JUMP JUMPDEST PUSH1 0x5 PUSH1 0x0 DUP4 PUSH1 0x6 DUP2 GT ISZERO PUSH2 0x329B JUMPI PUSH2 0x329B PUSH2 0x36E3 JUMP JUMPDEST PUSH1 0x6 DUP2 GT ISZERO PUSH2 0x32AC JUMPI PUSH2 0x32AC PUSH2 0x36E3 JUMP JUMPDEST DUP2 MSTORE PUSH1 0x20 ADD SWAP1 DUP2 MSTORE PUSH1 0x20 ADD PUSH1 0x0 KECCAK256 DUP1 SLOAD DUP1 PUSH1 0x20 MUL PUSH1 0x20 ADD PUSH1 0x40 MLOAD SWAP1 DUP2 ADD PUSH1 0x40 MSTORE DUP1 SWAP3 SWAP2 SWAP1 DUP2 DUP2 MSTORE PUSH1 0x20 ADD PUSH1 0x0 SWAP1 JUMPDEST DUP3 DUP3 LT ISZERO PUSH2 0x3386 JUMPI DUP4 DUP3 SWAP1 PUSH1 0x0 MSTORE PUSH1 0x20 PUSH1 0x0 KECCAK256 ADD DUP1 SLOAD PUSH2 0x32F9 SWAP1 PUSH2 0x3DA3 JUMP JUMPDEST DUP1 PUSH1 0x1F ADD PUSH1 0x20 DUP1 SWAP2 DIV MUL PUSH1 0x20 ADD PUSH1 0x40 MLOAD SWAP1 DUP2 ADD PUSH1 0x40 MSTORE DUP1 SWAP3 SWAP2 SWAP1 DUP2 DUP2 MSTORE PUSH1 0x20 ADD DUP3 DUP1 SLOAD PUSH2 0x3325 SWAP1 PUSH2 0x3DA3 JUMP JUMPDEST DUP1 ISZERO PUSH2 0x3372 JUMPI DUP1 PUSH1 0x1F LT PUSH2 0x3347 JUMPI PUSH2 0x100 DUP1 DUP4 SLOAD DIV MUL DUP4 MSTORE SWAP2 PUSH1 0x20 ADD SWAP2 PUSH2 0x3372 JUMP JUMPDEST DUP3 ADD SWAP2 SWAP1 PUSH1 0x0 MSTORE PUSH1 0x20 PUSH1 0x0 KECCAK256 SWAP1 JUMPDEST DUP2 SLOAD DUP2 MSTORE SWAP1 PUSH1 0x1 ADD SWAP1 PUSH1 0x20 ADD DUP1 DUP4 GT PUSH2 0x3355 JUMPI DUP3 SWAP1 SUB PUSH1 0x1F AND DUP3 ADD SWAP2 JUMPDEST POP POP POP POP POP DUP2 MSTORE PUSH1 0x20 ADD SWAP1 PUSH1 0x1 ADD SWAP1 PUSH2 0x32DA JUMP JUMPDEST POP POP POP POP SWAP1 POP SWAP2 SWAP1 POP JUMP JUMPDEST PUSH1 0x60 PUSH1 0x0 DUP3 PUSH1 0x4 DUP2 GT ISZERO PUSH2 0x33A7 JUMPI PUSH2 0x33A7 PUSH2 0x36E3 JUMP JUMPDEST SUB PUSH2 0x33CC JUMPI POP POP PUSH1 0x40 DUP1 MLOAD DUP1 DUP3 ADD SWAP1 SWAP2 MSTORE PUSH1 0x4 DUP2 MSTORE PUSH4 0x4E6F6E65 PUSH1 0xE0 SHL PUSH1 0x20 DUP3 ADD MSTORE SWAP1 JUMP JUMPDEST PUSH1 0x1 DUP3 PUSH1 0x4 DUP2 GT ISZERO PUSH2 0x33E0 JUMPI PUSH2 0x33E0 PUSH2 0x36E3 JUMP JUMPDEST SUB PUSH2 0x3406 JUMPI POP POP PUSH1 0x40 DUP1 MLOAD DUP1 DUP3 ADD SWAP1 SWAP2 MSTORE PUSH1 0x5 DUP2 MSTORE PUSH5 0x20B236B4B7 PUSH1 0xD9 SHL PUSH1 0x20 DUP3 ADD MSTORE SWAP1 JUMP JUMPDEST PUSH1 0x2 DUP3 PUSH1 0x4 DUP2 GT ISZERO PUSH2 0x341A JUMPI PUSH2 0x341A PUSH2 0x36E3 JUMP JUMPDEST SUB PUSH2 0x3443 JUMPI POP POP PUSH1 0x40 DUP1 MLOAD DUP1 DUP3 ADD SWAP1 SWAP2 MSTORE PUSH1 0x8 DUP2 MSTORE PUSH8 0x29BAB8383634B2B9 PUSH1 0xC1 SHL PUSH1 0x20 DUP3 ADD MSTORE SWAP1 JUMP JUMPDEST PUSH1 0x3 DUP3 PUSH1 0x4 DUP2 GT ISZERO PUSH2 0x3457 JUMPI PUSH2 0x3457 PUSH2 0x36E3 JUMP JUMPDEST SUB PUSH2 0x348C JUMPI POP POP PUSH1 0x40 DUP1 MLOAD DUP1 DUP3 ADD SWAP1 SWAP2 MSTORE PUSH1 0x14 DUP2 MSTORE PUSH20 0x446973747269627574696F6E456D706C6F796565 PUSH1 0x60 SHL PUSH1 0x20 DUP3 ADD MSTORE SWAP1 JUMP JUMPDEST PUSH1 0x4 DUP3 PUSH1 0x4 DUP2 GT ISZERO PUSH2 0x34A0 JUMPI PUSH2 0x34A0 PUSH2 0x36E3 JUMP JUMPDEST SUB PUSH2 0x34C8 JUMPI POP POP PUSH1 0x40 DUP1 MLOAD DUP1 DUP3 ADD SWAP1 SWAP2 MSTORE PUSH1 0x7 DUP2 MSTORE PUSH7 0x20BAB234BA37B9 PUSH1 0xC9 SHL PUSH1 0x20 DUP3 ADD MSTORE SWAP1 JUMP JUMPDEST PUSH1 0x40 MLOAD PUSH3 0x461BCD PUSH1 0xE5 SHL DUP2 MSTORE PUSH1 0x20 PUSH1 0x4 DUP3 ADD MSTORE PUSH1 0xC PUSH1 0x24 DUP3 ADD MSTORE PUSH12 0x496E76616C696420526F6C65 PUSH1 0xA0 SHL PUSH1 0x44 DUP3 ADD MSTORE PUSH1 0x64 ADD PUSH2 0x444 JUMP JUMPDEST POP DUP1 SLOAD PUSH2 0x350B SWAP1 PUSH2 0x3DA3 JUMP JUMPDEST PUSH1 0x0 DUP3 SSTORE DUP1 PUSH1 0x1F LT PUSH2 0x351B JUMPI POP POP JUMP JUMPDEST PUSH1 0x1F ADD PUSH1 0x20 SWAP1 DIV SWAP1 PUSH1 0x0 MSTORE PUSH1 0x20 PUSH1 0x0 KECCAK256 SWAP1 DUP2 ADD SWAP1 PUSH2 0x3539 SWAP2 SWAP1 PUSH2 0x353C JUMP JUMPDEST POP JUMP JUMPDEST JUMPDEST DUP1 DUP3 GT ISZERO PUSH2 0x3551 JUMPI PUSH1 0x0 DUP2 SSTORE PUSH1 0x1 ADD PUSH2 0x353D JUMP JUMPDEST POP SWAP1 JUMP JUMPDEST DUP1 CALLDATALOAD PUSH1 0x1 PUSH1 0x1 PUSH1 0xA0 SHL SUB DUP2 AND DUP2 EQ PUSH2 0x356C JUMPI PUSH1 0x0 DUP1 REVERT JUMPDEST SWAP2 SWAP1 POP JUMP JUMPDEST DUP1 CALLDATALOAD PUSH1 0x5 DUP2 LT PUSH2 0x356C JUMPI PUSH1 0x0 DUP1 REVERT JUMPDEST PUSH1 0x0 DUP1 PUSH1 0x40 DUP4 DUP6 SUB SLT ISZERO PUSH2 0x3593 JUMPI PUSH1 0x0 DUP1 REVERT JUMPDEST PUSH2 0x359C DUP4 PUSH2 0x3555 JUMP JUMPDEST SWAP2 POP PUSH2 0x35AA PUSH1 0x20 DUP5 ADD PUSH2 0x3571 JUMP JUMPDEST SWAP1 POP SWAP3 POP SWAP3 SWAP1 POP JUMP JUMPDEST PUSH4 0x4E487B71 PUSH1 0xE0 SHL PUSH1 0x0 MSTORE PUSH1 0x41 PUSH1 0x4 MSTORE PUSH1 0x24 PUSH1 0x0 REVERT JUMPDEST PUSH1 0x0 DUP3 PUSH1 0x1F DUP4 ADD SLT PUSH2 0x35DA JUMPI PUSH1 0x0 DUP1 REVERT JUMPDEST DUP2 CALLDATALOAD PUSH8 0xFFFFFFFFFFFFFFFF DUP1 DUP3 GT ISZERO PUSH2 0x35F5 JUMPI PUSH2 0x35F5 PUSH2 0x35B3 JUMP JUMPDEST PUSH1 0x40 MLOAD PUSH1 0x1F DUP4 ADD PUSH1 0x1F NOT SWAP1 DUP2 AND PUSH1 0x3F ADD AND DUP2 ADD SWAP1 DUP3 DUP3 GT DUP2 DUP4 LT OR ISZERO PUSH2 0x361D JUMPI PUSH2 0x361D PUSH2 0x35B3 JUMP JUMPDEST DUP2 PUSH1 0x40 MSTORE DUP4 DUP2 MSTORE DUP7 PUSH1 0x20 DUP6 DUP9 ADD ADD GT ISZERO PUSH2 0x3636 JUMPI PUSH1 0x0 DUP1 REVERT JUMPDEST DUP4 PUSH1 0x20 DUP8 ADD PUSH1 0x20 DUP4 ADD CALLDATACOPY PUSH1 0x0 PUSH1 0x20 DUP6 DUP4 ADD ADD MSTORE DUP1 SWAP5 POP POP POP POP POP SWAP3 SWAP2 POP POP JUMP JUMPDEST PUSH1 0x0 PUSH1 0x20 DUP3 DUP5 SUB SLT ISZERO PUSH2 0x3668 JUMPI PUSH1 0x0 DUP1 REVERT JUMPDEST DUP2 CALLDATALOAD PUSH8 0xFFFFFFFFFFFFFFFF DUP2 GT ISZERO PUSH2 0x367F JUMPI PUSH1 0x0 DUP1 REVERT JUMPDEST PUSH2 0x368B DUP5 DUP3 DUP6 ADD PUSH2 0x35C9 JUMP JUMPDEST SWAP5 SWAP4 POP POP POP POP JUMP JUMPDEST PUSH1 0x0 JUMPDEST DUP4 DUP2 LT ISZERO PUSH2 0x36AE JUMPI DUP2 DUP2 ADD MLOAD DUP4 DUP3 ADD MSTORE PUSH1 0x20 ADD PUSH2 0x3696 JUMP JUMPDEST POP POP PUSH1 0x0 SWAP2 ADD MSTORE JUMP JUMPDEST PUSH1 0x0 DUP2 MLOAD DUP1 DUP5 MSTORE PUSH2 0x36CF DUP2 PUSH1 0x20 DUP7 ADD PUSH1 0x20 DUP7 ADD PUSH2 0x3693 JUMP JUMPDEST PUSH1 0x1F ADD PUSH1 0x1F NOT AND SWAP3 SWAP1 SWAP3 ADD PUSH1 0x20 ADD SWAP3 SWAP2 POP POP JUMP JUMPDEST PUSH4 0x4E487B71 PUSH1 0xE0 SHL PUSH1 0x0 MSTORE PUSH1 0x21 PUSH1 0x4 MSTORE PUSH1 0x24 PUSH1 0x0 REVERT JUMPDEST PUSH1 0x7 DUP2 LT PUSH2 0x3709 JUMPI PUSH2 0x3709 PUSH2 0x36E3 JUMP JUMPDEST SWAP1 MSTORE JUMP JUMPDEST PUSH1 0x0 DUP2 MLOAD PUSH1 0x40 DUP5 MSTORE PUSH2 0x3722 PUSH1 0x40 DUP6 ADD DUP3 PUSH2 0x36B7 JUMP JUMPDEST SWAP1 POP PUSH1 0x20 DUP4 ADD MLOAD PUSH2 0x3736 PUSH1 0x20 DUP7 ADD DUP3 PUSH2 0x36F9 JUMP JUMPDEST POP SWAP4 SWAP3 POP POP POP JUMP JUMPDEST PUSH1 0x20 DUP2 MSTORE PUSH1 0x0 PUSH2 0x3751 PUSH1 0x20 DUP4 ADD DUP5 PUSH2 0x370D JUMP JUMPDEST SWAP4 SWAP3 POP POP POP JUMP JUMPDEST PUSH1 0x0 DUP1 PUSH1 0x0 PUSH1 0x60 DUP5 DUP7 SUB SLT ISZERO PUSH2 0x376D JUMPI PUSH1 0x0 DUP1 REVERT JUMPDEST PUSH2 0x3776 DUP5 PUSH2 0x3555 JUMP JUMPDEST SWAP3 POP PUSH1 0x20 DUP5 ADD CALLDATALOAD PUSH8 0xFFFFFFFFFFFFFFFF DUP2 GT ISZERO PUSH2 0x3792 JUMPI PUSH1 0x0 DUP1 REVERT JUMPDEST PUSH2 0x379E DUP7 DUP3 DUP8 ADD PUSH2 0x35C9 JUMP JUMPDEST SWAP3 POP POP PUSH2 0x37AD PUSH1 0x40 DUP6 ADD PUSH2 0x3571 JUMP JUMPDEST SWAP1 POP SWAP3 POP SWAP3 POP SWAP3 JUMP JUMPDEST PUSH1 0x0 PUSH1 0x20 DUP3 DUP5 SUB SLT ISZERO PUSH2 0x37C8 JUMPI PUSH1 0x0 DUP1 REVERT JUMPDEST POP CALLDATALOAD SWAP2 SWAP1 POP JUMP JUMPDEST PUSH1 0x0 PUSH1 0x20 DUP3 DUP5 SUB SLT ISZERO PUSH2 0x37E1 JUMPI PUSH1 0x0 DUP1 REVERT JUMPDEST PUSH2 0x3751 DUP3 PUSH2 0x3555 JUMP JUMPDEST PUSH1 0x20 DUP2 MSTORE DUP2 MLOAD PUSH1 0x20 DUP3 ADD MSTORE PUSH1 0x0 PUSH1 0x20 DUP4 ADD MLOAD PUSH1 0x80 PUSH1 0x40 DUP5 ADD MSTORE PUSH2 0x3810 PUSH1 0xA0 DUP5 ADD DUP3 PUSH2 0x36B7 JUMP JUMPDEST SWAP1 POP PUSH1 0x40 DUP5 ADD MLOAD PUSH1 0x60 DUP5 ADD MSTORE PUSH1 0x60 DUP5 ADD MLOAD PUSH1 0x1F NOT DUP5 DUP4 SUB ADD PUSH1 0x80 DUP6 ADD MSTORE PUSH2 0x3837 DUP3 DUP3 PUSH2 0x36B7 JUMP JUMPDEST SWAP6 SWAP5 POP POP POP POP POP JUMP JUMPDEST PUSH1 0x5 DUP2 LT PUSH2 0x3709 JUMPI PUSH2 0x3709 PUSH2 0x36E3 JUMP JUMPDEST PUSH1 0x0 DUP2 MLOAD PUSH1 0x40 DUP5 MSTORE PUSH2 0x3865 PUSH1 0x40 DUP6 ADD DUP3 PUSH2 0x36B7 JUMP JUMPDEST SWAP1 POP PUSH1 0x20 DUP4 ADD MLOAD PUSH2 0x3736 PUSH1 0x20 DUP7 ADD DUP3 PUSH2 0x3840 JUMP JUMPDEST PUSH1 0x20 DUP2 MSTORE PUSH1 0x0 PUSH2 0x3751 PUSH1 0x20 DUP4 ADD DUP5 PUSH2 0x3850 JUMP JUMPDEST PUSH1 0x40 DUP2 MSTORE PUSH1 0x0 PUSH2 0x389F PUSH1 0x40 DUP4 ADD DUP6 PUSH2 0x36B7 JUMP JUMPDEST SWAP1 POP PUSH2 0x3751 PUSH1 0x20 DUP4 ADD DUP5 PUSH2 0x36F9 JUMP JUMPDEST PUSH1 0x20 DUP2 MSTORE PUSH1 0x0 PUSH2 0x3751 PUSH1 0x20 DUP4 ADD DUP5 PUSH2 0x36B7 JUMP JUMPDEST DUP5 DUP2 MSTORE PUSH1 0x80 PUSH1 0x20 DUP3 ADD MSTORE PUSH1 0x0 PUSH2 0x38DA PUSH1 0x80 DUP4 ADD DUP7 PUSH2 0x36B7 JUMP JUMPDEST DUP5 PUSH1 0x40 DUP5 ADD MSTORE DUP3 DUP2 SUB PUSH1 0x60 DUP5 ADD MSTORE PUSH2 0x38F2 DUP2 DUP6 PUSH2 0x36B7 JUMP JUMPDEST SWAP8 SWAP7 POP POP POP POP POP POP POP JUMP JUMPDEST PUSH1 0x0 DUP1 PUSH1 0x0 PUSH1 0x60 DUP5 DUP7 SUB SLT ISZERO PUSH2 0x3912 JUMPI PUSH1 0x0 DUP1 REVERT JUMPDEST DUP4 CALLDATALOAD PUSH8 0xFFFFFFFFFFFFFFFF DUP1 DUP3 GT ISZERO PUSH2 0x392A JUMPI PUSH1 0x0 DUP1 REVERT JUMPDEST PUSH2 0x3936 DUP8 DUP4 DUP9 ADD PUSH2 0x35C9 JUMP JUMPDEST SWAP5 POP PUSH1 0x20 DUP7 ADD CALLDATALOAD SWAP4 POP PUSH1 0x40 DUP7 ADD CALLDATALOAD SWAP2 POP DUP1 DUP3 GT ISZERO PUSH2 0x3953 JUMPI PUSH1 0x0 DUP1 REVERT JUMPDEST POP PUSH2 0x3960 DUP7 DUP3 DUP8 ADD PUSH2 0x35C9 JUMP JUMPDEST SWAP2 POP POP SWAP3 POP SWAP3 POP SWAP3 JUMP JUMPDEST PUSH1 0x40 DUP2 MSTORE PUSH1 0x0 PUSH2 0x397D PUSH1 0x40 DUP4 ADD DUP6 PUSH2 0x36B7 JUMP JUMPDEST SWAP1 POP PUSH2 0x3751 PUSH1 0x20 DUP4 ADD DUP5 PUSH2 0x3840 JUMP JUMPDEST PUSH1 0x0 DUP1 PUSH1 0x0 DUP1 PUSH1 0x80 DUP6 DUP8 SUB SLT ISZERO PUSH2 0x39A2 JUMPI PUSH1 0x0 DUP1 REVERT JUMPDEST DUP5 CALLDATALOAD PUSH8 0xFFFFFFFFFFFFFFFF DUP1 DUP3 GT ISZERO PUSH2 0x39BA JUMPI PUSH1 0x0 DUP1 REVERT JUMPDEST PUSH2 0x39C6 DUP9 DUP4 DUP10 ADD PUSH2 0x35C9 JUMP JUMPDEST SWAP6 POP PUSH1 0x20 DUP8 ADD CALLDATALOAD SWAP2 POP DUP1 DUP3 GT ISZERO PUSH2 0x39DC JUMPI PUSH1 0x0 DUP1 REVERT JUMPDEST PUSH2 0x39E8 DUP9 DUP4 DUP10 ADD PUSH2 0x35C9 JUMP JUMPDEST SWAP5 POP PUSH1 0x40 DUP8 ADD CALLDATALOAD SWAP4 POP PUSH1 0x60 DUP8 ADD CALLDATALOAD SWAP2 POP DUP1 DUP3 GT ISZERO PUSH2 0x3A05 JUMPI PUSH1 0x0 DUP1 REVERT JUMPDEST POP PUSH2 0x3A12 DUP8 DUP3 DUP9 ADD PUSH2 0x35C9 JUMP JUMPDEST SWAP2 POP POP SWAP3 SWAP6 SWAP2 SWAP5 POP SWAP3 POP JUMP JUMPDEST DUP1 CALLDATALOAD PUSH1 0x7 DUP2 LT PUSH2 0x356C JUMPI PUSH1 0x0 DUP1 REVERT JUMPDEST PUSH1 0x0 DUP1 PUSH1 0x40 DUP4 DUP6 SUB SLT ISZERO PUSH2 0x3A40 JUMPI PUSH1 0x0 DUP1 REVERT JUMPDEST DUP3 CALLDATALOAD PUSH8 0xFFFFFFFFFFFFFFFF DUP2 GT ISZERO PUSH2 0x3A57 JUMPI PUSH1 0x0 DUP1 REVERT JUMPDEST PUSH2 0x3A63 DUP6 DUP3 DUP7 ADD PUSH2 0x35C9 JUMP JUMPDEST SWAP3 POP POP PUSH2 0x35AA PUSH1 0x20 DUP5 ADD PUSH2 0x3A1E JUMP JUMPDEST PUSH1 0x0 DUP1 PUSH1 0x40 DUP4 DUP6 SUB SLT ISZERO PUSH2 0x3A85 JUMPI PUSH1 0x0 DUP1 REVERT JUMPDEST POP POP DUP1 CALLDATALOAD SWAP3 PUSH1 0x20 SWAP1 SWAP2 ADD CALLDATALOAD SWAP2 POP JUMP JUMPDEST PUSH1 0xA0 DUP2 MSTORE PUSH1 0x0 PUSH2 0x3AA7 PUSH1 0xA0 DUP4 ADD DUP9 PUSH2 0x36B7 JUMP JUMPDEST DUP3 DUP2 SUB PUSH1 0x20 DUP5 ADD MSTORE PUSH2 0x3AB9 DUP2 DUP9 PUSH2 0x36B7 JUMP JUMPDEST SWAP1 POP DUP6 PUSH1 0x40 DUP5 ADD MSTORE DUP5 PUSH1 0x60 DUP5 ADD MSTORE DUP3 DUP2 SUB PUSH1 0x80 DUP5 ADD MSTORE PUSH2 0x3AD9 DUP2 DUP6 PUSH2 0x370D JUMP JUMPDEST SWAP9 SWAP8 POP POP POP POP POP POP POP POP JUMP JUMPDEST PUSH1 0x0 PUSH1 0x20 DUP1 DUP4 ADD DUP2 DUP5 MSTORE DUP1 DUP6 MLOAD DUP1 DUP4 MSTORE PUSH1 0x40 DUP7 ADD SWAP2 POP PUSH1 0x40 DUP2 PUSH1 0x5 SHL DUP8 ADD ADD SWAP3 POP DUP4 DUP8 ADD PUSH1 0x0 JUMPDEST DUP3 DUP2 LT ISZERO PUSH2 0x3B3A JUMPI PUSH1 0x3F NOT DUP9 DUP7 SUB ADD DUP5 MSTORE PUSH2 0x3B28 DUP6 DUP4 MLOAD PUSH2 0x3850 JUMP JUMPDEST SWAP5 POP SWAP3 DUP6 ADD SWAP3 SWAP1 DUP6 ADD SWAP1 PUSH1 0x1 ADD PUSH2 0x3B0C JUMP JUMPDEST POP SWAP3 SWAP8 SWAP7 POP POP POP POP POP POP POP JUMP JUMPDEST PUSH1 0x0 PUSH1 0x40 DUP1 DUP4 ADD DUP2 DUP5 MSTORE DUP1 DUP7 MLOAD DUP1 DUP4 MSTORE PUSH1 0x60 SWAP3 POP DUP3 DUP7 ADD SWAP2 POP DUP3 DUP2 PUSH1 0x5 SHL DUP8 ADD ADD PUSH1 0x20 DUP1 DUP11 ADD PUSH1 0x0 JUMPDEST DUP5 DUP2 LT ISZERO PUSH2 0x3BEF JUMPI PUSH1 0x5F NOT DUP11 DUP6 SUB ADD DUP7 MSTORE DUP2 MLOAD PUSH1 0xA0 DUP2 MLOAD DUP2 DUP8 MSTORE PUSH2 0x3B96 DUP3 DUP9 ADD DUP3 PUSH2 0x36B7 JUMP JUMPDEST SWAP2 POP POP DUP5 DUP3 ADD MLOAD DUP7 DUP3 SUB DUP7 DUP9 ADD MSTORE PUSH2 0x3BAE DUP3 DUP3 PUSH2 0x36B7 JUMP JUMPDEST SWAP2 POP POP DUP10 DUP3 ADD MLOAD DUP11 DUP8 ADD MSTORE DUP9 DUP3 ADD MLOAD DUP10 DUP8 ADD MSTORE PUSH1 0x80 DUP1 DUP4 ADD MLOAD SWAP3 POP DUP7 DUP3 SUB DUP2 DUP9 ADD MSTORE POP PUSH2 0x3BDB DUP2 DUP4 PUSH2 0x370D JUMP JUMPDEST SWAP8 DUP6 ADD SWAP8 SWAP6 POP POP POP SWAP1 DUP3 ADD SWAP1 PUSH1 0x1 ADD PUSH2 0x3B70 JUMP JUMPDEST POP POP DUP8 DUP3 SUB SWAP1 DUP9 ADD MSTORE PUSH2 0x3C02 DUP2 DUP10 PUSH2 0x36B7 JUMP JUMPDEST SWAP10 SWAP9 POP POP POP POP POP POP POP POP POP JUMP JUMPDEST PUSH1 0x0 DUP1 PUSH1 0x0 DUP1 PUSH1 0x0 DUP1 PUSH1 0x0 PUSH1 0xE0 DUP9 DUP11 SUB SLT ISZERO PUSH2 0x3C2A JUMPI PUSH1 0x0 DUP1 REVERT JUMPDEST DUP8 CALLDATALOAD PUSH8 0xFFFFFFFFFFFFFFFF DUP1 DUP3 GT ISZERO PUSH2 0x3C42 JUMPI PUSH1 0x0 DUP1 REVERT JUMPDEST PUSH2 0x3C4E DUP12 DUP4 DUP13 ADD PUSH2 0x35C9 JUMP JUMPDEST SWAP9 POP PUSH1 0x20 DUP11 ADD CALLDATALOAD SWAP2 POP DUP1 DUP3 GT ISZERO PUSH2 0x3C64 JUMPI PUSH1 0x0 DUP1 REVERT JUMPDEST PUSH2 0x3C70 DUP12 DUP4 DUP13 ADD PUSH2 0x35C9 JUMP JUMPDEST SWAP8 POP PUSH1 0x40 DUP11 ADD CALLDATALOAD SWAP2 POP DUP1 DUP3 GT ISZERO PUSH2 0x3C86 JUMPI PUSH1 0x0 DUP1 REVERT JUMPDEST PUSH2 0x3C92 DUP12 DUP4 DUP13 ADD PUSH2 0x35C9 JUMP JUMPDEST SWAP7 POP PUSH1 0x60 DUP11 ADD CALLDATALOAD SWAP6 POP PUSH1 0x80 DUP11 ADD CALLDATALOAD SWAP5 POP PUSH1 0xA0 DUP11 ADD CALLDATALOAD SWAP2 POP DUP1 DUP3 GT ISZERO PUSH2 0x3CB6 JUMPI PUSH1 0x0 DUP1 REVERT JUMPDEST POP PUSH2 0x3CC3 DUP11 DUP3 DUP12 ADD PUSH2 0x35C9 JUMP JUMPDEST SWAP3 POP POP PUSH2 0x3CD2 PUSH1 0xC0 DUP10 ADD PUSH2 0x3A1E JUMP JUMPDEST SWAP1 POP SWAP3 SWAP6 SWAP9 SWAP2 SWAP5 SWAP8 POP SWAP3 SWAP6 POP JUMP JUMPDEST PUSH1 0x0 PUSH1 0x20 DUP3 DUP5 SUB SLT ISZERO PUSH2 0x3CF2 JUMPI PUSH1 0x0 DUP1 REVERT JUMPDEST PUSH2 0x3751 DUP3 PUSH2 0x3A1E JUMP JUMPDEST PUSH1 0x0 PUSH1 0x20 DUP1 DUP4 ADD DUP2 DUP5 MSTORE DUP1 DUP6 MLOAD DUP1 DUP4 MSTORE PUSH1 0x40 DUP7 ADD SWAP2 POP PUSH1 0x40 DUP2 PUSH1 0x5 SHL DUP8 ADD ADD SWAP3 POP DUP4 DUP8 ADD PUSH1 0x0 JUMPDEST DUP3 DUP2 LT ISZERO PUSH2 0x3B3A JUMPI PUSH1 0x3F NOT DUP9 DUP7 SUB ADD DUP5 MSTORE PUSH2 0x3D3E DUP6 DUP4 MLOAD PUSH2 0x36B7 JUMP JUMPDEST SWAP5 POP SWAP3 DUP6 ADD SWAP3 SWAP1 DUP6 ADD SWAP1 PUSH1 0x1 ADD PUSH2 0x3D22 JUMP JUMPDEST PUSH1 0x20 DUP1 DUP3 MSTORE PUSH1 0x1D SWAP1 DUP3 ADD MSTORE PUSH32 0x4163636573732064656E6965643A20696E636F727265637420726F6C65000000 PUSH1 0x40 DUP3 ADD MSTORE PUSH1 0x60 ADD SWAP1 JUMP JUMPDEST PUSH1 0x0 DUP3 MLOAD PUSH2 0x3D99 DUP2 DUP5 PUSH1 0x20 DUP8 ADD PUSH2 0x3693 JUMP JUMPDEST SWAP2 SWAP1 SWAP2 ADD SWAP3 SWAP2 POP POP JUMP JUMPDEST PUSH1 0x1 DUP2 DUP2 SHR SWAP1 DUP3 AND DUP1 PUSH2 0x3DB7 JUMPI PUSH1 0x7F DUP3 AND SWAP2 POP JUMPDEST PUSH1 0x20 DUP3 LT DUP2 SUB PUSH2 0x293C JUMPI PUSH4 0x4E487B71 PUSH1 0xE0 SHL PUSH1 0x0 MSTORE PUSH1 0x22 PUSH1 0x4 MSTORE PUSH1 0x24 PUSH1 0x0 REVERT JUMPDEST PUSH1 0x20 DUP1 DUP3 MSTORE PUSH1 0x10 SWAP1 DUP3 ADD MSTORE PUSH16 0x496E76616C6964206164647265737321 PUSH1 0x80 SHL PUSH1 0x40 DUP3 ADD MSTORE PUSH1 0x60 ADD SWAP1 JUMP JUMPDEST PUSH1 0x1F DUP3 GT ISZERO PUSH2 0x3E4B JUMPI PUSH1 0x0 DUP2 DUP2 MSTORE PUSH1 0x20 DUP2 KECCAK256 PUSH1 0x1F DUP6 ADD PUSH1 0x5 SHR DUP2 ADD PUSH1 0x20 DUP7 LT ISZERO PUSH2 0x3E28 JUMPI POP DUP1 JUMPDEST PUSH1 0x1F DUP6 ADD PUSH1 0x5 SHR DUP3 ADD SWAP2 POP JUMPDEST DUP2 DUP2 LT ISZERO PUSH2 0x3E47 JUMPI DUP3 DUP2 SSTORE PUSH1 0x1 ADD PUSH2 0x3E34 JUMP JUMPDEST POP POP POP JUMPDEST POP POP POP JUMP JUMPDEST DUP2 MLOAD PUSH8 0xFFFFFFFFFFFFFFFF DUP2 GT ISZERO PUSH2 0x3E6A JUMPI PUSH2 0x3E6A PUSH2 0x35B3 JUMP JUMPDEST PUSH2 0x3E7E DUP2 PUSH2 0x3E78 DUP5 SLOAD PUSH2 0x3DA3 JUMP JUMPDEST DUP5 PUSH2 0x3E01 JUMP JUMPDEST PUSH1 0x20 DUP1 PUSH1 0x1F DUP4 GT PUSH1 0x1 DUP2 EQ PUSH2 0x3EB3 JUMPI PUSH1 0x0 DUP5 ISZERO PUSH2 0x3E9B JUMPI POP DUP6 DUP4 ADD MLOAD JUMPDEST PUSH1 0x0 NOT PUSH1 0x3 DUP7 SWAP1 SHL SHR NOT AND PUSH1 0x1 DUP6 SWAP1 SHL OR DUP6 SSTORE PUSH2 0x3E47 JUMP JUMPDEST PUSH1 0x0 DUP6 DUP2 MSTORE PUSH1 0x20 DUP2 KECCAK256 PUSH1 0x1F NOT DUP7 AND SWAP2 JUMPDEST DUP3 DUP2 LT ISZERO PUSH2 0x3EE2 JUMPI DUP9 DUP7 ADD MLOAD DUP3 SSTORE SWAP5 DUP5 ADD SWAP5 PUSH1 0x1 SWAP1 SWAP2 ADD SWAP1 DUP5 ADD PUSH2 0x3EC3 JUMP JUMPDEST POP DUP6 DUP3 LT ISZERO PUSH2 0x3F00 JUMPI DUP8 DUP6 ADD MLOAD PUSH1 0x0 NOT PUSH1 0x3 DUP9 SWAP1 SHL PUSH1 0xF8 AND SHR NOT AND DUP2 SSTORE JUMPDEST POP POP POP POP POP PUSH1 0x1 SWAP1 DUP2 SHL ADD SWAP1 SSTORE POP JUMP JUMPDEST PUSH1 0x60 DUP2 MSTORE PUSH1 0x18 PUSH1 0x60 DUP3 ADD MSTORE PUSH32 0x55736572206164646564207375636365737366756C6C79210000000000000000 PUSH1 0x80 DUP3 ADD MSTORE PUSH1 0xA0 PUSH1 0x20 DUP3 ADD MSTORE PUSH1 0x0 PUSH2 0x3F57 PUSH1 0xA0 DUP4 ADD DUP6 PUSH2 0x36B7 JUMP JUMPDEST DUP3 DUP2 SUB PUSH1 0x40 DUP5 ADD MSTORE PUSH2 0x3837 DUP2 DUP6 PUSH2 0x36B7 JUMP JUMPDEST PUSH4 0x4E487B71 PUSH1 0xE0 SHL PUSH1 0x0 MSTORE PUSH1 0x32 PUSH1 0x4 MSTORE PUSH1 0x24 PUSH1 0x0 REVERT JUMPDEST PUSH4 0x4E487B71 PUSH1 0xE0 SHL PUSH1 0x0 MSTORE PUSH1 0x11 PUSH1 0x4 MSTORE PUSH1 0x24 PUSH1 0x0 REVERT JUMPDEST DUP2 DUP2 SUB DUP2 DUP2 GT ISZERO PUSH2 0x3FA8 JUMPI PUSH2 0x3FA8 PUSH2 0x3F7F JUMP JUMPDEST SWAP3 SWAP2 POP POP JUMP JUMPDEST PUSH4 0x4E487B71 PUSH1 0xE0 SHL PUSH1 0x0 MSTORE PUSH1 0x31 PUSH1 0x4 MSTORE PUSH1 0x24 PUSH1 0x0 REVERT JUMPDEST PUSH1 0x0 PUSH1 0x1 DUP3 ADD PUSH2 0x3FD6 JUMPI PUSH2 0x3FD6 PUSH2 0x3F7F JUMP JUMPDEST POP PUSH1 0x1 ADD SWAP1 JUMP JUMPDEST PUSH1 0x60 DUP2 MSTORE PUSH1 0x1A PUSH1 0x60 DUP3 ADD MSTORE PUSH32 0x557365722064656C65746564207375636365737366756C6C7921000000000000 PUSH1 0x80 DUP3 ADD MSTORE PUSH1 0xA0 PUSH1 0x20 DUP3 ADD MSTORE PUSH1 0x0 PUSH2 0x3F57 PUSH1 0xA0 DUP4 ADD DUP6 PUSH2 0x36B7 JUMP JUMPDEST PUSH1 0x0 DUP1 DUP4 SLOAD PUSH2 0x4032 DUP2 PUSH2 0x3DA3 JUMP JUMPDEST PUSH1 0x1 DUP3 DUP2 AND DUP1 ISZERO PUSH2 0x404A JUMPI PUSH1 0x1 DUP2 EQ PUSH2 0x405F JUMPI PUSH2 0x408E JUMP JUMPDEST PUSH1 0xFF NOT DUP5 AND DUP8 MSTORE DUP3 ISZERO ISZERO DUP4 MUL DUP8 ADD SWAP5 POP PUSH2 0x408E JUMP JUMPDEST DUP8 PUSH1 0x0 MSTORE PUSH1 0x20 DUP1 PUSH1 0x0 KECCAK256 PUSH1 0x0 JUMPDEST DUP6 DUP2 LT ISZERO PUSH2 0x4085 JUMPI DUP2 SLOAD DUP11 DUP3 ADD MSTORE SWAP1 DUP5 ADD SWAP1 DUP3 ADD PUSH2 0x406C JUMP JUMPDEST POP POP POP DUP3 DUP8 ADD SWAP5 POP JUMPDEST POP SWAP3 SWAP7 SWAP6 POP POP POP POP POP POP JUMP JUMPDEST DUP2 DUP2 SUB PUSH2 0x40A5 JUMPI POP POP JUMP JUMPDEST PUSH2 0x40AF DUP3 SLOAD PUSH2 0x3DA3 JUMP JUMPDEST PUSH8 0xFFFFFFFFFFFFFFFF DUP2 GT ISZERO PUSH2 0x40C7 JUMPI PUSH2 0x40C7 PUSH2 0x35B3 JUMP JUMPDEST PUSH2 0x40D5 DUP2 PUSH2 0x3E78 DUP5 SLOAD PUSH2 0x3DA3 JUMP JUMPDEST PUSH1 0x0 PUSH1 0x1F DUP3 GT PUSH1 0x1 DUP2 EQ PUSH2 0x4109 JUMPI PUSH1 0x0 DUP4 ISZERO PUSH2 0x40F1 JUMPI POP DUP5 DUP3 ADD SLOAD JUMPDEST PUSH1 0x0 NOT PUSH1 0x3 DUP6 SWAP1 SHL SHR NOT AND PUSH1 0x1 DUP5 SWAP1 SHL OR DUP5 SSTORE PUSH2 0x416E JUMP JUMPDEST PUSH1 0x0 DUP6 DUP2 MSTORE PUSH1 0x20 SWAP1 KECCAK256 PUSH1 0x1F NOT DUP5 AND SWAP1 PUSH1 0x0 DUP7 DUP2 MSTORE PUSH1 0x20 SWAP1 KECCAK256 DUP5 JUMPDEST DUP4 DUP2 LT ISZERO PUSH2 0x4143 JUMPI DUP3 DUP7 ADD SLOAD DUP3 SSTORE PUSH1 0x1 SWAP6 DUP7 ADD SWAP6 SWAP1 SWAP2 ADD SWAP1 PUSH1 0x20 ADD PUSH2 0x4123 JUMP JUMPDEST POP DUP6 DUP4 LT ISZERO PUSH2 0x4161 JUMPI DUP2 DUP6 ADD SLOAD PUSH1 0x0 NOT PUSH1 0x3 DUP9 SWAP1 SHL PUSH1 0xF8 AND SHR NOT AND DUP2 SSTORE JUMPDEST POP POP POP PUSH1 0x1 DUP4 PUSH1 0x1 SHL ADD DUP5 SSTORE JUMPDEST POP POP POP POP POP JUMP JUMPDEST PUSH1 0x60 DUP2 MSTORE PUSH1 0x1C PUSH1 0x60 DUP3 ADD MSTORE PUSH32 0x456E746974792064656C65746564207375636365737366756C6C792100000000 PUSH1 0x80 DUP3 ADD MSTORE PUSH1 0xA0 PUSH1 0x20 DUP3 ADD MSTORE PUSH1 0x0 PUSH2 0x41BC PUSH1 0xA0 DUP4 ADD DUP6 PUSH2 0x36B7 JUMP JUMPDEST SWAP1 POP PUSH2 0x3751 PUSH1 0x40 DUP4 ADD DUP5 PUSH2 0x36F9 JUMP JUMPDEST PUSH1 0x0 DUP2 PUSH2 0x41DA JUMPI PUSH2 0x41DA PUSH2 0x3F7F JUMP JUMPDEST POP PUSH1 0x0 NOT ADD SWAP1 JUMP JUMPDEST PUSH1 0x60 DUP2 MSTORE PUSH1 0x11 PUSH1 0x60 DUP3 ADD MSTORE PUSH17 0x4E657720656E7469747920616464656421 PUSH1 0x78 SHL PUSH1 0x80 DUP3 ADD MSTORE PUSH1 0xA0 PUSH1 0x20 DUP3 ADD MSTORE PUSH1 0x0 PUSH2 0x41BC PUSH1 0xA0 DUP4 ADD DUP6 PUSH2 0x36B7 JUMP INVALID POP PUSH19 0x6F6475637420697320696E2074686520737461 PUSH21 0x65206F66205472616E73706F72746174696F6E5072 PUSH16 0x6475637420697320696E207468652073 PUSH21 0x617465206F66205061636B6167696E6750726F6475 PUSH4 0x74206973 KECCAK256 PUSH10 0x6E207468652073746174 PUSH6 0x206F66205761 PUSH19 0x65686F75736550726F6475637420697320696E KECCAK256 PUSH21 0x6865207374617465206F662050726F64756374696F PUSH15 0xA26469706673582212207DF38A54E4 0xDC SWAP14 CODESIZE PUSH3 0x737AD4 JUMPDEST 0xC5 BLOCKHASH 0xA5 0xF6 GAS 0xCE MOD DUP11 MULMOD 0xAC PUSH30 0x85B0B1835DEA232A64736F6C634300081300330000000000000000000000 "
				},
				"gasEstimates": {
					"creation": {
						"codeDepositCost": "3425800",
						"executionCost": "infinite",
						"totalCost": "infinite"
					},
					"external": {
						"ProdToTransInfo(uint256,uint256)": "infinite",
						"UpdateStatus(string,string,string,uint256,uint256,string,uint8)": "infinite",
						"ViewProductHistory(string)": "infinite",
						"addEntity(string,uint8)": "infinite",
						"addProduct(string,uint256,string)": "infinite",
						"addUser(address,string,uint8)": "infinite",
						"changeOwner(address)": "28995",
						"contractAuthor()": "infinite",
						"deleteEntity(string)": "infinite",
						"deleteProduct(string)": "infinite",
						"deleteUser(address)": "infinite",
						"entities(string)": "infinite",
						"getAllUsers()": "infinite",
						"getAmount(uint256)": "infinite",
						"getEntitiesByType(uint8)": "infinite",
						"getEntityByName(string)": "infinite",
						"getProduct(string)": "infinite",
						"getUserByAddress(address)": "infinite",
						"owner()": "2360",
						"productCount()": "2384",
						"products(uint256)": "infinite",
						"setUserRole(address,uint8)": "infinite",
						"updateProduct(string,string,uint256,string)": "infinite",
						"userAddresses(uint256)": "4704",
						"users(address)": "infinite"
					},
					"internal": {
						"entityTypeToString(enum Main.EntityType)": "infinite",
						"roleToString(enum Main.Role)": "infinite"
					}
				},
				"methodIdentifiers": {
					"ProdToTransInfo(uint256,uint256)": "c2b16bf2",
					"UpdateStatus(string,string,string,uint256,uint256,string,uint8)": "e64dc2a3",
					"ViewProductHistory(string)": "e3e550a9",
					"addEntity(string,uint8)": "b237046e",
					"addProduct(string,uint256,string)": "8f29695a",
					"addUser(address,string,uint8)": "40d26854",
					"changeOwner(address)": "a6f9dae1",
					"contractAuthor()": "734e1ac3",
					"deleteEntity(string)": "6d960bc3",
					"deleteProduct(string)": "72139d9a",
					"deleteUser(address)": "5c60f226",
					"entities(string)": "706ced5b",
					"getAllUsers()": "e2842d79",
					"getAmount(uint256)": "9980ec86",
					"getEntitiesByType(uint8)": "f61af8ab",
					"getEntityByName(string)": "3e88a4e2",
					"getProduct(string)": "68111cce",
					"getUserByAddress(address)": "69c212f6",
					"owner()": "8da5cb5b",
					"productCount()": "e0f6ef87",
					"products(uint256)": "7acc0b20",
					"setUserRole(address,uint8)": "03a69611",
					"updateProduct(string,string,uint256,string)": "af062a0c",
					"userAddresses(uint256)": "502c9bd5",
					"users(address)": "a87430ba"
				}
			},
			"storageLayout": {
				"storage": [
					{
						"astId": 3,
						"contract": "contracts/Main.sol:Main",
						"label": "owner",
						"offset": 0,
						"slot": "0",
						"type": "t_address"
					},
					{
						"astId": 6,
						"contract": "contracts/Main.sol:Main",
						"label": "contractAuthor",
						"offset": 0,
						"slot": "1",
						"type": "t_string_storage"
					},
					{
						"astId": 118,
						"contract": "contracts/Main.sol:Main",
						"label": "users",
						"offset": 0,
						"slot": "2",
						"type": "t_mapping(t_address,t_struct(User)32_storage)"
					},
					{
						"astId": 121,
						"contract": "contracts/Main.sol:Main",
						"label": "userAddresses",
						"offset": 0,
						"slot": "3",
						"type": "t_array(t_address)dyn_storage"
					},
					{
						"astId": 126,
						"contract": "contracts/Main.sol:Main",
						"label": "entities",
						"offset": 0,
						"slot": "4",
						"type": "t_mapping(t_string_memory_ptr,t_struct(Entity)26_storage)"
					},
					{
						"astId": 132,
						"contract": "contracts/Main.sol:Main",
						"label": "entitiesByType",
						"offset": 0,
						"slot": "5",
						"type": "t_mapping(t_enum(EntityType)20,t_array(t_string_storage)dyn_storage)"
					},
					{
						"astId": 138,
						"contract": "contracts/Main.sol:Main",
						"label": "ProdToTransInfo",
						"offset": 0,
						"slot": "6",
						"type": "t_mapping(t_uint256,t_array(t_struct(TransportationInfo)44_storage)dyn_storage)"
					},
					{
						"astId": 143,
						"contract": "contracts/Main.sol:Main",
						"label": "products",
						"offset": 0,
						"slot": "7",
						"type": "t_mapping(t_uint256,t_struct(Product)53_storage)"
					},
					{
						"astId": 148,
						"contract": "contracts/Main.sol:Main",
						"label": "nameToProducts",
						"offset": 0,
						"slot": "8",
						"type": "t_mapping(t_string_memory_ptr,t_struct(Product)53_storage)"
					},
					{
						"astId": 150,
						"contract": "contracts/Main.sol:Main",
						"label": "productCount",
						"offset": 0,
						"slot": "9",
						"type": "t_uint256"
					}
				],
				"types": {
					"t_address": {
						"encoding": "inplace",
						"label": "address",
						"numberOfBytes": "20"
					},
					"t_array(t_address)dyn_storage": {
						"base": "t_address",
						"encoding": "dynamic_array",
						"label": "address[]",
						"numberOfBytes": "32"
					},
					"t_array(t_string_storage)dyn_storage": {
						"base": "t_string_storage",
						"encoding": "dynamic_array",
						"label": "string[]",
						"numberOfBytes": "32"
					},
					"t_array(t_struct(TransportationInfo)44_storage)dyn_storage": {
						"base": "t_struct(TransportationInfo)44_storage",
						"encoding": "dynamic_array",
						"label": "struct Main.TransportationInfo[]",
						"numberOfBytes": "32"
					},
					"t_enum(EntityType)20": {
						"encoding": "inplace",
						"label": "enum Main.EntityType",
						"numberOfBytes": "1"
					},
					"t_enum(Role)12": {
						"encoding": "inplace",
						"label": "enum Main.Role",
						"numberOfBytes": "1"
					},
					"t_mapping(t_address,t_struct(User)32_storage)": {
						"encoding": "mapping",
						"key": "t_address",
						"label": "mapping(address => struct Main.User)",
						"numberOfBytes": "32",
						"value": "t_struct(User)32_storage"
					},
					"t_mapping(t_enum(EntityType)20,t_array(t_string_storage)dyn_storage)": {
						"encoding": "mapping",
						"key": "t_enum(EntityType)20",
						"label": "mapping(enum Main.EntityType => string[])",
						"numberOfBytes": "32",
						"value": "t_array(t_string_storage)dyn_storage"
					},
					"t_mapping(t_string_memory_ptr,t_struct(Entity)26_storage)": {
						"encoding": "mapping",
						"key": "t_string_memory_ptr",
						"label": "mapping(string => struct Main.Entity)",
						"numberOfBytes": "32",
						"value": "t_struct(Entity)26_storage"
					},
					"t_mapping(t_string_memory_ptr,t_struct(Product)53_storage)": {
						"encoding": "mapping",
						"key": "t_string_memory_ptr",
						"label": "mapping(string => struct Main.Product)",
						"numberOfBytes": "32",
						"value": "t_struct(Product)53_storage"
					},
					"t_mapping(t_uint256,t_array(t_struct(TransportationInfo)44_storage)dyn_storage)": {
						"encoding": "mapping",
						"key": "t_uint256",
						"label": "mapping(uint256 => struct Main.TransportationInfo[])",
						"numberOfBytes": "32",
						"value": "t_array(t_struct(TransportationInfo)44_storage)dyn_storage"
					},
					"t_mapping(t_uint256,t_struct(Product)53_storage)": {
						"encoding": "mapping",
						"key": "t_uint256",
						"label": "mapping(uint256 => struct Main.Product)",
						"numberOfBytes": "32",
						"value": "t_struct(Product)53_storage"
					},
					"t_string_memory_ptr": {
						"encoding": "bytes",
						"label": "string",
						"numberOfBytes": "32"
					},
					"t_string_storage": {
						"encoding": "bytes",
						"label": "string",
						"numberOfBytes": "32"
					},
					"t_struct(Entity)26_storage": {
						"encoding": "inplace",
						"label": "struct Main.Entity",
						"members": [
							{
								"astId": 22,
								"contract": "contracts/Main.sol:Main",
								"label": "name",
								"offset": 0,
								"slot": "0",
								"type": "t_string_storage"
							},
							{
								"astId": 25,
								"contract": "contracts/Main.sol:Main",
								"label": "entityType",
								"offset": 0,
								"slot": "1",
								"type": "t_enum(EntityType)20"
							}
						],
						"numberOfBytes": "64"
					},
					"t_struct(Product)53_storage": {
						"encoding": "inplace",
						"label": "struct Main.Product",
						"members": [
							{
								"astId": 46,
								"contract": "contracts/Main.sol:Main",
								"label": "id",
								"offset": 0,
								"slot": "0",
								"type": "t_uint256"
							},
							{
								"astId": 48,
								"contract": "contracts/Main.sol:Main",
								"label": "name",
								"offset": 0,
								"slot": "1",
								"type": "t_string_storage"
							},
							{
								"astId": 50,
								"contract": "contracts/Main.sol:Main",
								"label": "amount",
								"offset": 0,
								"slot": "2",
								"type": "t_uint256"
							},
							{
								"astId": 52,
								"contract": "contracts/Main.sol:Main",
								"label": "description",
								"offset": 0,
								"slot": "3",
								"type": "t_string_storage"
							}
						],
						"numberOfBytes": "128"
					},
					"t_struct(TransportationInfo)44_storage": {
						"encoding": "inplace",
						"label": "struct Main.TransportationInfo",
						"members": [
							{
								"astId": 34,
								"contract": "contracts/Main.sol:Main",
								"label": "origin",
								"offset": 0,
								"slot": "0",
								"type": "t_string_storage"
							},
							{
								"astId": 36,
								"contract": "contracts/Main.sol:Main",
								"label": "destination",
								"offset": 0,
								"slot": "1",
								"type": "t_string_storage"
							},
							{
								"astId": 38,
								"contract": "contracts/Main.sol:Main",
								"label": "dateOfDeparture",
								"offset": 0,
								"slot": "2",
								"type": "t_uint256"
							},
							{
								"astId": 40,
								"contract": "contracts/Main.sol:Main",
								"label": "estDateOfArrival",
								"offset": 0,
								"slot": "3",
								"type": "t_uint256"
							},
							{
								"astId": 43,
								"contract": "contracts/Main.sol:Main",
								"label": "currentEntity",
								"offset": 0,
								"slot": "4",
								"type": "t_struct(Entity)26_storage"
							}
						],
						"numberOfBytes": "192"
					},
					"t_struct(User)32_storage": {
						"encoding": "inplace",
						"label": "struct Main.User",
						"members": [
							{
								"astId": 28,
								"contract": "contracts/Main.sol:Main",
								"label": "name",
								"offset": 0,
								"slot": "0",
								"type": "t_string_storage"
							},
							{
								"astId": 31,
								"contract": "contracts/Main.sol:Main",
								"label": "role",
								"offset": 0,
								"slot": "1",
								"type": "t_enum(Role)12"
							}
						],
						"numberOfBytes": "64"
					},
					"t_uint256": {
						"encoding": "inplace",
						"label": "uint256",
						"numberOfBytes": "32"
					}
				}
			},
			"userdoc": {
				"kind": "user",
				"methods": {},
				"version": 1
			}
		}
	}
}