{
	"data": {
		"bytecode": {
			"linkReferences": {},
			"object": "60806040526040518060400160405280600881526020017f4d4754205445414d000000000000000000000000000000000000000000000000815250600190816200004a919062000507565b503480156200005857600080fd5b50336000806101000a81548173ffffffffffffffffffffffffffffffffffffffff021916908373ffffffffffffffffffffffffffffffffffffffff160217905550604051806040016040528060018054620000b390620002f6565b80601f0160208091040260200160405190810160405280929190818152602001828054620000e190620002f6565b8015620001325780601f10620001065761010080835404028352916020019162000132565b820191906000526020600020905b8154815290600101906020018083116200011457829003601f168201915b5050505050815260200160016004811115620001535762000152620005ee565b5b815250600260008060009054906101000a900473ffffffffffffffffffffffffffffffffffffffff1673ffffffffffffffffffffffffffffffffffffffff1673ffffffffffffffffffffffffffffffffffffffff1681526020019081526020016000206000820151816000019081620001cd919062000507565b5060208201518160010160006101000a81548160ff02191690836004811115620001fc57620001fb620005ee565b5b0217905550905050600360008054906101000a900473ffffffffffffffffffffffffffffffffffffffff169080600181540180825580915050600190039060005260206000200160009091909190916101000a81548173ffffffffffffffffffffffffffffffffffffffff021916908373ffffffffffffffffffffffffffffffffffffffff1602179055506200061d565b600081519050919050565b7f4e487b7100000000000000000000000000000000000000000000000000000000600052604160045260246000fd5b7f4e487b7100000000000000000000000000000000000000000000000000000000600052602260045260246000fd5b600060028204905060018216806200030f57607f821691505b602082108103620003255762000324620002c7565b5b50919050565b60008190508160005260206000209050919050565b60006020601f8301049050919050565b600082821b905092915050565b6000600883026200038f7fffffffffffffffffffffffffffffffffffffffffffffffffffffffffffffffff8262000350565b6200039b868362000350565b95508019841693508086168417925050509392505050565b6000819050919050565b6000819050919050565b6000620003e8620003e2620003dc84620003b3565b620003bd565b620003b3565b9050919050565b6000819050919050565b6200040483620003c7565b6200041c6200041382620003ef565b8484546200035d565b825550505050565b600090565b6200043362000424565b62000440818484620003f9565b505050565b5b8181101562000468576200045c60008262000429565b60018101905062000446565b5050565b601f821115620004b75762000481816200032b565b6200048c8462000340565b810160208510156200049c578190505b620004b4620004ab8562000340565b83018262000445565b50505b505050565b600082821c905092915050565b6000620004dc60001984600802620004bc565b1980831691505092915050565b6000620004f78383620004c9565b9150826002028217905092915050565b62000512826200028d565b67ffffffffffffffff8111156200052e576200052d62000298565b5b6200053a8254620002f6565b620005478282856200046c565b600060209050601f8311600181146200057f57600084156200056a578287015190505b620005768582620004e9565b865550620005e6565b601f1984166200058f866200032b565b60005b82811015620005b95784890151825560018201915060208501945060208101905062000592565b86831015620005d95784890151620005d5601f891682620004c9565b8355505b6001600288020188555050505b505050505050565b7f4e487b7100000000000000000000000000000000000000000000000000000000600052602160045260246000fd5b613547806200062d6000396000f3fe608060405234801561001057600080fd5b50600436106100f55760003560e01c8063706ced5b11610097578063a87430ba11610066578063a87430ba14610283578063b237046e146102b4578063e2842d79146102d0578063f61af8ab146102ee576100f5565b8063706ced5b146101fa578063734e1ac31461022b5780638da5cb5b14610249578063a6f9dae114610267576100f5565b8063502c9bd5116100d3578063502c9bd5146101625780635c60f2261461019257806369c212f6146101ae5780636d960bc3146101de576100f5565b806303a69611146100fa5780633e88a4e21461011657806340d2685414610146575b600080fd5b610114600480360381019061010f9190612021565b61031e565b005b610130600480360381019061012b91906121a7565b6104b3565b60405161013d9190612323565b60405180910390f35b610160600480360381019061015b9190612345565b61062e565b005b61017c600480360381019061017791906123ea565b6108ca565b6040516101899190612426565b60405180910390f35b6101ac60048036038101906101a79190612441565b610909565b005b6101c860048036038101906101c39190612441565b610da3565b6040516101d591906124f3565b60405180910390f35b6101f860048036038101906101f391906121a7565b610f38565b005b610214600480360381019061020f91906121a7565b6112ed565b60405161022292919061256e565b60405180910390f35b6102336113bc565b604051610240919061259e565b60405180910390f35b61025161144a565b60405161025e9190612426565b60405180910390f35b610281600480360381019061027c9190612441565b61146e565b005b61029d60048036038101906102989190612441565b6115e7565b6040516102ab9291906125cf565b60405180910390f35b6102ce60048036038101906102c99190612624565b6116a0565b005b6102d86118fd565b6040516102e5919061277f565b60405180910390f35b610308600480360381019061030391906127a1565b611afa565b6040516103159190612890565b60405180910390f35b60018060048111156103335761033261226f565b5b600260003373ffffffffffffffffffffffffffffffffffffffff1673ffffffffffffffffffffffffffffffffffffffff16815260200190815260200160002060010160009054906101000a900460ff1660048111156103955761039461226f565b5b146103d5576040517f08c379a00000000000000000000000000000000000000000000000000000000081526004016103cc906128fe565b60405180910390fd5b600073ffffffffffffffffffffffffffffffffffffffff168373ffffffffffffffffffffffffffffffffffffffff1603610444576040517f08c379a000000000000000000000000000000000000000000000000000000000815260040161043b9061296a565b60405180910390fd5b81600260008573ffffffffffffffffffffffffffffffffffffffff1673ffffffffffffffffffffffffffffffffffffffff16815260200190815260200160002060010160006101000a81548160ff021916908360048111156104a9576104a861226f565b5b0217905550505050565b6104bb611ed5565b60006004836040516104cd91906129c6565b908152602001604051809103902060000180546104e990612a0c565b90500361052b576040517f08c379a000000000000000000000000000000000000000000000000000000000815260040161052290612a89565b60405180910390fd5b600060048360405161053d91906129c6565b908152602001604051809103902090508060405180604001604052908160008201805461056990612a0c565b80601f016020809104026020016040519081016040528092919081815260200182805461059590612a0c565b80156105e25780601f106105b7576101008083540402835291602001916105e2565b820191906000526020600020905b8154815290600101906020018083116105c557829003601f168201915b505050505081526020016001820160009054906101000a900460ff1660058111156106105761060f61226f565b5b60058111156106225761062161226f565b5b81525050915050919050565b60018060048111156106435761064261226f565b5b600260003373ffffffffffffffffffffffffffffffffffffffff1673ffffffffffffffffffffffffffffffffffffffff16815260200190815260200160002060010160009054906101000a900460ff1660048111156106a5576106a461226f565b5b146106e5576040517f08c379a00000000000000000000000000000000000000000000000000000000081526004016106dc906128fe565b60405180910390fd5b600073ffffffffffffffffffffffffffffffffffffffff168473ffffffffffffffffffffffffffffffffffffffff1603610754576040517f08c379a000000000000000000000000000000000000000000000000000000000815260040161074b90612af5565b60405180910390fd5b60405180604001604052808481526020018360048111156107785761077761226f565b5b815250600260008673ffffffffffffffffffffffffffffffffffffffff1673ffffffffffffffffffffffffffffffffffffffff16815260200190815260200160002060008201518160000190816107cf9190612cc1565b5060208201518160010160006101000a81548160ff021916908360048111156107fb576107fa61226f565b5b02179055509050506003849080600181540180825580915050600190039060005260206000200160009091909190916101000a81548173ffffffffffffffffffffffffffffffffffffffff021916908373ffffffffffffffffffffffffffffffffffffffff160217905550600061087183611c87565b90508473ffffffffffffffffffffffffffffffffffffffff167fc2b801d81f6e22509f9eed15df60b144df9483674ff7a983aa3d2c378e7ae5f085836040516108bb929190612ddf565b60405180910390a25050505050565b600381815481106108da57600080fd5b906000526020600020016000915054906101000a900473ffffffffffffffffffffffffffffffffffffffff1681565b600180600481111561091e5761091d61226f565b5b600260003373ffffffffffffffffffffffffffffffffffffffff1673ffffffffffffffffffffffffffffffffffffffff16815260200190815260200160002060010160009054906101000a900460ff1660048111156109805761097f61226f565b5b146109c0576040517f08c379a00000000000000000000000000000000000000000000000000000000081526004016109b7906128fe565b60405180910390fd5b600073ffffffffffffffffffffffffffffffffffffffff168273ffffffffffffffffffffffffffffffffffffffff1603610a2f576040517f08c379a0000000000000000000000000000000000000000000000000000000008152600401610a2690612af5565b60405180910390fd5b6000600260008473ffffffffffffffffffffffffffffffffffffffff1673ffffffffffffffffffffffffffffffffffffffff1681526020019081526020016000206000018054610a7e90612a0c565b80601f0160208091040260200160405190810160405280929190818152602001828054610aaa90612a0c565b8015610af75780601f10610acc57610100808354040283529160200191610af7565b820191906000526020600020905b815481529060010190602001808311610ada57829003601f168201915b505050505090506000610b58600260008673ffffffffffffffffffffffffffffffffffffffff1673ffffffffffffffffffffffffffffffffffffffff16815260200190815260200160002060010160009054906101000a900460ff16611c87565b9050600260008573ffffffffffffffffffffffffffffffffffffffff1673ffffffffffffffffffffffffffffffffffffffff16815260200190815260200160002060008082016000610baa9190611f01565b6001820160006101000a81549060ff0219169055505060005b600380549050811015610d4c578473ffffffffffffffffffffffffffffffffffffffff1660038281548110610bfb57610bfa612e29565b5b9060005260206000200160009054906101000a900473ffffffffffffffffffffffffffffffffffffffff1673ffffffffffffffffffffffffffffffffffffffff1603610d395760036001600380549050610c559190612e87565b81548110610c6657610c65612e29565b5b9060005260206000200160009054906101000a900473ffffffffffffffffffffffffffffffffffffffff1660038281548110610ca557610ca4612e29565b5b9060005260206000200160006101000a81548173ffffffffffffffffffffffffffffffffffffffff021916908373ffffffffffffffffffffffffffffffffffffffff1602179055506003805480610cff57610cfe612ebb565b5b6001900381819060005260206000200160006101000a81549073ffffffffffffffffffffffffffffffffffffffff02191690559055610d4c565b8080610d4490612eea565b915050610bc3565b508373ffffffffffffffffffffffffffffffffffffffff167fc15d693267c3b1d5b865044ab75f608276dc7369a471245e8f087042c9236c088383604051610d95929190612f7e565b60405180910390a250505050565b610dab611f41565b600073ffffffffffffffffffffffffffffffffffffffff168273ffffffffffffffffffffffffffffffffffffffff1603610e1a576040517f08c379a0000000000000000000000000000000000000000000000000000000008152600401610e119061296a565b60405180910390fd5b600260008373ffffffffffffffffffffffffffffffffffffffff1673ffffffffffffffffffffffffffffffffffffffff168152602001908152602001600020604051806040016040529081600082018054610e7490612a0c565b80601f0160208091040260200160405190810160405280929190818152602001828054610ea090612a0c565b8015610eed5780601f10610ec257610100808354040283529160200191610eed565b820191906000526020600020905b815481529060010190602001808311610ed057829003601f168201915b505050505081526020016001820160009054906101000a900460ff166004811115610f1b57610f1a61226f565b5b6004811115610f2d57610f2c61226f565b5b815250509050919050565b6001806004811115610f4d57610f4c61226f565b5b600260003373ffffffffffffffffffffffffffffffffffffffff1673ffffffffffffffffffffffffffffffffffffffff16815260200190815260200160002060010160009054906101000a900460ff166004811115610faf57610fae61226f565b5b14610fef576040517f08c379a0000000000000000000000000000000000000000000000000000000008152600401610fe6906128fe565b60405180910390fd5b600060048360405161100191906129c6565b9081526020016040518091039020600001805461101d90612a0c565b90500361105f576040517f08c379a000000000000000000000000000000000000000000000000000000000815260040161105690612a89565b60405180910390fd5b600060048360405161107191906129c6565b9081526020016040518091039020600001805461108d90612a0c565b80601f01602080910402602001604051908101604052809291908181526020018280546110b990612a0c565b80156111065780601f106110db57610100808354040283529160200191611106565b820191906000526020600020905b8154815290600101906020018083116110e957829003601f168201915b50505050509050600060048460405161111f91906129c6565b908152602001604051809103902060010160009054906101000a900460ff16905060048460405161115091906129c6565b90815260200160405180910390206000808201600061116f9190611f01565b6001820160006101000a81549060ff0219169055505060006005600083600581111561119e5761119d61226f565b5b60058111156111b0576111af61226f565b5b8152602001908152602001600020905060005b81805490508110156112ac5783805190602001208282815481106111ea576111e9612e29565b5b90600052602060002001604051611201919061306b565b6040518091039020036112995781600183805490506112209190612e87565b8154811061123157611230612e29565b5b9060005260206000200182828154811061124e5761124d612e29565b5b90600052602060002001908161126491906130ad565b508180548061127657611275612ebb565b5b6001900381819060005260206000200160006112929190611f01565b90556112ac565b80806112a490612eea565b9150506111c3565b507f0f82cb768ba877ad8036d5b821d07c7c53fe940902cec1842ae7a2d0cef3bced83836040516112de9291906131e1565b60405180910390a15050505050565b60048180516020810182018051848252602083016020850120818352809550505050505060009150905080600001805461132690612a0c565b80601f016020809104026020016040519081016040528092919081815260200182805461135290612a0c565b801561139f5780601f106113745761010080835404028352916020019161139f565b820191906000526020600020905b81548152906001019060200180831161138257829003601f168201915b5050505050908060010160009054906101000a900460ff16905082565b600180546113c990612a0c565b80601f01602080910402602001604051908101604052809291908181526020018280546113f590612a0c565b80156114425780601f1061141757610100808354040283529160200191611442565b820191906000526020600020905b81548152906001019060200180831161142557829003601f168201915b505050505081565b60008054906101000a900473ffffffffffffffffffffffffffffffffffffffff1681565b60008054906101000a900473ffffffffffffffffffffffffffffffffffffffff1673ffffffffffffffffffffffffffffffffffffffff163373ffffffffffffffffffffffffffffffffffffffff16146114fc576040517f08c379a00000000000000000000000000000000000000000000000000000000081526004016114f390613296565b60405180910390fd5b600073ffffffffffffffffffffffffffffffffffffffff168173ffffffffffffffffffffffffffffffffffffffff160361156b576040517f08c379a000000000000000000000000000000000000000000000000000000000815260040161156290612af5565b60405180910390fd5b806000806101000a81548173ffffffffffffffffffffffffffffffffffffffff021916908373ffffffffffffffffffffffffffffffffffffffff1602179055507ff86060286164733a3b0bae3ba4b62f85dc6020ba2ee440318bf5b6be6d0d93a833826040516115dc929190613302565b60405180910390a150565b600260205280600052604060002060009150905080600001805461160a90612a0c565b80601f016020809104026020016040519081016040528092919081815260200182805461163690612a0c565b80156116835780601f1061165857610100808354040283529160200191611683565b820191906000526020600020905b81548152906001019060200180831161166657829003601f168201915b5050505050908060010160009054906101000a900460ff16905082565b60018060048111156116b5576116b461226f565b5b600260003373ffffffffffffffffffffffffffffffffffffffff1673ffffffffffffffffffffffffffffffffffffffff16815260200190815260200160002060010160009054906101000a900460ff1660048111156117175761171661226f565b5b14611757576040517f08c379a000000000000000000000000000000000000000000000000000000000815260040161174e906128fe565b60405180910390fd5b600060048460405161176991906129c6565b9081526020016040518091039020600001805461178590612a0c565b9050146117c7576040517f08c379a00000000000000000000000000000000000000000000000000000000081526004016117be9061338a565b60405180910390fd5b60405180604001604052808481526020018360058111156117eb576117ea61226f565b5b8152506004846040516117fe91906129c6565b908152602001604051809103902060008201518160000190816118219190612cc1565b5060208201518160010160006101000a81548160ff0219169083600581111561184d5761184c61226f565b5b02179055509050506005600083600581111561186c5761186b61226f565b5b600581111561187e5761187d61226f565b5b8152602001908152602001600020839080600181540180825580915050600190039060005260206000200160009091909190915090816118be9190612cc1565b507f1d8d97f815529f4002c8af40c79fd5df57f9d8d426d5d60b300c9ae272db43e683836040516118f09291906133f6565b60405180910390a1505050565b6060600060038054905067ffffffffffffffff8111156119205761191f61207c565b5b60405190808252806020026020018201604052801561195957816020015b611946611f41565b81526020019060019003908161193e5790505b50905060005b600380549050811015611af257600260006003838154811061198457611983612e29565b5b9060005260206000200160009054906101000a900473ffffffffffffffffffffffffffffffffffffffff1673ffffffffffffffffffffffffffffffffffffffff1673ffffffffffffffffffffffffffffffffffffffff168152602001908152602001600020604051806040016040529081600082018054611a0490612a0c565b80601f0160208091040260200160405190810160405280929190818152602001828054611a3090612a0c565b8015611a7d5780601f10611a5257610100808354040283529160200191611a7d565b820191906000526020600020905b815481529060010190602001808311611a6057829003601f168201915b505050505081526020016001820160009054906101000a900460ff166004811115611aab57611aaa61226f565b5b6004811115611abd57611abc61226f565b5b81525050828281518110611ad457611ad3612e29565b5b60200260200101819052508080611aea90612eea565b91505061195f565b508091505090565b6060600060056000846005811115611b1557611b1461226f565b5b6005811115611b2757611b2661226f565b5b81526020019081526020016000208054905003611b79576040517f08c379a0000000000000000000000000000000000000000000000000000000008152600401611b7090613485565b60405180910390fd5b60056000836005811115611b9057611b8f61226f565b5b6005811115611ba257611ba161226f565b5b8152602001908152602001600020805480602002602001604051908101604052809291908181526020016000905b82821015611c7c578382906000526020600020018054611bef90612a0c565b80601f0160208091040260200160405190810160405280929190818152602001828054611c1b90612a0c565b8015611c685780601f10611c3d57610100808354040283529160200191611c68565b820191906000526020600020905b815481529060010190602001808311611c4b57829003601f168201915b505050505081526020019060010190611bd0565b505050509050919050565b606060006004811115611c9d57611c9c61226f565b5b826004811115611cb057611caf61226f565b5b03611cf2576040518060400160405280600481526020017f4e6f6e65000000000000000000000000000000000000000000000000000000008152509050611ed0565b60016004811115611d0657611d0561226f565b5b826004811115611d1957611d1861226f565b5b03611d5b576040518060400160405280600581526020017f41646d696e0000000000000000000000000000000000000000000000000000008152509050611ed0565b60026004811115611d6f57611d6e61226f565b5b826004811115611d8257611d8161226f565b5b03611dc4576040518060400160405280600881526020017f537570706c6965720000000000000000000000000000000000000000000000008152509050611ed0565b60036004811115611dd857611dd761226f565b5b826004811115611deb57611dea61226f565b5b03611e2d576040518060400160405280601481526020017f446973747269627574696f6e456d706c6f7965650000000000000000000000008152509050611ed0565b600480811115611e4057611e3f61226f565b5b826004811115611e5357611e5261226f565b5b03611e95576040518060400160405280600781526020017f41756469746f72000000000000000000000000000000000000000000000000008152509050611ed0565b6040517f08c379a0000000000000000000000000000000000000000000000000000000008152600401611ec7906134f1565b60405180910390fd5b919050565b60405180604001604052806060815260200160006005811115611efb57611efa61226f565b5b81525090565b508054611f0d90612a0c565b6000825580601f10611f1f5750611f3e565b601f016020900490600052602060002090810190611f3d9190611f6d565b5b50565b60405180604001604052806060815260200160006004811115611f6757611f6661226f565b5b81525090565b5b80821115611f86576000816000905550600101611f6e565b5090565b6000604051905090565b600080fd5b600080fd5b600073ffffffffffffffffffffffffffffffffffffffff82169050919050565b6000611fc982611f9e565b9050919050565b611fd981611fbe565b8114611fe457600080fd5b50565b600081359050611ff681611fd0565b92915050565b6005811061200957600080fd5b50565b60008135905061201b81611ffc565b92915050565b6000806040838503121561203857612037611f94565b5b600061204685828601611fe7565b92505060206120578582860161200c565b9150509250929050565b600080fd5b600080fd5b6000601f19601f8301169050919050565b7f4e487b7100000000000000000000000000000000000000000000000000000000600052604160045260246000fd5b6120b48261206b565b810181811067ffffffffffffffff821117156120d3576120d261207c565b5b80604052505050565b60006120e6611f8a565b90506120f282826120ab565b919050565b600067ffffffffffffffff8211156121125761211161207c565b5b61211b8261206b565b9050602081019050919050565b82818337600083830152505050565b600061214a612145846120f7565b6120dc565b90508281526020810184848401111561216657612165612066565b5b612171848285612128565b509392505050565b600082601f83011261218e5761218d612061565b5b813561219e848260208601612137565b91505092915050565b6000602082840312156121bd576121bc611f94565b5b600082013567ffffffffffffffff8111156121db576121da611f99565b5b6121e784828501612179565b91505092915050565b600081519050919050565b600082825260208201905092915050565b60005b8381101561222a57808201518184015260208101905061220f565b60008484015250505050565b6000612241826121f0565b61224b81856121fb565b935061225b81856020860161220c565b6122648161206b565b840191505092915050565b7f4e487b7100000000000000000000000000000000000000000000000000000000600052602160045260246000fd5b600681106122af576122ae61226f565b5b50565b60008190506122c08261229e565b919050565b60006122d0826122b2565b9050919050565b6122e0816122c5565b82525050565b600060408301600083015184820360008601526123038282612236565b915050602083015161231860208601826122d7565b508091505092915050565b6000602082019050818103600083015261233d81846122e6565b905092915050565b60008060006060848603121561235e5761235d611f94565b5b600061236c86828701611fe7565b935050602084013567ffffffffffffffff81111561238d5761238c611f99565b5b61239986828701612179565b92505060406123aa8682870161200c565b9150509250925092565b6000819050919050565b6123c7816123b4565b81146123d257600080fd5b50565b6000813590506123e4816123be565b92915050565b600060208284031215612400576123ff611f94565b5b600061240e848285016123d5565b91505092915050565b61242081611fbe565b82525050565b600060208201905061243b6000830184612417565b92915050565b60006020828403121561245757612456611f94565b5b600061246584828501611fe7565b91505092915050565b6005811061247f5761247e61226f565b5b50565b60008190506124908261246e565b919050565b60006124a082612482565b9050919050565b6124b081612495565b82525050565b600060408301600083015184820360008601526124d38282612236565b91505060208301516124e860208601826124a7565b508091505092915050565b6000602082019050818103600083015261250d81846124b6565b905092915050565b600082825260208201905092915050565b6000612531826121f0565b61253b8185612515565b935061254b81856020860161220c565b6125548161206b565b840191505092915050565b612568816122c5565b82525050565b600060408201905081810360008301526125888185612526565b9050612597602083018461255f565b9392505050565b600060208201905081810360008301526125b88184612526565b905092915050565b6125c981612495565b82525050565b600060408201905081810360008301526125e98185612526565b90506125f860208301846125c0565b9392505050565b6006811061260c57600080fd5b50565b60008135905061261e816125ff565b92915050565b6000806040838503121561263b5761263a611f94565b5b600083013567ffffffffffffffff81111561265957612658611f99565b5b61266585828601612179565b92505060206126768582860161260f565b9150509250929050565b600081519050919050565b600082825260208201905092915050565b6000819050602082019050919050565b600060408301600083015184820360008601526126c98282612236565b91505060208301516126de60208601826124a7565b508091505092915050565b60006126f583836126ac565b905092915050565b6000602082019050919050565b600061271582612680565b61271f818561268b565b9350836020820285016127318561269c565b8060005b8581101561276d578484038952815161274e85826126e9565b9450612759836126fd565b925060208a01995050600181019050612735565b50829750879550505050505092915050565b60006020820190508181036000830152612799818461270a565b905092915050565b6000602082840312156127b7576127b6611f94565b5b60006127c58482850161260f565b91505092915050565b600081519050919050565b600082825260208201905092915050565b6000819050602082019050919050565b60006128068383612236565b905092915050565b6000602082019050919050565b6000612826826127ce565b61283081856127d9565b935083602082028501612842856127ea565b8060005b8581101561287e578484038952815161285f85826127fa565b945061286a8361280e565b925060208a01995050600181019050612846565b50829750879550505050505092915050565b600060208201905081810360008301526128aa818461281b565b905092915050565b7f4163636573732064656e6965643a20696e636f727265637420726f6c65000000600082015250565b60006128e8601d83612515565b91506128f3826128b2565b602082019050919050565b60006020820190508181036000830152612917816128db565b9050919050565b7f496e76616c696420616464726573730000000000000000000000000000000000600082015250565b6000612954600f83612515565b915061295f8261291e565b602082019050919050565b6000602082019050818103600083015261298381612947565b9050919050565b600081905092915050565b60006129a0826121f0565b6129aa818561298a565b93506129ba81856020860161220c565b80840191505092915050565b60006129d28284612995565b915081905092915050565b7f4e487b7100000000000000000000000000000000000000000000000000000000600052602260045260246000fd5b60006002820490506001821680612a2457607f821691505b602082108103612a3757612a366129dd565b5b50919050565b7f456e7469747920646f6573206e6f742065786973740000000000000000000000600082015250565b6000612a73601583612515565b9150612a7e82612a3d565b602082019050919050565b60006020820190508181036000830152612aa281612a66565b9050919050565b7f496e76616c696420616464726573732100000000000000000000000000000000600082015250565b6000612adf601083612515565b9150612aea82612aa9565b602082019050919050565b60006020820190508181036000830152612b0e81612ad2565b9050919050565b60008190508160005260206000209050919050565b60006020601f8301049050919050565b600082821b905092915050565b600060088302612b777fffffffffffffffffffffffffffffffffffffffffffffffffffffffffffffffff82612b3a565b612b818683612b3a565b95508019841693508086168417925050509392505050565b6000819050919050565b6000612bbe612bb9612bb4846123b4565b612b99565b6123b4565b9050919050565b6000819050919050565b612bd883612ba3565b612bec612be482612bc5565b848454612b47565b825550505050565b600090565b612c01612bf4565b612c0c818484612bcf565b505050565b5b81811015612c3057612c25600082612bf9565b600181019050612c12565b5050565b601f821115612c7557612c4681612b15565b612c4f84612b2a565b81016020851015612c5e578190505b612c72612c6a85612b2a565b830182612c11565b50505b505050565b600082821c905092915050565b6000612c9860001984600802612c7a565b1980831691505092915050565b6000612cb18383612c87565b9150826002028217905092915050565b612cca826121f0565b67ffffffffffffffff811115612ce357612ce261207c565b5b612ced8254612a0c565b612cf8828285612c34565b600060209050601f831160018114612d2b5760008415612d19578287015190505b612d238582612ca5565b865550612d8b565b601f198416612d3986612b15565b60005b82811015612d6157848901518255600182019150602085019450602081019050612d3c565b86831015612d7e5784890151612d7a601f891682612c87565b8355505b6001600288020188555050505b505050505050565b7f55736572206164646564207375636365737366756c6c79210000000000000000600082015250565b6000612dc9601883612515565b9150612dd482612d93565b602082019050919050565b60006060820190508181036000830152612df881612dbc565b90508181036020830152612e0c8185612526565b90508181036040830152612e208184612526565b90509392505050565b7f4e487b7100000000000000000000000000000000000000000000000000000000600052603260045260246000fd5b7f4e487b7100000000000000000000000000000000000000000000000000000000600052601160045260246000fd5b6000612e92826123b4565b9150612e9d836123b4565b9250828203905081811115612eb557612eb4612e58565b5b92915050565b7f4e487b7100000000000000000000000000000000000000000000000000000000600052603160045260246000fd5b6000612ef5826123b4565b91507fffffffffffffffffffffffffffffffffffffffffffffffffffffffffffffffff8203612f2757612f26612e58565b5b600182019050919050565b7f557365722064656c65746564207375636365737366756c6c7921000000000000600082015250565b6000612f68601a83612515565b9150612f7382612f32565b602082019050919050565b60006060820190508181036000830152612f9781612f5b565b90508181036020830152612fab8185612526565b90508181036040830152612fbf8184612526565b90509392505050565b600081905092915050565b60008190508160005260206000209050919050565b60008154612ff581612a0c565b612fff8186612fc8565b9450600182166000811461301a576001811461302f57613062565b60ff1983168652811515820286019350613062565b61303885612fd3565b60005b8381101561305a5781548189015260018201915060208101905061303b565b838801955050505b50505092915050565b60006130778284612fe8565b915081905092915050565b60008154905061309181612a0c565b9050919050565b60008190508160005260206000209050919050565b8181036130bb575050613193565b6130c482613082565b67ffffffffffffffff8111156130dd576130dc61207c565b5b6130e78254612a0c565b6130f2828285612c34565b6000601f831160018114613121576000841561310f578287015490505b6131198582612ca5565b86555061318c565b601f19841661312f87613098565b965061313a86612b15565b60005b828110156131625784890154825560018201915060018501945060208101905061313d565b8683101561317f578489015461317b601f891682612c87565b8355505b6001600288020188555050505b5050505050505b565b7f456e746974792064656c65746564207375636365737366756c6c792100000000600082015250565b60006131cb601c83612515565b91506131d682613195565b602082019050919050565b600060608201905081810360008301526131fa816131be565b9050818103602083015261320e8185612526565b905061321d604083018461255f565b9392505050565b7f4f6e6c7920636f6e7472616374206f776e65722063616e2063616c6c2074686960008201527f732066756e6374696f6e00000000000000000000000000000000000000000000602082015250565b6000613280602a83612515565b915061328b82613224565b604082019050919050565b600060208201905081810360008301526132af81613273565b9050919050565b7f4f776e6572206368616e676564207375636365737366756c6c79210000000000600082015250565b60006132ec601b83612515565b91506132f7826132b6565b602082019050919050565b6000606082019050818103600083015261331b816132df565b905061332a6020830185612417565b6133376040830184612417565b9392505050565b7f456e74697479206e616d6520616c726561647920657869737473000000000000600082015250565b6000613374601a83612515565b915061337f8261333e565b602082019050919050565b600060208201905081810360008301526133a381613367565b9050919050565b7f4e657720656e7469747920616464656421000000000000000000000000000000600082015250565b60006133e0601183612515565b91506133eb826133aa565b602082019050919050565b6000606082019050818103600083015261340f816133d3565b905081810360208301526134238185612526565b9050613432604083018461255f565b9392505050565b7f456e74697479207479706520646f6573206e6f74206578697374000000000000600082015250565b600061346f601a83612515565b915061347a82613439565b602082019050919050565b6000602082019050818103600083015261349e81613462565b9050919050565b7f496e76616c696420526f6c650000000000000000000000000000000000000000600082015250565b60006134db600c83612515565b91506134e6826134a5565b602082019050919050565b6000602082019050818103600083015261350a816134ce565b905091905056fea26469706673582212202bcd79413bbc63ea88301a7bd64acdd13fa7e3cb92d88e7e852cc3246a796ff464736f6c63430008130033",
			"opcodes": "PUSH1 0x80 PUSH1 0x40 MSTORE PUSH1 0x40 MLOAD DUP1 PUSH1 0x40 ADD PUSH1 0x40 MSTORE DUP1 PUSH1 0x8 DUP2 MSTORE PUSH1 0x20 ADD PUSH32 0x4D4754205445414D000000000000000000000000000000000000000000000000 DUP2 MSTORE POP PUSH1 0x1 SWAP1 DUP2 PUSH3 0x4A SWAP2 SWAP1 PUSH3 0x507 JUMP JUMPDEST POP CALLVALUE DUP1 ISZERO PUSH3 0x58 JUMPI PUSH1 0x0 DUP1 REVERT JUMPDEST POP CALLER PUSH1 0x0 DUP1 PUSH2 0x100 EXP DUP2 SLOAD DUP2 PUSH20 0xFFFFFFFFFFFFFFFFFFFFFFFFFFFFFFFFFFFFFFFF MUL NOT AND SWAP1 DUP4 PUSH20 0xFFFFFFFFFFFFFFFFFFFFFFFFFFFFFFFFFFFFFFFF AND MUL OR SWAP1 SSTORE POP PUSH1 0x40 MLOAD DUP1 PUSH1 0x40 ADD PUSH1 0x40 MSTORE DUP1 PUSH1 0x1 DUP1 SLOAD PUSH3 0xB3 SWAP1 PUSH3 0x2F6 JUMP JUMPDEST DUP1 PUSH1 0x1F ADD PUSH1 0x20 DUP1 SWAP2 DIV MUL PUSH1 0x20 ADD PUSH1 0x40 MLOAD SWAP1 DUP2 ADD PUSH1 0x40 MSTORE DUP1 SWAP3 SWAP2 SWAP1 DUP2 DUP2 MSTORE PUSH1 0x20 ADD DUP3 DUP1 SLOAD PUSH3 0xE1 SWAP1 PUSH3 0x2F6 JUMP JUMPDEST DUP1 ISZERO PUSH3 0x132 JUMPI DUP1 PUSH1 0x1F LT PUSH3 0x106 JUMPI PUSH2 0x100 DUP1 DUP4 SLOAD DIV MUL DUP4 MSTORE SWAP2 PUSH1 0x20 ADD SWAP2 PUSH3 0x132 JUMP JUMPDEST DUP3 ADD SWAP2 SWAP1 PUSH1 0x0 MSTORE PUSH1 0x20 PUSH1 0x0 KECCAK256 SWAP1 JUMPDEST DUP2 SLOAD DUP2 MSTORE SWAP1 PUSH1 0x1 ADD SWAP1 PUSH1 0x20 ADD DUP1 DUP4 GT PUSH3 0x114 JUMPI DUP3 SWAP1 SUB PUSH1 0x1F AND DUP3 ADD SWAP2 JUMPDEST POP POP POP POP POP DUP2 MSTORE PUSH1 0x20 ADD PUSH1 0x1 PUSH1 0x4 DUP2 GT ISZERO PUSH3 0x153 JUMPI PUSH3 0x152 PUSH3 0x5EE JUMP JUMPDEST JUMPDEST DUP2 MSTORE POP PUSH1 0x2 PUSH1 0x0 DUP1 PUSH1 0x0 SWAP1 SLOAD SWAP1 PUSH2 0x100 EXP SWAP1 DIV PUSH20 0xFFFFFFFFFFFFFFFFFFFFFFFFFFFFFFFFFFFFFFFF AND PUSH20 0xFFFFFFFFFFFFFFFFFFFFFFFFFFFFFFFFFFFFFFFF AND PUSH20 0xFFFFFFFFFFFFFFFFFFFFFFFFFFFFFFFFFFFFFFFF AND DUP2 MSTORE PUSH1 0x20 ADD SWAP1 DUP2 MSTORE PUSH1 0x20 ADD PUSH1 0x0 KECCAK256 PUSH1 0x0 DUP3 ADD MLOAD DUP2 PUSH1 0x0 ADD SWAP1 DUP2 PUSH3 0x1CD SWAP2 SWAP1 PUSH3 0x507 JUMP JUMPDEST POP PUSH1 0x20 DUP3 ADD MLOAD DUP2 PUSH1 0x1 ADD PUSH1 0x0 PUSH2 0x100 EXP DUP2 SLOAD DUP2 PUSH1 0xFF MUL NOT AND SWAP1 DUP4 PUSH1 0x4 DUP2 GT ISZERO PUSH3 0x1FC JUMPI PUSH3 0x1FB PUSH3 0x5EE JUMP JUMPDEST JUMPDEST MUL OR SWAP1 SSTORE POP SWAP1 POP POP PUSH1 0x3 PUSH1 0x0 DUP1 SLOAD SWAP1 PUSH2 0x100 EXP SWAP1 DIV PUSH20 0xFFFFFFFFFFFFFFFFFFFFFFFFFFFFFFFFFFFFFFFF AND SWAP1 DUP1 PUSH1 0x1 DUP2 SLOAD ADD DUP1 DUP3 SSTORE DUP1 SWAP2 POP POP PUSH1 0x1 SWAP1 SUB SWAP1 PUSH1 0x0 MSTORE PUSH1 0x20 PUSH1 0x0 KECCAK256 ADD PUSH1 0x0 SWAP1 SWAP2 SWAP1 SWAP2 SWAP1 SWAP2 PUSH2 0x100 EXP DUP2 SLOAD DUP2 PUSH20 0xFFFFFFFFFFFFFFFFFFFFFFFFFFFFFFFFFFFFFFFF MUL NOT AND SWAP1 DUP4 PUSH20 0xFFFFFFFFFFFFFFFFFFFFFFFFFFFFFFFFFFFFFFFF AND MUL OR SWAP1 SSTORE POP PUSH3 0x61D JUMP JUMPDEST PUSH1 0x0 DUP2 MLOAD SWAP1 POP SWAP2 SWAP1 POP JUMP JUMPDEST PUSH32 0x4E487B7100000000000000000000000000000000000000000000000000000000 PUSH1 0x0 MSTORE PUSH1 0x41 PUSH1 0x4 MSTORE PUSH1 0x24 PUSH1 0x0 REVERT JUMPDEST PUSH32 0x4E487B7100000000000000000000000000000000000000000000000000000000 PUSH1 0x0 MSTORE PUSH1 0x22 PUSH1 0x4 MSTORE PUSH1 0x24 PUSH1 0x0 REVERT JUMPDEST PUSH1 0x0 PUSH1 0x2 DUP3 DIV SWAP1 POP PUSH1 0x1 DUP3 AND DUP1 PUSH3 0x30F JUMPI PUSH1 0x7F DUP3 AND SWAP2 POP JUMPDEST PUSH1 0x20 DUP3 LT DUP2 SUB PUSH3 0x325 JUMPI PUSH3 0x324 PUSH3 0x2C7 JUMP JUMPDEST JUMPDEST POP SWAP2 SWAP1 POP JUMP JUMPDEST PUSH1 0x0 DUP2 SWAP1 POP DUP2 PUSH1 0x0 MSTORE PUSH1 0x20 PUSH1 0x0 KECCAK256 SWAP1 POP SWAP2 SWAP1 POP JUMP JUMPDEST PUSH1 0x0 PUSH1 0x20 PUSH1 0x1F DUP4 ADD DIV SWAP1 POP SWAP2 SWAP1 POP JUMP JUMPDEST PUSH1 0x0 DUP3 DUP3 SHL SWAP1 POP SWAP3 SWAP2 POP POP JUMP JUMPDEST PUSH1 0x0 PUSH1 0x8 DUP4 MUL PUSH3 0x38F PUSH32 0xFFFFFFFFFFFFFFFFFFFFFFFFFFFFFFFFFFFFFFFFFFFFFFFFFFFFFFFFFFFFFFFF DUP3 PUSH3 0x350 JUMP JUMPDEST PUSH3 0x39B DUP7 DUP4 PUSH3 0x350 JUMP JUMPDEST SWAP6 POP DUP1 NOT DUP5 AND SWAP4 POP DUP1 DUP7 AND DUP5 OR SWAP3 POP POP POP SWAP4 SWAP3 POP POP POP JUMP JUMPDEST PUSH1 0x0 DUP2 SWAP1 POP SWAP2 SWAP1 POP JUMP JUMPDEST PUSH1 0x0 DUP2 SWAP1 POP SWAP2 SWAP1 POP JUMP JUMPDEST PUSH1 0x0 PUSH3 0x3E8 PUSH3 0x3E2 PUSH3 0x3DC DUP5 PUSH3 0x3B3 JUMP JUMPDEST PUSH3 0x3BD JUMP JUMPDEST PUSH3 0x3B3 JUMP JUMPDEST SWAP1 POP SWAP2 SWAP1 POP JUMP JUMPDEST PUSH1 0x0 DUP2 SWAP1 POP SWAP2 SWAP1 POP JUMP JUMPDEST PUSH3 0x404 DUP4 PUSH3 0x3C7 JUMP JUMPDEST PUSH3 0x41C PUSH3 0x413 DUP3 PUSH3 0x3EF JUMP JUMPDEST DUP5 DUP5 SLOAD PUSH3 0x35D JUMP JUMPDEST DUP3 SSTORE POP POP POP POP JUMP JUMPDEST PUSH1 0x0 SWAP1 JUMP JUMPDEST PUSH3 0x433 PUSH3 0x424 JUMP JUMPDEST PUSH3 0x440 DUP2 DUP5 DUP5 PUSH3 0x3F9 JUMP JUMPDEST POP POP POP JUMP JUMPDEST JUMPDEST DUP2 DUP2 LT ISZERO PUSH3 0x468 JUMPI PUSH3 0x45C PUSH1 0x0 DUP3 PUSH3 0x429 JUMP JUMPDEST PUSH1 0x1 DUP2 ADD SWAP1 POP PUSH3 0x446 JUMP JUMPDEST POP POP JUMP JUMPDEST PUSH1 0x1F DUP3 GT ISZERO PUSH3 0x4B7 JUMPI PUSH3 0x481 DUP2 PUSH3 0x32B JUMP JUMPDEST PUSH3 0x48C DUP5 PUSH3 0x340 JUMP JUMPDEST DUP2 ADD PUSH1 0x20 DUP6 LT ISZERO PUSH3 0x49C JUMPI DUP2 SWAP1 POP JUMPDEST PUSH3 0x4B4 PUSH3 0x4AB DUP6 PUSH3 0x340 JUMP JUMPDEST DUP4 ADD DUP3 PUSH3 0x445 JUMP JUMPDEST POP POP JUMPDEST POP POP POP JUMP JUMPDEST PUSH1 0x0 DUP3 DUP3 SHR SWAP1 POP SWAP3 SWAP2 POP POP JUMP JUMPDEST PUSH1 0x0 PUSH3 0x4DC PUSH1 0x0 NOT DUP5 PUSH1 0x8 MUL PUSH3 0x4BC JUMP JUMPDEST NOT DUP1 DUP4 AND SWAP2 POP POP SWAP3 SWAP2 POP POP JUMP JUMPDEST PUSH1 0x0 PUSH3 0x4F7 DUP4 DUP4 PUSH3 0x4C9 JUMP JUMPDEST SWAP2 POP DUP3 PUSH1 0x2 MUL DUP3 OR SWAP1 POP SWAP3 SWAP2 POP POP JUMP JUMPDEST PUSH3 0x512 DUP3 PUSH3 0x28D JUMP JUMPDEST PUSH8 0xFFFFFFFFFFFFFFFF DUP2 GT ISZERO PUSH3 0x52E JUMPI PUSH3 0x52D PUSH3 0x298 JUMP JUMPDEST JUMPDEST PUSH3 0x53A DUP3 SLOAD PUSH3 0x2F6 JUMP JUMPDEST PUSH3 0x547 DUP3 DUP3 DUP6 PUSH3 0x46C JUMP JUMPDEST PUSH1 0x0 PUSH1 0x20 SWAP1 POP PUSH1 0x1F DUP4 GT PUSH1 0x1 DUP2 EQ PUSH3 0x57F JUMPI PUSH1 0x0 DUP5 ISZERO PUSH3 0x56A JUMPI DUP3 DUP8 ADD MLOAD SWAP1 POP JUMPDEST PUSH3 0x576 DUP6 DUP3 PUSH3 0x4E9 JUMP JUMPDEST DUP7 SSTORE POP PUSH3 0x5E6 JUMP JUMPDEST PUSH1 0x1F NOT DUP5 AND PUSH3 0x58F DUP7 PUSH3 0x32B JUMP JUMPDEST PUSH1 0x0 JUMPDEST DUP3 DUP2 LT ISZERO PUSH3 0x5B9 JUMPI DUP5 DUP10 ADD MLOAD DUP3 SSTORE PUSH1 0x1 DUP3 ADD SWAP2 POP PUSH1 0x20 DUP6 ADD SWAP5 POP PUSH1 0x20 DUP2 ADD SWAP1 POP PUSH3 0x592 JUMP JUMPDEST DUP7 DUP4 LT ISZERO PUSH3 0x5D9 JUMPI DUP5 DUP10 ADD MLOAD PUSH3 0x5D5 PUSH1 0x1F DUP10 AND DUP3 PUSH3 0x4C9 JUMP JUMPDEST DUP4 SSTORE POP JUMPDEST PUSH1 0x1 PUSH1 0x2 DUP9 MUL ADD DUP9 SSTORE POP POP POP JUMPDEST POP POP POP POP POP POP JUMP JUMPDEST PUSH32 0x4E487B7100000000000000000000000000000000000000000000000000000000 PUSH1 0x0 MSTORE PUSH1 0x21 PUSH1 0x4 MSTORE PUSH1 0x24 PUSH1 0x0 REVERT JUMPDEST PUSH2 0x3547 DUP1 PUSH3 0x62D PUSH1 0x0 CODECOPY PUSH1 0x0 RETURN INVALID PUSH1 0x80 PUSH1 0x40 MSTORE CALLVALUE DUP1 ISZERO PUSH2 0x10 JUMPI PUSH1 0x0 DUP1 REVERT JUMPDEST POP PUSH1 0x4 CALLDATASIZE LT PUSH2 0xF5 JUMPI PUSH1 0x0 CALLDATALOAD PUSH1 0xE0 SHR DUP1 PUSH4 0x706CED5B GT PUSH2 0x97 JUMPI DUP1 PUSH4 0xA87430BA GT PUSH2 0x66 JUMPI DUP1 PUSH4 0xA87430BA EQ PUSH2 0x283 JUMPI DUP1 PUSH4 0xB237046E EQ PUSH2 0x2B4 JUMPI DUP1 PUSH4 0xE2842D79 EQ PUSH2 0x2D0 JUMPI DUP1 PUSH4 0xF61AF8AB EQ PUSH2 0x2EE JUMPI PUSH2 0xF5 JUMP JUMPDEST DUP1 PUSH4 0x706CED5B EQ PUSH2 0x1FA JUMPI DUP1 PUSH4 0x734E1AC3 EQ PUSH2 0x22B JUMPI DUP1 PUSH4 0x8DA5CB5B EQ PUSH2 0x249 JUMPI DUP1 PUSH4 0xA6F9DAE1 EQ PUSH2 0x267 JUMPI PUSH2 0xF5 JUMP JUMPDEST DUP1 PUSH4 0x502C9BD5 GT PUSH2 0xD3 JUMPI DUP1 PUSH4 0x502C9BD5 EQ PUSH2 0x162 JUMPI DUP1 PUSH4 0x5C60F226 EQ PUSH2 0x192 JUMPI DUP1 PUSH4 0x69C212F6 EQ PUSH2 0x1AE JUMPI DUP1 PUSH4 0x6D960BC3 EQ PUSH2 0x1DE JUMPI PUSH2 0xF5 JUMP JUMPDEST DUP1 PUSH4 0x3A69611 EQ PUSH2 0xFA JUMPI DUP1 PUSH4 0x3E88A4E2 EQ PUSH2 0x116 JUMPI DUP1 PUSH4 0x40D26854 EQ PUSH2 0x146 JUMPI JUMPDEST PUSH1 0x0 DUP1 REVERT JUMPDEST PUSH2 0x114 PUSH1 0x4 DUP1 CALLDATASIZE SUB DUP2 ADD SWAP1 PUSH2 0x10F SWAP2 SWAP1 PUSH2 0x2021 JUMP JUMPDEST PUSH2 0x31E JUMP JUMPDEST STOP JUMPDEST PUSH2 0x130 PUSH1 0x4 DUP1 CALLDATASIZE SUB DUP2 ADD SWAP1 PUSH2 0x12B SWAP2 SWAP1 PUSH2 0x21A7 JUMP JUMPDEST PUSH2 0x4B3 JUMP JUMPDEST PUSH1 0x40 MLOAD PUSH2 0x13D SWAP2 SWAP1 PUSH2 0x2323 JUMP JUMPDEST PUSH1 0x40 MLOAD DUP1 SWAP2 SUB SWAP1 RETURN JUMPDEST PUSH2 0x160 PUSH1 0x4 DUP1 CALLDATASIZE SUB DUP2 ADD SWAP1 PUSH2 0x15B SWAP2 SWAP1 PUSH2 0x2345 JUMP JUMPDEST PUSH2 0x62E JUMP JUMPDEST STOP JUMPDEST PUSH2 0x17C PUSH1 0x4 DUP1 CALLDATASIZE SUB DUP2 ADD SWAP1 PUSH2 0x177 SWAP2 SWAP1 PUSH2 0x23EA JUMP JUMPDEST PUSH2 0x8CA JUMP JUMPDEST PUSH1 0x40 MLOAD PUSH2 0x189 SWAP2 SWAP1 PUSH2 0x2426 JUMP JUMPDEST PUSH1 0x40 MLOAD DUP1 SWAP2 SUB SWAP1 RETURN JUMPDEST PUSH2 0x1AC PUSH1 0x4 DUP1 CALLDATASIZE SUB DUP2 ADD SWAP1 PUSH2 0x1A7 SWAP2 SWAP1 PUSH2 0x2441 JUMP JUMPDEST PUSH2 0x909 JUMP JUMPDEST STOP JUMPDEST PUSH2 0x1C8 PUSH1 0x4 DUP1 CALLDATASIZE SUB DUP2 ADD SWAP1 PUSH2 0x1C3 SWAP2 SWAP1 PUSH2 0x2441 JUMP JUMPDEST PUSH2 0xDA3 JUMP JUMPDEST PUSH1 0x40 MLOAD PUSH2 0x1D5 SWAP2 SWAP1 PUSH2 0x24F3 JUMP JUMPDEST PUSH1 0x40 MLOAD DUP1 SWAP2 SUB SWAP1 RETURN JUMPDEST PUSH2 0x1F8 PUSH1 0x4 DUP1 CALLDATASIZE SUB DUP2 ADD SWAP1 PUSH2 0x1F3 SWAP2 SWAP1 PUSH2 0x21A7 JUMP JUMPDEST PUSH2 0xF38 JUMP JUMPDEST STOP JUMPDEST PUSH2 0x214 PUSH1 0x4 DUP1 CALLDATASIZE SUB DUP2 ADD SWAP1 PUSH2 0x20F SWAP2 SWAP1 PUSH2 0x21A7 JUMP JUMPDEST PUSH2 0x12ED JUMP JUMPDEST PUSH1 0x40 MLOAD PUSH2 0x222 SWAP3 SWAP2 SWAP1 PUSH2 0x256E JUMP JUMPDEST PUSH1 0x40 MLOAD DUP1 SWAP2 SUB SWAP1 RETURN JUMPDEST PUSH2 0x233 PUSH2 0x13BC JUMP JUMPDEST PUSH1 0x40 MLOAD PUSH2 0x240 SWAP2 SWAP1 PUSH2 0x259E JUMP JUMPDEST PUSH1 0x40 MLOAD DUP1 SWAP2 SUB SWAP1 RETURN JUMPDEST PUSH2 0x251 PUSH2 0x144A JUMP JUMPDEST PUSH1 0x40 MLOAD PUSH2 0x25E SWAP2 SWAP1 PUSH2 0x2426 JUMP JUMPDEST PUSH1 0x40 MLOAD DUP1 SWAP2 SUB SWAP1 RETURN JUMPDEST PUSH2 0x281 PUSH1 0x4 DUP1 CALLDATASIZE SUB DUP2 ADD SWAP1 PUSH2 0x27C SWAP2 SWAP1 PUSH2 0x2441 JUMP JUMPDEST PUSH2 0x146E JUMP JUMPDEST STOP JUMPDEST PUSH2 0x29D PUSH1 0x4 DUP1 CALLDATASIZE SUB DUP2 ADD SWAP1 PUSH2 0x298 SWAP2 SWAP1 PUSH2 0x2441 JUMP JUMPDEST PUSH2 0x15E7 JUMP JUMPDEST PUSH1 0x40 MLOAD PUSH2 0x2AB SWAP3 SWAP2 SWAP1 PUSH2 0x25CF JUMP JUMPDEST PUSH1 0x40 MLOAD DUP1 SWAP2 SUB SWAP1 RETURN JUMPDEST PUSH2 0x2CE PUSH1 0x4 DUP1 CALLDATASIZE SUB DUP2 ADD SWAP1 PUSH2 0x2C9 SWAP2 SWAP1 PUSH2 0x2624 JUMP JUMPDEST PUSH2 0x16A0 JUMP JUMPDEST STOP JUMPDEST PUSH2 0x2D8 PUSH2 0x18FD JUMP JUMPDEST PUSH1 0x40 MLOAD PUSH2 0x2E5 SWAP2 SWAP1 PUSH2 0x277F JUMP JUMPDEST PUSH1 0x40 MLOAD DUP1 SWAP2 SUB SWAP1 RETURN JUMPDEST PUSH2 0x308 PUSH1 0x4 DUP1 CALLDATASIZE SUB DUP2 ADD SWAP1 PUSH2 0x303 SWAP2 SWAP1 PUSH2 0x27A1 JUMP JUMPDEST PUSH2 0x1AFA JUMP JUMPDEST PUSH1 0x40 MLOAD PUSH2 0x315 SWAP2 SWAP1 PUSH2 0x2890 JUMP JUMPDEST PUSH1 0x40 MLOAD DUP1 SWAP2 SUB SWAP1 RETURN JUMPDEST PUSH1 0x1 DUP1 PUSH1 0x4 DUP2 GT ISZERO PUSH2 0x333 JUMPI PUSH2 0x332 PUSH2 0x226F JUMP JUMPDEST JUMPDEST PUSH1 0x2 PUSH1 0x0 CALLER PUSH20 0xFFFFFFFFFFFFFFFFFFFFFFFFFFFFFFFFFFFFFFFF AND PUSH20 0xFFFFFFFFFFFFFFFFFFFFFFFFFFFFFFFFFFFFFFFF AND DUP2 MSTORE PUSH1 0x20 ADD SWAP1 DUP2 MSTORE PUSH1 0x20 ADD PUSH1 0x0 KECCAK256 PUSH1 0x1 ADD PUSH1 0x0 SWAP1 SLOAD SWAP1 PUSH2 0x100 EXP SWAP1 DIV PUSH1 0xFF AND PUSH1 0x4 DUP2 GT ISZERO PUSH2 0x395 JUMPI PUSH2 0x394 PUSH2 0x226F JUMP JUMPDEST JUMPDEST EQ PUSH2 0x3D5 JUMPI PUSH1 0x40 MLOAD PUSH32 0x8C379A000000000000000000000000000000000000000000000000000000000 DUP2 MSTORE PUSH1 0x4 ADD PUSH2 0x3CC SWAP1 PUSH2 0x28FE JUMP JUMPDEST PUSH1 0x40 MLOAD DUP1 SWAP2 SUB SWAP1 REVERT JUMPDEST PUSH1 0x0 PUSH20 0xFFFFFFFFFFFFFFFFFFFFFFFFFFFFFFFFFFFFFFFF AND DUP4 PUSH20 0xFFFFFFFFFFFFFFFFFFFFFFFFFFFFFFFFFFFFFFFF AND SUB PUSH2 0x444 JUMPI PUSH1 0x40 MLOAD PUSH32 0x8C379A000000000000000000000000000000000000000000000000000000000 DUP2 MSTORE PUSH1 0x4 ADD PUSH2 0x43B SWAP1 PUSH2 0x296A JUMP JUMPDEST PUSH1 0x40 MLOAD DUP1 SWAP2 SUB SWAP1 REVERT JUMPDEST DUP2 PUSH1 0x2 PUSH1 0x0 DUP6 PUSH20 0xFFFFFFFFFFFFFFFFFFFFFFFFFFFFFFFFFFFFFFFF AND PUSH20 0xFFFFFFFFFFFFFFFFFFFFFFFFFFFFFFFFFFFFFFFF AND DUP2 MSTORE PUSH1 0x20 ADD SWAP1 DUP2 MSTORE PUSH1 0x20 ADD PUSH1 0x0 KECCAK256 PUSH1 0x1 ADD PUSH1 0x0 PUSH2 0x100 EXP DUP2 SLOAD DUP2 PUSH1 0xFF MUL NOT AND SWAP1 DUP4 PUSH1 0x4 DUP2 GT ISZERO PUSH2 0x4A9 JUMPI PUSH2 0x4A8 PUSH2 0x226F JUMP JUMPDEST JUMPDEST MUL OR SWAP1 SSTORE POP POP POP POP JUMP JUMPDEST PUSH2 0x4BB PUSH2 0x1ED5 JUMP JUMPDEST PUSH1 0x0 PUSH1 0x4 DUP4 PUSH1 0x40 MLOAD PUSH2 0x4CD SWAP2 SWAP1 PUSH2 0x29C6 JUMP JUMPDEST SWAP1 DUP2 MSTORE PUSH1 0x20 ADD PUSH1 0x40 MLOAD DUP1 SWAP2 SUB SWAP1 KECCAK256 PUSH1 0x0 ADD DUP1 SLOAD PUSH2 0x4E9 SWAP1 PUSH2 0x2A0C JUMP JUMPDEST SWAP1 POP SUB PUSH2 0x52B JUMPI PUSH1 0x40 MLOAD PUSH32 0x8C379A000000000000000000000000000000000000000000000000000000000 DUP2 MSTORE PUSH1 0x4 ADD PUSH2 0x522 SWAP1 PUSH2 0x2A89 JUMP JUMPDEST PUSH1 0x40 MLOAD DUP1 SWAP2 SUB SWAP1 REVERT JUMPDEST PUSH1 0x0 PUSH1 0x4 DUP4 PUSH1 0x40 MLOAD PUSH2 0x53D SWAP2 SWAP1 PUSH2 0x29C6 JUMP JUMPDEST SWAP1 DUP2 MSTORE PUSH1 0x20 ADD PUSH1 0x40 MLOAD DUP1 SWAP2 SUB SWAP1 KECCAK256 SWAP1 POP DUP1 PUSH1 0x40 MLOAD DUP1 PUSH1 0x40 ADD PUSH1 0x40 MSTORE SWAP1 DUP2 PUSH1 0x0 DUP3 ADD DUP1 SLOAD PUSH2 0x569 SWAP1 PUSH2 0x2A0C JUMP JUMPDEST DUP1 PUSH1 0x1F ADD PUSH1 0x20 DUP1 SWAP2 DIV MUL PUSH1 0x20 ADD PUSH1 0x40 MLOAD SWAP1 DUP2 ADD PUSH1 0x40 MSTORE DUP1 SWAP3 SWAP2 SWAP1 DUP2 DUP2 MSTORE PUSH1 0x20 ADD DUP3 DUP1 SLOAD PUSH2 0x595 SWAP1 PUSH2 0x2A0C JUMP JUMPDEST DUP1 ISZERO PUSH2 0x5E2 JUMPI DUP1 PUSH1 0x1F LT PUSH2 0x5B7 JUMPI PUSH2 0x100 DUP1 DUP4 SLOAD DIV MUL DUP4 MSTORE SWAP2 PUSH1 0x20 ADD SWAP2 PUSH2 0x5E2 JUMP JUMPDEST DUP3 ADD SWAP2 SWAP1 PUSH1 0x0 MSTORE PUSH1 0x20 PUSH1 0x0 KECCAK256 SWAP1 JUMPDEST DUP2 SLOAD DUP2 MSTORE SWAP1 PUSH1 0x1 ADD SWAP1 PUSH1 0x20 ADD DUP1 DUP4 GT PUSH2 0x5C5 JUMPI DUP3 SWAP1 SUB PUSH1 0x1F AND DUP3 ADD SWAP2 JUMPDEST POP POP POP POP POP DUP2 MSTORE PUSH1 0x20 ADD PUSH1 0x1 DUP3 ADD PUSH1 0x0 SWAP1 SLOAD SWAP1 PUSH2 0x100 EXP SWAP1 DIV PUSH1 0xFF AND PUSH1 0x5 DUP2 GT ISZERO PUSH2 0x610 JUMPI PUSH2 0x60F PUSH2 0x226F JUMP JUMPDEST JUMPDEST PUSH1 0x5 DUP2 GT ISZERO PUSH2 0x622 JUMPI PUSH2 0x621 PUSH2 0x226F JUMP JUMPDEST JUMPDEST DUP2 MSTORE POP POP SWAP2 POP POP SWAP2 SWAP1 POP JUMP JUMPDEST PUSH1 0x1 DUP1 PUSH1 0x4 DUP2 GT ISZERO PUSH2 0x643 JUMPI PUSH2 0x642 PUSH2 0x226F JUMP JUMPDEST JUMPDEST PUSH1 0x2 PUSH1 0x0 CALLER PUSH20 0xFFFFFFFFFFFFFFFFFFFFFFFFFFFFFFFFFFFFFFFF AND PUSH20 0xFFFFFFFFFFFFFFFFFFFFFFFFFFFFFFFFFFFFFFFF AND DUP2 MSTORE PUSH1 0x20 ADD SWAP1 DUP2 MSTORE PUSH1 0x20 ADD PUSH1 0x0 KECCAK256 PUSH1 0x1 ADD PUSH1 0x0 SWAP1 SLOAD SWAP1 PUSH2 0x100 EXP SWAP1 DIV PUSH1 0xFF AND PUSH1 0x4 DUP2 GT ISZERO PUSH2 0x6A5 JUMPI PUSH2 0x6A4 PUSH2 0x226F JUMP JUMPDEST JUMPDEST EQ PUSH2 0x6E5 JUMPI PUSH1 0x40 MLOAD PUSH32 0x8C379A000000000000000000000000000000000000000000000000000000000 DUP2 MSTORE PUSH1 0x4 ADD PUSH2 0x6DC SWAP1 PUSH2 0x28FE JUMP JUMPDEST PUSH1 0x40 MLOAD DUP1 SWAP2 SUB SWAP1 REVERT JUMPDEST PUSH1 0x0 PUSH20 0xFFFFFFFFFFFFFFFFFFFFFFFFFFFFFFFFFFFFFFFF AND DUP5 PUSH20 0xFFFFFFFFFFFFFFFFFFFFFFFFFFFFFFFFFFFFFFFF AND SUB PUSH2 0x754 JUMPI PUSH1 0x40 MLOAD PUSH32 0x8C379A000000000000000000000000000000000000000000000000000000000 DUP2 MSTORE PUSH1 0x4 ADD PUSH2 0x74B SWAP1 PUSH2 0x2AF5 JUMP JUMPDEST PUSH1 0x40 MLOAD DUP1 SWAP2 SUB SWAP1 REVERT JUMPDEST PUSH1 0x40 MLOAD DUP1 PUSH1 0x40 ADD PUSH1 0x40 MSTORE DUP1 DUP5 DUP2 MSTORE PUSH1 0x20 ADD DUP4 PUSH1 0x4 DUP2 GT ISZERO PUSH2 0x778 JUMPI PUSH2 0x777 PUSH2 0x226F JUMP JUMPDEST JUMPDEST DUP2 MSTORE POP PUSH1 0x2 PUSH1 0x0 DUP7 PUSH20 0xFFFFFFFFFFFFFFFFFFFFFFFFFFFFFFFFFFFFFFFF AND PUSH20 0xFFFFFFFFFFFFFFFFFFFFFFFFFFFFFFFFFFFFFFFF AND DUP2 MSTORE PUSH1 0x20 ADD SWAP1 DUP2 MSTORE PUSH1 0x20 ADD PUSH1 0x0 KECCAK256 PUSH1 0x0 DUP3 ADD MLOAD DUP2 PUSH1 0x0 ADD SWAP1 DUP2 PUSH2 0x7CF SWAP2 SWAP1 PUSH2 0x2CC1 JUMP JUMPDEST POP PUSH1 0x20 DUP3 ADD MLOAD DUP2 PUSH1 0x1 ADD PUSH1 0x0 PUSH2 0x100 EXP DUP2 SLOAD DUP2 PUSH1 0xFF MUL NOT AND SWAP1 DUP4 PUSH1 0x4 DUP2 GT ISZERO PUSH2 0x7FB JUMPI PUSH2 0x7FA PUSH2 0x226F JUMP JUMPDEST JUMPDEST MUL OR SWAP1 SSTORE POP SWAP1 POP POP PUSH1 0x3 DUP5 SWAP1 DUP1 PUSH1 0x1 DUP2 SLOAD ADD DUP1 DUP3 SSTORE DUP1 SWAP2 POP POP PUSH1 0x1 SWAP1 SUB SWAP1 PUSH1 0x0 MSTORE PUSH1 0x20 PUSH1 0x0 KECCAK256 ADD PUSH1 0x0 SWAP1 SWAP2 SWAP1 SWAP2 SWAP1 SWAP2 PUSH2 0x100 EXP DUP2 SLOAD DUP2 PUSH20 0xFFFFFFFFFFFFFFFFFFFFFFFFFFFFFFFFFFFFFFFF MUL NOT AND SWAP1 DUP4 PUSH20 0xFFFFFFFFFFFFFFFFFFFFFFFFFFFFFFFFFFFFFFFF AND MUL OR SWAP1 SSTORE POP PUSH1 0x0 PUSH2 0x871 DUP4 PUSH2 0x1C87 JUMP JUMPDEST SWAP1 POP DUP5 PUSH20 0xFFFFFFFFFFFFFFFFFFFFFFFFFFFFFFFFFFFFFFFF AND PUSH32 0xC2B801D81F6E22509F9EED15DF60B144DF9483674FF7A983AA3D2C378E7AE5F0 DUP6 DUP4 PUSH1 0x40 MLOAD PUSH2 0x8BB SWAP3 SWAP2 SWAP1 PUSH2 0x2DDF JUMP JUMPDEST PUSH1 0x40 MLOAD DUP1 SWAP2 SUB SWAP1 LOG2 POP POP POP POP POP JUMP JUMPDEST PUSH1 0x3 DUP2 DUP2 SLOAD DUP2 LT PUSH2 0x8DA JUMPI PUSH1 0x0 DUP1 REVERT JUMPDEST SWAP1 PUSH1 0x0 MSTORE PUSH1 0x20 PUSH1 0x0 KECCAK256 ADD PUSH1 0x0 SWAP2 POP SLOAD SWAP1 PUSH2 0x100 EXP SWAP1 DIV PUSH20 0xFFFFFFFFFFFFFFFFFFFFFFFFFFFFFFFFFFFFFFFF AND DUP2 JUMP JUMPDEST PUSH1 0x1 DUP1 PUSH1 0x4 DUP2 GT ISZERO PUSH2 0x91E JUMPI PUSH2 0x91D PUSH2 0x226F JUMP JUMPDEST JUMPDEST PUSH1 0x2 PUSH1 0x0 CALLER PUSH20 0xFFFFFFFFFFFFFFFFFFFFFFFFFFFFFFFFFFFFFFFF AND PUSH20 0xFFFFFFFFFFFFFFFFFFFFFFFFFFFFFFFFFFFFFFFF AND DUP2 MSTORE PUSH1 0x20 ADD SWAP1 DUP2 MSTORE PUSH1 0x20 ADD PUSH1 0x0 KECCAK256 PUSH1 0x1 ADD PUSH1 0x0 SWAP1 SLOAD SWAP1 PUSH2 0x100 EXP SWAP1 DIV PUSH1 0xFF AND PUSH1 0x4 DUP2 GT ISZERO PUSH2 0x980 JUMPI PUSH2 0x97F PUSH2 0x226F JUMP JUMPDEST JUMPDEST EQ PUSH2 0x9C0 JUMPI PUSH1 0x40 MLOAD PUSH32 0x8C379A000000000000000000000000000000000000000000000000000000000 DUP2 MSTORE PUSH1 0x4 ADD PUSH2 0x9B7 SWAP1 PUSH2 0x28FE JUMP JUMPDEST PUSH1 0x40 MLOAD DUP1 SWAP2 SUB SWAP1 REVERT JUMPDEST PUSH1 0x0 PUSH20 0xFFFFFFFFFFFFFFFFFFFFFFFFFFFFFFFFFFFFFFFF AND DUP3 PUSH20 0xFFFFFFFFFFFFFFFFFFFFFFFFFFFFFFFFFFFFFFFF AND SUB PUSH2 0xA2F JUMPI PUSH1 0x40 MLOAD PUSH32 0x8C379A000000000000000000000000000000000000000000000000000000000 DUP2 MSTORE PUSH1 0x4 ADD PUSH2 0xA26 SWAP1 PUSH2 0x2AF5 JUMP JUMPDEST PUSH1 0x40 MLOAD DUP1 SWAP2 SUB SWAP1 REVERT JUMPDEST PUSH1 0x0 PUSH1 0x2 PUSH1 0x0 DUP5 PUSH20 0xFFFFFFFFFFFFFFFFFFFFFFFFFFFFFFFFFFFFFFFF AND PUSH20 0xFFFFFFFFFFFFFFFFFFFFFFFFFFFFFFFFFFFFFFFF AND DUP2 MSTORE PUSH1 0x20 ADD SWAP1 DUP2 MSTORE PUSH1 0x20 ADD PUSH1 0x0 KECCAK256 PUSH1 0x0 ADD DUP1 SLOAD PUSH2 0xA7E SWAP1 PUSH2 0x2A0C JUMP JUMPDEST DUP1 PUSH1 0x1F ADD PUSH1 0x20 DUP1 SWAP2 DIV MUL PUSH1 0x20 ADD PUSH1 0x40 MLOAD SWAP1 DUP2 ADD PUSH1 0x40 MSTORE DUP1 SWAP3 SWAP2 SWAP1 DUP2 DUP2 MSTORE PUSH1 0x20 ADD DUP3 DUP1 SLOAD PUSH2 0xAAA SWAP1 PUSH2 0x2A0C JUMP JUMPDEST DUP1 ISZERO PUSH2 0xAF7 JUMPI DUP1 PUSH1 0x1F LT PUSH2 0xACC JUMPI PUSH2 0x100 DUP1 DUP4 SLOAD DIV MUL DUP4 MSTORE SWAP2 PUSH1 0x20 ADD SWAP2 PUSH2 0xAF7 JUMP JUMPDEST DUP3 ADD SWAP2 SWAP1 PUSH1 0x0 MSTORE PUSH1 0x20 PUSH1 0x0 KECCAK256 SWAP1 JUMPDEST DUP2 SLOAD DUP2 MSTORE SWAP1 PUSH1 0x1 ADD SWAP1 PUSH1 0x20 ADD DUP1 DUP4 GT PUSH2 0xADA JUMPI DUP3 SWAP1 SUB PUSH1 0x1F AND DUP3 ADD SWAP2 JUMPDEST POP POP POP POP POP SWAP1 POP PUSH1 0x0 PUSH2 0xB58 PUSH1 0x2 PUSH1 0x0 DUP7 PUSH20 0xFFFFFFFFFFFFFFFFFFFFFFFFFFFFFFFFFFFFFFFF AND PUSH20 0xFFFFFFFFFFFFFFFFFFFFFFFFFFFFFFFFFFFFFFFF AND DUP2 MSTORE PUSH1 0x20 ADD SWAP1 DUP2 MSTORE PUSH1 0x20 ADD PUSH1 0x0 KECCAK256 PUSH1 0x1 ADD PUSH1 0x0 SWAP1 SLOAD SWAP1 PUSH2 0x100 EXP SWAP1 DIV PUSH1 0xFF AND PUSH2 0x1C87 JUMP JUMPDEST SWAP1 POP PUSH1 0x2 PUSH1 0x0 DUP6 PUSH20 0xFFFFFFFFFFFFFFFFFFFFFFFFFFFFFFFFFFFFFFFF AND PUSH20 0xFFFFFFFFFFFFFFFFFFFFFFFFFFFFFFFFFFFFFFFF AND DUP2 MSTORE PUSH1 0x20 ADD SWAP1 DUP2 MSTORE PUSH1 0x20 ADD PUSH1 0x0 KECCAK256 PUSH1 0x0 DUP1 DUP3 ADD PUSH1 0x0 PUSH2 0xBAA SWAP2 SWAP1 PUSH2 0x1F01 JUMP JUMPDEST PUSH1 0x1 DUP3 ADD PUSH1 0x0 PUSH2 0x100 EXP DUP2 SLOAD SWAP1 PUSH1 0xFF MUL NOT AND SWAP1 SSTORE POP POP PUSH1 0x0 JUMPDEST PUSH1 0x3 DUP1 SLOAD SWAP1 POP DUP2 LT ISZERO PUSH2 0xD4C JUMPI DUP5 PUSH20 0xFFFFFFFFFFFFFFFFFFFFFFFFFFFFFFFFFFFFFFFF AND PUSH1 0x3 DUP3 DUP2 SLOAD DUP2 LT PUSH2 0xBFB JUMPI PUSH2 0xBFA PUSH2 0x2E29 JUMP JUMPDEST JUMPDEST SWAP1 PUSH1 0x0 MSTORE PUSH1 0x20 PUSH1 0x0 KECCAK256 ADD PUSH1 0x0 SWAP1 SLOAD SWAP1 PUSH2 0x100 EXP SWAP1 DIV PUSH20 0xFFFFFFFFFFFFFFFFFFFFFFFFFFFFFFFFFFFFFFFF AND PUSH20 0xFFFFFFFFFFFFFFFFFFFFFFFFFFFFFFFFFFFFFFFF AND SUB PUSH2 0xD39 JUMPI PUSH1 0x3 PUSH1 0x1 PUSH1 0x3 DUP1 SLOAD SWAP1 POP PUSH2 0xC55 SWAP2 SWAP1 PUSH2 0x2E87 JUMP JUMPDEST DUP2 SLOAD DUP2 LT PUSH2 0xC66 JUMPI PUSH2 0xC65 PUSH2 0x2E29 JUMP JUMPDEST JUMPDEST SWAP1 PUSH1 0x0 MSTORE PUSH1 0x20 PUSH1 0x0 KECCAK256 ADD PUSH1 0x0 SWAP1 SLOAD SWAP1 PUSH2 0x100 EXP SWAP1 DIV PUSH20 0xFFFFFFFFFFFFFFFFFFFFFFFFFFFFFFFFFFFFFFFF AND PUSH1 0x3 DUP3 DUP2 SLOAD DUP2 LT PUSH2 0xCA5 JUMPI PUSH2 0xCA4 PUSH2 0x2E29 JUMP JUMPDEST JUMPDEST SWAP1 PUSH1 0x0 MSTORE PUSH1 0x20 PUSH1 0x0 KECCAK256 ADD PUSH1 0x0 PUSH2 0x100 EXP DUP2 SLOAD DUP2 PUSH20 0xFFFFFFFFFFFFFFFFFFFFFFFFFFFFFFFFFFFFFFFF MUL NOT AND SWAP1 DUP4 PUSH20 0xFFFFFFFFFFFFFFFFFFFFFFFFFFFFFFFFFFFFFFFF AND MUL OR SWAP1 SSTORE POP PUSH1 0x3 DUP1 SLOAD DUP1 PUSH2 0xCFF JUMPI PUSH2 0xCFE PUSH2 0x2EBB JUMP JUMPDEST JUMPDEST PUSH1 0x1 SWAP1 SUB DUP2 DUP2 SWAP1 PUSH1 0x0 MSTORE PUSH1 0x20 PUSH1 0x0 KECCAK256 ADD PUSH1 0x0 PUSH2 0x100 EXP DUP2 SLOAD SWAP1 PUSH20 0xFFFFFFFFFFFFFFFFFFFFFFFFFFFFFFFFFFFFFFFF MUL NOT AND SWAP1 SSTORE SWAP1 SSTORE PUSH2 0xD4C JUMP JUMPDEST DUP1 DUP1 PUSH2 0xD44 SWAP1 PUSH2 0x2EEA JUMP JUMPDEST SWAP2 POP POP PUSH2 0xBC3 JUMP JUMPDEST POP DUP4 PUSH20 0xFFFFFFFFFFFFFFFFFFFFFFFFFFFFFFFFFFFFFFFF AND PUSH32 0xC15D693267C3B1D5B865044AB75F608276DC7369A471245E8F087042C9236C08 DUP4 DUP4 PUSH1 0x40 MLOAD PUSH2 0xD95 SWAP3 SWAP2 SWAP1 PUSH2 0x2F7E JUMP JUMPDEST PUSH1 0x40 MLOAD DUP1 SWAP2 SUB SWAP1 LOG2 POP POP POP POP JUMP JUMPDEST PUSH2 0xDAB PUSH2 0x1F41 JUMP JUMPDEST PUSH1 0x0 PUSH20 0xFFFFFFFFFFFFFFFFFFFFFFFFFFFFFFFFFFFFFFFF AND DUP3 PUSH20 0xFFFFFFFFFFFFFFFFFFFFFFFFFFFFFFFFFFFFFFFF AND SUB PUSH2 0xE1A JUMPI PUSH1 0x40 MLOAD PUSH32 0x8C379A000000000000000000000000000000000000000000000000000000000 DUP2 MSTORE PUSH1 0x4 ADD PUSH2 0xE11 SWAP1 PUSH2 0x296A JUMP JUMPDEST PUSH1 0x40 MLOAD DUP1 SWAP2 SUB SWAP1 REVERT JUMPDEST PUSH1 0x2 PUSH1 0x0 DUP4 PUSH20 0xFFFFFFFFFFFFFFFFFFFFFFFFFFFFFFFFFFFFFFFF AND PUSH20 0xFFFFFFFFFFFFFFFFFFFFFFFFFFFFFFFFFFFFFFFF AND DUP2 MSTORE PUSH1 0x20 ADD SWAP1 DUP2 MSTORE PUSH1 0x20 ADD PUSH1 0x0 KECCAK256 PUSH1 0x40 MLOAD DUP1 PUSH1 0x40 ADD PUSH1 0x40 MSTORE SWAP1 DUP2 PUSH1 0x0 DUP3 ADD DUP1 SLOAD PUSH2 0xE74 SWAP1 PUSH2 0x2A0C JUMP JUMPDEST DUP1 PUSH1 0x1F ADD PUSH1 0x20 DUP1 SWAP2 DIV MUL PUSH1 0x20 ADD PUSH1 0x40 MLOAD SWAP1 DUP2 ADD PUSH1 0x40 MSTORE DUP1 SWAP3 SWAP2 SWAP1 DUP2 DUP2 MSTORE PUSH1 0x20 ADD DUP3 DUP1 SLOAD PUSH2 0xEA0 SWAP1 PUSH2 0x2A0C JUMP JUMPDEST DUP1 ISZERO PUSH2 0xEED JUMPI DUP1 PUSH1 0x1F LT PUSH2 0xEC2 JUMPI PUSH2 0x100 DUP1 DUP4 SLOAD DIV MUL DUP4 MSTORE SWAP2 PUSH1 0x20 ADD SWAP2 PUSH2 0xEED JUMP JUMPDEST DUP3 ADD SWAP2 SWAP1 PUSH1 0x0 MSTORE PUSH1 0x20 PUSH1 0x0 KECCAK256 SWAP1 JUMPDEST DUP2 SLOAD DUP2 MSTORE SWAP1 PUSH1 0x1 ADD SWAP1 PUSH1 0x20 ADD DUP1 DUP4 GT PUSH2 0xED0 JUMPI DUP3 SWAP1 SUB PUSH1 0x1F AND DUP3 ADD SWAP2 JUMPDEST POP POP POP POP POP DUP2 MSTORE PUSH1 0x20 ADD PUSH1 0x1 DUP3 ADD PUSH1 0x0 SWAP1 SLOAD SWAP1 PUSH2 0x100 EXP SWAP1 DIV PUSH1 0xFF AND PUSH1 0x4 DUP2 GT ISZERO PUSH2 0xF1B JUMPI PUSH2 0xF1A PUSH2 0x226F JUMP JUMPDEST JUMPDEST PUSH1 0x4 DUP2 GT ISZERO PUSH2 0xF2D JUMPI PUSH2 0xF2C PUSH2 0x226F JUMP JUMPDEST JUMPDEST DUP2 MSTORE POP POP SWAP1 POP SWAP2 SWAP1 POP JUMP JUMPDEST PUSH1 0x1 DUP1 PUSH1 0x4 DUP2 GT ISZERO PUSH2 0xF4D JUMPI PUSH2 0xF4C PUSH2 0x226F JUMP JUMPDEST JUMPDEST PUSH1 0x2 PUSH1 0x0 CALLER PUSH20 0xFFFFFFFFFFFFFFFFFFFFFFFFFFFFFFFFFFFFFFFF AND PUSH20 0xFFFFFFFFFFFFFFFFFFFFFFFFFFFFFFFFFFFFFFFF AND DUP2 MSTORE PUSH1 0x20 ADD SWAP1 DUP2 MSTORE PUSH1 0x20 ADD PUSH1 0x0 KECCAK256 PUSH1 0x1 ADD PUSH1 0x0 SWAP1 SLOAD SWAP1 PUSH2 0x100 EXP SWAP1 DIV PUSH1 0xFF AND PUSH1 0x4 DUP2 GT ISZERO PUSH2 0xFAF JUMPI PUSH2 0xFAE PUSH2 0x226F JUMP JUMPDEST JUMPDEST EQ PUSH2 0xFEF JUMPI PUSH1 0x40 MLOAD PUSH32 0x8C379A000000000000000000000000000000000000000000000000000000000 DUP2 MSTORE PUSH1 0x4 ADD PUSH2 0xFE6 SWAP1 PUSH2 0x28FE JUMP JUMPDEST PUSH1 0x40 MLOAD DUP1 SWAP2 SUB SWAP1 REVERT JUMPDEST PUSH1 0x0 PUSH1 0x4 DUP4 PUSH1 0x40 MLOAD PUSH2 0x1001 SWAP2 SWAP1 PUSH2 0x29C6 JUMP JUMPDEST SWAP1 DUP2 MSTORE PUSH1 0x20 ADD PUSH1 0x40 MLOAD DUP1 SWAP2 SUB SWAP1 KECCAK256 PUSH1 0x0 ADD DUP1 SLOAD PUSH2 0x101D SWAP1 PUSH2 0x2A0C JUMP JUMPDEST SWAP1 POP SUB PUSH2 0x105F JUMPI PUSH1 0x40 MLOAD PUSH32 0x8C379A000000000000000000000000000000000000000000000000000000000 DUP2 MSTORE PUSH1 0x4 ADD PUSH2 0x1056 SWAP1 PUSH2 0x2A89 JUMP JUMPDEST PUSH1 0x40 MLOAD DUP1 SWAP2 SUB SWAP1 REVERT JUMPDEST PUSH1 0x0 PUSH1 0x4 DUP4 PUSH1 0x40 MLOAD PUSH2 0x1071 SWAP2 SWAP1 PUSH2 0x29C6 JUMP JUMPDEST SWAP1 DUP2 MSTORE PUSH1 0x20 ADD PUSH1 0x40 MLOAD DUP1 SWAP2 SUB SWAP1 KECCAK256 PUSH1 0x0 ADD DUP1 SLOAD PUSH2 0x108D SWAP1 PUSH2 0x2A0C JUMP JUMPDEST DUP1 PUSH1 0x1F ADD PUSH1 0x20 DUP1 SWAP2 DIV MUL PUSH1 0x20 ADD PUSH1 0x40 MLOAD SWAP1 DUP2 ADD PUSH1 0x40 MSTORE DUP1 SWAP3 SWAP2 SWAP1 DUP2 DUP2 MSTORE PUSH1 0x20 ADD DUP3 DUP1 SLOAD PUSH2 0x10B9 SWAP1 PUSH2 0x2A0C JUMP JUMPDEST DUP1 ISZERO PUSH2 0x1106 JUMPI DUP1 PUSH1 0x1F LT PUSH2 0x10DB JUMPI PUSH2 0x100 DUP1 DUP4 SLOAD DIV MUL DUP4 MSTORE SWAP2 PUSH1 0x20 ADD SWAP2 PUSH2 0x1106 JUMP JUMPDEST DUP3 ADD SWAP2 SWAP1 PUSH1 0x0 MSTORE PUSH1 0x20 PUSH1 0x0 KECCAK256 SWAP1 JUMPDEST DUP2 SLOAD DUP2 MSTORE SWAP1 PUSH1 0x1 ADD SWAP1 PUSH1 0x20 ADD DUP1 DUP4 GT PUSH2 0x10E9 JUMPI DUP3 SWAP1 SUB PUSH1 0x1F AND DUP3 ADD SWAP2 JUMPDEST POP POP POP POP POP SWAP1 POP PUSH1 0x0 PUSH1 0x4 DUP5 PUSH1 0x40 MLOAD PUSH2 0x111F SWAP2 SWAP1 PUSH2 0x29C6 JUMP JUMPDEST SWAP1 DUP2 MSTORE PUSH1 0x20 ADD PUSH1 0x40 MLOAD DUP1 SWAP2 SUB SWAP1 KECCAK256 PUSH1 0x1 ADD PUSH1 0x0 SWAP1 SLOAD SWAP1 PUSH2 0x100 EXP SWAP1 DIV PUSH1 0xFF AND SWAP1 POP PUSH1 0x4 DUP5 PUSH1 0x40 MLOAD PUSH2 0x1150 SWAP2 SWAP1 PUSH2 0x29C6 JUMP JUMPDEST SWAP1 DUP2 MSTORE PUSH1 0x20 ADD PUSH1 0x40 MLOAD DUP1 SWAP2 SUB SWAP1 KECCAK256 PUSH1 0x0 DUP1 DUP3 ADD PUSH1 0x0 PUSH2 0x116F SWAP2 SWAP1 PUSH2 0x1F01 JUMP JUMPDEST PUSH1 0x1 DUP3 ADD PUSH1 0x0 PUSH2 0x100 EXP DUP2 SLOAD SWAP1 PUSH1 0xFF MUL NOT AND SWAP1 SSTORE POP POP PUSH1 0x0 PUSH1 0x5 PUSH1 0x0 DUP4 PUSH1 0x5 DUP2 GT ISZERO PUSH2 0x119E JUMPI PUSH2 0x119D PUSH2 0x226F JUMP JUMPDEST JUMPDEST PUSH1 0x5 DUP2 GT ISZERO PUSH2 0x11B0 JUMPI PUSH2 0x11AF PUSH2 0x226F JUMP JUMPDEST JUMPDEST DUP2 MSTORE PUSH1 0x20 ADD SWAP1 DUP2 MSTORE PUSH1 0x20 ADD PUSH1 0x0 KECCAK256 SWAP1 POP PUSH1 0x0 JUMPDEST DUP2 DUP1 SLOAD SWAP1 POP DUP2 LT ISZERO PUSH2 0x12AC JUMPI DUP4 DUP1 MLOAD SWAP1 PUSH1 0x20 ADD KECCAK256 DUP3 DUP3 DUP2 SLOAD DUP2 LT PUSH2 0x11EA JUMPI PUSH2 0x11E9 PUSH2 0x2E29 JUMP JUMPDEST JUMPDEST SWAP1 PUSH1 0x0 MSTORE PUSH1 0x20 PUSH1 0x0 KECCAK256 ADD PUSH1 0x40 MLOAD PUSH2 0x1201 SWAP2 SWAP1 PUSH2 0x306B JUMP JUMPDEST PUSH1 0x40 MLOAD DUP1 SWAP2 SUB SWAP1 KECCAK256 SUB PUSH2 0x1299 JUMPI DUP2 PUSH1 0x1 DUP4 DUP1 SLOAD SWAP1 POP PUSH2 0x1220 SWAP2 SWAP1 PUSH2 0x2E87 JUMP JUMPDEST DUP2 SLOAD DUP2 LT PUSH2 0x1231 JUMPI PUSH2 0x1230 PUSH2 0x2E29 JUMP JUMPDEST JUMPDEST SWAP1 PUSH1 0x0 MSTORE PUSH1 0x20 PUSH1 0x0 KECCAK256 ADD DUP3 DUP3 DUP2 SLOAD DUP2 LT PUSH2 0x124E JUMPI PUSH2 0x124D PUSH2 0x2E29 JUMP JUMPDEST JUMPDEST SWAP1 PUSH1 0x0 MSTORE PUSH1 0x20 PUSH1 0x0 KECCAK256 ADD SWAP1 DUP2 PUSH2 0x1264 SWAP2 SWAP1 PUSH2 0x30AD JUMP JUMPDEST POP DUP2 DUP1 SLOAD DUP1 PUSH2 0x1276 JUMPI PUSH2 0x1275 PUSH2 0x2EBB JUMP JUMPDEST JUMPDEST PUSH1 0x1 SWAP1 SUB DUP2 DUP2 SWAP1 PUSH1 0x0 MSTORE PUSH1 0x20 PUSH1 0x0 KECCAK256 ADD PUSH1 0x0 PUSH2 0x1292 SWAP2 SWAP1 PUSH2 0x1F01 JUMP JUMPDEST SWAP1 SSTORE PUSH2 0x12AC JUMP JUMPDEST DUP1 DUP1 PUSH2 0x12A4 SWAP1 PUSH2 0x2EEA JUMP JUMPDEST SWAP2 POP POP PUSH2 0x11C3 JUMP JUMPDEST POP PUSH32 0xF82CB768BA877AD8036D5B821D07C7C53FE940902CEC1842AE7A2D0CEF3BCED DUP4 DUP4 PUSH1 0x40 MLOAD PUSH2 0x12DE SWAP3 SWAP2 SWAP1 PUSH2 0x31E1 JUMP JUMPDEST PUSH1 0x40 MLOAD DUP1 SWAP2 SUB SWAP1 LOG1 POP POP POP POP POP JUMP JUMPDEST PUSH1 0x4 DUP2 DUP1 MLOAD PUSH1 0x20 DUP2 ADD DUP3 ADD DUP1 MLOAD DUP5 DUP3 MSTORE PUSH1 0x20 DUP4 ADD PUSH1 0x20 DUP6 ADD KECCAK256 DUP2 DUP4 MSTORE DUP1 SWAP6 POP POP POP POP POP POP PUSH1 0x0 SWAP2 POP SWAP1 POP DUP1 PUSH1 0x0 ADD DUP1 SLOAD PUSH2 0x1326 SWAP1 PUSH2 0x2A0C JUMP JUMPDEST DUP1 PUSH1 0x1F ADD PUSH1 0x20 DUP1 SWAP2 DIV MUL PUSH1 0x20 ADD PUSH1 0x40 MLOAD SWAP1 DUP2 ADD PUSH1 0x40 MSTORE DUP1 SWAP3 SWAP2 SWAP1 DUP2 DUP2 MSTORE PUSH1 0x20 ADD DUP3 DUP1 SLOAD PUSH2 0x1352 SWAP1 PUSH2 0x2A0C JUMP JUMPDEST DUP1 ISZERO PUSH2 0x139F JUMPI DUP1 PUSH1 0x1F LT PUSH2 0x1374 JUMPI PUSH2 0x100 DUP1 DUP4 SLOAD DIV MUL DUP4 MSTORE SWAP2 PUSH1 0x20 ADD SWAP2 PUSH2 0x139F JUMP JUMPDEST DUP3 ADD SWAP2 SWAP1 PUSH1 0x0 MSTORE PUSH1 0x20 PUSH1 0x0 KECCAK256 SWAP1 JUMPDEST DUP2 SLOAD DUP2 MSTORE SWAP1 PUSH1 0x1 ADD SWAP1 PUSH1 0x20 ADD DUP1 DUP4 GT PUSH2 0x1382 JUMPI DUP3 SWAP1 SUB PUSH1 0x1F AND DUP3 ADD SWAP2 JUMPDEST POP POP POP POP POP SWAP1 DUP1 PUSH1 0x1 ADD PUSH1 0x0 SWAP1 SLOAD SWAP1 PUSH2 0x100 EXP SWAP1 DIV PUSH1 0xFF AND SWAP1 POP DUP3 JUMP JUMPDEST PUSH1 0x1 DUP1 SLOAD PUSH2 0x13C9 SWAP1 PUSH2 0x2A0C JUMP JUMPDEST DUP1 PUSH1 0x1F ADD PUSH1 0x20 DUP1 SWAP2 DIV MUL PUSH1 0x20 ADD PUSH1 0x40 MLOAD SWAP1 DUP2 ADD PUSH1 0x40 MSTORE DUP1 SWAP3 SWAP2 SWAP1 DUP2 DUP2 MSTORE PUSH1 0x20 ADD DUP3 DUP1 SLOAD PUSH2 0x13F5 SWAP1 PUSH2 0x2A0C JUMP JUMPDEST DUP1 ISZERO PUSH2 0x1442 JUMPI DUP1 PUSH1 0x1F LT PUSH2 0x1417 JUMPI PUSH2 0x100 DUP1 DUP4 SLOAD DIV MUL DUP4 MSTORE SWAP2 PUSH1 0x20 ADD SWAP2 PUSH2 0x1442 JUMP JUMPDEST DUP3 ADD SWAP2 SWAP1 PUSH1 0x0 MSTORE PUSH1 0x20 PUSH1 0x0 KECCAK256 SWAP1 JUMPDEST DUP2 SLOAD DUP2 MSTORE SWAP1 PUSH1 0x1 ADD SWAP1 PUSH1 0x20 ADD DUP1 DUP4 GT PUSH2 0x1425 JUMPI DUP3 SWAP1 SUB PUSH1 0x1F AND DUP3 ADD SWAP2 JUMPDEST POP POP POP POP POP DUP2 JUMP JUMPDEST PUSH1 0x0 DUP1 SLOAD SWAP1 PUSH2 0x100 EXP SWAP1 DIV PUSH20 0xFFFFFFFFFFFFFFFFFFFFFFFFFFFFFFFFFFFFFFFF AND DUP2 JUMP JUMPDEST PUSH1 0x0 DUP1 SLOAD SWAP1 PUSH2 0x100 EXP SWAP1 DIV PUSH20 0xFFFFFFFFFFFFFFFFFFFFFFFFFFFFFFFFFFFFFFFF AND PUSH20 0xFFFFFFFFFFFFFFFFFFFFFFFFFFFFFFFFFFFFFFFF AND CALLER PUSH20 0xFFFFFFFFFFFFFFFFFFFFFFFFFFFFFFFFFFFFFFFF AND EQ PUSH2 0x14FC JUMPI PUSH1 0x40 MLOAD PUSH32 0x8C379A000000000000000000000000000000000000000000000000000000000 DUP2 MSTORE PUSH1 0x4 ADD PUSH2 0x14F3 SWAP1 PUSH2 0x3296 JUMP JUMPDEST PUSH1 0x40 MLOAD DUP1 SWAP2 SUB SWAP1 REVERT JUMPDEST PUSH1 0x0 PUSH20 0xFFFFFFFFFFFFFFFFFFFFFFFFFFFFFFFFFFFFFFFF AND DUP2 PUSH20 0xFFFFFFFFFFFFFFFFFFFFFFFFFFFFFFFFFFFFFFFF AND SUB PUSH2 0x156B JUMPI PUSH1 0x40 MLOAD PUSH32 0x8C379A000000000000000000000000000000000000000000000000000000000 DUP2 MSTORE PUSH1 0x4 ADD PUSH2 0x1562 SWAP1 PUSH2 0x2AF5 JUMP JUMPDEST PUSH1 0x40 MLOAD DUP1 SWAP2 SUB SWAP1 REVERT JUMPDEST DUP1 PUSH1 0x0 DUP1 PUSH2 0x100 EXP DUP2 SLOAD DUP2 PUSH20 0xFFFFFFFFFFFFFFFFFFFFFFFFFFFFFFFFFFFFFFFF MUL NOT AND SWAP1 DUP4 PUSH20 0xFFFFFFFFFFFFFFFFFFFFFFFFFFFFFFFFFFFFFFFF AND MUL OR SWAP1 SSTORE POP PUSH32 0xF86060286164733A3B0BAE3BA4B62F85DC6020BA2EE440318BF5B6BE6D0D93A8 CALLER DUP3 PUSH1 0x40 MLOAD PUSH2 0x15DC SWAP3 SWAP2 SWAP1 PUSH2 0x3302 JUMP JUMPDEST PUSH1 0x40 MLOAD DUP1 SWAP2 SUB SWAP1 LOG1 POP JUMP JUMPDEST PUSH1 0x2 PUSH1 0x20 MSTORE DUP1 PUSH1 0x0 MSTORE PUSH1 0x40 PUSH1 0x0 KECCAK256 PUSH1 0x0 SWAP2 POP SWAP1 POP DUP1 PUSH1 0x0 ADD DUP1 SLOAD PUSH2 0x160A SWAP1 PUSH2 0x2A0C JUMP JUMPDEST DUP1 PUSH1 0x1F ADD PUSH1 0x20 DUP1 SWAP2 DIV MUL PUSH1 0x20 ADD PUSH1 0x40 MLOAD SWAP1 DUP2 ADD PUSH1 0x40 MSTORE DUP1 SWAP3 SWAP2 SWAP1 DUP2 DUP2 MSTORE PUSH1 0x20 ADD DUP3 DUP1 SLOAD PUSH2 0x1636 SWAP1 PUSH2 0x2A0C JUMP JUMPDEST DUP1 ISZERO PUSH2 0x1683 JUMPI DUP1 PUSH1 0x1F LT PUSH2 0x1658 JUMPI PUSH2 0x100 DUP1 DUP4 SLOAD DIV MUL DUP4 MSTORE SWAP2 PUSH1 0x20 ADD SWAP2 PUSH2 0x1683 JUMP JUMPDEST DUP3 ADD SWAP2 SWAP1 PUSH1 0x0 MSTORE PUSH1 0x20 PUSH1 0x0 KECCAK256 SWAP1 JUMPDEST DUP2 SLOAD DUP2 MSTORE SWAP1 PUSH1 0x1 ADD SWAP1 PUSH1 0x20 ADD DUP1 DUP4 GT PUSH2 0x1666 JUMPI DUP3 SWAP1 SUB PUSH1 0x1F AND DUP3 ADD SWAP2 JUMPDEST POP POP POP POP POP SWAP1 DUP1 PUSH1 0x1 ADD PUSH1 0x0 SWAP1 SLOAD SWAP1 PUSH2 0x100 EXP SWAP1 DIV PUSH1 0xFF AND SWAP1 POP DUP3 JUMP JUMPDEST PUSH1 0x1 DUP1 PUSH1 0x4 DUP2 GT ISZERO PUSH2 0x16B5 JUMPI PUSH2 0x16B4 PUSH2 0x226F JUMP JUMPDEST JUMPDEST PUSH1 0x2 PUSH1 0x0 CALLER PUSH20 0xFFFFFFFFFFFFFFFFFFFFFFFFFFFFFFFFFFFFFFFF AND PUSH20 0xFFFFFFFFFFFFFFFFFFFFFFFFFFFFFFFFFFFFFFFF AND DUP2 MSTORE PUSH1 0x20 ADD SWAP1 DUP2 MSTORE PUSH1 0x20 ADD PUSH1 0x0 KECCAK256 PUSH1 0x1 ADD PUSH1 0x0 SWAP1 SLOAD SWAP1 PUSH2 0x100 EXP SWAP1 DIV PUSH1 0xFF AND PUSH1 0x4 DUP2 GT ISZERO PUSH2 0x1717 JUMPI PUSH2 0x1716 PUSH2 0x226F JUMP JUMPDEST JUMPDEST EQ PUSH2 0x1757 JUMPI PUSH1 0x40 MLOAD PUSH32 0x8C379A000000000000000000000000000000000000000000000000000000000 DUP2 MSTORE PUSH1 0x4 ADD PUSH2 0x174E SWAP1 PUSH2 0x28FE JUMP JUMPDEST PUSH1 0x40 MLOAD DUP1 SWAP2 SUB SWAP1 REVERT JUMPDEST PUSH1 0x0 PUSH1 0x4 DUP5 PUSH1 0x40 MLOAD PUSH2 0x1769 SWAP2 SWAP1 PUSH2 0x29C6 JUMP JUMPDEST SWAP1 DUP2 MSTORE PUSH1 0x20 ADD PUSH1 0x40 MLOAD DUP1 SWAP2 SUB SWAP1 KECCAK256 PUSH1 0x0 ADD DUP1 SLOAD PUSH2 0x1785 SWAP1 PUSH2 0x2A0C JUMP JUMPDEST SWAP1 POP EQ PUSH2 0x17C7 JUMPI PUSH1 0x40 MLOAD PUSH32 0x8C379A000000000000000000000000000000000000000000000000000000000 DUP2 MSTORE PUSH1 0x4 ADD PUSH2 0x17BE SWAP1 PUSH2 0x338A JUMP JUMPDEST PUSH1 0x40 MLOAD DUP1 SWAP2 SUB SWAP1 REVERT JUMPDEST PUSH1 0x40 MLOAD DUP1 PUSH1 0x40 ADD PUSH1 0x40 MSTORE DUP1 DUP5 DUP2 MSTORE PUSH1 0x20 ADD DUP4 PUSH1 0x5 DUP2 GT ISZERO PUSH2 0x17EB JUMPI PUSH2 0x17EA PUSH2 0x226F JUMP JUMPDEST JUMPDEST DUP2 MSTORE POP PUSH1 0x4 DUP5 PUSH1 0x40 MLOAD PUSH2 0x17FE SWAP2 SWAP1 PUSH2 0x29C6 JUMP JUMPDEST SWAP1 DUP2 MSTORE PUSH1 0x20 ADD PUSH1 0x40 MLOAD DUP1 SWAP2 SUB SWAP1 KECCAK256 PUSH1 0x0 DUP3 ADD MLOAD DUP2 PUSH1 0x0 ADD SWAP1 DUP2 PUSH2 0x1821 SWAP2 SWAP1 PUSH2 0x2CC1 JUMP JUMPDEST POP PUSH1 0x20 DUP3 ADD MLOAD DUP2 PUSH1 0x1 ADD PUSH1 0x0 PUSH2 0x100 EXP DUP2 SLOAD DUP2 PUSH1 0xFF MUL NOT AND SWAP1 DUP4 PUSH1 0x5 DUP2 GT ISZERO PUSH2 0x184D JUMPI PUSH2 0x184C PUSH2 0x226F JUMP JUMPDEST JUMPDEST MUL OR SWAP1 SSTORE POP SWAP1 POP POP PUSH1 0x5 PUSH1 0x0 DUP4 PUSH1 0x5 DUP2 GT ISZERO PUSH2 0x186C JUMPI PUSH2 0x186B PUSH2 0x226F JUMP JUMPDEST JUMPDEST PUSH1 0x5 DUP2 GT ISZERO PUSH2 0x187E JUMPI PUSH2 0x187D PUSH2 0x226F JUMP JUMPDEST JUMPDEST DUP2 MSTORE PUSH1 0x20 ADD SWAP1 DUP2 MSTORE PUSH1 0x20 ADD PUSH1 0x0 KECCAK256 DUP4 SWAP1 DUP1 PUSH1 0x1 DUP2 SLOAD ADD DUP1 DUP3 SSTORE DUP1 SWAP2 POP POP PUSH1 0x1 SWAP1 SUB SWAP1 PUSH1 0x0 MSTORE PUSH1 0x20 PUSH1 0x0 KECCAK256 ADD PUSH1 0x0 SWAP1 SWAP2 SWAP1 SWAP2 SWAP1 SWAP2 POP SWAP1 DUP2 PUSH2 0x18BE SWAP2 SWAP1 PUSH2 0x2CC1 JUMP JUMPDEST POP PUSH32 0x1D8D97F815529F4002C8AF40C79FD5DF57F9D8D426D5D60B300C9AE272DB43E6 DUP4 DUP4 PUSH1 0x40 MLOAD PUSH2 0x18F0 SWAP3 SWAP2 SWAP1 PUSH2 0x33F6 JUMP JUMPDEST PUSH1 0x40 MLOAD DUP1 SWAP2 SUB SWAP1 LOG1 POP POP POP JUMP JUMPDEST PUSH1 0x60 PUSH1 0x0 PUSH1 0x3 DUP1 SLOAD SWAP1 POP PUSH8 0xFFFFFFFFFFFFFFFF DUP2 GT ISZERO PUSH2 0x1920 JUMPI PUSH2 0x191F PUSH2 0x207C JUMP JUMPDEST JUMPDEST PUSH1 0x40 MLOAD SWAP1 DUP1 DUP3 MSTORE DUP1 PUSH1 0x20 MUL PUSH1 0x20 ADD DUP3 ADD PUSH1 0x40 MSTORE DUP1 ISZERO PUSH2 0x1959 JUMPI DUP2 PUSH1 0x20 ADD JUMPDEST PUSH2 0x1946 PUSH2 0x1F41 JUMP JUMPDEST DUP2 MSTORE PUSH1 0x20 ADD SWAP1 PUSH1 0x1 SWAP1 SUB SWAP1 DUP2 PUSH2 0x193E JUMPI SWAP1 POP JUMPDEST POP SWAP1 POP PUSH1 0x0 JUMPDEST PUSH1 0x3 DUP1 SLOAD SWAP1 POP DUP2 LT ISZERO PUSH2 0x1AF2 JUMPI PUSH1 0x2 PUSH1 0x0 PUSH1 0x3 DUP4 DUP2 SLOAD DUP2 LT PUSH2 0x1984 JUMPI PUSH2 0x1983 PUSH2 0x2E29 JUMP JUMPDEST JUMPDEST SWAP1 PUSH1 0x0 MSTORE PUSH1 0x20 PUSH1 0x0 KECCAK256 ADD PUSH1 0x0 SWAP1 SLOAD SWAP1 PUSH2 0x100 EXP SWAP1 DIV PUSH20 0xFFFFFFFFFFFFFFFFFFFFFFFFFFFFFFFFFFFFFFFF AND PUSH20 0xFFFFFFFFFFFFFFFFFFFFFFFFFFFFFFFFFFFFFFFF AND PUSH20 0xFFFFFFFFFFFFFFFFFFFFFFFFFFFFFFFFFFFFFFFF AND DUP2 MSTORE PUSH1 0x20 ADD SWAP1 DUP2 MSTORE PUSH1 0x20 ADD PUSH1 0x0 KECCAK256 PUSH1 0x40 MLOAD DUP1 PUSH1 0x40 ADD PUSH1 0x40 MSTORE SWAP1 DUP2 PUSH1 0x0 DUP3 ADD DUP1 SLOAD PUSH2 0x1A04 SWAP1 PUSH2 0x2A0C JUMP JUMPDEST DUP1 PUSH1 0x1F ADD PUSH1 0x20 DUP1 SWAP2 DIV MUL PUSH1 0x20 ADD PUSH1 0x40 MLOAD SWAP1 DUP2 ADD PUSH1 0x40 MSTORE DUP1 SWAP3 SWAP2 SWAP1 DUP2 DUP2 MSTORE PUSH1 0x20 ADD DUP3 DUP1 SLOAD PUSH2 0x1A30 SWAP1 PUSH2 0x2A0C JUMP JUMPDEST DUP1 ISZERO PUSH2 0x1A7D JUMPI DUP1 PUSH1 0x1F LT PUSH2 0x1A52 JUMPI PUSH2 0x100 DUP1 DUP4 SLOAD DIV MUL DUP4 MSTORE SWAP2 PUSH1 0x20 ADD SWAP2 PUSH2 0x1A7D JUMP JUMPDEST DUP3 ADD SWAP2 SWAP1 PUSH1 0x0 MSTORE PUSH1 0x20 PUSH1 0x0 KECCAK256 SWAP1 JUMPDEST DUP2 SLOAD DUP2 MSTORE SWAP1 PUSH1 0x1 ADD SWAP1 PUSH1 0x20 ADD DUP1 DUP4 GT PUSH2 0x1A60 JUMPI DUP3 SWAP1 SUB PUSH1 0x1F AND DUP3 ADD SWAP2 JUMPDEST POP POP POP POP POP DUP2 MSTORE PUSH1 0x20 ADD PUSH1 0x1 DUP3 ADD PUSH1 0x0 SWAP1 SLOAD SWAP1 PUSH2 0x100 EXP SWAP1 DIV PUSH1 0xFF AND PUSH1 0x4 DUP2 GT ISZERO PUSH2 0x1AAB JUMPI PUSH2 0x1AAA PUSH2 0x226F JUMP JUMPDEST JUMPDEST PUSH1 0x4 DUP2 GT ISZERO PUSH2 0x1ABD JUMPI PUSH2 0x1ABC PUSH2 0x226F JUMP JUMPDEST JUMPDEST DUP2 MSTORE POP POP DUP3 DUP3 DUP2 MLOAD DUP2 LT PUSH2 0x1AD4 JUMPI PUSH2 0x1AD3 PUSH2 0x2E29 JUMP JUMPDEST JUMPDEST PUSH1 0x20 MUL PUSH1 0x20 ADD ADD DUP2 SWAP1 MSTORE POP DUP1 DUP1 PUSH2 0x1AEA SWAP1 PUSH2 0x2EEA JUMP JUMPDEST SWAP2 POP POP PUSH2 0x195F JUMP JUMPDEST POP DUP1 SWAP2 POP POP SWAP1 JUMP JUMPDEST PUSH1 0x60 PUSH1 0x0 PUSH1 0x5 PUSH1 0x0 DUP5 PUSH1 0x5 DUP2 GT ISZERO PUSH2 0x1B15 JUMPI PUSH2 0x1B14 PUSH2 0x226F JUMP JUMPDEST JUMPDEST PUSH1 0x5 DUP2 GT ISZERO PUSH2 0x1B27 JUMPI PUSH2 0x1B26 PUSH2 0x226F JUMP JUMPDEST JUMPDEST DUP2 MSTORE PUSH1 0x20 ADD SWAP1 DUP2 MSTORE PUSH1 0x20 ADD PUSH1 0x0 KECCAK256 DUP1 SLOAD SWAP1 POP SUB PUSH2 0x1B79 JUMPI PUSH1 0x40 MLOAD PUSH32 0x8C379A000000000000000000000000000000000000000000000000000000000 DUP2 MSTORE PUSH1 0x4 ADD PUSH2 0x1B70 SWAP1 PUSH2 0x3485 JUMP JUMPDEST PUSH1 0x40 MLOAD DUP1 SWAP2 SUB SWAP1 REVERT JUMPDEST PUSH1 0x5 PUSH1 0x0 DUP4 PUSH1 0x5 DUP2 GT ISZERO PUSH2 0x1B90 JUMPI PUSH2 0x1B8F PUSH2 0x226F JUMP JUMPDEST JUMPDEST PUSH1 0x5 DUP2 GT ISZERO PUSH2 0x1BA2 JUMPI PUSH2 0x1BA1 PUSH2 0x226F JUMP JUMPDEST JUMPDEST DUP2 MSTORE PUSH1 0x20 ADD SWAP1 DUP2 MSTORE PUSH1 0x20 ADD PUSH1 0x0 KECCAK256 DUP1 SLOAD DUP1 PUSH1 0x20 MUL PUSH1 0x20 ADD PUSH1 0x40 MLOAD SWAP1 DUP2 ADD PUSH1 0x40 MSTORE DUP1 SWAP3 SWAP2 SWAP1 DUP2 DUP2 MSTORE PUSH1 0x20 ADD PUSH1 0x0 SWAP1 JUMPDEST DUP3 DUP3 LT ISZERO PUSH2 0x1C7C JUMPI DUP4 DUP3 SWAP1 PUSH1 0x0 MSTORE PUSH1 0x20 PUSH1 0x0 KECCAK256 ADD DUP1 SLOAD PUSH2 0x1BEF SWAP1 PUSH2 0x2A0C JUMP JUMPDEST DUP1 PUSH1 0x1F ADD PUSH1 0x20 DUP1 SWAP2 DIV MUL PUSH1 0x20 ADD PUSH1 0x40 MLOAD SWAP1 DUP2 ADD PUSH1 0x40 MSTORE DUP1 SWAP3 SWAP2 SWAP1 DUP2 DUP2 MSTORE PUSH1 0x20 ADD DUP3 DUP1 SLOAD PUSH2 0x1C1B SWAP1 PUSH2 0x2A0C JUMP JUMPDEST DUP1 ISZERO PUSH2 0x1C68 JUMPI DUP1 PUSH1 0x1F LT PUSH2 0x1C3D JUMPI PUSH2 0x100 DUP1 DUP4 SLOAD DIV MUL DUP4 MSTORE SWAP2 PUSH1 0x20 ADD SWAP2 PUSH2 0x1C68 JUMP JUMPDEST DUP3 ADD SWAP2 SWAP1 PUSH1 0x0 MSTORE PUSH1 0x20 PUSH1 0x0 KECCAK256 SWAP1 JUMPDEST DUP2 SLOAD DUP2 MSTORE SWAP1 PUSH1 0x1 ADD SWAP1 PUSH1 0x20 ADD DUP1 DUP4 GT PUSH2 0x1C4B JUMPI DUP3 SWAP1 SUB PUSH1 0x1F AND DUP3 ADD SWAP2 JUMPDEST POP POP POP POP POP DUP2 MSTORE PUSH1 0x20 ADD SWAP1 PUSH1 0x1 ADD SWAP1 PUSH2 0x1BD0 JUMP JUMPDEST POP POP POP POP SWAP1 POP SWAP2 SWAP1 POP JUMP JUMPDEST PUSH1 0x60 PUSH1 0x0 PUSH1 0x4 DUP2 GT ISZERO PUSH2 0x1C9D JUMPI PUSH2 0x1C9C PUSH2 0x226F JUMP JUMPDEST JUMPDEST DUP3 PUSH1 0x4 DUP2 GT ISZERO PUSH2 0x1CB0 JUMPI PUSH2 0x1CAF PUSH2 0x226F JUMP JUMPDEST JUMPDEST SUB PUSH2 0x1CF2 JUMPI PUSH1 0x40 MLOAD DUP1 PUSH1 0x40 ADD PUSH1 0x40 MSTORE DUP1 PUSH1 0x4 DUP2 MSTORE PUSH1 0x20 ADD PUSH32 0x4E6F6E6500000000000000000000000000000000000000000000000000000000 DUP2 MSTORE POP SWAP1 POP PUSH2 0x1ED0 JUMP JUMPDEST PUSH1 0x1 PUSH1 0x4 DUP2 GT ISZERO PUSH2 0x1D06 JUMPI PUSH2 0x1D05 PUSH2 0x226F JUMP JUMPDEST JUMPDEST DUP3 PUSH1 0x4 DUP2 GT ISZERO PUSH2 0x1D19 JUMPI PUSH2 0x1D18 PUSH2 0x226F JUMP JUMPDEST JUMPDEST SUB PUSH2 0x1D5B JUMPI PUSH1 0x40 MLOAD DUP1 PUSH1 0x40 ADD PUSH1 0x40 MSTORE DUP1 PUSH1 0x5 DUP2 MSTORE PUSH1 0x20 ADD PUSH32 0x41646D696E000000000000000000000000000000000000000000000000000000 DUP2 MSTORE POP SWAP1 POP PUSH2 0x1ED0 JUMP JUMPDEST PUSH1 0x2 PUSH1 0x4 DUP2 GT ISZERO PUSH2 0x1D6F JUMPI PUSH2 0x1D6E PUSH2 0x226F JUMP JUMPDEST JUMPDEST DUP3 PUSH1 0x4 DUP2 GT ISZERO PUSH2 0x1D82 JUMPI PUSH2 0x1D81 PUSH2 0x226F JUMP JUMPDEST JUMPDEST SUB PUSH2 0x1DC4 JUMPI PUSH1 0x40 MLOAD DUP1 PUSH1 0x40 ADD PUSH1 0x40 MSTORE DUP1 PUSH1 0x8 DUP2 MSTORE PUSH1 0x20 ADD PUSH32 0x537570706C696572000000000000000000000000000000000000000000000000 DUP2 MSTORE POP SWAP1 POP PUSH2 0x1ED0 JUMP JUMPDEST PUSH1 0x3 PUSH1 0x4 DUP2 GT ISZERO PUSH2 0x1DD8 JUMPI PUSH2 0x1DD7 PUSH2 0x226F JUMP JUMPDEST JUMPDEST DUP3 PUSH1 0x4 DUP2 GT ISZERO PUSH2 0x1DEB JUMPI PUSH2 0x1DEA PUSH2 0x226F JUMP JUMPDEST JUMPDEST SUB PUSH2 0x1E2D JUMPI PUSH1 0x40 MLOAD DUP1 PUSH1 0x40 ADD PUSH1 0x40 MSTORE DUP1 PUSH1 0x14 DUP2 MSTORE PUSH1 0x20 ADD PUSH32 0x446973747269627574696F6E456D706C6F796565000000000000000000000000 DUP2 MSTORE POP SWAP1 POP PUSH2 0x1ED0 JUMP JUMPDEST PUSH1 0x4 DUP1 DUP2 GT ISZERO PUSH2 0x1E40 JUMPI PUSH2 0x1E3F PUSH2 0x226F JUMP JUMPDEST JUMPDEST DUP3 PUSH1 0x4 DUP2 GT ISZERO PUSH2 0x1E53 JUMPI PUSH2 0x1E52 PUSH2 0x226F JUMP JUMPDEST JUMPDEST SUB PUSH2 0x1E95 JUMPI PUSH1 0x40 MLOAD DUP1 PUSH1 0x40 ADD PUSH1 0x40 MSTORE DUP1 PUSH1 0x7 DUP2 MSTORE PUSH1 0x20 ADD PUSH32 0x41756469746F7200000000000000000000000000000000000000000000000000 DUP2 MSTORE POP SWAP1 POP PUSH2 0x1ED0 JUMP JUMPDEST PUSH1 0x40 MLOAD PUSH32 0x8C379A000000000000000000000000000000000000000000000000000000000 DUP2 MSTORE PUSH1 0x4 ADD PUSH2 0x1EC7 SWAP1 PUSH2 0x34F1 JUMP JUMPDEST PUSH1 0x40 MLOAD DUP1 SWAP2 SUB SWAP1 REVERT JUMPDEST SWAP2 SWAP1 POP JUMP JUMPDEST PUSH1 0x40 MLOAD DUP1 PUSH1 0x40 ADD PUSH1 0x40 MSTORE DUP1 PUSH1 0x60 DUP2 MSTORE PUSH1 0x20 ADD PUSH1 0x0 PUSH1 0x5 DUP2 GT ISZERO PUSH2 0x1EFB JUMPI PUSH2 0x1EFA PUSH2 0x226F JUMP JUMPDEST JUMPDEST DUP2 MSTORE POP SWAP1 JUMP JUMPDEST POP DUP1 SLOAD PUSH2 0x1F0D SWAP1 PUSH2 0x2A0C JUMP JUMPDEST PUSH1 0x0 DUP3 SSTORE DUP1 PUSH1 0x1F LT PUSH2 0x1F1F JUMPI POP PUSH2 0x1F3E JUMP JUMPDEST PUSH1 0x1F ADD PUSH1 0x20 SWAP1 DIV SWAP1 PUSH1 0x0 MSTORE PUSH1 0x20 PUSH1 0x0 KECCAK256 SWAP1 DUP2 ADD SWAP1 PUSH2 0x1F3D SWAP2 SWAP1 PUSH2 0x1F6D JUMP JUMPDEST JUMPDEST POP JUMP JUMPDEST PUSH1 0x40 MLOAD DUP1 PUSH1 0x40 ADD PUSH1 0x40 MSTORE DUP1 PUSH1 0x60 DUP2 MSTORE PUSH1 0x20 ADD PUSH1 0x0 PUSH1 0x4 DUP2 GT ISZERO PUSH2 0x1F67 JUMPI PUSH2 0x1F66 PUSH2 0x226F JUMP JUMPDEST JUMPDEST DUP2 MSTORE POP SWAP1 JUMP JUMPDEST JUMPDEST DUP1 DUP3 GT ISZERO PUSH2 0x1F86 JUMPI PUSH1 0x0 DUP2 PUSH1 0x0 SWAP1 SSTORE POP PUSH1 0x1 ADD PUSH2 0x1F6E JUMP JUMPDEST POP SWAP1 JUMP JUMPDEST PUSH1 0x0 PUSH1 0x40 MLOAD SWAP1 POP SWAP1 JUMP JUMPDEST PUSH1 0x0 DUP1 REVERT JUMPDEST PUSH1 0x0 DUP1 REVERT JUMPDEST PUSH1 0x0 PUSH20 0xFFFFFFFFFFFFFFFFFFFFFFFFFFFFFFFFFFFFFFFF DUP3 AND SWAP1 POP SWAP2 SWAP1 POP JUMP JUMPDEST PUSH1 0x0 PUSH2 0x1FC9 DUP3 PUSH2 0x1F9E JUMP JUMPDEST SWAP1 POP SWAP2 SWAP1 POP JUMP JUMPDEST PUSH2 0x1FD9 DUP2 PUSH2 0x1FBE JUMP JUMPDEST DUP2 EQ PUSH2 0x1FE4 JUMPI PUSH1 0x0 DUP1 REVERT JUMPDEST POP JUMP JUMPDEST PUSH1 0x0 DUP2 CALLDATALOAD SWAP1 POP PUSH2 0x1FF6 DUP2 PUSH2 0x1FD0 JUMP JUMPDEST SWAP3 SWAP2 POP POP JUMP JUMPDEST PUSH1 0x5 DUP2 LT PUSH2 0x2009 JUMPI PUSH1 0x0 DUP1 REVERT JUMPDEST POP JUMP JUMPDEST PUSH1 0x0 DUP2 CALLDATALOAD SWAP1 POP PUSH2 0x201B DUP2 PUSH2 0x1FFC JUMP JUMPDEST SWAP3 SWAP2 POP POP JUMP JUMPDEST PUSH1 0x0 DUP1 PUSH1 0x40 DUP4 DUP6 SUB SLT ISZERO PUSH2 0x2038 JUMPI PUSH2 0x2037 PUSH2 0x1F94 JUMP JUMPDEST JUMPDEST PUSH1 0x0 PUSH2 0x2046 DUP6 DUP3 DUP7 ADD PUSH2 0x1FE7 JUMP JUMPDEST SWAP3 POP POP PUSH1 0x20 PUSH2 0x2057 DUP6 DUP3 DUP7 ADD PUSH2 0x200C JUMP JUMPDEST SWAP2 POP POP SWAP3 POP SWAP3 SWAP1 POP JUMP JUMPDEST PUSH1 0x0 DUP1 REVERT JUMPDEST PUSH1 0x0 DUP1 REVERT JUMPDEST PUSH1 0x0 PUSH1 0x1F NOT PUSH1 0x1F DUP4 ADD AND SWAP1 POP SWAP2 SWAP1 POP JUMP JUMPDEST PUSH32 0x4E487B7100000000000000000000000000000000000000000000000000000000 PUSH1 0x0 MSTORE PUSH1 0x41 PUSH1 0x4 MSTORE PUSH1 0x24 PUSH1 0x0 REVERT JUMPDEST PUSH2 0x20B4 DUP3 PUSH2 0x206B JUMP JUMPDEST DUP2 ADD DUP2 DUP2 LT PUSH8 0xFFFFFFFFFFFFFFFF DUP3 GT OR ISZERO PUSH2 0x20D3 JUMPI PUSH2 0x20D2 PUSH2 0x207C JUMP JUMPDEST JUMPDEST DUP1 PUSH1 0x40 MSTORE POP POP POP JUMP JUMPDEST PUSH1 0x0 PUSH2 0x20E6 PUSH2 0x1F8A JUMP JUMPDEST SWAP1 POP PUSH2 0x20F2 DUP3 DUP3 PUSH2 0x20AB JUMP JUMPDEST SWAP2 SWAP1 POP JUMP JUMPDEST PUSH1 0x0 PUSH8 0xFFFFFFFFFFFFFFFF DUP3 GT ISZERO PUSH2 0x2112 JUMPI PUSH2 0x2111 PUSH2 0x207C JUMP JUMPDEST JUMPDEST PUSH2 0x211B DUP3 PUSH2 0x206B JUMP JUMPDEST SWAP1 POP PUSH1 0x20 DUP2 ADD SWAP1 POP SWAP2 SWAP1 POP JUMP JUMPDEST DUP3 DUP2 DUP4 CALLDATACOPY PUSH1 0x0 DUP4 DUP4 ADD MSTORE POP POP POP JUMP JUMPDEST PUSH1 0x0 PUSH2 0x214A PUSH2 0x2145 DUP5 PUSH2 0x20F7 JUMP JUMPDEST PUSH2 0x20DC JUMP JUMPDEST SWAP1 POP DUP3 DUP2 MSTORE PUSH1 0x20 DUP2 ADD DUP5 DUP5 DUP5 ADD GT ISZERO PUSH2 0x2166 JUMPI PUSH2 0x2165 PUSH2 0x2066 JUMP JUMPDEST JUMPDEST PUSH2 0x2171 DUP5 DUP3 DUP6 PUSH2 0x2128 JUMP JUMPDEST POP SWAP4 SWAP3 POP POP POP JUMP JUMPDEST PUSH1 0x0 DUP3 PUSH1 0x1F DUP4 ADD SLT PUSH2 0x218E JUMPI PUSH2 0x218D PUSH2 0x2061 JUMP JUMPDEST JUMPDEST DUP2 CALLDATALOAD PUSH2 0x219E DUP5 DUP3 PUSH1 0x20 DUP7 ADD PUSH2 0x2137 JUMP JUMPDEST SWAP2 POP POP SWAP3 SWAP2 POP POP JUMP JUMPDEST PUSH1 0x0 PUSH1 0x20 DUP3 DUP5 SUB SLT ISZERO PUSH2 0x21BD JUMPI PUSH2 0x21BC PUSH2 0x1F94 JUMP JUMPDEST JUMPDEST PUSH1 0x0 DUP3 ADD CALLDATALOAD PUSH8 0xFFFFFFFFFFFFFFFF DUP2 GT ISZERO PUSH2 0x21DB JUMPI PUSH2 0x21DA PUSH2 0x1F99 JUMP JUMPDEST JUMPDEST PUSH2 0x21E7 DUP5 DUP3 DUP6 ADD PUSH2 0x2179 JUMP JUMPDEST SWAP2 POP POP SWAP3 SWAP2 POP POP JUMP JUMPDEST PUSH1 0x0 DUP2 MLOAD SWAP1 POP SWAP2 SWAP1 POP JUMP JUMPDEST PUSH1 0x0 DUP3 DUP3 MSTORE PUSH1 0x20 DUP3 ADD SWAP1 POP SWAP3 SWAP2 POP POP JUMP JUMPDEST PUSH1 0x0 JUMPDEST DUP4 DUP2 LT ISZERO PUSH2 0x222A JUMPI DUP1 DUP3 ADD MLOAD DUP2 DUP5 ADD MSTORE PUSH1 0x20 DUP2 ADD SWAP1 POP PUSH2 0x220F JUMP JUMPDEST PUSH1 0x0 DUP5 DUP5 ADD MSTORE POP POP POP POP JUMP JUMPDEST PUSH1 0x0 PUSH2 0x2241 DUP3 PUSH2 0x21F0 JUMP JUMPDEST PUSH2 0x224B DUP2 DUP6 PUSH2 0x21FB JUMP JUMPDEST SWAP4 POP PUSH2 0x225B DUP2 DUP6 PUSH1 0x20 DUP7 ADD PUSH2 0x220C JUMP JUMPDEST PUSH2 0x2264 DUP2 PUSH2 0x206B JUMP JUMPDEST DUP5 ADD SWAP2 POP POP SWAP3 SWAP2 POP POP JUMP JUMPDEST PUSH32 0x4E487B7100000000000000000000000000000000000000000000000000000000 PUSH1 0x0 MSTORE PUSH1 0x21 PUSH1 0x4 MSTORE PUSH1 0x24 PUSH1 0x0 REVERT JUMPDEST PUSH1 0x6 DUP2 LT PUSH2 0x22AF JUMPI PUSH2 0x22AE PUSH2 0x226F JUMP JUMPDEST JUMPDEST POP JUMP JUMPDEST PUSH1 0x0 DUP2 SWAP1 POP PUSH2 0x22C0 DUP3 PUSH2 0x229E JUMP JUMPDEST SWAP2 SWAP1 POP JUMP JUMPDEST PUSH1 0x0 PUSH2 0x22D0 DUP3 PUSH2 0x22B2 JUMP JUMPDEST SWAP1 POP SWAP2 SWAP1 POP JUMP JUMPDEST PUSH2 0x22E0 DUP2 PUSH2 0x22C5 JUMP JUMPDEST DUP3 MSTORE POP POP JUMP JUMPDEST PUSH1 0x0 PUSH1 0x40 DUP4 ADD PUSH1 0x0 DUP4 ADD MLOAD DUP5 DUP3 SUB PUSH1 0x0 DUP7 ADD MSTORE PUSH2 0x2303 DUP3 DUP3 PUSH2 0x2236 JUMP JUMPDEST SWAP2 POP POP PUSH1 0x20 DUP4 ADD MLOAD PUSH2 0x2318 PUSH1 0x20 DUP7 ADD DUP3 PUSH2 0x22D7 JUMP JUMPDEST POP DUP1 SWAP2 POP POP SWAP3 SWAP2 POP POP JUMP JUMPDEST PUSH1 0x0 PUSH1 0x20 DUP3 ADD SWAP1 POP DUP2 DUP2 SUB PUSH1 0x0 DUP4 ADD MSTORE PUSH2 0x233D DUP2 DUP5 PUSH2 0x22E6 JUMP JUMPDEST SWAP1 POP SWAP3 SWAP2 POP POP JUMP JUMPDEST PUSH1 0x0 DUP1 PUSH1 0x0 PUSH1 0x60 DUP5 DUP7 SUB SLT ISZERO PUSH2 0x235E JUMPI PUSH2 0x235D PUSH2 0x1F94 JUMP JUMPDEST JUMPDEST PUSH1 0x0 PUSH2 0x236C DUP7 DUP3 DUP8 ADD PUSH2 0x1FE7 JUMP JUMPDEST SWAP4 POP POP PUSH1 0x20 DUP5 ADD CALLDATALOAD PUSH8 0xFFFFFFFFFFFFFFFF DUP2 GT ISZERO PUSH2 0x238D JUMPI PUSH2 0x238C PUSH2 0x1F99 JUMP JUMPDEST JUMPDEST PUSH2 0x2399 DUP7 DUP3 DUP8 ADD PUSH2 0x2179 JUMP JUMPDEST SWAP3 POP POP PUSH1 0x40 PUSH2 0x23AA DUP7 DUP3 DUP8 ADD PUSH2 0x200C JUMP JUMPDEST SWAP2 POP POP SWAP3 POP SWAP3 POP SWAP3 JUMP JUMPDEST PUSH1 0x0 DUP2 SWAP1 POP SWAP2 SWAP1 POP JUMP JUMPDEST PUSH2 0x23C7 DUP2 PUSH2 0x23B4 JUMP JUMPDEST DUP2 EQ PUSH2 0x23D2 JUMPI PUSH1 0x0 DUP1 REVERT JUMPDEST POP JUMP JUMPDEST PUSH1 0x0 DUP2 CALLDATALOAD SWAP1 POP PUSH2 0x23E4 DUP2 PUSH2 0x23BE JUMP JUMPDEST SWAP3 SWAP2 POP POP JUMP JUMPDEST PUSH1 0x0 PUSH1 0x20 DUP3 DUP5 SUB SLT ISZERO PUSH2 0x2400 JUMPI PUSH2 0x23FF PUSH2 0x1F94 JUMP JUMPDEST JUMPDEST PUSH1 0x0 PUSH2 0x240E DUP5 DUP3 DUP6 ADD PUSH2 0x23D5 JUMP JUMPDEST SWAP2 POP POP SWAP3 SWAP2 POP POP JUMP JUMPDEST PUSH2 0x2420 DUP2 PUSH2 0x1FBE JUMP JUMPDEST DUP3 MSTORE POP POP JUMP JUMPDEST PUSH1 0x0 PUSH1 0x20 DUP3 ADD SWAP1 POP PUSH2 0x243B PUSH1 0x0 DUP4 ADD DUP5 PUSH2 0x2417 JUMP JUMPDEST SWAP3 SWAP2 POP POP JUMP JUMPDEST PUSH1 0x0 PUSH1 0x20 DUP3 DUP5 SUB SLT ISZERO PUSH2 0x2457 JUMPI PUSH2 0x2456 PUSH2 0x1F94 JUMP JUMPDEST JUMPDEST PUSH1 0x0 PUSH2 0x2465 DUP5 DUP3 DUP6 ADD PUSH2 0x1FE7 JUMP JUMPDEST SWAP2 POP POP SWAP3 SWAP2 POP POP JUMP JUMPDEST PUSH1 0x5 DUP2 LT PUSH2 0x247F JUMPI PUSH2 0x247E PUSH2 0x226F JUMP JUMPDEST JUMPDEST POP JUMP JUMPDEST PUSH1 0x0 DUP2 SWAP1 POP PUSH2 0x2490 DUP3 PUSH2 0x246E JUMP JUMPDEST SWAP2 SWAP1 POP JUMP JUMPDEST PUSH1 0x0 PUSH2 0x24A0 DUP3 PUSH2 0x2482 JUMP JUMPDEST SWAP1 POP SWAP2 SWAP1 POP JUMP JUMPDEST PUSH2 0x24B0 DUP2 PUSH2 0x2495 JUMP JUMPDEST DUP3 MSTORE POP POP JUMP JUMPDEST PUSH1 0x0 PUSH1 0x40 DUP4 ADD PUSH1 0x0 DUP4 ADD MLOAD DUP5 DUP3 SUB PUSH1 0x0 DUP7 ADD MSTORE PUSH2 0x24D3 DUP3 DUP3 PUSH2 0x2236 JUMP JUMPDEST SWAP2 POP POP PUSH1 0x20 DUP4 ADD MLOAD PUSH2 0x24E8 PUSH1 0x20 DUP7 ADD DUP3 PUSH2 0x24A7 JUMP JUMPDEST POP DUP1 SWAP2 POP POP SWAP3 SWAP2 POP POP JUMP JUMPDEST PUSH1 0x0 PUSH1 0x20 DUP3 ADD SWAP1 POP DUP2 DUP2 SUB PUSH1 0x0 DUP4 ADD MSTORE PUSH2 0x250D DUP2 DUP5 PUSH2 0x24B6 JUMP JUMPDEST SWAP1 POP SWAP3 SWAP2 POP POP JUMP JUMPDEST PUSH1 0x0 DUP3 DUP3 MSTORE PUSH1 0x20 DUP3 ADD SWAP1 POP SWAP3 SWAP2 POP POP JUMP JUMPDEST PUSH1 0x0 PUSH2 0x2531 DUP3 PUSH2 0x21F0 JUMP JUMPDEST PUSH2 0x253B DUP2 DUP6 PUSH2 0x2515 JUMP JUMPDEST SWAP4 POP PUSH2 0x254B DUP2 DUP6 PUSH1 0x20 DUP7 ADD PUSH2 0x220C JUMP JUMPDEST PUSH2 0x2554 DUP2 PUSH2 0x206B JUMP JUMPDEST DUP5 ADD SWAP2 POP POP SWAP3 SWAP2 POP POP JUMP JUMPDEST PUSH2 0x2568 DUP2 PUSH2 0x22C5 JUMP JUMPDEST DUP3 MSTORE POP POP JUMP JUMPDEST PUSH1 0x0 PUSH1 0x40 DUP3 ADD SWAP1 POP DUP2 DUP2 SUB PUSH1 0x0 DUP4 ADD MSTORE PUSH2 0x2588 DUP2 DUP6 PUSH2 0x2526 JUMP JUMPDEST SWAP1 POP PUSH2 0x2597 PUSH1 0x20 DUP4 ADD DUP5 PUSH2 0x255F JUMP JUMPDEST SWAP4 SWAP3 POP POP POP JUMP JUMPDEST PUSH1 0x0 PUSH1 0x20 DUP3 ADD SWAP1 POP DUP2 DUP2 SUB PUSH1 0x0 DUP4 ADD MSTORE PUSH2 0x25B8 DUP2 DUP5 PUSH2 0x2526 JUMP JUMPDEST SWAP1 POP SWAP3 SWAP2 POP POP JUMP JUMPDEST PUSH2 0x25C9 DUP2 PUSH2 0x2495 JUMP JUMPDEST DUP3 MSTORE POP POP JUMP JUMPDEST PUSH1 0x0 PUSH1 0x40 DUP3 ADD SWAP1 POP DUP2 DUP2 SUB PUSH1 0x0 DUP4 ADD MSTORE PUSH2 0x25E9 DUP2 DUP6 PUSH2 0x2526 JUMP JUMPDEST SWAP1 POP PUSH2 0x25F8 PUSH1 0x20 DUP4 ADD DUP5 PUSH2 0x25C0 JUMP JUMPDEST SWAP4 SWAP3 POP POP POP JUMP JUMPDEST PUSH1 0x6 DUP2 LT PUSH2 0x260C JUMPI PUSH1 0x0 DUP1 REVERT JUMPDEST POP JUMP JUMPDEST PUSH1 0x0 DUP2 CALLDATALOAD SWAP1 POP PUSH2 0x261E DUP2 PUSH2 0x25FF JUMP JUMPDEST SWAP3 SWAP2 POP POP JUMP JUMPDEST PUSH1 0x0 DUP1 PUSH1 0x40 DUP4 DUP6 SUB SLT ISZERO PUSH2 0x263B JUMPI PUSH2 0x263A PUSH2 0x1F94 JUMP JUMPDEST JUMPDEST PUSH1 0x0 DUP4 ADD CALLDATALOAD PUSH8 0xFFFFFFFFFFFFFFFF DUP2 GT ISZERO PUSH2 0x2659 JUMPI PUSH2 0x2658 PUSH2 0x1F99 JUMP JUMPDEST JUMPDEST PUSH2 0x2665 DUP6 DUP3 DUP7 ADD PUSH2 0x2179 JUMP JUMPDEST SWAP3 POP POP PUSH1 0x20 PUSH2 0x2676 DUP6 DUP3 DUP7 ADD PUSH2 0x260F JUMP JUMPDEST SWAP2 POP POP SWAP3 POP SWAP3 SWAP1 POP JUMP JUMPDEST PUSH1 0x0 DUP2 MLOAD SWAP1 POP SWAP2 SWAP1 POP JUMP JUMPDEST PUSH1 0x0 DUP3 DUP3 MSTORE PUSH1 0x20 DUP3 ADD SWAP1 POP SWAP3 SWAP2 POP POP JUMP JUMPDEST PUSH1 0x0 DUP2 SWAP1 POP PUSH1 0x20 DUP3 ADD SWAP1 POP SWAP2 SWAP1 POP JUMP JUMPDEST PUSH1 0x0 PUSH1 0x40 DUP4 ADD PUSH1 0x0 DUP4 ADD MLOAD DUP5 DUP3 SUB PUSH1 0x0 DUP7 ADD MSTORE PUSH2 0x26C9 DUP3 DUP3 PUSH2 0x2236 JUMP JUMPDEST SWAP2 POP POP PUSH1 0x20 DUP4 ADD MLOAD PUSH2 0x26DE PUSH1 0x20 DUP7 ADD DUP3 PUSH2 0x24A7 JUMP JUMPDEST POP DUP1 SWAP2 POP POP SWAP3 SWAP2 POP POP JUMP JUMPDEST PUSH1 0x0 PUSH2 0x26F5 DUP4 DUP4 PUSH2 0x26AC JUMP JUMPDEST SWAP1 POP SWAP3 SWAP2 POP POP JUMP JUMPDEST PUSH1 0x0 PUSH1 0x20 DUP3 ADD SWAP1 POP SWAP2 SWAP1 POP JUMP JUMPDEST PUSH1 0x0 PUSH2 0x2715 DUP3 PUSH2 0x2680 JUMP JUMPDEST PUSH2 0x271F DUP2 DUP6 PUSH2 0x268B JUMP JUMPDEST SWAP4 POP DUP4 PUSH1 0x20 DUP3 MUL DUP6 ADD PUSH2 0x2731 DUP6 PUSH2 0x269C JUMP JUMPDEST DUP1 PUSH1 0x0 JUMPDEST DUP6 DUP2 LT ISZERO PUSH2 0x276D JUMPI DUP5 DUP5 SUB DUP10 MSTORE DUP2 MLOAD PUSH2 0x274E DUP6 DUP3 PUSH2 0x26E9 JUMP JUMPDEST SWAP5 POP PUSH2 0x2759 DUP4 PUSH2 0x26FD JUMP JUMPDEST SWAP3 POP PUSH1 0x20 DUP11 ADD SWAP10 POP POP PUSH1 0x1 DUP2 ADD SWAP1 POP PUSH2 0x2735 JUMP JUMPDEST POP DUP3 SWAP8 POP DUP8 SWAP6 POP POP POP POP POP POP SWAP3 SWAP2 POP POP JUMP JUMPDEST PUSH1 0x0 PUSH1 0x20 DUP3 ADD SWAP1 POP DUP2 DUP2 SUB PUSH1 0x0 DUP4 ADD MSTORE PUSH2 0x2799 DUP2 DUP5 PUSH2 0x270A JUMP JUMPDEST SWAP1 POP SWAP3 SWAP2 POP POP JUMP JUMPDEST PUSH1 0x0 PUSH1 0x20 DUP3 DUP5 SUB SLT ISZERO PUSH2 0x27B7 JUMPI PUSH2 0x27B6 PUSH2 0x1F94 JUMP JUMPDEST JUMPDEST PUSH1 0x0 PUSH2 0x27C5 DUP5 DUP3 DUP6 ADD PUSH2 0x260F JUMP JUMPDEST SWAP2 POP POP SWAP3 SWAP2 POP POP JUMP JUMPDEST PUSH1 0x0 DUP2 MLOAD SWAP1 POP SWAP2 SWAP1 POP JUMP JUMPDEST PUSH1 0x0 DUP3 DUP3 MSTORE PUSH1 0x20 DUP3 ADD SWAP1 POP SWAP3 SWAP2 POP POP JUMP JUMPDEST PUSH1 0x0 DUP2 SWAP1 POP PUSH1 0x20 DUP3 ADD SWAP1 POP SWAP2 SWAP1 POP JUMP JUMPDEST PUSH1 0x0 PUSH2 0x2806 DUP4 DUP4 PUSH2 0x2236 JUMP JUMPDEST SWAP1 POP SWAP3 SWAP2 POP POP JUMP JUMPDEST PUSH1 0x0 PUSH1 0x20 DUP3 ADD SWAP1 POP SWAP2 SWAP1 POP JUMP JUMPDEST PUSH1 0x0 PUSH2 0x2826 DUP3 PUSH2 0x27CE JUMP JUMPDEST PUSH2 0x2830 DUP2 DUP6 PUSH2 0x27D9 JUMP JUMPDEST SWAP4 POP DUP4 PUSH1 0x20 DUP3 MUL DUP6 ADD PUSH2 0x2842 DUP6 PUSH2 0x27EA JUMP JUMPDEST DUP1 PUSH1 0x0 JUMPDEST DUP6 DUP2 LT ISZERO PUSH2 0x287E JUMPI DUP5 DUP5 SUB DUP10 MSTORE DUP2 MLOAD PUSH2 0x285F DUP6 DUP3 PUSH2 0x27FA JUMP JUMPDEST SWAP5 POP PUSH2 0x286A DUP4 PUSH2 0x280E JUMP JUMPDEST SWAP3 POP PUSH1 0x20 DUP11 ADD SWAP10 POP POP PUSH1 0x1 DUP2 ADD SWAP1 POP PUSH2 0x2846 JUMP JUMPDEST POP DUP3 SWAP8 POP DUP8 SWAP6 POP POP POP POP POP POP SWAP3 SWAP2 POP POP JUMP JUMPDEST PUSH1 0x0 PUSH1 0x20 DUP3 ADD SWAP1 POP DUP2 DUP2 SUB PUSH1 0x0 DUP4 ADD MSTORE PUSH2 0x28AA DUP2 DUP5 PUSH2 0x281B JUMP JUMPDEST SWAP1 POP SWAP3 SWAP2 POP POP JUMP JUMPDEST PUSH32 0x4163636573732064656E6965643A20696E636F727265637420726F6C65000000 PUSH1 0x0 DUP3 ADD MSTORE POP JUMP JUMPDEST PUSH1 0x0 PUSH2 0x28E8 PUSH1 0x1D DUP4 PUSH2 0x2515 JUMP JUMPDEST SWAP2 POP PUSH2 0x28F3 DUP3 PUSH2 0x28B2 JUMP JUMPDEST PUSH1 0x20 DUP3 ADD SWAP1 POP SWAP2 SWAP1 POP JUMP JUMPDEST PUSH1 0x0 PUSH1 0x20 DUP3 ADD SWAP1 POP DUP2 DUP2 SUB PUSH1 0x0 DUP4 ADD MSTORE PUSH2 0x2917 DUP2 PUSH2 0x28DB JUMP JUMPDEST SWAP1 POP SWAP2 SWAP1 POP JUMP JUMPDEST PUSH32 0x496E76616C696420616464726573730000000000000000000000000000000000 PUSH1 0x0 DUP3 ADD MSTORE POP JUMP JUMPDEST PUSH1 0x0 PUSH2 0x2954 PUSH1 0xF DUP4 PUSH2 0x2515 JUMP JUMPDEST SWAP2 POP PUSH2 0x295F DUP3 PUSH2 0x291E JUMP JUMPDEST PUSH1 0x20 DUP3 ADD SWAP1 POP SWAP2 SWAP1 POP JUMP JUMPDEST PUSH1 0x0 PUSH1 0x20 DUP3 ADD SWAP1 POP DUP2 DUP2 SUB PUSH1 0x0 DUP4 ADD MSTORE PUSH2 0x2983 DUP2 PUSH2 0x2947 JUMP JUMPDEST SWAP1 POP SWAP2 SWAP1 POP JUMP JUMPDEST PUSH1 0x0 DUP2 SWAP1 POP SWAP3 SWAP2 POP POP JUMP JUMPDEST PUSH1 0x0 PUSH2 0x29A0 DUP3 PUSH2 0x21F0 JUMP JUMPDEST PUSH2 0x29AA DUP2 DUP6 PUSH2 0x298A JUMP JUMPDEST SWAP4 POP PUSH2 0x29BA DUP2 DUP6 PUSH1 0x20 DUP7 ADD PUSH2 0x220C JUMP JUMPDEST DUP1 DUP5 ADD SWAP2 POP POP SWAP3 SWAP2 POP POP JUMP JUMPDEST PUSH1 0x0 PUSH2 0x29D2 DUP3 DUP5 PUSH2 0x2995 JUMP JUMPDEST SWAP2 POP DUP2 SWAP1 POP SWAP3 SWAP2 POP POP JUMP JUMPDEST PUSH32 0x4E487B7100000000000000000000000000000000000000000000000000000000 PUSH1 0x0 MSTORE PUSH1 0x22 PUSH1 0x4 MSTORE PUSH1 0x24 PUSH1 0x0 REVERT JUMPDEST PUSH1 0x0 PUSH1 0x2 DUP3 DIV SWAP1 POP PUSH1 0x1 DUP3 AND DUP1 PUSH2 0x2A24 JUMPI PUSH1 0x7F DUP3 AND SWAP2 POP JUMPDEST PUSH1 0x20 DUP3 LT DUP2 SUB PUSH2 0x2A37 JUMPI PUSH2 0x2A36 PUSH2 0x29DD JUMP JUMPDEST JUMPDEST POP SWAP2 SWAP1 POP JUMP JUMPDEST PUSH32 0x456E7469747920646F6573206E6F742065786973740000000000000000000000 PUSH1 0x0 DUP3 ADD MSTORE POP JUMP JUMPDEST PUSH1 0x0 PUSH2 0x2A73 PUSH1 0x15 DUP4 PUSH2 0x2515 JUMP JUMPDEST SWAP2 POP PUSH2 0x2A7E DUP3 PUSH2 0x2A3D JUMP JUMPDEST PUSH1 0x20 DUP3 ADD SWAP1 POP SWAP2 SWAP1 POP JUMP JUMPDEST PUSH1 0x0 PUSH1 0x20 DUP3 ADD SWAP1 POP DUP2 DUP2 SUB PUSH1 0x0 DUP4 ADD MSTORE PUSH2 0x2AA2 DUP2 PUSH2 0x2A66 JUMP JUMPDEST SWAP1 POP SWAP2 SWAP1 POP JUMP JUMPDEST PUSH32 0x496E76616C696420616464726573732100000000000000000000000000000000 PUSH1 0x0 DUP3 ADD MSTORE POP JUMP JUMPDEST PUSH1 0x0 PUSH2 0x2ADF PUSH1 0x10 DUP4 PUSH2 0x2515 JUMP JUMPDEST SWAP2 POP PUSH2 0x2AEA DUP3 PUSH2 0x2AA9 JUMP JUMPDEST PUSH1 0x20 DUP3 ADD SWAP1 POP SWAP2 SWAP1 POP JUMP JUMPDEST PUSH1 0x0 PUSH1 0x20 DUP3 ADD SWAP1 POP DUP2 DUP2 SUB PUSH1 0x0 DUP4 ADD MSTORE PUSH2 0x2B0E DUP2 PUSH2 0x2AD2 JUMP JUMPDEST SWAP1 POP SWAP2 SWAP1 POP JUMP JUMPDEST PUSH1 0x0 DUP2 SWAP1 POP DUP2 PUSH1 0x0 MSTORE PUSH1 0x20 PUSH1 0x0 KECCAK256 SWAP1 POP SWAP2 SWAP1 POP JUMP JUMPDEST PUSH1 0x0 PUSH1 0x20 PUSH1 0x1F DUP4 ADD DIV SWAP1 POP SWAP2 SWAP1 POP JUMP JUMPDEST PUSH1 0x0 DUP3 DUP3 SHL SWAP1 POP SWAP3 SWAP2 POP POP JUMP JUMPDEST PUSH1 0x0 PUSH1 0x8 DUP4 MUL PUSH2 0x2B77 PUSH32 0xFFFFFFFFFFFFFFFFFFFFFFFFFFFFFFFFFFFFFFFFFFFFFFFFFFFFFFFFFFFFFFFF DUP3 PUSH2 0x2B3A JUMP JUMPDEST PUSH2 0x2B81 DUP7 DUP4 PUSH2 0x2B3A JUMP JUMPDEST SWAP6 POP DUP1 NOT DUP5 AND SWAP4 POP DUP1 DUP7 AND DUP5 OR SWAP3 POP POP POP SWAP4 SWAP3 POP POP POP JUMP JUMPDEST PUSH1 0x0 DUP2 SWAP1 POP SWAP2 SWAP1 POP JUMP JUMPDEST PUSH1 0x0 PUSH2 0x2BBE PUSH2 0x2BB9 PUSH2 0x2BB4 DUP5 PUSH2 0x23B4 JUMP JUMPDEST PUSH2 0x2B99 JUMP JUMPDEST PUSH2 0x23B4 JUMP JUMPDEST SWAP1 POP SWAP2 SWAP1 POP JUMP JUMPDEST PUSH1 0x0 DUP2 SWAP1 POP SWAP2 SWAP1 POP JUMP JUMPDEST PUSH2 0x2BD8 DUP4 PUSH2 0x2BA3 JUMP JUMPDEST PUSH2 0x2BEC PUSH2 0x2BE4 DUP3 PUSH2 0x2BC5 JUMP JUMPDEST DUP5 DUP5 SLOAD PUSH2 0x2B47 JUMP JUMPDEST DUP3 SSTORE POP POP POP POP JUMP JUMPDEST PUSH1 0x0 SWAP1 JUMP JUMPDEST PUSH2 0x2C01 PUSH2 0x2BF4 JUMP JUMPDEST PUSH2 0x2C0C DUP2 DUP5 DUP5 PUSH2 0x2BCF JUMP JUMPDEST POP POP POP JUMP JUMPDEST JUMPDEST DUP2 DUP2 LT ISZERO PUSH2 0x2C30 JUMPI PUSH2 0x2C25 PUSH1 0x0 DUP3 PUSH2 0x2BF9 JUMP JUMPDEST PUSH1 0x1 DUP2 ADD SWAP1 POP PUSH2 0x2C12 JUMP JUMPDEST POP POP JUMP JUMPDEST PUSH1 0x1F DUP3 GT ISZERO PUSH2 0x2C75 JUMPI PUSH2 0x2C46 DUP2 PUSH2 0x2B15 JUMP JUMPDEST PUSH2 0x2C4F DUP5 PUSH2 0x2B2A JUMP JUMPDEST DUP2 ADD PUSH1 0x20 DUP6 LT ISZERO PUSH2 0x2C5E JUMPI DUP2 SWAP1 POP JUMPDEST PUSH2 0x2C72 PUSH2 0x2C6A DUP6 PUSH2 0x2B2A JUMP JUMPDEST DUP4 ADD DUP3 PUSH2 0x2C11 JUMP JUMPDEST POP POP JUMPDEST POP POP POP JUMP JUMPDEST PUSH1 0x0 DUP3 DUP3 SHR SWAP1 POP SWAP3 SWAP2 POP POP JUMP JUMPDEST PUSH1 0x0 PUSH2 0x2C98 PUSH1 0x0 NOT DUP5 PUSH1 0x8 MUL PUSH2 0x2C7A JUMP JUMPDEST NOT DUP1 DUP4 AND SWAP2 POP POP SWAP3 SWAP2 POP POP JUMP JUMPDEST PUSH1 0x0 PUSH2 0x2CB1 DUP4 DUP4 PUSH2 0x2C87 JUMP JUMPDEST SWAP2 POP DUP3 PUSH1 0x2 MUL DUP3 OR SWAP1 POP SWAP3 SWAP2 POP POP JUMP JUMPDEST PUSH2 0x2CCA DUP3 PUSH2 0x21F0 JUMP JUMPDEST PUSH8 0xFFFFFFFFFFFFFFFF DUP2 GT ISZERO PUSH2 0x2CE3 JUMPI PUSH2 0x2CE2 PUSH2 0x207C JUMP JUMPDEST JUMPDEST PUSH2 0x2CED DUP3 SLOAD PUSH2 0x2A0C JUMP JUMPDEST PUSH2 0x2CF8 DUP3 DUP3 DUP6 PUSH2 0x2C34 JUMP JUMPDEST PUSH1 0x0 PUSH1 0x20 SWAP1 POP PUSH1 0x1F DUP4 GT PUSH1 0x1 DUP2 EQ PUSH2 0x2D2B JUMPI PUSH1 0x0 DUP5 ISZERO PUSH2 0x2D19 JUMPI DUP3 DUP8 ADD MLOAD SWAP1 POP JUMPDEST PUSH2 0x2D23 DUP6 DUP3 PUSH2 0x2CA5 JUMP JUMPDEST DUP7 SSTORE POP PUSH2 0x2D8B JUMP JUMPDEST PUSH1 0x1F NOT DUP5 AND PUSH2 0x2D39 DUP7 PUSH2 0x2B15 JUMP JUMPDEST PUSH1 0x0 JUMPDEST DUP3 DUP2 LT ISZERO PUSH2 0x2D61 JUMPI DUP5 DUP10 ADD MLOAD DUP3 SSTORE PUSH1 0x1 DUP3 ADD SWAP2 POP PUSH1 0x20 DUP6 ADD SWAP5 POP PUSH1 0x20 DUP2 ADD SWAP1 POP PUSH2 0x2D3C JUMP JUMPDEST DUP7 DUP4 LT ISZERO PUSH2 0x2D7E JUMPI DUP5 DUP10 ADD MLOAD PUSH2 0x2D7A PUSH1 0x1F DUP10 AND DUP3 PUSH2 0x2C87 JUMP JUMPDEST DUP4 SSTORE POP JUMPDEST PUSH1 0x1 PUSH1 0x2 DUP9 MUL ADD DUP9 SSTORE POP POP POP JUMPDEST POP POP POP POP POP POP JUMP JUMPDEST PUSH32 0x55736572206164646564207375636365737366756C6C79210000000000000000 PUSH1 0x0 DUP3 ADD MSTORE POP JUMP JUMPDEST PUSH1 0x0 PUSH2 0x2DC9 PUSH1 0x18 DUP4 PUSH2 0x2515 JUMP JUMPDEST SWAP2 POP PUSH2 0x2DD4 DUP3 PUSH2 0x2D93 JUMP JUMPDEST PUSH1 0x20 DUP3 ADD SWAP1 POP SWAP2 SWAP1 POP JUMP JUMPDEST PUSH1 0x0 PUSH1 0x60 DUP3 ADD SWAP1 POP DUP2 DUP2 SUB PUSH1 0x0 DUP4 ADD MSTORE PUSH2 0x2DF8 DUP2 PUSH2 0x2DBC JUMP JUMPDEST SWAP1 POP DUP2 DUP2 SUB PUSH1 0x20 DUP4 ADD MSTORE PUSH2 0x2E0C DUP2 DUP6 PUSH2 0x2526 JUMP JUMPDEST SWAP1 POP DUP2 DUP2 SUB PUSH1 0x40 DUP4 ADD MSTORE PUSH2 0x2E20 DUP2 DUP5 PUSH2 0x2526 JUMP JUMPDEST SWAP1 POP SWAP4 SWAP3 POP POP POP JUMP JUMPDEST PUSH32 0x4E487B7100000000000000000000000000000000000000000000000000000000 PUSH1 0x0 MSTORE PUSH1 0x32 PUSH1 0x4 MSTORE PUSH1 0x24 PUSH1 0x0 REVERT JUMPDEST PUSH32 0x4E487B7100000000000000000000000000000000000000000000000000000000 PUSH1 0x0 MSTORE PUSH1 0x11 PUSH1 0x4 MSTORE PUSH1 0x24 PUSH1 0x0 REVERT JUMPDEST PUSH1 0x0 PUSH2 0x2E92 DUP3 PUSH2 0x23B4 JUMP JUMPDEST SWAP2 POP PUSH2 0x2E9D DUP4 PUSH2 0x23B4 JUMP JUMPDEST SWAP3 POP DUP3 DUP3 SUB SWAP1 POP DUP2 DUP2 GT ISZERO PUSH2 0x2EB5 JUMPI PUSH2 0x2EB4 PUSH2 0x2E58 JUMP JUMPDEST JUMPDEST SWAP3 SWAP2 POP POP JUMP JUMPDEST PUSH32 0x4E487B7100000000000000000000000000000000000000000000000000000000 PUSH1 0x0 MSTORE PUSH1 0x31 PUSH1 0x4 MSTORE PUSH1 0x24 PUSH1 0x0 REVERT JUMPDEST PUSH1 0x0 PUSH2 0x2EF5 DUP3 PUSH2 0x23B4 JUMP JUMPDEST SWAP2 POP PUSH32 0xFFFFFFFFFFFFFFFFFFFFFFFFFFFFFFFFFFFFFFFFFFFFFFFFFFFFFFFFFFFFFFFF DUP3 SUB PUSH2 0x2F27 JUMPI PUSH2 0x2F26 PUSH2 0x2E58 JUMP JUMPDEST JUMPDEST PUSH1 0x1 DUP3 ADD SWAP1 POP SWAP2 SWAP1 POP JUMP JUMPDEST PUSH32 0x557365722064656C65746564207375636365737366756C6C7921000000000000 PUSH1 0x0 DUP3 ADD MSTORE POP JUMP JUMPDEST PUSH1 0x0 PUSH2 0x2F68 PUSH1 0x1A DUP4 PUSH2 0x2515 JUMP JUMPDEST SWAP2 POP PUSH2 0x2F73 DUP3 PUSH2 0x2F32 JUMP JUMPDEST PUSH1 0x20 DUP3 ADD SWAP1 POP SWAP2 SWAP1 POP JUMP JUMPDEST PUSH1 0x0 PUSH1 0x60 DUP3 ADD SWAP1 POP DUP2 DUP2 SUB PUSH1 0x0 DUP4 ADD MSTORE PUSH2 0x2F97 DUP2 PUSH2 0x2F5B JUMP JUMPDEST SWAP1 POP DUP2 DUP2 SUB PUSH1 0x20 DUP4 ADD MSTORE PUSH2 0x2FAB DUP2 DUP6 PUSH2 0x2526 JUMP JUMPDEST SWAP1 POP DUP2 DUP2 SUB PUSH1 0x40 DUP4 ADD MSTORE PUSH2 0x2FBF DUP2 DUP5 PUSH2 0x2526 JUMP JUMPDEST SWAP1 POP SWAP4 SWAP3 POP POP POP JUMP JUMPDEST PUSH1 0x0 DUP2 SWAP1 POP SWAP3 SWAP2 POP POP JUMP JUMPDEST PUSH1 0x0 DUP2 SWAP1 POP DUP2 PUSH1 0x0 MSTORE PUSH1 0x20 PUSH1 0x0 KECCAK256 SWAP1 POP SWAP2 SWAP1 POP JUMP JUMPDEST PUSH1 0x0 DUP2 SLOAD PUSH2 0x2FF5 DUP2 PUSH2 0x2A0C JUMP JUMPDEST PUSH2 0x2FFF DUP2 DUP7 PUSH2 0x2FC8 JUMP JUMPDEST SWAP5 POP PUSH1 0x1 DUP3 AND PUSH1 0x0 DUP2 EQ PUSH2 0x301A JUMPI PUSH1 0x1 DUP2 EQ PUSH2 0x302F JUMPI PUSH2 0x3062 JUMP JUMPDEST PUSH1 0xFF NOT DUP4 AND DUP7 MSTORE DUP2 ISZERO ISZERO DUP3 MUL DUP7 ADD SWAP4 POP PUSH2 0x3062 JUMP JUMPDEST PUSH2 0x3038 DUP6 PUSH2 0x2FD3 JUMP JUMPDEST PUSH1 0x0 JUMPDEST DUP4 DUP2 LT ISZERO PUSH2 0x305A JUMPI DUP2 SLOAD DUP2 DUP10 ADD MSTORE PUSH1 0x1 DUP3 ADD SWAP2 POP PUSH1 0x20 DUP2 ADD SWAP1 POP PUSH2 0x303B JUMP JUMPDEST DUP4 DUP9 ADD SWAP6 POP POP POP JUMPDEST POP POP POP SWAP3 SWAP2 POP POP JUMP JUMPDEST PUSH1 0x0 PUSH2 0x3077 DUP3 DUP5 PUSH2 0x2FE8 JUMP JUMPDEST SWAP2 POP DUP2 SWAP1 POP SWAP3 SWAP2 POP POP JUMP JUMPDEST PUSH1 0x0 DUP2 SLOAD SWAP1 POP PUSH2 0x3091 DUP2 PUSH2 0x2A0C JUMP JUMPDEST SWAP1 POP SWAP2 SWAP1 POP JUMP JUMPDEST PUSH1 0x0 DUP2 SWAP1 POP DUP2 PUSH1 0x0 MSTORE PUSH1 0x20 PUSH1 0x0 KECCAK256 SWAP1 POP SWAP2 SWAP1 POP JUMP JUMPDEST DUP2 DUP2 SUB PUSH2 0x30BB JUMPI POP POP PUSH2 0x3193 JUMP JUMPDEST PUSH2 0x30C4 DUP3 PUSH2 0x3082 JUMP JUMPDEST PUSH8 0xFFFFFFFFFFFFFFFF DUP2 GT ISZERO PUSH2 0x30DD JUMPI PUSH2 0x30DC PUSH2 0x207C JUMP JUMPDEST JUMPDEST PUSH2 0x30E7 DUP3 SLOAD PUSH2 0x2A0C JUMP JUMPDEST PUSH2 0x30F2 DUP3 DUP3 DUP6 PUSH2 0x2C34 JUMP JUMPDEST PUSH1 0x0 PUSH1 0x1F DUP4 GT PUSH1 0x1 DUP2 EQ PUSH2 0x3121 JUMPI PUSH1 0x0 DUP5 ISZERO PUSH2 0x310F JUMPI DUP3 DUP8 ADD SLOAD SWAP1 POP JUMPDEST PUSH2 0x3119 DUP6 DUP3 PUSH2 0x2CA5 JUMP JUMPDEST DUP7 SSTORE POP PUSH2 0x318C JUMP JUMPDEST PUSH1 0x1F NOT DUP5 AND PUSH2 0x312F DUP8 PUSH2 0x3098 JUMP JUMPDEST SWAP7 POP PUSH2 0x313A DUP7 PUSH2 0x2B15 JUMP JUMPDEST PUSH1 0x0 JUMPDEST DUP3 DUP2 LT ISZERO PUSH2 0x3162 JUMPI DUP5 DUP10 ADD SLOAD DUP3 SSTORE PUSH1 0x1 DUP3 ADD SWAP2 POP PUSH1 0x1 DUP6 ADD SWAP5 POP PUSH1 0x20 DUP2 ADD SWAP1 POP PUSH2 0x313D JUMP JUMPDEST DUP7 DUP4 LT ISZERO PUSH2 0x317F JUMPI DUP5 DUP10 ADD SLOAD PUSH2 0x317B PUSH1 0x1F DUP10 AND DUP3 PUSH2 0x2C87 JUMP JUMPDEST DUP4 SSTORE POP JUMPDEST PUSH1 0x1 PUSH1 0x2 DUP9 MUL ADD DUP9 SSTORE POP POP POP JUMPDEST POP POP POP POP POP POP JUMPDEST JUMP JUMPDEST PUSH32 0x456E746974792064656C65746564207375636365737366756C6C792100000000 PUSH1 0x0 DUP3 ADD MSTORE POP JUMP JUMPDEST PUSH1 0x0 PUSH2 0x31CB PUSH1 0x1C DUP4 PUSH2 0x2515 JUMP JUMPDEST SWAP2 POP PUSH2 0x31D6 DUP3 PUSH2 0x3195 JUMP JUMPDEST PUSH1 0x20 DUP3 ADD SWAP1 POP SWAP2 SWAP1 POP JUMP JUMPDEST PUSH1 0x0 PUSH1 0x60 DUP3 ADD SWAP1 POP DUP2 DUP2 SUB PUSH1 0x0 DUP4 ADD MSTORE PUSH2 0x31FA DUP2 PUSH2 0x31BE JUMP JUMPDEST SWAP1 POP DUP2 DUP2 SUB PUSH1 0x20 DUP4 ADD MSTORE PUSH2 0x320E DUP2 DUP6 PUSH2 0x2526 JUMP JUMPDEST SWAP1 POP PUSH2 0x321D PUSH1 0x40 DUP4 ADD DUP5 PUSH2 0x255F JUMP JUMPDEST SWAP4 SWAP3 POP POP POP JUMP JUMPDEST PUSH32 0x4F6E6C7920636F6E7472616374206F776E65722063616E2063616C6C20746869 PUSH1 0x0 DUP3 ADD MSTORE PUSH32 0x732066756E6374696F6E00000000000000000000000000000000000000000000 PUSH1 0x20 DUP3 ADD MSTORE POP JUMP JUMPDEST PUSH1 0x0 PUSH2 0x3280 PUSH1 0x2A DUP4 PUSH2 0x2515 JUMP JUMPDEST SWAP2 POP PUSH2 0x328B DUP3 PUSH2 0x3224 JUMP JUMPDEST PUSH1 0x40 DUP3 ADD SWAP1 POP SWAP2 SWAP1 POP JUMP JUMPDEST PUSH1 0x0 PUSH1 0x20 DUP3 ADD SWAP1 POP DUP2 DUP2 SUB PUSH1 0x0 DUP4 ADD MSTORE PUSH2 0x32AF DUP2 PUSH2 0x3273 JUMP JUMPDEST SWAP1 POP SWAP2 SWAP1 POP JUMP JUMPDEST PUSH32 0x4F776E6572206368616E676564207375636365737366756C6C79210000000000 PUSH1 0x0 DUP3 ADD MSTORE POP JUMP JUMPDEST PUSH1 0x0 PUSH2 0x32EC PUSH1 0x1B DUP4 PUSH2 0x2515 JUMP JUMPDEST SWAP2 POP PUSH2 0x32F7 DUP3 PUSH2 0x32B6 JUMP JUMPDEST PUSH1 0x20 DUP3 ADD SWAP1 POP SWAP2 SWAP1 POP JUMP JUMPDEST PUSH1 0x0 PUSH1 0x60 DUP3 ADD SWAP1 POP DUP2 DUP2 SUB PUSH1 0x0 DUP4 ADD MSTORE PUSH2 0x331B DUP2 PUSH2 0x32DF JUMP JUMPDEST SWAP1 POP PUSH2 0x332A PUSH1 0x20 DUP4 ADD DUP6 PUSH2 0x2417 JUMP JUMPDEST PUSH2 0x3337 PUSH1 0x40 DUP4 ADD DUP5 PUSH2 0x2417 JUMP JUMPDEST SWAP4 SWAP3 POP POP POP JUMP JUMPDEST PUSH32 0x456E74697479206E616D6520616C726561647920657869737473000000000000 PUSH1 0x0 DUP3 ADD MSTORE POP JUMP JUMPDEST PUSH1 0x0 PUSH2 0x3374 PUSH1 0x1A DUP4 PUSH2 0x2515 JUMP JUMPDEST SWAP2 POP PUSH2 0x337F DUP3 PUSH2 0x333E JUMP JUMPDEST PUSH1 0x20 DUP3 ADD SWAP1 POP SWAP2 SWAP1 POP JUMP JUMPDEST PUSH1 0x0 PUSH1 0x20 DUP3 ADD SWAP1 POP DUP2 DUP2 SUB PUSH1 0x0 DUP4 ADD MSTORE PUSH2 0x33A3 DUP2 PUSH2 0x3367 JUMP JUMPDEST SWAP1 POP SWAP2 SWAP1 POP JUMP JUMPDEST PUSH32 0x4E657720656E7469747920616464656421000000000000000000000000000000 PUSH1 0x0 DUP3 ADD MSTORE POP JUMP JUMPDEST PUSH1 0x0 PUSH2 0x33E0 PUSH1 0x11 DUP4 PUSH2 0x2515 JUMP JUMPDEST SWAP2 POP PUSH2 0x33EB DUP3 PUSH2 0x33AA JUMP JUMPDEST PUSH1 0x20 DUP3 ADD SWAP1 POP SWAP2 SWAP1 POP JUMP JUMPDEST PUSH1 0x0 PUSH1 0x60 DUP3 ADD SWAP1 POP DUP2 DUP2 SUB PUSH1 0x0 DUP4 ADD MSTORE PUSH2 0x340F DUP2 PUSH2 0x33D3 JUMP JUMPDEST SWAP1 POP DUP2 DUP2 SUB PUSH1 0x20 DUP4 ADD MSTORE PUSH2 0x3423 DUP2 DUP6 PUSH2 0x2526 JUMP JUMPDEST SWAP1 POP PUSH2 0x3432 PUSH1 0x40 DUP4 ADD DUP5 PUSH2 0x255F JUMP JUMPDEST SWAP4 SWAP3 POP POP POP JUMP JUMPDEST PUSH32 0x456E74697479207479706520646F6573206E6F74206578697374000000000000 PUSH1 0x0 DUP3 ADD MSTORE POP JUMP JUMPDEST PUSH1 0x0 PUSH2 0x346F PUSH1 0x1A DUP4 PUSH2 0x2515 JUMP JUMPDEST SWAP2 POP PUSH2 0x347A DUP3 PUSH2 0x3439 JUMP JUMPDEST PUSH1 0x20 DUP3 ADD SWAP1 POP SWAP2 SWAP1 POP JUMP JUMPDEST PUSH1 0x0 PUSH1 0x20 DUP3 ADD SWAP1 POP DUP2 DUP2 SUB PUSH1 0x0 DUP4 ADD MSTORE PUSH2 0x349E DUP2 PUSH2 0x3462 JUMP JUMPDEST SWAP1 POP SWAP2 SWAP1 POP JUMP JUMPDEST PUSH32 0x496E76616C696420526F6C650000000000000000000000000000000000000000 PUSH1 0x0 DUP3 ADD MSTORE POP JUMP JUMPDEST PUSH1 0x0 PUSH2 0x34DB PUSH1 0xC DUP4 PUSH2 0x2515 JUMP JUMPDEST SWAP2 POP PUSH2 0x34E6 DUP3 PUSH2 0x34A5 JUMP JUMPDEST PUSH1 0x20 DUP3 ADD SWAP1 POP SWAP2 SWAP1 POP JUMP JUMPDEST PUSH1 0x0 PUSH1 0x20 DUP3 ADD SWAP1 POP DUP2 DUP2 SUB PUSH1 0x0 DUP4 ADD MSTORE PUSH2 0x350A DUP2 PUSH2 0x34CE JUMP JUMPDEST SWAP1 POP SWAP2 SWAP1 POP JUMP INVALID LOG2 PUSH5 0x6970667358 0x22 SLT KECCAK256 0x2B 0xCD PUSH26 0x413BBC63EA88301A7BD64ACDD13FA7E3CB92D88E7E852CC3246A PUSH26 0x6FF464736F6C6343000813003300000000000000000000000000 "
		},
		"gasEstimates": {
			"creation": {
				"codeDepositCost": "2727800",
				"executionCost": "infinite",
				"totalCost": "infinite"
			},
			"external": {
				"addEntity(string,uint8)": "infinite",
				"addUser(address,string,uint8)": "infinite",
				"changeOwner(address)": "infinite",
				"contractAuthor()": "infinite",
				"deleteEntity(string)": "infinite",
				"deleteUser(address)": "infinite",
				"entities(string)": "infinite",
				"getAllUsers()": "infinite",
				"getEntitiesByType(uint8)": "infinite",
				"getEntityByName(string)": "infinite",
				"getUserByAddress(address)": "infinite",
				"owner()": "2578",
				"setUserRole(address,uint8)": "27338",
				"userAddresses(uint256)": "4979",
				"users(address)": "infinite"
			},
			"internal": {
				"entityTypeToString(enum Main.EntityType)": "infinite",
				"roleToString(enum Main.Role)": "infinite"
			}
		},
		"methodIdentifiers": {
			"addEntity(string,uint8)": "b237046e",
			"addUser(address,string,uint8)": "40d26854",
			"changeOwner(address)": "a6f9dae1",
			"contractAuthor()": "734e1ac3",
			"deleteEntity(string)": "6d960bc3",
			"deleteUser(address)": "5c60f226",
			"entities(string)": "706ced5b",
			"getAllUsers()": "e2842d79",
			"getEntitiesByType(uint8)": "f61af8ab",
			"getEntityByName(string)": "3e88a4e2",
			"getUserByAddress(address)": "69c212f6",
			"owner()": "8da5cb5b",
			"setUserRole(address,uint8)": "03a69611",
			"userAddresses(uint256)": "502c9bd5",
			"users(address)": "a87430ba"
		}
	},
	"abi": [
		{
			"inputs": [],
			"stateMutability": "nonpayable",
			"type": "constructor"
		},
		{
			"anonymous": false,
			"inputs": [
				{
					"indexed": false,
					"internalType": "string",
					"name": "description",
					"type": "string"
				},
				{
					"indexed": false,
					"internalType": "string",
					"name": "name",
					"type": "string"
				},
				{
					"indexed": false,
					"internalType": "enum Main.EntityType",
					"name": "entityType",
					"type": "uint8"
				}
			],
			"name": "EntityAdded",
			"type": "event"
		},
		{
			"anonymous": false,
			"inputs": [
				{
					"indexed": false,
					"internalType": "string",
					"name": "description",
					"type": "string"
				},
				{
					"indexed": false,
					"internalType": "string",
					"name": "name",
					"type": "string"
				},
				{
					"indexed": false,
					"internalType": "enum Main.EntityType",
					"name": "entityType",
					"type": "uint8"
				}
			],
			"name": "EntityDeleted",
			"type": "event"
		},
		{
			"anonymous": false,
			"inputs": [
				{
					"indexed": false,
					"internalType": "string",
					"name": "description",
					"type": "string"
				},
				{
					"indexed": false,
					"internalType": "address",
					"name": "currentOwner",
					"type": "address"
				},
				{
					"indexed": false,
					"internalType": "address",
					"name": "newOwner",
					"type": "address"
				}
			],
			"name": "OwnerChanged",
			"type": "event"
		},
		{
			"anonymous": false,
			"inputs": [
				{
					"indexed": false,
					"internalType": "string",
					"name": "description",
					"type": "string"
				},
				{
					"indexed": true,
					"internalType": "address",
					"name": "userAddress",
					"type": "address"
				},
				{
					"indexed": false,
					"internalType": "string",
					"name": "name",
					"type": "string"
				},
				{
					"indexed": false,
					"internalType": "string",
					"name": "role",
					"type": "string"
				}
			],
			"name": "UserAdded",
			"type": "event"
		},
		{
			"anonymous": false,
			"inputs": [
				{
					"indexed": false,
					"internalType": "string",
					"name": "description",
					"type": "string"
				},
				{
					"indexed": true,
					"internalType": "address",
					"name": "userAddress",
					"type": "address"
				},
				{
					"indexed": false,
					"internalType": "string",
					"name": "name",
					"type": "string"
				},
				{
					"indexed": false,
					"internalType": "string",
					"name": "role",
					"type": "string"
				}
			],
			"name": "UserDeleted",
			"type": "event"
		},
		{
			"inputs": [
				{
					"internalType": "string",
					"name": "name",
					"type": "string"
				},
				{
					"internalType": "enum Main.EntityType",
					"name": "entityType",
					"type": "uint8"
				}
			],
			"name": "addEntity",
			"outputs": [],
			"stateMutability": "nonpayable",
			"type": "function"
		},
		{
			"inputs": [
				{
					"internalType": "address",
					"name": "_userAddress",
					"type": "address"
				},
				{
					"internalType": "string",
					"name": "_name",
					"type": "string"
				},
				{
					"internalType": "enum Main.Role",
					"name": "_role",
					"type": "uint8"
				}
			],
			"name": "addUser",
			"outputs": [],
			"stateMutability": "nonpayable",
			"type": "function"
		},
		{
			"inputs": [
				{
					"internalType": "address",
					"name": "newOwner",
					"type": "address"
				}
			],
			"name": "changeOwner",
			"outputs": [],
			"stateMutability": "nonpayable",
			"type": "function"
		},
		{
			"inputs": [],
			"name": "contractAuthor",
			"outputs": [
				{
					"internalType": "string",
					"name": "",
					"type": "string"
				}
			],
			"stateMutability": "view",
			"type": "function"
		},
		{
			"inputs": [
				{
					"internalType": "string",
					"name": "_name",
					"type": "string"
				}
			],
			"name": "deleteEntity",
			"outputs": [],
			"stateMutability": "nonpayable",
			"type": "function"
		},
		{
			"inputs": [
				{
					"internalType": "address",
					"name": "_userAddress",
					"type": "address"
				}
			],
			"name": "deleteUser",
			"outputs": [],
			"stateMutability": "nonpayable",
			"type": "function"
		},
		{
			"inputs": [
				{
					"internalType": "string",
					"name": "",
					"type": "string"
				}
			],
			"name": "entities",
			"outputs": [
				{
					"internalType": "string",
					"name": "name",
					"type": "string"
				},
				{
					"internalType": "enum Main.EntityType",
					"name": "entityType",
					"type": "uint8"
				}
			],
			"stateMutability": "view",
			"type": "function"
		},
		{
			"inputs": [],
			"name": "getAllUsers",
			"outputs": [
				{
					"components": [
						{
							"internalType": "string",
							"name": "name",
							"type": "string"
						},
						{
							"internalType": "enum Main.Role",
							"name": "role",
							"type": "uint8"
						}
					],
					"internalType": "struct Main.User[]",
					"name": "",
					"type": "tuple[]"
				}
			],
			"stateMutability": "view",
			"type": "function"
		},
		{
			"inputs": [
				{
					"internalType": "enum Main.EntityType",
					"name": "entityType",
					"type": "uint8"
				}
			],
			"name": "getEntitiesByType",
			"outputs": [
				{
					"internalType": "string[]",
					"name": "",
					"type": "string[]"
				}
			],
			"stateMutability": "view",
			"type": "function"
		},
		{
			"inputs": [
				{
					"internalType": "string",
					"name": "name",
					"type": "string"
				}
			],
			"name": "getEntityByName",
			"outputs": [
				{
					"components": [
						{
							"internalType": "string",
							"name": "name",
							"type": "string"
						},
						{
							"internalType": "enum Main.EntityType",
							"name": "entityType",
							"type": "uint8"
						}
					],
					"internalType": "struct Main.Entity",
					"name": "entity",
					"type": "tuple"
				}
			],
			"stateMutability": "view",
			"type": "function"
		},
		{
			"inputs": [
				{
					"internalType": "address",
					"name": "_userAddress",
					"type": "address"
				}
			],
			"name": "getUserByAddress",
			"outputs": [
				{
					"components": [
						{
							"internalType": "string",
							"name": "name",
							"type": "string"
						},
						{
							"internalType": "enum Main.Role",
							"name": "role",
							"type": "uint8"
						}
					],
					"internalType": "struct Main.User",
					"name": "",
					"type": "tuple"
				}
			],
			"stateMutability": "view",
			"type": "function"
		},
		{
			"inputs": [],
			"name": "owner",
			"outputs": [
				{
					"internalType": "address",
					"name": "",
					"type": "address"
				}
			],
			"stateMutability": "view",
			"type": "function"
		},
		{
			"inputs": [
				{
					"internalType": "address",
					"name": "_userAddress",
					"type": "address"
				},
				{
					"internalType": "enum Main.Role",
					"name": "_role",
					"type": "uint8"
				}
			],
			"name": "setUserRole",
			"outputs": [],
			"stateMutability": "nonpayable",
			"type": "function"
		},
		{
			"inputs": [
				{
					"internalType": "uint256",
					"name": "",
					"type": "uint256"
				}
			],
			"name": "userAddresses",
			"outputs": [
				{
					"internalType": "address",
					"name": "",
					"type": "address"
				}
			],
			"stateMutability": "view",
			"type": "function"
		},
		{
			"inputs": [
				{
					"internalType": "address",
					"name": "",
					"type": "address"
				}
			],
			"name": "users",
			"outputs": [
				{
					"internalType": "string",
					"name": "name",
					"type": "string"
				},
				{
					"internalType": "enum Main.Role",
					"name": "role",
					"type": "uint8"
				}
			],
			"stateMutability": "view",
			"type": "function"
		}
	]
}